:020000040000FA
:10B400000248854602488047024800470040002025
:10B41000E1E5000019B400000348854600F07CFA1D
:10B42000004800473951010000400020401E00BF85
:10B4300000BF00BF00BF00BF00BF00BF00BF00BF14
:10B4400000BF00BF00BFF1D170470000401E00BF29
:10B4500000BF00BF00BF00BF00BF00BF00BF00BFF4
:10B4600000BF00BF00BFF1D1704730B50B460146A9
:10B4700000202022012409E00D46D5409D4205D33D
:10B480001D469540491B2546954040191546521EBC
:10B49000002DF1DC30BD10B5431A934209D2831858
:10B4A000881803E0401E01785B1E1970521EF9D205
:10B4B00010BD03460B439B0703D009E008C9121FC8
:10B4C00008C0042AFAD203E00B78491C0370401C20
:10B4D000521EF9D210BDD2B201E00270401C491ECA
:10B4E000FBD270470022F6E710B513460A46044621
:10B4F0001946FFF7F0FF204610BD30B50446002086
:10B50000034600E05B1C934203D2E05CCD5C401B31
:10B51000F8D030BD001D0321401E037812021A43EB
:10B52000491EF9D510467047034603220870491C8E
:10B53000000A521EFAD5184670470000F0B50746BB
:10B540000846584087B0C00F049048000E46590086
:10B5500040084908BC1A884105D2384631461E4683
:10B5600017460B46024658004008104303D13846A0
:10B57000314607B0F0BD300D039040055900400D35
:10B58000490D0590401A029040286DDA18030121F8
:10B59000000B09050843019004980092002805D08B
:10B5A0000199524200208841009201900298402166
:10B5B0000A1A0199009800F01BF905460C466846E6
:10B5C00007C800F036F9C0197141039A0E0D002327
:10B5D000D71756401A467A40164340D0049A002A9C
:10B5E00029D0029A012A039A11DC1205C01A91414E
:10B5F00001263605001C7141D20F059ED20700932B
:10B60000019202962A46234600F033F9B1E7160567
:10B61000224A0F46B218C01AB74101210905001C81
:10B620004F4100187F41114618187941E20F10432D
:10B630006D19644113E0E2076D0815436408C20701
:10B640001443039A01261205C01A91413605001CC5
:10B650007141CE07400830434908C01851412A467D
:10B66000234600F0F9F884E7049801224000C1174E
:10B67000121A00238B4104983146C417381AA1418D
:10B68000EFE730B40124E407634030BC56E730B440
:10B690000124E407614030BC50E700000000E0FFF7
:10B6A000F0B51FB488B00B99099800244840099957
:10B6B000C00F490049080991C0070B990090490043
:10B6C00049080B9109990898A646084303D00B999D
:10B6D0000A98084303D1002001460DB0F0BD099837
:10B6E00001244000420D4800410D09982405000343
:10B6F000000B204309900B980003000B20430B9094
:10B7000050181A494018002201901446104601E0D2
:10B71000032801DA034600E003239C46C11A0AAE5F
:10B720000AE05F0008ADED5B4F00F75B7D4300274B
:10B73000AA187C415B1E491C6145F2DD410004AB47
:10B740005A522104120C0A43240C401C0828DFDB47
:10B75000019802900099704601910090059B049A0F
:10B760000799069800F085F8B7E700000DFCFFFF89
:10B770000EB5C217C10F5040CA0740180021054B33
:10B780000293019200910A460B4600F072F803B052
:10B7900000BD0000330400000EB5054902910021F0
:10B7A00000910A460B46019100F063F803B000BD1A
:10B7B000330400004A0009030123090B1B05194348
:10B7C000094B10B5520D9A4201DA002010BD064B0C
:10B7D00034339A4203DC9A1A00F01AF810BD034978
:10B7E0005118884010BD0000FF030000CDFBFFFF93
:10B7F00010B5202A04DB0146203A9140002010BDFC
:10B80000914020239C1A0346E3401943904010BD09
:10B8100010B5202A04DB0846203AD040002110BD94
:10B820000B46D340D0402024A21A91400843194629
:10B8300010BD10B5202A06DBCB170846203A104170
:10B84000C1170B4306E00B461341D0402024A21A37
:10B8500091400843194610BD10B5002B08DA0024AA
:10B86000401C614192185B411A4301D140084000DD
:10B8700010BDF0B51FB482B005460C0003D00846D9
:10B8800004F096F802E004F093F8203002460090AD
:10B8900021462846FFF7ACFF049B059A04460F4655
:10B8A00018431143084303D12046394607B0F0BD81
:10B8B0001846104317D0009840210A1A18460599D7
:10B8C000FFF7A6FF05460E46009A05990498FFF774
:10B8D0008FFF084301D0012000E00020C11705437D
:10B8E0000E432C43374300990E986305401A79059F
:10B8F000E40A0A3000220C43FD0A002802DA002084
:10B900000146D3E70105101969410C9C0D9D0019F2
:10B910006941FFF7A1FFC9E7064C0125064E05E086
:10B920002046E36807C82B4398471034B442F7D346
:10B93000FFF776FD647F0100B47F010070B58C18BD
:10B940000578401C6B075B0F01D10378401C2A115E
:10B9500006D10278401C03E00678401C0E70491C9A
:10B960005B1EF9D12B0705D40023521E0DD40B709A
:10B97000491CFAE70378401CCB1A921C03E01D789F
:10B980005B1C0D70491C521EF9D5A142D8D3002072
:10B9900070BD0000EFF303803F21084080000121CB
:10B9A00049074058004700B501F002FC0BF058FF72
:10B9B00000B501F029FC002801D00BF051FF00BDBB
:10B9C00001204007583000680047012040076430DC
:10B9D00000680047012040076830006800470120E8
:10B9E00040076C3000680047012040078430006841
:10B9F0000047FEE76846714604207146084202D0BF
:10BA0000EFF309800847EFF308800847FEE7FEE7F9
:10BA1000FEE701DF0C4A002050607F230B49DB0565
:10BA20004B6148600A480221016041608160C16049
:10BA3000016141618161C161016281630121016331
:10BA400001621160704700000005004000050050D1
:10BA50000007005010B506220421052002F002FA6A
:10BA6000052001F02BFD01F005FE03F03BFC01F089
:10BA7000DBFF01F079FD10BDF8B5194F01263E61DD
:10BA8000184C21690029FCD00025256116498860E1
:10BA900016484860012002F075FF01F0D9FD01F061
:10BAA0006BFE3E6020680028FCD0002002F06AFF98
:10BAB00025600920FFF7BAFCE560BE60E068002859
:10BAC000FCD0E560BE600920FFF7B0FCE06800280C
:10BAD000FCD0E5603E6120690028FCD02561F8BDFE
:10BAE000001000400011004000150040EC1E002036
:10BAF000F8B5364801270078354D122802D028784D
:10BB0000012800D90027E86801F0C6FC052801D803
:10BB1000002F57D101F0B0FCE8602E4801260661E5
:10BB20002D4C20690028FCD0002020612C492B4896
:10BB30004860012002F026FF01F08AFD01F01CFEA2
:10BB40002448066020680028FCD00020206002F015
:10BB500019FF0920FFF76AFC0020E0601D498E6094
:10BB6000E268002AFCD00026E6601A4901208860BD
:10BB70000920FFF75BFCE0680028FCD0E66015496F
:10BB80000120086120690028FCD026616878401CEB
:10BB9000C0B268702978884200D36E701148697805
:10BBA000415C0F488160012F0CD1A8680E49401CF0
:10BBB000A860884206D90948AE600178FF2902D002
:10BBC000FF210170F8BDFE21FBE700002C0E0020D4
:10BBD000C81E00200010004000110040EC1E002094
:10BBE000001500406C1F00200F270000F8B53B4BEC
:10BBF00002221A603A4B5C6814435C60394A53680D
:10BC00009B07FCD5384A1379384A002B4DD0FA23CC
:10BC1000D360364A00231361FF245462344C94628B
:10BC2000FF24E443D461334C1462D36201241463CF
:10BC30005361314B9361314A2828107001D9282073
:10BC400010702E482E4F03781E465B1E002B15DD0C
:10BC500001254A1E781EF407ED07641903D0521C13
:10BC60001478401C047054785B1007D0921C15782F
:10BC70004470801C547805705B1EF7D11F4C761EF3
:10BC800001D4885DB8550025657018483978816001
:10BC900002214163416B8907890F022907D0416B5B
:10BCA0008907890F012906D00AE00423B0E7154966
:10BCB000C163154903E0FF21C163FF21083181639E
:10BCC000A56001F0D9FBE060AA2220210F48FFF710
:10BCD00002FC2571032002F07DFEF8BD80E100E04A
:10BCE00000050040000400402C0E0020001500401C
:10BCF000C8C7C6C5C2C2C20000200301C81E0020BA
:10BD00006C1F0020FFFF000021100100EC1E00202E
:10BD1000F8B50C4605460027B4E12E07360F2D096D
:10BD2000032E42D0042E40D00A2E09D0330003F057
:10BD300056FE0C6B6CF33E3EF1E0F08FEF09EE6BBC
:10BD4000EFB22D0A2068801E0BF006FACF4E307835
:10BD5000032878D0CE4902200860CF48CD498160C1
:10BD6000CC4909394160CD488169090A0902394342
:10BD70008161CA49CA48486101F05EFCA169206836
:10BD800040180D300BF0DAF90020B060C54908808A
:10BD9000BF4AC149FC3A40310A60C34A4A60BE4AC0
:10BDA00040215160012171706BE1EFB22D0A2068D2
:10BDB000801E0BF0D1F9B5480078032873D0B44940
:10BDC00002200860B448B349816008214160B3484B
:10BDD0008169090A090239438161FF20AF490930AD
:10BDE000486101F029FCA169206840180D300BF072
:10BDF000A5F9A64800238360AA4A1380042E5ED0CA
:10BE00000A2E5CD0437003703CE120680BF0A4F96B
:10BE10009E4E307803280AD09D49022008609E4833
:10BE20009C49816008214160FF20093021E003F036
:10BE3000CDFF16200BF0BCF9207FFF236268A168BC
:10BE40000BF03AFAF0E747E001F002FC012018E1BC
:10BE500020680BF081F98D4E3078032816D08C497C
:10BE6000022008608C488B4981608121C9004160B3
:10BE70008B488A4948610020B0608A490880307840
:10BE80000328E1D120688C302060DDE703F09EFFBD
:10BE900086480BF08DF9207FFF236268A1680BF0C4
:10BEA0000BFAE5E7FFE703F091FF07200BF080F9BD
:10BEB000207F3B466268A1680BF0FEF98DE77A4A65
:10BEC0007549F03240310A60774A4A60724A40212F
:10BED00051600121417096E703F078FF6D480A3800
:10BEE0000BF066F9207F3B466268A1680BF0E4F92D
:10BEF0003FE76D496848EC31403001606A49416074
:10BF0000654940204860614901204870BAE070E00E
:10BF100017E0AFE043E0FFE720696049801D48601B
:10BF200020692168C079C000E630081820605848B0
:10BF30000168042291430822114301600BF012FAB8
:10BF4000A0E0266970790090B07970712069C0799D
:10BF5000B07121690020C8715549701DC8605548ED
:10BF600008614E4948604A4801680422914308220A
:10BF7000114301600BF0F6F92169B079C8712169AC
:10BF800070798871009870712069C17900292168E1
:10BF900001D020312160C079C000E63026E0E068A1
:10BFA0003E49801D48603A480168082291430422B6
:10BFB000114301600BF0D6F903F038FFA077334846
:10BFC0004078002803D035484030806860773A4890
:10BFD000006809F0D1FC01466061A07F002801D013
:10BFE00004284FD1E068C079C000B930081820603B
:10BFF00048E02F482F49C160E268521D026127487E
:10C0000041602348016808229143042211430160E2
:10C010000BF0A8F903F00AFFA0771C48407800282D
:10C0200003D01E484030806860772348006809F0DC
:10C03000A3FC6061A07F002801D0042822D1E06821
:10C040008179C17141798171E1686269C879C00003
:10C05000B93010182060C979002913D02030206031
:10C06000A07F00280ED11548006800280AD10A20B8
:10C07000A07707E0054E3078032801D005F048FF8F
:10C0800003203070002D00D047E6F8BDF0110020ED
:10C0900000120040110C000000F5014000150040A6
:10C0A00005010300241200201410004016040000B3
:10C0B00000F50040A01E00204885004000F400402C
:10C0C000F0B5044600780226C0066578400F83B0BC
:10C0D000042802D0002003B0F0BD01F019FCC7B263
:10C0E00001F0C2FA0190A80708341E4D002817DAA3
:10C0F0002846C17A0122491CC1721B4805210378D8
:10C100002578401C641CAB421FD1521C8A42F6DBCE
:10C11000012401F0B1F9014612488163047014E072
:10C12000287B0122401C28731048052103782678BB
:10C13000401C641CB34207D1521C8A42F6DB012426
:10C1400001F09AF9E8636C7000260948009740787E
:10C15000002342083046019901F07CFC012003B025
:10C16000F0BD0000941F0020920E0020960E0020CB
:10C17000700E002030B50D494A6813040C4A13D4E0
:10C180000C4B5C680D14AC435C604C686404FCD4DC
:10C190005C680125ED032C435C604B681B04FCD5F7
:10C1A0000221116004495161906030BD00040040DB
:10C1B00000F5004000050040701E00200AC94361E0
:10C1C0000161027607490020086048600649002A9C
:10C1D00004D048600120054908607047012048608C
:10C1E0000020F8E700F1004000F5004000F20040B8
:10C1F00000B507484168090409D506494A68C313D0
:10C200009A434A6041680904FCD403F0C1FC00BDB4
:10C21000000400400005004010B40024002B00D1B1
:10C220001024022800D00834002900D0241D042A3C
:10C2300002D310BC28207047A01810BCC0B27047B1
:10C24000F8B5424C0026A078002804D001F014F97B
:10C250002063A670F8BD3E4DA87A01280BD13D4859
:10C260000068012807D13C48FFF72AFF012814D0B5
:10C27000394800F019FE206B01F00EF90A2805D8A4
:10C28000A878002859D0E978002952D001F0F4F8B4
:10C2900020632878002805D00EE020212E4800F0E9
:10C2A000B7FDE8E701F0E0F90096617800234A085D
:10C2B0000146022001F0CEFB6878002809D101F088
:10C2C000D3F90096617800234A080146184601F028
:10C2D000C1FBA878002809D101F0C6F90096617861
:10C2E00001234A080146022001F0B4FBE878002847
:10C2F00009D101F0B9F90096617801234A08014695
:10C30000002001F0A7FB2E706E70AE70EE70607AA8
:10C31000401CC0B26072082800D36672617A880738
:10C32000400F890808436070C007C00F01F044FA4D
:10C3300006E0A87A012803D0F8BDA87A0128FBD12D
:10C340000121AE72084602F02BF8F8BD700E0020F5
:10C35000941F002000140040682200200021214A80
:10C3600008465054491CC9B20429FAD31E4A002178
:10C370005054491CC9B20429FAD31C4A0021505414
:10C38000491CC9B20429FAD3194A00215054491C46
:10C39000C9B20429FAD3174A00215054491CC9B222
:10C3A0000429FAD3144A00215054491CC9B2042963
:10C3B000FAD3124A00215054491CC9B20429FAD3B5
:10C3C0000F4A00215054491CC9B20429FAD30D4A1E
:10C3D00000215054491CC9B20429FAD30A49888360
:10C3E00070470000282100204821002068210020FB
:10C3F00088210020A8210020C8210020E821002059
:10C400000822002028220020700E0020F0B593B0F2
:10C4100004460027684607700D784A7801200E46CA
:10C42000C12D7DD028DC122D49D012DC042D50D036
:10C4300008DC002D57D0012D73D0022D58D0032DCC
:10C4400070D151E0062D6ED0102D4DD0112D69D137
:10C450004AE06B2D68D008DC222D66D0322D2ED01C
:10C46000332D7DD0342D5DD129E0822D79D0832DDF
:10C4700078D0A22D56D122E0F62D55D012DCDD2D3C
:10C4800071D008DCC32D6FD0D22D18D0D32D16D08B
:10C49000D42D47D113E0F12D46D0F32D71D0F52DD9
:10C4A00040D193E12946F73907293BD20B007B4461
:10C4B0001B79DB189F44FCFBE5FAF9F8F7002570BF
:10C4C0006A46E11C304602F0A3FE607068460078C0
:10C4D00068E125707078F21C401EC1B2B07803F09C
:10C4E000EDF86070A770E5E125706070A770E1E17C
:10C4F00025706070A770B5783D20454303206946DC
:10C5000008707078401E0006000E707036D06F09FB
:10C510008F710AAA02A901A802F0E8FD747805E06B
:10C52000A7E02FE0B5E17AE03EE19AE0202C00D3CD
:10C530002024E806C00E2021091AA14200D80C468A
:10C540006946097802AA101871182246FEF7A3FF5F
:10C55000F8B202AA202103F043F86946087804E003
:10C5600046E066E071E074E155E10019087070780A
:10C570002D19001B0006000E7070C8D1002013B0EA
:10C58000F0BDE3E025706070F078A070B578002D04
:10C5900003D1CA4809798170C770E61C3D2707F0AE
:10C5A000CFF800280ED03A203D214D434519E8042C
:10C5B000000E12AB0AAA202102F018FD202F03D989
:10C5C000202002E0F720EFE73846C4B2E906C90EA2
:10C5D0002020401AA04200D204460AA80918224688
:10C5E0003046FEF758FF36192D193F1BDFD161E1A8
:10C5F00007F0A6F8002810D03A2625703346621DB1
:10C60000211DE01C02F066FC607020794001B04200
:10C6100000D80646B61CA6704CE1F726EDE725705B
:10C620006A46E11C304602F061FD607068460078A1
:10C63000B8E0521ED1B225706B46E21CB01C02F06D
:10C6400081FE607068460078ACE0521ED1B2257061
:10C650006B46E21CB01C02F033FF60706846007845
:10C66000A0E02570F178B0786B46E21C02F0BEFCC9
:10C670000AE125706070A270B11CE01CFEF70BFF90
:10C6800018E1257069460978491CCAB269460A70E2
:10C69000A0540878401CC0B2087027540878401C89
:10C6A0000870B01C05E047E0A2E065E034E003E07C
:10C6B0001CE003F013F9FDE0257069460978491C78
:10C6C000CAB269460A70A0540878401CC0B208700B
:10C6D00027540878401CC0B208700146F378B2783D
:10C6E000204600F0E3FC694608702DE025706B469B
:10C6F0001978521E491CC9B2197060541878D2B208
:10C70000401CC0B2187027541878F11C401C1870D7
:10C71000B07801F07DF8CDE0257069460978491CB4
:10C72000CAB269460A70A0540878401CC0B20870AA
:10C7300027540878401C8AE025706A461178491C05
:10C74000C9B260547F201070C01E2BE025706A466D
:10C750001178491CC9B2117060541078401CC0B2E5
:10C76000107027541078401CC1B21170204601F09F
:10C77000E5F86A46107015E025706A461178491C84
:10C78000C9B2117060541078401CC0B210702754A8
:10C790001078401CC1B21170204600F071FC6A464E
:10C7A0001070C01EA07085E0257069460978491C8C
:10C7B000CAB269460A70A0540878401CC0B208701A
:10C7C00027540878401C087003200FE02570694644
:10C7D0000878401CC0B2087027540878401CC0B2CA
:10C7E000087027540878401C0870022033492EE056
:10C7F000257069460978491CCAB269460A70A05476
:10C800000978491CCAB269460A702C49A7540870B5
:10C81000002013B0F0BD257069460978491CCAB2E2
:10C8200069460A70A05408780222401CC0B2087001
:10C8300022540878401CC0B2087022540878401C6A
:10C84000C0B208701121215469460878401C087054
:10C8500030E02570887869460F70042802D00528DA
:10C8600011D10DE000F0AAFA01461548427803788C
:10C8700012021A4389180170090A4170012003E06D
:10C88000012000F093FA0020607068460078A070E4
:10C8900010E0257068460078401CC1B268460170FF
:10C8A00067540078401CC1B2684601706754017833
:10C8B000491C0170012013B0F0BD0000200E0020C3
:10C8C00044120020F0B5D7480027807A8FB03E464A
:10C8D00001286ED1D34900208872D3480023017803
:10C8E000012280200C46144200D003435206120E4F
:10C8F0004008F7D1CD4C636200F050FBE061206B43
:10C90000400840002063CA480068012850D1C94847
:10C9100000F0CAFA01284BD1C648C24D4478022023
:10C920000440687CA04243D100F0A6FD29468862FD
:10C930007320C862497CC0484908C04A4078B94D54
:10C940005054002C12D0A88B401CA88300F094FDFA
:10C95000A864B849887800282CD0012828D002285B
:10C960000BD0032826D004287ED0C2E0688B401C60
:10C97000688300F081FD2864EBE74878AE4B8008BF
:10C98000DA788000002A15D0A64A927C904211D114
:10C9900000280FD0AA48A7491F220C78047014461B
:10C9A000521E491C401CD2B2002CF6D10020D87077
:10C9B000CCE005E1A0480127C078CD783E460028AC
:10C9C0007ED09C49002000F09BFB9B49098A401ABD
:10C9D00080B206909749012000F092FB9649498A5F
:10C9E000401A80B208909349022000F089FB9249D6
:10C9F000898A401A80B209908E49032000F080FB9A
:10CA00008D49C98A401A80B20A908648C17C491C67
:10CA1000C174022C72D08B4B00208B490190009185
:10CA20000290224603950121069802F02BF87D48DA
:10CA3000C07B012811D9022C62D08249844A8C46DD
:10CA40008249844B401E0291039500930192C1B22A
:10CA500063462246089802F015F87248C07B042805
:10CA600013D9022C4ED000E041E076497B4A8C4637
:10CA700079497B4B001F029100930192C1B203954B
:10CA800063462246099801F0FDFF6648C07B0728EF
:10CA900011D9022C38D06B49744B8C467149724ABB
:10CAA000C01F009302910192C1B2039563462246D2
:10CAB0000A9801F0E7FF6048C07800283DD000E008
:10CAC0003FE05C49042000F01BFB5B492B460A8BCE
:10CAD000498B801A4018534980B20A7C214600F0E5
:10CAE000D1FB504908750A7C002A0FD011E00027BD
:10CAF0000126CD78012EDED01FE0FFE75C4B8BE7EF
:10CB00005B499BE75A49B1E75949C5E745490128BF
:10CB100005D04449824210D1002808D10DE0484890
:10CB200002785209072A08D18078022805D1424AA2
:10CB30000020D070487D401C4875012F01D0012E87
:10CB400004D100F091FD3C498871CD713A4C607878
:10CB5000C007C00F00F030FEE078002808D00121A7
:10CB6000002001F01DFC2F48807D012803D027E024
:10CB700001210846F5E73F4805903F4800213F4C1A
:10CB800084460B460A460598805C202810D2950002
:10CB9000EF290DD866466759765C491C3F5CC9B2DF
:10CBA000BE4201D05B1CDBB2401CC0B22028EFD3D8
:10CBB000521CD2B2092AE6D31A48016D59180165F0
:10CBC0001D4DE87800282AD0164CA06A00F064FCBD
:10CBD000E16A884223D32A48406800281FD100F028
:10CBE0004BFCA0621E20E06200F03EFD00260146E4
:10CBF0000096687801234208607C00F02BFF68787B
:10CC0000401CC0B26870082800D16E706878C007F8
:10CC1000C00F00F0D1FD0121002001F0C1FB0FB0D9
:10CC2000F0BD0000941F00208E0E00200015004073
:10CC30000014004068220020700E0020AB1F00206E
:10CC400028210020960E0020E81F00204820002008
:10CC50002820002008200020A82000208820002074
:10CC60006820002008210020E8200020C8200020A3
:10CC7000920E00208C7A01008C790100407901002D
:10CC800000110040F0B583B0292069460870414C7E
:10CC90004149627948790127404E0025052A70D222
:10CCA00013007B441B79DB189F4402181E285E008A
:10CCB0000E460028694609D00120FEF797FF7079DB
:10CCC000002807D04E20FEF7D7FE5BE0012001F0E0
:10CCD00085FDF4E74E2001F0B1FC53E0002801D0BF
:10CCE000292004E0292006E0002803D00420FEF7D4
:10CCF000C3FE47E0042001F0A1FC43E069460120A7
:10CD000000F042FF264929200F6131690029FCD03B
:10CD100022490D612349886000F002FD00F02CFDDE
:10CD20001F4E7760B76000F0A7FB019000F0B4FBE6
:10CD3000052801D20198F9E71848C56000F0CCFC3D
:10CD40003761164801690029FCD005616078401CF4
:10CD5000C0B260702178884200D365701248617853
:10CD6000415C104881600DE000F040FD00F004FDE2
:10CD70000B480760076130690028FCD0356101E08D
:10CD8000FFE725716079411C6171042800D9657144
:10CD900003B0F0BDC81E00202C0E00200011004082
:10CDA00000100040001500406C1F002002498875EB
:10CDB0000020086570470000941F0020F0B511485E
:10CDC000002286461048114C844610461346714690
:10CDD000C95C202910D29D00EF2A0DD866466759FC
:10CDE000B65C521C7F5CD2B2BE4201D0401CC0B2C5
:10CDF000491CC9B22029EFD35B1CDBB2092BE6D357
:10CE0000F0BD0000967A01008C790100687901007C
:10CE1000F0B40D4B00241D782246042D12D26B076E
:10CE20001B0E0A4E09E0075DF754641C5B1C521C84
:10CE3000D2B2E4B2DBB2202A01D28A42F3D3024852
:10CE40006D1C0570F0BC7047B30E002078120020F6
:10CE50000149002008707047B30E002070B40D4DDA
:10CE6000044600202B780246002B11D05B1E2B704D
:10CE70005B071B0E084D09E0EE5C26545B1C401C52
:10CE8000521CD2B2DBB2C0B2202A01D28A42F3D302
:10CE900070BC7047B30E0020781200200148007863
:10CEA00070470000B30E0020F0B501784478C80642
:10CEB0000225400F83B0022802D0002003B0F0BD4D
:10CEC00000F026FDC6B200F0CFFB0190A007104C89
:10CED0000127002807DA607B401C607300F0CCFA61
:10CEE0002063A77007E0A07B401CA07300F0C4FA89
:10CEF00060630025E77007480096407801234208E8
:10CF00002846019900F0A6FD012003B0F0BD000005
:10CF1000941F0020700E0020F7B5174600252A4602
:10CF20000121009B0198FFF777F91B4E0121397011
:10CF3000345C30184178A14201D301250C46817838
:10CF4000A14201D302250C46C078A04201D303259B
:10CF5000044600221146009B0198FFF75DF9325C00
:10CF60000021A24202D33970345C00253018427887
:10CF7000A24202D33970447801258278A24202D3BA
:10CF8000397084780225C078A04201D30325397016
:10CF9000284603B0F0BD0000F812002070B4164C13
:10CFA00000226378012180201D460D4200D00243FB
:10CFB0004906090E4008F7D11502A3780021012285
:10CFC00080201E46164200D001435206120E400831
:10CFD000F7D129430D02E3780021012280201C466D
:10CFE000144200D001435206120E4008F7D12943E3
:10CFF00070BC0802704700008E0E002010B4074875
:10D0000001220378002080211C46144200D00843EE
:10D010005206120E4908F7D110BC70478E0E002040
:10D0200070B4164C00226378012180201D460D4209
:10D0300000D002434906090E4008F7D11502A37833
:10D040000021012280201E46164200D001435206D4
:10D05000120E4008F7D129430D02E3780021012286
:10D0600080201C46144200D001435206120E400894
:10D07000F7D1294370BC080270470000A40E0020BD
:10D08000094AD3784354491CC9B2537843547F2387
:10D09000491C5370C9B292784254491CC9B2AA22A1
:10D0A0004254491CC8B270472C0E002030B40446CC
:10D0B000012A1FD11148C5698269954200D2C26117
:10D0C000022B07D3828B150A6554491CC9B26254DE
:10D0D000491CC9B2042B07D3028A150A6554491C9E
:10D0E000C9B26254491CC9B2052B03D3C07860543D
:10D0F000491CC9B230BC084670470000C81E002059
:10D1000010B5400040180179407909020818C004A0
:10D11000000CFEF741FB064B9A6BDB6BFEF7C0FA87
:10D12000FEF748FB034980B2884200D9084610BD8B
:10D13000700E00208890000070B4164C00226378B6
:10D14000012180201D460D4200D002434906090EF0
:10D150004008F7D11502A3780021012280201E4645
:10D16000164200D001435206120E4008F7D129435F
:10D170000D02E3780021012280201C46144200D0D9
:10D1800001435206120E4008F7D1294370BC080231
:10D1900070470000B41F002003480168491C01606B
:10D1A0000249002008607047E811002000E10040BB
:10D1B0000A4840680A4AC30600200A49002B05DADB
:10D1C00010614B885B1C4B8001238B6050601060AA
:10D1D000C868002800D000477047000000130040D6
:10D1E00000110040F0110020054800214160054B6E
:10D1F00001225A600268002AFCD0016070470000DA
:10D20000001100400010004010B50D494B6800228D
:10D210000C48012B04D183880224234383804A6075
:10D220008B68012B01D0002010BD43885B1C43801C
:10D2300083880424234383808A60012010BD00007A
:10D2400040810040201200200149C8607047000062
:10D25000F01100200249024608690A617047000087
:10D26000F01100200648054901600449F039416089
:10D2700003494020403948607047000004110040D5
:10D2800040F50140FFB51546064600276749FF22D5
:10D2900083B05F2003460A70401E491CC0B2002BB9
:10D2A000F8D1002D00D101250021022008F060FAFC
:10D2B00000F048FA5E49002008635E4800210378C8
:10D2C000012280201C46144200D001435206120E57
:10D2D0004008F7D156488162FFF7A2FE5449086220
:10D2E000086B10210843524908630020C862069861
:10D2F0008860202000904D480024486000F010FA1B
:10D300000021012008F034FA4B480121816001F02E
:10D3100057FBB04270D2AF426ED2484BD86801285A
:10D32000F5D1424900980A1841484260424A01201A
:10D3300090600022DA60424A1268D2B296460A1918
:10D34000049901928C461178CB065B0F022B49D1D0
:10D3500052780092CB070240DB0F9A4242D0009AEB
:10D3600002231A4062453DD17246012A3AD1354A1C
:10D3700011724A09921E022A05D853008907D21851
:10D38000890F5118CFB22F49B8408A8B1043888338
:10D390000199092F24D23B007B441B79DB189F4461
:10D3A0000406080A0C0E1012140027480EE0274845
:10D3B0000CE027480AE0274808E0274806E027480D
:10D3C00004E0274802E0274800E027481F220B78A6
:10D3D00003701346521E491C401CD2B2002BF6D1DA
:10D3E0007F1CFFB2202C03D02024002000908EE769
:10D3F00000242020FAE7FFE700F06EF911481C4BEB
:10D40000808B1A4942081A40801A024680080A4056
:10D410000840101801090818164907B00840010A09
:10D420000818010C08188006800EF0BD6822002044
:10D4300000150040A40E0020001000400011004024
:10D4400000140040700E00202821002048210020F8
:10D450006821002088210020A8210020C821002068
:10D46000E821002008220020282200203333333313
:10D47000555555550F0F0F0F0121044889020160C2
:10D480000348044A006811607047000080E100E032
:10D49000240E002000E100E00121054A890211600C
:10D4A000044A054B1268196002490968081A704756
:10D4B00080E100E0240E002000E100E0F8B5044621
:10D4C00016484168051529434160154948684005DB
:10D4D0000BD4012206E01046521C0A2802DB00F0A1
:10D4E00051F802E048684005F5D50E4900224A602F
:10D4F000042008610C4B0120D8607D26F6000B4FFC
:10D5000066433E600A4E30608A600A4A01045160F8
:10D5100009490D6009494C601860F8BD00050040DC
:10D520000004004000A5004000A0004040A50040CD
:10D5300000A2004000A3004000E100E0240E002013
:10D54000C106C90E012088400149086070470000EB
:10D5500080E100E0C106C90E012088400149086051
:10D560007047000000E100E0044841688205114373
:10D570004160034841684900FCD570470005004000
:10D58000000400400149032048707047200E00202D
:10D5900070B501F04DFA18490020C860486017487E
:10D5A0000068174D012401281CD1164A1C2110784F
:10D5B0000840102801D0082814D11349CB78002B3B
:10D5C00003D0097900290BD010E00879012801D097
:10D5D00002280BD10D4990680968884202D105E004
:10D5E000082803D001F040FAAC6070BD0849022061
:10D5F00008600848847270BD0011004000140040AB
:10D600000010004068220020700E0020B41F00208F
:10D6100080E100E0941F0020054900204870054883
:10D6200041680122520791435210114341607047F3
:10D63000B00E002000050050044841681322D205B6
:10D6400091430322120611434160704700050050C8
:10D65000044841681322D20591430122D206891859
:10D660004160704700050050014840787047000055
:10D67000B00E002013484168C205114341601248B2
:10D6800041680029FCDA11490D20C861086248622E
:10D690008862C862086348630D4841681322D20556
:10D6A00091430122D206891841604168921091434A
:10D6B00041604168520091434160064902208870F0
:10D6C0007047000000050040000400404007005083
:10D6D00000050050B00E00200348416801225206A8
:10D6E0009143416070470000000500500148807878
:10D6F00070470000B00E00200348416801229206E6
:10D700001143416070470000000500500348416824
:10D7100001229206914341607047000000050050CD
:10D72000064841681322D205914303221206114391
:10D7300041600349012088707047000000050050D7
:10D74000B00E00200A4841681322D20591430122FD
:10D75000D206891841604168921091434160416846
:10D7600052009143416003490220887070470000D5
:10D7700000050050B00E002070B40D4B01251E783E
:10D78000290700240B484A00022E02D0002E03D0A5
:10D7900007E05E78002E04D05C70436893430B432F
:10D7A00003E05D7043688B431343436070BC704774
:10D7B000B00E00200005005010B401225207094CA1
:10D7C00009495310002807D0012060704868984329
:10D7D0001043486010BC7047002060704868904358
:10D7E0001843F6E7B00E00200005005006484168D7
:10D7F0001322D20591430122D205891841600349C1
:10D80000002088707047000000050050B00E002016
:10D8100030B400240125012812D013232B4ADB0544
:10D8200002281ED003282CD0042837D005283BD04E
:10D830002749062847D0072800D10C7030BC704714
:10D8400009782448002906D0012907D00229F5D1FA
:10D85000017030BC7047047030BC7047057030BC3C
:10D86000704708780028506806D001219843C90500
:10D870004018506030BC70470321984309060843A4
:10D88000F7E7097801204006002902D15168814359
:10D8900001E051680143516030BC704709780120B4
:10D8A00080060029F5D1F1E709780120C00600299A
:10D8B000516804D099430818506030BC70478143C8
:10D8C000516030BC70470D7030BC7047000500508F
:10D8D000310E0020B00E002030B50D460024034666
:10D8E000224621462846FEF797FCC11D88420BD8E8
:10D8F0000649081808210278A24200D91446401CA3
:10D90000491E0906090EF6D1204630BDF812002046
:10D9100008497F20CA69012A09D1074A90687F23F4
:10D9200093600022CA61642802D26421081A7047F9
:10D93000002070470011004040150040F0B586B04F
:10D94000044600206A4610743548002214238D18BE
:10D95000EFB24678801C6D1C921CE6555B1E067863
:10D96000EDB21B0666551B0EF1D128313020CDB229
:10D970000590022104AA0120FFF7CEFA014668466D
:10D98000007C60556D1CE8B22154401CC5B20021DA
:10D9900004AA0120FFF7C0FA01466846007C6055E2
:10D9A0006D1CE8B22154401CC6B2002568460570C3
:10D9B00005716A4602212846FFF7AEFA002103905E
:10D9C00001AA0846FFF7A8FA0290684601780023EA
:10D9D0000220039AFEF720FC124900230F5C6846E0
:10D9E00001791846029AFEF717FC0E49085C874237
:10D9F000684603D901780174039802E00179017443
:10DA000002986946097CA155761CF1B26054491C04
:10DA1000C8B22554401CC0B22554059806B0F0BDCC
:10DA2000F7120020F812002010B507484168C2051F
:10DA300011434160054841680029FCDA2821044867
:10DA4000FDF750FD10BD000000050040000400403F
:10DA5000F812002010B5029CFEF7DEFB7F2C03D0ED
:10DA6000282803D3002010BD282010BD0649002C13
:10DA70000A5C02D01219520802E013019A1A120924
:10DA80000A54012010BD0000F8120020F8B501244E
:10DA9000FFF746FEFFF770FE3548012646608660B8
:10DAA000FFF7EAFC334F0546F868002804D1284602
:10DAB000FFF7F2FC0A28F7D3F86800222E4D012860
:10DAC00015D12E490B5CFF2B00D00024401CC0B2A6
:10DAD000202802D2012CF5D006E0012C04D10878D0
:10DAE000FF280AD0FE2808D06869401C68611446E7
:10DAF000FA60F869012822D024E0E97800290AD0E8
:10DB000001290BD00229F2D1A978884211D12869C4
:10DB1000401C2861EBE7A870EE70E8E72969491C12
:10DB20002961A9788842E2D002212E61E970A870AB
:10DB3000DDE7A87028692E616A61A861D7E7FC61FA
:10DB40000B488661FFF7C8FD6878401CC0B268705A
:10DB50002978884200D36C7009486978405C09498B
:10DB600088600348066138690028FCD03C61F8BD34
:10DB70000010004000110040C81E00202C1F002093
:10DB80006C1F002000150040F3B50D46384981B0E8
:10DB90000220086037494A6802434A6036484168B3
:10DBA0008907FCD5354C0026E66001272761FFF781
:10DBB00025FA6062FFF7F2F9E061E66227636661C9
:10DBC0002F48A0612F4801990170282901D92821E7
:10DBD00001702C482C4F02781646521E002A15DD83
:10DBE00001236C1E781EF107DB07C91803D0641CE3
:10DBF0002178401C01706178521007D0A41C237852
:10DC00004170801C61780370521EF7D11D4A761E48
:10DC100001D4A85DB8550021517018483B78836045
:10DC200002234363436B9B079B0F022B05D0436B7F
:10DC30009B079B0F012B04D008E0144BC363144BCC
:10DC400003E0FF23C363FF2308338363114B436067
:10DC5000114B7F209860917011619161D1701171A9
:10DC6000FFF700FB032000F0B5FE03B0F0BD00009D
:10DC700080E100E000050040000400400015004085
:10DC800000200301C81E00206C1F0020FFFF0000C1
:10DC9000211001002C1F002040150040F8B5FFF7AF
:10DCA0003FFDFFF769FD164E01257560B560FFF772
:10DCB000E3FB04462046FFF7EFFB0528FAD3114C9F
:10DCC0000027E760FFF708FD356120690028FCD0D8
:10DCD00027610D484178491CC9B2417002789142D0
:10DCE00000D3477009494078085C09498860FFF70C
:10DCF000C3FB04462046FFF7CFFB0528FAD3F8BD47
:10DD00000010004000110040C81E00206C1F0020C1
:10DD100000150040F8B5FFF79BFCFFF72DFD2048EC
:10DD2000012646608660FFF7A7FB1E4D0446E868A3
:10DD3000002804D12046FFF7AFFB0A28F7D30027BD
:10DD4000EF6019480068012821D1E86901281ED137
:10DD500016488068C4B21648FEF7B2F9012816D1F9
:10DD60001448222C447002D810497F228A607F2CEC
:10DD70000DD08178A14200D98470C178A14201D32D
:10DD80007F2900D1C4700C49086A401C0862EF6109
:10DD900003488661066128690028FCD02F61F8BD20
:10DDA00000100040001100400014004040150040E9
:10DDB0002C1F00202C0E0020C81E0020F8B5FFF7F5
:10DDC000AFFCFFF7D9FC2048012646608660FFF7CC
:10DDD00053FB1E4D0446E868002804D12046FFF797
:10DDE0005BFB0A28F7D30027EF6019480068012879
:10DDF00021D1E86901281ED116488068C4B21648AE
:10DE0000FEF75EF9012816D11448222C447002D87E
:10DE100010497F228A607F2C0DD08178A14200D9E1
:10DE20008470C178A14201D37F2900D1C4700C490C
:10DE3000086A401C0862EF61034886610661286930
:10DE40000028FCD02F61F8BD0010004000110040F8
:10DE500000140040401500402C1F00202C0E002014
:10DE6000C81E002030B40C4B5C6808252C435C6055
:10DE70000A4B5C682407FCD5094B9A60D86019618D
:10DE8000980558620120186006490020486106493B
:10DE9000886030BC7047000000050040000400406E
:10DEA0000035004040350040003100400F4B00225B
:10DEB0009A60002901D162B6704730B40C4CE2611F
:10DEC00062B6491E09D09D68002DFCD09A60A569F4
:10DED0000570401CE261491EF5D199680029FCD00B
:10DEE0009A60A169017030BC7047000000310040A9
:10DEF00000350040F0B4114F0024BC60002A1AD055
:10DF000003780F4D401CEB6162B6521E0BD00678B1
:10DF1000401CBB68002BFCD0BC60AB69EE610B7091
:10DF2000491C521EF3D1B8680028FCD0BC60A86917
:10DF30000870F0BC704762B6F0BC7047003100401A
:10DF40000035004030B4104C0025A560002917D0E2
:10DF500003780E4A401CD36162B6491E09D0A368FB
:10DF6000002BFCD0A56093690378401CD361491E47
:10DF7000F5D1A0680028FCD0A560906930BC70473E
:10DF800062B630BC704700000031004000350040F0
:10DF9000024800698007C00F70470000000500506C
:10DFA00002480069C007C00F70470000000500501C
:10DFB000FFB5ABB000206946087202201590002022
:10DFC000139005F0BDFB2E99083118912E99FF3161
:10DFD00001311791002803D018984024019028E0BF
:10DFE0002D9800280BD04488002C08D0008813946A
:10DFF000011B2D9808181030019002200BE0488971
:10E00000002811D01899411801912E99897A0C1A7B
:10E01000E41C0120139469460872402C02DD402460
:10E02000139406E0002C04D102A8012401900020E2
:10E030001590002019902B9800280DD08588002D70
:10E040000AD001201990402D00D340252B98C1798A
:10E0500008300818149004E000202B901BA84025DD
:10E06000149072B6AC4201DA204600E02846002641
:10E07000AA491A960090771E086904E08707086984
:10E08000BF0F8007800F8742F8D1B8072AD51998AB
:10E09000002827D0F80705D0009A01991498FFF7B7
:10E0A00029FF08E029461498FFF74CFF1A980095BD
:10E0B000002800D1402414990098081814902B9837
:10E0C00000280AD081880098091A2B9881802B9803
:10E0D000C179009808182B99C8710098361800204B
:10E0E00016900BE0F80716D000990198FFF7DEFEB6
:10E0F00000982C99361800201690086000991A98FC
:10E1000040181A90AE422FD12B9800281CD080883E
:10E11000002807D01DE062B6052016902C9900203B
:10E12000086023E02B9800682B9000280CD01A9AE6
:10E13000808840218D1AA84200DA05462B98C179C3
:10E1400008300818149004E01BA814901A98402175
:10E150000D1A0198A41B801900260190AC4201DA27
:10E16000204600E028460090A6428EDBAD1B1698A4
:10E170000026052874D0F80720D01598002806D06E
:10E1800001281CD002286FD0032879D19FE068466F
:10E19000007A012809D002280BD02E993F2408725A
:10E1A0002E9809300190032007E01898032401906D
:10E1B00002E003A8042401900120159060E0684665
:10E1C000007A012802D0022838D10BE02E980B30BB
:10E1D00001902E98847A3C2C00D93C241798032176
:10E1E00041812BE02D98002282732D98C2736846DE
:10E1F000C17B837B08022D99184308802D994880A4
:10E200006846417B037B0802184301052D98090DE0
:10E21000818168462D99407B0E318006800F0BD09E
:10E22000012002430A702D98103001902D98048827
:10E230003B2C03D93B2403E00220F2E7002C03D05F
:10E240000220139415901BE00320159003A8019061
:10E250006846007A012805D004213F20441A0FE0C7
:10E260003CE001E00321F8E76846007A01280BD082
:10E27000022816D0002425460320159003A80190FB
:10E28000AC421DDA20461CE01798139940890328F8
:10E2900005D04022541A401817994881ECE73C22D7
:10E2A000F8E72D982D99408809888842139901D163
:10E2B0003B2200E04022541A401A2D994880DBE7A7
:10E2C00028460090002800D0DFE6F80722D005F0AD
:10E2D00037FA002803D01799402048811AE0684691
:10E2E000007A022807D001280BD0022812D001287A
:10E2F00010D01690EFE72D98408800280AD1022010
:10E3000007E0179841892E98807AC01C814201D17C
:10E310000120169016982FB0F0BD000000050050A7
:10E3200070B51C4D0346E9780020002930D1FEF776
:10E3300015F8194C9878E073D878207418796074BF
:10E34000002801D0022060745879A0740126EE7074
:10E350000020E0742075FFF78FF8A0627320E06260
:10E36000FFF7C4F9022811D0607C0C494008085C12
:10E3700068703040FFF720FAA07A002802D0FEF73C
:10E38000A1FA03E00121002000F00AF8AE7001209C
:10E3900070BD0000700E0020941F0020AB1F0020F5
:10E3A000F3B50746334881B00025C5604560324863
:10E3B00029468572022007F0DBF9FFF7C3F92F48E1
:10E3C0002F4940782F4C4008085CA0602563012647
:10E3D000002F13D02C4800210378012280201F46F3
:10E3E000174200D001435206120E4008F7D1616275
:10E3F000FEF7D4FDE061206B3043206302980028D3
:10E400001BD0224908784A788B78C97802430B439D
:10E410001A4312D000220123802107461F4200D058
:10E420000A435B061B0E4908F7D1A262FEF7F8FD0E
:10E430002062206B102108432063E5621448FF220C
:10E440001F210B460270491E401CC9B2002BF8D197
:10E4500000F00AFB0E486060FFF762F9002101201E
:10E4600007F086F90B4886600B490220086003B06C
:10E47000F0BD000000110040941F0020700E00202D
:10E480009A0E0020001500408E0E0020A40E0020E1
:10E49000682200200010004000E100E0F8B52F4D98
:10E4A00000262979002956D12D4982780A70C27830
:10E4B0004A7002798A704279CA7041780023091F34
:10E4C000CAB22849284C8B70CA70202A20D2002A50
:10E4D00011D0401DC91CD60703D0401C0678491C2A
:10E4E0000E70520807D046784E70801C891C067842
:10E4F0000E70521EF7D101262E711C48FF22637147
:10E500001F210B460270491E401CC9B2002BF8D1D6
:10E51000676AFEF7B1FF6062FFF7E8F8022818D0DB
:10E52000A07A002802D000F0B3FB12E0002F06D042
:10E530003846FEF7B1FF962801D2207900E000208E
:10E540006870C007C00FFFF737F900210120FFF7FF
:10E5500027FF0120A8703046F8BD0000700E002093
:10E56000B41F002048220020941F002058120020D1
:10E5700030B5164983B0086F496F154D029101906F
:10E58000687814494008085C009013480024027819
:10E590000121802013460B4200D004434906090E96
:10E5A0004008F7D1FEF7FAFC04430C480194FEF74B
:10E5B0004BFE6878C007C00FFFF7FEF869460020E1
:10E5C00007F0D6F8FFF7ACF803B030BD347A01009D
:10E5D000700E00209A0E00208E0E002091D50000B3
:10E5E0000B48416A0322114341620B4A09491160F9
:10E5F000012141610948002202608205116000BFCB
:10E6000000BF00BF00BF01680029FCD070470000B8
:10E61000000500400024F4001C120020000100400E
:10E6200004484268016889180160034900200860B5
:10E6300070470000240E002040A10040F8B51C4F98
:10E6400001263E611B4C21690029FCD00025256173
:10E650001949886019484860012000F093F9FFF7D4
:10E66000C5F8FFF789F83E60FFF746F82560206897
:10E670000028FCD0002000F085F925600920FCF777
:10E68000D5FEE560BE60E0680028FCD0E560BE60B5
:10E690000920FCF7CBFEFFF739F8E0680028FCD032
:10E6A000E5603E6120690028FCD02561F8BD0000CE
:10E6B000001000400011004000150040EC1E00203A
:10E6C000F8B53E48012700783D4D122802D0287841
:10E6D000012800D90027E868FEF7DEFE052801D8EA
:10E6E000002F68D1FEF7C8FEE860012000F04AF96B
:10E6F000012000F055F9334901200861324C2069AE
:10E700000028FCD000262661304600F049F9304947
:10E710002E484860FFF76AF8FFF72EF829490120D4
:10E720000860FEF7E9FF266020680028FCD026601C
:10E730000920FCF77BFEE660224901208860E26840
:10E74000002AFCD0E6601F49012088600920FCF700
:10E750006DFEFEF7DBFFE0680028FCD0E6600120DC
:10E7600000F01EF917490120086120690028FCD03B
:10E770002661002000F014F9002000F003F9687809
:10E78000401CC0B268702978884200D36E7011486E
:10E790006978415C0E488160012F0CD1A8680E4950
:10E7A000401CA860884206D90848AE600178FF295D
:10E7B00002D0FF210170F8BDFE21FBE72C0E0020E6
:10E7C000C81E00200010004000110040EC1E002078
:10E7D000001500406C1F00200F270000F8B53B4BD0
:10E7E00002221A603A4B5C6814435C60394B5A68E9
:10E7F0009207FCD5384A00231479384A002C4CD0B3
:10E80000FA24D460354A01241461FF255562344D41
:10E810009562FF25ED43D561324D15620023D36229
:10E8200014635361304B9361304A2828107001D92A
:10E83000282010702D482E4F0678731E002B15DDF2
:10E8400001254A1E781EF407ED07641903D0521CF7
:10E850001478401C047054785B1007D0921C157813
:10E860004470801C547805705B1EF7D11F4C761ED7
:10E8700001D4885DB85500256570184839788160E5
:10E8800002214163416B8907890F022907D0416B3F
:10E890008907890F012906D00AE0D360B2E715493C
:10E8A000C163154903E0FF21C163FF210831816382
:10E8B000A560FEF7E1FDE060AA2220210F48FCF7E9
:10E8C0000AFE2571032000F085F8F8BD80E100E024
:10E8D00000050040000400402C0E00200015004000
:10E8E000C8C7C6C5C2C2C20000200301C81E00209E
:10E8F0006C1F0020FFFF000021100100EC1E002013
:10E90000F8B51A4D18486860FEF770FFFEF734FF3F
:10E91000174E03203060174C01272760FEF7ECFEEE
:10E9200000F04CF8FEF7A8FD0090FEF7B5FD0528B5
:10E9300001D20098F9E70022326027610E48016990
:10E940000029FCD014460261FEF7E0FE0B48417836
:10E95000491CC9B241700278914200D34470084901
:10E960004078085CA860F8BDEC1E0020001500404F
:10E97000401500400010004000110040C81E00205B
:10E980006C1F00200122054912030028486802D0AC
:10E990001043486070479043FBE7000000050050BB
:10E9A000FF22054901320028486802D01043486020
:10E9B00070479043FBE700000005005070470000DF
:10E9C00002490120086002480068704740900040FA
:10E9D0004095004070B47D21C9000F4B48435968F1
:10E9E0005C15214359600D494A689205FCD50C4AD3
:10E9F0000125D5600B4E042131610B49086015607B
:10EA00000A4801680029FCD000210160556058685F
:10EA1000A043586070BC70470005004000040040EF
:10EA2000009000400095004040950040409100401B
:10EA30000948416842151143416008484168890509
:10EA4000FCD507490120C860064A0023536004230F
:10EA5000136108607047000000050040000400409A
:10EA6000009000400095004004490120486004489F
:10EA7000416842159143416070470000009000409A
:10EA800000050040F8B50E460746354C069A099930
:10EA900003201D7825700546401E5B1C641CC0B217
:10EAA000002DF6D12F4B012018612F480369002B50
:10EAB000FCD02D48002303612C4DA9606A602848D2
:10EAC00000210378012280201C46144200D001431B
:10EAD0005206120E4008F7D16962FEF72DFBE8617D
:10EAE0000020E862FEF782FEFC1FFC3CFFF768FF97
:10EAF000A042FBD31B4901200860FEF7FDFD1A4C24
:10EB000020680028FCD000202060093FFFF758FF54
:10EB1000B842FBD30920FCF799FC124A012191600D
:10EB2000E0680028FCD00023E360012E06D9079896
:10EB300068609160E0680028FCD0E360022E06D98E
:10EB4000089868609160E0680028FCD0E360FEF7F8
:10EB5000DDFD0021022006F00BFEFEF7F3FDF8BDFF
:10EB6000B41F0020001000400011004000150040BC
:10EB7000F3B581B00021022006F0FAFDFEF7E2FDB8
:10EB80003C4C3B4860603C480021037801228020D7
:10EB90001D46154200D001435206120E4008F7D11F
:10EBA0006162FEF7C9FAE0610020E062FEF71EFE36
:10EBB000324F0E20385EFCF7DBFD05460E4601980D
:10EBC000FCF7EAFDFB6BBA6BFCF76AFD2A4633469D
:10EBD000FCF757FDFCF7EEFD87B2FD1FFC3DFFF78C
:10EBE000EFFEA842FBD3264901200860FEF784FD12
:10EBF000244D28680028FCD000262E60093FFFF72E
:10EC0000DFFEB842FBD30920FCF720FC1C4801279B
:10EC10008760E8680028FCD0EE600021022006F042
:10EC2000A7FDFEF78FFDFEF787FA17494840E06120
:10EC30001248164A0178525CA260491CC9B20170A0
:10EC40000C2900D106700E490F6028680028FCD0FE
:10EC50002E608F60E8680028FCD0EE60FEF756FD5D
:10EC60000021022006F084FDFEF76CFD03B0F0BD2C
:10EC70004822002000150040B41F0020700E002024
:10EC80000010004000110040FFFFFF003479010038
:10EC9000F8B5584D0027A87A574C012870D157482D
:10ECA000AF7203780020012280211E46164200D058
:10ECB00008435206120E4908F7D1514EB062FEF7D2
:10ECC000AFF93062306B1021884330634D480068E3
:10ECD00001284CD14C48FDF7F3F9012847D12079A0
:10ECE0000226022802D001283DD040E046480278A2
:10ECF000D106490F042926D141786379084630406E
:10ED0000834220D102281AD0EB7952095201934252
:10ED100019D1022815D0687A89088900884212D151
:10ED20003A4939481F2203780B701346521E401C83
:10ED3000491CD2B2002BF6D1032020714AE0AB79F6
:10ED4000E3E7287AE8E700F063F801280FD1687953
:10ED5000401CC0B26871032809D2FEF78DFB6862BF
:10ED60006078287103E000F053F8012830D0207952
:10ED700000282FD003282DD000210120FFF710FB01
:10ED80002079002835D0032833D0686AFEF784FB49
:10ED900096282ED3FEF770FB6862FEF765FC0146ED
:10EDA00000976078002342080220FEF753FEFEF72A
:10EDB0005BFC0097617800234A0801461846FEF77D
:10EDC00049FE6078401CC0B26070082807D007E098
:10EDD0002671C2E701210846FFF7E2FAD0E7677023
:10EDE0006078C007C00FFEF7E7FC00210120FFF7A5
:10EDF000D7FAF8BD941F0020700E0020A40E00204A
:10EE00000015004000140040682200205812002025
:10EE1000F8B52A4B1E78F006400F04284CD128483C
:10EE200028490124052205780F78401C491CBD4261
:10EE300042D1641C9442F6DB1879597900024018DB
:10EE4000C004000C0090204A5C7802201179012750
:10EE500004401E4D012914D0022C1FD0E8795471B2
:10EE6000082210431A4E0129307019D0022C21D0EB
:10EE7000687A2146384370700098FFF779FE0120C8
:10EE8000F8BD7009400120300006000E00D120209E
:10EE9000022C01D0E871E2E7A871E0E7A879DEE78B
:10EEA000FEF7EAFA8006000E022C01D06872E0E755
:10EEB0002872DEE7287ADCE70020F8BD682200200F
:10EEC00070220020B41F0020700E0020941F00202C
:10EED00048220020F8B51D46394B0446DE7C2670DA
:10EEE0001C7D0C7037490020CC78002C1ED09C7AF9
:10EEF00014705C7B54709C7B94701C7FD4709C7EDF
:10EF000014715B7D53714B7893718B79D371CB798D
:10EF100013720B7F53728B8B1B0A9372FF23D37276
:10EF2000137353739373097AD173F8BD0020864627
:10EF3000002D42D0A446202D01D9202600E02E46E7
:10EF40006F4600203870604600282CD1701E1F28A4
:10EF500029D87046092826D203007B441B79DB1888
:10EF60009F440406080A0C0E1012140016480EE006
:10EF700016480CE016480AE0164808E0164806E075
:10EF8000164804E0164802E0164800E01648144609
:10EF90001F21037823700B46491E401C641CC9B214
:10EFA000002BF6D13E707046401CC0B286463878C1
:10EFB000291ACDB21218002DBDD10120F8BD0000D4
:10EFC000941F0020700E00202821002048210020DE
:10EFD0006821002088210020A8210020C8210020CD
:10EFE000E8210020082200202822002070B40446D6
:10EFF00000201D4618701A4BDB78002B2BD14B1EBE
:10F000001F2B28D80120092C27D223007B441B79F1
:10F01000DB189F440406080A0C0E10121400114C51
:10F020000EE0114C0CE0114C0AE0114C08E0114CC0
:10F0300006E0114C04E0114C02E0114C00E0114CD0
:10F040001F23267816701E465B1E641C521CDBB202
:10F05000002EF6D1297070BC704770BC002070473C
:10F06000700E002028210020482100206821002067
:10F0700088210020A8210020C8210020E8210020AC
:10F080000822002028220020F0B589B015460C4641
:10F09000074604F055FB002810D03A203D214C4390
:10F0A0000619002D1FD0F004000E08AB6A4620217F
:10F0B000FFF79CFF202D03D9202002E0F720EDE789
:10F0C0002846C4B2F106C90E2020401AA04200D240
:10F0D00004466846091822463846FCF7DCF93F1911
:10F0E00036192D1BDFD109B0F0BD000010B48078B7
:10F0F000002409282DD8202313700A2829D20300C0
:10F100007B441B79DB189F440406080A0C0E10127E
:10F110001416124810E012480EE012480CE0124893
:10F120000AE0124808E0124806E0124804E01248DB
:10F1300002E0124800E012481F2203780B701346C9
:10F14000521E401C491CD2B2002BF6D110BC01202B
:10F150007047147010BC002070470000E81F0020AA
:10F1600008200020282000204820002068200020BF
:10F1700088200020A8200020C8200020E8200020AF
:10F180000821002070B500F0DBFA012829D01D48C5
:10F19000C178002902D0FDF795FB09E0007900282D
:10F1A00004D0032802D0FFF773FD01E0FDF748F813
:10F1B00015480221407800250840144C002811D041
:10F1C00002280ED1A08B00280BD0042803D9A583D8
:10F1D000FEF752F9E064A06CFEF75EF9C82800D98A
:10F1E000A58370BD608B0028FBD0042803D96583FC
:10F1F000FEF742F96064206CFEF74EF9C828F0D99A
:10F20000658370BD700E002068220020941F0020CE
:10F2100070B514460A46002601782F4B3546A229C0
:10F2200042D006DC122946D032294ED0342939D1B9
:10F2300006E0D2290AD0D3290BD0D42932D127E035
:10F24000DD70FEF753FA022827D11FE0FFF726F9F9
:10F2500039E0224819794079032905D0002915D0D1
:10F2600001212170107034E01070521C1C491F20C5
:10F270000E7816700646401E491C521CC0B2002E65
:10F28000F6D1212020701D71012622E0012609E01F
:10F290001D71FEF72BFA0228F8D001210846FFF76E
:10F2A0007FF8F3E7257014E0012620211046FDF7D2
:10F2B000D5FD20700DE041788378491EC21CC9B28B
:10F2C000184600F08DF90646ECE7FFF729F80646E8
:10F2D0002570304670BD0000700E0020941F002085
:10F2E0005812002070B5154D00206870E870144C5D
:10F2F00028716071A071E07120726072A072E0727A
:10F3000020736073A073E07320746074A074E07461
:10F3100060752075FEF7B0F8A063FEF7ADF8E06306
:10F32000FEF7AAF82063FEF7A7F82063FEF774F94A
:10F33000FDF78EFDFEF7A0F8286370BD700E00206B
:10F34000941F002070B5002102781C460D46162A35
:10F3500072D213007B441B79DB189F449F0D0A3D3A
:10F360000A0A6E0A0A9F0A619F495512349F9F0A32
:10F370007A910121257092E0FDF76AFD0121257047
:10F380008DE04178827809028A1846490A82C2785B
:10F3900003791202D2184A82427983791202D21872
:10F3A0008A82C279037A1202D218CA82427A837A96
:10F3B0001202D2180A83C27A007B12021018488304
:10F3C000012125706BE041788078090208183549E1
:10F3D000C8810121257062E0334942780A70827841
:10F3E0004A70C2788A700079C8700121257056E091
:10F3F0002E4942780A7082784A70C2788A70007901
:10F40000C870012125704AE0294942780A70827843
:10F410004A70C2788A700079C870012125703EE078
:10F42000244942790A7082794A70C2798A70007AD6
:10F43000C8700121257032E030E01F4942780A701F
:10F4400082784A70C2788A700079C870012125706C
:10F4500025E0C1780279090289180BD042788078BA
:10F4600012021018FCF701F8FCF796F90D4AD16367
:10F4700090637EE70B4A11490020D163906378E7DF
:10F48000C178027909028A1806494A81427980794D
:10F490001202101888810121257000E025700846AD
:10F4A00070BD0000700E00208E0E0020920E002015
:10F4B000960E00209A0E0020A40E00200000F03FBF
:10F4C000F8B505461E46144600202B780A2204276C
:10F4D0000146092B06D001220C2B08D00022112B4B
:10F4E00074D10DE001212270677002206BE0394871
:10F4F00001214078384B4008185C2070327066E07B
:10F500006B78A52B62D2002B05D92254401C697858
:10F51000C0B28142F9D8314FF87A2070387B6070E0
:10F52000A270E270787B2071B87B607168780C28DB
:10F5300015D9386BFDF7B0FF26494989884200D3B9
:10F54000481C010A21726072786BFDF7A5FF214902
:10F550004989884200D3481C010AA172E072687888
:10F56000162815D9B86BFDF797FF1A498989884283
:10F5700000D3481C010AA174E074F86BFDF78CFFFE
:10F5800014498989884200D3481C010A2175607595
:10F590006878222815D302210120FEF79DF9A07773
:10F5A00000210120FEF798F9E077202702210020B2
:10F5B000FEF792F9E055002121270846FEF78CF965
:10F5C000E05568780121307001E0FFE732700846AD
:10F5D000F8BD0000700E00209A0E0020941F00203D
:10F5E00070B42B4B0446DB780020002B4BD14D1E12
:10F5F0001F2D48D801200A2C47D223007B441B79B9
:10F60000DB189F4404222426282A2C2E3032224E36
:10F61000002333707370214E1E4C33707370204E74
:10F62000337073701F4E337073701F4E337073706E
:10F630001E4E337073701E4E337073701D4E3370D8
:10F6400073701D4E3370737010E0134C0EE0134C4A
:10F650000CE0134C0AE0134C08E0134C06E0134C8A
:10F6600004E0134C02E0134C00E0134C0B46E9B2EB
:10F67000002B08D0137823700B46491E521C641CC3
:10F68000C9B2002BF6D170BC704770BC0020704727
:10F69000700E0020E81F00200820002028200020F5
:10F6A000482000206820002088200020A82000207A
:10F6B000C8200020E82000200821002020292BD885
:10F6C000092829D203007B441B79DB189F440406D8
:10F6D000080A0C0E1012140010480EE010480CE03E
:10F6E00010480AE0104808E0104806E0104804E01E
:10F6F000104802E0104800E010484B1EDBB2002921
:10F7000008D01178017019465B1E521C401CDBB2F8
:10F710000029F6D1012070470020704728210020E1
:10F72000482100206821002088210020A8210020F5
:10F73000C8210020E82100200822002028220020E3
:10F74000F8B55F48012400781E285AD203007B4494
:10F750001B79DB189F44AA0EB2181BB2B2B2B2B228
:10F76000B2B2B2B2B2B2B2B20E1E212F56B25C82A7
:10F7700059A70E0E52484079002802D0FCF7B8F97C
:10F780009CE0FEF79DFF99E0FEF788FA96E0FEF711
:10F790007DF993E0FFF7B4F890E04A4D287900280E
:10F7A00006D0FEF77BFA2879401CC007C00F27E07F
:10F7B000FFF7A6F8F7E7434D2879052817D203008D
:10F7C0007B441B79DB189F440202020C0F003C486B
:10F7D0004079002802D0FCF78BF90AE0FEF770FFB1
:10F7E00007E0FFF78DF804E0FEF758FA01E000208B
:10F7F00028712879401CC0B2287104285ED90020E5
:10F8000028715BE0FEF7DAFA58E0FEF783FA55E07C
:10F81000FDF71EFFFDF7B0FF2B4E01257560B560AB
:10F82000FDF72AFE07463846FDF736FE0528FAD3CF
:10F8300026490022CA60356108690028FCD00A61A7
:10F8400020484178491CC9B241700378994228D2B6
:10F850001F494078085C1F4988602FE0FDF7F8FEDB
:10F86000FDF78AFF1C4D03202860174F01263E60DC
:10F87000FDF702FE0090FDF70FFE052801D200986B
:10F88000F9E700222A603E61104801690029FCD096
:10F8900002610C484178491CC9B241700378994211
:10F8A000D6D34270D4E7FDF7EDF907E004487F2195
:10F8B00081700021C17003480C4601622046F8BDEA
:10F8C0002C0E0020C81E0020001000400011004037
:10F8D0006C1F0020001500404015004010B5044684
:10F8E0002F490020087120781E2855D203007B4440
:10F8F0001B79DB189F44470E5036365050505050FD
:10F9000050505050505050500E0E0E0E3B50360E70
:10F910003B50271B224840790028607803D0A11C67
:10F92000FCF764F938E0A11CFEF758FF34E01C48EE
:10F930004079002803D01B490878491C0BE01A497C
:10F940000878491C0BE01648012101714079002814
:10F95000607803D0A11CFCF749F91DE0A11CFEF75B
:10F960003DFF19E06078A11CFEF70EF914E0607805
:10F97000A11CFEF709F90A48217801707F21417026
:10F980008170C17008E0FFF7ADFC05487F218170F0
:10F990000021C1700548016201492078087010BD3E
:10F9A0002C0E0020430E0020320E0020C81E002026
:10F9B0002021020C01D010211046020A01D0083982
:10F9C0001046020901D0091F1046820801D0891E85
:10F9D0001046420801D0881E7047081A704730B49C
:10F9E0007446641E2578641CAB4200D21D46635DDC
:10F9F0005B00E31830BC184702E008C8121F08C1BA
:10FA0000002AFAD170477047002001E001C1121F9F
:10FA1000002AFBD17047000070B504462546FF3030
:10FA2000FF3501302135082941D00ADC22462E4E0F
:10FA3000C0320B00FFF7D3FF07252E2430242430DB
:10FA400024000A2928D00C293BD0122941D014299E
:10FA500016D1E8890C218843E88113204001152143
:10FA600020184901407961184875204602F02AF8AB
:10FA7000204607F0ACFC01214902204601F0C4FDFC
:10FA800070BD2046166106F0EDFFE88940218843ED
:10FA9000E88170BD566170BD0121C175204601F03D
:10FAA00047FD204607F093FC0121C902E5E7E889FC
:10FAB000FF2101310843E881204607F088FC4021FE
:10FAC000DBE7007C0228E6D18103204601F09CFDA3
:10FAD00005E0E889C106DED510218843E88120468B
:10FAE00007F075FC70BD00000000010070B5012337
:10FAF0000B4A990311600B4C21600B4D00242C60C4
:10FB00000A4E70600A4804600A48036000E030BF93
:10FB100028680028FBD0034880300160116070BD68
:10FB200080E200E000E100E0E811002000E5004094
:10FB300000E1004000E0004070B50B4C15460E4659
:10FB4000002B00D0094C01460948A0470848294627
:10FB50001038A04706481038FFF7C8FF0449304660
:10FB60001031A04770BD0000D51B0100E71B01004C
:10FB70004C16002010B504460448FFF7B7FF0349B0
:10FB80002046203102F026F810BD00003C1600206F
:10FB90000648416802141143416005484168490420
:10FBA000FCD5044903204860704700000005004070
:10FBB0000004004000E3004070B51E490446487947
:10FBC000002808D00D46903D012805D0022812D00B
:10FBD00003281AD0002070BD2070022048719422A2
:10FBE0001549601CFBF757FC1349942294312846B1
:10FBF000FBF751FC07E0207003204871942229464E
:10FC0000601CFBF748FC952070BD207000204871F7
:10FC1000012003F0D7FC084908223439601CFBF7A7
:10FC20003AFC2046942205490930FBF734FC9D201C
:10FC300070BD000038110020EC0E002014100020D0
:10FC400002484079002800D0012070473811002078
:10FC5000064A80008018002902D0416B491C41638C
:10FC6000C0308168491C816070470000B80E0020D8
:10FC700010B501F08BFF05F037FB07F05FFD0B4976
:10FC80000B48FBF72FFC0B490B48FBF72BFCFBF752
:10FC9000E1FE62B606F026F8FFF77AFF03F004FDF6
:10FCA00004F0C0FE07F0E8F810BD0000DC1400000E
:10FCB000C81E002000040000C81E002010B5014628
:10FCC0000A220248FBF7E7FB10BD000020130020CA
:10FCD00070B50D462449C0B04018164600240300F4
:10FCE000FFF77DFE0705092E32363A3E26006946AB
:10FCF000284600DF13E01D490878491C09220B78CB
:10FD0000491C1843521EFAD1002100280BD00A22A8
:10FD10001649A81CFBF7BFFB6946284602DF684668
:10FD20004478A41C04E00D2268460270417002244D
:10FD3000224669463046FBF7AEFBE0B240B070BDEC
:10FD40006946284603DFEAE76946284604DFE6E716
:10FD50006946284605DFE2E76946284606DFDEE712
:10FD60006946284607DFDAE7DF03FFFF201300209C
:10FD700010B5B62104460B5CFF3441341C2100222F
:10FD80006156002B05D0104808562077801C0CD0F7
:10FD900011E00D48C01C0856207702280BD12277AD
:10FDA000608B012807D9400804E02277608BFF2888
:10FDB00001D84000608302F0D9FA618B491E0840E7
:10FDC000401C208310BD0000487F01000948C06A24
:10FDD00000070ED407484030C26A07494A62026BE6
:10FDE0008A62426BCA62826B0A63C06BCA051043A7
:10FDF000486370478000001000170040132105225F
:10FE00004901D20141188218898B1278891D10325C
:10FE1000FF305143C1300F31808A090908187047FB
:10FE20001522012152018018817470470A48008808
:10FE3000400701D50220704708488068002809D093
:10FE400007480168012901D00420704700210160A2
:10FE5000084670470520704724120020F01100204A
:10FE600000140040F3B5002693B0344604F088FD3A
:10FE7000139D0746FF354135A86A00287BD0FD2039
:10FE80000A9000201190049005901498001D0B908A
:10FE90001398FF30693007901398FF30613003905A
:10FEA0005BE0089000200990089880790007000F17
:10FEB000012807D00898C0798006800E062801D353
:10FEC000801F09900B20C00138180090808C4007DB
:10FED00004D509980A990A30814243D3079802F061
:10FEE0000CF8089880790007000F07282ED2012807
:10FEF00009D10399497D002905D004A8089902F089
:10FF000054F8641C29E00099898C49071ED508998A
:10FF10004A790B79110219434942CAB20899099BDF
:10FF20000E310191DBB2089900930292C979089BC6
:10FF30008A0940490833095C0B9803F075FD0B9062
:10FF400009990A98401A0A38761C0A90119808995B
:10FF5000401C1190039802F028F8A86A002801D0EC
:10FF6000192E9EDB1198C0B203F02CFBA86A002862
:10FF700002D004990AE05BE003A807C8C260816070
:10FF800006E00D68079802F010F829460029F8D11C
:10FF9000002E0BD00A98FD21081AC2B2F3B202213A
:10FFA000149802F011FC042015B0F0BD002C3FD0D5
:10FFB0000F2C06DD0B20C0013818808C000700D5FF
:10FFC0000F242007020EE3B20B21149802F0FCFB71
:10FFD00014980026001D0A900B20C0013F181BE05A
:10FFE000079801F08AFF0546B88C00070FD568799D
:10FFF0002A79000210434042C0B20090E8792B46B3
:020000040001F9
:1000000082090833991D0A9803F028FD0A902946B1
:10001000039801F0CAFF761CA642E1D1E0B203F0DA
:10002000D1FAB88C000703D5002C01D00820BBE71B
:100030000020B9E73C7C0100F3B591B0044604F020
:100040009FFC099000202646C0360C90F0680028DE
:1000500073D0F01DF93003902046A0300F90152288
:10006000E03052010790A0180E90E01D1321F930E6
:1000700049010A90601801250027FF3421340590BA
:10008000F168084628422BD0FF220132A81A0C95AD
:10009000954277D00CDC202D23D004DC012D70D0CC
:1000A000102D1BD11DE0402D6DD0802D16D16BE0A1
:1000B0001F210902421A884278D007DCFF38013834
:1000C00075D003214902401A08D164E0032040039F
:1000D000101A6DD00321C903401A6AD000200C9079
:1000E000E0E00F9A0998127E0830022A02D08903B4
:1000F0000CD423E02D2209995201891889891B29E2
:1001000004D0E189012292021143E181FF21713182
:10011000095CFF30C1300090039A0291059801926A
:10012000038B0B210998C9014018808C002280069E
:10013000C10F129803F05AF91FE0B0E0FF217131AE
:10014000095CFF30C130029100900B210998039A9D
:10015000C90101924018808C00238006C10F022241
:10016000129803F043F93F20099940010818C17B18
:10017000491EC1730F9900200876F068302188432A
:10018000F06081E060E051E00598039A018B1298DD
:1001900003F0B8F978E00A98C07D01280AD0072852
:1001A0000598C37B0BD0022B10D013E01CE02DE090
:1001B00020E058E005981A21C37B028B02E0028BF5
:1001C0000798C17D129803F01AFA5DE00798C07D88
:1001D000302803D005980021028BF3E70598018BA6
:1001E000129803F023FA4FE00598018B129802F061
:1001F000F3FA49E00A98808A00900A98438A427C80
:100200000598018B129803F031FB3DE00E98007EBB
:100210000090C10070310E980191C27D0598D30005
:10022000018B7033129803F097F92DE00A98837DC3
:10023000E089C00501D5112200E000220598018B5C
:10024000129803F0E1FA1FE007990798498900899D
:10025000009007980191C38882880598018B1298B5
:1002600003F0E8FA10E00E98027D0598018B1298D1
:1002700003F0B4F93F20099940010818C17B491ED9
:10028000C1730F99002008760C9800280AD0012825
:1002900005D0F068A843F060012003F093F90C98B2
:1002A00013B0F0BD7F1C6D00122F00DAE8E6F6E710
:1002B000F8B504461320400125462718C035788B31
:1002C0002969884201D00020F8BD0120000428617E
:1002D0001520400120180090407C0026002813D0F3
:1002E0002146FF31E131084620381D220E460446E2
:1002F000FBF7D1F8A08AF88303CC03C51D21304653
:10030000FBF7F0F8012616E0204606F0ABFB254689
:10031000FF352135E88940218843E881204600F0F7
:10032000C9FB002807D00098C07C002803D0E889CA
:1003300020210843E8813046F8BD10B58478944206
:1003400004D0112206F0DAFE012010BD002010BDFD
:10035000F0B5152149014118C97E00259C460229A6
:1003600015D001469831CC688F7F2646A41D002FFA
:1003700008D12378DB439B0704D1337A142B06D0B2
:10038000152B04D0FF232F331B5C9B0701D00020CB
:10039000F0BDC030406A002814D008698079C006DA
:1003A00004D4002F0ED12078C0060BD505996046E5
:1003B00054180023079A584108990125121B8141BE
:1003C00000D200252846F0BDFEB50446FF3021309E
:1003D0000290C0898105152040012718002901DA03
:1003E000397D0DE02546C035EE1DF936A869F16866
:1003F000884209D9387C002801D0082100E03E213C
:10040000204600F067F9FEBD2046FF30813081694B
:10041000002904D0B268914207D9891A8161C16963
:10042000002906D0B268914201D82221E8E7891A52
:10043000C1611320400120180190C07B02282BD1FC
:10044000B08AB168401D41432A686B680020891852
:100450005841E21DFF32FA32009213685268591A6D
:10046000824102D2204600F071FC0098296803689E
:1004700040686A68591A90410ED20121490320460A
:1004800001F0C2F800992B68896868680022591841
:100490005041009A11605060A869B1684018A86185
:1004A0000198408B401C82B2019842830520C00114
:1004B000211888787B7BC018C0B28870252801D3AA
:1004C00025388870686982420DD101200004686176
:1004D000B87C002803D0204604F0B0F903E0802166
:1004E000204600F0E7FA0020F87602980221C08941
:1004F00088430299C881FEBD0246C030416BFF327D
:100500000020093248605068002801D0416000E0B6
:100510001160516070470000F3B504462546FF3571
:1005200083B00020E1352882022028772046FFF79B
:1005300065FC132149016118498BE8270A182146F7
:10054000C0310A610B682A464968203A01929268D4
:10055000FF4342439B18002041412A8A23483E1210
:100560004243D017D21970419E18019F4141BF6A82
:100570006B8B2A8BBC460027FF332767A833FF32DB
:10058000A366A8322046E2666030012242776746C1
:10059000002387628385203083730498002813D05A
:1005A00000220092002803DA01988268049810184B
:1005B000821900234B41204606F0CEFB821B2823E4
:1005C000D2180B4E094C05E00092F1E72B8A5B1C18
:1005D0002B829219A242F9D8E922821801980023AD
:1005E00059410262416205B0F0BD0000E204000022
:1005F0001EFBFFFFF8B505460E460446C035012137
:100600006869090488420CD14021204600F0D2FBE1
:10061000002807D0FF342134E0890121C9020843B2
:10062000E081F8BD2046FFF7E9FB1321490161187D
:10063000498B0D22081815216861490100206118B5
:1006400088742046FF3031300A490746FAF723FF05
:100650002046FF30052231463E30FAF71CFFFF21CD
:10066000A88A4331085301223946204600F09DFEF6
:10067000F8BD00000A7C0100F8B5044615204001D1
:100680002618F17D307E814200D908462746C500F4
:10069000FF37C137FF35788B5735A84219D2402133
:1006A000204600F087FB002813D138463946203019
:1006B0001D220746FAF7EFFE7D8300212046FFF753
:1006C0002BFF2146FF313131204600F0BBFE0020D8
:1006D000F074F8BDF8B504461520400126183175B0
:1006E00001214904204600F08FFF204606F0C8F99A
:1006F0000421B82025460155C035686B0027002825
:1007000010D02946F43188420CD0817A8907890FAC
:10071000022901D0012905D102F098FFB07E401CCA
:10072000B076012700262146F83120466E6301F09D
:10073000CDFDC519E11DF931204601F0C7FD451970
:10074000012D07DB0121204600F05EFF6D1EE8B29F
:1007500002F0A2FF132040012018868302F044F823
:10076000F8BD0000FFB585B00E4604460321A03059
:10077000129B854D0176002B01D0912100E096213E
:1007800020461C30E061206224221155343020655F
:1007900060650C386064A0644C20015520468030B0
:1007A00000607C224060115505617849616078499C
:1007B000216078491322037552010888A21801921A
:1007C0001083401C80B20F22002512020880904244
:1007D00001D101200880E01DFF30FA307821074662
:1007E000FAF780FE01986C49C57301984575019828
:1007F000C1826A48B86004F003F801462046C03060
:1008000002908160204604F019F801F0AFFD152137
:1008100049016718C0B20C214843000A0521401D58
:10082000C9017873611803918870019845833D74FC
:1008300001200299000408617D74029948612046F4
:10084000BD74EC3005604560F82038751B20787564
:10085000B875F8753876204601F061F9BD73204609
:10086000FD73F8300560456008300560456002980A
:100870004B49456301988583FF20BF3009880153A8
:10088000039920464D7000F0D1F9FF21833107987C
:100890000853FF21B331089808532A213046FAF74C
:1008A00021FEB61D3078314600090001401D307030
:1008B00070780E3180098001223070700298806853
:1008C000FAF732FE01F052FD04903046032204A9EB
:1008D0001230FAF7E0FD2046FF30C13002210090CF
:1008E0000177717500220899079803F0A3FA00991F
:1008F000052248823076010A71762A4948430099D8
:10090000886000980F998182B176080AF076009885
:100910000E99C1823177080A707701990F98C883C0
:1009200021490E9848430099C86020482118304654
:100930001E30FAF7B0FD2036F078797B4009C90601
:100940004001C90E0843E0210843F0700098119956
:1009500041830098109901832046009900F0E0F847
:100960000298FF34C5607F20FD763877E134E57763
:10097000A577657703990D7000984577009885777E
:100980000098C57709B0F0BD0D0D0100A95D01000B
:100990009759010090110020B80B000080C3C901D5
:1009A0005C7B0100E20400001027000083020000CD
:1009B000F3B50646FF360446C136708B87B0FF306C
:1009C000A8300490308BE822FF30A83005902046F4
:1009D000C030009022C8D24310128F1845412046E3
:1009E000FFF766FC00280ED00099E82221C9D24307
:1009F00011128718708B4D41FF30A8300490308B56
:100A0000FF30A8300590009A31681368706852680A
:100A100059405040014316D10023059A0499B66805
:100A20002364E26320463030A16301224277A66549
:100A300083855E20035500933A462B46204605F0F9
:100A4000C9FF09B0F0BD08980028FAD00120009035
:100A50003A462B46204606F0F3F9F2E770B5044615
:100A6000FF302130C089C10501D51A2070BD0006B4
:100A700004D54021204600F0C7FD17E04021204664
:100A800000F098F9002801D0232070BD2046FF30E7
:100A90003130152206490546FAF7FDFC01222946A8
:100AA000204600F082FC204606F070FC002070BD5D
:100AB000177C010070B50546C030446B0E46002C13
:100AC0000BD0617A227A09021143314205D000210C
:100AD0004163284601F07BFC0FE029463246F8319D
:100AE000284601F09FFA040007D1E91D3246F9318A
:100AF000284601F097FA040010D0607A217A0002AB
:100B00000843C0070AD02720000128180168491EA1
:100B10000160491C02D10179491E0171204670BD56
:100B2000152252018018C27D007E824200D91046F3
:100B30004A7EC0000B7EFF30120257301A438242B9
:100B400002D20876000A4876C87E8B7E02021A43DB
:100B5000487E0B7E00021843824202D28876000A49
:100B6000C8767047F8B50D4689798907890F01293C
:100B70001BD0022919D004461522FF340646520123
:100B80002134E4368718032904D1294600F024F9DA
:100B9000002809D0A07B2946C00702D1304601F0C9
:100BA000FAF9787E401E7876F8BDFF211831095C8D
:100BB000042909D0052907D0132149014018008BC9
:100BC000294602F0E5FCF8BD3D21FFF783FDF8BDA5
:100BD000F8B50D4601460446FF31E131079F069EF8
:100BE00010484D8245432046FF30C13085628A82DD
:100BF0004F830E830C4ACB825343C3622046FFF7D8
:100C00008FFF00212046FFF787FC2146FF314D3141
:100C1000204600F017FC1521012049016118C87415
:100C2000F8BD0000E204000010270000C21D0021F2
:100C3000F932117420239375D175FF222F3211528E
:100C4000FF30813041708161C1617047FEB504465B
:100C5000152040012618F07D884205D10121490266
:100C6000204600F0D1FCFEBD2546FF352135E88940
:100C70004307F8D401239B029843E8818446F9296D
:100C800001D2F82900D3F821C8007030904200D07A
:100C900082B21D4F683789CF029700900193684652
:100CA000C18002816046317500076F460FD520462E
:100CB000FF300822B91C7630FAF7EDFB307DB17DAC
:100CC000884200D20146204600F021FFFEBD1B21D4
:100CD000204600F01CFF204602F080FF2046FF3037
:100CE0000922791C7530FAF7D6FB2146FF31012223
:100CF0006931204600F059FBE8890C210843E8815E
:100D0000204606F043FBFEBD987B010070B50D4602
:100D10000446402100F04EF8002816D12146FF314C
:100D2000C13108461D222030FAF7B5FB294620467E
:100D3000FFF7F2FB2146FF313131204600F082FB04
:100D40001521002049016118C87470BD70B50646B0
:100D5000FF3604462136B07B000604D5FF2017304D
:100D6000005DC00622D54021204600F023F800286F
:100D70001CD1B07BC00619D42046FF303130054667
:100D80000A21FAF7AFFB2046FF30032208493B3027
:100D9000FAF781FBF08910210843F081204606F024
:100DA000F5FA01222946204600F0FFFA70BD000046
:100DB000987B0100FF222F32125A0A420AD1D42115
:100DC000095801221204914204D1FF308130407849
:100DD000002800D001207047F3B58DB004460E9F67
:100DE000E61DBF1DB81CF9360A900E99F07D097AF0
:100DF000042804D005280BD006280CD014E00529BF
:100E000012D0022910D00D290ED0112907D10BE0E4
:100E10000629F6D108E00B2906D0022904D03D218D
:100E20002046FFF757FCB5E20E9A0B920A32019268
:100E30002246FF3281320992152225465201C035E1
:100E40000295A218603503922A46132310325B01E3
:100E500008920091E218891E07920B00FEF7BFFD71
:100E600014F1F02E5E95EFF0EEF0A50BEDECEBF04B
:100E7000EAE9E8BFBFF0307C022806D181032046B2
:100E800000F0C2FB204606F0A2FA787806287BD153
:100E90000A9841787174C17882780902114371828D
:100EA0004179027908021043B082307C002802D1D7
:100EB000204606F031F9012030746BE279780D2973
:100EC000E5D10328ABD10A9908220D46481C0146FA
