:020000040000FA
:0600000077EF59F0120039
:0600080004EF08F01200F5
:060018000CEF08F01200DD
:0610000077EF59F0120029
:021006001200D6
:06100800CBEF21F0120005
:02100E000400DC
:08101000C08012000400120070
:061018001AEF22F01200A5
:02101E000B00C5
:10102000C3B30000FB04000005000000BCB30000D7
:10103000A603000007000000B4B300009E030000F8
:1010400008000000A7B30000EE0400000D0000003F
:101050008AB30000560300001D00000088B30000A2
:10106000AF0300000200000073B30000890300001A
:10107000150000005DB300007303000016000000BF
:101080005BB30000AD0300000200000058B3000095
:10109000FC0200000300000026B300000003000073
:0410A000320000001A
:0C10A400D9CFE6FFE1CFD9FFE6520301EF
:1010B000735174111CE0FB0EDBCFE6FFFC0EDBCF9F
:1010C000E6FFFD0EDBCFE6FFFE0EDBCFE6FF05D031
:1010D00074C3FAFF03017351F96EFADFE552E5526A
:1010E000E552E552DF6EDF5002E0DF500DD0080E12
:1010F000F36EFE0EDBCFF4FFF350F45C03E2FE0E62
:10110000DBCF7FF3000E00D0E552E552E7CFD9FFE9
:101110001200D9CFE6FFE1CFD9FF030EE126FB0E87
:10112000DBCFE9FFFC0EDBCFEAFFEF6A3F0EE66E96
:10113000D950020FE66E000EDA20E66E3F0EE66E24
:10114000110EE66E0E0EE66E000EE66E0E0EE66EEA
:101150008EEC32F0146E080EE15E1450E76E010E54
:10116000E7CFDBFFDB5003E0010EDB5055D00E0173
:10117000110502E0000E50D0050EF36E020EDBCF1B
:10118000F4FFF350F45C02E2000E46D03F0E14155B
:10119000DF6ED950F90FE96EFF0EDA20EA6EEE50DD
:1011A000ED1016E0060E146EC00E141514C0E7FF05
:1011B000E75204E0E8427F0BE706FCE1E66EF90E39
:1011C000DBCFE9FFFA0EDBCFEAFFE552E750EF6E27
:1011D000DF50F36E020EDBCFF4FFF350F45C02E25B
:1011E000000E1AD0F70EDBCFE9FFF80EDBCFEAFFD7
:1011F00013CEEFFFFD0EDBCFE9FFFE0EDBCFEAFFE4
:1012000015CEEFFFFB0EDBCFE9FFFC0EDBCFEAFFD5
:10121000DFCFEFFF000E00D0146E030EE15C02E2A0
:10122000E16AE552E16E1450E552E7CFD9FF1200B2
:10123000D9CFE6FFE1CFD9FF040EE126D950020F46
:10124000E96EDACFEAFF110EEE6E0E0EED6E030EB2
:101250000301865D02E1060ED1D0FC0EDB50050FC6
:10126000146E156A3F0ED8801454000E155402E215
:10127000030EC4D0FE0EDB501C0802E1090E01D0A3
:10128000040EE66E020EDBCFE9FF030EDBCFEAFFB2
:10129000E552E750EF6E010EE76E020EDBCFE9FF7D
:1012A000030EDBCFEAFFE750E926000EEA22010E2B
:1012B000EF6E7751772BE66E020EE76EDBCFE9FF1C
:1012C000030EDBCFEAFFE750E926000EEA22E552E3
:1012D000E750EF6EFC0EDB50060F8009E66E030E42
:1012E000E76E020EDBCFE9FF030EDBCFEAFFE7502C
:1012F000E926000EEA22E552E750EF6E040EE76E93
:10130000020EDBCFE9FF030EDBCFEAFFE750E92651
:10131000000EEA22FE0EDBCFEFFF050EE76E020E97
:10132000DBCFE9FF030EDBCFEAFFE750E926000E33
:10133000EA22FD0EDBCFEFFFFF0E775D01E1776B59
:10134000D950FA0FE96EFF0EDA20EA6EEE50ED107A
:1013500020E0FC0EDBCFE6FFE66AFA0EDBCFE6FF0D
:10136000FB0EDBCFE6FF060EE76E020EDBCF14F0BE
:10137000030EDBCF15F0E7501426000E152214C023
:10138000E6FF15C0E6FF66EC58F0166E060EE15E4D
:101390001650060E146EFC0EDBCFE7FF1450E72646
:1013A000FC0EE7CFDBFFD950010FE66E000EDA200E
:1013B000E66EFC0EDBCFE6FF020EDBCFE6FF030E90
:1013C000DBCFE6FF000EE66E0E0EE66E1DEC32F091
:1013D000146E070EE15E1450DF6EDF5002E0DF5046
:1013E0000DD0010EDB5002E1010E08D0D1EC57F018
:1013F00003017C6F010E7D6FDF5000D0146E040E70
:10140000E15C02E2E16AE552E16E1450E552E7CF99
:10141000D9FF1200D9CFE6FFE1CFD9FFE652000E87
:10142000E66EE66AE66AE66AFD0EE66E01DF146EB7
:10143000050EE15E1450DF6EDF5000D0E552E5523C
:10144000E7CFD9FF1200D9CFE6FFE1CFD9FF020ED7
:10145000E126FE0EDB50E76E010EE7CFDBFFD95031
:10146000010FE66E000EDA20E66E010EE66E080E43
:10147000E66E040EE66EDCDE146E050EE15E1450C0
:10148000DF6EDF50146E020EE15C03E200D0E16A11
:10149000E552E16E1450E552E7CFD9FF1200D9CFE3
:1014A000E6FFE1CFD9FFE652000EE66EE66AE66A95
:1014B0001D0EE66E050EE66EBBDE146E050EE15ED9
:1014C0001450DF6EDF5000D0E552E552E7CFD9FF70
:1014D0001200D9CFE6FFE1CFD9FFE652000EE66E4B
:1014E000E66AE66A1E0EE66E050EE66EA1DE146E74
:1014F000050EE15E1450DF6EDF5000D0E552E5527C
:10150000E7CFD9FF1200D9CFE6FFE1CFD9FFE652EE
:10151000000EE66EE66AE66A060EE66E150EE66EEA
:1015200087DE146E050EE15E1450DF6EDF5000D0D2
:10153000E552E552E7CFD9FF1200D9CFE6FFE1CF60
:10154000D9FFE652000EE66EE66AE66A0D0EE66E1A
:10155000150EE66E6DDE146E050EE15E1450DF6E44
:10156000DF5000D0E552E552E7CFD9FF1200D9CFC6
:10157000E6FFE1CFD9FF020EE126FE0EDB50E76E5B
:10158000010EE7CFDBFFD950010FE66E000EDA2027
:10159000E66E010EE66E020EE66E1A0EE66E48DE8E
:1015A000146E050EE15E1450DF6EDF50146E020EF5
:1015B000E15C03E200D0E16AE552E16E1450E552CD
:1015C000E7CFD9FF1200D9CFE6FFE1CFD9FFE6522E
:1015D000FD0EDBCFE6FFFE0EDBCFE6FFFC0EDBCF22
:1015E000E6FFE66AFC0EE66E23DE146E050EE15E93
:1015F0001450DF6E0301FC0E7A6F7B6BDF5000D05E
:10160000E552E552E7CFD9FF1200D9CFE6FFE1CF8F
:10161000D9FFE652FD0EDBCFE6FFFE0EDBCFE6FF85
:10162000FC0EDBCFE6FF010EE66E1C0EE66E00DE62
:10163000146E050EE15E1450DF6EDF5000D0E552EF
:10164000E552E7CFD9FF1200D9CFE6FFE1CFD9FFAE
:10165000E652000EE66EE66AE66A030EE66E020EDB
:10166000E66EE6DD146E050EE15E1450DF6E0301DA
:10167000020E7A6F030E7B6FDF5000D0E552E55209
:10168000E7CFD9FF12000301010E796F7FC354FE2B
:10169000000E00D01200D9CFE6FFE1CFD9FFE6520D
:1016A000000EE66EE66AE66A170EE66E050EE66E58
:1016B000BFDD146E050EE15E1450DF6EDF5000D00A
:1016C000E552E552E7CFD9FF1200D9CFE6FFE1CFCF
:1016D000D9FFE652000EE66EE66AE66A1B0EE66E7B
:1016E000050EE66EA5DD146E050EE15E1450DF6E8C
:1016F000DF5000D0E552E552E7CFD9FF1200D9CF35
:10170000E6FFE1CFD9FFE652000EE66EE66AE66A32
:10171000E66A070EE66E8CDD146E050EE15E14506F
:10172000DF6EDF5002E0DF5006D00301070E7A6F54
:101730007B6B000E00D0E552E552E7CFD9FF1200D7
:10174000D9CFE6FFE1CFD9FF030179513CE0010E8B
:10175000E76EFD0EDBCFE9FFFE0EDBCFEAFFE750C1
:10176000E926000EEA22010EEF6E020EE76EFD0E74
:10177000DBCFE9FFFE0EDBCFEAFFE750E926000EE4
:10178000EA2279C3EFFF7951E66EE66A540EE66EFF
:101790000E0EE66E030EE76EFD0EDBCF14F0FE0EAE
:1017A000DBCF15F0E7501426000E152214C0E6FF1B
:1017B00015C0E6FF66EC58F0166E060EE15E165098
:1017C0000301796B1BD0010EE76EFD0EDBCFE9FF45
:1017D000FE0EDBCFEAFFE750E926000EEA22010EFB
:1017E000EF6E020EE76EFD0EDBCFE9FFFE0EDBCFE4
:1017F000EAFFE750E926000EEA22EF6A000E00D069
:10180000E552E7CFD9FF1200D9CFE6FFE1CFD9FFEC
:10181000060EE126D950020FE96EDACFEAFF110E6B
:10182000EE6E0E0EED6EFE0EDB50FF0812E1FC0EAA
:10183000DBCF08F0FD0EDBCF09F0FA0E08C0DBFFAE
:10184000FB0E09C0DBFF050EF36EF90EF3CFDBFFD5
:1018500018D0FE0EDB50FE0812E1FC0EDBCF08F0C4
:10186000FD0EDBCF09F0FA0E08C0DBFFFB0E09C04E
:10187000DBFF060EF36EF90EF3CFDBFF02D0F90E9D
:10188000DB2ADB50050F146E156A3F0ED880145406
:10189000000E155402E2030E0AD1010EE76EFC0E93
:1018A000DBCFE9FFFD0EDBCFEAFFE750E926000EB4
:1018B000EA22040EEFCFDBFFFC0EDBCFE9FFFD0ECB
:1018C000DBCFEAFF050EEFCFDBFF020EDBCFE9FF38
:1018D000030EDBCFEAFF040EDBCFEFFF010EE76E56
:1018E000020EDBCFE9FF030EDBCFEAFFE750E9266C
:1018F000000EEA22050EDBCFEFFF020EE76EFC0EB4
:10190000DBCFE9FFFD0EDBCFEAFFE750E926000E53
:10191000EA22EF50E66E020EE76EDBCFE9FF030E20
:10192000DBCFEAFFE750E926000EEA22E552E75056
:10193000EF6EF90EDB50050FC009E66E030EE76E81
:10194000020EDBCFE9FF030EDBCFEAFFE750E9260B
:10195000000EEA22E552E750EF6E040EE76E020E2B
:10196000DBCFE9FF030EDBCFEAFFE750E926000EED
:10197000EA22FE0EDBCFEFFFDB50FF081AE1050E77
:10198000E66EE66AE66AE76E020EDBCF14F0030E3F
:10199000DBCF15F0E7501426000E152214C0E6FF29
:1019A00015C0E6FF91EC58F0166E050EE15E16507C
:1019B00049D0FE0EDB50FE0828E1050EE76E020E50
:1019C000DBCFE9FF030EDBCFEAFFE750E926000E8D
:1019D000EA22EF6A050EE66EE66AE66A060EE76E32
:1019E000020EDBCF14F0030EDBCF15F0E750142608
:1019F000000E152214C0E6FF15C0E6FF91EC58F06A
:101A0000166E050EE15E16501DD0050EE76E020E35
:101A1000DBCFE9FF030EDBCFEAFFE750E926000E3C
:101A2000EA22EF50E66E050EE76E020EDBCFE9FF0D
:101A3000030EDBCFEAFFE750E926000EEA22E5526B
:101A4000E750EF6E050E146EF90EDBCFE7FF145072
:101A5000E726F90EE7CFDBFFD950010FE66E000E47
:101A6000DA20E66EF90EDBCFE6FF020EDBCFE6FFF3
:101A7000030EDBCFE6FF000EE66E0E0EE66E1DECEB
:101A800032F0146E070EE15E1450DF6EDF5002E09C
:101A9000DF500DD0F90EDB50F36E010EDBCFF4FFFB
:101AA000F350F45C02E2010E02D0000E00D0146E7E
:101AB000060EE15C02E2E16AE552E16E1450E55285
:101AC000E7CFD9FF1200D9CFE6FFE1CFD9FF020E51
:101AD000E126030E0301865D02E0070E63D0010ECE
:101AE000E76EFD0EDBCFE9FFFE0EDBCFEAFFE7502E
:101AF000E926000EEA22010EEF6ED9CFE6FFDACF1B
:101B0000E6FF3D0EE66E030EE76EFD0EDBCF14F032
:101B1000FE0EDBCF15F0E7501426000E152214C080
:101B2000E6FF15C0E6FF52CEE6FF53CEE6FFD4EC4B
:101B300047F0166E070EE15E1650E76E010EE7CF16
:101B4000DBFFDB5003E0010EDB502CD03D0ED880D4
:101B5000DF54E66EE66AE66A030EDF24E76EFD0EEA
:101B6000DBCF14F0FE0EDBCF15F0E7501426000E8D
:101B7000152214C0E6FF15C0E6FF91EC58F0166E72
:101B8000050EE15E1650020EE76EFD0EDBCFE9FF9B
:101B9000FE0EDBCFEAFFE750E926000EEA22DFCF98
:101BA000EFFF00D0146E020EE15C02E2E16AE55242
:101BB000E16E1450E552E7CFD9FF1200D9CFE6FF0E
:101BC000E1CFD9FF020EE126030E0301865D02E09C
:101BD000070E67D0FA0EDB5048E0D950010FE66ED1
:101BE000000EDA20E66EFA0EDBCFE6FFFD0EDBCF4D
:101BF000E6FFFE0EDBCFE6FF50CEE6FF51CEE6FF5E
:101C00004BEC48F0146E070EE15E1450DF6EDF50AF
:101C100002E0DF5046D0010EDB50146E156AD95039
:101C2000FD0FE96EFF0EDA20EA6E1450EE26155015
:101C3000ED22FA0EDBCFE7FF010EDB50E75EFA0E76
:101C4000E7CFDBFF50CEE6FF51CEE6FF05D076C3EF
:101C5000FAFF03017551F96EFADFE552E552DF6EC6
:101C6000DF5002E0DF501DD0B5D7010EE76EFB0E4E
:101C7000DBCFE9FFFC0EDBCFEAFFE750E926000EE1
:101C8000EA22010EEF6E020EE76EFB0EDBCFE9FFDC
:101C9000FC0EDBCFEAFFE750E926000EEA22EF6AEE
:101CA00000D0146E020EE15C02E2E16AE552E16EE0
:101CB0001450E552E7CFD9FF1200D9CFE6FFE1CFAC
:101CC000D9FF030EE126DE52010EDD6EFD0EDBCFE5
:101CD000E9FFFE0EDBCFEAFF020EEFCFDBFF400E87
:101CE000E66EE66AE66AFA0EDBCFE6FFFB0EDBCFB6
:101CF000E6FF91EC58F0146E050EE15E1450020EF2
:101D0000DB50110A01E1E7D01F0A01E1E0D0030A2C
:101D100001E1CED0010A01E1B1D0070A01E18AD088
:101D2000010A01E178D0030A72E0190A6AE01F0A89
:101D300061E0070A5BE00F0A56E0010A41E0030A8E
:101D40003BE0010A35E0070A30E0010A2BE0030A14
:101D500025E0010A1FE0060EDF6E010EE76EFA0EA7
:101D6000DBCFE9FFFB0EDBCFEAFFE750E926000EF1
:101D7000EA22EF6A020EE76EFA0EDBCFE9FFFB0EF6
:101D8000DBCFEAFFE750E926000EEA22EF6A010EF8
:101D9000DB6AA5D04FEC0AF0DF6EA1D069EC0AF047
:101DA000DF6E9DD092DCDF6E9AD075DCDF6E97D04F
:101DB00083EC0AF0DF6E93D09DEC0AF0DF6E8FD0DB
:101DC000010EE76EFD0EDBCFE9FFFE0EDBCFEAFF73
:101DD000E750E926000EEA22EF50E66EB7EC0AF073
:101DE000E552DF6E7CD08BDCDF6E79D00301020E12
:101DF000866F75D0010EE66E23EC0AF0E552DF6EB9
:101E00006ED0E66A23EC0AF0E552DF6E68D003017B
:101E1000010E866F64D0FA0EDBCFE6FFFB0EDBCF40
:101E2000E6FF51DEE552E552DF6EDF5002E1010EC2
:101E3000DB6A55D0FC0EDB04E66EFA0EDBCFE6FF64
:101E4000FB0EDBCFE6FF010EE76EFD0EDBCF14F0DD
:101E5000FE0EDBCF15F0E7501426000E152214C03D
:101E6000E6FF15C0E6FFAADE166E050EE15E16500F
:101E7000DF6EDF5002E1010EDB6A31D0FC0EDB04C5
:101E8000E66E010EE76EFD0EDBCF14F0FE0EDBCF2B
:101E900015F0E7501426000E152214C0E6FF15C0F9
:101EA000E6FFE3EC0AF0E552E552E552DF6E17D0AB
:101EB000FA0EDBCFE6FFFB0EDBCFE6FF41DCE5529F
:101EC000E552DF6EDF5002E1010EDB6A08D024EC40
:101ED0000BF0DF6E04D043EC0BF0DF6E00D0010E90
:101EE000DB5022E0DF5002E0000E01D0010EE66E72
:101EF000010EE76EFA0EDBCFE9FFFB0EDBCFEAFF48
:101F0000E750E926000EEA22E552E750EF6E020E96
:101F1000E76EFA0EDBCFE9FFFB0EDBCFEAFFE750FF
:101F2000E926000EEA22EF6ADF50146E030EE15C30
:101F300003E200D0E16AE552E16E1450E552E7CFCA
:101F4000D9FF1200D9CFE6FFE1CFD9FFE65250CE3C
:101F5000E6FF51CEE6FF05D076C3FAFF03017551C7
:101F6000F96EFADFE552E552DF6EDF5000D0E55240
:101F7000E552E7CFD9FF1200D9CFE6FFE1CFD9FF75
:101F8000FA0EDBCFE9FFFB0EDBCFEAFFEF6A0301BE
:101F90007E512FE07EC388F3FC0EDBCF14F07E5120
:101FA000D880145402E27E5102D0FC0EDB50E76E62
:101FB000FC0EE7CFDBFFDBCFE6FFE66A930EE66EB3
:101FC0000E0EE66EFD0EDBCFE6FFFE0EDBCFE6FF6C
:101FD00066EC58F0146E060EE15E1450FA0EDBCF7C
:101FE000E9FFFB0EDBCFEAFFFC0EDBCFEFFF0301C7
:101FF0007E6B000E00D0E552E7CFD9FF1200D9CF9B
:10200000E6FFE1CFD9FFE652F90EDBCF73F3FA0E0C
:10201000DBCF74F3F70EDBCF75F3F80EDBCF76F37F
:102020003F0EE66EE66AE66A110EE66E0E0EE66E8C
:1020300091EC58F0146E050EE15E14500301796BBB
:102040007A6B3F0EE66EE66AE66A540EE66E0E0E98
:10205000E66E91EC58F0146E050EE15E1450FD0E24
:10206000DBCF52FEFE0EDBCF53FEFB0EDBCF50FE6E
:10207000FC0EDBCF51FE440EE66E1F0EE66EFB0E2D
:10208000DBCFE6FFFC0EDBCFE6FFE668000EE66E78
:10209000010EE66EFD0EDBCFE6FFFE0EDBCFE6FFA8
:1020A000000EE66E0E0EE66E45EC31F0146E0B0E71
:1020B000E15E1450DF6EDF5002E0DF5024D00301F8
:1020C0007D6B7C6BE66A000EE66EE66AE66A52ECB1
:1020D00008F0E552E552E552E5520301866B806B4C
:1020E000816B826B846B836B856B776B0AEC0AF078
:1020F000DF6EDF5002E0DF5006D0D1EC57F00E016A
:10210000B36F000E00D0E552E552E7CFD9FF1200C1
:10211000D9CFE6FFE1CFD9FF030EE126DF6ADE5219
:10212000040EDD6E020E7FC3DBFFFE0EDBCF82F3FB
:10213000FD0EDBCF80F3FC0EDBCF81F3FB0EDBCF9C
:1021400084F3FA0EDBCF83F3F90EDBCF85F30301C3
:10215000865103E1010EDB6A26D0835104E1DE5291
:10216000060EDD6E20D0FB0EDB5004E0DE52030EC7
:10217000DD6E19D0FD0EDB5003E1F90EDB5004E0FB
:10218000DE52050EDD6E0FD0020E815D04E1DE52DF
:10219000020EDD6E08D0FE0EDB5002E1810503E188
:1021A000DE52010EDD6E010EDB50F36E020EDB50CF
:1021B000F35C0EE0E66A000EE66EE66A010EDBCF27
:1021C000E6FF52EC08F0E552E552E552E552DF6ECB
:1021D000DF50146E030EE15C03E200D0E16AE552C9
:1021E000E16E1450E552E7CFD9FF1200D9CFE6FFD8
:1021F000E1CFD9FF070EE126D950050FE96EDACFFE
:10220000EAFF160EEE6E0E0EED6ED950040FE66E5E
:10221000000EDA20E66ED950030FE66E000EDA20CB
:10222000E66ED9CFE6FFDACFE6FFD950010FE66EB2
:10223000000EDA20E66E89EC08F0146E080EE15EFE
:102240001450E76E020EE7CFDBFFDB5003E0020E17
:10225000DB50F8D2DF5002E1000EF4D2030EDB5067
:10226000030801E0E0D0010EDB50FF0835E1070E66
:1022700003017A5D30E1040EE76E050EDBCFE9FF66
:10228000060EDBCFEAFFE750E926000EEA22EF5008
:10229000070821E1E66A000EE66EE66A070EE66EC2
:1022A00052EC08F0E552E552E552E5520301030E07
:1022B000866F7D6B000EE66E0E0EE66EC3EC35F09B
:1022C000E552E552E76E020EE7CFDBFFDB5003E09D
:1022D000020EDB50B7D27CD0010EDB5003017A5DD9
:1022E00009E0050EDBCFE9FF060EDBCFEAFFEF507A
:1022F0007B5D6EE1020E7A5D68E1030E7B5D65E158
:10230000FF0E875D37E10E01546BB4CE55FE03011D
:1023100079290E01566F576903017951E66EE66A15
:10232000020EE76E050EDBCF14F0060EDBCF15F0C4
:10233000E7501426000E152214C0E6FF15C0E6FF74
:10234000580EE66E0E0EE66E66EC58F0166E060E31
:10235000E15E1650040E03017925E66E540EE66E1A
:102360000E0EE66E05EC0BF0E552E552E552030168
:10237000876B2BD0010EE76E050EDBCFE9FF060E53
:10238000DBCFEAFFE750E926000EEA22EFCF79F330
:102390007951E66EE66A020EE76E050EDBCF14F0A9
:1023A000060EDBCF15F0E7501426000E152214C0E0
:1023B000E6FF15C0E6FF540EE66E0E0EE66E66EC06
:1023C00058F0166E060EE15E165003017A6B7B6BB9
:1023D000010EDB50FD0825E10301865122E1060EC6
:1023E000DF5C1FE1040EDB501CE1010E866F85C32C
:1023F000E6FF83C3E6FF84C3E6FF81C3E6FF80C335
:10240000E6FF82C3E6FF84DE146E060EE15E145022
:10241000E76E020EE7CFDBFFDB5003E0020EDB507E
:1024200011D2000E0FD2010EDB501C0A01E17CD14B
:10243000060A01E15BD10F0A01E1ADD0100A06E006
:10244000050EF36E020EF3CFDBFFBFD1050EDBCF1F
:10245000E9FF060EDBCFEAFFEF50120A01E185D05B
:10246000030A6DE0350A49E0290A25E0030A01E084
:1024700091D0020EE76E050EDBCFE9FF060EDBCF33
:10248000EAFFE750E926000EEA22EF50E66E83C32A
:10249000E6FF84C3E6FF81C3E6FF80C3E6FF82C395
:1024A000E6FF36DE146E060EE15E1450E76E020E95
:1024B000E7CFDBFF6FD085C3E6FF83C3E6FF84C3AE
:1024C000E6FF81C3E6FF020EE76E050EDBCFE9FFF4
:1024D000060EDBCFEAFFE750E926000EEA22EF50B6
:1024E000E66E82C3E6FF14DE146E060EE15E145043
:1024F000E76E020EE7CFDBFF4DD085C3E6FF83C357
:10250000E6FF84C3E6FF010EE76E050EDBCFE9FFB1
:10251000060EDBCFEAFFE750E926000EEA22EF5075
:10252000E66E80C3E6FF82C3E6FFF2DD146E060EA0
:10253000E15E1450E76E020EE7CFDBFF2BD085C3C0
:10254000E6FF83C3E6FF84C3E6FF81C3E6FF80C3E3
:10255000E6FF010EE66EDCDD146E060EE15E145041
:10256000E76E020EE7CFDBFF15D085C3E6FF83C31E
:10257000E6FF84C3E6FF81C3E6FF80C3E6FFE66AA9
:10258000C7DD146E060EE15E1450E76E020EE7CF53
:10259000DBFF00D01AD1050EDBCFE9FF060EDBCF43
:1025A000EAFFEF50250A39E0100A01E09ED0010E43
:1025B000E76E050EDBCFE9FF060EDBCFEAFFE75043
:1025C000E926000EEA22EF5006E00301826B806BE1
:1025D000816B846B856B85C3E6FF010EE76E050E8C
:1025E000DBCFE9FF060EDBCFEAFFE750E926000E5E
:1025F000EA22EF50E66E84C3E6FF81C3E6FF80C3A4
:10260000E6FF82C3E6FF84DD146E060EE15E145021
:10261000E76E020EE7CFDBFF68D0010EE76E050E16
:10262000DBCFE9FF060EDBCFEAFFE750E926000E1D
:10263000EA22EF0416E185C3E6FF83C3E6FF010E3D
:10264000E66E81C3E6FF80C3E6FF82C3E6FF60DD7E
:10265000146E060EE15E1450E76E020EE7CFDBFF4C
:1026600043D0010EE76E050EDBCFE9FF060EDBCF90
:10267000EAFFE750E926000EEA22EF5011E1E66A90
:10268000000EE66EE66A080EE66E52EC08F0E552C1
:10269000E552E552E552E76E020EE7CFDBFF10D0C0
:1026A000E66A000EE66EE66A090EE66E52EC08F087
:1026B000E552E552E552E552E76E020EE7CFDBFF49
:1026C00085C3E6FF83C3E6FFE66A81C3E6FF80C3F6
:1026D000E6FF82C3E6FF1CDD146E060EE15E1450B9
:1026E000E76E020EE7CFDBFF00D06FD0010EE66E83
:1026F000E76E050EDBCF14F0060EDBCF15F0E750CA
:102700001426000E152214C0E6FF15C0E6FF0A0EBF
:10271000E66E52EC08F0E552E552E552E552E76EFE
:10272000020EE7CFDBFF51D0050EDBCFE9FF060E2F
:10273000DBCFEAFFEF0448E103017E5126E1060EFC
:10274000DF5C200802E2200E02D0060EDF5C7E6F06
:102750007E51E66EE66A010EE76E050EDBCF14F0E1
:10276000060EDBCF15F0E7501426000E152214C01C
:10277000E6FF15C0E6FF930EE66E0E0EE66E66EC03
:1027800058F0166E060EE15E1650060EDF5CE66E21
:10279000010EE76E050EDBCF14F0060EDBCF15F051
:1027A000E7501426000E152214C0E6FF15C0E6FF00
:1027B0000B0EE66E52EC08F0E552E552E552E5529A
:1027C000E76E020EE7CFDBFF00D0030EDB041AE159
:1027D000DFCFE6FF000EE66EE66A110EE66E0E0E25
:1027E000E66EFE0EE66E04EC0CF0146E060EE15E74
:1027F0001450E76E020EE7CFDBFFDB5003E0020E62
:10280000DB5020D0030EDB50020819E1DFCFE6FFDA
:10281000000EE66EE66A110EE66E0E0EE66EE668D5
:1028200004EC0CF0146E060EE15E1450E76E020E1E
:10283000E7CFDBFFDB5003E0020EDB5003D0020EDC
:10284000DB5000D0146E070EE15C02E2E16AE55253
:10285000E16E1450E552E7CFD9FF1200D9CFE6FF61
:10286000E1CFD9FFE652B3CEE6FFD5EC57F0E55203
:10287000640812E2E66A000EE66EE66A070EE66E8D
:1028800052EC08F0E552E552E552E5520301030E21
:10289000866F7D6B000E04D0A9DCDF6EDF5000D0A8
:1028A000E552E552E7CFD9FF1200D9CFE6FFE1CFDD
:1028B000D9FF020EE12603018651030A0FE0020A46
:1028C0000AE0030A08E0020A03E0070EDF6E08D000
:1028D000C5DFDF6E05D08ADCDF6E02D0DF6A00D094
:1028E000DF5002E0DF5033D003017D5126E07CC38E
:1028F000E6FFD5EC57F0E55205081FE2D950010F6D
:10290000E66E000EDA20E66E000EE66E0E0EE66E45
:1029100025EC31F0E552E552E552E552DF6EDF502D
:1029200002E0DF5014D0010EDB5005E0D1EC57F08F
:1029300003017C6F02D003017D6BFD0EDBCFE9FF4D
:10294000FE0EDBCFEAFF7FC3EFFFDF5000D0146E37
:10295000020EE15C02E2E16AE552E16E1450E552DA
:10296000E7CFD9FF1200D9CFE6FFE1CFD9FFFC0EA8
:10297000DB5000086FE2200EF36EFC0EDBCFF4FF9D
:10298000F350F45C67E20301875164E1030EE76EE4
:10299000FD0EDBCFE9FFFE0EDBCFEAFFE750E926B5
:1029A000000EEA22EF50010A13E0FE0A01E052D0C5
:1029B0008769010EE76EFD0EDBCFE9FFFE0EDBCF70
:1029C000EAFFE750E926000EEA22EFCFB4FE42D03C
:1029D0000E01546B010EE76EFD0EDBCFE9FFFE0E1C
:1029E000DBCFEAFFE750E926000EEA22EFCF55FEE3
:1029F000FC0EDB50FD0F566F010E576FFC0EDB50C7
:102A0000FC0FE66EE66A040EE76EFD0EDBCF14F0F7
:102A1000FE0EDBCF15F0E7501426000E152214C071
:102A2000E6FF15C0E6FF580EE66E0E0EE66E66EC8B
:102A300058F0166E060EE15E1650FC0EDBCFE6FF78
:102A4000540EE66E0E0EE66E05EC0BF0E552E55206
:102A5000E55200D0010E00D0E552E7CFD9FF1200B9
:102A600001EC57F003019A6B9B6B9C6B9D6BA298DA
:102A70001200D9CFE6FFE1CFD9FFFD0EDBCFE9FF92
:102A8000FE0EDBCFEAFF010EEF6ED1EC57F0030133
:102A90009A6FE552E7CFD9FF1200D9CFE6FFE1CF19
:102AA000D9FFFD0EDBCFE9FFFE0EDBCFEAFF010E03
:102AB000EF6ED1EC57F003019C6FE552E7CFD9FFE1
:102AC0001200D9CFE6FFE1CFD9FF03019B0509E151
:102AD000FD0EDBCFE9FFFE0EDBCFEAFF010EEF6E4E
:102AE00016D09AC3E6FFD5EC57F0E55232080FE254
:102AF000FD0EDBCFE9FFFE0EDBCFEAFFEF0407E1BF
:102B0000FD0EDBCFE9FFFE0EDBCFEAFFEF6AE552F9
:102B1000E7CFD9FF1200D9CFE6FFE1CFD9FF0301FC
:102B20009D0509E1FD0EDBCFE9FFFE0EDBCFEAFFDD
:102B3000010EEF6E16D09CC3E6FFD5EC57F0E552C0
:102B400032080FE2FD0EDBCFE9FFFE0EDBCFEAFF1E
:102B5000EF0407E1FD0EDBCFE9FFFE0EDBCFEAFF5E
:102B6000EF6AE552E7CFD9FF1200D9CFE6FFE1CFF8
:102B7000D9FFFE0EDB500CE00301010E9B6FFC0E33
:102B8000DBCFE9FFFD0EDBCFEAFF010EEF6E09D0D0
:102B900003019B6BFC0EDBCFE9FFFD0EDBCFEAFFF1
:102BA000EF6A010E00D0E552E7CFD9FF1200D9CF6E
:102BB000E6FFE1CFD9FFFE0EDB500CE00301010E72
:102BC0009D6FFC0EDBCFE9FFFD0EDBCFEAFF010EB0
:102BD000EF6E09D003019D6BFC0EDBCFE9FFFD0E0C
:102BE000DBCFEAFFEF6A010E00D0E552E7CFD9FF55
:102BF0001200D9CFE6FFE1CFD9FF0C0EE126DF6A44
:102C0000010EDB6A020EDB6A030EDB6A040EDB6A6E
:102C1000050EDB6A060EDB6A070EDB6A080EDB6A4E
:102C2000090EDB6A0A0EDB6A0B0EDB6A050EDB6A35
:102C3000FD0EDBCFE9FFFE0EDBCFEAFFEF50FF0A10
:102C400002E134EF20F00D0A02E1E1EF1FF01C0A6F
:102C500002E1D2EF1EF0010A02E1C1EF1DF0020A0B
:102C600002E148EF1CF04F0A02E1FFEF1BF0030AFC
:102C700002E1B6EF1BF0010A02E14BEF1BF0300A54
:102C800002E101EF1BF0170A02E1B3EF1AF0010AAB
:102C900001E1E8D3030A01E183D3010A01E13FD353
:102CA000070A01E1DAD2010A01E188D2930A02E0BF
:102CB00013EF21F0020EE76EFD0EDBCFE9FFFE0EF3
:102CC000DBCFEAFFE750E926000EEA22EF0441E1FC
:102CD000030EE76EFD0EDBCF14F0FE0EDBCF15F01A
:102CE000E7501426000E152214C0E6FF15C0E6FFBB
:102CF000F9EC52F0E552E552FD0EDBCFE9FFFE0E96
:102D0000DBCFEAFFEF50E66EFB0EDBCFE9FFFC0EF8
:102D1000DBCFEAFFE552E750EF6E010EE76EFB0EE8
:102D2000DBCFE9FFFC0EDBCFEAFFE750E926000E20
:102D3000EA22010EEF6E020EE76EFB0EDBCFE9FF1B
:102D4000FC0EDBCFEAFFE750E926000EEA22EF6A2D
:102D50002ED2020EE76EFD0EDBCFE9FFFE0EDBCFBB
:102D6000EAFFE750E926000EEA22EF50020841E1AF
:102D7000030EE76EFD0EDBCF14F0FE0EDBCF15F079
:102D8000E7501426000E152214C0E6FF15C0E6FF1A
:102D900096EC4CF0E552E552FD0EDBCFE9FFFE0E5E
:102DA000DBCFEAFFEF50E66EFB0EDBCFE9FFFC0E58
:102DB000DBCFEAFFE552E750EF6E010EE76EFB0E48
:102DC000DBCFE9FFFC0EDBCFEAFFE750E926000E80
:102DD000EA22010EEF6E020EE76EFB0EDBCFE9FF7B
:102DE000FC0EDBCFEAFFE750E926000EEA22EF6A8D
:102DF000DED1020EE76EFD0EDBCFE9FFFE0EDBCF6C
:102E0000EAFFE750E926000EEA22EF50110846E1FA
:102E1000F90EDBCFE6FFFA0EDBCFE6FF3EDEE55232
:102E2000E552FB0EDBCFE6FFFC0EDBCFE6FF010E2B
:102E3000E76EFD0EDBCFE9FFFE0EDBCFEAFFE750CA
:102E4000E926000EEA22EF50E66E030EDF24E76E5D
:102E5000FD0EDBCF14F0FE0EDBCF15F0E75014268D
:102E6000000E152214C0E6FF15C0E6FF5DEC0EF063
:102E7000166E050EE15E1650FD0EDBCFE9FFFE0E6D
:102E8000DBCFEAFFEF50E66EFB0EDBCFE9FFFC0E77
:102E9000DBCFEAFFE552E750EF6E89D1020EE76E15
:102EA000FD0EDBCFE9FFFE0EDBCFEAFFE750E926A0
:102EB000000EEA22EF5005083EE1030EE76EFD0E1C
:102EC000DBCFE9FFFE0EDBCFEAFFE750E926000E7D
:102ED000EA22EF50E66EABEC24F0E552FD0EDBCFBC
:102EE000E9FFFE0EDBCFEAFFEF50E66EFB0EDBCF15
:102EF000E9FFFC0EDBCFEAFFE552E750EF6E010E73
:102F0000E76EFB0EDBCFE9FFFC0EDBCFEAFFE750FD
:102F1000E926000EEA22010EEF6E020EE76EFB0EAE
:102F2000DBCFE9FFFC0EDBCFEAFFE750E926000E1E
:102F3000EA22EF6A3CD1020EE76EFD0EDBCFE9FF1D
:102F4000FE0EDBCFEAFFE750E926000EEA22EF5043
:102F500006083EE1030EE76EFD0EDBCFE9FFFE0E35
:102F6000DBCFEAFFE750E926000EEA22EF50E66EDB
:102F7000BAEC24F0E552FD0EDBCFE9FFFE0EDBCF0D
:102F8000EAFFEF50E66EFB0EDBCFE9FFFC0EDBCF76
:102F9000EAFFE552E750EF6E010EE76EFB0EDBCF66
:102FA000E9FFFC0EDBCFEAFFE750E926000EEA223C
:102FB000010EEF6E020EE76EFB0EDBCFE9FFFC0E9B
:102FC000DBCFEAFFE750E926000EEA22EF6AEFD0F6
:102FD000020EE76EFD0EDBCFE9FFFE0EDBCFEAFF50
:102FE000E750E926000EEA22EF50070840E1FD0E07
:102FF000DBCFE9FFFE0EDBCFEAFFEF50E66EFB0E04
:10300000DBCFE9FFFC0EDBCFEAFFE552E750EF6EC6
:10301000010EE76EFB0EDBCFE9FFFC0EDBCFEAFF14
:10302000E750E926000EEA22010EEF6E020EE76E6F
:10303000FB0EDBCFE9FFFC0EDBCFEAFFE750E92612
:10304000000EEA22010EEF6E8150010BE66E030EB8
:10305000E76EFB0EDBCFE9FFFC0EDBCFEAFFE750AC
:10306000E926000EEA22E552E750EF6EA0D0020EEC
:10307000E76EFD0EDBCFE9FFFE0EDBCFEAFFE75088
:10308000E926000EEA22EF50080866E1FD0EDBCFCC
:10309000E9FFFE0EDBCFEAFFEF50E66EFB0EDBCF63
:1030A000E9FFFC0EDBCFEAFFE552E750EF6E020EC0
:1030B000E76EFB0EDBCF14F0FC0EDBCF15F0E75014
:1030C0001426000E152214C0E6FF15C0E6FF030EFD
:1030D000E76EFB0EDBCF16F0FC0EDBCF17F0E750F0
:1030E0001626000E172216C0E6FF17C0E6FF010ED7
:1030F000E76EFD0EDBCFE9FFFE0EDBCFEAFFE75008
:10310000E926000EEA22EF04E66E030EE76EFD0EDE
:10311000DBCF18F0FE0EDBCF19F0E7501826000EBB
:10312000192218C0E6FF19C0E6FFA0EC25F01A6EC0
:10313000070EE15E1A50E66E010EE76EFB0EDBCF66
:10314000E9FFFC0EDBCFEAFFE750E926000EEA229A
:10315000E552E750EF6E2BD0FD0EDBCFE9FFFE0E00
:10316000DBCFEAFFEF50E66EFB0EDBCFE9FFFC0E94
:10317000DBCFEAFFE552E750EF6E010EE76EFB0E84
:10318000DBCFE9FFFC0EDBCFEAFFE750E926000EBC
:10319000EA22EF6A020EE76EFB0EDBCFE9FFFC0EC0
:1031A000DBCFEAFFE750E926000EEA22EF6A010EC4
:1031B000F36E050EF3CFDBFF14EF21F0F70EDBCF3C
:1031C000E6FFF80EDBCFE6FF54DCE552E552FD0EDC
:1031D000DBCFE9FFFE0EDBCFEAFFEF50E66EFB0E22
:1031E000DBCFE9FFFC0EDBCFEAFFE552E750EF6EE5
:1031F000020EE76EFD0EDBCFE9FFFE0EDBCFEAFF2E
:10320000E750E926000EEA22EF50E66EF9EC50F0A6
:10321000E552E66E010EE76EFB0EDBCFE9FFFC0E1A
:10322000DBCFEAFFE750E926000EEA22E552E7503D
:10323000EF6E020EE76EFB0EDBCFE9FFFC0EDBCF7D
:10324000EAFFE750E926000EEA22EF6A010EF36E6C
:10325000050EF3CFDBFF14EF21F0F70EDBCFE6FF17
:10326000F80EDBCFE6FF39EC15F0E552E552FD0E26
:10327000DBCFE9FFFE0EDBCFEAFFEF50E66EFB0E81
:10328000DBCFE9FFFC0EDBCFEAFFE552E750EF6E44
:10329000010EE76EFD0EDBCFE9FFFE0EDBCFEAFF8E
:1032A000E750E926000EEA22EF50E66E020EE76EC6
:1032B000FD0EDBCF14F0FE0EDBCF15F0E750142629
:1032C000000E152214C0E6FF15C0E6FF6CEC51F0AD
:1032D000E552E552E552E66E010EE76EFB0EDBCFDE
:1032E000E9FFFC0EDBCFEAFFE750E926000EEA22F9
:1032F000E552E750EF6E020EE76EFB0EDBCFE9FF03
:10330000FC0EDBCFEAFFE750E926000EEA22EF6A67
:10331000010EF36E050EF3CFDBFF14EF21F0F70E75
:10332000DBCFE6FFF80EDBCFE6FF39EC15F0E55218
:10333000E552FD0EDBCFE9FFFE0EDBCFEAFFEF50DB
:10334000E66EFB0EDBCFE9FFFC0EDBCFEAFFE552BA
:10335000E750EF6E39EC51F0E66E010EE76EFB0EB2
:10336000DBCFE9FFFC0EDBCFEAFFE750E926000EDA
:10337000EA22E552E750EF6E020EE76EFB0EDBCF5E
:10338000E9FFFC0EDBCFEAFFE750E926000EEA2258
:10339000EF6A010EF36E050EF3CFDBFF14EF21F0A1
:1033A000F70EDBCFE6FFF80EDBCFE6FF39EC15F0CA
:1033B000E552E552FD0EDBCFE9FFFE0EDBCFEAFF63
:1033C000EF50E66EFB0EDBCFE9FFFC0EDBCFEAFF32
:1033D000E552E750EF6E010EE76EFD0EDBCFE9FF21
:1033E000FE0EDBCFEAFFE750E926000EEA22EF509F
:1033F000E66E020EE76EFD0EDBCF14F0FE0EDBCFA5
:1034000015F0E7501426000E152214C0E6FF15C073
:10341000E6FFA9EC51F0E552E552E552E66E010EE9
:10342000E76EFB0EDBCFE9FFFC0EDBCFEAFFE750D8
:10343000E926000EEA22E552E750EF6E020EE76E33
:10344000FB0EDBCFE9FFFC0EDBCFEAFFE750E926FE
:10345000000EEA22EF6A010EF36E050EF3CFDBFFDA
:1034600014EF21F0F70EDBCFE6FFF80EDBCFE6FF1F
:1034700039EC15F0E552E552FD0EDBCFE9FFFE0E0B
:10348000DBCFEAFFEF50E66EFB0EDBCFE9FFFC0E71
:10349000DBCFEAFFE552E750EF6E030EE76EFB0E5F
:1034A000DBCF14F0FC0EDBCF15F0E7501426000E36
:1034B000152214C0E6FF15C0E6FF030EE76EFD0EF1
:1034C000DBCFE9FFFE0EDBCFEAFFE750E926000E77
:1034D000EA22EF50E66E020EE76EFD0EDBCFE9FF4B
:1034E000FE0EDBCFEAFFE750E926000EEA22EF509E
:1034F000E66E72EC52F0E552E552E552E552E66EA8
:10350000010EE76EFB0EDBCFE9FFFC0EDBCFEAFF1F
:10351000E750E926000EEA22E552E750EF6E030E6F
:10352000E76EFD0EDBCFE9FFFE0EDBCFEAFFE750D3
:10353000E926000EEA22EF50E66E020EE76EFB0E61
:10354000DBCFE9FFFC0EDBCFEAFFE750E926000EF8
:10355000EA22E552E750EF6E010EF36E050EF3CF4F
:10356000DBFF14EF21F0FD0EDBCFE9FFFE0EDBCF1A
:10357000EAFFEF50E66EFB0EDBCFE9FFFC0EDBCF80
:10358000EAFFE552E750EF6EF70EDBCFE6FFF80EED
:10359000DBCFE6FF020EE76EFD0EDBCFE9FFFE0E8E
:1035A000DBCFEAFFE750E926000EEA22EF50E66E95
:1035B000B5EC15F0E552E552E552E66E010EE76E08
:1035C000FB0EDBCFE9FFFC0EDBCFEAFFE750E9267D
:1035D000000EEA22E552E750EF6E020EE76EFB0E98
:1035E000DBCFE9FFFC0EDBCFEAFFE750E926000E58
:1035F000EA22EF6A010EF36E050EF3CFDBFF14EF44
:1036000021F0FD0EDBCFE9FFFE0EDBCFEAFFEF502E
:10361000E66EFB0EDBCFE9FFFC0EDBCFEAFFE552E7
:10362000E750EF6E010EE76EFB0EDBCFE9FFFC0EFD
:10363000DBCFEAFFE750E926000EEA22010EEF6E2B
:10364000030EE76EFB0EDBCF14F0FC0EDBCF15F0A4
:10365000E7501426000E152214C0E6FF15C0E6FF41
:10366000F5EC55F0E552E552E66E020EE76EFB0E04
:10367000DBCFE9FFFC0EDBCFEAFFE750E926000EC7
:10368000EA22E552E750EF6E010EF36E050EF3CF1E
:10369000DBFF14EF21F0FD0EDBCFE9FFFE0EDBCFE9
:1036A000EAFFEF50E66EFB0EDBCFE9FFFC0EDBCF4F
:1036B000EAFFE552E750EF6E030EE76EFB0EDBCF3D
:1036C00014F0FC0EDBCF15F0E7501426000E152287
:1036D00014C0E6FF15C0E6FF020EE76EFD0EDBCF5D
:1036E00016F0FE0EDBCF17F0E7501626000E17225D
:1036F00016C0E6FF17C0E6FF54EC4FF0E552E55266
:10370000E552E552E66E010EE76EFB0EDBCFE9FFF8
:10371000FC0EDBCFEAFFE750E926000EEA22E55275
:10372000E750EF6E040EE76EFD0EDBCFE9FFFE0EF5
:10373000DBCFEAFFE750E926000EEA22EF50E66E03
:10374000020EE76EFB0EDBCFE9FFFC0EDBCFEAFFDC
:10375000E750E926000EEA22E552E750EF6E010E2F
:10376000F36E050EF3CFDBFF14EF21F0FD0EDBCF80
:10377000E9FFFE0EDBCFEAFFEF50E66EFB0EDBCF7C
:10378000E9FFFC0EDBCFEAFFE552E750EF6E020ED9
:10379000E76EFD0EDBCF14F0FE0EDBCF15F0E75029
:1037A0001426000E152214C0E6FF15C0E6FFF3EC48
:1037B0004FF0E552E552E66E010EE76EFB0EDBCFF1
:1037C000E9FFFC0EDBCFEAFFE750E926000EEA2214
:1037D000E552E750EF6E020EE76EFB0EDBCFE9FF1E
:1037E000FC0EDBCFEAFFE750E926000EEA22EF6A83
:1037F000010EF36E050EF3CFDBFF14EF21F0FD0E8B
:10380000DBCFE9FFFE0EDBCFEAFFEF50E66EFB0EEB
:10381000DBCFE9FFFC0EDBCFEAFFE552E750EF6EAE
:10382000020EE76EFD0EDBCF14F0FE0EDBCF15F0BF
:10383000E7501426000E152214C0E6FF15C0E6FF5F
:1038400096EC4EF0E552E552E66E010EE76EFB0E89
:10385000DBCFE9FFFC0EDBCFEAFFE750E926000EE5
:10386000EA22E552E750EF6E020EE76EFB0EDBCF69
:10387000E9FFFC0EDBCFEAFFE750E926000EEA2263
:10388000EF6A010EF36E050EF3CFDBFF14EF21F0AC
:10389000020EE76EFD0EDBCFE9FFFE0EDBCFEAFF87
:1038A000E750E926000EEA22EF0440E1FD0EDBCFEF
:1038B000E9FFFE0EDBCFEAFFEF50E66EFB0EDBCF3B
:1038C000E9FFFC0EDBCFEAFFE552E750EF6E010E99
:1038D000E76EFB0EDBCFE9FFFC0EDBCFEAFFE75024
:1038E000E926000EEA22010EEF6E020EE76EFB0ED5
:1038F000DBCFE9FFFC0EDBCFEAFFE750E926000E45
:10390000EA22010EEF6E4AEC4CF0E66E030EE76E13
:10391000FB0EDBCFE9FFFC0EDBCFEAFFE750E92629
:10392000000EEA22E552E750EF6E25D1020EE76E57
:10393000FD0EDBCFE9FFFE0EDBCFEAFFE750E92605
:10394000000EEA22EF5002082EE1FD0EDBCFE9FF68
:10395000FE0EDBCFEAFFEF50E66EFB0EDBCFE9FF9A
:10396000FC0EDBCFEAFFE552E750EF6E010EE76E8B
:10397000FB0EDBCFE9FFFC0EDBCFEAFFE750E926C9
:10398000000EEA22010EEF6E020EE76EFB0EDBCF99
:10399000E9FFFC0EDBCFEAFFE750E926000EEA2242
:1039A000EF6AFFD7E8D0020EE76EFD0EDBCFE9FF2E
:1039B000FE0EDBCFEAFFE750E926000EEA22EF50C9
:1039C00003083EE1030EE76EFD0EDBCFE9FFFE0EBE
:1039D000DBCFEAFFE750E926000EEA22EF50E66E61
:1039E000EEEC52F0E552FD0EDBCFE9FFFE0EDBCF31
:1039F000EAFFEF50E66EFB0EDBCFE9FFFC0EDBCFFC
:103A0000EAFFE552E750EF6E010EE76EFB0EDBCFEB
:103A1000E9FFFC0EDBCFEAFFE750E926000EEA22C1
:103A2000010EEF6E020EE76EFB0EDBCFE9FFFC0E20
:103A3000DBCFEAFFE750E926000EEA22EF6A9BD0CF
:103A4000020EE76EFD0EDBCFE9FFFE0EDBCFEAFFD5
:103A5000E750E926000EEA22EF50040861E1FD0E6E
:103A6000DBCFE9FFFE0EDBCFEAFFEF50E66EFB0E89
:103A7000DBCFE9FFFC0EDBCFEAFFE552E750EF6E4C
:103A8000010EE76EFB0EDBCFE9FFFC0EDBCFEAFF9A
:103A9000E750E926000EEA22010EEF6E020EE76EF5
:103AA000FB0EDBCFE9FFFC0EDBCFEAFFE750E92698
:103AB000000EEA22020EEF6E4CEC57F0F3CF14F03A
:103AC000F4CF15F015C014F0156AFF0E1416000E91
:103AD0001516030EE76EFB0EDBCFE9FFFC0EDBCF06
:103AE000EAFFE750E926000EEA2214C0EFFF4CEC93
:103AF00057F0F3CF14F0F4CF15F0FF0E1416000EAC
:103B00001516040EE76EFB0EDBCFE9FFFC0EDBCFD4
:103B1000EAFFE750E926000EEA2214C0EFFF2BD09F
:103B2000FD0EDBCFE9FFFE0EDBCFEAFFEF50E66EC6
:103B3000FB0EDBCFE9FFFC0EDBCFEAFFE552E750DF
:103B4000EF6E010EE76EFB0EDBCFE9FFFC0EDBCF65
:103B5000EAFFE750E926000EEA22EF6A020EE76E5E
:103B6000FB0EDBCFE9FFFC0EDBCFEAFFE750E926D7
:103B7000000EEA22EF6A010EF36E050EF3CFDBFFB3
:103B800053D3FD0EDBCFE9FFFE0EDBCFEAFFEF5094
:103B9000E66EFB0EDBCFE9FFFC0EDBCFEAFFE55262
:103BA000E750EF6E020EE76EFD0EDBCFE9FFFE0E73
:103BB000DBCFEAFFE750E926000EEA22EF50E66E7F
:103BC000D950060FE96EDACFEAFFE552E750EE6E04
:103BD000ED6A060EDBCF14F0070EDBCF15F014C034
:103BE00015F0146A060E14C0DBFF070E15C0DBFFCC
:103BF000030EE76EFD0EDBCFE9FFFE0EDBCFEAFF23
:103C0000E750E926000EEA22EF50146E156AD950EB
:103C1000060FE96EDACFEAFF1450EE261550ED22BA
:103C2000040EE76EFD0EDBCFE9FFFE0EDBCFEAFFF1
:103C3000E750E926000EEA22EF50E66ED950080F51
:103C4000E96EDACFEAFFE552E750EE6EED6A080E54
:103C5000DBCF14F0090EDBCF15F014C015F0146A99
:103C6000080E14C0DBFF090E15C0DBFF050EE76E62
:103C7000FD0EDBCFE9FFFE0EDBCFEAFFE750E926C2
:103C8000000EEA22EF50146E156AD950080FE96E43
:103C9000DACFEAFF1450EE261550ED22D950080F66
:103CA000E96EDACFEAFFEE50ED100BE0D950080FC5
:103CB000E96EDACFEAFF3A0ED880EE54000EED54EA
:103CC0001BE2010EE76EFB0EDBCFE9FFFC0EDBCF44
:103CD000EAFFE750E926000EEA22EF6A020EE76EDD
:103CE000FB0EDBCFE9FFFC0EDBCFEAFFE750E92656
:103CF000000EEA22EF6A50D0010EE76EFB0EDBCF1A
:103D0000E9FFFC0EDBCFEAFFE750E926000EEA22CE
:103D1000010EEF6E020EE76EFB0EDBCFE9FFFC0E2D
:103D2000DBCFEAFFE750E926000EEA22080EDBCFE0
:103D3000EFFFDF6ADFCF14F0080EDBCF15F0090EBE
:103D4000DBCF16F01550145C000E165425E2060E5B
:103D5000DBCF14F0DB2A070EDBCF15F001E3DB2A03
:103D60000A0EDB501424E96E0B0EDB501520EA6EB0
:103D7000EF50E66E030EDF24E76EFB0EDBCFE9FFAC
:103D8000FC0EDBCFEAFFE750E926000EEA22E552FF
:103D9000E750EF6EDF2ACED7010EF36E050EF3CF9C
:103DA000DBFF42D2FD0EDBCFE9FFFE0EDBCFEAFFE9
:103DB000EF50E66EFB0EDBCFE9FFFC0EDBCFEAFF38
:103DC000E552E750EF6E020EE76EFD0EDBCFE9FF26
:103DD000FE0EDBCFEAFFE750E926000EEA22EF50A5
:103DE000E66ED950060FE96EDACFEAFFE552E750EA
:103DF000EE6EED6A060EDBCF14F0070EDBCF15F08A
:103E000014C015F0146A060E14C0DBFF070E15C0AF
:103E1000DBFF030EE76EFD0EDBCFE9FFFE0EDBCF0F
:103E2000EAFFE750E926000EEA22EF50146E156A09
:103E3000D950060FE96EDACFEAFF1450EE2615507E
:103E4000ED22040EE76EFD0EDBCFE9FFFE0EDBCFA9
:103E5000EAFFE750E926000EEA22EF50E66ED9505D
:103E6000080FE96EDACFEAFFE552E750EE6EED6A31
:103E7000080EDBCF14F0090EDBCF15F014C015F0DF
:103E8000146A080E14C0DBFF090E15C0DBFF050E17
:103E9000E76EFD0EDBCFE9FFFE0EDBCFEAFFE7505A
:103EA000E926000EEA22EF50146E156AD950080F69
:103EB000E96EDACFEAFF1450EE261550ED22D95004
:103EC000080FE96EDACFEAFFEE50ED100BE0D950A3
:103ED000080FE96EDACFEAFF3A0ED880EE54000EF2
:103EE000ED541BE2010EE76EFB0EDBCFE9FFFC0E8B
:103EF000DBCFEAFFE750E926000EEA22EF6A020E66
:103F0000E76EFB0EDBCFE9FFFC0EDBCFEAFFE750ED
:103F1000E926000EEA22EF6A4ED0010EE76EFB0E94
:103F2000DBCFE9FFFC0EDBCFEAFFE750E926000E0E
:103F3000EA22010EEF6E020EE76EFB0EDBCFE9FF09
:103F4000FC0EDBCFEAFFE750E926000EEA22EF6A1B
:103F5000DF6ADFCF14F0080EDBCF15F0090EDBCFE0
:103F600016F01550145C000E165425E2060EDF24E0
:103F7000E76EFD0EDBCFE9FFFE0EDBCFEAFFE75079
:103F8000E926000EEA22EF50E66E060EDBCF14F0B3
:103F9000DB2A070EDBCF15F001E3DB2A0A0EDB502C
:103FA0001424E96E0B0EDB501520EA6EE552E75043
:103FB000EF6EDF2ACED7010EF36E050EF3CFDBFFD7
:103FC00033D1FB0EDBCFE9FFFC0EDBCFEAFFF20EB5
:103FD000EF6E010EE76EFB0EDBCFE9FFFC0EDBCFD1
:103FE000EAFFE750E926000EEA22010EEF6E020E0C
:103FF000E76EFB0EDBCFE9FFFC0EDBCFEAFFE750FD
:10400000E926000EEA22EF6A010EF36E050EF3CFE9
:10401000DBFFD7EC24F0E9EC52F06592656A010E03
:10402000DB6A020EDB6A030EDB6A040EDB6AD95020
:10403000010FE96EDACFEAFFA00EEE5C860EEE58B5
:10404000010EEE58000EEE580BE2D950010FE96E4A
:10405000DACFEAFFEE2A000EEE22EE22EE22E7D7BA
:10406000F29E0EEF00F0E0D0010EDB6A020EDB6A7A
:10407000030EDB6A040EDB6AD950010FE96EDACF5A
:10408000EAFFEFCF14F0EE2A000EEFCF15F0EE228C
:10409000EFCF16F0EE22EFCF17F0EF22FB0EDB5042
:1040A0001424E96EFC0EDB501520EA6EEF68D9503F
:1040B000010FE96EDACFEAFFEFCF14F0EE2A000E1F
:1040C000EFCF15F0EE22EFCF16F0EE22EFCF17F084
:1040D000EF22FB0EDB501424E96EFC0EDB501520A2
:1040E000EA6E010EEF6ED950010FE96EDACFEAFFEA
:1040F000EFCF14F0EE2A000EEFCF15F0EE22EFCF47
:1041000016F0EE22EFCF17F0EF22FB0EDB50142457
:10411000E96EFC0EDB501520EA6E120EEF6ED950E0
:10412000010FE96EDACFEAFFEFCF14F0EE2A000EAE
:10413000EFCF15F0EE22EFCF16F0EE22EFCF17F013
:10414000EF22FB0EDB501424E96EFC0EDB50152031
:10415000EA6E030EEF6ED950010FE96EDACFEAFF77
:10416000EFCF14F0EE2A000EEFCF15F0EE22EFCFD6
:1041700016F0EE22EFCF17F0EF22FB0EDB501424E7
:10418000E96EFC0EDB501520EA6E020EEF6EDF6A60
:10419000100EDF5C27E2DF50EA6A890FE96E030E3A
:1041A000EA22EF50E66ED950010FE96EDACFEAFF4E
:1041B000EFCF14F0EE2A000EEFCF15F0EE22EFCF86
:1041C00016F0EE22EFCF17F0EF22FB0EDB50142497
:1041D000E96EFC0EDB501520EA6EE552E750EF6EFB
:1041E000DF2AD6D7D950010FE96EDACFEAFFEFCF39
:1041F00014F0EE2A000EEFCF15F0EE22EFCF16F0FE
:10420000EE22EFCF17F0EF22FB0EDB501424E96E05
:10421000FC0EDB501520EA6EEF6A010EF36E050E00
:10422000F3CFDBFF01D000D0050EDB5000D0146EC1
:104230000C0EE15C02E2E16AE552E16E1450E552D7
:10424000E7CFD9FF1200D9CFE6FFE1CFD9FFE65281
:10425000DF6AF90EDBCFE6FFFA0EDBCFE6FF61EC9B
:1042600015F0E552E552FB0EDBCFE6FFFC0EDBCF8F
:10427000E6FF8BEC15F0E552E552200E0201D65D0B
:1042800003E36550020B09E0FD0EDBCFE9FFFE0EF4
:10429000DBCFEAFFEF6A7AD015D00DEC57F00009BA
:1042A00009E1FD0EDBCFE9FFFE0EDBCFEAFF020ED8
:1042B000EF6E08D0FD0EDBCFE9FFFE0EDBCFEAFF8D
:1042C000010EEF6E0401E851E91102E1000E08D081
:1042D000E8C4E9FFE9C4EAFFEF50800B01E0010EFA
:1042E000000954E1F90EDBCFE6FFFA0EDBCFE6FF63
:1042F000FB0EDBCFE6FFFC0EDBCFE6FFA80EE66E83
:10430000040EE66E680EE66E040EE66EF9EC15F02D
:10431000146E080EE15E1450DF6EDF0424E1040128
:10432000EA51EB1102E1000E08D0EAC4E9FFEBC448
:10433000EAFFEF50800B01E0010E000914E1400E8E
:10434000E66EA80EE66E040EE66E010EE66EE66EF2
:10435000D4EC3DF0146E050EE15E1450F3CFEAF498
:10436000F4CFEBF4DF6A400EE66E680EE66E040EE4
:10437000E66EE66A010EE66ED4EC3DF0146E050EB4
:10438000E15E1450F3CFE8F4F4CFE9F4E552E552DE
:06439000E7CFD9FF120087
:0A439600DACFE4FFE2CFDAFFE9CF4F
:1043A000E4FFEACFE4FFF6CFE4FFF7CFE4FFF5CF79
:1043B000E4FFF3CFE4FFF4CFE4FFFACFE4FF00EE35
:1043C00000F0140EE80403E3EECFE4FFFBD700EEA9
:1043D00014F0080EE80403E3EECFE4FFFBD7E65247
:1043E000FC0ED3140009D36EE5EC54F0E55200EE58
:1043F0001BF0080EE80403E3E5CFEDFFFBD700EE6A
:1044000013F0140EE80403E3E5CFEDFFFBD7E5CF8F
:10441000FAFFE5CFF4FFE5CFF3FFE5CFF5FFE5CFFA
:10442000F7FFE5CFF6FFE5CFEAFFE5CFE9FFE5CF00
:10443000DAFF1100D8CFE4FFE0CFE4FFE46EDACF7B
:10444000E4FFE2CFDAFFE9CFE4FFEACFE4FFF6CF03
:10445000E4FFF7CFE4FFF5CFE4FFF3CFE4FFF4CFC1
:10446000E4FFFACFE4FF00EE00F0140EE80403E3EB
:10447000EECFE4FFFBD700EE14F0080EE80403E3F0
:10448000EECFE4FFFBD7E652FC0ED3140009D36E47
:1044900011EC58F0A6EC54F072EC36F0E55200EE58
:1044A0001BF0080EE80403E3E5CFEDFFFBD700EEB9
:1044B00013F0140EE80403E3E5CFEDFFFBD7E5CFDF
:1044C000FAFFE5CFF4FFE5CFF3FFE5CFF5FFE5CF4A
:1044D000F7FFE5CFF6FFE5CFEAFFE5CFE9FFE5CF50
:1044E000DAFFE550E5CFE0FFE5CFD8FF1000D9CFE8
:1044F000E6FFE1CFD9FF020EE126580EDE6E020E76
:10450000DD6E8F0ED3147009D36E9B8CDFCF14F049
:10451000DF06010EDBCF15F001E2DB0614501510AB
:1045200001E0F4D70F014869496993804D9FD38E0C
:10453000FC0ED3140009D36E020EE15C02E2E16AC4
:10454000E552E16EE552E7CFD9FF1200D9CFE6FF81
:10455000E1CFD9FFFE0EDB5003012C5D03E2FE0E1E
:10456000DBCF2CF3D1EC57F003012B6FE552E7CFF3
:10457000D9FF1200D9CFE6FFE1CFD9FF03012D51BA
:1045800006E02DC3E6FFE2DFE55203012D6BFE0ED0
:10459000DB5019E12BC3E6FFD5EC57F0E552146E62
:1045A00003012C51145C0FE365B665927E82C8EC62
:1045B00057F0FC0ED3140309D36E03000300FC0E66
:1045C000D3140009D36EFE0EDB5008E00301020E87
:1045D0000C6F65B603D0658230EC15F0E552E7CF7D
:1045E000D9FF1200D9CFE6FFE1CFD9FF050EE126B2
:1045F000DF6A010EDB6A020EDB6A030EDB6A040E61
:10460000DB6A65EC0BF0E66AE66A030EE66EE66AC4
:1046100088EC41F0E552E552E552E552DF6AD1EC13
:1046200057F0E76E010EE7CFDBFFD950030FE66EC0
:10463000000EDA20E66ED950020FE66E000EDA2088
:10464000E66E0FEC4AF0E552E552E552E552360EC1
:10465000DF5C65E2030EDB5062E10A0EE66E030EDC
:10466000E66E55EC14F0E552E552010EDBCFE6FFA5
:10467000D5EC57F0E552146E730E145C07E3DF2A95
:10468000D1EC57F0E76E010EE7CFDBFFD950040FF6
:10469000E66E000EDA20E66EE66AE66AE66AD95051
:1046A000030FE66E000EDA20E66ED950020FE66EBA
:1046B000000EDA20E66EAFEC4BF0146E090EE15EF0
:1046C0001450D950030FE66E000EDA20E66ED95072
:1046D000020FE66E000EDA20E66E0FEC4AF0E552AD
:1046E000E552E552E552040EDB5003E1E9EC52F0ED
:1046F0000ED0E66AE66AE66AE66AE66AE66A060EE8
:10470000E66E83EC54F0146E070EE15E1450030E57
:10471000DBCFE6FF2FDFE5520AEC08F098D7E9EC93
:1047200052F00A0EE66E030EE66E55EC14F0E552FA
:10473000E552D950030FE66E000EDA20E66ED9502E
:10474000020FE66E000EDA20E66E0FEC4AF0E5523C
:10475000E552E552E552030EDBCFE6FF0BDFE552F3
:104760000AEC08F0030EDB5003E0F29E00EF00F0CD
:10477000D8D7050EE15C02E2E16AE552E16EE5524E
:10478000E7CFD9FF1200D9CFE6FFE1CFD9FFFE0E68
:10479000DB50040803E1000E03D002D0010E00D06C
:1047A000E552E7CFD9FF1200D9CFE6FFE1CFD9FF1D
:1047B000FE0EDB50040A30E0050A23E0010A07E0A0
:1047C000020A05E0010A03E00301036B36D0FB0E89
:1047D000DB040BE1FD0EDB0404E10301030E036FB8
:1047E00003D00301040E036F0BD0020E03010C5D16
:1047F00003E1050E036F04D00C0502E1060E036F02
:104800001CD0FB0EDB0404E10301020E036F03D096
:104810000301010E036F11D0FB0EDB5003E1030116
:10482000036B0AD0FD0EDB0404E10301030E036FEA
:1048300003D00301040E036F00D0E552E7CFD9FF88
:10484000120003010F5100D01200D9CFE6FFE1CFD3
:10485000D9FFFE0EDBCF0FF3E552E7CFD9FF1200F1
:10486000D9CFE6FFE1CFD9FFE652DF6AFE0EDB507B
:1048700032E1E7DF04082CE0E66AE66A030EE66E42
:10488000FD0EDBCFE6FF88EC41F0E552E552E55244
:10489000E55265EC0BF0040EE66ED7DFE552FC0E38
:1048A000DB5016E1E9EC52F00A0EE66E030EE66EFE
:1048B00055EC14F0E552E5520AEC08F0060E03013F
:1048C0000A5D05E1E66A0CEC4BF0E552FF00ECD71F
:1048D000010E0DD00AD0B5DF040805E14BEC0BF05A
:1048E000E66AB3DFE552000E02D0010E00D0E552B9
:1048F000E552E7CFD9FF1200040E0301145D25E154
:104900000A51010A1FE0070A1DE00E0A1BE0010A16
:1049100019E0030A17E00E0A15E0010A10E0060A82
:104920000BE0010A06E0020A01E00CD0136B0CD088
:104930000BD0030E136F08D0010E136F05D0020EBB
:10494000136F02D0136B00D002D014C313F3030112
:10495000135100D01200D9CFE6FFE1CFD9FFFE0EF0
:10496000DBCF14F3040E0301145D00E1E552E7CF41
:10497000D9FF1200D9CFE6FFE1CFD9FFFE0EDBCF82
:1049800017F30A0E0301175D05E10A0EE66E5DDFFF
:10499000E55209D01751F00806E20A0E176FFE0E15
:1049A000DB500F0B296FE552E7CFD9FF1200D9CFAB
:1049B000E6FFE1CFD9FF030EE126DF6A010EDB6AD5
:1049C000D1EC57F0E76E020EE7CFDBFFE66AE66A4E
:1049D000030EE66EE66A88EC41F0E552E552E552D8
:1049E000E55265EC0BF00A0EE66E030EE66E55EC32
:1049F00014F0E552E5520AEC08F0060E03010A5DD8
:104A000002E10BD009D0020EDBCFE6FFD5EC57F068
:104A1000E552140801E201D0E6D7E66A0CEC4BF04F
:104A2000E552030EE15C02E2E16AE552E16EE55215
:104A3000E7CFD9FF1200D9CFE6FFE1CFD9FFFE0EB5
:104A4000DB50020812E158DF01080FE0FADEE66EE3
:104A50009ADEE552010808E1D1EC57F00301156F29
:104A600083EC0AF00301166B67D046DF010816E1FC
:104A700015C3E6FFD5EC57F0E552146E730E145CC7
:104A800006E30301162BD1EC57F00301156F0C0E52
:104A90000301165D02E39DEC0AF04ED0FE0EDB50E2
:104AA00003080CE129DF020803E026DF030805E123
:104AB000030EE66EB7EC0AF0E5523ED0FE0EDB5078
:104AC00004080CE119DF020803E016DF030805E122
:104AD000040EE66EB7EC0AF0E5522ED0FE0EDB5067
:104AE00005080BE1AEDEE66E4EDEE552010804E19C
:104AF000E66AB7EC0AF0E5521FD0FE0EDB5006085E
:104B00000CE19FDEE66E3FDEE552010805E1010E95
:104B1000E66EB7EC0AF0E5520FD0FE0EDB50070848
:104B20000BE18FDEE66E2FDEE552010805E1020E95
:104B3000E66EB7EC0AF0E552E552E7CFD9FF120076
:104B4000D9CFE6FFE1CFD9FF020EE126DF6A010EE1
:104B5000DB6AF80EDBCFE9FFF90EDBCFEAFFEF6A85
:104B6000FA0EDBCFE9FFFB0EDBCFEAFFEF6AFD0EAB
:104B7000DBCFE9FFFE0EDBCFEAFFEF50FE0839E0A6
:104B8000FD0EDBCFE9FFFE0EDBCFEAFFEF50FD08A5
:104B900030E0FD0EDBCFE9FFFE0EDBCFEAFFEF508A
:104BA000FC0827E0DF6AFC0EDB50DF5C1CE2200E15
:104BB000DF5C19E2DF50E76EFD0EDBCFE9FFFE0E92
:104BC000DBCFEAFFE750E926000EEA22EF50E66E5F
:104BD000DF50EA6AE00FE96E000EEA22E552E75084
:104BE000EF6EDF2AE0D7DFCF2AF3DE52010EDD6E53
:104BF00084D0FD0EDBCFE9FFFE0EDBCFEAFFEF50E6
:104C0000FE0829E1DF6A200EDF5C19E2DF50EA6A64
:104C1000800FE96E000EEA22EF50E66EDF50E76E7D
:104C2000FA0EDBCFE9FFFB0EDBCFEAFFE750E92608
:104C3000000EEA22E552E750EF6EDF2AE4D7F80EC5
:104C4000DBCFE9FFF90EDBCFEAFFDFCFEFFFDE526C
:104C5000010EDD6E52D0FD0EDBCFE9FFFE0EDBCF85
:104C6000EAFFEF50FD0829E1DF6A200EDF5C19E260
:104C7000DF50EA6AC00FE96E000EEA22EF50E66EDE
:104C8000DF50E76EFA0EDBCFE9FFFB0EDBCFEAFF6A
:104C9000E750E926000EEA22E552E750EF6EDF2AE0
:104CA000E4D7F80EDBCFE9FFF90EDBCFEAFFDFCF69
:104CB000EFFFDE52010EDD6E20D0FD0EDBCFE9FFEF
:104CC000FE0EDBCFEAFFEF50FC0817E1FA0EDBCF58
:104CD000E6FFFB0EDBCFE6FF98EC43F0E552E55232
:104CE000E66EF80EDBCFE9FFF90EDBCFEAFFE55207
:104CF000E750EF6EDE52010EDD6E010EDB50146EDA
:104D0000020EE15C03E200D0E16AE552E16E14506C
:104D1000E552E7CFD9FF1200D9CFE6FFE1CFD9FFA7
:104D2000E652DF6ADF6AFC0EDB50DF5C1DE2030146
:104D30002A51DF5C19E2DF50EA6AE00FE96E000EEB
:104D4000EA22EF50E66EDF50E76EFD0EDBCFE9FFA3
:104D5000FE0EDBCFEAFFE750E926000EEA22E5521D
:104D6000E750EF6EDF2ADFD7FA0EDBCFE9FFFB0E4D
:104D7000DBCFEAFF2AC3EFFF03012A6BE552E552BE
:104D8000E7CFD9FF1200D9CFE6FFE1CFD9FF020E5E
:104D9000E126DF6A010EDB6AFC0EDB5000083EE212
:104DA000200EF36EFC0EDBCFF4FFF350F45C36E222
:104DB0000301275133E1010EDB6AFC0EDB50F36E79
:104DC000010EDBCFF4FFF350F45C1CE2010EDB506C
:104DD000E76EFD0EDBCFE9FFFE0EDBCFEAFFE7500B
:104DE000E926000EEA22EF50E66E010EDB50EA6A79
:104DF000A00FE96E000EEA22E552E750EF6E010EB9
:104E0000DB2ADBD7FC0EDBCF26F30301010E276F75
:104E1000D1EC57F00301286F010EDF6EDF50146EE6
:104E2000020EE15C03E200D0E16AE552E16E14504B
:104E3000E552E7CFD9FF1200D9CFE6FFE1CFD9FF86
:104E4000FC0EDBCFE6FFFD0EDBCFE6FFFE0EDBCF79
:104E5000E6FF05EC0BF0E552E552E552000905E1ED
:104E60000301266B276B010E02D0000E00D0E55225
:104E7000E7CFD9FF1200D9CFE6FFE1CFD9FF040E6B
:104E8000E126030EDF6EDE52330EDD6E010EF36E91
:104E9000020EF3CFDBFF820EF36E030EF3CFDBFFC8
:104EA00028C3E6FFD5EC57F0E552140806E20301EB
:104EB000275103E0266B276BE3D00301295101E062
:104EC000DFD02651020801E3DBD0270501E0D8D06E
:104ED000020E0001A05D01E0D3D0606BA20517E1D6
:104EE000FF0EA35D14E1A1C061F0030E626FA3C0C9
:104EF00063F0646F020E656F060EE66E600EE66E7E
:104F0000000EE66E99DFE552E552E552B9D0A205F2
:104F100016E1A30514E10301010E296FA1C061F0A0
:104F20000001626FA3C063F0040EE66E600EE66ED1
:104F3000000EE66E81DFE552E552E552A1D0A205F2
:104F400018E1020EA35D15E10301020E296FA1C055
:104F500061F00001010E626FA3C063F0040EE66E03
:104F6000600EE66E000EE66E67DFE552E552E55232
:104F700087D0A20518E1030EA35D15E10301030E1E
:104F8000296FA1C061F00001010E626FA3C063F040
:104F9000040EE66E600EE66E000EE66E4DDFE55224
:104FA000E552E5526DD0A20518E1060EA35D15E1AC
:104FB0000301040E296FA1C061F00001010E626FB0
:104FC000A3C063F0040EE66E600EE66E000EE66EA1
:104FD00033DFE552E552E55253D0A20541E10F0E11
:104FE000A35D3EE1A1C061F0010E626FA3C063F05A
:104FF0000301240512E1040EE66E600EE66E000E5B
:10500000E66E1ADFE552E552E5520301010E246F08
:10501000D1EC57F00301256F22D0FE0EDBCFE6FF67
:10502000040EE66ED9CFE6FFDACFE6FF26EC41F0BC
:10503000E552E552E552E552010811E1040EE66E33
:10504000600EE66E000EE66EF7DEE552E552E552C2
:105050000301010E246FD1EC57F00301256F10D02E
:10506000A1C061F0010E626FA3C063F0040EE66E92
:10507000600EE66E000EE66EDFDEE552E552E552AA
:10508000040EE15C02E2E16AE552E16EE552E7CF2F
:10509000D9FF1200D9CFE6FFE1CFD9FF220EE126DA
:1050A000DF6A010EDB6A03012E515BE1D9CFE6FF17
:1050B000DACFE6FF200EE66ED950020FE66E000E44
:1050C000DA20E66EBCEC0FF0146E050EE15E1450B3
:1050D000DF5011E1D9CFE6FFDACFE6FF200EE66E12
:1050E000D950020FE66E000EDA20E66E15DE146E61
:1050F000050EE15E1450DF50020832E2200EDF5C44
:105100002FE2010EDB6ADF50F36E010EDBCFF4FFFE
:10511000F350F45C1CE2D950020F146EDACF15F094
:10512000010EDB500F011424E96E000E1520EA6E0B
:10513000EF50E66E010EDB50EA6AC00FE96E000E1A
:10514000EA22E552E750EF6E010EDB2ADCD7DFCF13
:105150002FF30301010E2E6FD1EC57F00301306FD6
:1051600047D030C3E6FFD5EC57F0E552140805E20E
:1051700003012E5102E02E6B3BD003012E0538E1D6
:10518000020E0001C05D0FE12FC3E6FFC00EE66E08
:10519000000EE66EF8DDE552E552E552010802E147
:1051A00003012E6B25D0C00510E12FC3E6FFC00E12
:1051B000E66E000EE66EB3EC14F0E552E552E552F1
:1051C000010802E103012E6B13D0FE0EDBCFE6FFD8
:1051D0002FC3E6FFC00EE66E000EE66E26EC41F031
:1051E000E552E552E552E552010802E103012E6B5A
:1051F000FE0EDBCFE6FF3FDEE552220EE15C02E26F
:10520000E16AE552E16EE552E7CFD9FF12000301F2
:10521000296B1200D9CFE6FFE1CFD9FFFD0EDBCF1E
:10522000E6FF38DFE5520A0E0301175D1AE021ECB4
:1052300024F00301175D14E0E66AE66A17C3E6FF8F
:10524000FD0EDBCFE6FF88EC41F0E552E552E5527A
:10525000E552010805E117C3E6FF25EC24F0E5520D
:1052600039D1FE0EDB041DE121EC24F0010819E028
:10527000E66AE66A040EE66EFD0EDBCFE6FF88EC1A
:1052800041F0E552E552E552E552010809E1010E0F
:10529000E66E25EC24F0E552D1EC57F00301106FD7
:1052A00019D121EC24F0010822E110C3E6FFD5EC6E
:1052B00057F0E552146E156AD890155004E6E10EC9
:1052C000145C000E155812E3E66AE66A050EE66EF7
:1052D00001C3E6FF88EC41F0E552E552E552E552A4
:1052E000010804E1E66A25EC24F0E552F3D0FE0E55
:1052F000DB50030818E17CEC24F0020813E07CEC9E
:1053000024F003080FE0E66AE66A060EE66EFD0E7C
:10531000DBCFE6FF88EC41F0E552E552E552E5527D
:105320000301222BD7D0FE0EDB50040818E17CECE1
:1053300024F0020813E07CEC24F003080FE0E66A96
:10534000E66A070EE66EFD0EDBCFE6FF88EC41F065
:10535000E552E552E552E55203012207BBD0020EA9
:105360000301295D11E1E66AE66A060EE66EFD0EAE
:10537000DBCFE6FF88EC41F0E552E552E552E5521D
:1053800046DF0301222BA6D0030E295D11E1E66A58
:10539000E66A070EE66EFD0EDBCFE6FF88EC41F015
:1053A000E552E552E552E55232DF0301220792D081
:1053B000FE0EDB50080802E0290511E1E66AE66A04
:1053C000080EE66EFD0EDBCFE6FF88EC41F0E552FD
:1053D000E552E552E5521BDF0301232B7BD0FE0E85
:1053E000DB50090803E0040E295D0FE1E66AE66A76
:1053F000090EE66EFD0EDBCFE6FF88EC41F0E552CC
:10540000E552E552E55203DF65D07CEC24F002085A
:1054100020E121EC24F002081CE0E66AE66A020EB4
:10542000E66EFD0EDBCFE6FF88EC41F0E552E5527B
:10543000E552E55201080CE1080E03010911E66E80
:105440000CEC4BF0E552020EE66E25EC24F0E55232
:1054500041D07CEC24F003081EE121EC24F0030889
:105460001AE0E66AE66A010EE66EFD0EDBCFE6FFA5
:1054700088EC41F0E552E552E552E55201080AE1B7
:1054800009C3E6FF0CEC4BF0E552030EE66E25EC8B
:1054900024F0E5521FD07CEC24F000091BE121EC44
:1054A00024F0030804E021EC24F0020813E1E66A8A
:1054B000E66A030EE66EFD0EDBCFE6FF88EC41F0F8
:1054C000E552E552E552E552010804E1E66A25ECB1
:1054D00024F0E552E552E7CFD9FF1200D9CFE6FF1D
:1054E000E1CFD9FFE652010EDF6EFC0EDB0404E1D2
:1054F0000301020E0C6F25D003010C5102E1DF6A9B
:1055000020D0FD0EDBCF14F0FE0EDBCF15F0790EB0
:10551000145C020E155802E20C6B13D00C0501E16D
:1055200010D0FD0EDBCF14F0FE0EDBCF15F0B30E66
:10553000145C020E155803E2010E0C6F02D0020E2D
:105540000C6FDF5000D0E552E552E7CFD9FF1200D3
:10555000D9CFE6FFE1CFD9FF050EE126DF6ADE52A3
:10556000030EDD6E440EF36E020EF3CFDBFF010E71
:10557000F36E030EF3CFDBFF830EF36E040EF3CF57
:10558000DBFFF80EDBCFE6FFF90EDBCFE6FFFA0E0E
:10559000DBCFE6FFA3DFE552E552E552F80EDBCFA5
:1055A000E6FFFB0EDBCFE6FFFC0EDBCFE6FF30ECC9
:1055B00024F0E552E552E55200091FE103010C51C8
:1055C00003E1F2EC22F019D0FE0EDBCFE6FF1BEC7C
:1055D00025F0E552FD0EDBCFE6FFFB0EDBCFE6FF4D
:1055E000FE0EDBCFE6FF16DEE552E552E552F80E81
:1055F000DBCFE6FFBAEC22F0E552F80EDBCFE6FF98
:105600000CC3E6FFFD0EDBCFE6FF21EC24F0E66ED7
:10561000D4EC23F0E552E552E552E55203012405AE
:105620001CE125C3E6FFD5EC57F0E552320815E240
:10563000FB0EDBCFE6FF040EE66ED950010FE66EDF
:10564000000EDA20E66E26EC41F0E552E552E55216
:10565000E552010802E10301246B020E0301035D20
:105660003FE003053DE0120539E1240537E1200E56
:10567000E66E800EE66E000EE66EFB0EDBCFE6FFFA
:105680002AEC43F0E552E552E552E552010826E1E5
:105690000001820509E1845103011B5D04E0010E54
:1056A000DF6E84C01BF30BD0020E825D08E18451D3
:1056B00003011C5D04E0010EDF6E84C01CF3DF04F7
:1056C0000DE1200EE66E800EE66E000EE66E05EC35
:1056D0000BF0E552E552E552000900E00301126BC0
:1056E0001AC3E6FF1AC3E6FF12C3E6FF02C3E6FFD2
:1056F00001C3E6FF7CEC24F0E66E03C3E6FF83EC17
:1057000054F0146E070EE15E1450050EE15C02E2E7
:10571000E16AE552E16EE552E7CFD9FF1200D9CF39
:10572000E6FFE1CFD9FF060EE126DF6A020EDB6A53
:10573000030EDB6A040EDB6A050EDB6AD08EF29E76
:10574000F29CC09077EC22F0BBEC50F0CFEC57F01D
:10575000D8EC52F03BEC4CF007EC08F026EC55F09E
:1057600030EC15F0050EE66E030EE66E040EE66EE6
:10577000030EE66E010EE66E27EC4BF0146E050E7E
:10578000E15E1450F28EF28CD1EC57F0DF6EDFCF79
:10579000E6FFD5EC57F0E552146E030E145C03E2FD
:1057A0000AEC08F0F4D709C3E6FF0CEC4BF0E55225
:1057B000D1EC57F0DF6EDFCFE6FFD5EC57F0E552C6
:1057C000146E0D0E145C03E20AEC08F0F4D7D95005
:1057D000040FE66E000EDA20E66ED950020FE66E78
:1057E000000EDA20E66E5AEC55F0E552E552E5522D
:1057F000E552E76E010EE7CFDBFFDB5019E1F00E5B
:10580000E66EAA0EE66E000EE66EE66A040EDBCFCA
:10581000E6FF050EDBCFE6FF020EDBCFE6FF030E51
:10582000DBCFE6FFFFEC0FF0146E080EE15E1450C4
:1058300051EC40F06BEC57F003010A5125E10A0EE0
:10584000E66E030EE66E55EC14F0E552E5520AECF6
:1058500008F0010EE66E030EE66E020EE66E030E13
:10586000E66E000EE66E030EE66E23EC21F0146E7B
:10587000060EE15E14500D0EE66E030EE66E80EC31
:1058800057F0E552E552D8D70A0EE66E030EE66EE3
:1058900055EC14F0E552E5520AEC08F0010EE66E04
:1058A000030EE66E020EE66E030EE66E000EE66E68
:1058B000030EE66E23EC21F0146E060EE15E14502A
:1058C000080EE66E030EE66E01C3E6FF07C3E6FFB1
:1058D00006C3E6FF050EE66E030EE66E040EE66EE8
:1058E000030EE66EAFEC4BF0146E090EE15E145041
:1058F0000D0EE66E030EE66E80EC57F0E552E552B3
:105900001AC3E6FF1A0EE66E030EE66E190EE66E79
:10591000030EE66E1A0EE66E030EE66E180EE66EC7
:10592000030EE66EB4EC4CF0146E090EE15E1450FA
:105930001AC3E6FF120EE66E030EE66E01C3E6FF23
:105940001AC3E6FF1AC3E6FF1AC3E6FFC2EC43F030
:10595000146E070EE15E145002C3E6FF05C3E6FFB6
:105960000DC3E6FF0EC3E6FF01C3E6FF08C3E6FF73
:1059700004C3E6FF18C3E6FFEBDD146E080EE15E1C
:1059800014500301195115E002C3E6FF05C3E6FFF9
:105990000DC3E6FF0EC3E6FF01C3E6FF08C3E6FF43
:1059A00004C3E6FF19C3E6FFD3DD146E080EE15E03
:1059B00014506AD7060EE15C02E2E16AE552E16E3C
:0859C000E552E7CFD9FF120008
:0859C800D9CFE6FFE1CFD9FFC2
:1059D000020EE126FE0EDB50DF6E010EDB6AFB0ECF
:1059E000DB50F36E010EDBCFF4FFF350F45C12E2F8
:1059F000010EDB50E76EFC0EDBCFE9FFFD0EDBCFC7
:105A0000EAFFE750E926000EEA22EF50DF26010EFA
:105A1000DB2AE5D7DF50146E020EE15C03E200D012
:105A2000E16AE552E16E1450E552E7CFD9FF12006A
:105A3000D9CFE6FFE1CFD9FF030EE126F90EDBCF88
:105A4000E9FFFA0EDBCFEAFFFE0EDBCFEFFF010E20
:105A5000DB6AFB0EDB50F36E010EDBCFF4FFF3507D
:105A6000F45C2BE2000EE66EE66A010EE66EDBCF1A
:105A7000E6FFD9CFE6FFDACFE6FFFC0EDBCFE6FF8D
:105A8000FD0EDBCFE6FF75EC46F0146E080EE15E0E
:105A90001450E76E020EE7CFDBFFDB5003E0020E8F
:105AA000DB500DD0F90EDBCFE9FFFA0EDBCFEAFFBA
:105AB000DF50EF26010EDB2ACCD7000E00D0146E8B
:105AC000030EE15C02E2E16AE552E16E1450E55238
:105AD000E7CFD9FF1200D9CFE6FFE1CFD9FF050EFE
:105AE000E126D950020FE66E000EDA20E66E020EB5
:105AF000E66EE66AD950030FE66E000EDA20E66E17
:105B0000FD0EDBCFE9FFFE0EDBCFEAFF080EE92634
:105B1000000EEA22E9CF14F0EACF15F014C0E6FF38
:105B200015C0E6FF75EC46F0166E080EE15E1650E5
:105B3000DF6EDF5002E0DF5036D0020EDB5002088D
:105B400002E0030E30D0040EDB50E76E010EE7CF0B
:105B5000DBFFDB5002E1030E26D0000EE66EE66AA4
:105B6000010EDB50FE0FE66EFD0EDBCFE9FFFE0EF1
:105B7000DBCFEAFF080EE926000EEA22E9CF14F097
:105B8000EACF15F014C0E6FF15C0E6FFFFEC45F0C4
:105B9000166E050EE15E1650DF6EDF5002E0DF503C
:105BA00002D0000E00D0146E050EE15C02E2E16A44
:105BB000E552E16E1450E552E7CFD9FF1200D9CF7C
:105BC000E6FFE1CFD9FF090EE126DF6AFD0EDBCF4C
:105BD000E9FFFE0EDBCFEAFF020EE926000EEA2205
:105BE000EF5004E0FC0EDB5001E122D1D950030F4D
:105BF000E66E000EDA20E66E020EE66EE66AD95018
:105C0000070FE66E000EDA20E66EFD0EDBCFE9FF31
:105C1000FE0EDBCFEAFF080EE926000EEA22E9CFEE
:105C200014F0EACF15F014C0E6FF15C0E6FF75ECDE
:105C300046F0166E080EE15E1650DF6EDF5002E091
:105C4000DF5074D1030EDB5001E1F2D0080EDB50BF
:105C5000E76E010EE7CFDBFFD950020FE66E000EB4
:105C6000DA20E66EFD0EDBCFE9FFFE0EDBCFEAFFAA
:105C70000D0EE926000EEA22EECFE6FFEFCFE6FF9B
:105C8000C7EC44F0E552E552E552E552DF6EDF50D5
:105C900002E0DF504BD1010EDB50F36E020EDBCF82
:105CA000F4FFF350F45C01E2C3D0000EE66EE66A46
:105CB000010EDB50FE0FE66EFD0EDBCFE9FFFE0EA0
:105CC000DBCFEAFF080EE926000EEA22E9CF14F046
:105CD000EACF15F014C0E6FF15C0E6FFFD0EDBCFDE
:105CE000E9FFFE0EDBCFEAFF0D0EE926000EEA22E9
:105CF000EECFE6FFEFCFE6FF7AEC45F0166E070E2B
:105D0000E15E1650DF6EDF5002E0DF500FD1FD0E76
:105D1000DBCFE9FFFE0EDBCFEAFFEE52060EEFCF40
:105D2000DBFF000EE66EE66A010EE66ED950060F46
:105D3000E66E000EDA20E66EFD0EDBCFE9FFFE0E0A
:105D4000DBCFEAFF0D0EE926000EEA22EECFE6FFDA
:105D5000EFCFE6FF4BEC48F0146E070EE15E1450F7
:105D6000DF6EDF5002E0DF50E1D0D950050FE66E64
:105D7000000EDA20E66E010EDB50FE0FE66EFD0E21
:105D8000DBCFE9FFFE0EDBCFEAFF080EE926000EAF
:105D9000EA22E9CF14F0EACF15F014C0E6FF15C0EF
:105DA000E6FF060EDBCFE6FF43DE166E060EE15E73
:105DB0001650DF6EDF5002E0DF50B8D0000EE66E06
:105DC000E66A010EE66ED950050FE66E000EDA2087
:105DD000E66EFD0EDBCFE9FFFE0EDBCFEAFF0D0E18
:105DE000E926000EEA22EECFE6FFEFCFE6FF4BEC0E
:105DF00048F0146E070EE15E1450DF6EDF5002E0D3
:105E0000DF5094D0FD0EDBCFE9FFFE0EDBCFEAFFC3
:105E1000EE52EF50E66EFD0EDBCFE9FFFE0EDBCF5C
:105E2000EAFF020EE926000EEA22E552E750EF6E85
:105E3000D950040FE66E000EDA20E66EFD0EDBCFC1
:105E4000E9FFFE0EDBCFEAFF0D0EE926000EEA2287
:105E5000EECFE6FFEFCFE6FF1DEC45F0E552E55251
:105E6000E552E552DF6EDF5002E0DF505FD0040EF6
:105E7000DB502EE0FD0EDBCFE9FFFE0EDBCFEAFFAD
:105E8000040EE926000EEA22EE50ED1021E0FD0E90
:105E9000DBCFE9FFFE0EDBCFEAFF040EE926000EA2
:105EA000EA22EECF14F0EFCF15F0040EDBCFE6FFC1
:105EB000FD0EDBCFE6FFFE0EDBCFE6FF04D015C004
:105EC000FAFF1450F96EFBDFE552E552E552DF6E42
:105ED000D950FA0FE96EFF0EDA20EA6EEE50ED109F
:105EE00023E0FA0EDBCFE6FFFB0EDBCFE6FFFD0E75
:105EF000DBCFE9FFFE0EDBCFEAFF080EE926000E3E
:105F0000EA22E9CF14F0EACF15F014C0E6FF15C07D
:105F1000E6FF1DEC45F0E552E552E552E552DF6E35
:105F2000DF5002E0DF5002D0DF5000D0146E090EC7
:105F3000E15C02E2E16AE552E16E1450E552E7CF1E
:105F4000D9FF1200D9CFE6FFE1CFD9FF080EE12635
:105F5000D950070FE66E000EDA20E66EFD0EDBCF9D
:105F6000E9FFFE0EDBCFEAFF0D0EE926000EEA2266
:105F7000EECFE6FFEFCFE6FFC7EC44F0E552E55287
:105F8000E552E552E76E040EE7CFDBFFDB5003E09E
:105F9000040EDB5069D0040EF36E070EDBCFF4FF66
:105FA000F350F45C02E2020E5FD0FC0EDB50DF6EB9
:105FB000DE52040EDD6EFB0EDB50E76E020EE7CF05
:105FC000DBFF030EE66ED9CFE6FFDACFE6FFE66A27
:105FD000FBDCE552E552E552E552E76E050EE7CFF0
:105FE000DBFFDB50E76E030EE7CFDBFFD950060F78
:105FF000E66E000EDA20E66E040EE66ED9CFE6FFFE
:10600000DACFE6FFFD0EDBCFE9FFFE0EDBCFEAFFC6
:106010000D0EE926000EEA22EECFE6FFEFCFE6FFF7
:106020004BEC48F0146E070EE15E1450E76E040E60
:10603000E7CFDBFFDB5003E0040EDB5015D0000E92
:10604000E66EE66AE66AFD0EDBCFE6FFFE0EDBCF0C
:10605000E6FFB5DD146E050EE15E1450E76E040E2A
:10606000E7CFDBFFDB5000D0146E080EE15C02E2EC
:10607000E16AE552E16E1450E552E7CFD9FF120014
:10608000D9CFE6FFE1CFD9FF040EE126D950F70FB3
:10609000E96EFF0EDA20EA6EEE50ED1007E0F70E23
:1060A000DBCFE9FFF80EDBCFEAFFEF6AD950010F33
:1060B000E66E000EDA20E66EFD0EDBCFE9FFFE0E87
:1060C000DBCFEAFF080EE926000EEA22E9CF14F042
:1060D000EACF15F014C0E6FF15C0E6FFC7EC44F0A8
:1060E000E552E552E552E552DF6EDF5002E0DF5047
:1060F000A0D0F90EDB50020FF36E010EDBCFF4FFE0
:10610000F350F45C02E2000E94D0FC0EDB50E76E1C
:10611000020EE7CFDBFFF90EDB50040FE76E030E34
:10612000E7CFDBFFF70EDBCFE6FFF80EDBCFE6FFB6
:10613000020EE66ED950020FE66E000EDA20E66E11
:10614000FD0EDBCFE9FFFE0EDBCFEAFF080EE926EE
:10615000000EEA22E9CF14F0EACF15F014C0E6FFF2
:1061600015C0E6FF4BEC48F0166E070EE15E1650C8
:10617000DF6EDF5002E0DF505CD0F70EDBCFE6FFD2
:10618000F80EDBCFE6FFF90EDBCFE6FFFA0EDBCF32
:10619000E6FFFB0EDBCFE6FFFD0EDBCFE9FFFE0ED9
:1061A000DBCFEAFF080EE926000EEA22E9CF14F061
:1061B000EACF15F014C0E6FF15C0E6FF4BEC48F03F
:1061C000166E070EE15E1650DF6EDF5002E0DF5004
:1061D00030D0FD0EDBCFE9FFFE0EDBCFEAFF020E73
:1061E000E926000EEA22EF5010E1000EE66EE66AA4
:1061F000E66AFD0EDBCFE6FFFE0EDBCFE6FFDFDC5F
:10620000146E050EE15E1450DF6ED950F70FE96E83
:10621000FF0EDA20EA6EEE50ED1009E0F70EDBCF4C
:10622000E9FFF80EDBCFEAFFF90EDBCFEFFFDF501F
:1062300000D0146E040EE15C02E2E16AE552E16E08
:106240001450E552E7CFD9FF1200D9CFE6FFE1CFD6
:10625000D9FFE652FB0EDBCFE6FFFC0EDBCFE6FFFD
:10626000010EE66EFD0EDBCFE6FFFE0EDBCFE6FF96
:10627000A6DC146E050EE15E1450DF6EDF5000D018
:10628000E552E552E7CFD9FF1200D9CFE6FFE1CFC3
:10629000D9FFE6520F0EE66EE66AE66AFD0EDBCF28
:1062A000E6FFFE0EDBCFE6FF91EC58F0146E050E14
:1062B000E15E1450FD0EDBCFE9FFFE0EDBCFEAFFFF
:1062C000060EE926000EEA22FB0EDBCFEEFFFC0EE7
:1062D000DBCFEDFFFD0EDBCFE9FFFE0EDBCFEAFFEC
:1062E0000D0EE926000EEA22F60EDBCFEEFFF70ECA
:1062F000DBCFEDFFF80EDBCFE6FFF90EDBCFE6FFDD
:10630000FA0EDBCFE6FFFD0EDBCFE9FFFE0EDBCFA3
:10631000EAFF080EE926000EEA22E9CF14F0EACFE0
:1063200015F014C0E6FF15C0E6FF7AEC44F0166ED7
:10633000050EE15E1650DF6EDF5002E0DF5044D004
:10634000FD0EDBCFE9FFFE0EDBCFEAFF040EE926F0
:10635000000EEA22F40EDBCFEEFFF50EDBCFEDFFF1
:10636000FD0EDBCFE9FFFE0EDBCFEAFFEF6AFD0E8D
:10637000DBCFE9FFFE0EDBCFEAFF020EE926000EBF
:10638000EA22EF6AFD0EDBCFE9FFFE0EDBCFEAFF6C
:10639000EE52EF6A000EE66EE66AE66AE66EE66ABE
:1063A000040EE66EFD0EDBCFE6FFFE0EDBCFE6FF52
:1063B00067DE146E080EE15E1450DF6EDF5002E0FF
:1063C000DF5002D0000E00D0E552E552E7CFD9FFF2
:1063D0001200D9CFE6FFE1CFD9FFE652F80EDBCFAE
:1063E000E6FFF90EDBCFE6FFFA0EDBCFE6FFFB0E92
:1063F000DBCFE6FFFC0EDBCFE6FFFD0EDBCFE9FFD8
:10640000FE0EDBCFEAFF0D0EE926000EEA22EECFEC
:10641000E6FFEFCFE6FFD4EC47F0146E070EE15E27
:106420001450DF6EDF5002E0DF5002D0000E00D0CB
:10643000E552E552E7CFD9FF1200D9CFE6FFE1CF11
:10644000D9FFE652F80EDBCFE6FFF90EDBCFE6FF11
:10645000FA0EDBCFE6FFFB0EDBCFE6FFFC0EDBCF59
:10646000E6FF010EE66EFD0EDBCFE6FFFE0EDBCF94
:10647000E6FF06DE146E080EE15E1450DF6EDF509C
:1064800002E0DF5002D0000E00D0E552E552E7CF27
:10649000D9FF1200D9CFE6FFE1CFD9FF020EE126E6
:1064A000D9CFE6FFDACFE6FFFA0EDBCFE6FFFB0E31
:1064B000DBCFE6FFFC0EDBCFE6FFFD0EDBCFE9FF17
:1064C000FE0EDBCFEAFF060EE926000EEA22EECF33
:1064D000E6FFEFCFE6FF4BEC48F0146E070EE15EEF
:1064E0001450E76E010EE7CFDBFFDB5003E0010E37
:1064F000DB5008D0FA0EDB50DF5C02E2020E02D065
:10650000000E00D0146E020EE15C02E2E16AE55278
:10651000E16E1450E552E7CFD9FF1200D9CFE6FF64
:10652000E1CFD9FF0E0EE126090EDB6AD950F80F34
:10653000E96EFF0EDA20EA6EEE50ED1007E0F80E7D
:10654000DBCFE9FFF90EDBCFEAFFEF6AD950070F87
:10655000E66E000EDA20E66E040EE66EE66AD950AC
:106560000A0FE66E000EDA20E66EFD0EDBCFE9FFC5
:10657000FE0EDBCFEAFF060EE926000EEA22EECF82
:10658000E6FFEFCFE6FF75EC46F0146E080EE15E15
:106590001450DF6EDF5002E0DF50E9D2020EF36EDE
:1065A000070EDBCFF4FFF350F45C02E2000EDFD203
:1065B0000A0EDB50E76E040EE7CFDBFF0B0EDB505D
:1065C000E76E010EE7CFDBFF040EDB50040821E38A
:1065D000010EDBCF14F0FD0EDBCFE9FFFE0EDBCFAB
:1065E000EAFF060EE926000EEA22EE50EFCFEAFFA0
:1065F000E96E040EE926000EEA22EF04D880145456
:1066000008E3040EF36E010EDBCFF4FFF350F45CED
:106610001AE2000EE66EE66A010EE66EFD0EDBCFB4
:10662000E9FFFE0EDBCFEAFF060EE926000EEA22A6
:10663000EECFE6FFEFCFE6FFFFEC45F0146E050E60
:10664000E15E145083D7D950080FE66E000EDA20B1
:10665000E66EFD0EDBCFE9FFFE0EDBCFEAFF060E96
:10666000E926000EEA22EECFE6FFEFCFE6FF1DECB3
:1066700045F0E552E552E552E552DF6EDF5002E0AB
:10668000DF5075D2010EDB50F36E080EDBCFF4FF46
:10669000F350F45C02E2000E6AD2010EDB50FC0FF4
:1066A000E76E020EE7CFDBFFDB50F36EF70EDBCFBA
:1066B000F4FFF350F45C1AE2000EE66EE66A010E97
:1066C000E66EFD0EDBCFE9FFFE0EDBCFEAFF060E26
:1066D000E926000EEA22EECFE6FFEFCFE6FFFFEC61
:1066E00045F0146E050EE15E145030D7020EDB50FB
:1066F000F36EFA0EDBCFF4FFF350F45C02E2000E0F
:1067000036D2000EE66EE66A020EDBCFE6FFE66EDC
:10671000FB0EDBCFE6FFFC0EDBCFE6FFFD0EDBCF93
:10672000E9FFFE0EDBCFEAFF060EE926000EEA22A5
:10673000EECFE6FFEFCFE6FF75EC46F0146E080EE5
:10674000E15E1450DF6EDF5002E0DF5010D2000E29
:10675000E66EE66A010EE66E020EDB50020FE66E92
:10676000D950030FE66E000EDA20E66EFD0EDBCF89
:10677000E9FFFE0EDBCFEAFF060EE926000EEA2255
:10678000EECFE6FFEFCFE6FF75EC46F0146E080E95
:10679000E15E1450DF6EDF5002E0DF50E8D1000E02
:1067A000E66EE66A010EE66E020EDB50020F010F86
:1067B000E66ED950060FE66E000EDA20E66EFD0E8C
:1067C000DBCFE9FFFE0EDBCFEAFF060EE926000E67
:1067D000EA22EECFE6FFEFCFE6FF75EC46F0146E4F
:1067E000080EE15E1450DF6EDF5002E0DF50BFD1D3
:1067F000020EE66ED9500A0FE66E000EDA20E66E43
:10680000E66AE4EC2CF0E552E552E552E552E76E1B
:10681000050EE7CFDBFF020EDBCFE6FFFB0EDBCF83
:10682000E6FFFC0EDBCFE6FF050EDBCFE6FFE4EC78
:106830002CF0E552E552E552E552E76E050EE7CF42
:10684000DBFF010EE66ED950030FE66E000EDA2074
:10685000E66E050EDBCFE6FFE4EC2CF0E552E552E8
:10686000E552E552E76E050EE7CFDBFF060EDB5083
:10687000F36E050EDB50F35C1AE0000EE66EE66A7E
:10688000010EE66EFD0EDBCFE9FFFE0EDBCFEAFF69
:10689000060EE926000EEA22EECFE6FFEFCFE6FF76
:1068A000FFEC45F0146E050EE15E14504FD6000E5D
:1068B000E66EE66A010EDBCFE6FFFD0EDBCFE9FFF9
:1068C000FE0EDBCFEAFF060EE926000EEA22EECF2F
:1068D000E6FFEFCFE6FFFFEC45F0146E050EE15E3C
:1068E0001450DF6EDF5002E0DF5041D1040EDB5068
:1068F000010A01E1B8D0030A1FE0060A01E022D133
:10690000FD0EDBCFE9FFFE0EDBCFEAFFEF6AE66AA2
:10691000020EE66EFD0EDBCFE6FFFE0EDBCFE6FFDE
:10692000A2EC2FF0E552E552E552E552DF6EDF5062
:1069300002E0DF501CD106D1030EDB502EE1FD0E2C
:10694000DBCFE9FFFE0EDBCFEAFF020EE926000EE9
:10695000EA22EF5022E1FD0EDBCFE9FFFE0EDBCF96
:10696000EAFFEE52EF5019E1FD0EDBCFE9FFFE0E1C
:10697000DBCFEAFFEE52010EEF6EFD0EDBCFE9FF3B
:10698000FE0EDBCFEAFF020EE926000EEA22010E20
:10699000EF6EF36E030EF3CFDBFF030EDB5062E00E
:1069A000FD0EDBCFE9FFFE0EDBCFEAFF020EE9268C
:1069B000000EEA22EF50F36E030EDB50F35C52E15F
:1069C000FD0EDBCFE6FFFE0EDBCFE6FF6BEC2DF01E
:1069D000E552E552DF6EDF5002E0DF50C8D0FD0E19
:1069E000DBCFE9FFFE0EDBCFEAFFEE52EF50146E75
:1069F000156AFF0E141801E1155002E1010E08D0CE
:106A0000FD0EDBCFE9FFFE0EDBCFEAFFEE52EF28F3
:106A1000E66EFD0EDBCFE9FFFE0EDBCFEAFFEE52A6
:106A2000E552E750EF6EFD0EDBCFE9FFFE0EDBCF48
:106A3000EAFF020EE926000EEA22EF6AE66EE66A37
:106A4000E66AFD0EDBCFE6FFFE0EDBCFE6FFDFECF6
:106A50002DF0146E050EE15E1450DF6EDF5002E083
:106A6000DF5085D06FD0030EDB5011E0FD0EDBCF81
:106A7000E9FFFE0EDBCFEAFFEF5009E1FD0EDBCFB1
:106A8000E9FFFE0EDBCFEAFF030EDBCFEFFF030EC5
:106A9000DBCFE6FF020EE66EFD0EDBCFE6FFFE0E5D
