:1000000010EF00F00000000004EF08F00000000016
:1000100000000000000000000CEF08F011EC07F0F9
:10002000F668FB0EF76EF86A0900AA0EF55C03E0AD
:100030000EEF00F002D000EF08F01200FF0000FF0A
:1000400001013E0E006F016BFC0E026F036B846BAF
:10005000C769C869C969C66B1200D9CFE6FFE1CF8D
:10006000D9FFE652010184511FE1040108BF1BD0F2
:10007000400EE66E040EE66E010EE66E6CEC06F0C7
:10008000E552E552E5520101010E846FDF6A400E30
:10009000DF5C09E2DF50EA6A440FE96E010EEA22F2
:1000A000EF6ADF2AF4D722D101010451080A01E1E5
:1000B00018D10F0A01E1DDD0010A01E1D2D0030A13
:1000C00001E18FD0010A6AE0070A51E0010A01E06C
:1000D0000DD10101020E446F01013A0E456F01017D
:1000E000010E466F0101010E476F0101486B100EB2
:1000F000496F4A6B4B6B01C14CF102C14DF103C119
:100100004EF1100E01014D5F000E01014E5B010129
:100110004F6B0101030E506F0101F80E516F5269D0
:10012000536B546B0101080E556F566B576B586B30
:10013000010159690101530E5A6F0101500E5B6FA5
:100140000101310E5C6F0101350E5D6F04010CBFC2
:100150000DD0400EE66E440EE66E010EE66E3CECEF
:1001600006F0E552E552E5520101846BBFD0010172
:10017000055109E101013F0E006F0101F80E016F09
:100180000269036B08D001013E0E006F0101016B93
:10019000FC0E026F036B0101846BA8D001010029E2
:1001A0000101856F01018551040807E201018507FE
:1001B0000400A1D8D3EC04F0F5D704010CBF0ED095
:1001C0000101040E446F400EE66E440EE66E010E11
:1001D000E66E3CEC06F0E552E552E5520101846B17
:1001E00085D005C1C7F106C1C8F107C1C9F1DF6AF1
:1001F00001010951DF5C20E23A0E0101D880095566
:10020000DF24EA6A0A0FE96E010EEA22EF50E66E79
:100210000101C651EA6A860FE96E010EEA22E55233
:10022000E750EF6E0101C62B0101C72B000EC8235A
:10023000000EC923DF2ADCD771D804010CBF0ED011
:100240000101050E446F400EE66E440EE66E010E8F
:10025000E66E3CEC06F0E552E552E5520101846B96
:1002600045D05CD80101C769C869C9690101846BBF
:100270003DD00101070E446F05C145F106C146F1AD
:1002800007C147F108C148F109C149F105C1F6FFAD
:1002900006C1F7FF07C1F8FFDF6A01010951DF5C02
:1002A0000FE209003A0E0101D8800955DF24EA6AFD
:1002B0004A0FE96E010EEA22F5CFEFFFDF2AEDD7F4
:1002C00004010CBF0DD0400EE66E440EE66E010E2A
:1002D000E66E3CEC06F0E552E552E5520101846B16
:1002E00005D06592656A5CD8FF0000D0E552E55202
:1002F000E7CFD9FF1200F66A85C1F7FFF86AD890F8
:10030000F736F836F736F836140EA66EF29E550E0E
:10031000A76EAA0EA76EA682A6941200D9CFE6FFFA
:10032000E1CFD9FFE652DF6A0101C651000832E28F
:10033000C6C100F0016A026A00500101C75DF66E95
:1003400001500101C859F76E02500101C959F86EF8
:10035000DF50EA6A860FE96E010EEA22EF50F56E71
:100360000D00DF2ADF50EA6A860FE96E010EEA22ED
:10037000EF50F56E0C00DF2A240EA66EF29E550E8D
:10038000A76EAA0EA76EA682020E0101C65D01012C
:10039000C66FCAD7A694E552E552E7CFD9FF12003F
:1003A000D9CFE6FFE1CFD9FFE652DF6AFF0EDF5C6F
:1003B0000AE2E868E85005E0E80600D000D000D086
:1003C000F9D7DF2AF3D7E552E552E7CFD9FF12007C
:1003D0007DD9E652645032E16296040100513C0B33
:1003E000E842E8420D0828E1180E021923E1040E44
:1003F000031920E1100E026F040E036FDF6ADF5055
:10040000006E016A080E005C000E015813E2DF5016
:10041000EA6A180FE96E040EEA22EF50E66EDF502A
:10042000EA6A100FE96E040EEA22E552E750EF6E19
:10043000DF2AE5D70ED80AD03FD808D0040E645C76
:1004400003E1629650D802D0000E01D0010EE552B1
:1004500042D13CD9E652040104BF046B0101D26BC6
:10046000CA6BCB6BD06BD16B77EC03F0DF6ADF50DC
:10047000006E016A010E005C000E01581AE20101D3
:10048000CB5117E1F76ADF34FE0BF736F66E200E1C
:10049000F6260E0EF7220900F5CF00F00800F5CF82
:1004A00001F004D001C0FAFF0050F96EFBDFDF2A33
:1004B000DED7B7D8E5520FD1020E0101CA5D0EE1B9
:1004C00084D80401180E026F040E036F080E016F2A
:1004D00000BD02D0C80E05D0880E03D0DBD8E7D807
:1004E0008C0E006F1200040E0101D35D0CE112C4EA
:1004F00038FF0F013851000803E20101050E02D058
:100500000101030ED36F0101CA0510E111D8020EDB
:100510000101D25D03E10401840E06D0040104BD93
:1005200002D0C80E01D0880E046F12004AEF03F00B
:10053000CDD8020EE1260101080ED05D000ED15982
:100540000DE2D0C1DEFFD1C1DDFFD25102E1010ECB
:1005500003D0D20506E1020ED26F03D0080EDE6E84
:10056000DD6A040104930491010EDB500413DFCF14
:1005700005F4000EDB500101D05F010EDB50D15BB2
:10058000180ECE6F040ECF6F0101D4A30CD097D8F4
:1005900015E0CCC1F6FFCDC1F7FF0800F5507FD8BC
:1005A000F6E2DB06F4D78BD809E0CCC1E9FFCDC178
:1005B000EAFFEF5074D8F7E2DB06F5D7020EE15CF4
:1005C00002E2E16AE552E16E86D080D8020EE126B1
:1005D000030E04010015E76E010EE7CFDBFF01C437
:1005E000DFFFDE500101D027DD50D123180ECC6F84
:1005F000040ECD6F64D80EE0CCC1E9FFCDC1EAFF97
:10060000EF50CEC1E9FFCFC1EAFFEF6E68D8F2E24A
:10061000DB06F0D7020EE15C02E2E16AE552E16E30
:100620005AD065980101CB5105E141D8840E006F85
:1006300004011DD0040110AF1CD00101D0510401F0
:10064000165D0101D1510401175904E216C4D0F11D
:1006500017C4D1F16DDF0101010ECA6F28D8800ED9
:10066000006F0401180E066F040E076FC80E046FAA
:1006700012000101020ECA6F0401056BC80E046F5F
:100680000401080E016F180E026F040E036FC80EEE
:10069000006F12000101CA6B0401046B1200CEC18D
:1006A000E9FFCFC1EAFFEF6E01016FEF03F0040134
:1006B000080E016F100E026F040E036F1200D9CFE7
:1006C000E9FFDACFEAFFEE50ED101200D9CFE6FFD6
:1006D000E1CFD9FF1200E552E7CFD9FF1200CE2BB0
:1006E000000ECF23CC2BCD23DF06010E1200040118
:1006F0001051600BE842E842E842E842E842000953
:1007000001E012001151070A40E00B0A3EE0070A1F
:1007100033E0010A23E00B0A1FE0020A1DE0030A8E
:1007200019E0080A10E0010A0CE00F0A08E0030AC9
:1007300001E0120010D90101040ED36F1200C6EFC0
:1007400003F0FDEF03F007D90101D50ECC6F010EC8
:10075000CD6F0CD018EF04F048EF04F000D9010180
:10076000CC6FCD6BD60ECC27010ECD230101D493D7
:100770000101010ED06F1200F2D8EA6AD60FE96EBD
:10078000010EEA2212C4EFFF12001200800E0401D3
:10079000105D32E11351030A1FE0010A0AE0030A67
:1007A00029E1D9D80101620ECC6F0D0ECD6F120E6A
:1007B0001ED0B0D8160EF6260E0EBED8020E0101BF
:1007C000F76ACC25F66ECD51F7220900F5CFD0F1AE
:1007D0000A00F5CFD1F10ED09DD81A0EF6260E0ED6
:1007E000ABD8CCC1F6FFCDC1F7FF0800F550010131
:1007F000D06FD16B0101D4831200ADD80F0EE66E1D
:10080000270EE66E0F0EA0D8010EE66ED60EE66E2F
:10081000010E9AD812C4D5F10401125104E101016C
:10082000050ED36F12000101060ED36F26EF06F0FE
:100830000401186B196B040110511F0B020A0DE023
:10084000030A09E0010A16E186D80101D4A112D0F9
:10085000040118830FD07FD80DD050D801E0010ECD
:1008600062D8CEC1E9FFEA6EEF50040B03E0040149
:10087000010E186F0101CB050AE10101180ECC6FC2
:10088000040ECD6F0101D4930101020ED06F12004E
:10089000040112050EE110511F0B00090AE15BD89B
:1008A000030E0401115D03E10101D48102D00101B5
:1008B000D4910401125121E110511F0B02081DE1D6
:1008C00014510F0B000919E019D801E0010E2BD8C3
:1008D000030E0401115D02E1840E03D014AF07D0B2
:1008E000400ECEC1E9FFCFC1EAFFEF6E1200880EC5
:1008F000CEC1E9FFCFC1EAFFEF6E120030D80F0B77
:10090000080DF350016A000F006E040E012214510D
:10091000800B120020D804011251F66EF76AD890AD
:10092000F636F7361200040DF35001010024CE6FA5
:10093000000E0120CF6F1200F7220900F5CFCCF195
:100940000A00F5CFCDF11200E66EA8EC05F0E552F5
:10095000E552E55212000101010ECB6F1200FBDFE0
:1009600004011451120065A60ED80101D3050AE155
:1009700065BA08D0626A0F01366B3681368901018B
:10098000020ED36F1200656A0F01366B6586010196
:10099000010ED36F1200656A0F01366B0101D36B34
:1009A0001200CBEF04F00101D35101E112006250BB
:1009B000040B05E00F013651040B01E07BD865B252
:1009C00012006250010B05E00F013651010B01E0EE
:1009D0008BD86250100B05E00F013651100B01E06F
:1009E00022D86250200B05E00F013651200B01E0A8
:1009F00069D8030E0101D35D01E212000101DE6B33
:100A0000040EDE5D0FE26250080B0CE00F01365160
:100A1000080B08E0E8EC01F0000901E16296010131
:100A2000DE2BEED71200D9CFE6FFE1CFD9FF020EC1
:100A3000E12636CFDFFF0F01040E366F6298658224
:100A40008B50040B01E0010EE76E010EE7CFDBFFD8
:100A50008B94A198A0880300A150100B05E1D05001
:100A6000080B02E10300F8D7A098DF500F013613FE
:100A7000010EDB50E8B08B84E8A08B940101D50E09
:100A8000D96F020EDA6F0101D9C100F0DAC101F0AD
:100A9000D907000EDA5B0050011002E00400F3D722
:100AA000020EE15C02E2E16AE552E16EE552E7CF57
:100AB000D9FF120065920F01369562A402D06294AC
:100AC000FCD712000F0126A10DD0800E0401005D9D
:100AD00007E1840E0401045D03E104018C0E006F44
:100AE0000F012691629A1200636A626A0F019F0EDB
:100AF000376F0F017B0E366F0F01386B0F0EE66EEE
:100B0000270EE66E0F0EE66E23D8E552E552E5524B
:100B10000F01160E266F62A605D0629600D000D097
:100B20000000F9D765984AEC03F00401080E016F44
:100B30000401100E026F040E036F04018C0E006F8F
:100B40000101D4910101D56B0101030ED36F120095
:100B5000D9CFE6FFE1CFD9FFFD0EDBCFE9FFFE0ED7
:100B6000DBCFEAFFFC0EDB5004E0EE6AFC0EDB0696
:100B7000F9D7E552E7CFD9FF1200040110511F0B3E
:100B8000010801E01200145101E01200060E115D8F
:100B900024E11351230A1FE0010A0DE0030A1BE1BF
:100BA000DCD80101D50505E10101860ECC6F0D0EE3
:100BB000CD6F090E0DD0D1D80101D50505E1010198
:100BC000F90ECC6F0D0ECD6F0101D50504E11D0EA0
:100BD0000101D06FD16B0101D48304011051600B6E
:100BE000E842E842E842E842E842010801E0120037
:100BF00011510B0A25E0080A17E0090A11E0080A5A
:100C000009E00B0A05E0080A01E0120024EF06F0F3
:100C100025EF06F0A2D80101DB0ECC6F010E09D042
:100C20009CD813C4DBF1120098D80101DC0ECC6F04
:100C3000010ECD6F0101D4930101010ED06F12009E
:100C40008CD812C4DCF11200120012000101DD6B1D
:100C50000F011E0E276F0401400E096F200E0A6F50
:100C6000040E0B6F880E086F0401600E0E6F040EE9
:100C70000F6F400E0C6F1200D9CFE6FFE1CFD9FF06
:100C8000E652FC0EDB50400805E2400EF36EFC0E0F
:100C9000F3CFDBFFDF6AFC0EDB50DF5C0FE2DF50DF
:100CA00050D8EF50E66EDF50EA6A600FE96E040E2E
:100CB000EA22E552E750EF6EDF2AEDD7FC0EDBCFDC
:100CC0000DF4400E04010C170C7D880E0C13E55238
:100CD000E552E7CFD9FF1200D9CFE6FFE1CFD9FF28
:100CE0000101DD6B040108BF26D0FC0EDBCF00F054
:100CF0000951D880005403E2FC0E09C4DBFF010156
:100D0000DD6BFC0EDB50DD5D0FE2DD51EA6A200F8A
:100D1000E96E040EEA22EF50E66EDD5112D8E5527C
:100D2000E750EF6EDD2BEDD70401400E096F081779
:100D3000087D880E08130101DD51E552E7CFD9FF88
:100D40001200E76EFD0EDBCFE9FFFE0EDBCFEAFF00
:100D5000E750E926000EEA2212000101020ECB6FD5
:100D600012001201000200000008F0160500020047
:100D70000102000109022900010100C0320904003A
:100D8000000203000000092111010001221D0007DB
:100D90000581034000010705010340000104030928
:100DA000042C0347004E00200048006500610072DB
:100DB0000069006E006700200042006F006F007441
:100DC000006C006F0061006400650072002C034736
:100DD000004E002000480065006100720069006E4E
:100DE000006700200042006F006F0074006C006F0D
:100DF0000061006400650072000600FF0901A101A6
:100E000019012940150026FF007508954081001939
:100E10000129409100C0740D740D9D0DA10DCD0DE3
:100E20007A0B1DEE00F02DEE00F0F86A0ED80400EB
:100E300037D83AD8060E0101D35D05E16550020BA3
:100E400002E12DEC00F0F3D71200600ED36E9B8C04
:100E50000101580ED96F020EDA6FD9C100F0DAC164
:100E600001F0D907000EDA5B00500110F6E165A62B
:100E700004D06592656AD0EC01F00F01140E396F51
:100E80000101D36B0101D46B0101D56B20EC00F0A3
:100E90000101D76BD86B94940F01486B496B12001A
:100EA000B3EC04F0D3EF04F00101D751D81104E101
:100EB000100ED76F270ED86FD707000ED85BD7510B
:100EC000D81109E1060E0101D35D01E28B94060EF3
:100ED000D35D01E18B741200C00EF36E00EE00F0E2
:100EE0000E0E01D81200EA6002D0EE6AFCD7F35071
:100EF000E9601200EE6AFCD7FFFFFFFFFFFFFFFF74
:101000007CEF4DF01200120037EF1AF012000400CE
:10101000C0801200040012008FEF1AF012001000BE
:101020009B9B0000540E000005000000999B0000EF
:10103000690E000002000000989B0000FF00000005
:1010400001000000969B0000670E000002000000F7
:10105000919B0000FA04000005000000899B00003D
:101060004C0E000008000000859B0000590E000097
:1010700004000000809B0000FA0000000500000052
:10108000789B0000440E0000080000006D9B0000EB
:10109000250E00000B0000006A9B0000600E00009F
:1010A00003000000609B00003A0E00000A000000F0
:1010B000549B0000EE0400000C000000529B000056
:1010C000650E0000020000004F9B00005D0E000056
:1010D000030000002A9B0000000E00002500000015
:1010E0009EEC49F00E01606B616B626B1200D9CF10
:1010F000E6FFE1CFD9FFFD0EDBCFE9FFFE0EDBCF30
:10110000EAFF010EEF6E27EC4BF00E01606FE55227
:10111000E7CFD9FF1200D9CFE6FFE1CFD9FF0E010B
:10112000610509E1FD0EDBCFE9FFFE0EDBCFEAFF33
:10113000010EEF6E16D060CEE6FF2BEC4BF0E552C1
:1011400032080FE2FD0EDBCFE9FFFE0EDBCFEAFF38
:10115000EF0407E1FD0EDBCFE9FFFE0EDBCFEAFF78
:10116000EF6AE552E7CFD9FF1200D9CFE6FFE1CF12
:10117000D9FFFE0EDB500CE00E01010E616FFC0E7C
:10118000DBCFE9FFFD0EDBCFEAFF010EEF6E09D0EA
:101190000E01616BFC0EDBCFE9FFFD0EDBCFEAFF3A
:1011A000EF6A010E00D0E552E7CFD9FF1200D9CF88
:1011B000E6FFE1CFD9FF060EF36EFE0EDBCFF4FFA4
:1011C000F350F45C08E3FE0EDB500B0804E3FE0E64
:1011D000DBCF62FE02D00E01626BE552E7CFD9FF92
:1011E0001200D9CFE6FFE1CFD9FFE65262CEDFFF92
:1011F0000E01626BDF5000D0E552E552E7CFD9FF18
:101200001200D9CFE6FFE1CFD9FF150EE126020E7D
:10121000E76EFD0EDBCFE9FFFE0EDBCFEAFFE75006
:10122000E926000EEA22EF500F0A02E1E1EF10F08A
:10123000010A02E169EF10F0030A02E1EAEF0FF0A0
:10124000010A02E1EAEF0EF0070A02E15DEF0EF09B
:10125000010A02E10BEF0EF0030A02E198EF0DF034
:10126000010A01E1E5D30F0A01E1A1D3010A01E17D
:101270004ED3030A01E1C5D2010A01E1F2D1070A06
:1012800001E13ED1010A01E1E9D0030A2DE0FD0EA2
:10129000DBCFE9FFFE0EDBCFEAFFEF50E66EFB0E81
:1012A000DBCFE9FFFC0EDBCFEAFFE552E750EF6E44
:1012B000010EE76EFB0EDBCFE9FFFC0EDBCFEAFF92
:1012C000E750E926000EEA22EF6A020EE76EFB0EF7
:1012D000DBCFE9FFFC0EDBCFEAFFE750E926000E8B
:1012E000EA22EF6A37EF11F0FD0EDBCFE9FFFE0EC9
:1012F000DBCFEAFFEF50E66EFB0EDBCFE9FFFC0E23
:10130000DBCFEAFFE552E750EF6E010EE76EFB0E12
:10131000DBCFE9FFFC0EDBCFEAFFE750E926000E4A
:10132000EA22010EEF6E020EE76EFB0EDBCFE9FF45
:10133000FC0EDBCFEAFFE750E926000EEA22010EA1
:10134000EF6E58EC47F0E66E030EE76EFB0EDBCF58
:10135000E9FFFC0EDBCFEAFFE750E926000EEA22A8
:10136000E552E750EF6E030EE76EFB0EDBCFE9FFB1
:10137000FC0EDBCFEAFFE750E926000EEA22EF5031
:101380006BE1D9CFE6FFDACFE6FFC5EC4BF0E552D3
:10139000E552DF6EFA0EDBCFE6FF50EC44F0E5528B
:1013A00001080FE1030EE76EFB0EDBCFE9FFFC0E39
:1013B000DBCFEAFFE750E926000EEA22060EEF6EC9
:1013C0004BD0010EDF1401080FE1030EE76EFB0E98
:1013D000DBCFE9FFFC0EDBCFEAFFE750E926000E8A
:1013E000EA22400EEF6E38D0020EDF1402080FE141
:1013F000030EE76EFB0EDBCFE9FFFC0EDBCFEAFF4F
:10140000E750E926000EEA22800EEF6E25D092EC1E
:101410003BF001080FE1030EE76EFB0EDBCFE9FFA7
:10142000FC0EDBCFEAFFE750E926000EEA22200E91
:10143000EF6E12D0FFEC45F001080EE1030EE76EEF
:10144000FB0EDBCFE9FFFC0EDBCFEAFFE750E9261E
:10145000000EEA22820EEF6E37EF11F0FA0EDBCFAC
:10146000E6FF040EE76EFD0EDBCFE9FFFE0EDBCFDD
:10147000EAFFE750E926000EEA22EF50E66E030E7F
:10148000E76EFD0EDBCFE9FFFE0EDBCFEAFFE75094
:10149000E926000EEA22EF50E66EA1EC37F0E552A5
:1014A000E552E552FD0EDBCFE9FFFE0EDBCFEAFF92
:1014B000EF50E66EFB0EDBCFE9FFFC0EDBCFEAFF61
:1014C000E552E750EF6E010EE76EFB0EDBCFE9FF52
:1014D000FC0EDBCFEAFFE750E926000EEA22010E00
:1014E000EF6E020EE76EFB0EDBCFE9FFFC0EDBCFEB
:1014F000EAFFE750E926000EEA22EF6A37EF11F023
:10150000010EDB6A020EDB6A040EE76EFD0EDBCF16
:10151000E9FFFE0EDBCFEAFFE750E926000EEA22E4
:10152000EF50E66ED950030FE96EDACFEAFFE552CD
:10153000E750EE6EED6A030EDBCF16F0040EDBCF44
:1015400017F016C017F0166A050EE76EFD0EDBCF1A
:10155000E9FFFE0EDBCFEAFFE750E926000EEA22A4
:10156000EF5000011624146E000E1720156E030EA6
:1015700014C0DBFF040E15C0DBFF030EDBCFE6FF5C
:10158000040EDBCFE6FF030EE76EFD0EDBCFE9FFB7
:10159000FE0EDBCFEAFFE750E926000EEA22EF500D
:1015A000E66E13EC48F0E552E552E552DE52F3CF19
:1015B000DEFFF4CFDDFFDD52FD0EDBCFE9FFFE0ED7
:1015C000DBCFEAFFEF50E66EFB0EDBCFE9FFFC0E50
:1015D000DBCFEAFFE552E750EF6E010EE76EFB0E40
:1015E000DBCFE9FFFC0EDBCFEAFFE750E926000E78
:1015F000EA22010EEF6E020EE76EFB0EDBCFE9FF73
:10160000FC0EDBCFEAFFE750E926000EEA22020ECD
:10161000EF6E010EDBCF14F0020EDBCF15F015C01C
:1016200014F0156A030EE76EFB0EDBCFE9FFFC0E2C
:10163000DBCFEAFFE750E926000EEA2214C0EFFFF5
:10164000040EE76EFB0EDBCFE9FFFC0EDBCFEAFFFB
:10165000E750E926000EEA22010EDBCFEFFF37EF5D
:1016600011F0060EE76EFD0EDBCFE9FFFE0EDBCFBD
:10167000EAFFE750E926000EEA22EF50E66ED95065
:10168000050FE96EDACFEAFFE552E750EE6EED6A3C
:10169000040EE76EFD0EDBCFE9FFFE0EDBCFEAFFA7
:1016A000E750E926000EEA22EF50E66ED950070F08
:1016B000E96EDACFEAFFE552E750EE6EED6A050E0D
:1016C000DBCF16F0060EDBCF17F016C017F0166A48
:1016D000070EE76EFD0EDBCFE9FFFE0EDBCFEAFF64
:1016E000E750E926000EEA22EF5000011624146E9E
:1016F000000E1720156E050E14C0DBFF060E15C078
:10170000DBFF070EDBCF16F0080EDBCF17F016C09D
:1017100017F0166A050EE76EFD0EDBCFE9FFFE0E31
:10172000DBCFEAFFE750E926000EEA22EF5016244D
:10173000146E000E1720156E070E14C0DBFF080E86
:1017400015C0DBFFFD0EDBCFE9FFFE0EDBCFEAFFAE
:10175000EF50E66EFB0EDBCFE9FFFC0EDBCFEAFFBE
:10176000E552E750EF6E010EE76EFB0EDBCFE9FFAF
:10177000FC0EDBCFEAFFE750E926000EEA22010E5D
:10178000EF6E020EE76EFB0EDBCFE9FFFC0EDBCF48
:10179000EAFFE750E926000EEA22010EEF6E050E81
:1017A000DBCFE6FF060EDBCFE6FF070EDBCFE6FF63
:1017B000080EDBCFE6FF030EE76EFD0EDBCFE9FF81
:1017C000FE0EDBCFEAFFE750E926000EEA22EF50DB
:1017D000E66E97EC48F0146E050EE15E1450E66E6E
:1017E000030EE76EFB0EDBCFE9FFFC0EDBCFEAFF5B
:1017F000E750E926000EEA22E552E750EF6E37EF98
:1018000011F0030EE76EFD0EDBCFE9FFFE0EDBCF1E
:10181000EAFFE750E926000EEA22EF50E66ED950C3
:10182000090FE96EDACFEAFFE552E750EE6EED6A96
:10183000090EDBCF16F00A0EDBCF17F016C017F03B
:10184000166A040EE76EFD0EDBCFE9FFFE0EDBCF5E
:10185000EAFFE750E926000EEA22EF5000011624C5
:10186000146E000E1720156E090E14C0DBFF0A0E51
:1018700015C0DBFFFD0EDBCFE9FFFE0EDBCFEAFF7D
:10188000EF50E66EFB0EDBCFE9FFFC0EDBCFEAFF8D
:10189000E552E750EF6E010EE76EFB0EDBCFE9FF7E
:1018A000FC0EDBCFEAFFE750E926000EEA22010E2C
:1018B000EF6E020EE76EFB0EDBCFE9FFFC0EDBCF17
:1018C000EAFFE750E926000EEA22010EEF6EFA0E5B
:1018D000DBCFE6FF090EDBCFE6FF0A0EDBCFE6FF2C
:1018E00094EC4AF0E552E552E552E66E030EE76EDF
:1018F000FB0EDBCFE9FFFC0EDBCFEAFFE750E9266A
:10190000000EEA22E552E750EF6E37EF11F0FD0EC0
:10191000DBCFE9FFFE0EDBCFEAFFEF50E66EFB0EFA
:10192000DBCFE9FFFC0EDBCFEAFFE552E750EF6EBD
:10193000010EE76EFB0EDBCFE9FFFC0EDBCFEAFF0B
:10194000E750E926000EEA22010EEF6E020EE76E66
:10195000FB0EDBCFE9FFFC0EDBCFEAFFE750E92609
:10196000000EEA22010EEF6E030EE76EFD0EDBCFD6
:10197000E9FFFE0EDBCFEAFFE750E926000EEA2280
:10198000EF50E66E83EC3EF0E552E66E030EE76E36
:10199000FB0EDBCFE9FFFC0EDBCFEAFFE750E926C9
:1019A000000EEA22E552E750EF6E37EF11F0FD0E20
:1019B000DBCFE9FFFE0EDBCFEAFFEF50E66EFB0E5A
:1019C000DBCFE9FFFC0EDBCFEAFFE552E750EF6E1D
:1019D000010EE76EFB0EDBCFE9FFFC0EDBCFEAFF6B
:1019E000E750E926000EEA22010EEF6E020EE76EC6
:1019F000FB0EDBCFE9FFFC0EDBCFEAFFE750E92669
:101A0000000EEA22010EEF6E92EC3BF0E66E030E42
:101A1000E76EFB0EDBCFE9FFFC0EDBCFEAFFE75002
:101A2000E926000EEA22E552E750EF6E37EF11F09B
:101A30000B0EDB6A0C0EDB6AFD0EDBCFE9FFFE0E40
:101A4000DBCFEAFFEF50E66EFB0EDBCFE9FFFC0ECB
:101A5000DBCFEAFFE552E750EF6E010EE76EFB0EBB
:101A6000DBCFE9FFFC0EDBCFEAFFE750E926000EF3
:101A7000EA22010EEF6E020EE76EFB0EDBCFE9FFEE
:101A8000FC0EDBCFEAFFE750E926000EEA22030E48
:101A9000EF6EFA0EDBCFE6FFA0EC3BF0E552E66E10
:101AA000030EE76EFB0EDBCFE9FFFC0EDBCFEAFF98
:101AB000E750E926000EEA22E552E750EF6E9AEC75
:101AC0003BF00B0EF3CFDBFF0C0EF4CFDBFF0B0E66
:101AD000DBCF14F00C0EDBCF15F015C014F0156A37
:101AE000040EE76EFB0EDBCFE9FFFC0EDBCFEAFF57
:101AF000E750E926000EEA2214C0EFFFFF0EE76E62
:101B00000B0EDBCF14F00C0EDBCF15F0E7501416E4
:101B1000156A050EE76EFB0EDBCFE9FFFC0EDBCF8F
:101B2000EAFFE750E926000EEA2214C0EFFF9FD338
:101B3000030EE76EFD0EDBCFE9FFFE0EDBCFEAFF03
:101B4000E750E926000EEA22EFCF14F0060E145CEF
:101B500015E2030EE76EFD0EDBCF14F0FE0EDBCFB9
:101B600015F0E7501426000E152214C0E6FF15C02C
:101B7000E6FF5BEC47F0E552E55220D0030EE76E3E
:101B8000FD0EDBCFE9FFFE0EDBCFEAFFE750E926D3
:101B9000000EEA22EF500B0811E3030EE76EFD0E74
:101BA000DBCFE9FFFE0EDBCFEAFFE750E926000EB0
:101BB000EA22EF50E66ED7EC08F0E552FD0EDBCFDF
:101BC000E9FFFE0EDBCFEAFFEF50E66EFB0EDBCF48
:101BD000E9FFFC0EDBCFEAFFE552E750EF6E010EA6
:101BE000E76EFB0EDBCFE9FFFC0EDBCFEAFFE75031
:101BF000E926000EEA22010EEF6E020EE76EFB0EE2
:101C0000DBCFE9FFFC0EDBCFEAFFE750E926000E51
:101C1000EA22EF6A2CD3FD0EDBCFE9FFFE0EDBCF0D
:101C2000EAFFEF50E66EFB0EDBCFE9FFFC0EDBCFE9
:101C3000EAFFE552E750EF6E010EE76EFB0EDBCFD9
:101C4000E9FFFC0EDBCFEAFFE750E926000EEA22AF
:101C5000010EEF6E020EE76EFB0EDBCFE9FFFC0E0E
:101C6000DBCFEAFFE750E926000EEA22010EEF6E15
:101C7000030EE76EFD0EDBCF14F0FE0EDBCF15F08A
:101C8000E7501426000E152214C0E6FF15C0E6FF2B
:101C9000C5EC4BF0E552E552E66E030EE76EFB0E27
:101CA000DBCFE9FFFC0EDBCFEAFFE750E926000EB1
:101CB000EA22E552E750EF6EDAD20D0EDB6A0E0E25
:101CC000DB6AFD0EDBCFE9FFFE0EDBCFEAFFEF5054
:101CD000E66EFB0EDBCFE9FFFC0EDBCFEAFFE55241
:101CE000E750EF6E010EE76EFB0EDBCFE9FFFC0E57
:101CF000DBCFEAFFE750E926000EEA22010EEF6E85
:101D0000020EE76EFB0EDBCFE9FFFC0EDBCFEAFF36
:101D1000E750E926000EEA22040EEF6EFA0EDBCF42
:101D2000E6FF50EC44F0E552E66E030EE76EFB0E64
:101D3000DBCFE9FFFC0EDBCFEAFFE750E926000E20
:101D4000EA22E552E750EF6EFA0EDBCFE6FFD950FC
:101D50000E0FE66E000EDA20E66ED9500D0FE66E1D
:101D6000000EDA20E66EE7EC43F0146E050EE15E3D
:101D70001450F2EC4BF0E66E040EE76EFB0EDBCF78
:101D8000E9FFFC0EDBCFEAFFE750E926000EEA226E
:101D9000E552E750EF6E050EE76EFB0EDBCFE9FF75
:101DA000FC0EDBCFEAFFE750E926000EEA220D0E1B
:101DB000DBCFEFFF060EE76EFB0EDBCFE9FFFC0E7D
:101DC000DBCFEAFFE750E926000EEA220E0EDBCF5A
:101DD000EFFF4DD20F0EDB6A100EDB6A110EDB6ACD
:101DE000120EDB6AFD0EDBCFE9FFFE0EDBCFEAFF52
:101DF000EF50E66EFB0EDBCFE9FFFC0EDBCFEAFF18
:101E0000E552E750EF6E010EE76EFB0EDBCFE9FF08
:101E1000FC0EDBCFEAFFE750E926000EEA22010EB6
:101E2000EF6E020EE76EFB0EDBCFE9FFFC0EDBCFA1
:101E3000EAFFE750E926000EEA22040EEF6E34ECCA
:101E40004AF0F3CF14F0F4CF15F00F0E14C0DBFFFF
:101E5000100E15C0DBFF110EDB6A120EDB6A0F0ECF
:101E6000DBCF14F0100EDBCF15F0110EDBCF16F028
:101E7000120EDBCF17F0080ED8901732163215323B
:101E80001432E806F9E1030EE76EFB0EDBCFE9FF43
:101E9000FC0EDBCFEAFFE750E926000EEA2214C071
:101EA000EFFF0F0EDBCF14F0100EDBCF15F0110E8D
:101EB000DBCF16F0120EDBCF17F01450E66E040ED7
:101EC000E76EFB0EDBCFE9FFFC0EDBCFEAFFE7504E
:101ED000E926000EEA22E552E750EF6E0F0EDBCF47
:101EE00006F0100EDBCF07F0110EDBCF08F0120E5C
:101EF000DBCF09F0180E0B6E020E0C6E0D6A0E6A27
:101F0000C2EC4CF00F0E02C0DBFF100E03C0DBFF73
:101F1000110E04C0DBFF120E05C0DBFFD9500F0FFE
:101F2000E96EDACFEAFF640E0B6E0C6A0D6A0E6A78
:101F3000EECF06F0EECF07F0EECF08F0EFCF09F0CE
:101F4000FAEC4CF009C0EDFF08C0EDFF07C0EDFF53
:101F500006C0EFFF0F0EDBCF14F0100EDBCF15F035
:101F6000110EDBCF16F0120EDBCF17F0080ED89053
:101F70001732163215321432E806F9E1050EE76E13
:101F8000FB0EDBCFE9FFFC0EDBCFEAFFE750E926D3
:101F9000000EEA2214C0EFFF0F0EDBCF14F0100E7C
:101FA000DBCF15F0110EDBCF16F0120EDBCF17F0E2
:101FB0001450E66E060EE76EFB0EDBCFE9FFFC0E5B
:101FC000DBCFEAFFE750E926000EEA22E552E750B0
:101FD000EF6E4DD1040EE76EFD0EDBCFE9FFFE0E76
:101FE000DBCFEAFFE750E926000EEA22EF50E66E6B
:101FF000D950130FE96EDACFEAFFE552E750EE6EE3
:10200000ED6A130EDBCF16F0140EDBCF17F016C0FF
:1020100017F0166A050EE76EFD0EDBCFE9FFFE0E28
:10202000DBCFEAFFE750E926000EEA22EF5000017D
:102030001624146E000E1720156E130E14C0DBFF4D
:10204000140E15C0DBFF130EDBCFE6FF140EDBCF43
:10205000E6FF030EE76EFD0EDBCFE9FFFE0EDBCFE2
:10206000EAFFE750E926000EEA22EF50E66E40EC68
:102070004AF0E552E552E552FD0EDBCFE9FFFE0ED8
:10208000DBCFEAFFEF50E66EFB0EDBCFE9FFFC0E85
:10209000DBCFEAFFE552E750EF6E010EE76EFB0E75
:1020A000DBCFE9FFFC0EDBCFEAFFE750E926000EAD
:1020B000EA22010EEF6E020EE76EFB0EDBCFE9FFA8
:1020C000FC0EDBCFEAFFE750E926000EEA22EF6ABA
:1020D000CED0FD0EDBCFE9FFFE0EDBCFEAFFEF50E7
:1020E000E66EFB0EDBCFE9FFFC0EDBCFEAFFE5522D
:1020F000E750EF6E010EE76EFB0EDBCFE9FFFC0E43
:10210000DBCFEAFFE750E926000EEA22010EEF6E70
:10211000020EE76EFB0EDBCFE9FFFC0EDBCFEAFF22
:10212000E750E926000EEA22020EEF6EFFEC45F0C2
:10213000E66E030EE76EFB0EDBCFE9FFFC0EDBCF96
:10214000EAFFE750E926000EEA22E552E750EF6E7B
:10215000F250020B01E0010EE66E040EE76EFB0E7C
:10216000DBCFE9FFFC0EDBCFEAFFE750E926000EEC
:10217000EA22E552E750EF6EF250100B01E0010E3B
:10218000146E040EE76EFB0EDBCFE9FFFC0EDBCF17
:10219000EAFFE750E926000EEA22EF50E824141087
:1021A000E66E040EE76EFB0EDBCFE9FFFC0EDBCF25
:1021B000EAFFE750E926000EEA22E552E750EF6E0B
:1021C00056D0FD0EDBCFE9FFFE0EDBCFEAFFEF506E
:1021D000E66EFB0EDBCFE9FFFC0EDBCFEAFFE5523C
:1021E000E750EF6E010EE76EFB0EDBCFE9FFFC0E52
:1021F000DBCFEAFFE750E926000EEA22010EEF6E80
:10220000020EE76EFB0EDBCFE9FFFC0EDBCFEAFF31
:10221000E750E926000EEA22EF6A030EE76EFD0E94
:10222000DBCFE9FFFE0EDBCFEAFFE750E926000E29
:10223000EA22EF50E66E00EC47F0E552030EE76E3F
:10224000FD0EDBCFE9FFFE0EDBCFEAFFE750E9260C
:10225000000EEA22EF500AE1FA0EDBCFE6FFE66A53
:10226000E66AA1EC37F0E552E552E55200D0010EE6
:10227000146E150EE15C03E200D0E16AE552E16EF6
:102280001450E552E7CFD9FF1200D9CFE6FFE1CFD6
:10229000D9FF0F0EE126DF6A010EDB6A020EDB6A50
:1022A000030EDB6A040EDB6A050EDB6A060EDB6AD0
:1022B000070EDB6A080EDB6A090EDB6A0A0EDB6AB0
:1022C0000B0EDB6A0C0EDB6A0D0EDB6A050EDB6A99
:1022D000FD0EDBCFE9FFFE0EDBCFEAFFEF50FF0A7A
:1022E00002E19CEF18F00D0A02E13DEF18F01C0A24
:1022F00002E12EEF17F0010A02E11DEF16F0020ACB
:1023000002E1EBEF15F06A0A02E19EEF15F0010A17
:1023100001E194D3030A01E12FD3010A01E1EBD2D9
:10232000070A01E186D2010A01E133D2200A01E164
:10233000E7D1030A01E19BD1010A01E12DD1300A65
:1023400001E1E0D0100A01E18CD0F00A6AE0110A44
:1023500036E0010A02E07BEF19F0FD0EDBCFE9FF6A
:10236000FE0EDBCFEAFFEF50E66EFB0EDBCFE9FFA0
:10237000FC0EDBCFEAFFE552E750EF6E010EE76E91
:10238000FB0EDBCFE9FFFC0EDBCFEAFFE750E926CF
:10239000000EEA22EF6A020EE76EFB0EDBCFE9FFCA
:1023A000FC0EDBCFEAFFE750E926000EEA22EF6AD7
:1023B000010EF36E050EF3CFDBFF7CEF19F0FD0E7F
:1023C000DBCFE9FFFE0EDBCFEAFFEF50E66EFB0E40
:1023D000DBCFE9FFFC0EDBCFEAFFE552E750EF6E03
:1023E000010EE76EFB0EDBCFE9FFFC0EDBCFEAFF51
:1023F000E750E926000EEA22EF6A020EE76EFB0EB6
:10240000DBCFE9FFFC0EDBCFEAFFE750E926000E49
:10241000EA22EF6A010EF36E050EF3CFDBFF7CEFCD
:1024200019F0F90EDBCFE9FFFA0EDBCFEAFFEF5030
:10243000E66EFB0EDBCFE6FFFC0EDBCFE6FFFD0E0C
:10244000DBCFE6FFFE0EDBCFE6FF01EC09F0146EFA
:10245000050EE15E1450E76E050EE7CFDBFF7CEF63
:1024600019F0FD0EDBCFE9FFFE0EDBCFEAFFEF50E8
:10247000E66EFB0EDBCFE9FFFC0EDBCFEAFFE55299
:10248000E750EF6E010EE76EFB0EDBCFE9FFFC0EAF
:10249000DBCFEAFFE750E926000EEA22010EEF6EDD
:1024A000020EE76EFB0EDBCFE9FFFC0EDBCFEAFF8F
:1024B000E750E926000EEA22EF6A020EE76EFD0EF3
:1024C000DBCFE9FFFE0EDBCFEAFFE750E926000E87
:1024D000EA22EF5009E0F70EDBCFE9FFF80EDBCF81
:1024E000EAFF010EEF6E07D0F70EDBCFE9FFF80E23
:1024F000DBCFEAFFEF6A010EF36E050EF3CFDBFFD1
:102500007CEF19F0FD0EDBCFE9FFFE0EDBCFEAFF1B
:10251000EF50E66EFB0EDBCFE9FFFC0EDBCFEAFFF0
:10252000E552E750EF6E010EE76EFB0EDBCFE9FFE1
:10253000FC0EDBCFEAFFE750E926000EEA22010E8F
:10254000EF6E030EE76EFB0EDBCF14F0FC0EDBCF5D
:1025500015F0E7501426000E152214C0E6FF15C032
:10256000E6FF63EC33F0E552E552E66E020EE76EED
:10257000FB0EDBCFE9FFFC0EDBCFEAFFE750E926DD
:10258000000EEA22E552E750EF6E010EF36E050EE3
:10259000F3CFDBFF7CEF19F0FD0EDBCFE9FFFE0E82
:1025A000DBCFEAFFEF50E66EFB0EDBCFE9FFFC0E60
:1025B000DBCFEAFFE552E750EF6E030EE76EFB0E4E
:1025C000DBCF14F0FC0EDBCF15F0E7501426000E25
:1025D000152214C0E6FF15C0E6FF020EE76EFD0EE1
:1025E000DBCF16F0FE0EDBCF17F0E7501626000EFD
:1025F000172216C0E6FF17C0E6FFADEC3FF0E5522C
:10260000E552E552E552E66E010EE76EFB0EDBCFBA
:10261000E9FFFC0EDBCFEAFFE750E926000EEA22D5
:10262000E552E750EF6E040EE76EFD0EDBCFE9FFDB
:10263000FE0EDBCFEAFFE750E926000EEA22EF505C
:10264000E66E020EE76EFB0EDBCFE9FFFC0EDBCF82
:10265000EAFFE750E926000EEA22E552E750EF6E66
:10266000010EF36E050EF3CFDBFF7CEF19F0FD0ECC
:10267000DBCFE9FFFE0EDBCFEAFFEF50E66EFB0E8D
:10268000DBCFE9FFFC0EDBCFEAFFE552E750EF6E50
:10269000020EE76EFD0EDBCF14F0FE0EDBCF15F061
:1026A000E7501426000E152214C0E6FF15C0E6FF01
:1026B00078EC40F0E552E552E66E010EE76EFB0E57
:1026C000DBCFE9FFFC0EDBCFEAFFE750E926000E87
:1026D000EA22E552E750EF6E020EE76EFB0EDBCF0B
:1026E000E9FFFC0EDBCFEAFFE750E926000EEA2205
:1026F000EF6A010EF36E050EF3CFDBFF7CEF19F0EE
:10270000FD0EDBCFE9FFFE0EDBCFEAFFEF50E66EFA
:10271000FB0EDBCFE9FFFC0EDBCFEAFFE552E75013
:10272000EF6E020EE76EFD0EDBCF14F0FE0EDBCF78
:1027300015F0E7501426000E152214C0E6FF15C050
:10274000E6FFEFEC3EF0E552E552E66E010EE76E75
:10275000FB0EDBCFE9FFFC0EDBCFEAFFE750E926FB
:10276000000EEA22E552E750EF6E020EE76EFB0E16
:10277000DBCFE9FFFC0EDBCFEAFFE750E926000ED6
:10278000EA22EF6A010EF36E050EF3CFDBFF7CEF5A
:1027900019F0F90EDBCFE6FFFA0EDBCFE6FF77ECA0
:1027A00008F0E552E552FD0EDBCFE9FFFE0EDBCF70
:1027B000EAFFEF50E66EFB0EDBCFE9FFFC0EDBCF4E
:1027C000EAFFE552E750EF6E020EE76EFD0EDBCF3B
:1027D000E9FFFE0EDBCFEAFFE750E926000EEA2212
:1027E000EF50E66E7EEC41F0E552E66E010EE76ECC
:1027F000FB0EDBCFE9FFFC0EDBCFEAFFE750E9265B
:10280000000EEA22E552E750EF6E020EE76EFB0E75
:10281000DBCFE9FFFC0EDBCFEAFFE750E926000E35
:10282000EA22EF6A010EF36E050EF3CFDBFF7CEFB9
:1028300019F0F90EDBCFE6FFFA0EDBCFE6FF77ECFF
:1028400008F0E552E552FD0EDBCFE9FFFE0EDBCFCF
:10285000EAFFEF50E66EFB0EDBCFE9FFFC0EDBCFAD
:10286000EAFFE552E750EF6E010EE76EFD0EDBCF9B
:10287000E9FFFE0EDBCFEAFFE750E926000EEA2271
:10288000EF50E66E020EE76EFD0EDBCF14F0FE0E8B
:10289000DBCF15F0E7501426000E152214C0E6FF1A
:1028A00015C0E6FFF1EC41F0E552E552E552E66E67
:1028B000010EE76EFB0EDBCFE9FFFC0EDBCFEAFF7C
:1028C000E750E926000EEA22E552E750EF6E020ECD
:1028D000E76EFB0EDBCFE9FFFC0EDBCFEAFFE75034
:1028E000E926000EEA22EF6A010EF36E050EF3CF21
:1028F000DBFF7CEF19F0F90EDBCFE6FFFA0EDBCF42
:10290000E6FF77EC08F0E552E552FD0EDBCFE9FF7C
:10291000FE0EDBCFEAFFEF50E66EFB0EDBCFE9FFEA
:10292000FC0EDBCFEAFFE552E750EF6EBEEC41F064
:10293000E66E010EE76EFB0EDBCFE9FFFC0EDBCF90
:10294000EAFFE750E926000EEA22E552E750EF6E73
:10295000020EE76EFB0EDBCFE9FFFC0EDBCFEAFFDA
:10296000E750E926000EEA22EF6A010EF36E050E2B
:10297000F3CFDBFF7CEF19F0F90EDBCFE6FFFA0EA9
:10298000DBCFE6FF77EC08F0E552E552FD0EDBCF3A
:10299000E9FFFE0EDBCFEAFFEF50E66EFB0EDBCF6A
:1029A000E9FFFC0EDBCFEAFFE552E750EF6E010EC8
:1029B000E76EFD0EDBCFE9FFFE0EDBCFEAFFE7504F
:1029C000E926000EEA22EF50E66E020EE76EFD0EDB
:1029D000DBCF14F0FE0EDBCF15F0E7501426000E0F
:1029E000152214C0E6FF15C0E6FF2EEC42F0E552BA
:1029F000E552E552E66E010EE76EFB0EDBCFE9FF16
:102A0000FC0EDBCFEAFFE750E926000EEA22E55292
:102A1000E750EF6E020EE76EFB0EDBCFE9FFFC0E18
:102A2000DBCFEAFFE750E926000EEA22EF6A010E4B
:102A3000F36E050EF3CFDBFF7CEF19F0F90EDBCF61
:102A4000E6FFFA0EDBCFE6FF77EC08F0E552E55241
:102A5000FD0EDBCFE9FFFE0EDBCFEAFFEF50E66EA7
:102A6000FB0EDBCFE9FFFC0EDBCFEAFFE552E750C0
:102A7000EF6E030EE76EFB0EDBCF14F0FC0EDBCF28
:102A800015F0E7501426000E152214C0E6FF15C0FD
:102A9000E6FF030EE76EFD0EDBCFE9FFFE0EDBCF98
:102AA000EAFFE750E926000EEA22EF50E66E020E3A
:102AB000E76EFD0EDBCFE9FFFE0EDBCFEAFFE7504E
:102AC000E926000EEA22EF50E66E00EC43F0E552F4
:102AD000E552E552E552E66E010EE76EFB0EDBCFE6
:102AE000E9FFFC0EDBCFEAFFE750E926000EEA2201
:102AF000E552E750EF6E030EE76EFD0EDBCFE9FF08
:102B0000FE0EDBCFEAFFE750E926000EEA22EF5087
:102B1000E66E020EE76EFB0EDBCFE9FFFC0EDBCFAD
:102B2000EAFFE750E926000EEA22E552E750EF6E91
:102B3000010EF36E050EF3CFDBFFDED3FD0EDBCF10
:102B4000E9FFFE0EDBCFEAFFEF50E66EFB0EDBCFB8
:102B5000E9FFFC0EDBCFEAFFE552E750EF6EF90E1E
:102B6000DBCFE6FFFA0EDBCFE6FF020EE76EFD0ECF
:102B7000DBCFE9FFFE0EDBCFEAFFE750E926000ED0
:102B8000EA22EF50E66EB5EC08F0E552E552E55268
:102B9000E66E010EE76EFB0EDBCFE9FFFC0EDBCF2E
:102BA000EAFFE750E926000EEA22E552E750EF6E11
:102BB000020EE76EFB0EDBCFE9FFFC0EDBCFEAFF78
:102BC000E750E926000EEA22EF6A010EF36E050EC9
:102BD000F3CFDBFF91D3FD0EDBCFE9FFFE0EDBCFA2
:102BE000EAFFEF50E66EFB0EDBCFE9FFFC0EDBCF1A
:102BF000EAFFE552E750EF6E010EE76EFB0EDBCF0A
:102C0000E9FFFC0EDBCFEAFFE750E926000EEA22DF
:102C1000010EEF6E020EE76EFB0EDBCFE9FFFC0E3E
:102C2000DBCFEAFFE750E926000EEA22EF6A010E49
:102C3000F36E050EF3CFDBFF5FD3FD0EDBCFE9FFB5
:102C4000FE0EDBCFEAFFEF50E66EFB0EDBCFE9FFB7
:102C5000FC0EDBCFEAFFE552E750EF6E020EE76EA7
:102C6000FD0EDBCFE9FFFE0EDBCFEAFFE750E926E2
:102C7000000EEA22EF50E66ED950060FE96EDACF69
:102C8000EAFFE552E750EE6EED6A060EDBCF14F078
:102C9000070EDBCF15F014C015F0146A060E14C031
:102CA000DBFF070E15C0DBFF030EE76EFD0EDBCF6B
:102CB000E9FFFE0EDBCFEAFFE750E926000EEA222D
:102CC000EF50146E156AD950060FE96EDACFEAFF9D
:102CD0001450EE261550ED22040EE76EFD0EDBCFEC
:102CE000E9FFFE0EDBCFEAFFE750E926000EEA22FD
:102CF000EF50E66ED950080FE96EDACFEAFFE552E1
:102D0000E750EE6EED6A080EDBCF14F0090EDBCF54
:102D100015F014C015F0146A080E14C0DBFF090E7C
:102D200015C0DBFF050EE76EFD0EDBCFE9FFFE0EE3
:102D3000DBCFEAFFE750E926000EEA22EF50146EDF
:102D4000156AD950080FE96EDACFEAFF1450EE2663
:102D50001550ED22D950080FE96EDACFEAFFEE5098
:102D6000ED100BE0D950080FE96EDACFEAFF3A0E0A
:102D7000D880EE54000EED541BE2010EE76EFB0E00
:102D8000DBCFE9FFFC0EDBCFEAFFE750E926000EC0
:102D9000EA22EF6A020EE76EFB0EDBCFE9FFFC0EC4
:102DA000DBCFEAFFE750E926000EEA22EF6A50D0B7
:102DB000010EE76EFB0EDBCFE9FFFC0EDBCFEAFF77
:102DC000E750E926000EEA22010EEF6E020EE76ED2
:102DD000FB0EDBCFE9FFFC0EDBCFEAFFE750E92675
:102DE000000EEA22080EDBCFEFFFDF6ADFCF14F020
:102DF000080EDBCF15F0090EDBCF16F01550145C72
:102E0000000E165425E2060EDBCF14F0DB2A070E67
:102E1000DBCF15F001E3DB2A0A0EDB501424E96E48
:102E20000B0EDB501520EA6EEF50E66E030EDF242A
:102E3000E76EFB0EDBCFE9FFFC0EDBCFEAFFE750CE
:102E4000E926000EEA22E552E750EF6EDF2ACED7E0
:102E5000010EF36E050EF3CFDBFF4ED2FD0EDBCF7E
:102E6000E9FFFE0EDBCFEAFFEF50E66EFB0EDBCF95
:102E7000E9FFFC0EDBCFEAFFE552E750EF6E020EF2
:102E8000E76EFD0EDBCFE9FFFE0EDBCFEAFFE7507A
:102E9000E926000EEA22EF50E66ED950060FE96EE1
:102EA000DACFEAFFE552E750EE6EED6A060EDBCFB1
:102EB00014F0070EDBCF15F014C015F0146A060EDF
:102EC00014C0DBFF070E15C0DBFF030EE76EFD0E1F
:102ED000DBCFE9FFFE0EDBCFEAFFE750E926000E6D
:102EE000EA22EF50146E156AD950060FE96EDACF58
:102EF000EAFF1450EE261550ED22040EE76EFD0E8B
:102F0000DBCFE9FFFE0EDBCFEAFFE750E926000E3C
:102F1000EA22EF50E66ED950080FE96EDACFEAFFE9
:102F2000E552E750EE6EED6A080EDBCF14F0090EA5
:102F3000DBCF15F014C015F0146A080E14C0DBFFC7
:102F4000090E15C0DBFF050EE76EFD0EDBCFE9FFB6
:102F5000FE0EDBCFEAFFE750E926000EEA22EF5033
:102F6000146E156AD950080FE96EDACFEAFF1450D3
:102F7000EE261550ED22D950080FE96EDACFEAFFA0
:102F8000EE50ED100BE0D950080FE96EDACFEAFFF2
:102F90003A0ED880EE54000EED541BE2010EE76E9F
:102FA000FB0EDBCFE9FFFC0EDBCFEAFFE750E926A3
:102FB000000EEA22EF6A020EE76EFB0EDBCFE9FF9E
:102FC000FC0EDBCFEAFFE750E926000EEA22EF6AAB
:102FD0004ED0010EE76EFB0EDBCFE9FFFC0EDBCF20
:102FE000EAFFE750E926000EEA22010EEF6E020E1C
:102FF000E76EFB0EDBCFE9FFFC0EDBCFEAFFE7500D
:10300000E926000EEA22EF6ADF6ADFCF14F0080E2D
:10301000DBCF15F0090EDBCF16F01550145C000E57
:10302000165425E2060EDF24E76EFD0EDBCFE9FF26
:10303000FE0EDBCFEAFFE750E926000EEA22EF5052
:10304000E66E060EDBCF14F0DB2A070EDBCF15F0A1
:1030500001E3DB2A0A0EDB501424E96E0B0EDB5071
:103060001520EA6EE552E750EF6EDF2ACED7010E4B
:10307000F36E050EF3CFDBFF3FD1F2EC4BF0E76EC2
:103080000E0EE7CFDBFF6592656A90EC37F0FB0E22
:10309000DBCFE9FFFC0EDBCFEAFFF20EEF6E010E95
:1030A000E76EFB0EDBCFE9FFFC0EDBCFEAFFE7505C
:1030B000E926000EEA22010EEF6E020EE76EFB0E0D
:1030C000DBCFE9FFFC0EDBCFEAFFE750E926000E7D
:1030D000EA22EF6A010EF36E050EF3CFDBFF0E0E50
:1030E000DB0405E1010EE66EACEC45F0E552010EA5
:1030F000DB6A020EDB6A030EDB6A040EDB6AD95060
:10310000010FE96EDACFEAFFA00EEE5C860EEE58F4
:10311000010EEE58000EEE580BE2D950010FE96E89
:10312000DACFEAFFEE2A000EEE22EE22EE22E7D7F9
:10313000F29E0EEF00F0E0D0010EDB6A020EDB6AB9
:10314000030EDB6A040EDB6AD950010FE96EDACF99
:10315000EAFFEFCF14F0EE2A000EEFCF15F0EE22CB
:10316000EFCF16F0EE22EFCF17F0EF22FB0EDB5081
:103170001424E96EFC0EDB501520EA6EEF68D9507E
:10318000010FE96EDACFEAFFEFCF14F0EE2A000E5E
:10319000EFCF15F0EE22EFCF16F0EE22EFCF17F0C3
:1031A000EF22FB0EDB501424E96EFC0EDB501520E1
:1031B000EA6E010EEF6ED950010FE96EDACFEAFF29
:1031C000EFCF14F0EE2A000EEFCF15F0EE22EFCF86
:1031D00016F0EE22EFCF17F0EF22FB0EDB50142497
:1031E000E96EFC0EDB501520EA6E150EEF6ED9501D
:1031F000010FE96EDACFEAFFEFCF14F0EE2A000EEE
:10320000EFCF15F0EE22EFCF16F0EE22EFCF17F052
:10321000EF22FB0EDB501424E96EFC0EDB50152070
:10322000EA6EEF6AD950010FE96EDACFEAFFEFCF0D
:1032300014F0EE2A000EEFCF15F0EE22EFCF16F0CD
:10324000EE22EFCF17F0EF22FB0EDB501424E96ED5
:10325000FC0EDB501520EA6E790EEF6EDF6A130E5E
:10326000DF5C28E2DF50F76A140FF66E9B0EF72240
:103270000800F550E66ED950010FE96EDACFEAFF8B
:10328000EFCF14F0EE2A000EEFCF15F0EE22EFCFC5
:1032900016F0EE22EFCF17F0EF22FB0EDB501424D6
:1032A000E96EFC0EDB501520EA6EE552E750EF6E3A
:1032B000DF2AD5D7D950010FE96EDACFEAFFEFCF79
:1032C00014F0EE2A000EEFCF15F0EE22EFCF16F03D
:1032D000EE22EFCF17F0EF22FB0EDB501424E96E45
:1032E000FC0EDB501520EA6EEF6A010EF36E050E40
:1032F000F3CFDBFF01D000D0050EDB5000D0146E01
:103300000F0EE15C02E2E16AE552E16E1450E55213
:10331000E7CFD9FF1200D9CFE6FFE1CFD9FFE652C0
:10332000DF6AF90EDBCFE6FFFA0EDBCFE6FF8BECB0
:1033300008F0E552E552200E0001E76ECC19E8AE28
:1033400002D0E73402D0E750CC5D03E36550020BB6
:1033500009E0FD0EDBCFE9FFFE0EDBCFEAFFEF6AEF
:1033600081D01CD0AAEC49F0000908E1FB0EDBCFAC
:10337000E9FFFC0EDBCFEAFFEF6A08D0FB0EDBCFE4
:10338000E9FFFC0EDBCFEAFF010EEF6EFD0EDBCF97
:10339000E9FFFE0EDBCFEAFF010EEF6E0401E851FC
:1033A000E91102E1000E08D0E8C4E9FFE9C4EAFF30
:1033B000EF50800B01E0010E000954E1F70EDBCF66
:1033C000E6FFF80EDBCFE6FFF90EDBCFE6FFFA0EE5
:1033D000DBCFE6FFA80EE66E040EE66E680EE66E24
:1033E000040EE66E45EC11F0146E080EE15E14500A
:1033F000DF6EDF0424E10401EA51EB1102E1000E6B
:1034000008D0EAC4E9FFEBC4EAFFEF50800B01E00B
:10341000010E000914E1400EE66EA80EE66E040EE1
:10342000E66E010EE66EE66E0CEC2BF0146E050EE9
:10343000E15E1450F3CFEAF4F4CFEBF4DF6A400E10
:10344000E66E680EE66E040EE66EE66A010EE66E45
:103450000CEC2BF0146E050EE15E1450F3CFE8F483
:10346000F4CFE9F4E552E552E7CFD9FF1200DACF05
:10347000E4FFE2CFDAFFE9CFE4FFEACFE4FFF6CFE3
:10348000E4FFF7CFE4FFF5CFE4FFF3CFE4FFF4CFA1
:10349000E4FFFACFE4FF00EE00F0140EE80403E3CB
:1034A000EECFE4FFFBD700EE14F0050EE80403E3D3
:1034B000EECFE4FFFBD7E652FC0ED3140009D36E27
:1034C00014EC2AF0F2A207D0F298F292010EE66E06
:1034D00003EC46F0E552E55200EE18F0050EE80464
:1034E00003E3E5CFEDFFFBD700EE13F0140EE80485
:1034F00003E3E5CFEDFFFBD7E5CFFAFFE5CFF4FF20
:10350000E5CFF3FFE5CFF5FFE5CFF7FFE5CFF6FF1A
:10351000E5CFEAFFE5CFE9FFE5CFDAFF1100D8CF2D
:10352000E4FFE0CFE4FFE46EDACFE4FFE2CFDAFFBE
:10353000E9CFE4FFEACFE4FFF6CFE4FFF7CFE4FF03
:10354000F5CFE4FFF3CFE4FFF4CFE4FFFACFE4FFDD
:1035500000EE00F0140EE80403E3EECFE4FFFBD727
:1035600000EE14F0050EE80403E3EECFE4FFFBD712
:10357000E652FC0ED3140009D36E4DEC4BF0E5522D
:1035800000EE18F0050EE80403E3E5CFEDFFFBD7EE
:1035900000EE13F0140EE80403E3E5CFEDFFFBD7D4
:1035A000E5CFFAFFE5CFF4FFE5CFF3FFE5CFF5FF79
:1035B000E5CFF7FFE5CFF6FFE5CFEAFFE5CFE9FF7F
:1035C000E5CFDAFFE550E5CFE0FFE5CFD8FF10000B
:1035D000D9CFE6FFE1CFD9FF020EE126580EDE6E0D
:1035E000020EDD6ED08EF29EF29CC090F292F288B6
:1035F0009B8CDFCF14F0DF06010EDBCF15F001E26C
:10360000DB061450151001E0F4D70F014869496931
:10361000020EE15C02E2E16AE552E16EE552E7CFBB
:10362000D9FF1200D9CFE6FFE1CFD9FFE652DF6A1A
:103630000F014D9FD38EFC0ED3140009D36EF28E72
:10364000F28C0E01160E076FE552E552E7CFD9FF57
:103650001200D9CFE6FFE1CFD9FF110EE126DF6AD4
:10366000DE52B80EDD6EF70EF36E020EF3CFDBFF07
:10367000350EF36E030EF3CFDBFFFA0EF36E040E7E
:10368000F3CFDBFF630EF36E050EF3CFDBFFFE0E11
:10369000F36E060EF3CFDBFF810EF36E070EF3CF52
:1036A000DBFFF10EF36E080EF3CFDBFFD950090FED
:1036B000E66E000EDA20E66E72EC36F0E552E55268
:1036C000DF6A080EDF5C2CE2D950010F156EDACFED
:1036D00016F0DF500F011524E96E000E1620EA6E79
:1036E000EFCF14F0D950090F176EDACF18F0DF5072
:1036F0000F011724E96E000E1820EA6EEF50145CDB
:103700000DE0D950010FE66E000EDA20E66E8BEC6C
:1037100036F0E552E552F29E00EF00F0DF2AD1D7F5
:10372000110EE15C02E2E16AE552E16EE552E7CF9B
:10373000D9FF1200D9CFE6FFE1CFD9FF0E01010E6C
:10374000176F27EC4BF00E01186FFE0EDBCF19FE42
:10375000E552E7CFD9FF12000E01175102E1000E2A
:103760000ED018CEE6FF2BEC4BF0E552146E0E0196
:103770001951D880145401E2176B175100D0120070
:10378000D9CFE6FFE1CFD9FFFE0EDB5005082DE1D2
:10379000FB0EDBCFE9FFFC0EDBCFEAFFEF500F0B98
:1037A000090812E1FD0EDBCFE6FF0A0EE66E9AEC89
:1037B0003EF0E552E552FB0EDBCFE9FFFC0EDBCF1E
:1037C000EAFF0A0EEF6E11D0FD0EDBCFE6FF0B0E07
:1037D000E66E9AEC3EF0E552E552FB0EDBCFE9FFD8
:1037E000FC0EDBCFEAFF090EEF6EE552E7CFD9FF03
:1037F0001200D9CFE6FFE1CFD9FF020EE12634EC6B
:103800004AF0F3CFDEFFF4CFDDFFFAEC4BF0010816
:1038100004E10E01040E146F33D0DECF14F0DDCFBF
:1038200015F0ED0E145C020E155807E3040E0E01A0
:10383000145D03E3040E146F23D0DECF14F0DDCF4C
:1038400015F0D00E145C020E155807E3030E0E019E
:10385000145D03E3030E146F13D0DECF14F0DDCF3D
:1038600015F0C30E145C020E155807E3020E0E018C
:10387000145D03E3020E146F03D00E01010E146FEA
:103880001451146E020EE15C03E200D0E16AE552CD
:10389000E16E1450E552E7CFD9FF1200D9CFE6FF11
:1038A000E1CFD9FF0E01160518E1166B010E1C6F52
:1038B00027EC4BF00E011D6FFA0EDBCFE9FFFB0E7C
:1038C000DBCFEAFFEFCF1EFEF60EDBCFE9FFF70EF0
:1038D000DBCFEAFF010EEF6E1F6BFD0EDB5007081A
:1038E0004EE1FA0EDBCFE9FFFB0EDBCFEAFFEF5034
:1038F000170845E0FA0EDBCFE9FFFB0EDBCFEAFF4E
:10390000070EEF6EFC0EDBCFE6FF0C0EE66E9AECB8
:103910003EF0E552E552F80EDBCFE9FFF90EDBCFC2
:10392000EAFFEF500F0B0A0811E1F80EDBCFE9FFB9
:10393000F90EDBCFEAFF090EEF6EFC0EDBCFE6FFE0
:103940000B0EE66E9AEC3EF0E552E5520E01010ECA
:103950001C6F27EC4BF00E011D6FFA0EDBCFE9FF59
:10396000FB0EDBCFEAFFEFCF1EFEF60EDBCFE9FF4B
:10397000F70EDBCFEAFF010EEF6E1F6BE2D2FD0EFA
:10398000DB5008084EE1FA0EDBCFE9FFFB0EDBCF80
:10399000EAFFEF50170845E0FA0EDBCFE9FFFB0E18
:1039A000DBCFEAFF080EEF6EFC0EDBCFE6FF070E63
:1039B000E66E9AEC3EF0E552E552F80EDBCFE9FFF9
:1039C000F90EDBCFEAFFEF500F0B0A0811E1F80EFA
:1039D000DBCFE9FFF90EDBCFEAFF090EEF6EFC0E3D
:1039E000DBCFE6FF0B0EE66E9AEC3EF0E552E552B9
:1039F0000E01010E1C6F27EC4BF00E011D6FFA0E2D
:103A0000DBCFE9FFFB0EDBCFEAFFEFCF1EFEF60EAA
:103A1000DBCFE9FFF70EDBCFEAFF010EEF6E1F6B86
:103A200090D2FA0EDBCFE9FFFB0EDBCFEAFFEF50BF
:103A300007085BE169EC4BF0000957E1FA0EDBCFB8
:103A4000E9FFFB0EDBCFEAFFEF5017084EE0FA0E5E
:103A5000DBCFE9FFFB0EDBCFEAFF050EEF6EFC0EBE
:103A6000DBCFE6FF080EE66E9AEC3EF0E552E5523B
:103A7000FC0EDBCFE6FF15CEE6FF9AEC3EF0E552FA
:103A8000E552F80EDBCFE9FFF90EDBCFEAFFEF508E
:103A90000F0B0A0811E1F80EDBCFE9FFF90EDBCFBF
:103AA000EAFF090EEF6EFC0EDBCFE6FF0B0EE66EB3
:103AB0009AEC3EF0E552E5520E01010E1C6F27EC28
:103AC0004BF00E011D6FFA0EDBCFE9FFFB0EDBCFD3
:103AD000EAFFEFCF1EFEF60EDBCFE9FFF70EDBCFDE
:103AE000EAFF010EEF6E1F6B2CD2FA0EDBCFE9FF5F
:103AF000FB0EDBCFEAFFEF5008085BE174EC4BF004
:103B0000000957E1FA0EDBCFE9FFFB0EDBCFEAFF3E
:103B1000EF5017084EE0FA0EDBCFE9FFFB0EDBCFCC
:103B2000EAFF050EEF6EFC0EDBCFE6FF080EE66E39
:103B30009AEC3EF0E552E552FC0EDBCFE6FF15CEE7
:103B4000E6FF9AEC3EF0E552E552F80EDBCFE9FFD6
:103B5000F90EDBCFEAFFEF500F0B0A0811E1F80E68
:103B6000DBCFE9FFF90EDBCFEAFF090EEF6EFC0EAB
:103B7000DBCFE6FF0B0EE66E9AEC3EF0E552E55227
:103B80000E01010E1C6F27EC4BF00E011D6FFA0E9B
:103B9000DBCFE9FFFB0EDBCFEAFFEFCF1EFEF60E19
:103BA000DBCFE9FFF70EDBCFEAFF010EEF6E1F6BF5
:103BB000C8D1FE0EDB50080827E10E011C5113E1AD
:103BC000010E1C6FFA0EDBCFE9FFFB0EDBCFEAFF25
:103BD000EFCF1EFE010E1F6FF60EDBCFE9FFF70ED3
:103BE000DBCFEAFFEF6A05DEE66EFA0EDBCFE9FF18
:103BF000FB0EDBCFEAFFE552E750EF6E030EE66EF9
:103C000099DDE5529ED19DD1FE0EDB5002080FE0FA
:103C1000FAEC4BF0010801E0C1D0FA0EDBCFE9FF6E
:103C2000FB0EDBCFEAFFEF50060801E0B7D00E0134
:103C30001C0501E09BD0FA0EDBCFE9FFFB0EDBCFCA
:103C4000EAFFEF50170801E191D0FA0EDBCFE9FF50
:103C5000FB0EDBCFEAFFEF50050830E1FAEC4BF04A
:103C6000000909E1FA0EDBCFE9FFFB0EDBCFEAFF2B
:103C7000060EEF6E22D074EC4BF0010809E1FA0E4B
:103C8000DBCFE9FFFB0EDBCFEAFF080EEF6E15D0AE
:103C900069EC4BF0010809E1FA0EDBCFE9FFFB0EFE
:103CA000DBCFEAFF070EEF6E08D0FA0EDBCFE9FF9D
:103CB000FB0EDBCFEAFF050EEF6E53D0FA0EDBCF23
:103CC000E9FFFB0EDBCFEAFFEF50060823E174ECBF
:103CD0004BF0010809E1FA0EDBCFE9FFFB0EDBCF69
:103CE000EAFF080EEF6E15D069EC4BF0010809E110
:103CF000FA0EDBCFE9FFFB0EDBCFEAFF070EEF6E1C
:103D000008D0FA0EDBCFE9FFFB0EDBCFEAFF050E92
:103D1000EF6E27D0FA0EDBCFE9FFFB0EDBCFEAFF19
:103D2000EF50080816E169EC4BF0010809E1FA0EC2
:103D3000DBCFE9FFFB0EDBCFEAFF070EEF6E08D00B
:103D4000FA0EDBCFE9FFFB0EDBCFEAFF050EEF6ECD
:103D500008D0FA0EDBCFE9FFFB0EDBCFEAFF050E42
:103D6000EF6E27EC4BF00E011D6F17D0010E1C6F8C
:103D700027EC4BF00E011D6FFA0EDBCFE9FFFB0EB7
:103D8000DBCFEAFFEFCF1EFEF60EDBCFE9FFF70E2B
:103D9000DBCFEAFF010EEF6E1F6BD3D00E011C05C7
:103DA00001E0CFD0030EE66EC5DCE5521DCEE6FF86
:103DB0002BEC4BF0E5521C0804E30E011F0501E05B
:103DC000C0D0FA0EDBCFE9FFFB0EDBCFEAFFEF50EE
:103DD000180823E0FA0EDBCFE9FFFB0EDBCFEAFF8A
:103DE000EF041BE0FA0EDBCFE9FFFB0EDBCFEAFFAF
:103DF000EF50020812E0FA0EDBCFE9FFFB0EDBCF3B
:103E0000EAFFEF50030809E0FA0EDBCFE9FFFB0EF3
:103E1000DBCFEAFFEF50040808E1FA0EDBCFE9FF41
:103E2000FB0EDBCFEAFF1ECEEFFFFA0EDBCFE9FF82
:103E3000FB0EDBCFEAFFEF500E011E5D01E178D0F3
:103E4000FA0EDBCFE9FFFB0EDBCFEAFFEF501708DE
:103E50006FE0FA0EDBCFE9FFFB0EDBCFEAFFEF509E
:103E6000050813E1FC0EDBCFE6FF080EE66E9AECC8
:103E70003EF0E552E552FC0EDBCFE6FF15CEE6FF45
:103E80009AEC3EF0E552E55238D0FA0EDBCFE9FF6E
:103E9000FB0EDBCFEAFFEF5006080AE1FC0EDBCF9A
:103EA000E6FF090EE66E9AEC3EF0E552E55225D0AB
:103EB000FA0EDBCFE9FFFB0EDBCFEAFFEF5007087E
:103EC0000AE1FC0EDBCFE6FF0C0EE66E9AEC3EF04C
:103ED000E552E55212D0FA0EDBCFE9FFFB0EDBCF45
:103EE000EAFFEF50080809E1FC0EDBCFE6FF070E02
:103EF000E66E9AEC3EF0E552E552F80EDBCFE9FFB4
:103F0000F90EDBCFEAFFEF500F0B0A0811E1F80EB4
:103F1000DBCFE9FFF90EDBCFEAFF090EEF6EFC0EF7
:103F2000DBCFE6FF0B0EE66E9AEC3EF0E552E55273
:103F3000F60EDBCFE9FFF70EDBCFEAFFEF6A0E01EB
:103F40001C6BE552E7CFD9FF1200D9CFE6FFE1CFD6
:103F5000D9FFFC0EDBCFE9FFFD0EDBCFEAFFEF5010
:103F60000F0B0A0801E151D0F90EDB500B0809E1F3
:103F7000FA0EDB50050804E0FA0EDB50070801E1F9
:103F800044D00E010C0501E140D0FE0EDB500308C9
:103F900011E1FC0EDBCFE9FFFD0EDBCFEAFFEF887E
:103FA000FB0EDBCFE6FF050EE66E9AEC3EF0E55227
:103FB000E5522BD0FE0EDB50040811E1FC0EDBCFE6
:103FC000E9FFFD0EDBCFEAFFEF88FB0EDBCFE6FF5C
:103FD000060EE66E9AEC3EF0E552E55216D092ECF3
:103FE0003BF0010808E1FC0EDBCFE9FFFD0EDBCF63
:103FF000EAFFEF8A0AD00F0E146EFC0EDBCFE9FF4A
:10400000FD0EDBCFEAFF1450EF16E552E7CFD9FFE4
:104010001200D9CFE6FFE1CFD9FFE652DF6AFD0EED
:10402000DB0403E1010EDF6E0FD0FE0EDB0403E1C3
:10403000020EDF6E09D0FAEC4BF0010803E1030E2B
:10404000DF6E02D0040EDF6EDF500E010A5D0BE062
:10405000DFCF0AFEFC0EDBCFE6FF0ACEE6FFA6ECC2
:1040600044F0E552E552E552E552E7CFD9FF1200A0
:10407000D9CFE6FFE1CFD9FFF2EC4BF0010841E1E7
:10408000F6EC4BF0010809E1FD0EDBCFE9FFFE0E77
:10409000DBCFEAFF140EEF6E33D0FAEC4BF00108E1
:1040A00009E1FD0EDBCFE9FFFE0EDBCFEAFF150EC7
:1040B000EF6E26D0FD0EDBCFE9FFFE0EDBCFEAFF71
:1040C000EF50110801E11CD034EC4AF0F3CF14F0AA
:1040D000F4CF15F0A50E145C020E155809E2FD0E82
:1040E000DBCFE9FFFE0EDBCFEAFF110EEF6E08D04B
:1040F000FD0EDBCFE9FFFE0EDBCFEAFF100EEF6E09
:1041000022D0F6EC4BF0010809E1FD0EDBCFE9FF10
:10411000FE0EDBCFEAFF120EEF6E15D0FAEC4BF07D
:10412000010809E1FD0EDBCFE9FFFE0EDBCFEAFF60
:10413000130EEF6E08D0FD0EDBCFE9FFFE0EDBCFD6
:10414000EAFF160EEF6EE552E7CFD9FF1200D9CF86
:10415000E6FFE1CFD9FFF70EDBCFE9FFF80EDBCFAB
:10416000EAFFEF50170802E12CD12BD10E010C050C
:1041700001E082D092EC3BF0010809E1FC0EDBCFBC
:10418000E9FFFD0EDBCFEAFF0F0EEF6E74D00DCE10
:10419000E6FF2BEC4BF0E552146E156A153404E281
:1041A0001450C808000E15545EE20E010C6BFC0E94
:1041B000DBCFE9FFFD0EDBCFEAFFEF6AFB0EDBCFC3
:1041C000E6FF040EE66E9AEC3EF0E552E552F90E7B
:1041D000DBCFE9FFFA0EDBCFEAFFEF500F0B0A0847
:1041E00011E1F90EDBCFE9FFFA0EDBCFEAFF090E92
:1041F000EF6EFB0EDBCFE6FF0B0EE66E9AEC3EF0A9
:10420000E552E552F70EDBCFE9FFF80EDBCFEAFF10
:10421000050EEF6EFB0EDBCFE6FF080EE66E9AECA6
:104220003EF0E552E552F60EDB500B0809E0FB0EBE
:10423000DBCFE6FF150EE66E9AEC3EF0E552E55256
:10424000FB0EDBCFE6FF0D0EE66E9AEC3EF0E5527C
:10425000E552FB0EDBCFE6FF15CEE6FF9AEC3EF013
:10426000E552E55208D0FC0EDBCFE9FFFD0EDBCFB7
:10427000EAFF20CEEFFFA5D0FE0EDB0431E1FC0EFD
:10428000DBCFE9FFFD0EDBCFEAFFEF500C0809E1C1
:10429000FC0EDBCFE9FFFD0EDBCFEAFF0D0EEF6E6C
:1042A0001AD0FC0EDBCFE9FFFD0EDBCFEAFFEF50AB
:1042B0000D0809E1FC0EDBCFE9FFFD0EDBCFEAFFC5
:1042C0000E0EEF6E08D0FC0EDBCFE9FFFD0EDBCF4C
:1042D000EAFF0C0EEF6E27EC4BF00E010D6F71D064
:1042E000FC0EDBCFE9FFFD0EDBCFEAFFEF500C0841
:1042F00012E0FC0EDBCFE9FFFD0EDBCFEAFFEF5053
:104300000D0809E0FC0EDBCFE9FFFD0EDBCFEAFF75
:10431000EF500E0856E10DCEE6FF2BEC4BF0E552C8
:104320001E084FE2FB0EDBCFE6FF0E0EE66E9AECA8
:104330003EF0E552E552FC0EDBCFE9FFFD0EDBCF90
:10434000EAFFEF500C080AE1FB0EDBCFE6FF010E9F
:10435000E66E9AEC3EF0E552E55225D0FC0EDBCF3E
:10436000E9FFFD0EDBCFEAFFEF500D080AE1FB0E7F
:10437000DBCFE6FF020EE66E9AEC3EF0E552E55228
:1043800012D0FC0EDBCFE9FFFD0EDBCFEAFFEF50D2
:104390000E0809E1FB0EDBCFE6FF030EE66E9AEC9A
:1043A0003EF0E552E552FC0EDBCFE9FFFD0EDBCF20
:1043B000EAFFEFCF20FE27EC4BF00E010D6F010E50
:1043C0000C6FE552E7CFD9FF1200D9CFE6FFE1CF5E
:1043D000D9FF0E011A0503E11A0E04D003D0FE0E18
:1043E000DB5000D0E552E7CFD9FF1200D9CFE6FF6E
:1043F000E1CFD9FF040EE1260A0EDF6EDE52340E45
:10440000DD6E3C0EF36E020EF3CFDBFF010EF36E9A
:10441000030EF3CFDBFFD950010FE66E000EDA205A
:10442000E66ED9CFE6FFDACFE6FF1B0EE66E0E0E84
:10443000E66E090EE66E0E0EE66ED950020FE66EBF
:10444000000EDA20E66ECFEC44F0146E0A0EE15E48
:10445000145001082CE1FE0EDBCFE6FF020EDBCF8D
:10446000E6FF030EDBCFE6FFBFEC4AF0E552E55274
:10447000E552010EDBCFE6FFDFCFE6FFE66A0EEC8A
:1044800046F0E552E552E552BDEC45F001080CE17D
:104490000E010B0E056FFE0EDBCFE6FF130EE66E70
:1044A0009AEC3EF0E552E5520E011A6B1BD0FE0E5F
:1044B000DBCFE6FF020EDBCFE6FF030EDBCFE6FF2E
:1044C000BFEC4AF0E552E552E552340EE66E0A0EB4
:1044D000E66EE66A0EEC46F0E552E552E5520E0154
:1044E000010E1A6F0BEC47F0F292F288E66A03ECC9
:1044F00046F0E55227EC4BF00E010F6F040EE15C25
:1045000002E2E16AE552E16EE552E7CFD9FF12001F
:10451000D9CFE6FFE1CFD9FFFD0EDB98DB9ADB9C1C
:10452000DB9EFFEC45F0010865E10E0121512CE115
:10453000FE0EDB50050811E1FD0EDB500A080DE010
:10454000F2EC4BF0010809E1FC0EDBCFE6FF0F0EA9
:10455000E66E9AEC3EF0E552E5520E01010E216F37
:1045600027EC4BF00E01106FFCEC46F0020B0BE059
:10457000FC0EDBCFE6FF020EE66EE66EA1EC37F036
:10458000E552E552E55236D0210534E110CEE6FF82
:104590002BEC4BF0E5520F082DE2FE0EDB50050828
:1045A00011E1FD0EDB500A080DE0F2EC4BF00108C2
:1045B00009E1FC0EDBCFE6FF0B0EE66E9AEC3EF057
:1045C000E552E5520BEC47F0F292F288E66A03EC12
:1045D00046F0E5520E01216BFCEC46F0020B0AE0BE
:1045E000FC0EDBCFE6FFE66AE66AA1EC37F0E552A7
:1045F000E552E552E552E7CFD9FF1200D9CFE6FFE9
:10460000E1CFD9FFE65227EC4BF0DF6E27EC4BF001
:10461000DF6EDFCFE6FF2BEC4BF0E552000901E146
:10462000F8D7FE0EDBCFE6FF040EE66EF8EC37F0AF
:10463000E552E552DFCFE6FF2BEC4BF0E552146E6E
:10464000050E145C01E2F6D7FE0EDBCFE6FF020E8C
:10465000E66EF8EC37F0E552E552DFCFE6FF2BECE3
:104660004BF0E552146E0A0E145C01E2F6D7FE0E12
:10467000DBCFE6FF010EE66EF8EC37F0E552E552CF
:10468000DFCFE6FF2BEC4BF0E552146E0F0E145CFF
:1046900001E2F6D7FE0EDBCFE6FFE66AF8EC37F074
:1046A000E552E552E552E552E7CFD9FF1200D9CFE6
:1046B000E6FFE1CFD9FF090EE126ACEC1BF0DF6E7F
:1046C000FAEC4BF0E76E010EE7CFDBFF0E0123059E
:1046D00009E1FC0EDBCFE6FFFEEC4BF0E5520E01EC
:1046E000236FF2D327EC4BF00E01225D01E1ACD336
:1046F000F1EC08F0E76E020EE7CFDBFF020EDB50B5
:104700000AE10E011B0507E10C0EF36E020EF3CF5A
:10471000DBFF0E011B6B27EC4BF00E01226FFC0E32
:10472000DBCFE6FFFEEC4BF0E552010804E0020EA1
:10473000DB5001E189D327EC4BF0E76E030EE7CFA6
:10474000DBFF58EC47F0E76E040EE7CFDBFF010E0E
:10475000F36E050EF3CFDBFF060EDB6A030EDB50B4
:10476000E76E070EE7CFDBFF080EDB6A030EDBCF39
:10477000E6FF2BEC4BF0E552146E0F0E145C5DE27D
:10478000050EDB045AE1FC0EDBCFE6FFE66AF8EC2F
:1047900037F0E552E552FC0EDBCFE6FFFEEC4BF0C6
:1047A000E552E76E050EE7CFDBFF58EC47F0146EDD
:1047B000040EDBCFE7FF1450E716040EE7CFDBFF54
:1047C0000AEC08F0010EE66E0E0EE66E0E0EE66EB8
:1047D0000E0EE66E020EE66E0E0EE66E000EE66E33
:1047E0000E0EE66E8BEC19F0146E080EE15E14509E
:1047F00027EC4BF0F36E070EDB50F35C17E1010E74
:10480000E66E0E0EE66E0E0EE66E0E0EE66E020EF4
:10481000E66E0E0EE66E000EE66E0E0EE66E8BEC8B
:1048200019F0146E080EE15E1450E2D727EC4BF03D
:10483000E76E070EE7CFDBFF99D7030EDBCFE6FF6E
:104840002BEC4BF0E552146E0F0E145C03E3050ED7
:10485000DB0404E0020EDB5001E1F6D2F2EC4BF097
:10486000010803E1020EDB5004E0020EDB500B08EE
:104870005DE10E01166BFC0EDBCFE6FF0E0EE66E61
:104880009AEC3EF0E552E552FC0EDBCFE6FF010E5E
:10489000E66EF8EC37F0E552E55227EC4BF0E76EA8
:1048A000030EE7CFDBFF030EDBCFE6FF2BEC4BF075
:1048B000E552146E1E0E145C19E20AEC08F0010EAB
:1048C000E66E0E0EE66E0E0EE66E0E0EE66E020E34
:1048D000E66E0E0EE66E000EE66E0E0EE66E8BECCB
:1048E00019F0146E080EE15E1450DDD7DEEC45F0D1
:1048F000E76E080EE7CFDBFF080EDB0404E1E66A93
:10490000ACEC45F0E552EEEC4BF0FC0EDBCFE6FFF5
:10491000E66AF8EC37F0E552E552FC0EDBCFE6FF35
:10492000FEEC4BF0E5520E01236F8ED2E9EC4BF01A
:10493000FC0EDBCFE6FF040EE66EF8EC37F0E55236
:10494000E5520E01010E166FFD0EDBCFE9FFFE0EE4
:10495000DBCFEAFF050EEF6E0E01100E156FFC0E99
:10496000DBCFE6FF080EE66E9AEC3EF0E552E5522C
:10497000F80EDBCFE9FFF90EDBCFEAFF090EEF6E91
:10498000FC0EDBCFE6FF0B0EE66E9AEC3EF0E55236
:10499000E552FC0EDBCFE6FF15CEE6FF9AEC3EF0CB
:1049A000E552E552FC0EDBCFE6FF0D0EE66E9AEC0B
:1049B0003EF0E552E552040EDB50040804E0020E1E
:1049C000DB50070875E1030EDBCFE6FF2BEC4BF065
:1049D000E552146E640E145C38E2040EDB500408D9
:1049E00034E158EC47F0146E040EDBCFE7FF1450AF
:1049F000E716040EE7CFDBFF0AEC08F0010EE66EC7
:104A00000E0EE66E0E0EE66E0E0EE66E020EE66EF2
:104A10000E0EE66E000EE66E0E0EE66E8BEC19F0D4
:104A2000146E080EE15E1450030EDBCFE6FF2BEC94
:104A30004BF0E5522D0808E2FC0EDBCFE6FFE66AFC
:104A4000F8EC37F0E552E552BED7030EDBCFE6FFB8
:104A50002BEC4BF0E552146E640E145C04E3040E70
:104A6000DB50040804E0020EDB50070820E1FA0ED8
:104A7000DBCFE9FFFB0EDBCFEAFF0B0EEF6E010E83
:104A8000E66E9BEC45F0E552FC0EDBCFE6FFB6DDB3
:104A9000E552FC0EDBCFE6FF130EE66E9AEC3EF01D
:104AA000E552E552010EF36E060EF3CFDBFF24D183
:104AB000040EDB50030805E0020EDB500A0801E09B
:104AC0007DD0FC0EDBCFE6FF150EE66E9AEC3EF0D5
:104AD000E552E552030EDBCFE6FF2BEC4BF0E5523F
:104AE000146E640E145C38E2040EDB50030834E1EB
:104AF00058EC47F0146E040EDBCFE7FF1450E716B6
:104B0000040EE7CFDBFF0AEC08F0010EE66E0E0E96
:104B1000E66E0E0EE66E0E0EE66E020EE66E0E0EE1
:104B2000E66E000EE66E0E0EE66E8BEC19F0146E5D
:104B3000080EE15E1450030EDBCFE6FF2BEC4BF0CA
:104B4000E5522D0808E2FC0EDBCFE6FFE66AF8EC42
:104B500037F0E552E552BED7030EDBCFE6FF2BEC74
:104B60004BF0E552146E640E145C04E3040EDB504B
:104B7000030804E0020EDB500A081FE1FA0EDBCF47
:104B8000E9FFFB0EDBCFEAFF190EEF6EE66A9BEC46
:104B900045F0E552FC0EDBCFE6FF30DDE552FC0EC2
:104BA000DBCFE6FF140EE66E9AEC3EF0E552E552DE
:104BB000010EF36E060EF3CFDBFF9ED0040EDB502A
:104BC000050805E0020EDB50090801E095D0FC0E57
:104BD000DBCFE6FF150EE66E9AEC3EF0E552E552AD
:104BE000030EDBCFE6FF2BEC4BF0E552146E640EA8
:104BF000145C38E2040EDB50050834E158EC47F051
:104C0000146E040EDBCFE7FF1450E716040EE7CF57
:104C1000DBFF0AEC08F0010EE66E0E0EE66E0E0EDD
:104C2000E66E0E0EE66E020EE66E0E0EE66E000EDE
:104C3000E66E0E0EE66E8BEC19F0146E080EE15E59
:104C40001450030EDBCFE6FF2BEC4BF0E5522D08A2
:104C500008E2FC0EDBCFE6FFE66AF8EC37F0E5523F
:104C6000E552BED7030EDBCFE6FF2BEC4BF0E5524F
:104C7000146E640E145C04E3040EDB50050804E0BB
:104C8000020EDB50090838E1FD0EDBCFE9FFFE0E16
:104C9000DBCFEAFF170EEF6EFC0EDBCFE6FFAEDCDC
:104CA000E552FC0EDBCFE6FF120EE66E9AEC3EF00C
:104CB000E552E552FA0EDBCFE9FFFB0EDBCFEAFF50
:104CC000190EEF6EFC0EDBCFE6FF140EE66E9AECCB
:104CD0003EF0E552E5520E01110E156FFC0EDBCFD2
:104CE000E6FF15CEE6FF9AEC3EF0E552E552010EE6
:104CF000F36E060EF3CFDBFF060EDB503AE1FC0E3F
:104D0000DBCFE6FF150EE66E9AEC3EF0E552E5527B
:104D100027EC4BF0E76E030EE7CFDBFF030EDBCF94
:104D2000E6FF2BEC4BF0E552146E1E0E145C19E2FC
:104D30000AEC08F0010EE66E0E0EE66E0E0EE66E42
:104D40000E0EE66E020EE66E0E0EE66E000EE66EBD
:104D50000E0EE66E8BEC19F0146E080EE15E145028
:104D6000DDD7FC0EDBCFE6FFE66AF8EC37F0E55264
:104D7000E55258EC47F0E76E040EE7CFDBFF070E75
:104D8000E66E0E0EE66E38EC20F0E552E552040EAB
:104D9000DB50030808E0040EDB50040804E0040EB6
:104DA000DB50050849E10AEC08F0010EE66E0E0E34
:104DB000E66E0E0EE66E0E0EE66E020EE66E0E0E3F
:104DC000E66E000EE66E0E0EE66E8BEC19F0146EBB
:104DD000080EE15E1450FA0EDBCFE9FFFB0EDBCFCD
:104DE000EAFFEF50E66EF9EC1BF0E66E11CEE6FF3F
:104DF0000BCEE6FFFC0EDBCFE6FF07CEE6FFF80E9C
:104E0000DBCFE9FFF90EDBCFEAFFEF50E66EFD0ED8
:104E1000DBCFE9FFFE0EDBCFEAFFEF50E66E38ECAA
:104E20003BF0146E080EE15E145058EC47F0E76E4C
:104E3000040EE7CFDBFFABD7FC0EDBCFE6FFFEECCB
:104E40004BF0E5520E01236F010EDB5018E1FD0E11
:104E5000DBCFE9FFFE0EDBCFEAFFEF5006080FE0E5
:104E6000DF500DE1D9EC4AF0FC0ED3140309D36EE8
:104E700065B665920300FC0ED3140009D36EFC0ED8
:104E8000DBCFE6FF04CEE6FFFD0EDBCFE9FFFE0E33
:104E9000DBCFEAFFEF50E66E88EC22F0E552E552F8
:104EA000E552010EDB5010E1FD0EDBCFE9FFFE0EF7
:104EB000DBCFEAFFEF50060807E0DF5005E165B6FB
:104EC00003D0658270EC08F0090EE15C02E2E16A51
:104ED000E552E16EE552E7CFD9FF1200D9CFE6FFE8
:104EE000E1CFD9FFE652FE0EDB50050804E1ACEC41
:104EF0001BF0010805E127EC4BF00E010F6F61D0AC
:104F00000FCEE6FF2BEC4BF0E55202085AE2FD0E05
:104F1000DB5057E1FE0EDB50050853E1C0EC46F0D4
:104F2000DF6EDF504EE027EC4BF00E010F6FDF50CD
:104F3000155D46E0242B2451030841E2FE0EDB50B0
:104F4000050839E1100EDF5C1AE1FD0EDBCFE6FF4C
:104F5000100EE66E9AEC3EF0E552E552FCEC46F09F
:104F6000010B0CE0FD0EDBCFE6FF020EE66E010E3C
:104F7000E66EA1EC37F0E552E552E5521CD0110E79
:104F8000DF5C19E1FD0EDBCFE6FF110EE66E9AEC59
:104F90003EF0E552E552FCEC46F0010B0CE0FD0E54
:104FA000DBCFE6FF040EE66E010EE66EA1EC37F0F5
:104FB000E552E552E5520E01246BDFCF15FE01D01C
:104FC000246BE552E552E7CFD9FF1200D9CFE6FFB7
:104FD000E1CFD9FF040EE1260E011B055BE1DF6A7C
:104FE000010EDB6A020EDB6ADBCFE6FFD950010F50
:104FF000E66E000EDA20E66ED9CFE6FFDACFE6FFE6
:10500000E7EC43F0146E050EE15E1450010EDB0474
:1050100041E1030EDB6A010EF36E020EF3CFDBFFFC
:10502000020EDB0437E10AEC08F0010EE66E0E0E0C
:10503000E66ED950020FE66E000EDA20E66E020E22
:10504000E66E0E0EE66E000EE66E0E0EE66E8BEC53
:1050500019F0146E080EE15E145005CEE6FFF9EC6F
:105060001BF0E66E11CEE6FF0BCEE6FF020EDBCFA5
:10507000E6FF07CEE6FF04CEE6FF03CEE6FFE5EC53
:1050800021F0E552E66E38EC3BF0146E080EE15E5E
:105090001450C6D7040EE15C02E2E16AE552E16E0B
:1050A000E552E7CFD9FF1200D9CFE6FFE1CFD9FF14
:1050B000070EE126DF6A010EDB6A020EDB6A030ED1
:1050C000DB6A040EDB6A050EDB6A060EDB6AE8ECBF
:1050D0001AF01FEC4BF070EC08F012EC1BF040ECF7
:1050E00041F0E66A51EC4AF0E552F00EE66E80ECD3
:1050F00043F0E55275EC37F08CEC3BF05EEC4BF096
:10510000E4EC49F011EC47F029EC1BF012EC33F021
:105110000ECEE6FFD8EC4BF0E5520ECEE6FFF6ECF5
:1051200021F0E55207EC08F051DF0AEC08F0010E1F
:10513000E66E0E0EE66E0E0EE66E0E0EE66E020EBB
:10514000E66E0E0EE66E000EE66E0E0EE66E8BEC52
:1051500019F0146E080EE15E14500E01015101E0C9
:10516000C8D00ECEE6FF0DEC4CF0E552040EE66E14
:105170000E0EE66E050EE66E0E0EE66E0ECEE6FF27
:10518000030EE66E0E0EE66E57EC23F0146E070E5D
:10519000E15E1450070EE66E0E0EE66E38EC20F05F
:1051A000E552E5520ECEE6FF02CEE6FF00CEE6FF68
:1051B00009EC20F0E552E552E552F2EC4BF0010823
:1051C00001E07CD00ECEE6FF03CEE6FF87DEE5529F
:1051D000E552030EDBCFE6FFD950020FE66E000E5C
:1051E000DA20E66ED950010FE66E000EDA20E66E88
:1051F0000E0EE66E0E0EE66E130EE66E0E0EE66EEA
:1052000080EC47F0146E090EE15E1450060EE66E57
:105210000E0EE66E7FEC4BF0E552E552040EE66EA4
:105220000E0EE66E0ECEE6FF13CEE6FFC0EC1BF0D0
:10523000E552E552E552E552110EE66E0E0EE66EAF
:10524000040EE66E0E0EE66E030EE66E0E0EE66EB3
:105250000ECEE6FF06CEE6FF13CEE6FF4EEC1CF0C8
:10526000146E090EE15E145005CEE6FF03CEE6FF94
:105270000ECEE6FF040EE66E0E0EE66E13CEE6FFD1
:10528000A5EC1FF0146E060EE15E145005CEE6FF8D
:10529000030EE66E0E0EE66E040EE66E0E0EE66E63
:1052A0000ECEE6FF0B0EE66E0E0EE66E13CEE6FF9A
:1052B000A7EC20F0146E090EE15E145005CEE6FF57
:1052C000F9EC1BF0E66E11CEE6FF0BCEE6FF0ECE3C
:1052D000E6FF07CEE6FF04CEE6FF03CEE6FFE5ECF1
:1052E00021F0E552E66E38EC3BF0146E080EE15EFC
:1052F00014501BD7070EE15C02E2E16AE552E16E51
:10530000E552E7CFD9FF1200D9CFE6FFE1CFD9FFB1
:10531000E652A098636A626A0F01266B010EE66E80
:10532000E66AE66A270EE66E0F0EE66E3CEC4DF07E
:10533000146E050EE15E14500F01160E396F9F0EAC
:10534000376F7B0E366FDF6ADF50146E156A080EFA
:10535000145C000E155810E2DF50040DF3CFE9FF86
:10536000F4CFEAFF000EE926040EEA22EE6AEE6AA6
:10537000EE6AEE6ADF2AE8D7658C0F01386B659814
:10538000659C62A607D062960001DF6BE46BE56B5B
:10539000E66BF7D70001010EF66FF76FF86BF96B4C
:1053A000EC6BDF6A020EDF5C26E2EA6ADF34FE0B9A
:1053B000EA36E96ED70EE926000EEA22EE6AED6AB9
:1053C000EA6ADF34FE0BEA36E96ED30EE926000EF8
:1053D000EA22EE6AED6ADF50EA6AF00FE96E000E2B
:1053E000EA22EF6ADF50EA6AF20FE96E000EEA2263
:1053F000EF6ADF2AD7D70001080ED76F040ED86FE7
:105400000F01160E266F0401200E026F040E036FAB
:10541000400E016F840E006F0001CD6BCC6BE55226
:10542000E552E7CFD9FF1200D9CFE6FFE1CFD9FF90
:10543000E6520001CC0509E165BA07D0626A0F01A6
:10544000368136890001020ECC6F6250040B07E0F2
:105450000F013651040B03E0629436EC30F065A284
:1054600002D0A1989DD06250010B0AE00F01365185
:10547000010B06E049DFA0880001040ECC6F6290AA
:105480006250100B07E00F013651100B03E020ECC7
:1054900030F0629862AC1AD00F0136AD0FD0010E19
:1054A000E66EE66A000EE66EE66A730EE66EE66A81
:1054B0004FEC49F0146E060EE15E1450629C000140
:1054C000F45101E0F407F45101E110DA6250200BCD
:1054D00006E00F013651200B02E006EC30F062507E
:1054E000020B14E00F013651020B10E0010EE66EC4
:1054F000E66A000EE66EE66AE6687F0EE66E4FEC40
:1055000049F0146E060EE15E1450636A040E000149
:10551000E76ECC19E8AE02D0E73402D0E750CC5D9C
:1055200002E2A1983DD00F0136A739D0DF6A040E00
:10553000DF5C35E262A632D064CFEDF00001ED51C0
:10554000780BE842E842E842EE6F6296EDB508D08B
:10555000EE51EA6AF20FE96E000EEA22EF7007D010
:10556000EE51EA6AF00FE96E000EEA22EF70EE519A
:1055700003E14EEC30F010D0000EE66EE66AED0E60
:10558000E66E000EE66E720EE66EE66A4FEC49F0CD
:10559000146E060EE15E1450DF2AC9D700D0A19820
:1055A000E552E552E7CFD9FF1200D9CFE6FFE1CFB0
:1055B000D9FF020EE126FD0EDBA407D0E66AFE0E3F
:1055C000DBCFE6FF24DAE552E552FD0EDBA208D080
:1055D000010EE66EFE0EDBCFE6FF19DAE552E5526C
:1055E000FE0EDB50156A260F146E0F0E152214C026
:1055F000DEFF15C0DDFFDECFE9FFDDCFEAFFFD0EE8
:10560000DBCFEFFF020EE15C02E2E16AE552E16E00
:10561000E552E7CFD9FF1200D9CFE6FFE1CFD9FF9E
:10562000020EE126FD0EDB500FE0FE0EEA6ADB34CF
:10563000FE0BEA36E96ED70EE926000EEA22EECF1F
:10564000DEFFEDCFDDFF0ED0FE0EEA6ADB34FE0B8F
:10565000EA36E96ED30EE926000EEA22EECFDEFF2F
:10566000EDCFDDFFD9CFE9FFDACFEAFFEE50ED1045
:1056700003E1F36AF46A49D0DECFE9FFDDCFEAFF48
:10568000020EE926000EEA22FB0EDBCFEEFFFC0E37
:10569000DBCFEDFFDECFE9FFDDCFEAFFEE52FA0E02
:1056A000DBCFEFFF400E146EDECFE9FFDDCFEAFF68
:1056B0001450EF16880E146EDECFE9FFDDCFEAFF3F
:1056C0001450EF12FD0EDB500CE0FE0EEA6ADB34E4
:1056D000FE0BEA36E96ED70EE926000EEA22EF74D9
:1056E0000BD0FE0EEA6ADB34FE0BEA36E96ED30E0F
:1056F000E926000EEA22EF74DECF14F0DDCF15F0BC
:1057000014C0F3FF15C0F4FF00D0020EE15C02E20A
:10571000E16AE552E16EE552E7CFD9FF1200D9CF39
:10572000E6FFE1CFD9FF020EE126FE0EDB5020E1BD
:10573000D1C0E9FFD2C0EAFFEE52400EEF6ED1C0F9
:10574000E9FFD2C0EAFF020EE926000EEA22200E8F
:10575000EE6E040EED6ED1C0E9FFD2C0EAFF8C0EF2
:10576000EF6ED7C0E9FFD8C0EAFF840EEF6E3DD0E0
:10577000FD0EDB50E824166EFE0EDB50040DF350D8
:105780001624040DF3CF14F0F4CF15F0000E1426F8
:10579000040E152214C0DEFF15C0DDFF840E146E4A
:1057A000DECFE9FFDDCFEAFF1450EF12FD0EDB5034
:1057B000E824166EFE0EDB50040DF3501624010F84
:1057C000040DF3CF14F0F4CF15F0000E1426040EE0
:1057D000152214C0DEFF15C0DDFF840E146EDECF6F
:1057E000E9FFDDCFEAFF1450EF12020EE15C02E2A6
:1057F000E16AE552E16EE552E7CFD9FF1200D9CF59
:10580000E6FFE1CFD9FF65A84ED0FE0EEA6ADB3491
:10581000FE0BEA36E96ED70EE926000EEA22EE50BC
:10582000EFCFEAFFE96E400EEE16EE6AEE6AEE6A20
:10583000FE0EEA6ADB34FE0BEA36E96ED70EE92685
:10584000000EEA22EE50EFCFEAFFE96EEE7CFE0E8C
:10585000EA6ADB34FE0BEA36E96ED70EE926000E63
:10586000EA22EF74400E146EFE0EEA6ADB34FE0B81
:10587000EA36E96ED70EE926000EEA22EE50EFCFA7
:10588000EAFFE96E1450EF16FE0EEA6ADB34FE0BF7
:10589000EA36E96ED70EE926000EEA22EE50EFCF87
:1058A000EAFFE96EEF7CE552E7CFD9FF1200656AA7
:1058B0000F01366B0001CC6B00D012000001CC51FF
:1058C00014E1656A0F01366B160E396F9F0E376F44
:1058D0007B0E366FD08EA288A088F28E65B602D07D
:1058E0006586FCD70001010ECC6F12000001F65155
:1058F0004DE1010EF66FF75149E1010EF76F020E0F
:10590000DC5D0DE1D7C0E9FFD8C0EAFFEE52EF6AD7
:10591000D7C0E9FFD8C0EAFFC80EEF6E37D0DC056C
:1059200035E1EF6BCFC0E9FFD0C0EAFFEE52400E89
:10593000EF6ECFC0E9FFD0C0EAFF020EE926000EED
:10594000EA22200EEE6E040EED6ECFC0E9FFD0C04D
:10595000EAFF840EEF6E010EEF6FD1C0E9FFD2C0F7
:10596000EAFFEE52400EEF6ED1C0E9FFD2C0EAFF6F
:10597000020EE926000EEA22200EEE6E040EED6EF7
:10598000D1C0E9FFD2C0EAFF800EEF6E1200000125
:10599000F86BF96B020EDC5D1AE1D1C0E9FFD2C0F1
:1059A000EAFFEE52400EEF6ED1C0E9FFD2C0EAFF2F
:1059B000020EE926000EEA22280EEE6E040EED6EAF
:1059C000D1C0E9FFD2C0EAFFC80EEF6E1FD0E05190
:1059D0000401265D0001E1510401275904E226C4B7
:1059E000E0F027C4E1F0D1D8D7C0E9FFD8C0EAFF82
:1059F000020EE926000EEA22280EEE6E040EED6E6F
:105A0000D7C0E9FFD8C0EAFFC80EEF6E1200D9CFA9
:105A1000E6FFE1CFD9FF020EE126000EDE6E040E96
:105A2000DD6EFD0EDB50E824166EFE0EDB50040D1D
:105A3000F3501624040DF3CF14F0F4CF15F0D9CFA2
:105A4000E9FFDACFEAFF1450EE261550ED22DECF43
:105A5000E9FFDDCFEAFFEF9EFD0EDB500FE1FE0E0A
:105A6000EA6ADB34FE0BEA36E96ED30EE926000E55
:105A7000EA22DECFEEFFDDCFEDFF0ED0FE0EEA6AAA
:105A8000DB34FE0BEA36E96ED70EE926000EEA2279
:105A9000DECFEEFFDDCFEDFFDECFE9FFDDCFEAFFAA
:105AA000EF9CDECFE9FFDDCFEAFF040EE926000E12
:105AB000EA22EF8C020EE15C02E2E16AE552E16E5D
:105AC000E552E7CFD9FF120065980001DFBF2BD068
:105AD000E4AF09D0020EDC6FF95101E158DF00019B
:105AE000F76BF66B1FD0D1C0E9FFD2C0EAFFEE52D0
:105AF000400EEF6ED1C0E9FFD2C0EAFF020EE926E8
:105B0000000EEA22200EEE6E040EED6ED1C0E9FF0B
:105B1000D2C0EAFF8C0EEF6ED7C0E9FFD8C0EAFF13
:105B2000840EEF6E31D0040120AF0DD00001010EC4
:105B3000DC6FF85101E12BDF0001F76BF66BF551DB
:105B400001E1D4DE21D00001020EDC6FD1C0E9FFFB
:105B5000D2C0EAFFEE52400EEF6ED1C0E9FFD2C0D4
:105B6000EAFF020EE926000EEA22200EEE6E040E77
:105B7000ED6ED1C0E9FFD2C0EAFF840EEF6EF76B85
:105B8000F66BF55101E1B2DE1200D9CFE6FFE1CFAD
:105B9000D9FFE652400EDF6E0001E05D000EE159D4
:105BA0000BE2E0C0DFFFDB5103E1010EDB6F04D04D
:105BB000DB0502E1020EDB6FDF50146E156A145034
:105BC000E05DE06F1550E159E16FD7C0E9FFD8C043
:105BD000EAFFEE52DFCFEFFF280EE96F040EEA6F07
