:072CF200900248EDF0AE0373
:102CF900E4FD90024A120BD80D900000EF120B7000
:102D0900900248E00D900001120B700D900002EE48
:0C2D1900120B70AF0674032FFF022A9A01
:102618007B017A02792290024A120BF87A02099019
:10262800024D120BF87A0209900250120BF87A0246
:102638007921122888EF6049900221E0FFA3E0FD8C
:10264800900224120BD890024A120BF87B017A02EE
:10265800792A90024D120BF8900223E0FB120056E3
:10266800900223EFF0900221E0FFA3E0FD7B017AC6
:1026780002792790024A120BF8900223E0FB122CF1
:01268800F25F
:01268900222E
:102D2500122F4C122516D2AF120051900226742193
:102D3500F07B207D007CFA7F007EFB123018121A92
:102D4500A87F307E0112307A12306512214C12268E
:032D55001880F5EE
:102E1200900251EFF0A3EDF012309F900251E04486
:102E220020FF123070900252E0FF123070D20A027C
:022E3200303935
:05000300900231EFF056
:10000800E4A3F012309F900231E0FF123070E4FF59
:10001800123070900232EFF0D20A12303990023268
:02002800E0FFF7
:01002A0022B3
:102C5400900251EFF0A3120BF812309F900251E052
:102C640044208017900255E0FF14F0EF60139002A7
:102C740052E475F001120BE1120B18FF1230708050
:062C8400E3D20A02303920
:102C1C0090026AEFF0A3120BF812309F90026AE058
:102C2C00FF12307090026EE0FF14F0EF6015E4FFBD
:102C3C0012307090026BE475F001120BE1EF120B85
:082C4C005E80E1D20A0230397A
:0D2FFE0012309F7FE1123070D20A0230398C
:0D300B0012309F7FE2123070D20A0230397D
:102A0D00900231120BF8900234EDF012309F9002CB
:102A1D0034E0FFC39401402AEFD3942050247F610A
:102A2D00123070900234E0FF14F0EF6015E4FF12E5
:102A3D003070900231E475F001120BE1EF120B5E74
:072A4D0080E1D20A023039DA
:102C8A00900251120BF8900254EDF012309F7FA07F
:102C9A008018900254E0FF14F0EF6013900251E4A0
:102CAA0075F001120BE1120B18FF12307080E3D29B
:042CBA000A023039A1
:102A540090026FEFF0A3120BF812309F90026FE018
:102A6400FF123070900273E0FFC394014023EFD350
:102A74009420501D900273E0FF14F0EF6013900255
:102A840070E475F001120BE1120B18FF1230708024
:062A9400E3D20A02303912
:1029C500900274EFF0A3120BF812309F900274E09E
:1029D500FF123070900278E0FFD394004025EFD3CA
:1029E5009420501F900278E0FF14F0EF6015E4FF8B
:1029F500123070900275E475F001120BE1EF120BC5
:082A05005E80E1D20A023039C3
:0B301800900226E090022CF0021BFF4B
:0E2FD400AB05AD07AC067A00E4FFFE022B2130
:0E2FE200AB05AD07AC067A00E4FFFE022AE064
:102F8400AB05AD07AC06EB7A007F057E00022B2172
:102F9400AB05AD07AC06EB7A007F057E00022AE0A4
:102FA400AB05AD07AC06EB7A007F0A7E00022B214D
:102FB400AB05AD07AC06EB7A007F0A7E00022AE07F
:102EC6008F828E83ED8BF0A4240FFFE435F0FEACE9
:082ED60083AD827A00022B217A
:102EDE008F828E83ED8BF0A4240FFFE435F0FEACD1
:082EEE0083AD827A00022AE0A4
:03004E00022E5629
:0330CD0002282FA7
:102F3800A2AF92D5C2AFD2FD8FFA20FCFDC2FDA28E
:042F4800D592AF224D
:102DEE00A2AF92D5C2AF75FAAA75FA55D2FD8E086A
:102DFE008F09850982850883EDF020FCFDC2FDA2B6
:032E0E00D592AFAB
:012E1100229E
:0628DA0090025A120BF8F7
:1028E000A2AF92D5C2AF75FAAA75FA55D2FD8E0A7B
:1028F0008F0B90025D74FFF5F0120BA845F0602479
:1029000090025AE475F001120BE1120B18FF050B4F
:10291000E50BAC0A7002050A14F5828C83EFF030E7
:0A292000FCD080FBC2FDA2D592AFEF
:01292A00228A
:0630BA008F828E83E0FF0F
:0130C00022ED
:102D7F0090025A74FFF5F0120BA845F060168F827F
:102D8F008E83E0120B5E0FBF00010E740129F9E470
:042D9F003AFA80DCA0
:012DA300220D
:09173600420279000041027B002F
:102F4C0075C81075CBFA75CACA75CDFA75CCCAD2CC
:042F5C00C8D2AD2208
:09308400900279E0FEA3E0FF22B6
:082B6200900231EEF0A3EFF048
:102B6A00E4FDFC123084900231E0FAA3E0FBD39F2B
:102B7A00EA9E5009C3EF9BFDEE9AFC801590023144
:102B8A00E0FCA3E0FDC3E49DFDE49CFCEF2DFDEE1B
:062B9A003CFCAE04AF0597
:012BA0002212
:102F6000C2ADE490027BF0D2AD90027BE0C39F4003
:022F7000F82245
:0E2FF000E4F588F58CF58A7589017588102244
:09308D00AF8CEFFEAD8AEDFF22CD
:03002B00022BDFC6
:102BDF00C0E0C0F0C083C082C085C084C092539251
:102BEF00FEC0D075D000C000C2C690027BE004F0DA
:102BFF00900279E475F001120B92D000D0D0D092F0
:0D2C0F00D084D085D082D083D0F0D0E032C8
:10173F00420268FFFF42025FFFFF410266FF410264
:10174F0067FF420262FF00420264FF004102610034
:0630C100900261E0FF2215
:102EAD008B828A83AA04A9057B01AC83AD82900233
:092EBD005AECF0A3EDF0022D7FA8
:101BFF00E490022DF0A3F0900268EEF0A3EFF0AFA7
:101C0F000590025FECF0A3EFF0900266EBF090020C
:101C1F002CE0900267F0A3E0FEA3E0FF7B017A02C5
:101C2F00792D90025AE4F0A304F0122D7F90025FF9
:101C3F00E0FEA3E0FF7B017A02792E90025AE4F0D6
:101C4F00A304F0122D7F90022EE0FF90022DE0FEF4
:101C5F00B50721900268E0FDA3E0900262CDF0A3EA
:101C6F00EDF090025FE0FDA3E0900264CDF0A3EDF4
:101C7F00F0021D46EF70047F0180027F00EEB4FF7B
:101C8F00047E0180027E00EE5F601590025FE0FF30
:101C9F00A3E0900262CFF0A3EFF0900268021D3A2A
:101CAF0090022EE0FFB4FF047E0180027E009002BE
:101CBF002DE0FD70047C0180027C00EC5E602090C2
:101CCF000268E0FBA3E0900262CBF0A3EBF090027E
:101CDF005FE0FBA3E0900264CBF0A3EBF08058ED44
:101CEF00D39F4014900268E0FFA3E0900262CFF010
:101CFF00A3EFF090025F803390022EE0FF90022D51
:101D0F00E0C39F501490025FE0FFA3E0900262CF08
:101D1F00F0A3EFF09002688012900268E0FFA3E05A
:101D2F00900262CFF0A3EFF090025FE0FFA3E0908C
:0F1D3F000264CFF0A3EFF090022DE0900261F06C
:011D4E002272
:102E5600900266E0FF90025FE0FCA3E0FD90026452
:102E6600E0B5040AA3E0B50505900267E0FF022F6E
:012E76003823
:10282F00E4900254F0900262E0FEA3E0FF7B017A95
:10283F0002795490025AE4F0A304F0122D7F900213
:10284F0054E004F0900264E0FEA3E0FF7B017A0203
:10285F00795490025DE4F0A304F01228DA9002623A
:10286F00E0FEA3E0FFA3E0FDA3E0900262CDF0A3A2
:08287F00EDF0A3EEF0A3EFF071
:01288700222E
:102AE000900254EEF0A3EFF0A3EAF0A3EBF0900213
:102AF00065E02401FF900264E034009002548FF0FE
:102B0000120B92900254E0FEA3E0FFAA04A9057BF9
:102B100001A3E0FDA3E090025DCDF0A3EDF002285B
:012B2000DADA
:102B2100900225EEF0A3EFF0A3EAF0A3EBF0900200
:102B310063E02401FF900262E034009002258FF0EF
:102B4100120B92900225E0FEA3E0FFAA04A9057BE7
:102B510001A3E0FDA3E090025ACDF0A3EDF0022D18
:012B61007FF4
:01005100228C
:0A3070008FE7E5E630E1FBAFE72251
:0A302300A2B9920BA20A92B9A20B07
:01302D002280
:08309600A2B9920AC2B9A20A14
:01309E00220F
:0A302E00A2EA9207A20692EAA207A6
:013038002275
:08309F00A2E9920AC2E9A20AAB
:0130A7002206
:0A303900A2E9920BA20A92E9A20B91
:01304300226A
:0A304400A2E8920BA20A92E8A20B88
:01304E00225F
:0830A800A2E8920AC2E8A20AA4
:0130B00022FD
:0A304F00A2E8920DA20C92E8A20D77
:013059002254
:0830B100A2E8920EC2E8A20E93
:0130B90022F4
:10175F0041019402410050004201700000602001DD
:10176F009AFFFFFFFFFFFFFFFFFFFFFFFFFFFFFFDF
:10177F00FFFFFFFFFFFFFFFFFFFFFFFFFFFFFFFF6A
:10178F00FF440075FFFFFFFF410145FE420071005E
:10179F00004101990141019601440051AEABAEAB3E
:1017AF00440056FFFFFFFF4101970060200174FFC7
:1017BF00FFFFFFFFFFFFFFFFFFFFFFFFFFFFFFFF2A
:1017CF00FFFFFFFFFFFFFFFFFFFFFFFFFFFFFF60B9
:1017DF00200030FFFFFFFFFFFFFFFFFFFFFFFFFFB7
:1017EF00FFFFFFFFFFFFFFFFFFFFFFFFFFFFFFFFFA
:1017FF00FFFFFF60200010FFFFFFFFFFFFFFFFFF56
:10180F00FFFFFFFFFFFFFFFFFFFFFFFFFFFFFFFFD9
:10181F00FFFFFFFFFFFFFF60200150FFFFFFFFFFF4
:10182F00FFFFFFFFFFFFFFFFFFFFFFFFFFFFFFFFB9
:10183F00FFFFFFFFFFFFFFFFFFFFFF41014F0041D2
:10184F00014B004101460041014700410148004161
:10185F00014900410074004100790041007A0041C4
:10186F000142004201C300004100550141019800AF
:10187F00410008014101730041000700410141008F
:10188F0041005E004100020041007000440003BCB3
:10189F00BCBCBC4401BF3FAA9FBE42006C0189443F
:1018AF0000680A2E1C4041000900420062000042FD
:1018BF0001430000420060000042014D0000420160
:1018CF00C5000042000A000041014A0142006E00BB
:1018DF0000C105410172004100730041014C00C17C
:1018EF0004C101C100C103C102410195004101BA08
:0D18FF000041005F4E41000000410001006B
:101AA800E4900221F0A3F0A3F0A3F07E017FBB7DB8
:101AB80004122FD47E007F0C7D04122F847E007FB9
:101AC8005A7D04122FA4E4900221F0900221E0FD37
:101AD80075F016A4247BF582E43400AF82FE7B16F1
:101AE800122EC6900221E004F0E0C3940840DCE422
:101AF800900221F0900221E0FFC394165014742B39
:101B08002FF582E43401F583E4F0900221E004F03B
:101B180080E21230C1900221EFF0E0FD04FE25E0E2
:101B280025E054FC900141F0ED240225E025E05425
:101B3800FC90005EF0E4900222F0900221F0900206
:101B480021E0FFC39404501C74BB2FF582E43401D8
:101B5800F583E0B4FF06900222E004F0900221E051
:101B680004F080DA900222E0B404197B017A00794B
:101B780051900257120BF890025A7404F07A0179C6
:101B8800BB1227971223FA7B017A00790C7D041285
:101B98002DA4920130012290014F74EEF0E49001DF
:101BA800C3F0A3F090005504F0E4900198F01230CF
:101BB80084900143EEF0A3EFF07B017A00795A7D1F
:101BC80004122DA4920030002290014B74EEF0E430
:101BD8009001C3F0A3F090000804F0E4900173F0C2
:101BE800123084900060EEF0A3EFF0123084900180
:061BF800C5EEF0A3EFF0C2
:011BFE0022C4
:1023FA001230961230A8D20612302E900009E0242C
:10240A0068F582E43400F583E0FD7F05122E127D23
:10241A003FE4FF122E12E4FD7F01122E127D037F8C
:10242A0002122E127D027F03122E12E4FD7F041285
:10243A002E127D0F7F06122E127D707F07122E122A
:10244A007B017A0079039002557404F07F0A122CFA
:10245A00547B017A0179BB9002557404F07F0B1208
:10246A002C547D207F11122E127D207F12122E12E3
:10247A00122FFE12300BD20A123044D20A02302333
:062DA400900225120BF85D
:102DAA00E4FFEFC39D5016900225120BD88F82754F
:0E2DBA008300120B31F46002D3220F80E5C3B8
:012DC80022E8
:10268A007B017A01799A7D20122C8A7B017A017961
:10269A009A7D20122C8A7B017A01799A7D20122C4C
:1026AA008AD20A123044122FF012308DC3EF94EE00
:1026BA00EE940240F41230A87B017A01799A7D20C7
:1026CA00122C8A7B017A01799A7D20122C8A7B014D
:1026DA007A01799A7D20122C8AD20A123044122F5A
:1026EA00F012308DC3EF94EEEE940240F40230A85B
:10152000900050E0FF6003B40202C322EFB4014216
:10153000122E34900170E475F001120B929001703C
:10154000E0FEA3E0FFC39420EE944E4010E490012F
:1015500070F0A3F090019A74FFF0021734C3EF9477
:1015600010EE9427500302173490019A74FEF00293
:101570001734900050E0B4060C2004030217341214
:1015800022B3021734900050E0FF640C700302177E
:1015900034EF640D6003021734900195E0FF64029C
:1015A0007003021734EFB4041712268A90005FE02C
:1015B000B40205744EF0806790005F7402F0805FA3
:1015C000900195E06405702412268A1230A89000DC
:1015D0005FE0FFB402057429F0800FEF90005FB464
:1015E0002905744EF080037402F08033900195E079
:1015F0006406703812268A90005FE0FFB40A057412
:101600001CF0801BEFB41C0890005F742EF0800F5C
:10161000EF90005FB42E057440F08003740AF090E0
:10162000005FE0FD7F05122E12021734900195E055
:10163000640760030216C9900000E0FF60096401BE
:101640006005EF6402703712268A900000E0700790
:1016500090005F7429805B900000E0B40107900067
:101660005F7402804D900000E06402704C122FFE07
:1016700012300B7D707F07122E127D3F8019900073
:1016800000E0B4031E1230A8122FFE12300B7D7042
:101690007F07122E127D3EE4FF122E12D20A123064
:1016A000448016900000E0B4040F1230A890005F50
:1016B000744EF0FD7F05122E12900000E004F0E061
:1016C000D39404406FE4F0806B900195E06408705F
:1016D00063900000E070301230A890005F7402F058
:1016E000FD7F05122E12122FFE12300B7D707F0728
:1016F000122E127D3FE4FF122E12D20A12304490B5
:1017000000007401F0802D1230A890005F7402F088
:10171000FD7F05122E12122FFE12300B7D707F07F7
:10172000122E127D3EE4FF122E12D20A123044E431
:05173000900000F0D361
:011735002291
:102F720090014FE06002D32290014BE06002D32225
:022F8200C32268
:10002E00EFB40206E490014FF022EF70028009EF68
:0D003E00B40309E490014FF090014BF02253
:102CBE00122F72502E90014FE06488602690014BC7
:102CCE00E06488601E90000AE0FEA3E0FF122B6213
:102CDE00D3EF94B8EE940B400A7F0212002EE4FF5D
:042CEE0012002E2280
:10236600E490022BF0ED7015EF75F016A4248FF5AE
:1023760082E43400F583E064016002D322ED601547
:10238600EF75F016A42490F582E43400F583E0643A
:10239600016002D322AB01ED700EEF75F016A42496
:1023A6007BF582E43400800CEF75F016A42485F5E5
:1023B60082E43400AF8290022CF0A3EFF0E49002A6
:1023C6002BF08B828A83E0FF90022CE0FCA3E0F5E1
:1023D600828C83E06F6002D32290022CE475F001B8
:1023E600120B920BBB00010A90022BE004F0E0B442
:0323F6000AD0C347
:0123F90022C1
:0D208200900225120BF8AE05900224EFF03D
:10208F00E4900228F0A3F0A3F0EFC39408400302FA
:10209F00214B900224E0FFA3120BD81223664003BA
:1020AF0002214BEE900224701EE0FF75F016A4245F
:1020BF008FF582E43400F5837401F0EF75F016A408
:1020CF00247BF97400801CE0FF75F016A42490F5B2
:1020DF0082E43400F5837401F0EF75F016A42485C3
:1020EF00F9740035F0FA7B01C003C002C001900201
:1020FF0025120BD8900257120BF890025A740AF05F
:10210F00D001D002D003122797900224E0FF75F080
:10211F0016A42490F582E43400F583E0B4011DEF9A
:10212F0075F016A4248FF582E43400F583E0B40132
:0C213F000B90014C7401F0E4FF121F93A0
:01214B002271
:102200009002237408F0E4FBFA900199E070067ADA
:10221000017B50800A900196E070047A017B74EB98
:102220004A70030222B2EB240BF582E43AF583E014
:10223000540624FE601824FE602624FE6022240634
:102240007026EB2406F582E43AF583E0800CEB245B
:102250000EF582E43AF583E02403900223F0800E29
:102260009002237407F080069002237408F0EB2498
:102270000CF582E43AF583E07030EB240DF582E44E
:102280003AF583E06024900223E0FFC39408501ADB
:10229000EB2413F582E43AF583E0FEFDEB2414FB16
:1022A000E43AFAA9037B01122082900223E0900114
:0222B00097F0A5
:0122B2002209
:10214C00E4900221F0A3F012152050030221FF307D
:10215C000405120C88807E900199E060069001962F
:10216C00E070721222003001069002217401F030EE
:10217C0000069002227401F07B017A01799690029C
:10218C0026120BF87A017950900229120BF87A0179
:10219C00797490022C120BF890014FE090022FF002
:1021AC0090014BE0900230F0900197E075F016A48E
:1021BC00247BF9740035F0FA900231120BF890027E
:1021CC0021E0900234F0900222E0900235F07A0186
:1021DC007999121941900001E014600804700F12F3
:1021EC002CBE8003122DC9900001E004F022E49073
:0321FC000001F0EF
:0121FF0022BD
:102E34007B017A01799A7D20122C8AD20A123044BD
:102E4400122FF012308DC3EF94D0EE940740F402A9
:022E540030A8A4
:102E7700900055E0600FE4F074202F900198F070F7
:0B2E870004E02420F0900198E0FF22FE
:102E9200900008E0600FE4F074202F900173F0704E
:0B2EA20004E02420F0900173E0FF2208
:0B305A00EDB40203022E77122E92222A
:0D005600900248EDF0A3EBF0900247EFF0B0
:10006300C206E4900250F0EF120C5000AE0100F80B
:1000730002011103012C04015C06021009022B0A80
:1000830002A70B02510C01BF0D038C87034D89029C
:10009300E490031D9104CE9205359405B69506A10F
:1000A3009606B697063FFF000006D19000507401F4
:1000B300F0E4900170F0A3F090019A74FF12276AA4
:1000C3001230A8900194E0FD7F05122E127B017A75
:1000D3000079759002557404F07F10122C54122F7E
:1000E300FE12300B7D707F07122E127D3EE4FF124D
:1000F3002E120206C09000507402F090024D120BB3
:10010300D8E4FF12259E900249EFF00206D37F0147
:100113001230C71230961230A89001997401F090F2
:100123000196F0C204C28080197F011230C71230D9
:10013300961230A89001997401F0900196F0C204D0
:10014300D28090024D120BD87401120B5E90024DB7
:10015300120BD890000102063C9000507406F0E4A4
:10016300900170F0A3F090019A74FFF09001451490
:10017300F0E4900071F0A312276A1230A8123096AF
:10018300900194E0FD7F05122E127B017A007975B0
:100193009002557404F07F0A122C54122FFE123071
:1001A3000B7D707F07122E127D3FE4FF122E12D2B9
:1001B3000A123044D20A1230230206C0900050744F
:1001C3000DF090024A120BD8120B18900195F09083
:1001D300005F744E1227771230A890005F7429F0E5
:1001E300FD7F05122E12122FFE12300B7D707F073A
:1001F300122E12900195E0B402047D3F80027D3EF1
:10020300E4FF122E12D20A1230440206C0E4900018
:1002130050F0FF1230C790024D120BD87401120B2D
:100223005EE4900249F080FE90024D120BD87401F7
:10023300120B5E900071E0FCA3E0FDECFF90024D19
:10024300120BD8900001EF120B70ED02033E122740
:100253006390019A74FFF07B017A01799A7D2012F1
:100263002C8A7D1F7F06122E121230A8900194E073
:10027300FD7F05122E127B017A0079759002557469
:1002830004F07F10122C547D707F07122E127D3ED6
:10029300E4FF122E12E4FD7FE3122E12D20A123073
:1002A300440206C01227631230A8900194E0FD7F38
:1002B30005122E127B017A0079759002557404F0B1
:1002C3007F10122C54122FFE12300B7D707F0712F9
:1002D3002E127D3EE4FF122E12D20A123044020681
:1002E300C090024D120BD87401120B5E90014FE0C7
:1002F300FF90024D120BD8900001EF120B7090018A
:100303004BE0900002120B709002497403F0E490EA
:10031300014FF090014BF00206D390024D120BD81F
:100323007401120B5E90014FE0FF90024D120BD847
:10033300900001EF120B7090014BE0900002120B42
:10034300709002497403F00206D37F01121F9312C7
:1003530030961230A87B017A0179BB900255740460
:10036300F07F0B122C547D707F07122E12122FFE7A
:1003730012300BD20A123044D20A123023E4900115
:100383004FF090014BF00206C0E4900249F0900256
:100393004D120BD8900249E0FF04F08F8275830061
:1003A3007401120B70A201E433FF900249E0FE04D2
:1003B300F08E82758300EF120B70A200E433FF907E
:1003C3000249E0FE04F08E82758300EF120B7090F9
:1003D300000CE0FF900249E0FE04F08E827583007A
:1003E300EF120B7090000DE0FF900249E0FE04F065
:1003F3008E82758300EF120B7090000EE0FF900267
:1004030049E0FE04F08E82758300EF120B709000BA
:100413000FE0FF900249E0FE04F08E82758300EF47
:10042300120B7090005AE0FF900249E0FE04F08E38
:1004330082758300EF120B7090005BE0FF9002491E
:10044300E0FE04F08E82758300EF120B7090005C67
:10045300E0FF900249E0FE04F08E82758300EF1204
:100463000B7090005DE0FF900249E0FE04F08E8285
:10047300758300EF120B709001BBE0FF900249E01F
:10048300FE04F08E82758300EF120B709001BCE0C6
:10049300FF900249E0FE04F08E82758300EF120B99
:1004A300709001BDE0FF900249E0FE04F08E82757A
:1004B3008300EF120B709001BEE0FF900249E0FE53
:1004C30004F08E82758300EF02069C90024D120B9E
:1004D300D87401120B5E900248E0FF90024D120B9C
:1004E300D8900001EF120B70EFB40215E92402F962
:1004F300E43AFAC003C002C0017B017A017950805B
:100503001990024D120BD8E92402F9E43AFAC00318
:10051300C002C0017B017A017974900257120BF873
:1005230090025A7420F0D001D002D0031227970210
:1005330006D3E4900249F090024D120BD890024981
:10054300E0FF04F08F827583007401120B70900238
:1005530049E07E0029F9EE3AFAC003C002C001A3C4
:10056300120BD8120B1875F016A4247BF9740035FE
:10057300F0FA7B01900257120BF890025A7416F0AE
:10058300D001D002D003122797900249E02416F03D
:1005930090014CE0FF90024D120BD8900249E0FE0F
:1005A30004F08E82758300EF120B70E490014CF01F
:1005B3000206D3E4900249F0A3120BD89000021272
:1005C3000B31D3942090024D5060120BD890024906
:1005D300E0FF04F08F827583007401120B709002A8
:1005E3004A120BD8900001120B31FD120B18FEEDCD
:1005F300FF90024D120BD8900249E07C0029F9ECE0
:100603003AFCAD01A3120BD8900002120B31FB7A16
:1006130000122EAD90024A120BD8900002120B3139
:10062300FF900249E02FF00206D3120BD890024943
:10063300E0FF04F08F82758300E4805DE49002495B
:10064300F090024D120BD8900249E0FF04F08F8224
:100653007583007401120B70900249E0FF04F08F60
:100663008275830074AA120B70900249E0FF04F0B4
:100673008F827583007455120B70900249E0FF045A
:10068300F08F827583007401120B70900249E0FFB2
:1006930004F08F827583007409120B708032E4902A
:1006A3000002F0900070F0D20A123044D20A1230E5
:1006B30023800A9000027401F0900070F090024DC4
:1006C300120BD87401120B5E900249F08002D2061D
:1006D300200603020855122F72503F90014FE06429
:1006E300EE603790014BE064EE602F90024D120BE9
:1006F300D8E4120B5E90014FE0FF90024D120BD82D
:10070300900001EF120B7090014BE0900002120B6E
:10071300709002497403F0020855900247E0648820
:100723007077A2019203A2009202C201C20090015B
:100733009904F0900196F01230961230A87B017A5A
:100743000079569002557404F07F0B122C547D707F
:100753007F07122E12122FFE12300BE4900250F07C
:10076300900250E0FFC39420502074502FF582E490
:100773003401F583E4F074742FF582E43401F583D6
:10078300E4F0900250E004F080D6122EF6C204D2B8
:100793000A123044D20A123023900248E0FF640365
:1007A3006005EF64027041900247E090014FF090C2
:1007B30000557401F0900198E0FF122E7790024AE1
:1007C300120BD8120B18900146F0900001120B3156
:1007D300900147F0900004120B31900148F0900013
:1007E30005120B31900149F0900248E0FF64036069
:1007F30003EF7044900247E090014BF090000874BF
:1008030001F0900173E0FF122E9290024A120BD86E
:10081300900002120B31900074F0900003120B3120
:10082300900079F0900006120B3190007AF090005E
:1008330007120B31900142F012308490000AEEF05F
:10084300A3EFF090024D120BD87401120B5E9002CD
:0708530049F0900249E0FFAB
:01085A00227B
:102BA100C208C209900009E02FF0E0C3940440027A
:102BB100E4F012309692081230A89209900009E0D0
:102BC1002468F582E43400F583E0FD7F05122E12BE
:0E2BD100A209920A123044A208920A0230238E
:102DC90090014DE0FEA3E0FF122B62D3EF94E8EEF1
:102DD9009403401012308490014DEEF0A3EFF07F80
:052DE90001122BA122E4
:051F9300900251EFF087
:101F9800E4A3F0A3F0900002E06003022081200196
:101FA800062000030220792001197B017A00795666
:101FB800900257120BF890025A7404F07A00790CC8
:101FC8001227972000197B017A0079569002571240
:101FD8000BF890025A7404F07A00795A1227971273
:101FE800004E7E017FBB7D04122FE27E007F0C7DB8
:101FF80004122F947E007F5A7D04122FB490025150
:10200800E064017040A3F0E4900253F0900253E0C2
:10201800FFC394165025900252E075F016A4247B55
:10202800F582E43400F583E5822FF582E43583F503
:1020380083E4F0900253E004F080D1900252E0046F
:10204800F0E0B408C2E4900252F0900252E0FD754C
:10205800F016A4247BF582E43400AF82FE7B1612CE
:102068002EDE900252E004F0E0C3940840DC023017
:09207800CDA2039201A202920024
:01208100223C
:10276300900247E0900050F090024A120BD8120BEF
:1027730018900194F090024A120BD8E92401F9E46D
:102783003AFA900257120BF890025A7404F07B0144
:042793007A007975DA
:06279700900254120BF841
:10279D00E4FF90025AE0FEEFC39E502190025712C3
:1027AD000BD88F82758300120B31FE900254120BE1
:0D27BD00D88F82758300EE120B700F80D54F
:0127CA0022EC
:102F0D00900010E0541CFEBE100AA3E030E005EF67
:062F1D007002D322C32262
:102D5800900010E0541C640C701BA3E030E016EFE8
:102D680064017011EDB40205300102D322ED700543
:072D7800300002D322C32248
:102FC400EF7B01B402057A00790C227A00795A2247
:10292B007B017A007930900225E0FD900235740C22
:10293B00F0A37401F0900224E0900237F090022C87
:05294B00E0900238F0ED
:10295000AF05900237E0FD12305A900235E04F1279
:102960000B5E900237E0FFA3E04FFF900236E04F8E
:09297000900001120B707F02229D
:072F23002430F9E43400FA48
:0E2F2A00E4120B5E900001ED120B707F02228C
:0626FA00900231120BF802
:10270000E4FF900235E0FE900231120BD80F9000EA
:1027100000EE120B700F9000017402120B70EDB4FA
:10272000021B900146E0FE900231120BD89000028D
:10273000EE120B70900147E090000380209000742F
:10274000E0FE900231120BD8AD070F8D8275830029
:10275000EE120B70900079E08F82758300120B707F
:022760007F04F4
:012762002254
:0B1D4F00900231120BF8900234EDF00E
:101D5A00E4FFA3E0FD64346063900231120BD80FF4
:101D6A00900000ED120B700F9000017402120B70BC
:101D7A00900234E0B4021B900146E0FD9002311259
:101D8A000BD8900002ED120B70900147E09000030F
:101D9A008022900074E0FD900231120BD8AC070F3C
:101DAA008C82758300ED120B70900079E0AC078C81
:101DBA0082758300120B707E04021E74900235E055
:101DCA00FD900231120BD8AC070F8C82758300ED9F
:101DDA00120B70AD070F8D827583007404120B709D
:101DEA00900234E06402703F900146E0FD900231B7
:101DFA00120BD8AC070F8C82758300ED120B709012
:101E0A000147E0AC070F8C82758300120B709001BA
:101E1A0048E0AC070F8C82758300120B7090014961
:101E2A00E0AC078C82803B900074E0FD9002311296
:101E3A000BD8AC070F8C82758300ED120B709000E3
:101E4A0079E0AC070F8C82758300120B7090007AD0
:101E5A00E0AC070F8C82758300120B70900142E090
:0C1E6A008F82758300120B707E06AF069D
:011E76002249
:061E7700900231120BF88D
:101E7D00E4FC9002367412F0EDB4881D900235E04A
:101E8D006017900231120BD80C9000007493120B56
:101E9D00700C9000017414801C900231120BD8AF9D
:101EAD00040C8F82758300ED120B70AF040C8F82C2
:101EBD007583007410120B70900231120BD8EC7EEA
:101ECD000029F9EE3AFAC003C002C0017B017A0085
:101EDD00791C900257120BF890025A740AF0D00137
:101EED00D002D003122797EF2CFC900231120BD8A1
:101EFD00EC7E0029F9EE3AFAC003C002C0017B0165
:101F0D007A0179BB900257120BF890025A7404F0C3
:101F1D00D001D002D003122797EF2CFC9002311282
:101F2D000BD8AF040C8F82758300E4120B70AF04D5
:101F3D000C8F82758300E4120B70ED6488704190F4
:101F4D000235E0603B900231120BD8AF040C8F824A
:101F5D00758300E4120B70AF040C8F82758300E45F
:101F6D00120B70AF040C8F82758300740D120B7001
:101F7D008C82758300E4120B70900236E02404F01D
:051F8D00900236E0FFA8
:011F9200222C
:06259E00900251120BF83F
:1025A400E4FEEF900251705A120BD80E90000074A2
:1025B40001120B70900172E0FF0E900001E4120B07
:1025C40070EF0E900002120B70900073E0FF0E90FB
:1025D4000003E4120B70EF0E900004120B709000D5
:1025E40007E0FF0E900005E4120B70EF0E9000065A
:1025F400120B70E4900172F0900073F0900007F0F9
:10260400800F120BD8AF060E8F82758300E4120B75
:0326140070AF069E
:0126170022A0
:1027CB00900231EEF0A3EFF0A3120BF87B017A002D
:1027DB0079307D20122C8A900233120BD89002553F
:1027EB007404F07F10122C547D3EE4FF122E121253
:1027FB00308DD3900232E09F900231E09E50F0D2A8
:10280B000A123044122FF012308DC3EF9420EE9445
:10281B000340F41230A87D707F07122E127D3FE427
:04282B00FF022E1268
:03004B000229790E
:10297900C0E0C0F0C083C082C085C084C0925392B9
:10298900FEC0D075D000C000C001C002C003C004A1
:10299900C005C006C007D204122FF0D007D006D058
:1029A90005D004D003D002D001D000D0D0D092D02D
:0C29B90084D085D082D083D0F0D0E032F2
:1022B300E4900223F0D2061230A8123096C2047FB3
:1022C30007120003EF540EFFC313600302234F7B77
:1022D300017A0079107D20122A0D9002237401F0F7
:1022E300900223E0FFC39420501B30061874102F74
:1022F300F582E43400F583E0F46002C20690022321
:10230300E004F080DB300644900010E0FFF460044A
:10231300EFB4FE38900145E0FEB5070C900170E480
:1023230075F001120B928024900010E0FF6E601C88
:10233300900145EFF0900170E0FFA3E0900071CFB2
:10234300F0A3EFF0900170E4F0A304F0122FFE125B
:10235300300B7D707F07122E12D20A123044D20A3C
:0323630002302322
:100C8800C206C207E4900223F0A3F0A3F0A3F0A3E6
:100C980004F0E4A3F0A3F0A3F0A3F0A3F0A3F0A35F
:100CA800F0A3F0A3F01230A8123096C2047F071206
:100CB8000003EF540EFFC313900223F0C3940240C5
:100CC800030210467B017A0079107D20122A0D7DDF
:100CD800707F07122E12900011E0FE540290022439
:100CE800F0900010E054E0900225F0EE54FCA3F0E0
:100CF800900012E0900227F0900013E0900228F094
:100D0800900014E0FEA3E07C002400FFEC3EFEEF20
:100D18007803C333CE33CED8F9FF90022FEEF0A379
:100D2800EFF0FDAC06E4120A5E9001BF120BCC1284
:100D38000953C004C005C006C00790006CE0FCA3BE
:100D4800E0FDE4120A5EA804A905AA06AB07D007CD
:100D5800D006D005D00412085E120A9790022FEE32
:100D6800F0A3EFF0900224E0FFB4021590014FE0E9
:100D7800900229F0900198E090022BF090014180B8
:100D880016EF701890014BE0900229F0900173E083
:100D980090022BF090005EE090022CF0900223E08D
:100DA800FF122F0D501CD206900016E090022AF078
:100DB800900017E0900228F090002CE0541EC31316
:100DC8008029900223E0FFA3E0FD122D585020D285
:100DD8000790001CE090022AF090001DE090022885
:100DE800F090001BE054E0C413540790022EF090DA
:100DF8000229E0FF7003020FCA200606200703023B
:100E08000EBBEF64887003020EBB90022AE06F707D
:100E18001C900225E0FF90022BE0B50710A3E0FE2E
:100E2800900226E0B50606EF6003020F5D12292B3B
:100E380090022DEFF07D04122F2390022DE02FF069
:100E4800A3E0700D90022DE02430F9E43400FA801C
:100E580039900229E0FF64346004EFB4381F90022F
:100E68002DE02430F9E43400FA7B01900224E0FDFF
:100E7800900229E0900235F0121D4F801D90022D3E
:100E8800E02430F9E43400FA7B01900224E0FD907C
:100E98000229E0900235F01226FA90022DE02FF098
:100EA800900224E0FF122FC490022FE0FEA3E0FF7F
:100EB800020FC7200603020FCA900229E064886067
:100EC80003020FCAA3E0FF64886008EF649360031D
:100ED800020F68900225E0FF90022BE06F6003028A
:100EE8000F68A3E0FE900226E06E7074EF607190C8
:100EF8000224E0B4021AD2017B017A007918900228
:100F080057120BF890025A7404F07A00790C801882
:100F1800D2007B017A007918900257120BF89002E0
:100F28005A7404F07A00795A1227977B017A00796B
:100F380026900257120BF890025A7404F07A01793D
:100F4800BB1227977B017A0179BB9002557404F094
:100F58007F0B122C54900224E0FF12002E020FCABD
:100F680090002CE030E75B7B017A007918900257FB
:100F7800120BF890025A7404F07A007964122797D9
:100F880012292B90022DEFF07D12122F2390022DA3
:100F9800E02FF0E02430F9E43400FA900229E0FD73
:100FA80090022EE0900235F0121E7790022DE02F6D
:100FB800F090022FE0FEA3E0FF7B017A0079641233
:100FC80027CB300608900172E004F080663007688D
:100FD800900073E004F0900224E0B40228E4900149
:100FE80099F0123084900143EEF0A3EFF07B017A80
:100FF800007910900257120BF890025A7420F07A78
:10100800017950802B900224E07028900196F0120C
:101018003084900060EEF0A3EFF07B017A00791045
:10102800900257120BF890025A7420F07A017974E2
:10103800122797122DC98006900007E004F0122F9E
:10104800FE12300B7D707F07122E12900070E07038
:0B1058000AD20A123044D20A123023E0
:01106300226A
:0A307A0075AD02EFF5AFEEF5AF22E1
:0A306500AFAFAEAF8FAFAF068FAF75
:01306F00223E
:10190C0041021D0041021E004101C7004101C801F6
:10191C004101C9004101CA004101D4004101CB0081
:10192C004101CC004101CD004101CE004101D2006A
:04193C004101D30092
:0630C70090021EEFF02252
:102888009001C7E0FF900300E0FE6F60429001C72F
:10289800EEF0900302E0120B5E900303E0FF90025B
:1028A8004A120BD8EF120B5E900301E0FF90024D25
:1028B800120BD8EF120B5E7B017A037904C003C0B8
:1028C80002C001900250120BD8120C017F01227F26
:0128D80000FF
:0128D90022DC
:062A9A0090024D120BF842
:102AA000EFD3942040027F20E4FEEEC39F501E909F
:102AB000024D120BD88E82758300120B31FD7426E5
:102AC0002EF582E43403F583EDF00E80DD900325CE
:0F2AD000EFF09001C8E0900324F09001C804F0EB
:012ADF0022D4
:1012D000120BD8E92406F9E43AFA900236120BF818
:1012E000900236120BD890023F120BF8900239127E
:0212F0000BD819
:0612F20090023C120BF813
:1012F80090023F120BD8120B18FF90023C120BD829
:10130800EF120B5E90023F120BD8900001120B31C6
:10131800FF90023C120BD8900001EF120B70900264
:101328003F120BD8900002120B31FF90023C120BB7
:10133800D8900002EF120B7090023F120BD8900069
:1013480003120B31FF90023C120BD8900003EF12EE
:101358000B7090023F120BD8900004120B31FF90D3
:10136800023C120BD8900004EF120B7090023F124F
:101378000BD8900018120B31FF90023C120BD8903A
:101388000005EF120B7090023F120BD89000051267
:101398000B311313135403FF90023C120BD8900027
:1013A80009EF120B7090023F120BD8900006120B37
:1013B800317008900007120B317013900007120B60
:1013C80031FF64116008EF6412600302151F900278
:1013D8003C120BD89000067401120B70900007E4C1
:1013E800120B7090023F120BD8900009120B31FFBC
:1013F80090023C120BD8900008EF120B7090023F3D
:10140800120BD8900005120B31540624FE600C24F0
:10141800FE602124FE60342406804790023F120BB0
:10142800D8900008120B31FE90023C120BD89000A5
:1014380007EE803890023C120BD87411120B5E90A4
:10144800023C120BD8900007E4802190023C120B5A
:10145800D87410120B5E90023C120BD8900007E46F
:10146800800A90023C120BD8900007E4120B70908F
:10147800023F120BD8900005120B31546024E06033
:101488001824E0602124E060322460704490023C1B
:10149800120BD8900006E4803590023C120BD890CD
:1014A80000067401802890023C120BD89000067444
:1014B80001120B709000077412801390023C120BFB
:1014C800D89000067401120B709000077413120B69
:1014D8007090023F120BD8900005120B315480C453
:1014E8001313135401FF90023C120BD890000AEF1B
:1014F800120B7090023F120BD8900005120B31307E
:10150800E01590023C120BD8E9240AF9E43AFA12E1
:071518000B184402120B5EE8
:01151F0022A9
:102EF600D280E490021DF07F31900346E4F0A3DF18
:062F0600FCE4900346F01C
:012F0C0022A2
:06194100900223120BF8D6
:10194700E4FF90021DE06003021AA7900223120B26
:10195700D8120B18704B9001C9E004F07B017A0391
:101967007947900239120BF89001C9E0FF900239CC
:10197700E475F001120BE1EF120B5E90022FE0FF0E
:10198700900239E475F001120BE1EF120B5E900241
:10199700291212D07F01900223120BD87401120B67
:1019A7005E900226120BD8120B18704B9001CAE0FA
:1019B70004F07B017A037954900239120BF89001F5
:1019C700CAE0FF900239E475F001120BE1EF120B48
:1019D7005E900230E0FF900239E475F001120BE1EE
:1019E700EF120B5E90022C1212D07F01900226128A
:1019F7000BD87401120B5EEF7003021AA79003460F
:101A07007402F07B017A037961900239120BF89026
:101A17000231120BD8900014120B316401702E9012
:101A27000015120B31B40125E4FD900231E475F085
:101A370001120BE1120B18FF900239E475F0011245
:101A47000BE1EF120B5E0DEDB414DF8015E4FD9092
:101A57000239E475F001120BE1E4120B5E0DEDB4EF
:101A670014ED7B017A037975900239120BF8900215
:101A770034E0120B5E90023AE475F001120B92907B
:101A87000235E0FF900239120BD8EF120B5E90027D
:101A97003AE475F001120B9290021D7401F0C280B6
:011AA700221C
:102516007B017A037900900221120BF8E4FF900206
:1025260021E475F001120BE1E4120B5E0FEFB42407
:10253600ED7B017A037924900221120BF8E4FF90D7
:102546000221E475F001120BE1E4120B5E0FEFB409
:1025560022ED7B017A037946900221120BF8E4FF03
:10256600900221E475F001120BE1E4120B5E0FEF0D
:10257600B431EDC2BAD2CE43A60153A9FB53B9FB7F
:1025860075BC01D2BA5393FEE4F59ED280F5BF1214
:072596002EF6E490021EF096
:01259D00221B
:0300530002106434
:10106400C0E0C0F0C083C082C085C084C0925392E7
:10107400FEC0D075D000C000C001C002C004C005CD
:04108400C006C007DB
:101088009001D4E004F0ACBEEC20E0030211EFAD17
:10109800BF9001CBE0FF24D5F582E43401F583ED60
:1010A800F09001CCE02DF0EF6403706A9001D5E078
:1010B800642670629001D204F09001CCE09001CED9
:1010C800F09001CD74AAF09001D6E090021FF0A331
:1010D800E4F09001D7E0FF90021FE0FEA3E04FFF8D
:1010E80090021FEEF0FEA3EFF0BE0311BF460E9074
:1010F80001D37401F090021EE07002D28090021FAA
:10110800E0FFA3E09001D0CFF0A3EFF09001D8E08A
:1011180024039001CFF09001CBE0FFB404189001B4
:10112800D5E0B426119001CEE0FE9001D9E06E60C2
:10113800059001D2E4F0EFB403119001D5E0B42595
:101148000A9001D8E024039001CFF09001CFE0FF8E
:101158009001CBE0B5070F9001D5E0B425089001C8
:10116800CCE09001CEF09001D2E060309001CBE06D
:10117800B507089001CDE0F5BF80609001D0E0FE92
:10118800A3E0F5828E83E0FD9001CDE02DF08DBFC8
:101198009001D0E475F001120B92803F9001CFE0EE
:1011A800F92401FFE433FE9001CBE0B5072AE4B54A
:1011B80006269001D5E0B4251F74D629F582E434BB
:1011C80001F583E0FF9001CEE0FEEFB50606EEF4F0
:1011D800F5BF80078EBF800375BF009001CBE0C3C9
:1011E80094475003E004F0EC30E4139001CBE4F0B2
:1011F800A3F09001D2F0F5BF9001D0F0A3F0AF04B6
:10120800EC20E5030212B19001CCE4F09001D2F099
:10121800F5BF9001D5E0642560030212A59001CFC7
:10122800E024D6F582E43401F583E0FF9001CEE0B6
:10123800FEEF6E70689001D6E090021FF0A3E4F014
:101248009001D7E0FF90021FE0FEA3E04FFF90025D
:101258001FEEF0FEA3EFF09001D0EEF0A3EFF07DCB
:10126800049001D8E02404FFE433FEEDC39FEE644C
:1012780080F8748098502674D52DF582E43401F5F1
:1012880083E0FF9001D0E0FAA3E0F5828A83EFF0D3
:101298009001D0E475F001120B920D80C49001D337
:0912A800E06006E4F090021DF084
:1012B100D007D006D005D004D002D001D000D0D0C4
:0F12C100D092D084D085D082D083D0F0D0E032CC
:10085B00020B03E86480F8E933E83360110460F0BD
:10086B00ED33EC337009E8FCE9FDEAFEEBFF220403
:10087B0060DED3EB9FEA9EE99DE8C2E78CF0C2F7FE
:10088B0095F0400CE8CCF8E9CDF9EACEFAEBCFFBCA
:10089B00120ACE85D0F05804700320D5B3E804704B
:1008AB00075002B2D5020B0D92D5EC0460F7E4CCE5
:1008BB00C0E0C398F8603B94186008400DD0E0FB93
:1008CB00020AE5E4FBFAC9FC8028E830E406E4C937
:1008DB00FBE4CAFCE830E305E4C9CACBFCE85407E7
:1008EB006010F8C3E913F9EA13FAEB13FBEC13FCF2
:1008FB00D8F130F52FC3E49CFCEF9BFFEE9AFEED95
:10090B0099FDD0E0FBEF4E4D4C701222DB03020B36
:10091B000AEC2CFCEF33FFEE33FEED33FDED30E74D
:10092B00EB020AE5EF2BFFEE3AFEED39FDD0E0FBD3
:10093B0050130BBB0003020B0DED13FDEE13FEEF7B
:08094B0013FFEC13FC020AE5A6
:10095300EC4D6011E8497017ED33EC3304600DE49E
:10096300FCFFFEFD22E933E8330470F8020B0312A7
:100973000ACE58046009E4CC2481500628500902A9
:100983000B0D284003020B0AC0E0EB4A7044B98008
:1009930006D0E0FB020AF9EF4E701CBD8008EBFFA6
:1009A300EAFEE9FD80EBE98DF0A4FEE5F0020A3CE6
:1009B300E9CDF9EAFEEBFFEF89F0A4FCE5F0CE897F
:1009C300F0A42EFFE435F0CD89F0A42DFEE435F03C
:1009D3008067EF4E7005BD80D780C3EF8BF0A4AC6A
:1009E300F0EE8BF0A42CFCE435F0F8EF8AF0A42CA5
:1009F300E5F038FCE433CB8DF0A42CFCE5F03BF8B8
:100A0300EE8AF0A42CFCE5F038F8E433CF89F0A4A7
:100A13002CFCE5F038CF3400CE89F0A42FFFE5F0AD
:100A23003EFEE433C98DF0A42EFEE5F039CD8AF005
:100A3300A42FFFE5F03EFEE43DFD33D0E0FB50077D
:100A43000BBB000F020B0DEC2CFCEF33FFEE33FE60
:060A5300ED33FD020AE58F
:100A590075F020800E75F010800575F0087D007E18
:100A6900007F003392D530D503120BBEEC33401012
:100A7900EF33FFEE33FEED33FDEC33FCD5F0ED2221
:0E0A8900E5F0247EA2D513CC92E7CDCEFF225D
:100A9700EDD2E7CD33EC3392D524814006E4FFFE57
:100AA700FDFC22FCE4CFCECDCC24E0501174FF80B6
:100AB700EDC3CC13CCCD13CDCE13CECF13CF047053
:070AC700F030D5DE020BBE8A
:100ACE00E9D2E7C933E833F892D5EDD2E7CD33EC6E
:070ADE0033FC5002B2D522E7
:100AE500EC30E7100FBF000C0EBE00080DBD000472
:100AF5000BEB6014A2D5EB13FCED92E7FD2274FF1E
:100B0500FCFDFEFF22E480F8A2D574FF13FC7D8076
:030B1500E480EF8A
:0300000002248A4D
:0C248A00787FE4F6D8FD7581210224D192
:100B1800BB010689828A83E0225002E722BBFE02DB
:090B2800E32289828A83E493220E
:100B3100BB010CE58229F582E5833AF583E0225079
:100B410006E92582F8E622BBFE06E92582F8E222C3
:0D0B5100E58229F582E5833AF583E49322DD
:100B5E00BB010689828A83F0225002F722BBFE0176
:020B6E00F32270
:100B7000F8BB010DE58229F582E5833AF583E8F0BB
:100B8000225006E92582C8F622BBFE05E92582C867
:020B9000F2224F
:100B9200C5F0F8A3E028F0C5F0F8E58215827002EE
:060BA2001583E038F0228B
:100BA800A3F8E0C5F025F0F0E58215827002158300
:060BB800E0C838F0E8225D
:0E0BBE00C3E49FFFE49EFEE49DFDE49CFC2248
:0C0BCC00E0F8A3E0F9A3E0FAA3E0FB22AC
:090BD800E0FBA3E0FAA3E0F9221E
:100BE100F8E0FBA3A3E0F925F0F0E582158270029D
:070BF1001583E0FA38F02241
:090BF800EBF0A3EAF0A3E9F022FE
:100C0100BB011A89828A83D0F0D0E0F8D0E0F9D014
:100C1100E0FAD0E0FBE8C0E0C0F0020BF85016E9C2
:100C2100F8D083D082D0E0F9D0E0FAD0E0FBC082E6
:100C3100C083020C76BBFE16E9F8D083D082D0E0E7
:0F0C4100F9D0E0FAD0E0FBC082C083020C7F2222
:100C5000D083D082F8E4937012740193700DA3A333
:100C600093F8740193F5828883E473740293686047
:060C7000EFA3A3A380DF47
:10249600022D25E493A3F8E493A34003F68001F20A
:1024A60008DFF48029E493A3F85407240CC8C33347
:1024B600C4540F4420C8834004F456800146F6DF16
:1024C600E4800B0102040810204080901736E47E59
:1024D600019360BCA3FF543F30E509541FFEE4930B
:1024E600A360010ECF54C025E060A840B8E493A3D2
:1024F600FAE493A3F8E493A3C8C582C8CAC583CAFD
:10250600F0A3C8C582C8CAC583CADFE9DEE780BEB4
:0119400000A6
:090C7600EBF608EAF608E9F622A3
:090C7F00EBF208EAF208E9F222A6
:00000001FF
