:020000040000FA
:06000000A3EF78F01200EE
:0600080004EF08F01200F5
:060018000CEF08F01200DD
:06100000A3EF78F01200DE
:021006001200D6
:061008008EEF1AF0120049
:02100E000400DC
:08101000C08012000400120070
:06101800DDEF1AF01200EA
:02101E000F00C1
:101020005AF20000930200000100000036F20000B6
:10103000260200002400000020F200004A02000006
:10104000160000000AF20000E80000001600000090
:1010500008F200009102000002000000F9F1000017
:10106000AF0E00000F000000F4F100008502000048
:1010700005000000E8F100006D0200000C00000017
:10108000DBF10000600200000D000000D9F100005B
:10109000BE0E000002000000D8F10000FF040000B6
:1010A00001000000D6F10000FE0000000200000078
:1010B000D3F100008E02000003000000AAF100003E
:1010C000860E000029000000A9F10000FF010000C9
:0410D000010000001B
:0C10D400D9CFE6FFE1CFD9FFFD0EDBCF46
:1010E0008AF2FE0EDBCF8BF2FB0EDBCF8CF2FC0E16
:1010F000DBCF8DF2020EE66E8AC2E6FF8BC2E6FF00
:1011000017D8E552E552E552E66A8CC2E6FF8DC279
:10111000E6FF0ED8E552E552E552FA0EDBCFF6F0C7
:101120008150010B0001F96FE552E7CFD9FF1200A2
:10113000D9CFE6FFE1CFD9FFE652DF6AFD0EDBCF64
:10114000E9FFFE0EDBCFEAFFFC0EDBCFEFFFFD0E6B
:10115000DBCFE9FFFE0EDBCFEAFFEE52EF6AFD0EBA
:10116000DBCFE9FFFE0EDBCFEAFF020EE926000E21
:10117000EA22EF6AFD0EDBCFE9FFFE0EDBCFEAFFCE
:10118000030EE926000EEA22EF6AFD0EDBCFE9FF2F
:10119000FE0EDBCFEAFF040EE926000EEA22EF6A1C
:1011A000FD0EDBCFE9FFFE0EDBCFEAFF050EE926E1
:1011B000000EEA22EF6AFD0EDBCFE9FFFE0EDBCF69
:1011C000EAFF070EE926000EEA22EF6AFD0EDBCFEA
:1011D000E9FFFE0EDBCFEAFF090EE926000EEA2248
:1011E000EF6AFD0EDBCFE9FFFE0EDBCFEAFF080E54
:1011F000E926000EEA22EF6AFD0EDBCFE9FFFE0EC4
:10120000DBCFEAFF0A0EE926000EEA22EF6AFD0EA6
:10121000DBCFE9FFFE0EDBCFEAFF0C0EE926000E66
:10122000EA22010EEF6EFD0EDBCFE9FFFE0EDBCFF3
:10123000EAFF0D0EE926000EEA22EF6AFD0EDBCF73
:10124000E9FFFE0EDBCFEAFF0E0EE926000EEA22D2
:10125000EF6AFD0EDBCFE9FFFE0EDBCFEAFF060EE5
:10126000E926000EEA22EF6AFD0EDBCFE9FFFE0E53
:10127000DBCFEAFF0B0EE926000EEA22EF6AFD0E35
:10128000DBCFE9FFFE0EDBCFEAFF0F0EE926000EF3
:10129000EA22010EEF6EFD0EDBCFE9FFFE0EDBCF83
:1012A000EAFF100EE926000EEA22EF6AFD0EDBCF00
:1012B000E9FFFE0EDBCFEAFF110EE926000EEA225F
:1012C000EF6AFD0EDBCFE9FFFE0EDBCFEAFF120E69
:1012D000E926000EEA22010EEF6EFD0EDBCFE9FFDC
:1012E000FE0EDBCFEAFF130EE926000EEA22EF6ABC
:1012F000FD0EDBCFE9FFFE0EDBCFEAFF140EE92681
:10130000000EEA22EF6ADF6A160EDF5C18E2FD0EBD
:10131000DBCFE9FFFE0EDBCFEAFF150EE926000E5C
:10132000EA22E9CF00F0EACF01F0DF500F010024FC
:10133000E96E000E0120EA6EEF6ADF2AE5D7E5527A
:10134000E552E7CFD9FF1200D9CFE6FFE1CFD9FFB1
:10135000E652DF6A8AC2E9FF8BC2EAFF110EEB5048
:10136000DF128CC2E9FF8DC2EAFF110EEB50DF12D3
:10137000DF5000D0E552E552E7CFD9FF1200D9CFB8
:10138000E6FFE1CFD9FFE652DF6A8AC2E9FF8BC2EE
:10139000EAFF020EEB50010846E18AC2E9FF8BC268
:1013A000EAFF0F0EEB5000093EE18CC2E9FF8DC24F
:1013B000EAFF020EEB50010836E18CC2E9FF8DC254
:1013C000EAFF0F0EEB5000092EE1030EDF6EFE0E5A
:1013D000DB0428E18AC2E9FF8BC2EAFF0C0EE92692
:1013E000000EEA22010EEF6E8CC2E9FF8DC2EAFF09
:1013F0000C0EE926000EEA22010EEF6E8AC2E9FF0A
:101400008BC2EAFF120EE926000EEA22010EEF6EF1
:101410008CC2E9FF8DC2EAFF120EE926000EEA2215
:10142000010EEF6E66D08CC2E9FF8DC2EAFF020E9C
:10143000EB5001082BE18CC2E9FF8DC2EAFF0F0ED1
:10144000EB50000923E1DF6AFE0EDB041EE18CC2D3
:10145000E9FF8DC2EAFF0C0EE926000EEA22010E1A
:10146000EF6E8AC2E9FF8BC2EAFF120EE926000E78
:10147000EA22010EEF6E8CC2E9FF8DC2EAFF120E66
:10148000E926000EEA22010EEF6E33D08AC2E9FF90
:101490008BC2EAFF020EEB5001082BE18AC2E9FF82
:1014A0008BC2EAFF0F0EEB50000923E1020EDF6E44
:1014B000FE0EDB041EE18AC2E9FF8BC2EAFF0C0EBE
:1014C000E926000EEA22010EEF6E8AC2E9FF8BC206
:1014D000EAFF120EE926000EEA22010EEF6E8CC220
:1014E000E9FF8DC2EAFF120EE926000EEA22010E84
:1014F000EF6EDF5000D0E552E552E7CFD9FF120082
:10150000D9CFE6FFE1CFD9FF050EE126DF6A010E54
:10151000DB6A020EDB6A030EDB6A040EDB6A8CC236
:10152000E9FF8DC2EAFF050EEB50DF6E8AC2E9FFCC
:101530008BC2EAFF050EEB50E76E010EE7CFDBFF33
:10154000FE0EDB50030823E1DFCF00F0010EDB507D
:10155000E76E0018E8AE02D0003403D0E750D88020
:10156000005404E2010EDB50DF6E11D0010EDBCF20
:1015700000F0DF50E76E0018E8AE02D0003403D070
:10158000E750D880005403E2010EDFCFDBFFFE0EF0
:10159000DB50030803E0FE0EDB5033E1DF2ADFCF30
:1015A00000F08CC2E9FF8DC2EAFF030EEB50E76E3C
:1015B0000018E8AE02D0003403D0E750D8800054C1
:1015C0000CE28CC2E9FF8DC2EAFF030EEB50DF6E26
:1015D000010EF36E020EF3CFDBFF8CC2E9FF8DC26A
:1015E000EAFF0E0EE926000EEA22010EEF6E8CC213
:1015F000E9FF8DC2EAFF100EEB50E76E040EE7CF55
:10160000DBFFFE0EDB50030804E0FE0EDB50020899
:1016100036E1010EDB2ADBCF00F08AC2E9FF8BC284
:10162000EAFF030EEB50E76E0018E8AE02D000347C
:1016300003D0E750D88000540EE28AC2E9FF8BC283
:10164000EAFF030EEB50E76E010EE7CFDBFFF36E10
:10165000030EF3CFDBFF8AC2E9FF8BC2EAFF0E0E57
:10166000E926000EEA22010EEF6E8AC2E9FF8BC264
:10167000EAFF100EEB50E76E040EE7CFDBFFFE0E25
:10168000DB5004E0FE0EDB5003083AE18CC2E9FFB8
:101690008DC2EAFF0A0EEB50100832E18CC2E9FF5E
:1016A0008DC2EAFF060EE926000EEA22EF2A8CC25E
:1016B000E9FF8DC2EAFF060EEB50006E8CC2E9FF17
:1016C0008DC2EAFF030EEB50E76E0018E8AE02D0C1
:1016D000003403D0E750D880005412E28CC2E9FFF6
:1016E0008DC2EAFF030EEB50E66E8CC2E9FF8DC29D
:1016F000EAFF060EE926000EEA22E552E750EF6EF9
:10170000FE0EDB50020804E0FE0EDB5003083AE157
:101710008AC2E9FF8BC2EAFF0A0EEB50100832E1E1
:101720008AC2E9FF8BC2EAFF060EE926000EEA2212
:10173000EF2A8AC2E9FF8BC2EAFF060EEB50006E69
:101740008AC2E9FF8BC2EAFF030EEB50E76E001876
:10175000E8AE02D0003403D0E750D880005412E243
:101760008AC2E9FF8BC2EAFF030EEB50E66E8AC223
:10177000E9FF8BC2EAFF060EE926000EEA22E552D7
:10178000E750EF6E040EDB501EE1FD0EDBCFE6FFEF
:10179000E66AE66A020EDBCFE6FFDFCFE6FFE66A27
:1017A000E66A030EDBCFE6FF010EDBCFE6FFFE0E9F
:1017B000DBCFE6FF220EE66E67EC4EF0006E0B0EFE
:1017C000E15E00502DD0FD0EDBCFE6FF020EDBCF39
:1017D000E6FF8CC2E9FF8DC2EAFF060EEB50E66E13
:1017E000020EDBCFE6FFDFCFE6FF030EDBCFE6FF27
:1017F0008AC2E9FF8BC2EAFF060EEB50E66E030ECB
:10180000DBCFE6FF010EDBCFE6FFFE0EDBCFE6FF10
:10181000340EE66E67EC4EF0006E0B0EE15E00508B
:10182000050EE15C02E2E16AE552E16EE552E7CFC6
:10183000D9FF1200D9CFE6FFE1CFD9FFFD0EDBCFF4
:10184000E9FFFE0EDBCFEAFF020EE926000EEA22D8
:10185000EF0401E0D5D0FD0EDBCFE9FFFE0EDBCFBC
:10186000EAFF0F0EE926000EEA22EF5001E0C8D091
:10187000FB0EDBCFE9FFFC0EDBCFEAFFEFCF00F082
:10188000FD0EDBCFE9FFFE0EDBCFEAFF050EE926FA
:10189000000EEA22EF50E76E0018E8AE02D00034E6
:1018A00003D0E750D880005415E2FD0EDBCFE9FFEE
:1018B000FE0EDBCFEAFF050EE926000EEA22EF500E
:1018C000E66EFB0EDBCFE9FFFC0EDBCFEAFFE55255
:1018D000E750EF6EF90EDBCFE9FFFA0EDBCFEAFF40
:1018E000EFCF00F0FD0EDBCFE9FFFE0EDBCFEAFF0E
:1018F000060EE926000EEA22EF50E76E0018E8AE69
:1019000002D0003403D0E750D880005415E2FD0E19
:10191000DBCFE9FFFE0EDBCFEAFF060EE926000E65
:10192000EA22EF50E66EF90EDBCFE9FFFA0EDBCFCD
:10193000EAFFE552E750EF6EF70EDBCFE9FFF80E56
:10194000DBCFEAFFEFCF00F0FD0EDBCFE9FFFE0EAD
:10195000DBCFEAFF030EE926000EEA22EF50E76E26
:101960000018E8AE02D0003403D0E750D88000540D
:1019700015E2FD0EDBCFE9FFFE0EDBCFEAFF030E23
:10198000E926000EEA22EF50E66EF70EDBCFE9FF04
:10199000F80EDBCFEAFFE552E750EF6EF50EDBCF36
:1019A000E9FFF60EDBCFEAFFEFCF00F0FD0EDBCF55
:1019B000E9FFFE0EDBCFEAFF040EE926000EEA2265
:1019C000EF50E76E0018E8AE02D0003403D0E750C5
:1019D000D880005415E2FD0EDBCFE9FFFE0EDBCF11
:1019E000EAFF040EE926000EEA22EF50E66EF50E3D
:1019F000DBCFE9FFF60EDBCFEAFFE552E750EF6EF3
:101A0000E552E7CFD9FF1200D9CFE6FFE1CFD9FFEA
:101A1000FD0EDBCFE9FFFE0EDBCFEAFF120EE9265B
:101A2000000EEA22EF0433E1FB0EDBCFE9FFFC0EF0
:101A3000DBCFEAFFEF2AFB0EDBCFE9FFFC0EDBCFAB
:101A4000EAFFEFCF00F0F90EDBCFE9FFFA0EDBCFB4
:101A5000EAFFEF50E76E0018E8AE02D0003403D082
:101A6000E750D880005413E2F90EDBCFE9FFFA0EFD
:101A7000DBCFEAFFEF50E66EFB0EDBCFE9FFFC0E9B
:101A8000DBCFEAFFE552E750EF6E010E02D0000E09
:101A900000D0E552E7CFD9FF1200D9CFE6FFE1CF62
:101AA000D9FFFD0EDBCFE9FFFE0EDBCFEAFF120E02
:101AB000E926000EEA22EF0432E1FB0EDBCFE9FF5C
:101AC000FC0EDBCFEAFFEF06FB0EDBCFE9FFFC0EDF
:101AD000DBCFEAFFEFCF00F0F90EDBCFE9FFFA0E24
:101AE000DBCFEAFFEF50E76E0018E8AE02D0E73434
:101AF00002D0E750005C13E2F90EDBCFE9FFFA0EEB
:101B0000DBCFEAFFEF50E66EFB0EDBCFE9FFFC0E0A
:101B1000DBCFEAFFE552E750EF6E010E02D0000E78
:101B200000D0E552E7CFD9FF1200D9CFE6FFE1CFD1
:101B3000D9FFFD0EDBCFE9FFFE0EDBCFEAFF020E81
:101B4000E926000EEA22EF0433E1FD0EDBCFE9FFC8
:101B5000FE0EDBCFEAFF0F0EE926000EEA22EF5061
:101B600027E1FD0EDBCFE9FFFE0EDBCFEAFFEE52F1
:101B7000EF041EE1FD0EDBCFE9FFFE0EDBCFEAFF37
:101B8000070EE926000EEA22EF50000811E2FD0ED2
:101B9000DBCFE9FFFE0EDBCFEAFF070EE926000EE2
:101BA000EA22EFCF00F0100E005C02E2010E02D03C
:101BB000000E00D0E552E7CFD9FF1200D9CFE6FFE3
:101BC000E1CFD9FFFD0EDBCFE9FFFE0EDBCFEAFF51
:101BD000020EE926000EEA22EF0424E1FD0EDBCF1F
:101BE000E9FFFE0EDBCFEAFF0F0EE926000EEA2228
:101BF000EF5018E1FD0EDBCFE9FFFE0EDBCFEAFF71
:101C0000EE52EF040FE1FD0EDBCFE9FFFE0EDBCF5E
:101C1000EAFF0A0EE926000EEA22EF50110802E15F
:101C2000010E02D0000E00D0E552E7CFD9FF12001E
:101C3000D9CFE6FFE1CFD9FF060EE1267F0EDF6E9A
:101C4000DE52DD6EF36E020EF3CFDBFF7F0EF36E1E
:101C5000030EF3CFDBFF040EDB6A050EDB6A8AC2DC
:101C6000E6FF8BC2E6FF61DFE552E55201081BE0AB
:101C70008CC2E6FF8DC2E6FF58DFE552E55201084F
:101C800012E08AC2E6FF8BC2E6FF98DFE552E5521A
:101C9000010809E08CC2E6FF8DC2E6FF8FDFE55246
:101CA000E55201083FE1D950030FE66E000EDA203D
:101CB000E66ED950020FE66E000EDA20E66ED950BD
:101CC000010FE66E000EDA20E66ED9CFE6FFDACF1E
:101CD000E6FF8AC2E6FF8BC2E6FFACDD006E0A0EAD
:101CE000E15E0050D950030FE66E000EDA20E66E7A
:101CF000D950020FE66E000EDA20E66ED950010FC1
:101D0000E66E000EDA20E66ED9CFE6FFDACFE6FF08
:101D10008CC2E6FF8DC2E6FF8DDD006E0A0EE15E2D
:101D200000503ED0D950030FE66E000EDA20E66E6A
:101D3000D950020FE66E000EDA20E66ED9CFE6FF2C
:101D4000DACFE6FFD950010FE66E000EDA20E66E1C
:101D50008AC2E6FF8BC2E6FF6DDD006E0A0EE15E11
:101D60000050D950030FE66E000EDA20E66ED9500F
:101D7000020FE66E000EDA20E66ED9CFE6FFDACF6C
:101D8000E6FFD950010FE66E000EDA20E66E8CC237
:101D9000E6FF8DC2E6FF4EDD006E0A0EE15E0050EA
:101DA000D950020FE66E000EDA20E66ED950010F10
:101DB000E66E000EDA20E66E8AC2E6FF8BC2E6FF10
:101DC00023DE006E060EE15E0050E76E050EE7CFE3
:101DD000DBFFD950020FE66E000EDA20E66ED9CF97
:101DE000E6FFDACFE6FF8CC2E6FF8DC2E6FF0CDE2F
:101DF000006E060EE15E0050E76E040EE7CFDBFFDB
:101E0000050EDB040DE18CC2E9FF8DC2EAFF120E64
:101E1000EB50000905E1010EF36E040EF3CFDBFF7A
:101E2000040EDB040DE18AC2E9FF8BC2EAFF120E49
:101E3000EB50000905E1010EF36E050EF3CFDBFF59
:101E4000FD0EDBCFE6FF040EDBCFE6FFDFCFE6FFC4
:101E5000050EDBCFE6FF010EDBCFE6FF040EDBCF86
:101E6000E6FFDFCFE6FF050EDBCFE6FF010EDBCF9F
:101E7000E6FFFE0EDBCFE6FF340EE66E67EC4EF0BB
:101E8000006E0B0EE15E0050060EE15C02E2E16ABC
:101E9000E552E16EE552E7CFD9FF1200D9CFE6FF58
:101EA000E1CFD9FF050EE126DF6A010EDB6A020EE3
:101EB000DB6A030EDB6A040EDB6A8CC2E9FF8DC2AB
:101EC000EAFF050EEB50DF6E8AC2E9FF8BC2EAFF24
:101ED000050EEB50E76E010EE7CFDBFFFE0EDB5089
:101EE000030803E0FE0EDB5032E1DF06DFCF00F037
:101EF0008CC2E9FF8DC2EAFF040EEB50E76E0018BA
:101F0000E8AE02D0E73402D0E750005C0CE28CC2AD
:101F1000E9FF8DC2EAFF040EEB50DF6E010EF36E97
:101F2000020EF3CFDBFF8CC2E9FF8DC2EAFF0E0E7B
:101F3000E926000EEA22010EEF6E8CC2E9FF8DC287
:101F4000EAFF100EEB50E76E040EE7CFDBFFFE0E4C
:101F5000DB50030804E0FE0EDB50020835E1010E01
:101F6000DB06DBCF00F08AC2E9FF8BC2EAFF040E7A
:101F7000EB50E76E0018E8AE02D0E73402D0E7502D
:101F8000005C0EE28AC2E9FF8BC2EAFF040EEB504E
:101F9000E76E010EE7CFDBFFF36E030EF3CFDBFF3F
:101FA0008AC2E9FF8BC2EAFF0E0EE926000EEA2282
:101FB000010EEF6E8AC2E9FF8BC2EAFF100EEB50F2
:101FC000E76E040EE7CFDBFFFE0EDB50030823E1D4
:101FD000DFCF00F0010EDB50E76E0018E8AE02D054
:101FE000003403D0E750D880005404E2010EDB50E7
:101FF000DF6E11D0010EDBCF00F0DF50E76E00186E
:10200000E8AE02D0003403D0E750D880005403E299
:10201000010EDFCFDBFFFE0EDB5004E0FE0EDB50D7
:10202000030839E18CC2E9FF8DC2EAFF0A0EEB50CA
:10203000100831E18CC2E9FF8DC2EAFF060EE926E5
:10204000000EEA22EF068CC2E9FF8DC2EAFF060EFF
:10205000EB50006E8CC2E9FF8DC2EAFF040EEB501C
:10206000E76E0018E8AE02D0E73402D0E750005C1B
:1020700012E28CC2E9FF8DC2EAFF040EEB50E66E5D
:102080008CC2E9FF8DC2EAFF060EE926000EEA22A5
:10209000E552E750EF6EFE0EDB50020804E0FE0E44
:1020A000DB50030839E18AC2E9FF8BC2EAFF0A0E5E
:1020B000EB50100831E18AC2E9FF8BC2EAFF060E3D
:1020C000E926000EEA22EF068AC2E9FF8BC2EAFF88
:1020D000060EEB50006E8AC2E9FF8BC2EAFF040EC7
:1020E000EB50E76E0018E8AE02D0E73402D0E750BC
:1020F000005C12E28AC2E9FF8BC2EAFF040EEB50D9
:10210000E66E8AC2E9FF8BC2EAFF060EE926000EE0
:10211000EA22E552E750EF6E040EDB501EE1FD0EA1
:10212000DBCFE6FFE66AE66A020EDBCFE6FFDFCF33
:10213000E6FFE66AE66A030EDBCFE6FF010EDBCFC1
:10214000E6FFFE0EDBCFE6FF330EE66E67EC4EF0E9
:10215000006E0B0EE15E00502DD0FD0EDBCFE6FFD2
:10216000020EDBCFE6FF8CC2E9FF8DC2EAFF060E4E
:10217000EB50E66E020EDBCFE6FFDFCFE6FF030E8D
:10218000DBCFE6FF8AC2E9FF8BC2EAFF060EEB5007
:10219000E66E030EDBCFE6FF010EDBCFE6FFFE0EA1
:1021A000DBCFE6FF340EE66E67EC4EF0006E0B0EF2
:1021B000E15E0050050EE15C02E2E16AE552E16E8B
:1021C000E552E7CFD9FF1200D9CFE6FFE1CFD9FF23
:1021D000060EE1267F0EDF6EDE52DD6EF36E020E1E
:1021E000F3CFDBFF7F0EF36E030EF3CFDBFF040EA6
:1021F000DB6A050EDB6A8AC2E6FF8BC2E6FF95DC6E
:10220000E552E55201081BE08CC2E6FF8DC2E6FFF5
:102210008CDCE552E552010812E08AC2E6FF8BC26F
:10222000E6FFCCDCE552E552010809E08CC2E6FF8E
:102230008DC2E6FFC3DCE552E552010841E1D95009
:10224000030FE66E000EDA20E66ED950020FE66E3E
:10225000000EDA20E66ED950010FE66E000EDA208D
:10226000E66ED9CFE6FFDACFE6FF8AC2E6FF8BC281
:10227000E6FF1AEC0CF0006E0A0EE15E0050D95039
:10228000030FE66E000EDA20E66ED950020FE66EFE
:10229000000EDA20E66ED950010FE66E000EDA204D
:1022A000E66ED9CFE6FFDACFE6FF8CC2E6FF8DC23D
:1022B000E6FF1AEC0CF0006E0A0EE15E005040D012
:1022C000D950030FE66E000EDA20E66ED950020FE9
:1022D000E66E000EDA20E66ED9CFE6FFDACFE6FF33
:1022E000D950010FE66E000EDA20E66E8AC2E6FFD4
:1022F0008BC2E6FF1AEC0CF0006E0A0EE15E005095
:10230000D950030FE66E000EDA20E66ED950020FA8
:10231000E66E000EDA20E66ED9CFE6FFDACFE6FFF2
:10232000D950010FE66E000EDA20E66E8CC2E6FF91
:102330008DC2E6FF1AEC0CF0006E0A0EE15E005052
:10234000D950030FE66E000EDA20E66ED950010F69
:10235000E66E000EDA20E66E8AC2E6FF8BC2E6FF6A
:102360004DEC0DF0006E060EE15E0050E76E050EBE
:10237000E7CFDBFFD950030FE66E000EDA20E66EE2
:10238000D9CFE6FFDACFE6FF8CC2E6FF8DC2E6FFCB
:102390004DEC0DF0006E060EE15E0050E76E040E8F
:1023A000E7CFDBFF050EDB040DE18CC2E9FF8DC238
:1023B000EAFF120EEB50000905E1010EF36E040E68
:1023C000F3CFDBFF040EDB040DE18AC2E9FF8BC211
:1023D000EAFF120EEB50000905E1010EF36E050E47
:1023E000F3CFDBFFFD0EDBCFE6FF040EDBCFE6FF16
:1023F000DFCFE6FF050EDBCFE6FF010EDBCFE6FF0A
:10240000040EDBCFE6FFDFCFE6FF050EDBCFE6FFF6
:10241000010EDBCFE6FFFE0EDBCFE6FF340EE66EED
:1024200067EC4EF0006E0B0EE15E0050060EE15CB4
:1024300002E2E16AE552E16EE552E7CFD9FF120010
:10244000D9CFE6FFE1CFD9FFE652DF6AFE0EDB50BF
:10245000030829E18CC2E9FF8DC2EAFF0D0EEB50A3
:1024600001080AE18AC2E9FF8BC2EAFF0D0EEB50B8
:10247000010802E1DF6A02D0010EDF6E8AC2E9FFC5
:102480008BC2EAFF0E0EE926000EEA22010EEF6E65
:102490008CC2E9FF8DC2EAFF0E0EE926000EEA2289
:1024A000010EEF6E2CD0FE0EDB5015E18CC2E9FF61
:1024B0008DC2EAFF0D0EEB50000902E1010EDF6E46
:1024C0008CC2E9FF8DC2EAFF0E0EE926000EEA2259
:1024D000010EEF6E14D08AC2E9FF8BC2EAFF0D0E27
:1024E000EB50000902E1010EDF6E8AC2E9FF8BC2E8
:1024F000EAFF0E0EE926000EEA22010EEF6EA4ECB2
:1025000009F0010815E1DF0412E18CC2E9FF8DC278
:10251000EAFF120EEB5000090AE18CC2E9FF8DC2FE
:10252000EAFF120EE926000EEA22010EEF6E2DD010
:10253000FE0EDB50030813E18AC2E9FF8BC2EAFFFB
:10254000130EE926000EEA22EF2A8CC2E9FF8DC2A3
:10255000EAFF130EE926000EEA22EF2A16D0FE0E3D
:10256000DB500AE18CC2E9FF8DC2EAFF130EE926B7
:10257000000EEA22EF2A09D08AC2E9FF8BC2EAFFE5
:10258000130EE926000EEA22EF2AFD0EDBCFE6FF4E
:10259000E66AE66AE66ADFCFE6FFE66AE66AE66AC8
:1025A000DFCFE6FFFE0EDBCFE6FF380EE66E67EC10
:1025B0004EF0006E0B0EE15E0050E552E552E7CFA3
:1025C000D9FF1200D9CFE6FFE1CFD9FF8AC2E9FFD8
:1025D0008BC2EAFF020EEB50010825E18AC2E9FF37
:1025E0008BC2EAFF0F0EEB5000091DE18AC2E9FF22
:1025F0008BC2EAFF0E0EE926000EEA22010EEF6EF4
:102600008AC2E9FF8BC2EAFF0C0EE926000EEA221D
:10261000010EEF6E8AC2E9FF8BC2EAFF130EE926B4
:10262000000EEA22EF2A8CC2E9FF8DC2EAFF020EF9
:10263000EB50010825E18CC2E9FF8DC2EAFF0F0EC5
:10264000EB5000091DE18CC2E9FF8DC2EAFF0E0EBE
:10265000E926000EEA22010EEF6E8CC2E9FF8DC260
:10266000EAFF0C0EE926000EEA22010EEF6E8CC284
:10267000E9FF8DC2EAFF130EE926000EEA22EF2AD7
:102680008AC2E9FF8BC2EAFF120EE926000EEA2297
:10269000010EEF6E8CC2E9FF8DC2EAFF120EE92631
:1026A000000EEA22010EEF6EFD0EDBCFE6FFE66ABA
:1026B000E66AE66AE66AE66AE66AE66AE66AFE0EDE
:1026C000DBCFE6FF440EE66E67EC4EF0006E0B0EBD
:1026D000E15E0050E552E7CFD9FF1200D9CFE6FF07
:1026E000E1CFD9FFFD0EDB50F36EFE0EDBCFF4FF22
:1026F000F350F45C03E2FE0EDB5003D0FD0EDB5022
:1027000000D0E552E7CFD9FF1200D9CFE6FFE1CFE5
:10271000D9FF040EE1268AC2E9FF8BC2EAFF0A0E46
:10272000EB50DF6E8CC2E9FF8DC2EAFF0A0EEB5060
:10273000E76E010EE7CFDBFF8AC2E9FF8BC2EAFF3B
:102740000B0EEB50E76E020EE7CFDBFF8CC2E9FF0A
:102750008DC2EAFF0B0EEB50E76E030EE7CFDBFFF7
:10276000FE0EDB5003085EE1010EDBCFE6FFDFCF9C
:10277000E6FFB4DFE552E552006E00C0E6FF030E4F
:10278000DBCFE6FF020EDBCFE6FFA8DFE552E55226
:10279000E552E7CF00F0005C10E2010EDBCFE6FF70
:1027A000DFCFE6FF9BDFE552E552010FE76E010E3A
:1027B000E7CFDBFFDB50DF6E22D0020EDB50DF5CA9
:1027C00009E3030EDB50F36E010EDBCFF4FFF35091
:1027D000F45C12E2020EDB50DF5C02E2DF2A0BD077
:1027E000030EDB50F36E010EDBCFF4FFF350F45C0D
:1027F00002E2010EDB2A03D0DF6A010EDB6A8AC225
:10280000E9FF8BC2EAFF130EE926000EEA22EF2A47
:102810008CC2E9FF8DC2EAFF130EE926000EEA2200
:10282000EF2A2CD0FE0EDB50020811E1DF2A020E47
:10283000DB50D880DF5401E2DF6A8AC2E9FF8BC235
:10284000EAFF130EE926000EEA22EF2A17D0FE0E49
:10285000DB5014E1010EDB2ADBCF00F0030EDB506E
:10286000D880005402E2010EDB6A8CC2E9FF8DC2FF
:10287000EAFF130EE926000EEA22EF2AFD0EDBCF57
:10288000E6FFE66AE66AE66A010EDBCFE6FFE66A85
:10289000E66AE66ADFCFE6FFFE0EDBCFE6FF110E4B
:1028A000E66E67EC4EF0006E0B0EE15E0050040E1B
:1028B000E15C02E2E16AE552E16EE552E7CFD9FF61
:1028C0001200D9CFE6FFE1CFD9FF050EE126DF6A7E
:1028D000DE52010EDD6E020EF36EF3CFDBFF040E4F
:1028E000F36E030EF3CFDBFF040EDB6AFD0EDBCFCE
:1028F00000F0FE0EDB50D880005402E2FD0EDB6AD1
:10290000FD0EDB2AFD0EDB94DB96DB98DB9ADB9C6D
:10291000DB9EFE0EDBCFE6FFD9CF00F0DACF01F071
:10292000FD0EDB500F010024E96E000E0120EA6E5F
:10293000EF50E552E71412E1FD0EDB2AFD0EDB94A9
:10294000DB96DB98DB9ADB9CDB9E040EDB2ADB50FC
:10295000040803E2FD0EDB6A01D0DBD7FD0EDB507D
:10296000006E050EE15C03E200D0E16AE552E16E23
:102970000050E552E7CFD9FF1200D9CFE6FFE1CFF3
:10298000D9FF040EE126DF6A010EDB6A020EDB6A64
:10299000030EDB6A8AC2E9FF8BC2EAFF020EEB502C
:1029A00001084EE18AC2E9FF8BC2EAFF0F0EEB502D
:1029B000000946E18AC2E9FF8BC2EAFF0A0EEB502A
:1029C00011083EE08AC2E9FF8BC2EAFF0A0EEB5013
:1029D000100836E08AC2E9FF8BC2EAFF080EEB500E
:1029E000E76E010EE7CFDBFF8AC2E9FF8BC2EAFF89
:1029F000070EEB50E76E020EE7CFDBFFFE0EDB505B
:102A000003081DE18CC2E9FF8DC2EAFF0A0EEB50FC
:102A1000110815E08CC2E9FF8DC2EAFF0A0EEB50E7
:102A200010080DE08CC2E9FF8DC2EAFF070EEB50E3
:102A3000F36E020EDB50F35C02E0020EDB6A46D05E
:102A40008CC2E9FF8DC2EAFF020EEB5001083EE1A5
:102A50008CC2E9FF8DC2EAFF0F0EEB50000936E190
:102A60008CC2E9FF8DC2EAFF080EEB50E76E010E43
:102A7000E7CFDBFF8CC2E9FF8DC2EAFF070EEB5008
:102A8000E76E020EE7CFDBFFFE0EDB50020B020803
:102A90001DE18AC2E9FF8BC2EAFF0A0EEB50110862
:102AA00015E08AC2E9FF8BC2EAFF0A0EEB5010085C
:102AB0000DE08AC2E9FF8BC2EAFF070EEB50F36E0E
:102AC000020EDB50F35C02E0020EDB6A8AC2E9FF11
:102AD0008BC2EAFF020EEB5001081BE18AC2E9FF3C
:102AE0008BC2EAFF0F0EEB50000913E18AC2E9FF27
:102AF0008BC2EAFF0E0EE926000EEA22010EEF6EEF
:102B00008AC2E9FF8BC2EAFF130EE926000EEA2211
:102B1000EF2A8CC2E9FF8DC2EAFF020EEB500108DA
:102B20001BE18CC2E9FF8DC2EAFF0F0EEB500009DA
:102B300013E18CC2E9FF8DC2EAFF0E0EE926000EFA
:102B4000EA22010EEF6E8CC2E9FF8DC2EAFF130E7E
:102B5000E926000EEA22EF2A010EDB504AE08AC283
:102B6000E9FF8BC2EAFF100EEB50006E010E005C15
:102B70000AE28CC2E9FF8DC2EAFF100EEB50016E33
:102B8000010E015C14E38AC2E9FF8BC2EAFF120E58
:102B9000E926000EEA22010EEF6E8CC2E9FF8DC21B
:102BA000EAFF120EE926000EEA22010EEF6E020E77
:102BB000DBCFE6FF010EDBCFE6FF83DEE552E55219
:102BC000DF6EFD0EDBCFE6FFE66AE66AE66ADFCF80
:102BD000E6FFE66AE66AE66ADFCFE6FFFE0EDBCFD7
:102BE000E6FF550EE66E67EC4EF0006E0B0EE15EF2
:102BF0000050040EE15C02E2E16AE552E16EE5524A
:102C0000E7CFD9FF1200D9CFE6FFE1CFD9FFE652D7
:102C1000DF6A8AC2E9FF8BC2EAFF020EEB500108AD
:102C200011E18AC2E9FF8BC2EAFF0F0EEB500009E7
:102C300009E18AC2E9FF8BC2EAFF0C0EEB500108E2
:102C400001E1DF828CC2E9FF8DC2EAFF020EEB5088
:102C5000010812E18CC2E9FF8DC2EAFF0F0EEB50B2
:102C600000090AE18CC2E9FF8DC2EAFF0C0EEB50AD
:102C7000010802E1000EDF80020EDF5C03E1020EBC
:102C8000DF6E06D0DF0402E1DF6A02D0030EDF6EE2
:102C9000DF5000D0E552E552E7CFD9FF12008AC2DB
:102CA000E9FF8BC2EAFF020EEB5000090BE18AC27A
:102CB000E9FF8BC2EAFF0C0EE926000EEA22EF6A5A
:102CC00030D024D08AC2E9FF8BC2EAFF0F0EEB504E
:102CD000010802E126D01AD08AC2E9FF8BC2EAFFBE
:102CE0000C0EEB50010812E18CC2E9FF8DC2EAFF25
:102CF0000C0EEB5001080AE18CC2E9FF8DC2EAFF1D
:102D00000C0EE926000EEA22EF6A0BD08AC2E9FF18
:102D10008BC2EAFF0C0EE926000EEA22010EEF6ECE
:102D200000D012008CC2E9FF8DC2EAFF020EEB5008
:102D300000090BE18CC2E9FF8DC2EAFF0C0EE92607
:102D4000000EEA22EF6A30D024D08CC2E9FF8DC297
:102D5000EAFF0F0EEB50010802E126D01AD08AC21A
:102D6000E9FF8BC2EAFF0C0EEB50010812E18CC2A6
:102D7000E9FF8DC2EAFF0C0EEB5001080AE18AC29E
:102D8000E9FF8BC2EAFF0C0EE926000EEA22EF6A89
:102D90000BD08CC2E9FF8DC2EAFF0C0EE926000EB3
:102DA000EA22010EEF6E00D012008AC2E9FF8BC248
:102DB000EAFF020EEB50010810E18AC2E9FF8BC264
:102DC000EAFF0F0EEB50000908E18AC2E9FF8BC24F
:102DD000EAFF0D0EEB50010818E08CC2E9FF8DC22E
:102DE000EAFF020EEB50010811E18CC2E9FF8DC22F
:102DF000EAFF0F0EEB50000909E18CC2E9FF8DC21A
:102E0000EAFF0D0EEB50010801E125D08AC2E9FF6F
:102E10008BC2EAFF120EEB50010812E18CC2E9FFEF
:102E20008DC2EAFF120EEB5001080AE18CC2E9FFE5
:102E30008DC2EAFF120EE926000EEA22EF6A0BD0DD
:102E40008AC2E9FF8BC2EAFF120EE926000EEA22CF
:102E5000010EEF6E00D012008AC2E9FF8BC2EAFFBA
:102E6000120EEB50010812E18CC2E9FF8DC2EAFF9D
:102E7000120EEB5001080AE18AC2E9FF8BC2EAFF99
:102E8000120EE926000EEA22EF6A0BD08CC2E9FF8F
:102E90008DC2EAFF120EE926000EEA22010EEF6E45
:102EA00000D01200D9CFE6FFE1CFD9FFE652100ED5
:102EB000DF6EFE0EDB50020A01E1AED0060A01E130
:102EC0009AD00C0A01E185D0090A71E0210A5DE07F
:102ED000300A49E0900A26E0C00A03E00001F52B21
:102EE000ACD00001ED2BA4EC09F000090CE18BDE65
:102EF000DF6EFD0EDBCFE6FFDFCFE6FF80EC0AF0F2
:102F0000E552E5520ED0E66ABFEC09F0E552DF6EFD
:102F1000FD0EDBCFE6FFDFCFE6FF18EC0EF0E5524B
:102F2000E5528BD00001EE2BA4EC09F000090CE176
:102F30006ADEDF6EFD0EDBCFE6FFDFCFE6FF4EEC95
:102F40000FF0E552E5520ED0E66ABFEC09F0E5520B
:102F5000DF6EFD0EDBCFE6FFDFCFE6FFE4EC10F027
:102F6000E552E5526AD00001EF2B8AC2E9FF8BC21D
:102F7000EAFF0D0EEB50000907E1A4EC09F000098F
:102F800002E18DDE01D011DF58D00001F02B8CC2A0
:102F9000E9FF8DC2EAFF0D0EEB50000907E1A4EC3A
:102FA00009F0000902E1BEDE01D056DF46D0000183
:102FB000F12B010EE66EBFEC09F0E552DF6EFD0E5F
:102FC000DBCFE6FFDFCFE6FFE2EC12F0E552E552A1
:102FD00034D00001F22B010EE66EBFEC09F0E55291
:102FE000DF6EFD0EDBCFE6FFDFCFE6FF85EC13F0F3
:102FF000E552E55222D00001F32BE66ABFEC09F05E
:10300000E552DF6EFD0EDBCFE6FFDFCFE6FF20EC03
:1030100012F0E552E55211D00001F42B010EE66EDC
:10302000BFEC09F0E552DF6EFD0EDBCFE6FFDFCF30
:10303000E6FFA3DCE552E55200D0E552E552E7CFCA
:10304000D9FF12000001F95100D012000001E8512F
:1030500000D01200D9CFE6FFE1CFD9FF030EE12661
:10306000100EDF6EDE52DD6E020EDB6A8150010B48
:103070000001F96FE85123E1FD0EDBCFE6FF67ECBD
:103080004FF0E55201081AE10001F65111E1FD0E81
:10309000DBCFE6FF8CC2E6FF8DC2E6FF8AC2E6FF09
:1030A0008BC2E6FF1CEC50F0006E050EE15E005096
:1030B000C4EC76F00001E96F010EE86F63D1E8051A
:1030C00001E08AD0FE0EDB50810803E0F60501E046
:1030D00077D0E9C0E6FFC8EC76F0E552006E0A0E44
:1030E000005C03E20001E8510DD2FD0EDBCFE6FFEC
:1030F000E66AE66AE66AE66AE66AE66AE66AE66A50
:10310000030EE66E880EE66E67EC4EF0006E0B0E58
:10311000E15E0050010853E10001F65104E1C4EC06
:1031200076F00001E96FC4EC76F00001EA6F020E60
:10313000E86FF66B8AC2E9FF8BC2EAFFEB50F76FCC
:103140008CC2E9FF8DC2EAFF020EEB50F86F8AC213
:10315000E9FF8BC2EAFF020EE926000EEA22EF6ABF
:103160008CC2E9FF8DC2EAFF020EE926000EEA22B8
:10317000EF6A8AC2E9FF8BC2EAFF100EE926000E51
:10318000EA22EF6A8CC2E9FF8DC2EAFF100EE9263F
:10319000000EEA22EF6A8AC2E9FF8BC2EAFF0F0E35
:1031A000E926000EEA22010EEF6E8CC2E9FF8DC205
:1031B000EAFF0F0EE926000EEA22010EEF6E0BD099
:1031C000F65109E1FD0EDBCFE6FFFE0EDBCFE6FF99
:1031D00069DEE552E552D6D0020EE85D01E0D2D0BC
:1031E000E9C0E6FFC8EC76F0E552006E016A0134F2
:1031F00004E20050D708000E015410E38AC2E9FF30
:103200008BC2EAFF020EEB5001083EE18CC2E9FFDF
:103210008DC2EAFF020EEB50010836E10001010EFB
:10322000E86FFD0EDBCFE6FFE66AE66AE66AE66A6D
:10323000E66AE66AE66AE66A030EE66E890EE66EFE
:1032400067EC4EF0006E0B0EE15E00508AC2E9FFA3
:103250008BC2EAFF020EEB50000915E18CC2E9FFB8
:103260008DC2EAFF020EEB5000090DE18AC2E9FFB0
:103270008BC2EAFF020EF7C0EBFF8CC2E9FF8DC2E2
:10328000EAFFF8C0EBFF48D0EAC0E6FFC8EC76F0F2
:10329000E552140841E2C4EC76F00001EA6FFD0E3D
:1032A000DBCFE6FFDFEC4FF0E552010835E100012E
:1032B000010EE86FFD0EDBCFE6FFE66AE66AE66A1E
:1032C000E66AE66AE66AE66AE66A030EE66E890E72
:1032D000E66E67EC4EF0006E0B0EE15E00508AC2A7
:1032E000E9FF8BC2EAFF020EEB50000915E18CC228
:1032F000E9FF8DC2EAFF020EEB5000090DE18AC220
:10330000E9FF8BC2EAFF020EF7C0EBFF8CC2E9FFB8
:103310008DC2EAFFF8C0EBFF8AC2E9FF8BC2EAFF69
:10332000020EEB50010813E18AC2E9FF8BC2EAFFEB
:103330000F0EE926000EEA22EF6A8AC2E9FF8BC26D
:10334000EAFF0C0EE926000EEA22010EEF6E8CC297
:10335000E9FF8DC2EAFF020EEB50010813E18CC2B7
:10336000E9FF8DC2EAFF0F0EE926000EEA22EF6A9E
:103370008CC2E9FF8DC2EAFF0C0EE926000EEA229C
:10338000010EEF6E010E0001E85D01E2B8D0020E01
:10339000E85D0EE1E9C0E6FFC8EC76F0E552006EAC
:1033A0000F0E005C05E2010EF36E020EF3CFDBFFA1
:1033B00081B015D0020EDBCFE6FFFD0EDBCFE6FFBE
:1033C0008CC2E6FF8DC2E6FF8AC2E6FF8BC2E6FF33
:1033D000CCEC51F0006E060EE15E0050DF6E020E86
:1033E000DB0412E18AC2E9FF8BC2EAFF020EE92682
:1033F000000EEA22EF6A8CC2E9FF8DC2EAFF020EDC
:10340000E926000EEA22EF6A8AC2E9FF8BC2EAFFD0
:10341000020EEB50010836E1030EDF5C03E0020E02
:10342000DF5C0DE1C4EC76F00001EB6F8AC2E9FFCE
:103430008BC2EAFF0F0EE926000EEA22EF6A8AC26B
:10344000E9FF8BC2EAFF0F0EEB50010801E11AD031
:10345000EBC0E6FFC8EC76F0E5521E0813E28AC224
:10346000E9FF8BC2EAFF0F0EE926000EEA22010EE9
:10347000EF6E8AC2E9FF8BC2EAFF110EE926000E49
:10348000EA22EF6A8CC2E9FF8DC2EAFF020EEB501E
:10349000010835E1030EDF5C02E0DF500DE1C4EC12
:1034A00076F00001EC6F8CC2E9FF8DC2EAFF0F0ECF
:1034B000E926000EEA22EF6A8CC2E9FF8DC2EAFF1C
:1034C0000F0EEB50010801E11AD0ECC0E6FFC8EC8A
:1034D00076F0E5521E0813E28CC2E9FF8DC2EAFFC6
:1034E0000F0EE926000EEA22010EEF6E8CC2E9FFF4
:1034F0008DC2EAFF110EE926000EEA22EF6A0001F2
:10350000E85100D0006E030EE15C02E2E16AE55290
:0C351000E16E0050E552E7CFD9FF120039
:04351C00DACFE4FF1F
:10352000E2CFDAFFE9CFE4FFEACFE4FFF6CFE4FF32
:10353000F7CFE4FFF5CFE4FFF3CFE4FFF4CFE4FFF0
:10354000FACFE4FF00EE1CF0140EE80403E3EECF24
:10355000E4FFFBD700EE00F01C0EE80403E3EECF1F
:10356000E4FFFBD7E652FC0ED3140009D36E4FECF8
:1035700055F0E55200EE1BF01C0EE80403E3E5CF26
:10358000EDFFFBD700EE2FF0140EE80403E3E5CFC8
:10359000EDFFFBD7E5CFFAFFE5CFF4FFE5CFF3FF73
:1035A000E5CFF5FFE5CFF7FFE5CFF6FFE5CFEAFF83
:1035B000E5CFE9FFE5CFDAFF1100D8CFE4FFE0CF98
:1035C000E4FFE46EDACFE4FFE2CFDAFFE9CFE4FF15
:1035D000EACFE4FFF6CFE4FFF7CFE4FFF5CFE4FF57
:1035E000F3CFE4FFF4CFE4FFFACFE4FF00EE1CF0EA
:1035F000140EE80403E3EECFE4FFFBD700EE00F087
:103600001C0EE80403E3EECFE4FFFBD7E652FC0E0A
:10361000D3140009D36EEAEC76F0E55200EE1BF00D
:103620001C0EE80403E3E5CFEDFFFBD700EE2FF01F
:10363000140EE80403E3E5CFEDFFFBD7E5CFFAFF77
:10364000E5CFF4FFE5CFF3FFE5CFF5FFE5CFF7FFDB
:10365000E5CFF6FFE5CFEAFFE5CFE9FFE5CFDAFFFB
:10366000E550E5CFE0FFE5CFD8FF1000D9CFE6FF6A
:10367000E1CFD9FF020EE126580EDE6E020EDD6E9E
:10368000D08EF29EF29CC0909B8CDFCF00F0DF06C4
:10369000010EDBCF01F001E2DB060050011001E07A
:1036A000F4D70F0148694969020EE15C02E2E16A60
:1036B000E552E16EE552E7CFD9FF12000F014D9FB1
:1036C000D38EFC0ED3140009D36EF28EF28C12004E
:1036D000D9CFE6FFE1CFD9FF020EE126DF6A010E66
:1036E000DB6AFB0EDBCFE9FFFC0EDBCFEAFFEF501E
:1036F000E66EDF50DF2AE76EFD0EDBCFE9FFFE0E40
:10370000DBCFEAFFE750E926000EEA22E552E75058
:10371000EF6EFB0EDBCFE9FFFC0EDBCFEAFF020E04
:10372000E926000EEA22EF50E66EDF50DF2AE76E50
:10373000FD0EDBCFE9FFFE0EDBCFEAFFE750E92607
:10374000000EEA22E552E750EF6EFB0EDBCFE9FFF9
:10375000FC0EDBCFEAFF030EE926000EEA22EF5053
:10376000E66EDF50DF2AE76EFD0EDBCFE9FFFE0ECF
:10377000DBCFEAFFE750E926000EEA22E552E750E8
:10378000EF6EFB0EDBCFE9FFFC0EDBCFEAFF040E92
:10379000E926000EEA22EF50E66EDF50DF2AE76EE0
:1037A000FD0EDBCFE9FFFE0EDBCFEAFFE750E92697
:1037B000000EEA22E552E750EF6EFB0EDBCFE9FF89
:1037C000FC0EDBCFEAFF050EE926000EEA22EF50E1
:1037D000E66EDF50DF2AE76EFD0EDBCFE9FFFE0E5F
:1037E000DBCFEAFFE750E926000EEA22E552E75078
:1037F000EF6EFB0EDBCFE9FFFC0EDBCFEAFF060E20
:10380000E926000EEA22EF50E66EDF50DF2AE76E6F
:10381000FD0EDBCFE9FFFE0EDBCFEAFFE750E92626
:10382000000EEA22E552E750EF6EFB0EDBCFE9FF18
:10383000FC0EDBCFEAFF070EE926000EEA22EF506E
:10384000E66EDF50DF2AE76EFD0EDBCFE9FFFE0EEE
:10385000DBCFEAFFE750E926000EEA22E552E75007
:10386000EF6EFB0EDBCFE9FFFC0EDBCFEAFF080EAD
:10387000E926000EEA22EF50E66EDF50DF2AE76EFF
:10388000FD0EDBCFE9FFFE0EDBCFEAFFE750E926B6
:10389000000EEA22E552E750EF6EFB0EDBCFE9FFA8
:1038A000FC0EDBCFEAFF0A0EE926000EEA22EF50FB
:1038B000E66EDF50DF2AE76EFD0EDBCFE9FFFE0E7E
:1038C000DBCFEAFFE750E926000EEA22E552E75097
:1038D000EF6EFB0EDBCFE9FFFC0EDBCFEAFF0B0E3A
:1038E000E926000EEA22EF50E66EDF50DF2AE76E8F
:1038F000FD0EDBCFE9FFFE0EDBCFEAFFE750E92646
:10390000000EEA22E552E750EF6EFB0EDBCFE9FF37
:10391000FC0EDBCFEAFF090EE926000EEA22EF508B
:10392000E66EDF50DF2AE76EFD0EDBCFE9FFFE0E0D
:10393000DBCFEAFFE750E926000EEA22E552E75026
:10394000EF6EFB0EDBCFE9FFFC0EDBCFEAFF0C0EC8
:10395000E926000EEA22EF50E66EDF50DF2AE76E1E
:10396000FD0EDBCFE9FFFE0EDBCFEAFFE750E926D5
:10397000000EEA22E552E750EF6EFB0EDBCFE9FFC7
:10398000FC0EDBCFEAFF0D0EE926000EEA22EF5017
:10399000E66EDF50DF2AE76EFD0EDBCFE9FFFE0E9D
:1039A000DBCFEAFFE750E926000EEA22E552E750B6
:1039B000EF6EFB0EDBCFE9FFFC0EDBCFEAFF0E0E56
:1039C000E926000EEA22EF50E66EDF50DF2AE76EAE
:1039D000FD0EDBCFE9FFFE0EDBCFEAFFE750E92665
:1039E000000EEA22E552E750EF6EFB0EDBCFE9FF57
:1039F000FC0EDBCFEAFF0F0EE926000EEA22EF50A5
:103A0000E66EDF50DF2AE76EFD0EDBCFE9FFFE0E2C
:103A1000DBCFEAFFE750E926000EEA22E552E75045
:103A2000EF6EFB0EDBCFE9FFFC0EDBCFEAFF100EE3
:103A3000E926000EEA22EF50E66EDF50DF2AE76E3D
:103A4000FD0EDBCFE9FFFE0EDBCFEAFFE750E926F4
:103A5000000EEA22E552E750EF6EFB0EDBCFE9FFE6
:103A6000FC0EDBCFEAFF110EE926000EEA22EF5032
:103A7000E66EDF50DF2AE76EFD0EDBCFE9FFFE0EBC
:103A8000DBCFEAFFE750E926000EEA22E552E750D5
:103A9000EF6EFB0EDBCFE9FFFC0EDBCFEAFF120E71
:103AA000E926000EEA22EF50E66EDF50DF2AE76ECD
:103AB000FD0EDBCFE9FFFE0EDBCFEAFFE750E92684
:103AC000000EEA22E552E750EF6EFB0EDBCFE9FF76
:103AD000FC0EDBCFEAFFEE52EF50E66EDF50DF2A3E
:103AE000E76EFD0EDBCFE9FFFE0EDBCFEAFFE7500E
:103AF000E926000EEA22E552E750EF6E010EDB6A7E
:103B0000160EF36E010EDBCFF4FFF350F45C2BE2E4
:103B1000FB0EDBCFE9FFFC0EDBCFEAFF150EE9263B
:103B2000000EEA22E9CF00F0EACF01F0010EDB50EF
:103B30000F010024E96E000E0120EA6EEF50E66EE0
:103B4000DF50DF2AE76EFD0EDBCFE9FFFE0EDBCF95
:103B5000EAFFE750E926000EEA22E552E750EF6E51
:103B6000010EDB2ACDD7DF50006E020EE15C03E2CE
:103B700000D0E16AE552E16E0050E552E7CFD9FF8F
:103B80001200D9CFE6FFE1CFD9FF060EE126DF6AAA
:103B9000010EDB6A020EDB6A030EDB6A040EDB6ACF
:103BA000050EDB6A010EDBCFF3FFDB2AF350E76E75
:103BB000FD0EDBCFE9FFFE0EDBCFEAFFE750E92683
:103BC000000EEA22EF50080A01E17CD10F0A01E160
:103BD0004FD1010A01E1A8D0030A01E18ED0010A08
:103BE00070E0070A52E0010A2EE0030A09E0F80E2D
:103BF000DBCFE9FFF90EDBCFEAFFEF6ADF6A89D19D
:103C0000F70EDBCFE6FF010EDBCFF3FFDB2AF3502D
:103C1000E76EFD0EDBCFE9FFFE0EDBCFEAFFE750DC
:103C2000E926000EEA22EF50E66E52EC17F0E5525C
:103C3000E552F80EDBCFE9FFF90EDBCFEAFFEF6AC2
:103C4000010EDF6E66D1010EDBCFF3FFDB2AF350EE
:103C5000E76EFD0EDBCF00F0FE0EDBCF01F0E7508C
:103C60000026000E012200C0E6FF01C0E6FF8BEC3B
:103C700072F0E552E552F80EDBCFE9FFF90EDBCF2B
:103C8000EAFFEF6A010EDF6E44D1680EE66E040EA5
:103C9000E66EFA0EDBCFE6FFFB0EDBCFE6FF18DDAC
:103CA000E552E552E552E552E66EF80EDBCFE9FF4C
:103CB000F90EDBCFEAFFE552E750EF6E010EDF6E43
:103CC00028D1930EE66E040EE66EFA0EDBCFE6FF09
:103CD000FB0EDBCFE6FFFCDCE552E552E552E55298
:103CE000E66EF80EDBCFE9FFF90EDBCFEAFFE55217
:103CF000E750EF6E010EDF6E0CD1F80EDBCFE9FF5F
:103D0000F90EDBCFEAFF010EEF6E22EC18F0E66E43
:103D1000FA0EDBCFE9FFFB0EDBCFEAFFE552E750FF
:103D2000EF6E010EDF6EF5D0020EE76EFD0EDBCFFB
:103D3000E9FFFE0EDBCFEAFFE750E926000EEA229C
:103D4000EF50E66ED950020FE96EDACFEAFFE55286
:103D5000E750EE6EED6A020EDBCF00F0030EDBCF14
:103D600001F000C001F0006A020E00C0DBFF030E8C
:103D700001C0DBFFE76EFD0EDBCFE9FFFE0EDBCF00
:103D8000EAFFE750E926000EEA22EF50006E016AD2
:103D9000D950020FE96EDACFEAFF0050EE1201505F
:103DA000ED12040EE76EFD0EDBCFE9FFFE0EDBCF5A
:103DB000EAFFE750E926000EEA22EF50E66ED950FE
:103DC000040FE96EDACFEAFFE552E750EE6EED6AD6
:103DD000040EDBCF00F0050EDBCF01F000C001F0D8
:103DE000006A040E00C0DBFF050E01C0DBFFE76EBA
:103DF000FD0EDBCFE9FFFE0EDBCFEAFFE750E92641
:103E0000000EEA22EF50006E016AD950040FE96EED
:103E1000DACFEAFF0050EE120150ED12040EDBCFB4
:103E2000E6FF050EDBCFE6FF020EDBCFE6FF030E5B
:103E3000DBCFE6FF010EE76EFD0EDBCFE9FFFE0EE6
:103E4000DBCFEAFFE750E926000EEA22EF50E66EEC
:103E500015EC39F0006E050EE15E0050F80EDBCF78
:103E6000E9FFF90EDBCFEAFFEF6A010EDF6E51D0FA
:103E7000F70EDBCFE6FF010EE76EFA0EDBCF00F0A8
:103E8000FB0EDBCF01F0E7500026000E012200C040
:103E9000E6FF01C0E6FFFA0EDBCFE6FFFB0EDBCF4D
:103EA000E6FF4AEC4FF0026E050EE15E0250F80E9E
:103EB000DBCFE9FFF90EDBCFEAFF020EEF6E010E5A
:103EC000DF6E27D0F80EDBCFE9FFF90EDBCFEAFF7C
:103ED000EF6A010EDBCFF3FFDB2AF350E76EFD0E36
:103EE000DBCFE9FFFE0EDBCFEAFFE750E926000E4D
:103EF000EA22EF5005E10E01936B010EDF6E08D050
:103F00000E01920504E1010E936FDF6E01D0DF6AAE
:103F100000D0DF50006E060EE15C03E200D0E16AE3
:103F2000E552E16E0050E552E7CFD9FF1200D9CF3C
:103F3000E6FFE1CFD9FFFE0EDB5011E10E019351F8
:103F40000EE176EC76F0FC0ED3140309D36E65B661
:103F5000659203000300FC0ED3140009D36EFE0E1D
:103F6000DB5005E065B603D06582DDEC3BF0E55241
:103F7000E7CFD9FF1200D9CFE6FFE1CFD9FFFA0E84
:103F8000DB0409E1FB0EDBCFE9FFFC0EDBCFEAFF30
:103F9000030EEF6E61D0D950FD0FE96EFF0EDA20EF
:103FA000EA6E5C0ED880EE54030EED5412E2FB0E66
:103FB000DBCFE9FFFC0EDBCFEAFFEF50020809E29E
:103FC000FB0EDBCFE9FFFC0EDBCFEAFF030EEF6E4B
:103FD00043D0D950FD0FE96EFF0EDA20EA6E3C0E99
:103FE000D880EE54030EED5412E2FB0EDBCFE9FF56
:103FF000FC0EDBCFEAFFEF50010809E2FB0EDBCF3E
:10400000E9FFFC0EDBCFEAFF020EEF6E25D0D950A0
:10401000FD0FE96EFF0EDA20EA6E280ED880EE540E
:10402000030EED5412E2FB0EDBCFE9FFFC0EDBCFFB
:10403000EAFFEF50000809E2FB0EDBCFE9FFFC0EC0
:10404000DBCFEAFF010EEF6E07D0FB0EDBCFE9FFFF
:10405000FC0EDBCFEAFFEF6AE552E7CFD9FF120093
:104060000E01940503E1010E03D002D0000E00D032
:104070001200D9CFE6FFE1CFD9FFFE0EDB0411E13C
:10408000C2EC78F0000909E1AAEC74F0C9EC78F010
:10409000010EE66E7FEC4FF0E5520E01010E946FBB
:1040A00011D0FE0EDB5002080DE1C2EC78F00108E1
:1040B00006E1E66A7FEC4FF0E552CBEC78F00E01BA
:1040C000020E946FE552E7CFD9FF1200020E0E01E7
:1040D000945D24E122EC78F0000910E10E018D05D9
:1040E0000DE141EC63F0010809E195CEE6FFEDEC4E
:1040F00077F0E5520E01110E966F0FD022EC78F09A
:1041000001080BE10E018D0508E095CEE6FF08ECF5
:1041100078F0E5520E01220E966F12D0940510E150
:1041200041EC63F001080CE122EC78F0000908E1B1
:1041300095CEE6FFEDEC77F0E5520E01330E966F6B
:104140001200D9CFE6FFE1CFD9FFFD0EDB5012E11F
:10415000FC0EDB0408E1FE0EDBCFE6FFB8EC4FF00F
:10416000E5520E01936BAAEC74F0020EE66E81DF4D
:10417000E55230D0FB0EDB5005E0010EE66E79DF34
:10418000E55228D0A6EC74F0140815E226EC18F0DD
:10419000020811E0FC0EDB5009E1AA0E0E01975D4A
:1041A00005E0020EE66E65DFE55204D0010EE66E14
:1041B00060DFE5520FD0FD0EDB0405E1010EE66E77
:1041C00058DFE55207D0FC0EDB0404E1010EE66E79
:1041D00050DFE5527BDFE552E7CFD9FF1200D9CFA0
:1041E000E6FFE1CFD9FFE6521B0EDF6EFD0EDBCFFF
:1041F000E9FFFE0EDBCFEAFF090EE926000EEA22F8
:10420000EF50030A32E0020A19E0030A14E0020A3E
:1042100003E01B0EDF6E2CD0FD0EDBCFE9FFFE0EA0
:10422000DBCFEAFF070EE926000EEA22EF500B0F64
:10423000FF0FDF6E1DD0030EDF6E1AD0FD0EDBCF39
:10424000E9FFFE0EDBCFEAFF070EE926000EEA22A9
:10425000EF500B0FFF0FDF6EFB0EDBCFE9FFFC0E05
:10426000DBCFEAFF010EEF6E03D0060EDF6E00D04B
:10427000DF5000D0E552E552E7CFD9FF1200D9CF89
:10428000E6FFE1CFD9FFE6521B0EDF6EFD0EDBCF5E
:10429000E9FFFE0EDBCFEAFF0D0EE926000EEA2253
:1042A000EF0406E1FC0EDB5003E1130EDF6ED0D00D
:1042B000FD0EDBCFE9FFFE0EDBCFEAFF070EE9269E
:1042C000000EEA22EF5056E1FD0EDBCFE9FFFE0EB5
:1042D000DBCFEAFF0A0EE926000EEA22EF501008B3
:1042E00003E10E0EDF6E45D0FD0EDBCFE9FFFE0EC3
:1042F000DBCFEAFF0A0EE926000EEA22EF50110892
:1043000003E10E0EDF6E35D0FD0EDBCFE9FFFE0EB2
:10431000DBCFEAFF0A0EE926000EEA22EFCF00F01B
:10432000005C27E3FD0EDBCFE9FFFE0EDBCFEAFFEB
:104330000A0EE926000EEA22EFCF01F0FD0EDBCFD8
:10434000E9FFFE0EDBCFEAFF0B0EE926000EEA22A4
:10435000EF50D88001540DE3FD0EDBCFE9FFFE0ED8
:10436000DBCFEAFF0A0EE926000EEA22EF50070F24
:10437000DF6E6ED0FD0EDBCFE9FFFE0EDBCFEAFF76
:10438000070EE926000EEA22EF50000822E2FD0E99
:10439000DBCFE9FFFE0EDBCFEAFF070EE926000EBA
:1043A000EA22EFCF00F0100E005C13E2FA0EDBCF32
:1043B000E6FFFB0EDBCFE6FFFD0EDBCFE6FFFE0EDA
:1043C000DBCFE6FF0CDFE552E552E552E552DF6E4A
:1043D0003FD0FD0EDBCFE9FFFE0EDBCFEAFF070E7D
:1043E000E926000EEA22EF50130803E1110EDF6EFA
:1043F0002FD0FD0EDBCFE9FFFE0EDBCFEAFF070E6D
:10440000E926000EEA22EF50120810E1FD0EDBCF84
:10441000E9FFFE0EDBCFEAFF0A0EE926000EEA22D4
:10442000EF50100803E10E0EDF6E12D0FD0EDBCF51
:10443000E9FFFE0EDBCFEAFF070EE926000EEA22B7
:10444000EF50120803E10F0EDF6E02D0120EDF6E86
:10445000DF5000D0E552E552E7CFD9FF1200D9CFA7
:10446000E6FFE1CFD9FFE652DF6ADF6AFA0EDB50E2
:10447000DF5C1FE2DF50E76EFB0EDBCFE9FFFC0ED7
:10448000DBCFEAFFE750E926000EEA22EF50E66EA6
:10449000DF50E76EFD0EDBCFE9FFFE0EDBCFEAFF5C
:1044A000E750E926000EEA22E552E750EF6EDF2AD8
:1044B000DDD7E552E552E7CFD9FF1200D9CFE6FFAD
:1044C000E1CFD9FF100EE126DF6ADE52540EDD6E19
:1044D000020EDB6A650EF36E030EF3CFDBFF040EF4
:1044E000DB6A730EF36E050EF3CFDBFF060EDB6A9D
:1044F000740EF36E070EF3CFDBFF080EDB6A690E56
:10450000F36E090EF3CFDBFF0A0EDB6A6E0EF36E5D
:104510000B0EF3CFDBFF0C0EDB6A670EF36E0D0E96
:10452000F3CFDBFF0E0EDB6A0F0EDB6A0401050E14
:10453000BE6FFB0EBF6FC06BC16BC269C369CB6935
:10454000CC69D169D269070ED06F150ECA6F070EFC
:10455000C46FF90EC56FC66BC76BC869C969CE69F0
:10456000CF69D469D569080ED36F150ECD6F020ED1
:10457000D66FD76BD86B010ED96FDD6B160EE66E5A
:10458000D9CFE6FFDACFE6FFDE0EE66E040EE66E6A
:1045900066DF006E050EE15E0050100EE15C02E287
:1045A000E16AE552E16EE552E7CFD9FF1200D9CFBB
:1045B000E6FFE1CFD9FFFD0EDBCFE9FFFE0EDBCF3B
:1045C000EAFF020EE926000EEA22EF0418E1FD0ED2
:1045D000DBCFE9FFFE0EDBCFEAFF0F0EE926000E70
:1045E000EA22EF500CE1FD0EDBCFE9FFFE0EDBCF40
:1045F000EAFFEE52EF0403E1010E03D002D0000EF9
:1046000000D0E552E7CFD9FF1200D9CFE6FFE1CFC6
:10461000D9FFE652DF6AFE0EDB0419E1FE0EDB6A0B
:104620000E019A6B9B6BBE0EE66E040EE66E1BECE3
:1046300036F0E552E5520401010EC16FC76FC26941
:10464000C369C869C969DA6FDB6F52EC37F00401DE
:104650006A0543E1690541E16A510E019A5D0EE088
:104660006AC49AFE0401DA6B020EE66E9DEC2DF030
:10467000E552020EE66ECDEC2DF0E5526BC4BEF4B1
:104680006CC4BFF46DC4C0F40401C16BC269C369DA
:10469000CB69CC69150ECA6FD169D269D9CFE6FF53
:1046A000DACFE6FFE66A680EE66E040EE66EE7DD38
:1046B000006E050EE15E00500401D06F160EE66E2E
:1046C0007D0EE66E040EE66EDE0EE66E040EE66EFF
:1046D000C6DE006E050EE15E00500401950541E165
:1046E00094053FE195510E019B5D0CE095C49BFE46
:1046F0000401DB6BE66A9DEC2DF0E552E66ACDEC39
:104700002DF0E55296C4C4F497C4C5F498C4C6F419
:104710000401C76BC869C969CE69CF69160ECD6F30
:10472000D469D569D9CFE6FFDACFE6FFE66A930E02
:10473000E66E040EE66EA3DD006E050EE15E00502F
:104740000401D36F160EE66EA80EE66E040EE66E3A
:10475000DE0EE66E040EE66E82DE006E050EE15E93
:104760000050E552E552E7CFD9FF1200D9CFE6FF5E
:10477000E1CFD9FFFD0EDBCFE9FFFE0EDBCFEAFF75
:10478000EF50020808E2FD0EDBCFE9FFFE0EDBCFA3
:10479000EAFF020EEF6EE552E7CFD9FF1200D9CF44
:1047A000E6FFE1CFD9FFFD0EDBCFE9FFFE0EDBCF49
:1047B000EAFFEF50000807E2FD0EDBCFE9FFFE0E37
:1047C000DBCFEAFFEF06E552E7CFD9FF1200D9CFE2
:1047D000E6FFE1CFD9FFFD0EDBCFE6FFFE0EDBCF1C
:1047E000E6FFC4DFE552E5520E019E050DE19DCEC8
:1047F000E6FFC8EC76F0E5520E0802E20E019E6B71
:10480000FC0EDBCF9FFE23D0FD0EDBCFE9FFFE0EBB
:10481000DBCFEAFFEF5018E0FC0EDB509F5D13E0AA
:10482000FC0EDB501B080FE0FD0EDBCFE6FFFE0E9B
:10483000DBCFE6FFB4DFE552E552C4EC76F00E01C3
:104840009D6F010E9E6F03D0FC0EDBCF9FFE0E010D
:104850009E5100D0E552E7CFD9FF1200D9CFE6FF35
:10486000E1CFD9FFFD0EDBCFE6FFFE0EDBCFE6FF8B
:104870007DDFE552E552FA0EDBCFE6FFFB0EDBCF24
:10488000E6FF74DFE552E5520E01A10510E1A0CE6E
:10489000E6FFC8EC76F0E5520E0802E20E01A16BCD
:1048A000F90EDBCFA3FEFC0EDBCFA2FE40D0FD0E47
:1048B000DBCFE9FFFE0EDBCFEAFFEF5008E1FA0E97
:1048C000DBCFE9FFFB0EDBCFEAFFEF5029E0FC0E68
:1048D000DB50A25D04E0FC0EDB501B0808E1F90E82
:1048E000DB50A35D1CE0F90EDB501B0818E0FD0E49
:1048F000DBCFE6FFFE0EDBCFE6FF51DFE552E552F0
:10490000FA0EDBCFE6FFFB0EDBCFE6FF48DFE5521A
:10491000E552C4EC76F00E01A06F010EA16F07D036
:10492000A16BF90EDBCFA3FEFC0EDBCFA2FE0E01C6
:10493000A15100D0E552E7CFD9FF1200D9CFE6FF51
:10494000E1CFD9FF0E01A751020A01E14CD1030AC0
:1049500001E1ABD0010A12E0A76BFD0EDBCFE9FF4E
:10496000FE0EDBCFEAFFEFCFA4FEFB0EDBCFE9FFAD
:10497000FC0EDBCFEAFFEFCFA5FE58D1FD0EDBCF5B
:10498000E9FFFE0EDBCFEAFFEF501B0809E0FB0E4C
:10499000DBCFE9FFFC0EDBCFEAFFEF501B0802E1A3
:1049A00045D182D0FD0EDBCFE9FFFE0EDBCFEAFF63
:1049B000EFCF00F0FB0EDBCFE9FFFC0EDBCFEAFF11
:1049C000EF50005C12E1FD0EDBCFE9FFFE0EDBCF06
:1049D000EAFFEFCFA4FEFB0EDBCFE9FFFC0EDBCF3F
:1049E000EAFFEFCFA5FE22D15FD0A72BC4EC76F073
:1049F0000E01A86FFD0EDBCFE9FFFE0EDBCFEAFF55
:104A0000EF50A45D1CE0FD0EDBCFE9FFFE0EDBCF17
:104A1000EAFFEFCFA4FEFD0EDBCFE9FFFE0EDBCFFA
:104A2000EAFFEF50E66EFB0EDBCFE9FFFC0EDBCFBB
:104A3000EAFFE552E750EF6EA4CEA6FE35D0FB0E9E
:104A4000DBCFE9FFFC0EDBCFEAFFEF50A55D1CE0FA
:104A5000FB0EDBCFE9FFFC0EDBCFEAFFEFCFA5FEBD
:104A6000FB0EDBCFE9FFFC0EDBCFEAFFEF50E66E7B
:104A7000FD0EDBCFE9FFFE0EDBCFEAFFE552E7508C
:104A8000EF6EA5CEA6FE10D0FD0EDBCFE9FFFE0E29
:104A9000DBCFEAFFA6CEEFFFFB0EDBCFE9FFFC0E7C
:104AA000DBCFEAFFA6CEEFFFC1D0FD0EDBCFE9FFE3
:104AB000FE0EDBCFEAFFEF501B0809E0FB0EDBCF59
:104AC000E9FFFC0EDBCFEAFFEF501B0803E1A76B09
:104AD000ADD02DD0FD0EDBCFE9FFFE0EDBCFEAFF20
:104AE000EFCF00F0FB0EDBCFE9FFFC0EDBCFEAFFE0
:104AF000EF50005C13E1A76BFD0EDBCFE9FFFE0E6C
:104B0000DBCFEAFFEFCFA4FEFB0EDBCFE9FFFC0E0D
:104B1000DBCFEAFFEFCFA5FE89D009D0A8CEE6FF14
:104B2000C8EC76F0E552140802E20E01A72BFD0E48
:104B3000DBCFE9FFFE0EDBCFEAFFEF500E01A45DF5
:104B40001CE0FD0EDBCFE9FFFE0EDBCFEAFFEFCF6F
:104B5000A4FEFD0EDBCFE9FFFE0EDBCFEAFFEF5038
:104B6000E66EFB0EDBCFE9FFFC0EDBCFEAFFE55282
:104B7000E750EF6EA4CEA6FE35D0FB0EDBCFE9FFEB
:104B8000FC0EDBCFEAFFEF50A55D1CE0FB0EDBCF98
:104B9000E9FFFC0EDBCFEAFFEFCFA5FEFB0EDBCF7C
:104BA000E9FFFC0EDBCFEAFFEF50E66EFD0EDBCF38
:104BB000E9FFFE0EDBCFEAFFE552E750EF6EA5CE30
:104BC000A6FE10D0FD0EDBCFE9FFFE0EDBCFEAFF25
:104BD000A6CEEFFFFB0EDBCFE9FFFC0EDBCFEAFF3B
:104BE000A6CEEFFF23D0FD0EDBCFE9FFFE0EDBCF1D
:104BF000EAFFEFCF00F0FB0EDBCFE9FFFC0EDBCFCF
:104C0000EAFFEF50005C01E1A76BFD0EDBCFE9FF8F
:104C1000FE0EDBCFEAFFEFCFA4FEFB0EDBCFE9FFFA
:104C2000FC0EDBCFEAFFEFCFA5FE00D0E552E7CFC9
:104C3000D9FF1200D9CFE6FFE1CFD9FFE652C4EC8D
:104C400076F00F0BDF6EFA0EDB0414E1DF5008087C
:104C500011E2FD0EDBCFE9FFFE0EDBCFEAFFEE68CF
:104C6000070EED6EFB0EDBCFE9FFFC0EDBCFEAFF9C
:104C7000190EEF6EE552E552E7CFD9FF120004019D
:104C80001B0ED06FD36FCB6BCC6BCE6BCF6BD16B5E
:104C9000D26BD46BD56BC26BC36BC86BC96BDA6B51
:104CA000DB6B150ECA6F160ECD6FDC6B6A055EE10D
:104CB0006BC4BEF46CC4BFF46DC4C0F4750502E0EF
:104CC000745104E1C26B480EC36F0AD0760506E149
:104CD000775104E12F0EC26FC36902D0C269C36964
:104CE0007751C15D05E0020EE66ECDEC2DF0E55288
:104CF00077C4C1F4040177512DE1740505E17551C4
:104D000003E1CB69CC6902D0CB6BCC6B7CC4E6FFF2
:104D1000CA0EE66E040EE66ECB0EE66E040EE66E6E
:104D200089DF006E050EE15E00500401D169D26991
:104D3000DC0EE66E040EE66EE66A680EE66E040EA3
:104D4000E66E3FEC21F0006E050EE15E00500401BE
:104D5000D06F06D0C269C3691B0ED06FCB6BCC6B12
:104D6000955103E1C76BC86BC96B01D0C16B950549
:104D70005DE196C4C4F497C4C5F498C4C6F4A00514
:104D800002E09F5104E1C86B480EC96F0AD0A1052B
:104D900006E1A25104E12F0EC86FC96902D0C869AB
:104DA000C969A251C75D04E0E66ACDEC2DF0E55279
:104DB000A2C4C7F40401A2512DE19F0505E1A05151
:104DC00003E1CE69CF6902D0CE6BCF6BA7C4E6FFFB
:104DD000CD0EE66E040EE66ECE0EE66E040EE66EA8
:104DE00029DF006E050EE15E00500401D469D5692B
:104DF000DC0EE66E040EE66EE66A930EE66E040EB8
:104E0000E66E3FEC21F0006E050EE15E00500401FD
:104E1000D36F06D0C869C9691B0ED36FCE6BCF6B39
:104E20006A5103E1C16BC26BC36B01D0C76B6A05EA
:104E30000CE195050AE1775108E1A25106E1D35151
:104E4000D05D03E0DE6BDF6B4DD06A0512E19505A6
:104E500010E177510EE1A2510CE1D351D05D09E18F
:104E6000130ED05D06E19D51725D03E0DE6BDF6BDA
:104E700039D0680EE66E040EE66ED7EC22F0E552ED
:104E8000E552010811E1160EE66E7D0EE66E040E87
:104E9000E66EDE0EE66E040EE66E2FEC22F0006E7D
:104EA000050EE15E00501ED0930EE66E040EE66E17
:104EB000D7EC22F0E552E552010811E1160EE66E3C
:104EC000A80EE66E040EE66EDE0EE66E040EE66ECC
:104ED0002FEC22F0006E050EE15E005003D00401BD
:104EE000DE6BDF6B04016A0523E1950521E1D3C484
:104EF000E6FFA60EE66E040EE66ED0C4E6FF7B0E5D
:104F0000E66E040EE66EAADC006E060EE15E005050
:104F10000401DC13D30EE66E040EE66ED00EE66ED0
:104F2000040EE66E0BDDE552E552E552E5521DD06A
:104F30006A050DE1D0C4E6FF7B0EE66E040EE66E58
:104F400046DCE552E552E5520401DC130ED095052E
:104F50000CE1D3C4E6FFA60EE66E040EE66E37DC67
:104F6000E552E552E5520401DC13120004016A0522
:104F700005E1760503E1010E0AD009D0950505E1AA
:104F8000A10503E1010E03D002D0000E00D01200F3
:104F900004016A0505E1770503E1010E0AD009D095
:104FA000950505E1A20503E1010E03D002D0000E34
:104FB00000D01200D9CFE6FFE1CFD9FFE652DF6A79
:104FC0000401C16BC76BDC6BC269C369C869C9697D
:104FD000CB69CC69CE69CF69D169D269D469D56909
:104FE000150ECA6F160ECD6F120ED06FFD0EDBCFF1
:104FF000E9FFFE0EDBCFEAFF030EE926000EEA22F0
:10500000EFCFBEF4FD0EDBCFE9FFFE0EDBCFEAFFF4
:10501000040EE926000EEA22EFCFBFF4FD0EDBCF2F
:10502000E9FFFE0EDBCFEAFF030EE926000EEA22BF
:10503000EFCFC4F4FD0EDBCFE9FFFE0EDBCFEAFFBE
:10504000040EE926000EEA22EFCFC5F4FD0EDBCFF9
:10505000E9FFFE0EDBCFEAFF070EE926000EEA228B
:10506000EF5000080FE2FD0EDBCFE9FFFE0EDBCFB5
:10507000EAFF070EE926000EEA22EFCF00F0100E3D
:10508000005C0DE3FD0EDBCFE9FFFE0EDBCFEAFF98
:105090000A0EE926000EEA22EF50110819E1FD0E72
:1050A000DBCFE9FFFE0EDBCFEAFF060EE926000E9E
:1050B000EA22EFCFC0F4FD0EDBCFE9FFFE0EDBCF1F
:1050C000EAFF050EE926000EEA22EFCFC6F418D05B
:1050D000FD0EDBCFE9FFFE0EDBCFEAFF050EE92672
:1050E000000EEA22EFCFC0F4FD0EDBCFE9FFFE0E8B
:1050F000DBCFEAFF060EE926000EEA22EFCFC6F468
:1051000035DF010809E144DF000906E104012F0E43
:10511000C26FC369C86FC96904017A5107E1C26BE4
:10512000480EC36FCB6BCC6B140ECD6FA55107E14E
:10513000C86B480EC96FCE6BCF6B140ECA6F750566
:1051400002E1775104E0A0050BE1A25109E1C26B35
:10515000480EC36FCB6BCC6B130ED06F140ECD6F9C
:10516000DC0EE66E040EE66E010EE66EFD0EDBCF83
:10517000E6FFFE0EDBCFE6FF3FEC21F0006E050EF2
:10518000E15E00500401D36F160EE66EFD0EDBCF1C
:10519000E9FFFE0EDBCFEAFF150EE926000EEA223C
:1051A000E9CF00F0EACF01F000C0E6FF01C0E6FF62
:1051B000DE0EE66E040EE66E2FEC22F0026E050E99
:1051C000E15E0250E552E552E7CFD9FF1200D9CF98
:1051D000E6FFE1CFD9FF0401DA6BDB6BFE0EDB509B
:1051E00003080EE0775105E0020EE66ECDEC2DF0DF
:1051F000E5520401A25104E0E66ACDEC2DF0E5523F
:10520000680EE66E040EE66ED7EC22F0E552E5522B
:1052100001082CE10401790529E1680EE66E040E0F
:10522000E66EC8DEE552E5527CC4E6FFCA0EE66EC5
:10523000040EE66ECB0EE66E040EE66EFBDC006E30
:10524000050EE15E0050A7C4E6FFCD0EE66E040E2B
:10525000E66ECE0EE66E040EE66EECDC006E050E1B
:10526000E15E00500E01010EA96F4CD0930EE66E68
:10527000040EE66ED7EC22F0E552E55201082CE16F
:105280000401A40529E1930EE66E040EE66E92DE9B
:10529000E552E5527CC4E6FFCA0EE66E040EE66EE9
:1052A000CB0EE66E040EE66EC5DC006E050EE15E0A
:1052B0000050A7C4E6FFCD0EE66E040EE66ECE0EDD
:1052C000E66E040EE66EB6DC006E050EE15E005082
:1052D0000E01020EA96F16D00E01030EA96F040174
:1052E0001B0ED06F010EC16FC26BC36BCB6BCC6B4F
:1052F0001B0ED36F010EC76FC86BC96BCE6BCF6B24
:10530000DE6BDF6B0E01A951AA5D02E0A9CEAAFEF9
:10531000E552E7CFD9FF1200D9CFE6FFE1CFD9FFA1
:10532000E652DF6A30EC20F00401D95D02E052EC75
:1053300037F00E019351AE5D04E052EC37F093CE9E
:10534000AEFE30EC20F00401D96F8CCED7F48DCEB8
:10535000D8F48FCED6F4F46B780502E0A30502E111
:10536000010EF46F30EC20F0000904E00E0193050B
:1053700001E0C1D004011B0ED06F010EC16FC26BE2
:10538000C36BCB6BCC6B1B0ED36F010EC76FC86B9F
:10539000C96BCE6BCF6B0E01935147E10401DE6BFD
:1053A000DF6BDF50DF2AEA6ADE0FE96E040EEA22C5
:1053B000EF6ADF50DF2AEA6ADE0FE96E040EEA22A6
:1053C0004F0EEF6EDF50DF2AEA6ADE0FE96E040E41
:1053D000EA22EF6ADF50DF2AEA6ADE0FE96E040E86
:1053E000EA22660EEF6EDF50DF2AEA6ADE0FE96E10
:1053F000040EEA22EF6ADF50DF2AEA6ADE0FE96E66
:10540000040EEA22660EEF6EDF50DF2AEA6ADE0F34
:10541000E96E040EEA22EF6ADF50DF2AEA6ADE0F45
:10542000E96E040EEA22EF6A65D0DF50DF2AEA6AED
:10543000DE0FE96E040EEA22EF6ADF50DF2AEA6A25
:10544000DE0FE96E040EEA22440EEF6EDF50DF2A13
:10545000EA6ADE0FE96E040EEA22EF6ADF50DF2A05
:10546000EA6ADE0FE96E040EEA22650EEF6EDF5087
:10547000DF2AEA6ADE0FE96E040EEA22EF6ADF50E5
:10548000DF2AEA6ADE0FE96E040EEA226C0EEF6E86
:10549000DF50DF2AEA6ADE0FE96E040EEA22EF6AC5
:1054A000DF50DF2AEA6ADE0FE96E040EEA22740E8C
:1054B000EF6EDF50DF2AEA6ADE0FE96E040EEA22A1
:1054C000EF6ADF50DF2AEA6ADE0FE96E040EEA2295
:1054D000610EEF6EDF50DF2AEA6ADE0FE96E040E1E
:1054E000EA22EF6ADF50DF2AEA6ADE0FE96E040E75
:1054F000EA22EF6A64D0AC050CE1ABCEE6FFC8EC63
:1055000076F0E552320804E20E01AC6B0401DD6B6B
:105510004DD0020EAC5D1EE1E66A05EC23F0E552CB
:10552000FE0EDB50020815E004016A5107E1DA6B58
:10553000C16B020EE66E9DEC2DF0E5520401955113
:1055400006E1DB6BC76BE66A9DEC2DF0E5520E01C0
:10555000AC6B2CD0900E895D0AE10401010EDD6F69
:105560000E01AC6FC4EC76F00E01AB6F1FD0FE0ED7
:10557000DB50020809E1010EE66E05EC23F0E5526E
:105580000E01020EAC6F12D00401790502E0A405F1
:1055900008E1ACCEE6FF1BDEE5520E01030EAC6F58
:1055A00005D03FEC26F00E01040EAC6F0E01AC519D
:1055B000AD5D05E0020EAD5D00E1ACCEADFEE552A5
:1055C000E552E7CFD9FF1200D9CFE6FFE1CFD9FFEF
:1055D000030EE126DF6A010EDB6A020EDB6A36EC9F
:1055E0001BF0BCEC76F0F29EBFEC78F0ECEC73F0C4
:1055F00082AE03D0DE52010EDD6EDDEC3BF05EECE0
:105600001BF08DEC70F07FEC72F070EC6EF0920E8F
:10561000E66E0E0EE66E8D0EE66E0E0EE66E8C0ECD
:10562000E66E0E0EE66E95CEE6FF21EC6BF0006E98
:10563000070EE15E005093EC75F0010EDBCFE6FF44
:10564000930EE66E040EE66E680EE66E040EE66ECF
:105650006AEC08F0006E050EE15E0050930EE66EF7
:10566000040EE66E680EE66E040EE66E48EC4EF032
:10567000E552E552E552E552F28E07EC08F00401DE
:10568000010E776FA26F68EC74F013EC36F0BE0E6B
:10569000E66E040EE66E1BEC36F0E552E552970E10
:1056A000E66E0E0EE66E010EE66E0B0EE66EFC0E5C
:1056B000E66E65EC6DF0006E050EE15E00500AECE2
:1056C00008F0870EE66E0E0EE66E8A0EE66E0E0E81
:1056D000E66E880EE66E0E0EE66E860EE66E0E0E18
:1056E000E66E65EC4AF0006E080EE15E0050920E28
:1056F000E66E0E0EE66E8ACEE6FF88CEE6FF86CE1A
:10570000E6FF8D0EE66E0E0EE66E8C0EE66E0E0E4B
:10571000E66EBFEC6BF0006E090EE15E0050900E7D
:10572000E66E0E0EE66EA9EC75F0E552E5520E013E
:1057300087511CE130EC20F0010809E187CEE6FF3B
:1057400089CEE6FF2AEC18F0E552E552DF6EDFCF96
:10575000E6FFE2DDE55289CEE6FFBE0EE66E040E00
:10576000E66E1AEC3AF0E552E552E55287CEE6FFD6
:10577000E3EC54F0E5528DCEE6FF8F0EE66E0E0E92
:10578000E66E90CEE6FF91CEE6FFBBEC1FF0006E1A
:10579000050EE15E00508DCEE6FF97EC1FF0E5525E
:1057A0000E01896B020E89CEDBFF875124E187CE83
:1057B000E6FF8B0EE66E0E0EE66E8B0EE66E0E0E9E
:1057C000E66E8A0EE66E0E0EE66E890EE66E0E0E22
:1057D000E66EADEC74F0006E090EE15E0050020E54
:1057E00089CEDBFF30EC20F0000905E1810E0E01CF
:1057F000895D01E0896B020EDBCFE6FF93CEE6FF09
:1058000092CEE6FF87CEE6FFA1EC20F0E552E5520E
:10581000E552E55254D7030EE15C02E2E16AE5523B
:0A582000E16EE552E7CFD9FF120058
:06582A00D9CFE6FFE1CF3B
:10583000D9FF030EE126DF68F90EDB5002E1030E0B
:10584000DF6EDFCFE6FFE66AFB0EDBCFE6FFFC0E86
:10585000DBCFE6FF2FEC65F0E552E552E552E5526D
:10586000DE52F3CFDEFFF4CFDDFFDD52D950010F62
:10587000E96EDACFEAFFEE50ED102BE0FE0EDBCF43
:10588000E6FF010EDBCFE9FF020EDBCFEAFFEF50B0
:10589000E552E724006EFA0EDB50D880005419E37D
:1058A000F90EDB0416E1E668E668010EDBCFE6FFE1
:1058B000020EDBCFE6FF160EE66EFD0EDBCFE6FF37
:1058C000FE0EDBCFE6FF52EC60F0006E070EE15EED
:1058D0000050010EDBCFE9FF020EDBCFEAFFEF50F5
:1058E000006E030EE15C03E200D0E16AE552E16E76
:1058F0000050E552E7CFD9FF1200D9CFE6FFE1CF44
:10590000D9FF030EE126DF6A010EDB6A020EDB6AB5
:10591000DF50E76EFB0EDBCFE9FFFC0EDBCFEAFFCB
:10592000E750E926000EEA22EFCF02F002C003F0B2
:10593000026A0216FF0E0316DF28E76EFB0EDBCFAE
:10594000E9FFFC0EDBCFEAFFE750E926000EEA2272
:10595000EF5000010224006E000E0320016E010EC4
:1059600000C0DBFF020E01C0DBFFD950010FE96E62
:10597000DACFEAFFEE50ED1020E0F90EDBCFE6FFC4
:10598000FA0EDBCFE6FF010EDBCFE6FF020EDBCF28
:10599000E6FFFD0EDBCFE6FFFE0EDBCFE6FF45DFC9
:1059A000016E060EE15E0150006EFE0EDBCFE7FFDA
:1059B0000050E726FE0EE7CFDBFF020EDF26D950B0
:1059C000010FE96EDACFEAFFEE50ED10A1E1FE0E15
:1059D000DB50006E030EE15C03E200D0E16AE552A9
:1059E000E16E0050E552E7CFD9FF1200D9CFE6FFB4
:1059F000E1CFD9FF020EE126E668010EE66EFE0E4B
:105A0000DBCFE6FFE66A2FEC65F0E552E552E552A2
:105A1000E552F3CFDEFFF4CFDDFFD9CFE9FFDACFD8
:105A2000EAFFEE50ED1017E0FA0EDBCFE6FFFB0EBB
:105A3000DBCFE6FFDECFE6FFDDCFE6FFE66AFC0E5A
:105A4000DBCFE6FFFD0EDBCFE6FF52EC60F0006E31
:105A5000070EE15E0050020EE15C02E2E16AE552EF
:105A6000E16EE552E7CFD9FF1200D9CFE6FFE1CFD3
:105A7000D9FF050EE126030EDF6EFC0EDBCF24F00E
:105A8000FD0EDBCF25F0DE5224C0DEFF25C0DDFF9A
:105A9000DD52FC0EDBCF24F0FD0EDBCF25F0030E34
:105AA00024C0DBFF040E25C0DBFFC4EC76F0070B3F
:105AB000030808E2010EDB6A7C0EF36E020EF3CFE0
:105AC000DBFF07D0030EDB6A7C0EF36E040EF3CF10
:105AD000DBFFFE0EDB5003E16A0EDF6E02D0020E2A
:105AE000DF6E010EDBCFE6FF020EDBCFE6FF210EFD
:105AF000E66EDFCFE6FF170EE66E78DF006E050E6E
:105B0000E15E0050030EDBCFE6FF040EDBCFE6FFC5
:105B10002F0EE66EDFCFE6FF180EE66E67DF006E33
:105B2000050EE15E0050050EE15C02E2E16AE5521D
:105B3000E16EE552E7CFD9FF1200D9CFE6FFE1CF02
:105B4000D9FFE652030EDF6EFE0EDB5003E16A0E54
:105B5000DF6E02D0020EDF6E000EE66EE66A210EE8
:105B6000E66EDFCFE6FF170EE66E40DF006E050E35
:105B7000E15E0050000EE66EE66A2F0EE66EDFCFA5
:105B8000E6FF180EE66E32DF006E050EE15E005095
:105B9000E552E552E7CFD9FF1200D9CFE6FFE1CFBA
:105BA000D9FF030EE126DF6A010EDB6A020EDB6A13
:105BB000FE0EDB5002080FE1000EE66EE66A1B0ED9
:105BC000E66E020EE66E030EE66E10DF006E050E48
:105BD000E15E00500ED0000EE66EE66A1B0EE66E29
:105BE000620EE66E030EE66E01DF006E050EE15EEC
:105BF0000050DE52090EDD6E010EDB50006E016AB0
:105C0000013404E200507608000E015440E3120E05
:105C1000006E010EDB50090F020F016E0A0E026EBC
:105C200002C02AF001C025F0B1EC78F02550005CEC
:105C3000030FE76E020EE7CFDBFFFE0EDB5002081C
:105C400003E1020EDF6E0FD0020EDB50006E016A20
:105C5000800ED8800056000E0156020E005E000E27
:105C6000015A0050DF6E000EE66EE66A020EDBCFD0
:105C7000E6FF010EDBCFE6FFDFCFE6FFDCEC5EF0F8
:105C8000006E050EE15E0050010EDB2AB5D7030E53
:105C9000E15C02E2E16AE552E16EE552E7CFD9FF4D
:105CA0001200D9CFE6FFE1CFD9FFE652FD0EDBCFE0
:105CB000E6FFFE0EDB50E552E724010FDF6E1B0E00
:105CC000F36EFC0EDBCFF4FFF350F45C02E242D043
:105CD00041D0370EF36EFC0EDBCFF4FFF350F45CD3
:105CE00002E338D037D0FE0EDB50006E016AD89048
:105CF000015004E6400E005C000E015814E2000E54
:105D0000E66EE66A1E0ED880DF54FE0FE66EFC0ECD
:105D1000DBCFE6FFDFCFE6FFDCEC5EF0006E050ECA
:105D2000E15E005017D0000EE66EE66AFD0EDBCF96
:105D3000E6FF1C0EE552D880E754FC0FE66EFC0E21
:105D4000DBCFE6FF640EE66EDCEC5EF0006E050E67
:105D5000E15E0050E552E552E7CFD9FF1200D9CFFE
:105D6000E6FFE1CFD9FF0C0EE126DF6A010EDB6A08
:105D7000020EDB6A040EF36E030EF3CFDBFF040E9C
:105D8000DB6A050EDB6A060EDB6A070EDB6A080EAD
:105D9000DB6A090EDB6A0A0EDB6A0B0EDB6AF70EA2
:105DA000DB040FE1F80EDBCFE6FFF90EDBCFE6FFF9
:105DB000FE0EDBCFE6FF59DEE552E552E55237EF46
:105DC00033F0FE0EDB50020817E1FA0EDB0414E19B
:105DD000F80EDBCFE6FFF90EDBCFE6FF1B0EE66E1B
:105DE000020EE66E030EE66E01DE006E050EE15E4B
:105DF000005037EF33F019D0FE0EDB5016E1FA0EEB
:105E0000DB0413E1F80EDBCFE6FFF90EDBCFE6FF94
:105E10001B0EE66E620EE66E030EE66EE7DD006EAA
:105E2000050EE15E005037EF33F0FD0EDBCF00F0E2
:105E3000FC0EDB50E76E0018E8AE02D0003403D051
:105E4000E750D880005402E337EF33F0FB0EDBCF8E
:105E500001F0FC0EDB50E76E0118E8AE02D0E7342B
:105E600002D0E750015C02E237EF33F0FE0EDB5068
:105E7000020803E1020EDF6E02D06C0EDF6EDE520E
:105E8000090EDD6E120EF36E020EF3CFDBFFF80E7D
:105E9000DBCFE6FFF90EDBCFE6FF020EDBCFE6FF3E
:105EA000010EDBCFE6FFDFCFE6FFDCEC5EF0006E3D
:105EB000050EE15E0050FE0EDB50020803E1020E0B
:105EC000DF6E02D0760EDF6EDE52760EDD6E080ECD
:105ED000F36E020EF3CFDBFFF80EDBCFE6FFF90E19
:105EE000DBCFE6FF020EDBCFE6FF010EDBCFE6FFE6
:105EF000DFCFE6FFDCEC5EF0006E050EE15E0050E9
:105F0000FE0EDB50020803E1020EDF6E02D07D0EB2
:105F1000DF6EDE52090EDD6E6D0EF36E030EF3CFF3
:105F2000DBFFF80EDBCFE6FFF90EDBCFE6FF030E5B
:105F3000DBCFE6FF010EDBCFE6FFDFCFE6FF51EC64
:105F40005FF0006E050EE15E0050DE52090EDD6E60
:105F5000010EDB50006E016AD890015004E6760E07
:105F6000005C000E01586BE2FE0EDB5002080FE1F0
:105F7000140E006E0A0E016E01C02AF0010EDBCF76
:105F800025F0B1EC78F02550005CDF6E15D00A0EDC
:105F9000026E02C02AF0010EDBCF25F0B1EC78F0E2
:105FA0002550016A6D0F006E000E0122020E005E88
:105FB000000E015A0050DF6E0A0EF36E050EF3CF8D
:105FC000DBFFDBCFE6FF010EDB50E552E724006E7E
:105FD000016A013404E200507608000E015410E218
:105FE000010EDB50006E016A760ED8800056000E5E
:105FF0000156010E0026000E0122050E00C0DBFF37
:10600000F80EDBCFE6FFF90EDBCFE6FF050EDBCFA8
:10601000E6FF010EDBCFE6FFDFCFE6FF51EC5FF0DE
:10602000006E050EE15E00500A0E006E010EDBCF21
:10603000E7FF0050E726010EE7CFDBFF89D7FB0E15
:10604000DBCF00F0FD0EDB50E76E0018E8AE02D0AB
:10605000E73402D0E750005C01E321D1FB0EDBCF37
:1060600008F008C025F037EC67F023C004F024C026
:1060700005F025C006F026C007F0FC0EDBCF0DF0C2
:106080000DC025F037EC67F023C009F024C00AF0FA
:1060900025C00BF026C00CF009C028F00AC029F07A
:1060A0000BC02AF00CC02BF004C023F005C024F074
:1060B00006C025F007C026F006EC68F023C000F00B
:1060C00024C001F025C002F026C003F0FD0EDBCF96
:1060D00016F016C025F037EC67F023C012F024C08C
:1060E00013F025C014F026C015F0FC0EDBCF1BF01A
:1060F0001BC025F037EC67F023C017F024C018F060
:1061000025C019F026C01AF017C028F018C029F0D1
:1061100019C02AF01AC02BF012C023F013C024F0CB
:1061200014C025F015C026F006EC68F023C00EF070
:1061300024C00FF025C010F026C011F00EC028F0CA
:106140000FC029F010C02AF011C02BF000C023F0BE
:1061500001C024F002C025F003C026F046EC67F031
:10616000080E23C0DBFF090E24C0DBFF0A0E25C08A
:10617000DBFF0B0E26C0DBFF080EDBCF00F0090EA5
:10618000DBCF01F00A0EDBCF02F00B0EDBCF03F00A
:10619000286A296A800E2A6E3F0E2B6E00C023F0FB
:1061A00001C024F002C025F003C026F0E2EC68F044
:1061B000010A0FE1080EDB6A090EDB6A800EF36E3E
:1061C0000A0EF3CFDBFF3F0EF36E0B0EF3CFDBFFB8
:1061D00024D0080EDBCF00F0090EDBCF01F00A0E51
:1061E000DBCF02F00B0EDBCF03F0286A296A2A6AA4
:1061F0002B6A00C023F001C024F002C025F003C0C8
:1062000026F0EBEC68F0010A08E1080EDB6A090EE3
:10621000DB6A0A0EDB6A0B0EDB6A006A016AEC0EAF
:10622000026E420E036E080EDBCF08F0090EDBCFC4
:1062300009F00A0EDBCF0AF00B0EDBCF0BF0286A59
:10624000296ADA0E2A6E420E2B6E08C023F009C0AE
:1062500024F00AC025F00BC026F099EC67F023C0AB
:1062600004F024C005F025C006F026C007F004C0E5
:1062700028F005C029F006C02AF007C02BF000C0A6
:1062800023F001C024F002C025F003C026F006EC84
:1062900068F0BBEC68F0060E25C0DBFF05D00A0EE7
:1062A000F36E060EF3CFDBFF236A246AC80E256E59
:1062B000420E266E080EDBCF28F0090EDBCF29F048
:1062C0000A0EDBCF2AF00B0EDBCF2BF099EC67F038
:1062D000BBEC68F025C042F2060EDBCF43F2FC0EA9
:1062E000DBCF08F008C025F037EC67F023C004F0DE
:1062F00024C005F025C006F026C007F0286A296AE8
:10630000800E2A6EBF0E2B6E04C023F005C024F051
:1063100006C025F007C026F099EC67F023C000F016
:1063200024C001F025C002F026C003F0FD0EDBCF33
:1063300011F011C025F037EC67F023C00DF024C038
:106340000EF025C00FF026C010F0FC0EDBCF16F0CB
:1063500016C025F037EC67F023C012F024C013F00C
:1063600025C014F026C015F012C028F013C029F083
:1063700014C02AF015C02BF00DC023F00EC024F07D
:106380000FC025F010C026F006EC68F023C009F01D
:1063900024C00AF025C00BF026C00CF009C028F07C
:1063A0000AC029F00BC02AF00CC02BF000C023F06B
:1063B00001C024F002C025F003C026F046EC67F0CF
:1063C000080E23C0DBFF090E24C0DBFF0A0E25C028
:1063D000DBFF0B0E26C0DBFF080EDBCF00F0090E43
:1063E000DBCF01F00A0EDBCF02F00B0EDBCF03F0A8
:1063F000286A296A800E2A6E3F0E2B6E00C023F099
:1064000001C024F002C025F003C026F0E2EC68F0E1
:10641000010A0FE1080EDB6A090EDB6A800EF36EDB
:106420000A0EF3CFDBFF3F0EF36E0B0EF3CFDBFF55
:1064300024D0080EDBCF00F0090EDBCF01F00A0EEE
:10644000DBCF02F00B0EDBCF03F0286A296A2A6A41
:106450002B6A00C023F001C024F002C025F003C065
:1064600026F0EBEC68F0010A08E1080EDB6A090E81
:10647000DB6A0A0EDB6A0B0EDB6A006A016AEC0E4D
:10648000026E420E036E080EDBCF08F0090EDBCF62
:1064900009F00A0EDBCF0AF00B0EDBCF0BF0286AF7
:1064A000296ADA0E2A6E420E2B6E08C023F009C04C
:1064B00024F00AC025F00BC026F099EC67F023C049
:1064C00004F024C005F025C006F026C007F004C083
:1064D00028F005C029F006C02AF007C02BF000C044
:1064E00023F001C024F002C025F003C026F006EC22
:1064F00068F0BBEC68F0070E25C0DBFFDE520A0E29
:10650000DD6E010EDB50006E016A013404E20050C2
:106510007508000E015401E2AAD0120E006E010EA1
:10652000DB50090F020F016E0A0E026E02C02AF044
:1065300001C025F0B1EC78F02550005C010FE76E4A
:10654000020EE7CFDBFFFE0EDB50020803E1030E75
:10655000DF6E0FD0020EDB50006E016A7F0ED88016
:106560000056000E0156020E005E000E015A005049
:10657000DF6E070EDB04F36E010EDB50F35C0EE002
:10658000070EDB50F36E010EDB50F35C07E0070EE5
:10659000DB28F36E010EDB50F35C2AE1D950F80FD3
:1065A000E96EFF0EDA20EA6EEE5002E1480EED18B9
:1065B0001FE0D950F80FE96EFF0EDA20EA6EEE50B8
:1065C000ED1016E0F60EDB5013E0E00EE66E070E5F
:1065D000E66E020EDBCFE6FF010EDBCFE6FFDFCF7C
:1065E000E6FFDCEC5EF0006E050EE15E00502FD0A1
:1065F000060EDB50F36E010EDBCFF4FFF350F45CBC
:1066000012E2000EE66EE66A020EDBCFE6FF010E36
:10661000DBCFE6FFDFCFE6FFDCEC5EF0006E050EC1
:10662000E15E005014D0F80EDBCFE6FFF90EDBCFB1
:10663000E6FF020EDBCFE6FF010EDBCFE6FFDFCF8A
:10664000E6FFDCEC5EF0006E050EE15E0050010E30
:10665000DBCFE6FF020EDBCFE6FFDFCFE6FF51EC3C
:106660002EF0E552E552E552010EDB2A4AD70C0E18
:10667000E15C02E2E16AE552E16EE552E7CFD9FF63
:106680001200D9CFE6FFE1CFD9FFFE0EDB500208A2
:1066900014E1FB0EDBCFE6FFFC0EDBCFE6FF650E61
:1066A000E66E120EE66EFD0EDBCFE6FFF6EC2CF08A
:1066B000006E050EE15E005016D0FE0EDB5013E1B9
:1066C000FB0EDBCFE6FFFC0EDBCFE6FF650EE66ED2
:1066D0005C0EE66EFD0EDBCFE6FFF6EC2CF0006EF6
:1066E000050EE15E0050E552E7CFD9FF1200D9CF89
:1066F000E6FFE1CFD9FFFE0EDB50120804E0FE0EEC
:10670000DB50130815E1FB0EDBCFE6FFFC0EDBCF01
:10671000E6FF090EE66EFD0EDBCFE6FFFE0EDBCFD9
:10672000E6FFF6EC2CF0006E050EE15E005049D05D
:10673000FA0EDB0416E10201465103E1476B010E3C
:10674000466F472B4751050801E2476B030E475D33
:1067500007E2FB0EDB6A480EF36EFC0EF3CFDBFFA5
:1067600002D00201466B1A0EF36EFE0EDBCFF4FF71
:10677000F350F45C15E2FB0EDBCFE6FFFC0EDBCF43
:10678000E6FF090EE66EFD0EDBCFE6FFFE0EDBCF69
:10679000E6FFF6EC2CF0006E050EE15E005011D025
:1067A000000EE66EE66A1C0EE66EE66E090EE66EFA
:1067B000FD0EDBCFE6FFC6EC5FF0006E060EE15E7D
:1067C0000050E552E7CFD9FF1200D9CFE6FFE1CF65
:1067D000D9FF040EE126DF6A010EDB6A140EF36EA8
:1067E000020EF3CFDBFF030EDB6AE66A6A0EE66E8B
:1067F000FD0EDBCFE6FFFE0EDBCFE6FF370EE66ECB
:10680000E66A7DEC2CF0006E060EE15E0050E76E4D
:10681000010EE7CFDBFFDB50540801E399D0020EF5
:10682000DBCF00F0000EE76E0018E8AE02D00034B7
:1068300003D0E750D880005401E38AD0020EDBCFAA
:1068400000F0016A00BE0168FD0EDB500024E96E15
:10685000FE0EDB500120EA6EEF6A020EDB28006EAE
:10686000016A00BE0168FD0EDB500024E96EFE0ED9
:10687000DB500120EA6EEF6A020E006EDBCFE7FF0D
:106880000050E75E020EE7CFDBFFDBCF00F0016ACE
:1068900000BE0168FD0EDB500024E96EFE0EDB50E9
:1068A0000120EA6EEF503DE1020EDB28026E036A22
:1068B00002BE0368FD0EDB500224E96EFE0EDB50C3
:1068C0000320EA6EEF5020082CE1020EDBCF04F02B
:1068D000000EE76E0418E8AE02D0043403D0E7508F
:1068E000D88004541EE2020EDBCF00F0016A00BE25
:1068F0000168FD0EDB500024E96EFE0EDB50012026
:10690000EA6EEF6A020EDB28006E016A00BE0168C3
:10691000FD0EDB500024E96EFE0EDB500120EA6E16
:10692000EF6AE66A6A0EE66EFD0EDBCFE6FFFE0E4C
:10693000DBCFE6FF370EE66EE66A7DEC2CF0006EEC
:10694000060EE15E0050E76E010EE7CFDBFF63D776
:10695000540E006E010EDB50D880005439E2010E57
:10696000DBCFE6FF540EE552D880E754FE0BE84239
:10697000E76E030EE7CFDBFF000EE66EE66A160E4B
:10698000E66E030EDBCFE6FF370EE66E160EE66E02
:10699000C6EC5FF0006E060EE15E0050000EE66E83
:1069A000E66A160EE66E030EDBCFE6FF370EE66EE6
:1069B000010EDBCFE6FF030EDB50160FE552E72496
:1069C000E66EC6EC5FF0006E060EE15E005002D08F
:1069D000030EDB6A030EDB50160FDF6E010EE66E50
:1069E0006A0EE66EFD0EDBCFE6FFFE0EDBCFE6FFA6
:1069F000370EE66EDFCFE6FF7DEC2CF0006E060E64
:106A0000E15E0050040EE15C02E2E16AE552E16EF3
:106A1000E552E7CFD9FF1200D9CFE6FFE1CFD9FF8A
:106A2000E652DF6AFD0EDBCFE6FFFE0EDBCFE6FFB0
:106A30001B0EE66E6E0EE66E320EE66EDCEC5EF05F
:106A4000006E050EE15E0050FD0EDBCFE6FFFE0E90
:106A5000DBCFE6FF1B0EE66E750EE66E320EE66EBF
:106A6000DCEC5EF0006E050EE15E0050FD0EDBCF4B
:106A7000E6FFFE0EDBCFE6FF080EE66E6E0EE66E5C
:106A8000320EE66E51EC5FF0006E050EE15E0050D6
:106A9000FD0EDBCFE6FFFE0EDBCFE6FF080EE66E57
