:020000040000FA
:060000004BEF4CF0120072
:0600080004EF08F01200F5
:060018000CEF08F01200DD
:061000004BEF4CF0120062
:021006001200D6
:0610080035EF1AF01200A2
:02100E000400DC
:08101000C08012000400120070
:061018008DEF1AF012003A
:02101E001000C0
:101020003B990000540E00000500000039990000B3
:10103000690E00000200000038990000FF00000067
:101040000100000036990000670E00000200000059
:1010500031990000FA040000050000002999000001
:101060004C0E00000800000025990000590E0000F9
:101070000400000020990000FA00000005000000B4
:1010800018990000440E0000080000000D990000AF
:10109000250E00000B0000000A990000600E000001
:1010A00003000000009900003A0E00000A00000052
:1010B000F4980000EE0400000C000000F29800001C
:1010C000650E000002000000EF9800005D0E0000B9
:1010D00003000000CA980000000E00002500000078
:1010E000C4EC48F00E01606B616B626B1200D9CFEB
:1010F000E6FFE1CFD9FFFD0EDBCFE9FFFE0EDBCF30
:10110000EAFF010EEF6E4DEC4AF00E01606FE55202
:10111000E7CFD9FF1200D9CFE6FFE1CFD9FF0E010B
:10112000610509E1FD0EDBCFE9FFFE0EDBCFEAFF33
:10113000010EEF6E16D060CEE6FF51EC4AF0E5529C
:1011400032080FE2FD0EDBCFE9FFFE0EDBCFEAFF38
:10115000EF0407E1FD0EDBCFE9FFFE0EDBCFEAFF78
:10116000EF6AE552E7CFD9FF1200D9CFE6FFE1CF12
:10117000D9FFFE0EDB500CE00E01010E616FFC0E7C
:10118000DBCFE9FFFD0EDBCFEAFF010EEF6E09D0EA
:101190000E01616BFC0EDBCFE9FFFD0EDBCFEAFF3A
:1011A000EF6A010E00D0E552E7CFD9FF1200D9CF88
:1011B000E6FFE1CFD9FF060EF36EFE0EDBCFF4FFA4
:1011C000F350F45C08E3FE0EDB500B0804E3FE0E64
:1011D000DBCF62FE02D00E01626BE552E7CFD9FF92
:1011E0001200D9CFE6FFE1CFD9FFE65262CEDFFF92
:1011F0000E01626BDF5000D0E552E552E7CFD9FF18
:101200001200D9CFE6FFE1CFD9FF150EE126020E7D
:10121000E76EFD0EDBCFE9FFFE0EDBCFEAFFE75006
:10122000E926000EEA22EF500F0A02E1E1EF10F08A
:10123000010A02E169EF10F0030A02E1EAEF0FF0A0
:10124000010A02E1EAEF0EF0070A02E15DEF0EF09B
:10125000010A02E10BEF0EF0030A02E198EF0DF034
:10126000010A01E1E5D30F0A01E1A1D3010A01E17D
:101270004ED3030A01E1C5D2010A01E1F2D1070A06
:1012800001E13ED1010A01E1E9D0030A2DE0FD0EA2
:10129000DBCFE9FFFE0EDBCFEAFFEF50E66EFB0E81
:1012A000DBCFE9FFFC0EDBCFEAFFE552E750EF6E44
:1012B000010EE76EFB0EDBCFE9FFFC0EDBCFEAFF92
:1012C000E750E926000EEA22EF6A020EE76EFB0EF7
:1012D000DBCFE9FFFC0EDBCFEAFFE750E926000E8B
:1012E000EA22EF6A37EF11F0FD0EDBCFE9FFFE0EC9
:1012F000DBCFEAFFEF50E66EFB0EDBCFE9FFFC0E23
:10130000DBCFEAFFE552E750EF6E010EE76EFB0E12
:10131000DBCFE9FFFC0EDBCFEAFFE750E926000E4A
:10132000EA22010EEF6E020EE76EFB0EDBCFE9FF45
:10133000FC0EDBCFEAFFE750E926000EEA22010EA1
:10134000EF6E7EEC46F0E66E030EE76EFB0EDBCF33
:10135000E9FFFC0EDBCFEAFFE750E926000EEA22A8
:10136000E552E750EF6E030EE76EFB0EDBCFE9FFB1
:10137000FC0EDBCFEAFFE750E926000EEA22EF5031
:101380006BE1D9CFE6FFDACFE6FFE0EC4BF0E552B8
:10139000E552DF6EFA0EDBCFE6FF7BEC43F0E55261
:1013A00001080FE1030EE76EFB0EDBCFE9FFFC0E39
:1013B000DBCFEAFFE750E926000EEA22060EEF6EC9
:1013C0004BD0010EDF1401080FE1030EE76EFB0E98
:1013D000DBCFE9FFFC0EDBCFEAFFE750E926000E8A
:1013E000EA22400EEF6E38D0020EDF1402080FE141
:1013F000030EE76EFB0EDBCFE9FFFC0EDBCFEAFF4F
:10140000E750E926000EEA22800EEF6E25D0E9ECC7
:101410003AF001080FE1030EE76EFB0EDBCFE9FFA8
:10142000FC0EDBCFEAFFE750E926000EEA22200E91
:10143000EF6E12D02AEC45F001080EE1030EE76EC4
:10144000FB0EDBCFE9FFFC0EDBCFEAFFE750E9261E
:10145000000EEA22820EEF6E37EF11F0FA0EDBCFAC
:10146000E6FF040EE76EFD0EDBCFE9FFFE0EDBCFDD
:10147000EAFFE750E926000EEA22EF50E66E030E7F
:10148000E76EFD0EDBCFE9FFFE0EDBCFEAFFE75094
:10149000E926000EEA22EF50E66EF9EC36F0E5524E
:1014A000E552E552FD0EDBCFE9FFFE0EDBCFEAFF92
:1014B000EF50E66EFB0EDBCFE9FFFC0EDBCFEAFF61
:1014C000E552E750EF6E010EE76EFB0EDBCFE9FF52
:1014D000FC0EDBCFEAFFE750E926000EEA22010E00
:1014E000EF6E020EE76EFB0EDBCFE9FFFC0EDBCFEB
:1014F000EAFFE750E926000EEA22EF6A37EF11F023
:10150000010EDB6A020EDB6A040EE76EFD0EDBCF16
:10151000E9FFFE0EDBCFEAFFE750E926000EEA22E4
:10152000EF50E66ED950030FE96EDACFEAFFE552CD
:10153000E750EE6EED6A030EDBCF16F0040EDBCF44
:1015400017F016C017F0166A050EE76EFD0EDBCF1A
:10155000E9FFFE0EDBCFEAFFE750E926000EEA22A4
:10156000EF5000011624146E000E1720156E030EA6
:1015700014C0DBFF040E15C0DBFF030EDBCFE6FF5C
:10158000040EDBCFE6FF030EE76EFD0EDBCFE9FFB7
:10159000FE0EDBCFEAFFE750E926000EEA22EF500D
:1015A000E66E39EC47F0E552E552E552DE52F3CFF4
:1015B000DEFFF4CFDDFFDD52FD0EDBCFE9FFFE0ED7
:1015C000DBCFEAFFEF50E66EFB0EDBCFE9FFFC0E50
:1015D000DBCFEAFFE552E750EF6E010EE76EFB0E40
:1015E000DBCFE9FFFC0EDBCFEAFFE750E926000E78
:1015F000EA22010EEF6E020EE76EFB0EDBCFE9FF73
:10160000FC0EDBCFEAFFE750E926000EEA22020ECD
:10161000EF6E010EDBCF14F0020EDBCF15F015C01C
:1016200014F0156A030EE76EFB0EDBCFE9FFFC0E2C
:10163000DBCFEAFFE750E926000EEA2214C0EFFFF5
:10164000040EE76EFB0EDBCFE9FFFC0EDBCFEAFFFB
:10165000E750E926000EEA22010EDBCFEFFF37EF5D
:1016600011F0060EE76EFD0EDBCFE9FFFE0EDBCFBD
:10167000EAFFE750E926000EEA22EF50E66ED95065
:10168000050FE96EDACFEAFFE552E750EE6EED6A3C
:10169000040EE76EFD0EDBCFE9FFFE0EDBCFEAFFA7
:1016A000E750E926000EEA22EF50E66ED950070F08
:1016B000E96EDACFEAFFE552E750EE6EED6A050E0D
:1016C000DBCF16F0060EDBCF17F016C017F0166A48
:1016D000070EE76EFD0EDBCFE9FFFE0EDBCFEAFF64
:1016E000E750E926000EEA22EF5000011624146E9E
:1016F000000E1720156E050E14C0DBFF060E15C078
:10170000DBFF070EDBCF16F0080EDBCF17F016C09D
:1017100017F0166A050EE76EFD0EDBCFE9FFFE0E31
:10172000DBCFEAFFE750E926000EEA22EF5016244D
:10173000146E000E1720156E070E14C0DBFF080E86
:1017400015C0DBFFFD0EDBCFE9FFFE0EDBCFEAFFAE
:10175000EF50E66EFB0EDBCFE9FFFC0EDBCFEAFFBE
:10176000E552E750EF6E010EE76EFB0EDBCFE9FFAF
:10177000FC0EDBCFEAFFE750E926000EEA22010E5D
:10178000EF6E020EE76EFB0EDBCFE9FFFC0EDBCF48
:10179000EAFFE750E926000EEA22010EEF6E050E81
:1017A000DBCFE6FF060EDBCFE6FF070EDBCFE6FF63
:1017B000080EDBCFE6FF030EE76EFD0EDBCFE9FF81
:1017C000FE0EDBCFEAFFE750E926000EEA22EF50DB
:1017D000E66EBDEC47F0146E050EE15E1450E66E49
:1017E000030EE76EFB0EDBCFE9FFFC0EDBCFEAFF5B
:1017F000E750E926000EEA22E552E750EF6E37EF98
:1018000011F0030EE76EFD0EDBCFE9FFFE0EDBCF1E
:10181000EAFFE750E926000EEA22EF50E66ED950C3
:10182000090FE96EDACFEAFFE552E750EE6EED6A96
:10183000090EDBCF16F00A0EDBCF17F016C017F03B
:10184000166A040EE76EFD0EDBCFE9FFFE0EDBCF5E
:10185000EAFFE750E926000EEA22EF5000011624C5
:10186000146E000E1720156E090E14C0DBFF0A0E51
:1018700015C0DBFFFD0EDBCFE9FFFE0EDBCFEAFF7D
:10188000EF50E66EFB0EDBCFE9FFFC0EDBCFEAFF8D
:10189000E552E750EF6E010EE76EFB0EDBCFE9FF7E
:1018A000FC0EDBCFEAFFE750E926000EEA22010E2C
:1018B000EF6E020EE76EFB0EDBCFE9FFFC0EDBCF17
:1018C000EAFFE750E926000EEA22010EEF6EFA0E5B
:1018D000DBCFE6FF090EDBCFE6FF0A0EDBCFE6FF2C
:1018E000BAEC49F0E552E552E552E66E030EE76EBA
:1018F000FB0EDBCFE9FFFC0EDBCFEAFFE750E9266A
:10190000000EEA22E552E750EF6E37EF11F0FD0EC0
:10191000DBCFE9FFFE0EDBCFEAFFEF50E66EFB0EFA
:10192000DBCFE9FFFC0EDBCFEAFFE552E750EF6EBD
:10193000010EE76EFB0EDBCFE9FFFC0EDBCFEAFF0B
:10194000E750E926000EEA22010EEF6E020EE76E66
:10195000FB0EDBCFE9FFFC0EDBCFEAFFE750E92609
:10196000000EEA22010EEF6E030EE76EFD0EDBCFD6
:10197000E9FFFE0EDBCFEAFFE750E926000EEA2280
:10198000EF50E66EDAEC3DF0E552E66E030EE76EE0
:10199000FB0EDBCFE9FFFC0EDBCFEAFFE750E926C9
:1019A000000EEA22E552E750EF6E37EF11F0FD0E20
:1019B000DBCFE9FFFE0EDBCFEAFFEF50E66EFB0E5A
:1019C000DBCFE9FFFC0EDBCFEAFFE552E750EF6E1D
:1019D000010EE76EFB0EDBCFE9FFFC0EDBCFEAFF6B
:1019E000E750E926000EEA22010EEF6E020EE76EC6
:1019F000FB0EDBCFE9FFFC0EDBCFEAFFE750E92669
:101A0000000EEA22010EEF6EE9EC3AF0E66E030EEC
:101A1000E76EFB0EDBCFE9FFFC0EDBCFEAFFE75002
:101A2000E926000EEA22E552E750EF6E37EF11F09B
:101A30000B0EDB6A0C0EDB6AFD0EDBCFE9FFFE0E40
:101A4000DBCFEAFFEF50E66EFB0EDBCFE9FFFC0ECB
:101A5000DBCFEAFFE552E750EF6E010EE76EFB0EBB
:101A6000DBCFE9FFFC0EDBCFEAFFE750E926000EF3
:101A7000EA22010EEF6E020EE76EFB0EDBCFE9FFEE
:101A8000FC0EDBCFEAFFE750E926000EEA22030E48
:101A9000EF6EFA0EDBCFE6FFF7EC3AF0E552E66EBA
:101AA000030EE76EFB0EDBCFE9FFFC0EDBCFEAFF98
:101AB000E750E926000EEA22E552E750EF6EF1EC1E
:101AC0003AF00B0EF3CFDBFF0C0EF4CFDBFF0B0E67
:101AD000DBCF14F00C0EDBCF15F015C014F0156A37
:101AE000040EE76EFB0EDBCFE9FFFC0EDBCFEAFF57
:101AF000E750E926000EEA2214C0EFFFFF0EE76E62
:101B00000B0EDBCF14F00C0EDBCF15F0E7501416E4
:101B1000156A050EE76EFB0EDBCFE9FFFC0EDBCF8F
:101B2000EAFFE750E926000EEA2214C0EFFF9FD338
:101B3000030EE76EFD0EDBCFE9FFFE0EDBCFEAFF03
:101B4000E750E926000EEA22EFCF14F0060E145CEF
:101B500015E2030EE76EFD0EDBCF14F0FE0EDBCFB9
:101B600015F0E7501426000E152214C0E6FF15C02C
:101B7000E6FF81EC46F0E552E55220D0030EE76E19
:101B8000FD0EDBCFE9FFFE0EDBCFEAFFE750E926D3
:101B9000000EEA22EF500B0811E3030EE76EFD0E74
:101BA000DBCFE9FFFE0EDBCFEAFFE750E926000EB0
:101BB000EA22EF50E66ED7EC08F0E552FD0EDBCFDF
:101BC000E9FFFE0EDBCFEAFFEF50E66EFB0EDBCF48
:101BD000E9FFFC0EDBCFEAFFE552E750EF6E010EA6
:101BE000E76EFB0EDBCFE9FFFC0EDBCFEAFFE75031
:101BF000E926000EEA22010EEF6E020EE76EFB0EE2
:101C0000DBCFE9FFFC0EDBCFEAFFE750E926000E51
:101C1000EA22EF6A2CD3FD0EDBCFE9FFFE0EDBCF0D
:101C2000EAFFEF50E66EFB0EDBCFE9FFFC0EDBCFE9
:101C3000EAFFE552E750EF6E010EE76EFB0EDBCFD9
:101C4000E9FFFC0EDBCFEAFFE750E926000EEA22AF
:101C5000010EEF6E020EE76EFB0EDBCFE9FFFC0E0E
:101C6000DBCFEAFFE750E926000EEA22010EEF6E15
:101C7000030EE76EFD0EDBCF14F0FE0EDBCF15F08A
:101C8000E7501426000E152214C0E6FF15C0E6FF2B
:101C9000E0EC4BF0E552E552E66E030EE76EFB0E0C
:101CA000DBCFE9FFFC0EDBCFEAFFE750E926000EB1
:101CB000EA22E552E750EF6EDAD20D0EDB6A0E0E25
:101CC000DB6AFD0EDBCFE9FFFE0EDBCFEAFFEF5054
:101CD000E66EFB0EDBCFE9FFFC0EDBCFEAFFE55241
:101CE000E750EF6E010EE76EFB0EDBCFE9FFFC0E57
:101CF000DBCFEAFFE750E926000EEA22010EEF6E85
:101D0000020EE76EFB0EDBCFE9FFFC0EDBCFEAFF36
:101D1000E750E926000EEA22040EEF6EFA0EDBCF42
:101D2000E6FF7BEC43F0E552E66E030EE76EFB0E3A
:101D3000DBCFE9FFFC0EDBCFEAFFE750E926000E20
:101D4000EA22E552E750EF6EFA0EDBCFE6FFD950FC
:101D50000E0FE66E000EDA20E66ED9500D0FE66E1D
:101D6000000EDA20E66E12EC43F0146E050EE15E12
:101D700014509EEC4AF0E66E040EE76EFB0EDBCFCD
:101D8000E9FFFC0EDBCFEAFFE750E926000EEA226E
:101D9000E552E750EF6E050EE76EFB0EDBCFE9FF75
:101DA000FC0EDBCFEAFFE750E926000EEA220D0E1B
:101DB000DBCFEFFF060EE76EFB0EDBCFE9FFFC0E7D
:101DC000DBCFEAFFE750E926000EEA220E0EDBCF5A
:101DD000EFFF4DD20F0EDB6A100EDB6A110EDB6ACD
:101DE000120EDB6AFD0EDBCFE9FFFE0EDBCFEAFF52
:101DF000EF50E66EFB0EDBCFE9FFFC0EDBCFEAFF18
:101E0000E552E750EF6E010EE76EFB0EDBCFE9FF08
:101E1000FC0EDBCFEAFFE750E926000EEA22010EB6
:101E2000EF6E020EE76EFB0EDBCFE9FFFC0EDBCFA1
:101E3000EAFFE750E926000EEA22040EEF6E5AECA4
:101E400049F0F3CF14F0F4CF15F00F0E14C0DBFF00
:101E5000100E15C0DBFF110EDB6A120EDB6A0F0ECF
:101E6000DBCF14F0100EDBCF15F0110EDBCF16F028
:101E7000120EDBCF17F0080ED8901732163215323B
:101E80001432E806F9E1030EE76EFB0EDBCFE9FF43
:101E9000FC0EDBCFEAFFE750E926000EEA2214C071
:101EA000EFFF0F0EDBCF14F0100EDBCF15F0110E8D
:101EB000DBCF16F0120EDBCF17F01450E66E040ED7
:101EC000E76EFB0EDBCFE9FFFC0EDBCFEAFFE7504E
:101ED000E926000EEA22E552E750EF6E0F0EDBCF47
:101EE00006F0100EDBCF07F0110EDBCF08F0120E5C
:101EF000DBCF09F0180E0B6E020E0C6E0D6A0E6A27
:101F00006EEC4BF00F0E02C0DBFF100E03C0DBFFC8
:101F1000110E04C0DBFF120E05C0DBFFD9500F0FFE
:101F2000E96EDACFEAFF640E0B6E0C6A0D6A0E6A78
:101F3000EECF06F0EECF07F0EECF08F0EFCF09F0CE
:101F4000A6EC4BF009C0EDFF08C0EDFF07C0EDFFA8
:101F500006C0EFFF0F0EDBCF14F0100EDBCF15F035
:101F6000110EDBCF16F0120EDBCF17F0080ED89053
:101F70001732163215321432E806F9E1050EE76E13
:101F8000FB0EDBCFE9FFFC0EDBCFEAFFE750E926D3
:101F9000000EEA2214C0EFFF0F0EDBCF14F0100E7C
:101FA000DBCF15F0110EDBCF16F0120EDBCF17F0E2
:101FB0001450E66E060EE76EFB0EDBCFE9FFFC0E5B
:101FC000DBCFEAFFE750E926000EEA22E552E750B0
:101FD000EF6E4DD1040EE76EFD0EDBCFE9FFFE0E76
:101FE000DBCFEAFFE750E926000EEA22EF50E66E6B
:101FF000D950130FE96EDACFEAFFE552E750EE6EE3
:10200000ED6A130EDBCF16F0140EDBCF17F016C0FF
:1020100017F0166A050EE76EFD0EDBCFE9FFFE0E28
:10202000DBCFEAFFE750E926000EEA22EF5000017D
:102030001624146E000E1720156E130E14C0DBFF4D
:10204000140E15C0DBFF130EDBCFE6FF140EDBCF43
:10205000E6FF030EE76EFD0EDBCFE9FFFE0EDBCFE2
:10206000EAFFE750E926000EEA22EF50E66E66EC42
:1020700049F0E552E552E552FD0EDBCFE9FFFE0ED9
:10208000DBCFEAFFEF50E66EFB0EDBCFE9FFFC0E85
:10209000DBCFEAFFE552E750EF6E010EE76EFB0E75
:1020A000DBCFE9FFFC0EDBCFEAFFE750E926000EAD
:1020B000EA22010EEF6E020EE76EFB0EDBCFE9FFA8
:1020C000FC0EDBCFEAFFE750E926000EEA22EF6ABA
:1020D000CED0FD0EDBCFE9FFFE0EDBCFEAFFEF50E7
:1020E000E66EFB0EDBCFE9FFFC0EDBCFEAFFE5522D
:1020F000E750EF6E010EE76EFB0EDBCFE9FFFC0E43
:10210000DBCFEAFFE750E926000EEA22010EEF6E70
:10211000020EE76EFB0EDBCFE9FFFC0EDBCFEAFF22
:10212000E750E926000EEA22020EEF6E2AEC45F097
:10213000E66E030EE76EFB0EDBCFE9FFFC0EDBCF96
:10214000EAFFE750E926000EEA22E552E750EF6E7B
:10215000F250020B01E0010EE66E040EE76EFB0E7C
:10216000DBCFE9FFFC0EDBCFEAFFE750E926000EEC
:10217000EA22E552E750EF6EF250100B01E0010E3B
:10218000146E040EE76EFB0EDBCFE9FFFC0EDBCF17
:10219000EAFFE750E926000EEA22EF50E824141087
:1021A000E66E040EE76EFB0EDBCFE9FFFC0EDBCF25
:1021B000EAFFE750E926000EEA22E552E750EF6E0B
:1021C00056D0FD0EDBCFE9FFFE0EDBCFEAFFEF506E
:1021D000E66EFB0EDBCFE9FFFC0EDBCFEAFFE5523C
:1021E000E750EF6E010EE76EFB0EDBCFE9FFFC0E52
:1021F000DBCFEAFFE750E926000EEA22010EEF6E80
:10220000020EE76EFB0EDBCFE9FFFC0EDBCFEAFF31
:10221000E750E926000EEA22EF6A030EE76EFD0E94
:10222000DBCFE9FFFE0EDBCFEAFFE750E926000E29
:10223000EA22EF50E66E2BEC46F0E552030EE76E15
:10224000FD0EDBCFE9FFFE0EDBCFEAFFE750E9260C
:10225000000EEA22EF500AE1FA0EDBCFE6FFE66A53
:10226000E66AF9EC36F0E552E552E55200D0010E8F
:10227000146E150EE15C03E200D0E16AE552E16EF6
:102280001450E552E7CFD9FF1200D9CFE6FFE1CFD6
:10229000D9FF0F0EE126DF6A010EDB6A020EDB6A50
:1022A000030EDB6A040EDB6A050EDB6A060EDB6AD0
:1022B000070EDB6A080EDB6A090EDB6A0A0EDB6AB0
:1022C0000B0EDB6A0C0EDB6A0D0EDB6A050EDB6A99
:1022D000FD0EDBCFE9FFFE0EDBCFEAFFEF50FF0A7A
:1022E00002E19AEF18F00D0A02E13DEF18F01C0A26
:1022F00002E12EEF17F0010A02E11DEF16F0020ACB
:1023000002E1EBEF15F06A0A02E19EEF15F0010A17
:1023100001E194D3030A01E12FD3010A01E1EBD2D9
:10232000070A01E186D2010A01E133D2200A01E164
:10233000E7D1030A01E19BD1010A01E12DD1300A65
:1023400001E1E0D0100A01E18CD0F00A6AE0110A44
:1023500036E0010A02E079EF19F0FD0EDBCFE9FF6C
:10236000FE0EDBCFEAFFEF50E66EFB0EDBCFE9FFA0
:10237000FC0EDBCFEAFFE552E750EF6E010EE76E91
:10238000FB0EDBCFE9FFFC0EDBCFEAFFE750E926CF
:10239000000EEA22EF6A020EE76EFB0EDBCFE9FFCA
:1023A000FC0EDBCFEAFFE750E926000EEA22EF6AD7
:1023B000010EF36E050EF3CFDBFF7AEF19F0FD0E81
:1023C000DBCFE9FFFE0EDBCFEAFFEF50E66EFB0E40
:1023D000DBCFE9FFFC0EDBCFEAFFE552E750EF6E03
:1023E000010EE76EFB0EDBCFE9FFFC0EDBCFEAFF51
:1023F000E750E926000EEA22EF6A020EE76EFB0EB6
:10240000DBCFE9FFFC0EDBCFEAFFE750E926000E49
:10241000EA22EF6A010EF36E050EF3CFDBFF7AEFCF
:1024200019F0F90EDBCFE9FFFA0EDBCFEAFFEF5030
:10243000E66EFB0EDBCFE6FFFC0EDBCFE6FFFD0E0C
:10244000DBCFE6FFFE0EDBCFE6FF01EC09F0146EFA
:10245000050EE15E1450E76E050EE7CFDBFF7AEF65
:1024600019F0FD0EDBCFE9FFFE0EDBCFEAFFEF50E8
:10247000E66EFB0EDBCFE9FFFC0EDBCFEAFFE55299
:10248000E750EF6E010EE76EFB0EDBCFE9FFFC0EAF
:10249000DBCFEAFFE750E926000EEA22010EEF6EDD
:1024A000020EE76EFB0EDBCFE9FFFC0EDBCFEAFF8F
:1024B000E750E926000EEA22EF6A020EE76EFD0EF3
:1024C000DBCFE9FFFE0EDBCFEAFFE750E926000E87
:1024D000EA22EF5009E0F70EDBCFE9FFF80EDBCF81
:1024E000EAFF010EEF6E07D0F70EDBCFE9FFF80E23
:1024F000DBCFEAFFEF6A010EF36E050EF3CFDBFFD1
:102500007AEF19F0FD0EDBCFE9FFFE0EDBCFEAFF1D
:10251000EF50E66EFB0EDBCFE9FFFC0EDBCFEAFFF0
:10252000E552E750EF6E010EE76EFB0EDBCFE9FFE1
:10253000FC0EDBCFEAFFE750E926000EEA22010E8F
:10254000EF6E030EE76EFB0EDBCF14F0FC0EDBCF5D
:1025500015F0E7501426000E152214C0E6FF15C032
:10256000E6FFBBEC32F0E552E552E66E020EE76E96
:10257000FB0EDBCFE9FFFC0EDBCFEAFFE750E926DD
:10258000000EEA22E552E750EF6E010EF36E050EE3
:10259000F3CFDBFF7AEF19F0FD0EDBCFE9FFFE0E84
:1025A000DBCFEAFFEF50E66EFB0EDBCFE9FFFC0E60
:1025B000DBCFEAFFE552E750EF6E030EE76EFB0E4E
:1025C000DBCF14F0FC0EDBCF15F0E7501426000E25
:1025D000152214C0E6FF15C0E6FF020EE76EFD0EE1
:1025E000DBCF16F0FE0EDBCF17F0E7501626000EFD
:1025F000172216C0E6FF17C0E6FF2AEC41F0E552AD
:10260000E552E552E552E66E010EE76EFB0EDBCFBA
:10261000E9FFFC0EDBCFEAFFE750E926000EEA22D5
:10262000E552E750EF6E040EE76EFD0EDBCFE9FFDB
:10263000FE0EDBCFEAFFE750E926000EEA22EF505C
:10264000E66E020EE76EFB0EDBCFE9FFFC0EDBCF82
:10265000EAFFE750E926000EEA22E552E750EF6E66
:10266000010EF36E050EF3CFDBFF7AEF19F0FD0ECE
:10267000DBCFE9FFFE0EDBCFEAFFEF50E66EFB0E8D
:10268000DBCFE9FFFC0EDBCFEAFFE552E750EF6E50
:10269000020EE76EFD0EDBCF14F0FE0EDBCF15F061
:1026A000E7501426000E152214C0E6FF15C0E6FF01
:1026B000C9EC41F0E552E552E66E010EE76EFB0E05
:1026C000DBCFE9FFFC0EDBCFEAFFE750E926000E87
:1026D000EA22E552E750EF6E020EE76EFB0EDBCF0B
:1026E000E9FFFC0EDBCFEAFFE750E926000EEA2205
:1026F000EF6A010EF36E050EF3CFDBFF7AEF19F0F0
:10270000FD0EDBCFE9FFFE0EDBCFEAFFEF50E66EFA
:10271000FB0EDBCFE9FFFC0EDBCFEAFFE552E75013
:10272000EF6E020EE76EFD0EDBCF14F0FE0EDBCF78
:1027300015F0E7501426000E152214C0E6FF15C050
:10274000E6FF6CEC40F0E552E552E66E010EE76EF6
:10275000FB0EDBCFE9FFFC0EDBCFEAFFE750E926FB
:10276000000EEA22E552E750EF6E020EE76EFB0E16
:10277000DBCFE9FFFC0EDBCFEAFFE750E926000ED6
:10278000EA22EF6A010EF36E050EF3CFDBFF7AEF5C
:1027900019F0F90EDBCFE6FFFA0EDBCFE6FF77ECA0
:1027A00008F0E552E552FD0EDBCFE9FFFE0EDBCF70
:1027B000EAFFEF50E66EFB0EDBCFE9FFFC0EDBCF4E
:1027C000EAFFE552E750EF6E020EE76EFD0EDBCF3B
:1027D000E9FFFE0EDBCFEAFFE750E926000EEA2212
:1027E000EF50E66E84EC3EF0E552E66E010EE76EC9
:1027F000FB0EDBCFE9FFFC0EDBCFEAFFE750E9265B
:10280000000EEA22E552E750EF6E020EE76EFB0E75
:10281000DBCFE9FFFC0EDBCFEAFFE750E926000E35
:10282000EA22EF6A010EF36E050EF3CFDBFF7AEFBB
:1028300019F0F90EDBCFE6FFFA0EDBCFE6FF77ECFF
:1028400008F0E552E552FD0EDBCFE9FFFE0EDBCFCF
:10285000EAFFEF50E66EFB0EDBCFE9FFFC0EDBCFAD
:10286000EAFFE552E750EF6E010EE76EFD0EDBCF9B
:10287000E9FFFE0EDBCFEAFFE750E926000EEA2271
:10288000EF50E66E020EE76EFD0EDBCF14F0FE0E8B
:10289000DBCF15F0E7501426000E152214C0E6FF1A
:1028A00015C0E6FFF7EC3EF0E552E552E552E66E64
:1028B000010EE76EFB0EDBCFE9FFFC0EDBCFEAFF7C
:1028C000E750E926000EEA22E552E750EF6E020ECD
:1028D000E76EFB0EDBCFE9FFFC0EDBCFEAFFE75034
:1028E000E926000EEA22EF6A010EF36E050EF3CF21
:1028F000DBFF7AEF19F0F90EDBCFE6FFFA0EDBCF44
:10290000E6FF77EC08F0E552E552FD0EDBCFE9FF7C
:10291000FE0EDBCFEAFFEF50E66EFB0EDBCFE9FFEA
:10292000FC0EDBCFEAFFE552E750EF6EC4EC3EF061
:10293000E66E010EE76EFB0EDBCFE9FFFC0EDBCF90
:10294000EAFFE750E926000EEA22E552E750EF6E73
:10295000020EE76EFB0EDBCFE9FFFC0EDBCFEAFFDA
:10296000E750E926000EEA22EF6A010EF36E050E2B
:10297000F3CFDBFF7AEF19F0F90EDBCFE6FFFA0EAB
:10298000DBCFE6FF77EC08F0E552E552FD0EDBCF3A
:10299000E9FFFE0EDBCFEAFFEF50E66EFB0EDBCF6A
:1029A000E9FFFC0EDBCFEAFFE552E750EF6E010EC8
:1029B000E76EFD0EDBCFE9FFFE0EDBCFEAFFE7504F
:1029C000E926000EEA22EF50E66E020EE76EFD0EDB
:1029D000DBCF14F0FE0EDBCF15F0E7501426000E0F
:1029E000152214C0E6FF15C0E6FF34EC3FF0E552B7
:1029F000E552E552E66E010EE76EFB0EDBCFE9FF16
:102A0000FC0EDBCFEAFFE750E926000EEA22E55292
:102A1000E750EF6E020EE76EFB0EDBCFE9FFFC0E18
:102A2000DBCFEAFFE750E926000EEA22EF6A010E4B
:102A3000F36E050EF3CFDBFF7AEF19F0F90EDBCF63
:102A4000E6FFFA0EDBCFE6FF77EC08F0E552E55241
:102A5000FD0EDBCFE9FFFE0EDBCFEAFFEF50E66EA7
:102A6000FB0EDBCFE9FFFC0EDBCFEAFFE552E750C0
:102A7000EF6E030EE76EFB0EDBCF14F0FC0EDBCF28
:102A800015F0E7501426000E152214C0E6FF15C0FD
:102A9000E6FF030EE76EFD0EDBCFE9FFFE0EDBCF98
:102AA000EAFFE750E926000EEA22EF50E66E020E3A
:102AB000E76EFD0EDBCFE9FFFE0EDBCFEAFFE7504E
:102AC000E926000EEA22EF50E66E06EC40F0E552F1
:102AD000E552E552E552E66E010EE76EFB0EDBCFE6
:102AE000E9FFFC0EDBCFEAFFE750E926000EEA2201
:102AF000E552E750EF6E030EE76EFD0EDBCFE9FF08
:102B0000FE0EDBCFEAFFE750E926000EEA22EF5087
:102B1000E66E020EE76EFB0EDBCFE9FFFC0EDBCFAD
:102B2000EAFFE750E926000EEA22E552E750EF6E91
:102B3000010EF36E050EF3CFDBFFDCD3FD0EDBCF12
:102B4000E9FFFE0EDBCFEAFFEF50E66EFB0EDBCFB8
:102B5000E9FFFC0EDBCFEAFFE552E750EF6EF90E1E
:102B6000DBCFE6FFFA0EDBCFE6FF020EE76EFD0ECF
:102B7000DBCFE9FFFE0EDBCFEAFFE750E926000ED0
:102B8000EA22EF50E66EB5EC08F0E552E552E55268
:102B9000E66E010EE76EFB0EDBCFE9FFFC0EDBCF2E
:102BA000EAFFE750E926000EEA22E552E750EF6E11
:102BB000020EE76EFB0EDBCFE9FFFC0EDBCFEAFF78
:102BC000E750E926000EEA22EF6A010EF36E050EC9
:102BD000F3CFDBFF8FD3FD0EDBCFE9FFFE0EDBCFA4
:102BE000EAFFEF50E66EFB0EDBCFE9FFFC0EDBCF1A
:102BF000EAFFE552E750EF6E010EE76EFB0EDBCF0A
:102C0000E9FFFC0EDBCFEAFFE750E926000EEA22DF
:102C1000010EEF6E020EE76EFB0EDBCFE9FFFC0E3E
:102C2000DBCFEAFFE750E926000EEA22EF6A010E49
:102C3000F36E050EF3CFDBFF5DD3FD0EDBCFE9FFB7
:102C4000FE0EDBCFEAFFEF50E66EFB0EDBCFE9FFB7
:102C5000FC0EDBCFEAFFE552E750EF6E020EE76EA7
:102C6000FD0EDBCFE9FFFE0EDBCFEAFFE750E926E2
:102C7000000EEA22EF50E66ED950060FE96EDACF69
:102C8000EAFFE552E750EE6EED6A060EDBCF14F078
:102C9000070EDBCF15F014C015F0146A060E14C031
:102CA000DBFF070E15C0DBFF030EE76EFD0EDBCF6B
:102CB000E9FFFE0EDBCFEAFFE750E926000EEA222D
:102CC000EF50146E156AD950060FE96EDACFEAFF9D
:102CD0001450EE261550ED22040EE76EFD0EDBCFEC
:102CE000E9FFFE0EDBCFEAFFE750E926000EEA22FD
:102CF000EF50E66ED950080FE96EDACFEAFFE552E1
:102D0000E750EE6EED6A080EDBCF14F0090EDBCF54
:102D100015F014C015F0146A080E14C0DBFF090E7C
:102D200015C0DBFF050EE76EFD0EDBCFE9FFFE0EE3
:102D3000DBCFEAFFE750E926000EEA22EF50146EDF
:102D4000156AD950080FE96EDACFEAFF1450EE2663
:102D50001550ED22D950080FE96EDACFEAFFEE5098
:102D6000ED100BE0D950080FE96EDACFEAFF3A0E0A
:102D7000D880EE54000EED541BE2010EE76EFB0E00
:102D8000DBCFE9FFFC0EDBCFEAFFE750E926000EC0
:102D9000EA22EF6A020EE76EFB0EDBCFE9FFFC0EC4
:102DA000DBCFEAFFE750E926000EEA22EF6A50D0B7
:102DB000010EE76EFB0EDBCFE9FFFC0EDBCFEAFF77
:102DC000E750E926000EEA22010EEF6E020EE76ED2
:102DD000FB0EDBCFE9FFFC0EDBCFEAFFE750E92675
:102DE000000EEA22080EDBCFEFFFDF6ADFCF14F020
:102DF000080EDBCF15F0090EDBCF16F01550145C72
:102E0000000E165425E2060EDBCF14F0DB2A070E67
:102E1000DBCF15F001E3DB2A0A0EDB501424E96E48
:102E20000B0EDB501520EA6EEF50E66E030EDF242A
:102E3000E76EFB0EDBCFE9FFFC0EDBCFEAFFE750CE
:102E4000E926000EEA22E552E750EF6EDF2ACED7E0
:102E5000010EF36E050EF3CFDBFF4CD2FD0EDBCF80
:102E6000E9FFFE0EDBCFEAFFEF50E66EFB0EDBCF95
:102E7000E9FFFC0EDBCFEAFFE552E750EF6E020EF2
:102E8000E76EFD0EDBCFE9FFFE0EDBCFEAFFE7507A
:102E9000E926000EEA22EF50E66ED950060FE96EE1
:102EA000DACFEAFFE552E750EE6EED6A060EDBCFB1
:102EB00014F0070EDBCF15F014C015F0146A060EDF
:102EC00014C0DBFF070E15C0DBFF030EE76EFD0E1F
:102ED000DBCFE9FFFE0EDBCFEAFFE750E926000E6D
:102EE000EA22EF50146E156AD950060FE96EDACF58
:102EF000EAFF1450EE261550ED22040EE76EFD0E8B
:102F0000DBCFE9FFFE0EDBCFEAFFE750E926000E3C
:102F1000EA22EF50E66ED950080FE96EDACFEAFFE9
:102F2000E552E750EE6EED6A080EDBCF14F0090EA5
:102F3000DBCF15F014C015F0146A080E14C0DBFFC7
:102F4000090E15C0DBFF050EE76EFD0EDBCFE9FFB6
:102F5000FE0EDBCFEAFFE750E926000EEA22EF5033
:102F6000146E156AD950080FE96EDACFEAFF1450D3
:102F7000EE261550ED22D950080FE96EDACFEAFFA0
:102F8000EE50ED100BE0D950080FE96EDACFEAFFF2
:102F90003A0ED880EE54000EED541BE2010EE76E9F
:102FA000FB0EDBCFE9FFFC0EDBCFEAFFE750E926A3
:102FB000000EEA22EF6A020EE76EFB0EDBCFE9FF9E
:102FC000FC0EDBCFEAFFE750E926000EEA22EF6AAB
:102FD0004ED0010EE76EFB0EDBCFE9FFFC0EDBCF20
:102FE000EAFFE750E926000EEA22010EEF6E020E1C
:102FF000E76EFB0EDBCFE9FFFC0EDBCFEAFFE7500D
:10300000E926000EEA22EF6ADF6ADFCF14F0080E2D
:10301000DBCF15F0090EDBCF16F01550145C000E57
:10302000165425E2060EDF24E76EFD0EDBCFE9FF26
:10303000FE0EDBCFEAFFE750E926000EEA22EF5052
:10304000E66E060EDBCF14F0DB2A070EDBCF15F0A1
:1030500001E3DB2A0A0EDB501424E96E0B0EDB5071
:103060001520EA6EE552E750EF6EDF2ACED7010E4B
:10307000F36E050EF3CFDBFF3DD19EEC4AF0E76E19
:103080000E0EE7CFDBFF0E0EDBCFE6FFD7EC44F0F2
:10309000E552E8EC36F0FB0EDBCFE9FFFC0EDBCFB0
:1030A000EAFFF20EEF6E010EE76EFB0EDBCFE9FFDB
:1030B000FC0EDBCFEAFFE750E926000EEA22010E04
:1030C000EF6E020EE76EFB0EDBCFE9FFFC0EDBCFEF
:1030D000EAFFE750E926000EEA22EF6A010EF36EDE
:1030E000050EF3CFDBFF6592656A010EDB6A020E07
:1030F000DB6A030EDB6A040EDB6AD950010FE96E4E
:10310000DACFEAFFA00EEE5C860EEE58010EEE5806
:10311000000EEE580BE2D950010FE96EDACFEAFF4C
:10312000EE2A000EEE22EE22EE22E7D7F29E0EEFFE
:1031300000F0E0D0010EDB6A020EDB6A030EDB6AF0
:10314000040EDB6AD950010FE96EDACFEAFFEFCF48
:1031500014F0EE2A000EEFCF15F0EE22EFCF16F0AE
:10316000EE22EFCF17F0EF22FB0EDB501424E96EB6
:10317000FC0EDB501520EA6EEF68D950010FE96EA6
:10318000DACFEAFFEFCF14F0EE2A000EEFCF15F002
:10319000EE22EFCF16F0EE22EFCF17F0EF22FB0E6C
:1031A000DB501424E96EFC0EDB501520EA6E010E94
:1031B000EF6ED950010FE96EDACFEAFFEFCF14F0CE
:1031C000EE2A000EEFCF15F0EE22EFCF16F0EE2232
:1031D000EFCF17F0EF22FB0EDB501424E96EFC0E4C
:1031E000DB501520EA6E170EEF6ED950010FE96E15
:1031F000DACFEAFFEFCF14F0EE2A000EEFCF15F092
:10320000EE22EFCF16F0EE22EFCF17F0EF22FB0EFB
:10321000DB501424E96EFC0EDB501520EA6EEF6AD9
:10322000D950010FE96EDACFEAFFEFCF14F0EE2AA2
:10323000000EEFCF15F0EE22EFCF16F0EE22EFCF1B
:1032400017F0EF22FB0EDB501424E96EFC0EDB506E
:103250001520EA6E750EEF6EDF6A150EDF5C28E250
:10326000DF50F76AB20FF66E980EF7220800F5509D
:10327000E66ED950010FE96EDACFEAFFEFCF14F016
:10328000EE2A000EEFCF15F0EE22EFCF16F0EE2271
:10329000EFCF17F0EF22FB0EDB501424E96EFC0E8B
:1032A000DB501520EA6EE552E750EF6EDF2AD5D7E6
:1032B000D950010FE96EDACFEAFFEFCF14F0EE2A12
:1032C000000EEFCF15F0EE22EFCF16F0EE22EFCF8B
:1032D00017F0EF22FB0EDB501424E96EFC0EDB50DE
:1032E0001520EA6EEF6A010EF36E050EF3CFDBFFD9
:1032F00001D000D0050EDB5000D0146E0F0EE15C43
:1033000002E2E16AE552E16E1450E552E7CFD9FFDF
:103310001200D9CFE6FFE1CFD9FFE652DF6AF90EFE
:10332000DBCFE6FFFA0EDBCFE6FF8BEC08F0E552D1
:10333000E552200E0001E76ECC19E8AE02D0E7346A
:1033400002D0E750CC5D03E36550020B09E0FD0EAF
:10335000DBCFE9FFFE0EDBCFEAFFEF6A81D01CD0A6
:10336000D0EC48F0000908E1FB0EDBCFE9FFFC0ED2
:10337000DBCFEAFFEF6A08D0FB0EDBCFE9FFFC0EE4
:10338000DBCFEAFF010EEF6EFD0EDBCFE9FFFE0E95
:10339000DBCFEAFF010EEF6E0401E851E91102E113
:1033A000000E08D0E8C4E9FFE9C4EAFFEF50800B43
:1033B00001E0010E000954E1F70EDBCFE6FFF80E45
:1033C000DBCFE6FFF90EDBCFE6FFFA0EDBCFE6FF41
:1033D000A80EE66E040EE66E680EE66E040EE66E4D
:1033E00045EC11F0146E080EE15E1450DF6EDF0440
:1033F00024E10401EA51EB1102E1000E08D0EAC415
:10340000E9FFEBC4EAFFEF50800B01E0010E000979
:1034100014E1400EE66EA80EE66E040EE66E010E96
:10342000E66EE66E64EC2AF0146E050EE15E145052
:10343000F3CFEAF4F4CFEBF4DF6A400EE66E680EE9
:10344000E66E040EE66EE66A010EE66E64EC2AF0A5
:10345000146E050EE15E1450F3CFE8F4F4CFE9F4F6
:0A346000E552E552E7CFD9FF120054
:06346A00DACFE4FFE2CF1F
:10347000DAFFE9CFE4FFEACFE4FFF6CFE4FFF7CFCE
:10348000E4FFF5CFE4FFF3CFE4FFF4CFE4FFFACF9E
:10349000E4FF00EE00F0140EE80403E3EECFE4FFD7
:1034A000FBD700EE14F0050EE80403E3EECFE4FFD3
:1034B000FBD7E652FC0ED3140009D36E6CEC29F056
:1034C000F2A207D0F298F292010EE66E2EEC45F0D1
:1034D000E552E55200EE18F0050EE80403E3E5CFEF
:1034E000EDFFFBD700EE13F0140EE80403E3E5CF85
:1034F000EDFFFBD7E5CFFAFFE5CFF4FFE5CFF3FF14
:10350000E5CFF5FFE5CFF7FFE5CFF6FFE5CFEAFF23
:10351000E5CFE9FFE5CFDAFF1100D8CFE4FFE0CF38
:10352000E4FFE46EDACFE4FFE2CFDAFFE9CFE4FFB5
:10353000EACFE4FFF6CFE4FFF7CFE4FFF5CFE4FFF7
:10354000F3CFE4FFF4CFE4FFFACFE4FF00EE00F0A6
:10355000140EE80403E3EECFE4FFFBD700EE14F013
:10356000050EE80403E3EECFE4FFFBD7E652FC0EC2
:10357000D3140009D36E73EC4AF0E55200EE18F054
:10358000050EE80403E3E5CFEDFFFBD700EE13F0F3
:10359000140EE80403E3E5CFEDFFFBD7E5CFFAFF18
:1035A000E5CFF4FFE5CFF3FFE5CFF5FFE5CFF7FF7C
:1035B000E5CFF6FFE5CFEAFFE5CFE9FFE5CFDAFF9C
:1035C000E550E5CFE0FFE5CFD8FF1000D9CFE6FF0B
:1035D000E1CFD9FF020EE126580EDE6E020EDD6E3F
:1035E000D08EF29EF29CC090F292F2889B8CDFCF3C
:1035F00014F0DF06010EDBCF15F001E2DB061450FC
:10360000151001E0F4D70F0148694969020EE15C29
:1036100002E2E16AE552E16EE552E7CFD9FF12001E
:10362000D9CFE6FFE1CFD9FFE652DF6A0F014D9F08
:10363000D38EFC0ED3140009D36EF28EF28C0E01E1
:10364000160E076FE552E552E7CFD9FF1200D9CF2A
:10365000E6FFE1CFD9FF110EE126DF6ADE52B80E98
:10366000DD6EF70EF36E020EF3CFDBFF350EF36E59
:10367000030EF3CFDBFFFA0EF36E040EF3CFDBFF86
:10368000630EF36E050EF3CFDBFFFE0EF36E060E38
:10369000F3CFDBFF810EF36E070EF3CFDBFFF10EEE
:1036A000F36E080EF3CFDBFFD950090FE66E000E64
:1036B000DA20E66ECAEC35F0E552E552DF6A080E14
:1036C000DF5C2CE2D950010F156EDACF16F0DF5017
:1036D0000F011524E96E000E1620EA6EEFCF14F0EC
:1036E000D950090F176EDACF18F0DF500F011724E9
:1036F000E96E000E1820EA6EEF50145C0DE0D95010
:10370000010FE66E000EDA20E66EE3EC35F0E552CE
:10371000E552F29E00EF00F0DF2AD1D7110EE15CF6
:1037200002E2E16AE552E16EE552E7CFD9FF12000D
:10373000D9CFE6FFE1CFD9FF0E01010E176F4DEC97
:103740004AF00E01186FFE0EDBCF19FEE552E7CFEF
:10375000D9FF12000E01175102E1000E0ED018CE53
:10376000E6FF51EC4AF0E552146E0E011951D88073
:10377000145401E2176B175100D01200D9CFE6FFA5
:10378000E1CFD9FFFE0EDB5005082DE1FB0EDBCFAC
:10379000E9FFFC0EDBCFEAFFEF500F0B090812E147
:1037A000FD0EDBCFE6FF0A0EE66EF1EC3DF0E552D2
:1037B000E552FB0EDBCFE9FFFC0EDBCFEAFF0A0E82
:1037C000EF6E11D0FD0EDBCFE6FF0B0EE66EF1ECD7
:1037D0003DF0E552E552FB0EDBCFE9FFFC0EDBCFFF
:1037E000EAFF090EEF6EE552E7CFD9FF1200D9CFFD
:1037F000E6FFE1CFD9FF020EE1265AEC49F0F3CF04
:10380000DEFFF4CFDDFFA6EC4AF0010804E10E0173
:10381000040E146F33D0DECF14F0DDCF15F0ED0EB3
:10382000145C020E155807E3040E0E01145D03E349
:10383000040E146F23D0DECF14F0DDCF15F0D00EC0
:10384000145C020E155807E3030E0E01145D03E32A
:10385000030E146F13D0DECF14F0DDCF15F0C30EBE
:10386000145C020E155807E3020E0E01145D03E30B
:10387000020E146F03D00E01010E146F1451146E5A
:10388000020EE15C03E200D0E16AE552E16E145001
:10389000E552E7CFD9FF1200D9CFE6FFE1CFD9FF3C
:1038A0000E01160518E1166B010E1C6F4DEC4AF067
:1038B0000E011D6FFA0EDBCFE9FFFB0EDBCFEAFF37
:1038C000EFCF1EFEF60EDBCFE9FFF70EDBCFEAFFF0
:1038D000010EEF6E1F6BFD0EDB5007084EE1FA0E76
:1038E000DBCFE9FFFB0EDBCFEAFFEF50170845E027
:1038F000FA0EDBCFE9FFFB0EDBCFEAFF070EEF6E20
:10390000FC0EDBCFE6FF0C0EE66EF1EC3DF0E5526F
:10391000E552F80EDBCFE9FFF90EDBCFEAFFEF50FF
:103920000F0B0A0811E1F80EDBCFE9FFF90EDBCF30
:10393000EAFF090EEF6EFC0EDBCFE6FF0B0EE66E24
:10394000F1EC3DF0E552E5520E01010E1C6F4DEC1D
:103950004AF00E011D6FFA0EDBCFE9FFFB0EDBCF45
:10396000EAFFEFCF1EFEF60EDBCFE9FFF70EDBCF4F
:10397000EAFF010EEF6E1F6BABD2FD0EDB500808A5
:103980004EE1FA0EDBCFE9FFFB0EDBCFEAFFEF5093
:10399000170845E0FA0EDBCFE9FFFB0EDBCFEAFFAD
:1039A000080EEF6EFC0EDBCFE6FF070EE66EF1ECC5
:1039B0003DF0E552E552F80EDBCFE9FFF90EDBCF23
:1039C000EAFFEF500F0B0A0811E1F80EDBCFE9FF19
:1039D000F90EDBCFEAFF090EEF6EFC0EDBCFE6FF40
:1039E0000B0EE66EF1EC3DF0E552E5520E01010ED4
:1039F0001C6F4DEC4AF00E011D6FFA0EDBCFE9FF94
:103A0000FB0EDBCFEAFFEFCF1EFEF60EDBCFE9FFAA
:103A1000F70EDBCFEAFF010EEF6E1F6B59D2FA0EE5
:103A2000DBCFE9FFFB0EDBCFEAFFEF5007085BE1DE
:103A3000CBEC4BF0000957E1FA0EDBCFE9FFFB0EB0
:103A4000DBCFEAFFEF5017084EE0FA0EDBCFE9FFBD
:103A5000FB0EDBCFEAFF050EEF6EFC0EDBCFE6FFC1
:103A6000080EE66EF1EC3DF0E552E552FC0EDBCFC0
:103A7000E6FF15CEE6FFF1EC3DF0E552E552F80E1B
:103A8000DBCFE9FFF90EDBCFEAFFEF500F0B0A089F
:103A900011E1F80EDBCFE9FFF90EDBCFEAFF090EEB
:103AA000EF6EFC0EDBCFE6FF0B0EE66EF1EC3DF0A9
:103AB000E552E5520E01010E1C6F4DEC4AF00E016D
:103AC0001D6FFA0EDBCFE9FFFB0EDBCFEAFFEFCF76
:103AD0001EFEF60EDBCFE9FFF70EDBCFEAFF010E8D
:103AE000EF6E1F6BF5D1FA0EDBCFE9FFFB0EDBCFDC
:103AF000EAFFEF5008085BE1CEEC4BF0000957E11C
:103B0000FA0EDBCFE9FFFB0EDBCFEAFFEF50170821
:103B10004EE0FA0EDBCFE9FFFB0EDBCFEAFF050E2E
:103B2000EF6EFC0EDBCFE6FF080EE66EF1EC3DF02B
:103B3000E552E552FC0EDBCFE6FF15CEE6FFF1ECD9
:103B40003DF0E552E552F80EDBCFE9FFF90EDBCF91
:103B5000EAFFEF500F0B0A0811E1F80EDBCFE9FF87
:103B6000F90EDBCFEAFF090EEF6EFC0EDBCFE6FFAE
:103B70000B0EE66EF1EC3DF0E552E5520E01010E42
:103B80001C6F4DEC4AF00E011D6FFA0EDBCFE9FF02
:103B9000FB0EDBCFEAFFEFCF1EFEF60EDBCFE9FF19
:103BA000F70EDBCFEAFF010EEF6E1F6B91D1FE0E19
:103BB000DB50080827E10E011C5113E1010E1C6FB8
:103BC000FA0EDBCFE9FFFB0EDBCFEAFFEFCF1EFEE5
:103BD000010E1F6FF60EDBCFE9FFF70EDBCFEAFF1A
:103BE000EF6A05DEE66EFA0EDBCFE9FFFB0EDBCFF8
:103BF000EAFFE552E750EF6E030EE66E99DDE552FF
:103C000067D166D1FE0EDB50020801E08ED00E01B6
:103C10001C0573E1FA0EDBCFE9FFFB0EDBCFEAFFF9
:103C2000EF5017086AE0FA0EDBCFE9FFFB0EDBCF9F
:103C3000EAFFEF50050809E1FA0EDBCFE9FFFB0EC2
:103C4000DBCFEAFF060EEF6E53D0FA0EDBCFE9FFB3
:103C5000FB0EDBCFEAFFEF50060823E1CEEC4BF082
:103C6000010809E1FA0EDBCFE9FFFB0EDBCFEAFF2B
:103C7000080EEF6E15D0CBEC4BF0010809E1FA0EFF
:103C8000DBCFE9FFFB0EDBCFEAFF070EEF6E08D0BC
:103C9000FA0EDBCFE9FFFB0EDBCFEAFF050EEF6E7E
:103CA00027D0FA0EDBCFE9FFFB0EDBCFEAFFEF50A8
:103CB000080816E1CBEC4BF0010809E1FA0EDBCF66
:103CC000E9FFFB0EDBCFEAFF070EEF6E08D0FA0E1E
:103CD000DBCFE9FFFB0EDBCFEAFF050EEF6E08D06E
:103CE000FA0EDBCFE9FFFB0EDBCFEAFF050EEF6E2E
:103CF0004DEC4AF00E011D6F17D0010E1C6F4DECFC
:103D00004AF00E011D6FFA0EDBCFE9FFFB0EDBCF91
:103D1000EAFFEFCF1EFEF60EDBCFE9FFF70EDBCF9B
:103D2000EAFF010EEF6E1F6BD3D00E011C0501E000
:103D3000CFD0030EE66EFCDCE5521DCEE6FF51EC63
:103D40004AF0E5521C0804E30E011F0501E0C0D053
:103D5000FA0EDBCFE9FFFB0EDBCFEAFFEF501808CE
:103D600023E0FA0EDBCFE9FFFB0EDBCFEAFFEF0427
:103D70001BE0FA0EDBCFE9FFFB0EDBCFEAFFEF50D3
:103D8000020812E0FA0EDBCFE9FFFB0EDBCFEAFF01
:103D9000EF50030809E0FA0EDBCFE9FFFB0EDBCFA3
:103DA000EAFFEF50040808E1FA0EDBCFE9FFFB0E53
:103DB000DBCFEAFF1ECEEFFFFA0EDBCFE9FFFB0EF3
:103DC000DBCFEAFFEF500E011E5D01E178D0FA0E65
:103DD000DBCFE9FFFB0EDBCFEAFFEF5017086FE008
:103DE000FA0EDBCFE9FFFB0EDBCFEAFFEF50050851
:103DF00013E1FC0EDBCFE6FF080EE66EF1EC3DF0C2
:103E0000E552E552FC0EDBCFE6FF15CEE6FFF1EC06
:103E10003DF0E552E55238D0FA0EDBCFE9FFFB0E5C
:103E2000DBCFEAFFEF5006080AE1FC0EDBCFE6FF2E
:103E3000090EE66EF1EC3DF0E552E55225D0FA0EA2
:103E4000DBCFE9FFFB0EDBCFEAFFEF5007080AE10B
:103E5000FC0EDBCFE6FF0C0EE66EF1EC3DF0E5521A
:103E6000E55212D0FA0EDBCFE9FFFB0EDBCFEAFF03
:103E7000EF50080809E1FC0EDBCFE6FF070EE66E07
:103E8000F1EC3DF0E552E552F80EDBCFE9FFF90E1B
:103E9000DBCFEAFFEF500F0B0A0811E1F80EDBCF82
:103EA000E9FFF90EDBCFEAFF090EEF6EFC0EDBCF68
:103EB000E6FF0B0EE66EF1EC3DF0E552E552F60E34
:103EC000DBCFE9FFF70EDBCFEAFFEF6A0E011C6BD9
:103ED000E552E7CFD9FF1200D9CFE6FFE1CFD9FFF6
:103EE000FC0EDBCFE9FFFD0EDBCFEAFFEF500F0B3F
:103EF0000A0801E151D0F90EDB500B0809E1FA0E76
:103F0000DB50050804E0FA0EDB50070801E144D05D
:103F10000E010C0501E140D0FE0EDB50030811E15B
:103F2000FC0EDBCFE9FFFD0EDBCFEAFFEF88FB0ED7
:103F3000DBCFE6FF050EE66EF1EC3DF0E552E55213
:103F40002BD0FE0EDB50040811E1FC0EDBCFE9FFA5
:103F5000FD0EDBCFEAFFEF88FB0EDBCFE6FF060EA0
:103F6000E66EF1EC3DF0E552E55216D0E9EC3AF0A0
:103F7000010808E1FC0EDBCFE9FFFD0EDBCFEAFF15
:103F8000EF8A0AD00F0E146EFC0EDBCFE9FFFD0E98
:103F9000DBCFEAFF1450EF16E552E7CFD9FF12004E
:103FA000D9CFE6FFE1CFD9FFE652DF6AFD0EDB0491
:103FB00003E1010EDF6E0FD0FE0EDB0403E1020E03
:103FC000DF6E09D0A6EC4AF0010803E1030EDF6EB4
:103FD00002D0040EDF6EDF500E010A5D0BE0DFCF72
:103FE0000AFEFC0EDBCFE6FF0ACEE6FFD1EC43F083
:103FF000E552E552E552E552E7CFD9FF1200D9CF9D
:10400000E6FFE1CFD9FF9EEC4AF0010841E1A2ECC6
:104010004AF0010809E1FD0EDBCFE9FFFE0EDBCF20
:10402000EAFF140EEF6E33D0A6EC4AF0010809E166
:10403000FD0EDBCFE9FFFE0EDBCFEAFF150EEF6EC4
:1040400026D0FD0EDBCFE9FFFE0EDBCFEAFFEF50FF
:10405000110801E11CD05AEC49F0F3CF14F0F4CF71
:1040600015F0A50E145C020E155809E2FD0EDBCF0B
:10407000E9FFFE0EDBCFEAFF110EEF6E08D0FD0E5A
:10408000DBCFE9FFFE0EDBCFEAFF100EEF6E22D092
:10409000A2EC4AF0010809E1FD0EDBCFE9FFFE0EBC
:1040A000DBCFEAFF120EEF6E15D0A6EC4AF0010846
:1040B00009E1FD0EDBCFE9FFFE0EDBCFEAFF130EB9
:1040C000EF6E08D0FD0EDBCFE9FFFE0EDBCFEAFF7F
:1040D000160EEF6EE552E7CFD9FF1200D9CFE6FFFB
:1040E000E1CFD9FFF70EDBCFE9FFF80EDBCFEAFF18
:1040F000EF50170802E12CD12BD10E010C0501E085
:1041000082D0E9EC3AF0010809E1FC0EDBCFE9FFCF
:10411000FD0EDBCFEAFF0F0EEF6E74D00DCEE6FF83
:1041200051EC4AF0E552146E156A153404E214504D
:10413000C808000E15545EE20E010C6BFC0EDBCFBE
:10414000E9FFFD0EDBCFEAFFEF6AFB0EDBCFE6FFF8
:10415000040EE66EF1EC3DF0E552E552F90EDBCFD0
:10416000E9FFFA0EDBCFEAFFEF500F0B0A0811E16F
:10417000F90EDBCFE9FFFA0EDBCFEAFF090EEF6E97
:10418000FB0EDBCFE6FF0B0EE66EF1EC3DF0E552E9
:10419000E552F70EDBCFE9FFF80EDBCFEAFF050EA5
:1041A000EF6EFB0EDBCFE6FF080EE66EF1EC3DF0A6
:1041B000E552E552F60EDB500B0809E0FB0EDBCFB3
:1041C000E6FF150EE66EF1EC3DF0E552E552FB0E12
:1041D000DBCFE6FF0D0EE66EF1EC3DF0E552E55269
:1041E000FB0EDBCFE6FF15CEE6FFF1EC3DF0E5522E
:1041F000E55208D0FC0EDBCFE9FFFD0EDBCFEAFF76
:1042000020CEEFFFA5D0FE0EDB0431E1FC0EDBCFAC
:10421000E9FFFD0EDBCFEAFFEF500C0809E1FC0ED1
:10422000DBCFE9FFFD0EDBCFEAFF0D0EEF6E1AD0FC
:10423000FC0EDBCFE9FFFD0EDBCFEAFFEF500D08F0
:1042400009E1FC0EDBCFE9FFFD0EDBCFEAFF0E0E2E
:10425000EF6E08D0FC0EDBCFE9FFFD0EDBCFEAFFEF
:104260000C0EEF6E4DEC4AF00E010D6F71D0FC0E8E
:10427000DBCFE9FFFD0EDBCFEAFFEF500C0812E0C9
:10428000FC0EDBCFE9FFFD0EDBCFEAFFEF500D08A0
:1042900009E0FC0EDBCFE9FFFD0EDBCFEAFFEF50BC
:1042A0000E0856E10DCEE6FF51EC4AF0E5521E082D
:1042B0004FE2FB0EDBCFE6FF0E0EE66EF1EC3DF0BB
:1042C000E552E552FC0EDBCFE9FFFD0EDBCFEAFF46
:1042D000EF500C080AE1FB0EDBCFE6FF010EE66EA5
:1042E000F1EC3DF0E552E55225D0FC0EDBCFE9FFC5
:1042F000FD0EDBCFEAFFEF500D080AE1FB0EDBCF2E
:10430000E6FF020EE66EF1EC3DF0E552E55212D00A
:10431000FC0EDBCFE9FFFD0EDBCFEAFFEF500E080E
:1043200009E1FB0EDBCFE6FF030EE66EF1EC3DF09C
:10433000E552E552FC0EDBCFE9FFFD0EDBCFEAFFD5
:10434000EFCF20FE4DEC4AF00E010D6F010E0C6F09
:10435000E552E7CFD9FF1200D9CFE6FFE1CFD9FF71
:104360000E011A0503E11A0E04D003D0FE0EDB5035
:1043700000D0E552E7CFD9FF1200D9CFE6FFE1CF59
:10438000D9FF040EE1260A0EDF6EDE52340EDD6E1A
:104390003C0EF36E020EF3CFDBFF010EF36E030E45
:1043A000F3CFDBFFD950010FE66E000EDA20E66E88
:1043B000D9CFE6FFDACFE6FF1B0EE66E0E0EE66EF5
:1043C000090EE66E0E0EE66ED950020FE66E000E76
:1043D000DA20E66EFAEC43F0146E0A0EE15E145039
:1043E00001082CE1FE0EDBCFE6FF020EDBCFE6FF7D
:1043F000030EDBCFE6FFE5EC49F0E552E552E5526E
:10440000010EDBCFE6FFDFCFE6FFE66A39EC45F0D1
:10441000E552E552E552E8EC44F001080CE10E01EA
:104420000B0E056FFE0EDBCFE6FF130EE66EF1EC12
:104430003DF0E552E5520E011A6B1BD0FE0EDBCFAC
:10444000E6FF020EDBCFE6FF030EDBCFE6FFE5EC77
:1044500049F0E552E552E552340EE66E0A0EE66E7C
:10446000E66A39EC45F0E552E552E5520E01010EDF
:104470001A6F36EC46F0F292F288E66A2EEC45F0BE
:10448000E5524DEC4AF00E010F6F040EE15C02E2C2
:10449000E16AE552E16EE552E7CFD9FF1200D9CFCC
:1044A000E6FFE1CFD9FFFD0EDB98DB9ADB9CDB9EBC
:1044B0002AEC45F0010865E10E0121512CE1FE0EC8
:1044C000DB50050811E1FD0EDB500A080DE09EEC03
:1044D0004AF0010809E1FC0EDBCFE6FF0F0EE66EA5
:1044E000F1EC3DF0E552E5520E01010E216F4DEC6D
:1044F0004AF00E01106F27EC46F0020B0BE0FC0EA9
:10450000DBCFE6FF020EE66EE66EF9EC36F0E55222
:10451000E552E55236D0210534E110CEE6FF51ECEC
:104520004AF0E5520F082DE2FE0EDB50050811E1BE
:10453000FD0EDB500A080DE09EEC4AF0010809E18F
:10454000FC0EDBCFE6FF0B0EE66EF1EC3DF0E55224
:10455000E55236EC46F0F292F288E66A2EEC45F02F
:10456000E5520E01216B27EC46F0020B0AE0FC0E2F
:10457000DBCFE6FFE66AE66AF9EC36F0E552E55293
:10458000E552E552E7CFD9FF1200D9CFE6FFE1CFE0
:10459000D9FFE6524DEC4AF0DF6E4DEC4AF0DF6E8B
:1045A000DFCFE6FF51EC4AF0E552000901E1F8D710
:1045B000FE0EDBCFE6FF040EE66E50EC37F0E55260
:1045C000E552DFCFE6FF51EC4AF0E552146E050EDE
:1045D000145C01E2F6D7FE0EDBCFE6FF020EE66EBC
:1045E00050EC37F0E552E552DFCFE6FF51EC4AF0F0
:1045F000E552146E0A0E145C01E2F6D7FE0EDBCF14
:10460000E6FF010EE66E50EC37F0E552E552DFCFE3
:10461000E6FF51EC4AF0E552146E0F0E145C01E215
:10462000F6D7FE0EDBCFE6FFE66A50EC37F0E55238
:10463000E552E552E552E7CFD9FF1200D9CFE6FFA8
:10464000E1CFD9FF090EE126AAEC1BF0DF6EA6EC44
:104650004AF0E76E010EE7CFDBFF0E01230509E10B
:10466000FC0EDBCFE6FFAAEC4AF0E5520E01236F09
:10467000F2D34DEC4AF00E01225D01E1ACD3F1EC36
:1046800008F0E76E020EE7CFDBFF020EDB500AE117
:104690000E011B0507E10C0EF36E020EF3CFDBFFDC
:1046A0000E011B6B4DEC4AF00E01226FFC0EDBCFAE
:1046B000E6FFAAEC4AF0E552010804E0020EDB50E6
:1046C00001E189D34DEC4AF0E76E030EE7CFDBFF43
:1046D0007EEC46F0E76E040EE7CFDBFF010EF36ED3
:1046E000050EF3CFDBFF060EDB6A030EDB50E76E31
:1046F000070EE7CFDBFF080EDB6A030EDBCFE6FF1A
:1047000051EC4AF0E552146E0F0E145C5DE2050E9A
:10471000DB045AE1FC0EDBCFE6FFE66A50EC37F033
:10472000E552E552FC0EDBCFE6FFAAEC4AF0E5527B
:10473000E76E050EE7CFDBFF7EEC46F0146E040E4D
:10474000DBCFE7FF1450E716040EE7CFDBFF0AECE0
:1047500008F0010EE66E0E0EE66E0E0EE66E0E0E02
:10476000E66E020EE66E0E0EE66E000EE66E0E0EA3
:10477000E66E89EC19F0146E080EE15E14504DECF3
:104780004AF0F36E070EDB50F35C17E1010EE66EA4
:104790000E0EE66E0E0EE66E0E0EE66E020EE66E65
:1047A0000E0EE66E000EE66E0E0EE66E89EC19F049
:1047B000146E080EE15E1450E2D74DEC4AF0E76E3D
:1047C000070EE7CFDBFF99D7030EDBCFE6FF51ECF7
:1047D0004AF0E552146E0F0E145C03E3050EDB0481
:1047E00004E0020EDB5001E1F6D29EEC4AF0010833
:1047F00003E1020EDB5004E0020EDB500B085DE12A
:104800000E01166BFC0EDBCFE6FF0E0EE66EF1EC32
:104810003DF0E552E552FC0EDBCFE6FF010EE66E01
:1048200050EC37F0E552E5524DEC4AF0E76E030EDE
:10483000E7CFDBFF030EDBCFE6FF51EC4AF0E5529A
:10484000146E1E0E145C19E20AEC08F0010EE66EFE
:104850000E0EE66E0E0EE66E0E0EE66E020EE66EA4
:104860000E0EE66E000EE66E0E0EE66E89EC19F088
:10487000146E080EE15E1450DDD709EC45F0E76ECA
:10488000080EE7CFDBFF080EDB0404E1E66AD7EC95
:1048900044F0E5529AEC4AF0FC0EDBCFE6FFE66A04
:1048A00050EC37F0E552E552FC0EDBCFE6FFAAEC08
:1048B0004AF0E5520E01236F8ED295EC4AF0FC0EC1
:1048C000DBCFE6FF040EE66E50EC37F0E552E55222
:1048D0000E01010E166FFD0EDBCFE9FFFE0EDBCFE2
:1048E000EAFF050EEF6E0E01100E156FFC0EDBCF0A
:1048F000E6FF080EE66EF1EC3DF0E552E552F80EEB
:10490000DBCFE9FFF90EDBCFEAFF090EEF6EFC0EFD
:10491000DBCFE6FF0B0EE66EF1EC3DF0E552E55223
:10492000FC0EDBCFE6FF15CEE6FFF1EC3DF0E552E5
:10493000E552FC0EDBCFE6FF0D0EE66EF1EC3DF02E
:10494000E552E552040EDB50040804E0020EDB5091
:10495000070875E1030EDBCFE6FF51EC4AF0E552A4
:10496000146E640E145C38E2040EDB50040834E16B
:104970007EEC46F0146E040EDBCFE7FF1450E71612
:10498000040EE7CFDBFF0AEC08F0010EE66E0E0E18
:10499000E66E0E0EE66E0E0EE66E020EE66E0E0E63
:1049A000E66E000EE66E0E0EE66E89EC19F0146EE1
:1049B000080EE15E1450030EDBCFE6FF51EC4AF027
:1049C000E5522D0808E2FC0EDBCFE6FFE66A50EC6C
:1049D00037F0E552E552BED7030EDBCFE6FF51ECD0
:1049E0004AF0E552146E640E145C04E3040EDB50CE
:1049F000040804E0020EDB50070820E1FA0EDBCFCA
:104A0000E9FFFB0EDBCFEAFF0B0EEF6E010EE66E49
:104A1000C6EC44F0E552FC0EDBCFE6FFB6DDE55216
:104A2000FC0EDBCFE6FF130EE66EF1EC3DF0E55237
:104A3000E552010EF36E060EF3CFDBFF24D1040E18
:104A4000DB50030805E0020EDB500A0801E07DD0D0
:104A5000FC0EDBCFE6FF150EE66EF1EC3DF0E55205
:104A6000E552030EDBCFE6FF51EC4AF0E552146E3F
:104A7000640E145C38E2040EDB50030834E17EEC73
:104A800046F0146E040EDBCFE7FF1450E716040E59
:104A9000E7CFDBFF0AEC08F0010EE66E0E0EE66EC5
:104AA0000E0EE66E0E0EE66E020EE66E0E0EE66E52
:104AB000000EE66E0E0EE66E89EC19F0146E080E0E
:104AC000E15E1450030EDBCFE6FF51EC4AF0E552F5
:104AD0002D0808E2FC0EDBCFE6FFE66A50EC37F06B
:104AE000E552E552BED7030EDBCFE6FF51EC4AF0AC
:104AF000E552146E640E145C04E3040EDB500308EC
:104B000004E0020EDB500A081FE1FA0EDBCFE9FFDA
:104B1000FB0EDBCFEAFF190EEF6EE66AC6EC44F03F
:104B2000E552FC0EDBCFE6FF30DDE552FC0EDBCFBD
:104B3000E6FF140EE66EF1EC3DF0E552E552010E93
:104B4000F36E060EF3CFDBFF9ED0040EDB5005089C
:104B500005E0020EDB50090801E095D0FC0EDBCF2A
:104B6000E6FF150EE66EF1EC3DF0E552E552030E60
:104B7000DBCFE6FF51EC4AF0E552146E640E145C94
:104B800038E2040EDB50050834E17EEC46F0146E8A
:104B9000040EDBCFE7FF1450E716040EE7CFDBFF70
:104BA0000AEC08F0010EE66E0E0EE66E0E0EE66ED4
:104BB0000E0EE66E020EE66E0E0EE66E000EE66E4F
:104BC0000E0EE66E89EC19F0146E080EE15E1450BC
:104BD000030EDBCFE6FF51EC4AF0E5522D0808E268
:104BE000FC0EDBCFE6FFE66A50EC37F0E552E5520B
:104BF000BED7030EDBCFE6FF51EC4AF0E552146E50
:104C0000640E145C04E3040EDB50050804E0020E9D
:104C1000DB50090838E1FD0EDBCFE9FFFE0EDBCFEC
:104C2000EAFF170EEF6EFC0EDBCFE6FFAEDCE552BF
:104C3000FC0EDBCFE6FF120EE66EF1EC3DF0E55226
:104C4000E552FA0EDBCFE9FFFB0EDBCFEAFF190ED0
:104C5000EF6EFC0EDBCFE6FF140EE66EF1EC3DF0DE
:104C6000E552E5520E01110E156FFC0EDBCFE6FF8B
:104C700015CEE6FFF1EC3DF0E552E552010EF36E84
:104C8000060EF3CFDBFF060EDB503AE1FC0EDBCF66
:104C9000E6FF150EE66EF1EC3DF0E552E5524DEC07
:104CA0004AF0E76E030EE7CFDBFF030EDBCFE6FF34
:104CB00051EC4AF0E552146E1E0E145C19E20AEC37
:104CC00008F0010EE66E0E0EE66E0E0EE66E0E0E8D
:104CD000E66E020EE66E0E0EE66E000EE66E0E0E2E
:104CE000E66E89EC19F0146E080EE15E1450DDD703
:104CF000FC0EDBCFE6FFE66A50EC37F0E552E552FA
:104D00007EEC46F0E76E040EE7CFDBFF070EE66EA3
:104D10000E0EE66EFFEC1FF0E552E552040EDB507E
:104D2000030808E0040EDB50040804E0040EDB5026
:104D3000050849E10AEC08F0010EE66E0E0EE66E7B
:104D40000E0EE66E0E0EE66E020EE66E0E0EE66EAF
:104D5000000EE66E0E0EE66E89EC19F0146E080E6B
:104D6000E15E1450FA0EDBCFE9FFFB0EDBCFEAFF6A
:104D7000EF50E66EF7EC1BF0E66E11CEE6FF0BCEC1
:104D8000E6FFFC0EDBCFE6FF07CEE6FFF80EDBCF3B
:104D9000E9FFF90EDBCFEAFFEF50E66EFD0EDBCF49
:104DA000E9FFFE0EDBCFEAFFEF50E66E90EC3AF043
:104DB000146E080EE15E14507EEC46F0E76E040EB1
:104DC000E7CFDBFFABD7FC0EDBCFE6FFAAEC4AF068
:104DD000E5520E01236F010EDB5018E1FD0EDBCF13
:104DE000E9FFFE0EDBCFEAFFEF5006080FE0DF50D1
:104DF0000DE1FFEC49F0FC0ED3140309D36E65B648
:104E000065920300FC0ED3140009D36EFC0EDBCFB9
:104E1000E6FF04CEE6FFFD0EDBCFE9FFFE0EDBCFA3
:104E2000EAFFEF50E66E4FEC22F0E552E552E55214
:104E3000010EDB5010E1FD0EDBCFE9FFFE0EDBCFF4
:104E4000EAFFEF50060807E0DF5005E165B603D042
:104E5000658270EC08F0090EE15C02E2E16AE5525D
:104E6000E16EE552E7CFD9FF1200D9CFE6FFE1CFDF
:104E7000D9FFE652FE0EDB50050804E1AAEC1BF058
:104E8000010805E14DEC4AF00E010F6F61D00FCE25
:104E9000E6FF51EC4AF0E55202085AE2FD0EDB5003
:104EA00057E1FE0EDB50050853E1EBEC45F0DF6EF9
:104EB000DF504EE04DEC4AF00E010F6FDF50155DF4
:104EC00046E0242B2451030841E2FE0EDB50050886
:104ED00039E1100EDF5C1AE1FD0EDBCFE6FF100EAC
:104EE000E66EF1EC3DF0E552E55227EC46F0010BA1
:104EF0000CE0FD0EDBCFE6FF020EE66E010EE66E65
:104F0000F9EC36F0E552E552E5521CD0110EDF5CAB
:104F100019E1FD0EDBCFE6FF110EE66EF1EC3DF080
:104F2000E552E55227EC46F0010B0CE0FD0EDBCF1D
:104F3000E6FF040EE66E010EE66EF9EC36F0E55281
:104F4000E552E5520E01246BDFCF15FE01D0246B34
:104F5000E552E552E7CFD9FF1200D9CFE6FFE1CF06
:104F6000D9FF070EE126DF6A010EDB6A020EDB6A5B
:104F7000030EDB6A040EDB6A050EDB6A060EDB6AD3
:104F8000E6EC1AF045EC4AF070EC08F010EC1BF07F
:104F900046EC3EF0E66A77EC49F0E552F00EE66E3C
:104FA000ABEC42F0E552CDEC36F0E3EC3AF0CAEC73
:104FB0004BF00AEC49F03CEC46F027EC1BF06AECB5
:104FC00032F00ECEE6FF84EC4AF0E5520ECEE6FF5C
:104FD000BDEC21F0E55207EC08F00AEC08F0010EF8
:104FE000E66E0E0EE66E0E0EE66E0E0EE66E020E0D
:104FF000E66E0E0EE66E000EE66E0E0EE66E89ECA6
:1050000019F0146E080EE15E14500E01015101E01A
:10501000C8D00ECEE6FFB9EC4AF0E552040EE66EBB
:105020000E0EE66E050EE66E0E0EE66E0ECEE6FF78
:10503000030EE66E0E0EE66E1EEC23F0146E070EE7
:10504000E15E1450070EE66E0E0EE66EFFEC1FF0EA
:10505000E552E5520ECEE6FF02CEE6FF00CEE6FFB9
:10506000D0EC1FF0E552E552E5529EEC4AF0010803
:1050700001E07CD00ECEE6FF03CEE6FFF6DEE55281
:10508000E552030EDBCFE6FFD950020FE66E000EAD
:10509000DA20E66ED950010FE66E000EDA20E66ED9
:1050A0000E0EE66E0E0EE66E130EE66E0E0EE66E3B
:1050B000A6EC46F0146E090EE15E1450060EE66E84
:1050C0000E0EE66ED1EC4BF0E552E552040EE66EA4
:1050D0000E0EE66E0ECEE6FF13CEE6FFBEEC1BF024
:1050E000E552E552E552E552110EE66E0E0EE66E01
:1050F000040EE66E0E0EE66E030EE66E0E0EE66E05
:105100000ECEE6FF06CEE6FF13CEE6FF4CEC1CF01B
:10511000146E090EE15E145005CEE6FF03CEE6FFE5
:105120000ECEE6FF040EE66E0E0EE66E13CEE6FF22
:105130006CEC1FF0146E060EE15E145005CEE6FF17
:10514000030EE66E0E0EE66E040EE66E0E0EE66EB4
:105150000ECEE6FF0B0EE66E0E0EE66E13CEE6FFEB
:105160006EEC20F0146E090EE15E145005CEE6FFE1
:10517000F7EC1BF0E66E11CEE6FF0BCEE6FF0ECE8F
:10518000E6FF07CEE6FF04CEE6FF03CEE6FFACEC7B
:1051900021F0E552E66E90EC3AF0146E080EE15EF6
:1051A00014501BD7070EE15C02E2E16AE552E16EA2
:0851B000E552E7CFD9FF120020
:0851B800D9CFE6FFE1CFD9FFDA
:1051C000E652A098636A626A0F01266B010EE66ED2
:1051D000E66AE66A270EE66E0F0EE66E0BEC4CF002
:1051E000146E050EE15E14500F01160E396F9F0EFE
:1051F000376F7B0E366FDF6ADF50146E156A080E4C
:10520000145C000E155810E2DF50040DF3CFE9FFD7
:10521000F4CFEAFF000EE926040EEA22EE6AEE6AF7
:10522000EE6AEE6ADF2AE8D7658C0F01386B659865
:10523000659C62A607D062960001DF6BE46BE56BAC
:10524000E66BF7D70001010EF66FF76FF86BF96B9D
:10525000EC6BDF6A020EDF5C26E2EA6ADF34FE0BEB
:10526000EA36E96ED70EE926000EEA22EE6AED6A0A
:10527000EA6ADF34FE0BEA36E96ED30EE926000E49
:10528000EA22EE6AED6ADF50EA6AF00FE96E000E7C
:10529000EA22EF6ADF50EA6AF20FE96E000EEA22B4
:1052A000EF6ADF2AD7D70001080ED76F040ED86F38
:1052B0000F01160E266F0401200E026F040E036FFD
:1052C000400E016F840E006F0001CD6BCC6BE55278
:1052D000E552E7CFD9FF1200D9CFE6FFE1CFD9FFE2
:1052E000E6520001CC0509E165BA07D0626A0F01F8
:1052F000368136890001020ECC6F6250040B07E044
:105300000F013651040B03E062948EEC2FF065A27E
:1053100002D0A1989DD06250010B0AE00F013651D6
:10532000010B06E049DFA0880001040ECC6F6290FB
:105330006250100B07E00F013651100B03E078ECC0
:105340002FF0629862AC1AD00F0136AD0FD0010E6B
:10535000E66EE66A000EE66EE66A730EE66EE66AD2
:1053600075EC48F0146E060EE15E1450629C00016C
:10537000F45101E0F407F45101E110DA6250200B1E
:1053800006E00F013651200B02E05EEC2FF0625078
:10539000020B14E00F013651020B10E0010EE66E15
:1053A000E66A000EE66EE66AE6687F0EE66E75EC6B
:1053B00048F0146E060EE15E1450636A040E00019C
:1053C000E76ECC19E8AE02D0E73402D0E750CC5DEE
:1053D00002E2A1983DD00F0136A739D0DF6A040E52
:1053E000DF5C35E262A632D064CFEDF00001ED5112
:1053F000780BE842E842E842EE6F6296EDB508D0DD
:10540000EE51EA6AF20FE96E000EEA22EF7007D061
:10541000EE51EA6AF00FE96E000EEA22EF70EE51EB
:1054200003E1A6EC2FF010D0000EE66EE66AED0E5A
:10543000E66E000EE66E720EE66EE66A75EC48F0F9
:10544000146E060EE15E1450DF2AC9D700D0A19871
:10545000E552E552E7CFD9FF1200D9CFE6FFE1CF01
:10546000D9FF020EE126FD0EDBA407D0E66AFE0E90
:10547000DBCFE6FF24DAE552E552FD0EDBA208D0D1
:10548000010EE66EFE0EDBCFE6FF19DAE552E552BD
:10549000FE0EDB50156A260F146E0F0E152214C077
:1054A000DEFF15C0DDFFDECFE9FFDDCFEAFFFD0E39
:1054B000DBCFEFFF020EE15C02E2E16AE552E16E52
:1054C000E552E7CFD9FF1200D9CFE6FFE1CFD9FFF0
:1054D000020EE126FD0EDB500FE0FE0EEA6ADB3421
:1054E000FE0BEA36E96ED70EE926000EEA22EECF71
:1054F000DEFFEDCFDDFF0ED0FE0EEA6ADB34FE0BE1
:10550000EA36E96ED30EE926000EEA22EECFDEFF80
:10551000EDCFDDFFD9CFE9FFDACFEAFFEE50ED1096
:1055200003E1F36AF46A49D0DECFE9FFDDCFEAFF99
:10553000020EE926000EEA22FB0EDBCFEEFFFC0E88
:10554000DBCFEDFFDECFE9FFDDCFEAFFEE52FA0E53
:10555000DBCFEFFF400E146EDECFE9FFDDCFEAFFB9
:105560001450EF16880E146EDECFE9FFDDCFEAFF90
:105570001450EF12FD0EDB500CE0FE0EEA6ADB3435
:10558000FE0BEA36E96ED70EE926000EEA22EF742A
:105590000BD0FE0EEA6ADB34FE0BEA36E96ED30E60
:1055A000E926000EEA22EF74DECF14F0DDCF15F00D
:1055B00014C0F3FF15C0F4FF00D0020EE15C02E25C
:1055C000E16AE552E16EE552E7CFD9FF1200D9CF8B
:1055D000E6FFE1CFD9FF020EE126FE0EDB5020E10F
:1055E000D1C0E9FFD2C0EAFFEE52400EEF6ED1C04B
:1055F000E9FFD2C0EAFF020EE926000EEA22200EE1
:10560000EE6E040EED6ED1C0E9FFD2C0EAFF8C0E43
:10561000EF6ED7C0E9FFD8C0EAFF840EEF6E3DD031
:10562000FD0EDB50E824166EFE0EDB50040DF35029
:105630001624040DF3CF14F0F4CF15F0000E142649
:10564000040E152214C0DEFF15C0DDFF840E146E9B
:10565000DECFE9FFDDCFEAFF1450EF12FD0EDB5085
:10566000E824166EFE0EDB50040DF3501624010FD5
:10567000040DF3CF14F0F4CF15F0000E1426040E31
:10568000152214C0DEFF15C0DDFF840E146EDECFC0
:10569000E9FFDDCFEAFF1450EF12020EE15C02E2F7
:1056A000E16AE552E16EE552E7CFD9FF1200D9CFAA
:1056B000E6FFE1CFD9FF65A84ED0FE0EEA6ADB34E3
:1056C000FE0BEA36E96ED70EE926000EEA22EE500E
:1056D000EFCFEAFFE96E400EEE16EE6AEE6AEE6A72
:1056E000FE0EEA6ADB34FE0BEA36E96ED70EE926D7
:1056F000000EEA22EE50EFCFEAFFE96EEE7CFE0EDE
:10570000EA6ADB34FE0BEA36E96ED70EE926000EB4
:10571000EA22EF74400E146EFE0EEA6ADB34FE0BD2
:10572000EA36E96ED70EE926000EEA22EE50EFCFF8
:10573000EAFFE96E1450EF16FE0EEA6ADB34FE0B48
:10574000EA36E96ED70EE926000EEA22EE50EFCFD8
:10575000EAFFE96EEF7CE552E7CFD9FF1200656AF8
:105760000F01366B0001CC6B00D012000001CC5150
:1057700014E1656A0F01366B160E396F9F0E376F95
:105780007B0E366FD08EA288A088F28E65B602D0CE
:105790006586FCD70001010ECC6F12000001F651A6
:1057A0004DE1010EF66FF75149E1010EF76F020E60
:1057B000DC5D0DE1D7C0E9FFD8C0EAFFEE52EF6A29
:1057C000D7C0E9FFD8C0EAFFC80EEF6E37D0DC05BE
:1057D00035E1EF6BCFC0E9FFD0C0EAFFEE52400EDB
:1057E000EF6ECFC0E9FFD0C0EAFF020EE926000E3F
:1057F000EA22200EEE6E040EED6ECFC0E9FFD0C09F
:10580000EAFF840EEF6E010EEF6FD1C0E9FFD2C048
:10581000EAFFEE52400EEF6ED1C0E9FFD2C0EAFFC0
:10582000020EE926000EEA22200EEE6E040EED6E48
:10583000D1C0E9FFD2C0EAFF800EEF6E1200000176
:10584000F86BF96B020EDC5D1AE1D1C0E9FFD2C042
:10585000EAFFEE52400EEF6ED1C0E9FFD2C0EAFF80
:10586000020EE926000EEA22280EEE6E040EED6E00
:10587000D1C0E9FFD2C0EAFFC80EEF6E1FD0E051E1
:105880000401265D0001E1510401275904E226C408
:10589000E0F027C4E1F0D1D8D7C0E9FFD8C0EAFFD3
:1058A000020EE926000EEA22280EEE6E040EED6EC0
:1058B000D7C0E9FFD8C0EAFFC80EEF6E1200D9CFFB
:1058C000E6FFE1CFD9FF020EE126000EDE6E040EE8
:1058D000DD6EFD0EDB50E824166EFE0EDB50040D6F
:1058E000F3501624040DF3CF14F0F4CF15F0D9CFF4
:1058F000E9FFDACFEAFF1450EE261550ED22DECF95
:10590000E9FFDDCFEAFFEF9EFD0EDB500FE1FE0E5B
:10591000EA6ADB34FE0BEA36E96ED30EE926000EA6
:10592000EA22DECFEEFFDDCFEDFF0ED0FE0EEA6AFB
:10593000DB34FE0BEA36E96ED70EE926000EEA22CA
:10594000DECFEEFFDDCFEDFFDECFE9FFDDCFEAFFFB
:10595000EF9CDECFE9FFDDCFEAFF040EE926000E63
:10596000EA22EF8C020EE15C02E2E16AE552E16EAE
:10597000E552E7CFD9FF120065980001DFBF2BD0B9
:10598000E4AF09D0020EDC6FF95101E158DF0001EC
:10599000F76BF66B1FD0D1C0E9FFD2C0EAFFEE5221
:1059A000400EEF6ED1C0E9FFD2C0EAFF020EE92639
:1059B000000EEA22200EEE6E040EED6ED1C0E9FF5D
:1059C000D2C0EAFF8C0EEF6ED7C0E9FFD8C0EAFF65
:1059D000840EEF6E31D0040120AF0DD00001010E16
:1059E000DC6FF85101E12BDF0001F76BF66BF5512D
:1059F00001E1D4DE21D00001020EDC6FD1C0E9FF4D
:105A0000D2C0EAFFEE52400EEF6ED1C0E9FFD2C025
:105A1000EAFF020EE926000EEA22200EEE6E040EC8
:105A2000ED6ED1C0E9FFD2C0EAFF840EEF6EF76BD6
:105A3000F66BF55101E1B2DE1200D9CFE6FFE1CFFE
:105A4000D9FFE652400EDF6E0001E05D000EE15925
:105A50000BE2E0C0DFFFDB5103E1010EDB6F04D09E
:105A6000DB0502E1020EDB6FDF50146E156A145085
:105A7000E05DE06F1550E159E16FD7C0E9FFD8C094
:105A8000EAFFEE52DFCFEFFF280EE96F040EEA6F58
:105A9000DFB119D0DF5016E0DDC0F6FFDEC0F7FF42
:105AA000DD2B000EDE230800F550E66EE9C0E9FFAD
:105AB000EAC0EAFFE92B000EEA23E552E750EF6E59
:105AC000DF06E8D717D0DF5015E0DDC0E9FFDEC004
:105AD000EAFFDD2B000EDE23EF50E66EE9C0E9FFA2
:105AE000EAC0EAFFE92B000EEA23E552E750EF6E29
:105AF000DF06E9D7E552E552E7CFD9FF1200D9CF4B
:105B0000E6FFE1CFD9FF020EE126CFC0E9FFD0C00A
:105B1000EAFFEE52EFCFDFFFDFCF14F014500001A9
:105B2000E55D000EE65902E2E5C0DFFFDF50146ECE
:105B3000156A1450E55DE56F1550E659E66F010EE4
:105B4000DB6ADF50F36E010EDBCFF4FFF350F45C41
:105B500016E2010EDB50EA6A280FE96E040EEA2213
:105B6000EF50E66EE2C0E9FFE3C0EAFFE22B000E71
:105B7000E323E552E750EF6E010EDB2AE2D7000E79
:105B8000D880E555000EE65528E2D1C0E9FFD2C025
:105B9000EAFFEE52400EEF6ED1C0E9FFD2C0EAFF3D
:105BA000020EE926000EEA22280EEE6E040EED6EBD
:105BB000CFC0E9FFD0C0EAFFEF50400B07E1D1C0F2
:105BC000E9FFD2C0EAFFC80EEF6E06D0D1C0E9FFF0
:105BD000D2C0EAFF880EEF6E28D0D1C0E9FFD2C054
:105BE000EAFFEE52400EEF6ED1C0E9FFD2C0EAFFED
:105BF000020EE926000EEA22200EEE6E040EED6E75
:105C0000D1C0E9FFD2C0EAFF840EEF6EE751E81180
:105C100007E005D0E8C0FAFF0001E751F96EFADFAE
:105C20000001E49FF55101E1B9DD020EE15C02E201
:105C3000E16AE552E16EE552E7CFD9FF1200D9CF14
:105C4000E6FFE1CFD9FFE6520001DF8F010EE66EDD
:105C5000E66AE66A270EE66E0F0EE66E0BEC4CF077
:105C6000146E050EE15E1450200EE66EE66AE66ADA
:105C7000000EE66E040EE66E0BEC4CF0146E050E94
:105C8000E15E1450658CDF6A020EDF5C10E2DF50CB
:105C9000EA6AF00FE96E000EEA22EF6ADF50EA6A64
:105CA000F20FE96E000EEA22EF6ADF2AEDD7010E4D
:105CB000E66EE66AE66ACE0EE66E000EE66E0BEC67
:105CC0004CF0146E050EE15E1450659C0001080E48
:105CD000D76F040ED86F000ECF6F040ED06FCFC0F9
:105CE000D1F0D0C0D2F022C4CDF0CD5103E1100EDE
:105CF000CC6F13D0010EE66EE66ACD0EE66E000E96
:105D0000E66E010EE66EE66A75EC48F0146E060E5D
:105D1000E15E14500001200ECC6FE552E552E7CF52
:105D2000D9FF1200800E0401205D5EE10001C00E6B
:105D3000DF6F04012351030A37E0010A0EE0030A72
:105D400003E00001DF6B50D00001600EDD6F960EA6
:105D5000DE6F120EE06FE16B47D0010E225D23E291
:105D60002251F66EF76AD890F636F736D40EF6263C
:105D7000960EF7220900F5CFDDF00A00F5CFDEF030
:105D8000020E0001F76ADD25F66EDE51F7220800EB
:105D9000F5CFE0F0030EF76ADD25F66EDE51F7224F
:105DA0000800F5CFE1F020D0030E225D1AE2225167
:105DB000F66EF76AD890F636F736D60EF626960EB9
:105DC000F7220900F5CFDDF00A00F5CFDEF0DDC0E7
:105DD000F6FFDEC0F7FF0800F5500001E06FE16B51
:105DE00002D00001DF6B00D01200D9CFE6FFE1CF77
:105DF000D9FF020EE1260401286B296B20511F0BED
:105E0000020A13E0030A0EE0010A01E043D0000198
:105E1000DF8F02D0040128810001EB0502E10401BB
:105E2000288338D00001DF8F35D00001DF8F0401D7
:105E300024BF10D024510F0BE96EEA6AD890E936DE
:105E4000EA36D30EE926000EEA22EECFDEFFEDCFD2
:105E5000DDFF0FD024510F0BE96EEA6AD890E936C6
:105E6000EA36D70EE926000EEA22EECFDEFFEDCFAE
:105E7000DDFFDECFE9FFDDCFEAFFEF50800B09E069
:105E8000DECFE9FFDDCFEAFFEF50040B02E0010EA9
:105E9000286F00D00001DFAF07D0280EDD6F040EA1
:105EA000DE6FDF81020EE06F020EE15C02E2E16A6A
:105EB000E552E16EE552E7CFD9FF12000F0126A1AE
:105EC00015D0CFC0E9FFD0C0EAFFEF5080080DE148
:105ED000D7C0E9FFD8C0EAFFEF50840806E1CFC081
:105EE000E9FFD0C0EAFF8C0EEF6E2691629A120095
:105EF0000F013685629865820001010EEC6F000E7D
:105F0000E66EE66AE66EE66A750EE66EE66A75ECC1
:105F100048F0146E060EE15E145012000001EC6BA6
:105F2000000EE66EE66AE66EE66A740EE66EE66AF5
:105F300075EC48F0146E060EE15E145065920F0188
:105F4000369562A402D06294FCD71200D9CFE6FF46
:105F5000E1CFD9FFE65200012D0EF46FFD0EED15D5
:105F600053E17E0EED15E8407F0B040DF3CFCFF02B
:105F7000F4CFD0F0000ECF27040ED023CFC0D1F045
:105F8000D0C0D2F0D175CFC0E9FFD0C0EAFFEF504A
:105F90003C0BE842E8420D0835E1DF6A080EDF5CA1
:105FA00023E2CFC0E9FFD0C0EAFF020EE926000ECF
:105FB000EA22EE50EFCFEAFFE96EEF50E66EDF50D7
:105FC000EA6A200FE96E040EEA22E552E750EF6E0E
:105FD000CFC0E9FFD0C0EAFF020EE926000EEA2298
:105FE000EE2AEF22DF2ADAD7CFC0E9FFD0C0EAFFDE
:105FF000020EE926000EEA22200EEE6E040EED6E71
:106000000DD801D03AD805D0FD0EED15040801E1F8
:1060100059D8E552E552E7CFD9FF12000001DB6BFA
:10602000F56BF86BF96BEF6BDC6BD7C0E9FFD8C091
:10603000EAFFEF9ED775D7C0E9FFD8C0EAFFEF9E11
:10604000D775D1C0E9FFD2C0EAFFEF9EDF6BE06BEE
:10605000E16BE46BE56BE66B92D8000EE66EE66AE8
:10606000E66EE66A030EE66EE66A75EC48F0146EBC
:10607000060EE15E1450BCEF2CF0020E0001DC5D58
:1060800002E13DDD1ED0DC6BEF511AE1D1C0E9FF2A
:10609000D2C0EAFFEE52400EEF6ED1C0E9FFD2C08F
:1060A000EAFF020EE926000EEA22200EEE6E040E32
:1060B000ED6ED1C0E9FFD2C0EAFF8C0EEF6E01D0C9
:1060C000EF6B1200D9CFE6FFE1CFD9FFE652D7C080
:1060D000E9FFD8C0EAFFEF50400B01E0010EDF6E90
:1060E0000001D775080ECC5D0CE122C438FF0F010A
:1060F000385104E00001100ECC6F03D00001040EF3
:10610000CC6FDC0528E1D7C0E9FFD8C0EAFF020E5A
:10611000E926000EEA22280EEE6E040EED6E8DDCEE
:10612000020E0001DB5D07E1D7C0E9FFD8C0EAFF3E
:10613000840EEF6E0FD0DF5007E1D7C0E9FFD8C063
:10614000EAFFC80EEF6E06D0D7C0E9FFD8C0EAFF5D
:10615000880EEF6E0FD0E4AF0CD0E751E81107E0E6
:1061600005D0E8C0FAFF0001E751F96EFADF00013F
:10617000E49FDC6BE552E552E7CFD9FF1200040142
:106180002051600BE842E842E842E842E842000958
:1061900001E058D021510C0A54E00B0A43E00C0AEC
:1061A00035E0010A26E00B0A22E0020A20E0030A99
:1061B0001CE0080A10E0010A0CE00F0A08E0030ADC
:1061C00001E03FD00001DF8F080ECC6F3BD0AADD8D
:1061D00039D035DD37D00001CD0EDD6F000EDE6F1A
:1061E000DF81010EE06FDF8F2DD0FFDD2BD02BD8AC
:1061F00029D024510001DD6FDE6BCE0EDD27000EAD
:10620000DE23DF81010EE06FDF8F1CD00001DF8F06
:1062100004012451EA6ACE0FE96E000EEA2222C47C
:10622000EFFF10D0000EE66EE66AE66EE66A020E3A
:10623000E66EE66A75EC48F0146E060EE15E1450E8
:1062400001D000D01200D9CFE6FFE1CFD9FF050E73
:10625000E1260401220510E120511F0B00090CE189
:106260000001DF8F030E0401215D04E10001010E36
:10627000EB6F02D00001EB6B0401225101E020D151
:1062800020511F0B020801E01BD124510F0B000904
:1062900001E116D124510F0B010801E211D1200EAA
:1062A0000001CC5D01E00CD1DF8F040124BF1AD0C6
:1062B00024510F0BE96EEA6AD890E936EA36D30E1C
:1062C000E926000EEA22EECFDEFFEDCFDDFF2451FE
:1062D0000F0BEA6AF20FE96E000EEA22020EEFCF10
:1062E000DBFF19D024510F0BE96EEA6AD890E9362A
:1062F000EA36D70EE926000EEA22EECFDEFFEDCF1A
:10630000DDFF24510F0BEA6AF00FE96E000EEA225E
:10631000020EEFCFDBFFD950020FE96EDACFEAFFB2
:10632000EF50010B03E1000EDF9401D0DF8424BFA6
:1063300010D024510F0BE96EEA6AD890E936EA369C
:10634000D30EE926000EEA22DECFEEFFDDCFEDFF11
:106350000FD024510F0BE96EEA6AD890E936EA367D
:10636000D70EE926000EEA22DECFEEFFDDCFEDFFED
:10637000030E215D23E1DECFE9FFDDCFEAFFEF5021
:10638000800B13E024BF09D024510F0BEA6AF20FEF
:10639000E96E000EEA22EF8208D024510F0BEA6A60
:1063A000F00FE96E000EEA22EF82840E146EDECF4B
:1063B000E9FFDDCFEAFF1450EF1282D0DF74DECFA9
:1063C000E9FFDDCFEAFFEF50800B1BE0DECFE9FFF6
:1063D000DDCFEAFFEF9EDECFE9FFDDCFEAFFEF8CF6
:1063E000020EE66EE66ADECFE6FFDDCFE6FF050EC3
:1063F000E66EE66A75EC48F0146E060EE15E145027
:1064000005D0DECFE9FFDDCFEAFFEF8CDF74D95096
:10641000020FE96EDACFEAFFEF50020B07E1DECFA1
:10642000E9FFDDCFEAFFEF50800B2DE0040124BF30
:1064300009D024510F0BEA6AF20FE96E000EEA222E
:10644000EF9208D024510F0BEA6AF00FE96E000EAC
:10645000EA22EF923B0E146EDECFE9FFDDCFEAFFBA
:106460001450EF16020EE66EE66ADECFE6FFDDCFD1
:10647000E6FF050EE66EE66A75EC48F0146E060E51
:10648000E15E145008D03B0E146EDECFE9FFDDCF85
:10649000EAFF1450EF16040124510F0B156A260F62
:1064A000146E0F0E1522030E14C0DBFF040E15C070
:1064B000DBFF030EDBCFE9FF040EDBCFEAFFEF903B
:1064C000050EE15C02E2E16AE552E16EE552E7CFDA
:0464D000D9FF1200DE
:0C64D400D9CFE6FFE1CFD9FF030EE1268F
:1064E000DF6AD9CFE6FFDACFE6FF010EE66EE66A95
:1064F000FC0EE66E86EC41F0146E050EE15E145063
:1065000001082BE1020EDF5C28E1D950010FE66E95
:10651000000EDA20E66E020EE66E100EE66EFC0E3F
:10652000E66E86EC41F0146E050EE15E1450010833
:1065300014E1010EDB500E01696F6A6B69CE6AFED1
:10654000696B020EDB50146E156A145069271550E2
:106550006A23FC0E6A27010E02D0000E00D0146ED2
:10656000030EE15C02E2E16AE552E16E1450E5528D
:10657000E7CFD9FF1200D9CFE6FFE1CFD9FFE6522E
:10658000DF6ADF50DF2AE76EFD0EDBCFE9FFFE0E8C
:10659000DBCFEAFFE750E926000EEA22FC0EEF6EA1
:1065A000DF50DF2AE76EFD0EDBCFE9FFFE0EDBCF0B
:1065B000EAFFE750E926000EEA22EF6ADF50DF2A01
:1065C000E76EFD0EDBCFE9FFFE0EDBCFEAFFE75003
:1065D000E926000EEA22040EEF6EDF50DF2AE76E96
:1065E000FD0EDBCFE9FFFE0EDBCFEAFFE750E92629
:1065F000000EEA22EF6ADF50DF2AE76EFD0EDBCFE6
:10660000E9FFFE0EDBCFEAFFE750E926000EEA22A3
:10661000010EEF6EDF50DF2AE76EFD0EDBCFE9FFE4
:10662000FE0EDBCFEAFFE750E926000EEA22020E5B
:10663000EF6EDF5000D0E552E552E7CFD9FF1200F0
:10664000D9CFE6FFE1CFD9FFE652DF6AD9CFE6FF27
:10665000DACFE6FF010EE66EE66AFC0EE66E86EC29
:1066600041F0146E050EE15E1450010807E1FF0EC3
:10667000DF5C02E1000E04D0DF5002D0000E00D03B
:10668000E552E552E7CFD9FF1200D9CFE6FFE1CFBF
:10669000D9FF0E01691D01E16A1D02E1000E1BD048
:1066A000FC0EDBCFE6FFFD0EDBCFE6FF010EE66E54
:1066B000FE0EDB50156A6925146E6A51152214C04E
:1066C000E6FF15C0E6FF86EC41F0166E050EE15EB2
:1066D0001650010E00D0E552E7CFD9FF1200D9CFF6
:1066E000E6FFE1CFD9FF030EE126DF6A010EDB6A88
:1066F000DF6E150EDF5C23E2D950020FE66E000E4E
:10670000DA20E66E010EE66EDF50156A000F146E99
:10671000FC0E152214C0E6FF15C0E6FF86EC41F022
:10672000166E050EE15E1650010EDBCFE7FF020E7E
:10673000DB50E726010EE7CFDBFFDF2ADAD7D9509F
:10674000020FE66E000EDA20E66E010EE66E150E02
:10675000E66EFC0EE66E86EC41F0146E050EE15E10
:106760001450010EDB50F36E020EDB50F35C03E0BD
:10677000000E03D002D0010E00D0146E030EE15CB7
:1067800002E2E16AE552E16E1450E552E7CFD9FF2B
:106790001200D9CFE6FFE1CFD9FF070EE126DE6A6E
:1067A000DD6A020EDB6A050EDB6A060EDB6AD95073
:1067B000030FE66E000EDA20E66E020EE66E120E93
:1067C000E66EFC0EE66E86EC41F0146E050EE15EA0
:1067D0001450030EDB50E66ED950050FE96EDACF88
:1067E000EAFFE552E750EE6EED6A050EDBCF14F0DE
:1067F000060EDBCF15F014C015F0146A050E14C098
:10680000DBFF060E15C0DBFF040EDB50146E156AAD
:10681000D950050FE96EDACFEAFF1450EE26155075
:10682000ED2269CEDEFF6ACEDDFFDECF14F0DDCFD4
:1068300015F0050EDB500E0169250001166E060EDF
:10684000DB500E016A210001176E1650145C1750C0
:10685000155820E2D950030FE66E000EDA20E66EDE
:10686000010EE66EDECFE6FFDDCFE6FF86EC41F0FF
:10687000146E050EE15E1450020EDBCFE7FF030E2F
:10688000DB50E726020EE7CFDBFFDF2A010E01E334
:10689000DB2ACBD7D950030FE66E000EDA20E66E66
:1068A000010EE66E140EE66EFC0EE66E86EC41F00E
:1068B000146E050EE15E1450020EDB50F36E030EF3
:1068C000DB50F35C03E0000E03D002D0010E00D0D9
:1068D000146E070EE15C02E2E16AE552E16E1450CB
:1068E000E552E7CFD9FF1200D9CFE6FFE1CFD9FFBC
:1068F000080EE126020EDB6A030EDB6A040EDB6A79
:10690000050EDB6A060EDB6A070EDB6AD9CFE6FFEF
:10691000DACFE6FF020EE66E0B0EE66EFC0EE66EBA
:1069200086EC41F0146E050EE15E1450DF50E66E09
:10693000D950060FE96EDACFEAFFE552E750EE6E66
:10694000ED6A060EDBCF14F0070EDBCF15F014C096
:1069500015F0146A060E14C0DBFF070E15C0DBFF2E
:10696000010EDB50146E156AD950060FE96EDACFAE
:10697000EAFF1450EE261550ED22D9CFE6FFDACF0C
:10698000E6FF020EE66E100EE66EFC0EE66E86EC7C
:1069900041F0146E050EE15E1450DF50E66ED950E2
:1069A000040FE96EDACFEAFFE552E750EE6EED6ACA
:1069B000040EDBCF14F0050EDBCF15F014C015F07C
:1069C000146A040E14C0DBFF050E15C0DBFF010EB8
:1069D000DB50146E156AD950040FE96EDACFEAFF66
:1069E0001450EE261550ED22040EDBCF14F0050EE8
:1069F000DBCF15F0060EDBCF16F0070EDBCF17F05E
:106A00001450165C1550175853E2040EDBCF08F0F3
:106A1000050EDBCF09F0020E08C0DBFF030E09C034
:106A2000DBFFD9CFE6FFDACFE6FF020EE66E120EED
:106A3000E66EFC0EE66E86EC41F0146E050EE15E2D
:106A40001450DF50E66ED950040FE96EDACFEAFF3A
:106A5000E552E750EE6EED6A040EDBCF14F0050E42
:106A6000DBCF15F014C015F0146A040E14C0DBFF60
:106A7000050E15C0DBFF010EDB50146E156AD950F0
:106A8000040FE96EDACFEAFF1450EE261550ED221E
:106A9000040EDBCF14F0050EDBCF15F0D950020F3A
