:020000040000FA
:0600000046EF4DF0120076
:0600080004EF08F01200F5
:060018000CEF08F01200DD
:0610000046EF4DF0120066
:021006001200D6
:0610080036EF1AF01200A1
:02100E000400DC
:08101000C08012000400120070
:061018008EEF1AF0120039
:02101E001000C0
:10102000359B0000570E000005000000339B0000B8
:101030006C0E000002000000329B0000FF00000068
:1010400001000000309B00006A0E0000020000005A
:101050002B9B0000FA00000005000000239B00000D
:101060004F0E0000080000001F9B00005C0E0000F7
:10107000040000001A9B0000FB04000005000000B3
:10108000129B0000470E000008000000059B0000B6
:10109000EE0400000D000000029B0000630E000043
:1010A00003000000F89A00003D0E00000A00000056
:1010B000EC9A0000270E00000C000000EA9A0000E5
:1010C000680E000002000000E79A0000600E0000B9
:1010D00003000000C09A0000000E0000270000007E
:1010E000BFEC49F00E01636B646B656B1200D9CFE6
:1010F000E6FFE1CFD9FFFD0EDBCFE9FFFE0EDBCF30
:10110000EAFF010EEF6E48EC4BF00E01636FE55203
:10111000E7CFD9FF1200D9CFE6FFE1CFD9FF0E010B
:10112000640509E1FD0EDBCFE9FFFE0EDBCFEAFF30
:10113000010EEF6E16D063CEE6FF4CEC4BF0E5529D
:1011400032080FE2FD0EDBCFE9FFFE0EDBCFEAFF38
:10115000EF0407E1FD0EDBCFE9FFFE0EDBCFEAFF78
:10116000EF6AE552E7CFD9FF1200D9CFE6FFE1CF12
:10117000D9FFFE0EDB500CE00E01010E646FFC0E79
:10118000DBCFE9FFFD0EDBCFEAFF010EEF6E09D0EA
:101190000E01646BFC0EDBCFE9FFFD0EDBCFEAFF37
:1011A000EF6A010E00D0E552E7CFD9FF1200D9CF88
:1011B000E6FFE1CFD9FF060EF36EFE0EDBCFF4FFA4
:1011C000F350F45C08E3FE0EDB500B0804E3FE0E64
:1011D000DBCF65FE02D00E01656BE552E7CFD9FF8C
:1011E0001200D9CFE6FFE1CFD9FFE65265CEDFFF8F
:1011F0000E01656BDF5000D0E552E552E7CFD9FF15
:101200001200D9CFE6FFE1CFD9FF150EE126020E7D
:10121000E76EFD0EDBCFE9FFFE0EDBCFEAFFE75006
:10122000E926000EEA22EF500F0A02E1E1EF10F08A
:10123000010A02E169EF10F0030A02E1EAEF0FF0A0
:10124000010A02E1EAEF0EF0070A02E15DEF0EF09B
:10125000010A02E10BEF0EF0030A02E198EF0DF034
:10126000010A01E1E5D30F0A01E1A1D3010A01E17D
:101270004ED3030A01E1C5D2010A01E1F2D1070A06
:1012800001E13ED1010A01E1E9D0030A2DE0FD0EA2
:10129000DBCFE9FFFE0EDBCFEAFFEF50E66EFB0E81
:1012A000DBCFE9FFFC0EDBCFEAFFE552E750EF6E44
:1012B000010EE76EFB0EDBCFE9FFFC0EDBCFEAFF92
:1012C000E750E926000EEA22EF6A020EE76EFB0EF7
:1012D000DBCFE9FFFC0EDBCFEAFFE750E926000E8B
:1012E000EA22EF6A37EF11F0FD0EDBCFE9FFFE0EC9
:1012F000DBCFEAFFEF50E66EFB0EDBCFE9FFFC0E23
:10130000DBCFEAFFE552E750EF6E010EE76EFB0E12
:10131000DBCFE9FFFC0EDBCFEAFFE750E926000E4A
:10132000EA22010EEF6E020EE76EFB0EDBCFE9FF45
:10133000FC0EDBCFEAFFE750E926000EEA22010EA1
:10134000EF6E79EC47F0E66E030EE76EFB0EDBCF37
:10135000E9FFFC0EDBCFEAFFE750E926000EEA22A8
:10136000E552E750EF6E030EE76EFB0EDBCFE9FFB1
:10137000FC0EDBCFEAFFE750E926000EEA22EF5031
:101380006BE1D9CFE6FFDACFE6FFDBEC4CF0E552BC
:10139000E552DF6EFA0EDBCFE6FF83EC44F0E55258
:1013A00001080FE1030EE76EFB0EDBCFE9FFFC0E39
:1013B000DBCFEAFFE750E926000EEA22060EEF6EC9
:1013C0004BD0010EDF1401080FE1030EE76EFB0E98
:1013D000DBCFE9FFFC0EDBCFEAFFE750E926000E8A
:1013E000EA22400EEF6E38D0020EDF1402080FE141
:1013F000030EE76EFB0EDBCFE9FFFC0EDBCFEAFF4F
:10140000E750E926000EEA22800EEF6E25D0C5ECEB
:101410003BF001080FE1030EE76EFB0EDBCFE9FFA7
:10142000FC0EDBCFEAFFE750E926000EEA22200E91
:10143000EF6E12D025EC46F001080EE1030EE76EC8
:10144000FB0EDBCFE9FFFC0EDBCFEAFFE750E9261E
:10145000000EEA22820EEF6E37EF11F0FA0EDBCFAC
:10146000E6FF040EE76EFD0EDBCFE9FFFE0EDBCFDD
:10147000EAFFE750E926000EEA22EF50E66E030E7F
:10148000E76EFD0EDBCFE9FFFE0EDBCFEAFFE75094
:10149000E926000EEA22EF50E66E4AEC33F0E55200
:1014A000E552E552FD0EDBCFE9FFFE0EDBCFEAFF92
:1014B000EF50E66EFB0EDBCFE9FFFC0EDBCFEAFF61
:1014C000E552E750EF6E010EE76EFB0EDBCFE9FF52
:1014D000FC0EDBCFEAFFE750E926000EEA22010E00
:1014E000EF6E020EE76EFB0EDBCFE9FFFC0EDBCFEB
:1014F000EAFFE750E926000EEA22EF6A37EF11F023
:10150000010EDB6A020EDB6A040EE76EFD0EDBCF16
:10151000E9FFFE0EDBCFEAFFE750E926000EEA22E4
:10152000EF50E66ED950030FE96EDACFEAFFE552CD
:10153000E750EE6EED6A030EDBCF16F0040EDBCF44
:1015400017F016C017F0166A050EE76EFD0EDBCF1A
:10155000E9FFFE0EDBCFEAFFE750E926000EEA22A4
:10156000EF5000011624146E000E1720156E030EA6
:1015700014C0DBFF040E15C0DBFF030EDBCFE6FF5C
:10158000040EDBCFE6FF030EE76EFD0EDBCFE9FFB7
:10159000FE0EDBCFEAFFE750E926000EEA22EF500D
:1015A000E66E34EC48F0E552E552E552DE52F3CFF8
:1015B000DEFFF4CFDDFFDD52FD0EDBCFE9FFFE0ED7
:1015C000DBCFEAFFEF50E66EFB0EDBCFE9FFFC0E50
:1015D000DBCFEAFFE552E750EF6E010EE76EFB0E40
:1015E000DBCFE9FFFC0EDBCFEAFFE750E926000E78
:1015F000EA22010EEF6E020EE76EFB0EDBCFE9FF73
:10160000FC0EDBCFEAFFE750E926000EEA22020ECD
:10161000EF6E010EDBCF14F0020EDBCF15F015C01C
:1016200014F0156A030EE76EFB0EDBCFE9FFFC0E2C
:10163000DBCFEAFFE750E926000EEA2214C0EFFFF5
:10164000040EE76EFB0EDBCFE9FFFC0EDBCFEAFFFB
:10165000E750E926000EEA22010EDBCFEFFF37EF5D
:1016600011F0060EE76EFD0EDBCFE9FFFE0EDBCFBD
:10167000EAFFE750E926000EEA22EF50E66ED95065
:10168000050FE96EDACFEAFFE552E750EE6EED6A3C
:10169000040EE76EFD0EDBCFE9FFFE0EDBCFEAFFA7
:1016A000E750E926000EEA22EF50E66ED950070F08
:1016B000E96EDACFEAFFE552E750EE6EED6A050E0D
:1016C000DBCF16F0060EDBCF17F016C017F0166A48
:1016D000070EE76EFD0EDBCFE9FFFE0EDBCFEAFF64
:1016E000E750E926000EEA22EF5000011624146E9E
:1016F000000E1720156E050E14C0DBFF060E15C078
:10170000DBFF070EDBCF16F0080EDBCF17F016C09D
:1017100017F0166A050EE76EFD0EDBCFE9FFFE0E31
:10172000DBCFEAFFE750E926000EEA22EF5016244D
:10173000146E000E1720156E070E14C0DBFF080E86
:1017400015C0DBFFFD0EDBCFE9FFFE0EDBCFEAFFAE
:10175000EF50E66EFB0EDBCFE9FFFC0EDBCFEAFFBE
:10176000E552E750EF6E010EE76EFB0EDBCFE9FFAF
:10177000FC0EDBCFEAFFE750E926000EEA22010E5D
:10178000EF6E020EE76EFB0EDBCFE9FFFC0EDBCF48
:10179000EAFFE750E926000EEA22010EEF6E050E81
:1017A000DBCFE6FF060EDBCFE6FF070EDBCFE6FF63
:1017B000080EDBCFE6FF030EE76EFD0EDBCFE9FF81
:1017C000FE0EDBCFEAFFE750E926000EEA22EF50DB
:1017D000E66EB8EC48F0146E050EE15E1450E66E4D
:1017E000030EE76EFB0EDBCFE9FFFC0EDBCFEAFF5B
:1017F000E750E926000EEA22E552E750EF6E37EF98
:1018000011F0030EE76EFD0EDBCFE9FFFE0EDBCF1E
:10181000EAFFE750E926000EEA22EF50E66ED950C3
:10182000090FE96EDACFEAFFE552E750EE6EED6A96
:10183000090EDBCF16F00A0EDBCF17F016C017F03B
:10184000166A040EE76EFD0EDBCFE9FFFE0EDBCF5E
:10185000EAFFE750E926000EEA22EF5000011624C5
:10186000146E000E1720156E090E14C0DBFF0A0E51
:1018700015C0DBFFFD0EDBCFE9FFFE0EDBCFEAFF7D
:10188000EF50E66EFB0EDBCFE9FFFC0EDBCFEAFF8D
:10189000E552E750EF6E010EE76EFB0EDBCFE9FF7E
:1018A000FC0EDBCFEAFFE750E926000EEA22010E2C
:1018B000EF6E020EE76EFB0EDBCFE9FFFC0EDBCF17
:1018C000EAFFE750E926000EEA22010EEF6EFA0E5B
:1018D000DBCFE6FF090EDBCFE6FF0A0EDBCFE6FF2C
:1018E000B5EC4AF0E552E552E552E66E030EE76EBE
:1018F000FB0EDBCFE9FFFC0EDBCFEAFFE750E9266A
:10190000000EEA22E552E750EF6E37EF11F0FD0EC0
:10191000DBCFE9FFFE0EDBCFEAFFEF50E66EFB0EFA
:10192000DBCFE9FFFC0EDBCFEAFFE552E750EF6EBD
:10193000010EE76EFB0EDBCFE9FFFC0EDBCFEAFF0B
:10194000E750E926000EEA22010EEF6E020EE76E66
:10195000FB0EDBCFE9FFFC0EDBCFEAFFE750E92609
:10196000000EEA22010EEF6E030EE76EFD0EDBCFD6
:10197000E9FFFE0EDBCFEAFFE750E926000EEA2280
:10198000EF50E66EB6EC3EF0E552E66E030EE76E03
:10199000FB0EDBCFE9FFFC0EDBCFEAFFE750E926C9
:1019A000000EEA22E552E750EF6E37EF11F0FD0E20
:1019B000DBCFE9FFFE0EDBCFEAFFEF50E66EFB0E5A
:1019C000DBCFE9FFFC0EDBCFEAFFE552E750EF6E1D
:1019D000010EE76EFB0EDBCFE9FFFC0EDBCFEAFF6B
:1019E000E750E926000EEA22010EEF6E020EE76EC6
:1019F000FB0EDBCFE9FFFC0EDBCFEAFFE750E92669
:101A0000000EEA22010EEF6EC5EC3BF0E66E030E0F
:101A1000E76EFB0EDBCFE9FFFC0EDBCFEAFFE75002
:101A2000E926000EEA22E552E750EF6E37EF11F09B
:101A30000B0EDB6A0C0EDB6AFD0EDBCFE9FFFE0E40
:101A4000DBCFEAFFEF50E66EFB0EDBCFE9FFFC0ECB
:101A5000DBCFEAFFE552E750EF6E010EE76EFB0EBB
:101A6000DBCFE9FFFC0EDBCFEAFFE750E926000EF3
:101A7000EA22010EEF6E020EE76EFB0EDBCFE9FFEE
:101A8000FC0EDBCFEAFFE750E926000EEA22030E48
:101A9000EF6EFA0EDBCFE6FFD3EC3BF0E552E66EDD
:101AA000030EE76EFB0EDBCFE9FFFC0EDBCFEAFF98
:101AB000E750E926000EEA22E552E750EF6ECDEC42
:101AC0003BF00B0EF3CFDBFF0C0EF4CFDBFF0B0E66
:101AD000DBCF14F00C0EDBCF15F015C014F0156A37
:101AE000040EE76EFB0EDBCFE9FFFC0EDBCFEAFF57
:101AF000E750E926000EEA2214C0EFFFFF0EE76E62
:101B00000B0EDBCF14F00C0EDBCF15F0E7501416E4
:101B1000156A050EE76EFB0EDBCFE9FFFC0EDBCF8F
:101B2000EAFFE750E926000EEA2214C0EFFF9FD338
:101B3000030EE76EFD0EDBCFE9FFFE0EDBCFEAFF03
:101B4000E750E926000EEA22EFCF14F0060E145CEF
:101B500015E2030EE76EFD0EDBCF14F0FE0EDBCFB9
:101B600015F0E7501426000E152214C0E6FF15C02C
:101B7000E6FF7CEC47F0E552E55220D0030EE76E1D
:101B8000FD0EDBCFE9FFFE0EDBCFEAFFE750E926D3
:101B9000000EEA22EF500B0811E3030EE76EFD0E74
:101BA000DBCFE9FFFE0EDBCFEAFFE750E926000EB0
:101BB000EA22EF50E66ED7EC08F0E552FD0EDBCFDF
:101BC000E9FFFE0EDBCFEAFFEF50E66EFB0EDBCF48
:101BD000E9FFFC0EDBCFEAFFE552E750EF6E010EA6
:101BE000E76EFB0EDBCFE9FFFC0EDBCFEAFFE75031
:101BF000E926000EEA22010EEF6E020EE76EFB0EE2
:101C0000DBCFE9FFFC0EDBCFEAFFE750E926000E51
:101C1000EA22EF6A2CD3FD0EDBCFE9FFFE0EDBCF0D
:101C2000EAFFEF50E66EFB0EDBCFE9FFFC0EDBCFE9
:101C3000EAFFE552E750EF6E010EE76EFB0EDBCFD9
:101C4000E9FFFC0EDBCFEAFFE750E926000EEA22AF
:101C5000010EEF6E020EE76EFB0EDBCFE9FFFC0E0E
:101C6000DBCFEAFFE750E926000EEA22010EEF6E15
:101C7000030EE76EFD0EDBCF14F0FE0EDBCF15F08A
:101C8000E7501426000E152214C0E6FF15C0E6FF2B
:101C9000DBEC4CF0E552E552E66E030EE76EFB0E10
:101CA000DBCFE9FFFC0EDBCFEAFFE750E926000EB1
:101CB000EA22E552E750EF6EDAD20D0EDB6A0E0E25
:101CC000DB6AFD0EDBCFE9FFFE0EDBCFEAFFEF5054
:101CD000E66EFB0EDBCFE9FFFC0EDBCFEAFFE55241
:101CE000E750EF6E010EE76EFB0EDBCFE9FFFC0E57
:101CF000DBCFEAFFE750E926000EEA22010EEF6E85
:101D0000020EE76EFB0EDBCFE9FFFC0EDBCFEAFF36
:101D1000E750E926000EEA22040EEF6EFA0EDBCF42
:101D2000E6FF83EC44F0E552E66E030EE76EFB0E31
:101D3000DBCFE9FFFC0EDBCFEAFFE750E926000E20
:101D4000EA22E552E750EF6EFA0EDBCFE6FFD950FC
:101D50000E0FE66E000EDA20E66ED9500D0FE66E1D
:101D6000000EDA20E66E1AEC44F0146E050EE15E09
:101D7000145099EC4BF0E66E040EE76EFB0EDBCFD1
:101D8000E9FFFC0EDBCFEAFFE750E926000EEA226E
:101D9000E552E750EF6E050EE76EFB0EDBCFE9FF75
:101DA000FC0EDBCFEAFFE750E926000EEA220D0E1B
:101DB000DBCFEFFF060EE76EFB0EDBCFE9FFFC0E7D
:101DC000DBCFEAFFE750E926000EEA220E0EDBCF5A
:101DD000EFFF4DD20F0EDB6A100EDB6A110EDB6ACD
:101DE000120EDB6AFD0EDBCFE9FFFE0EDBCFEAFF52
:101DF000EF50E66EFB0EDBCFE9FFFC0EDBCFEAFF18
:101E0000E552E750EF6E010EE76EFB0EDBCFE9FF08
:101E1000FC0EDBCFEAFFE750E926000EEA22010EB6
:101E2000EF6E020EE76EFB0EDBCFE9FFFC0EDBCFA1
:101E3000EAFFE750E926000EEA22040EEF6E55ECA9
:101E40004AF0F3CF14F0F4CF15F00F0E14C0DBFFFF
:101E5000100E15C0DBFF110EDB6A120EDB6A0F0ECF
:101E6000DBCF14F0100EDBCF15F0110EDBCF16F028
:101E7000120EDBCF17F0080ED8901732163215323B
:101E80001432E806F9E1030EE76EFB0EDBCFE9FF43
:101E9000FC0EDBCFEAFFE750E926000EEA2214C071
:101EA000EFFF0F0EDBCF14F0100EDBCF15F0110E8D
:101EB000DBCF16F0120EDBCF17F01450E66E040ED7
:101EC000E76EFB0EDBCFE9FFFC0EDBCFEAFFE7504E
:101ED000E926000EEA22E552E750EF6E0F0EDBCF47
:101EE00006F0100EDBCF07F0110EDBCF08F0120E5C
:101EF000DBCF09F0180E0B6E020E0C6E0D6A0E6A27
:101F000069EC4CF00F0E02C0DBFF100E03C0DBFFCC
:101F1000110E04C0DBFF120E05C0DBFFD9500F0FFE
:101F2000E96EDACFEAFF640E0B6E0C6A0D6A0E6A78
:101F3000EECF06F0EECF07F0EECF08F0EFCF09F0CE
:101F4000A1EC4CF009C0EDFF08C0EDFF07C0EDFFAC
:101F500006C0EFFF0F0EDBCF14F0100EDBCF15F035
:101F6000110EDBCF16F0120EDBCF17F0080ED89053
:101F70001732163215321432E806F9E1050EE76E13
:101F8000FB0EDBCFE9FFFC0EDBCFEAFFE750E926D3
:101F9000000EEA2214C0EFFF0F0EDBCF14F0100E7C
:101FA000DBCF15F0110EDBCF16F0120EDBCF17F0E2
:101FB0001450E66E060EE76EFB0EDBCFE9FFFC0E5B
:101FC000DBCFEAFFE750E926000EEA22E552E750B0
:101FD000EF6E4DD1040EE76EFD0EDBCFE9FFFE0E76
:101FE000DBCFEAFFE750E926000EEA22EF50E66E6B
:101FF000D950130FE96EDACFEAFFE552E750EE6EE3
:10200000ED6A130EDBCF16F0140EDBCF17F016C0FF
:1020100017F0166A050EE76EFD0EDBCFE9FFFE0E28
:10202000DBCFEAFFE750E926000EEA22EF5000017D
:102030001624146E000E1720156E130E14C0DBFF4D
:10204000140E15C0DBFF130EDBCFE6FF140EDBCF43
:10205000E6FF030EE76EFD0EDBCFE9FFFE0EDBCFE2
:10206000EAFFE750E926000EEA22EF50E66E61EC47
:102070004AF0E552E552E552FD0EDBCFE9FFFE0ED8
:10208000DBCFEAFFEF50E66EFB0EDBCFE9FFFC0E85
:10209000DBCFEAFFE552E750EF6E010EE76EFB0E75
:1020A000DBCFE9FFFC0EDBCFEAFFE750E926000EAD
:1020B000EA22010EEF6E020EE76EFB0EDBCFE9FFA8
:1020C000FC0EDBCFEAFFE750E926000EEA22EF6ABA
:1020D000CED0FD0EDBCFE9FFFE0EDBCFEAFFEF50E7
:1020E000E66EFB0EDBCFE9FFFC0EDBCFEAFFE5522D
:1020F000E750EF6E010EE76EFB0EDBCFE9FFFC0E43
:10210000DBCFEAFFE750E926000EEA22010EEF6E70
:10211000020EE76EFB0EDBCFE9FFFC0EDBCFEAFF22
:10212000E750E926000EEA22020EEF6E25EC46F09B
:10213000E66E030EE76EFB0EDBCFE9FFFC0EDBCF96
:10214000EAFFE750E926000EEA22E552E750EF6E7B
:10215000F250020B01E0010EE66E040EE76EFB0E7C
:10216000DBCFE9FFFC0EDBCFEAFFE750E926000EEC
:10217000EA22E552E750EF6EF250100B01E0010E3B
:10218000146E040EE76EFB0EDBCFE9FFFC0EDBCF17
:10219000EAFFE750E926000EEA22EF50E824141087
:1021A000E66E040EE76EFB0EDBCFE9FFFC0EDBCF25
:1021B000EAFFE750E926000EEA22E552E750EF6E0B
:1021C00056D0FD0EDBCFE9FFFE0EDBCFEAFFEF506E
:1021D000E66EFB0EDBCFE9FFFC0EDBCFEAFFE5523C
:1021E000E750EF6E010EE76EFB0EDBCFE9FFFC0E52
:1021F000DBCFEAFFE750E926000EEA22010EEF6E80
:10220000020EE76EFB0EDBCFE9FFFC0EDBCFEAFF31
:10221000E750E926000EEA22EF6A030EE76EFD0E94
:10222000DBCFE9FFFE0EDBCFEAFFE750E926000E29
:10223000EA22EF50E66E26EC47F0E552030EE76E19
:10224000FD0EDBCFE9FFFE0EDBCFEAFFE750E9260C
:10225000000EEA22EF500AE1FA0EDBCFE6FFE66A53
:10226000E66A4AEC33F0E552E552E55200D0010E41
:10227000146E150EE15C03E200D0E16AE552E16EF6
:102280001450E552E7CFD9FF1200D9CFE6FFE1CFD6
:10229000D9FF0F0EE126DF6A010EDB6A020EDB6A50
:1022A000030EDB6A040EDB6A050EDB6A060EDB6AD0
:1022B000070EDB6A080EDB6A090EDB6A0A0EDB6AB0
:1022C0000B0EDB6A0C0EDB6A0D0EDB6A050EDB6A99
:1022D000FD0EDBCFE9FFFE0EDBCFEAFFEF50FF0A7A
:1022E00002E19BEF18F00D0A02E13DEF18F01C0A25
:1022F00002E12EEF17F0010A02E11DEF16F0020ACB
:1023000002E1EBEF15F06A0A02E19EEF15F0010A17
:1023100001E194D3030A01E12FD3010A01E1EBD2D9
:10232000070A01E186D2010A01E133D2200A01E164
:10233000E7D1030A01E19BD1010A01E12DD1300A65
:1023400001E1E0D0100A01E18CD0F00A6AE0110A44
:1023500036E0010A02E07AEF19F0FD0EDBCFE9FF6B
:10236000FE0EDBCFEAFFEF50E66EFB0EDBCFE9FFA0
:10237000FC0EDBCFEAFFE552E750EF6E010EE76E91
:10238000FB0EDBCFE9FFFC0EDBCFEAFFE750E926CF
:10239000000EEA22EF6A020EE76EFB0EDBCFE9FFCA
:1023A000FC0EDBCFEAFFE750E926000EEA22EF6AD7
:1023B000010EF36E050EF3CFDBFF7BEF19F0FD0E80
:1023C000DBCFE9FFFE0EDBCFEAFFEF50E66EFB0E40
:1023D000DBCFE9FFFC0EDBCFEAFFE552E750EF6E03
:1023E000010EE76EFB0EDBCFE9FFFC0EDBCFEAFF51
:1023F000E750E926000EEA22EF6A020EE76EFB0EB6
:10240000DBCFE9FFFC0EDBCFEAFFE750E926000E49
:10241000EA22EF6A010EF36E050EF3CFDBFF7BEFCE
:1024200019F0F90EDBCFE9FFFA0EDBCFEAFFEF5030
:10243000E66EFB0EDBCFE6FFFC0EDBCFE6FFFD0E0C
:10244000DBCFE6FFFE0EDBCFE6FF01EC09F0146EFA
:10245000050EE15E1450E76E050EE7CFDBFF7BEF64
:1024600019F0FD0EDBCFE9FFFE0EDBCFEAFFEF50E8
:10247000E66EFB0EDBCFE9FFFC0EDBCFEAFFE55299
:10248000E750EF6E010EE76EFB0EDBCFE9FFFC0EAF
:10249000DBCFEAFFE750E926000EEA22010EEF6EDD
:1024A000020EE76EFB0EDBCFE9FFFC0EDBCFEAFF8F
:1024B000E750E926000EEA22EF6A020EE76EFD0EF3
:1024C000DBCFE9FFFE0EDBCFEAFFE750E926000E87
:1024D000EA22EF5009E0F70EDBCFE9FFF80EDBCF81
:1024E000EAFF010EEF6E07D0F70EDBCFE9FFF80E23
:1024F000DBCFEAFFEF6A010EF36E050EF3CFDBFFD1
:102500007BEF19F0FD0EDBCFE9FFFE0EDBCFEAFF1C
:10251000EF50E66EFB0EDBCFE9FFFC0EDBCFEAFFF0
:10252000E552E750EF6E010EE76EFB0EDBCFE9FFE1
:10253000FC0EDBCFEAFFE750E926000EEA22010E8F
:10254000EF6E030EE76EFB0EDBCF14F0FC0EDBCF5D
:1025500015F0E7501426000E152214C0E6FF15C032
:10256000E6FFBDEC37F0E552E552E66E020EE76E8F
:10257000FB0EDBCFE9FFFC0EDBCFEAFFE750E926DD
:10258000000EEA22E552E750EF6E010EF36E050EE3
:10259000F3CFDBFF7BEF19F0FD0EDBCFE9FFFE0E83
:1025A000DBCFEAFFEF50E66EFB0EDBCFE9FFFC0E60
:1025B000DBCFEAFFE552E750EF6E030EE76EFB0E4E
:1025C000DBCF14F0FC0EDBCF15F0E7501426000E25
:1025D000152214C0E6FF15C0E6FF020EE76EFD0EE1
:1025E000DBCF16F0FE0EDBCF17F0E7501626000EFD
:1025F000172216C0E6FF17C0E6FFE0EC3FF0E552F9
:10260000E552E552E552E66E010EE76EFB0EDBCFBA
:10261000E9FFFC0EDBCFEAFFE750E926000EEA22D5
:10262000E552E750EF6E040EE76EFD0EDBCFE9FFDB
:10263000FE0EDBCFEAFFE750E926000EEA22EF505C
:10264000E66E020EE76EFB0EDBCFE9FFFC0EDBCF82
:10265000EAFFE750E926000EEA22E552E750EF6E66
:10266000010EF36E050EF3CFDBFF7BEF19F0FD0ECD
:10267000DBCFE9FFFE0EDBCFEAFFEF50E66EFB0E8D
:10268000DBCFE9FFFC0EDBCFEAFFE552E750EF6E50
:10269000020EE76EFD0EDBCF14F0FE0EDBCF15F061
:1026A000E7501426000E152214C0E6FF15C0E6FF01
:1026B000ABEC40F0E552E552E66E010EE76EFB0E24
:1026C000DBCFE9FFFC0EDBCFEAFFE750E926000E87
:1026D000EA22E552E750EF6E020EE76EFB0EDBCF0B
:1026E000E9FFFC0EDBCFEAFFE750E926000EEA2205
:1026F000EF6A010EF36E050EF3CFDBFF7BEF19F0EF
:10270000FD0EDBCFE9FFFE0EDBCFEAFFEF50E66EFA
:10271000FB0EDBCFE9FFFC0EDBCFEAFFE552E75013
:10272000EF6E020EE76EFD0EDBCF14F0FE0EDBCF78
:1027300015F0E7501426000E152214C0E6FF15C050
:10274000E6FF22EC3FF0E552E552E66E010EE76E41
:10275000FB0EDBCFE9FFFC0EDBCFEAFFE750E926FB
:10276000000EEA22E552E750EF6E020EE76EFB0E16
:10277000DBCFE9FFFC0EDBCFEAFFE750E926000ED6
:10278000EA22EF6A010EF36E050EF3CFDBFF7BEF5B
:1027900019F0F90EDBCFE6FFFA0EDBCFE6FF77ECA0
:1027A00008F0E552E552FD0EDBCFE9FFFE0EDBCF70
:1027B000EAFFEF50E66EFB0EDBCFE9FFFC0EDBCF4E
:1027C000EAFFE552E750EF6E020EE76EFD0EDBCF3B
:1027D000E9FFFE0EDBCFEAFFE750E926000EEA2212
:1027E000EF50E66EB1EC41F0E552E66E010EE76E99
:1027F000FB0EDBCFE9FFFC0EDBCFEAFFE750E9265B
:10280000000EEA22E552E750EF6E020EE76EFB0E75
:10281000DBCFE9FFFC0EDBCFEAFFE750E926000E35
:10282000EA22EF6A010EF36E050EF3CFDBFF7BEFBA
:1028300019F0F90EDBCFE6FFFA0EDBCFE6FF77ECFF
:1028400008F0E552E552FD0EDBCFE9FFFE0EDBCFCF
:10285000EAFFEF50E66EFB0EDBCFE9FFFC0EDBCFAD
:10286000EAFFE552E750EF6E010EE76EFD0EDBCF9B
:10287000E9FFFE0EDBCFEAFFE750E926000EEA2271
:10288000EF50E66E020EE76EFD0EDBCF14F0FE0E8B
:10289000DBCF15F0E7501426000E152214C0E6FF1A
:1028A00015C0E6FF24EC42F0E552E552E552E66E33
:1028B000010EE76EFB0EDBCFE9FFFC0EDBCFEAFF7C
:1028C000E750E926000EEA22E552E750EF6E020ECD
:1028D000E76EFB0EDBCFE9FFFC0EDBCFEAFFE75034
:1028E000E926000EEA22EF6A010EF36E050EF3CF21
:1028F000DBFF7BEF19F0F90EDBCFE6FFFA0EDBCF43
:10290000E6FF77EC08F0E552E552FD0EDBCFE9FF7C
:10291000FE0EDBCFEAFFEF50E66EFB0EDBCFE9FFEA
:10292000FC0EDBCFEAFFE552E750EF6EF1EC41F031
:10293000E66E010EE76EFB0EDBCFE9FFFC0EDBCF90
:10294000EAFFE750E926000EEA22E552E750EF6E73
:10295000020EE76EFB0EDBCFE9FFFC0EDBCFEAFFDA
:10296000E750E926000EEA22EF6A010EF36E050E2B
:10297000F3CFDBFF7BEF19F0F90EDBCFE6FFFA0EAA
:10298000DBCFE6FF77EC08F0E552E552FD0EDBCF3A
:10299000E9FFFE0EDBCFEAFFEF50E66EFB0EDBCF6A
:1029A000E9FFFC0EDBCFEAFFE552E750EF6E010EC8
:1029B000E76EFD0EDBCFE9FFFE0EDBCFEAFFE7504F
:1029C000E926000EEA22EF50E66E020EE76EFD0EDB
:1029D000DBCF14F0FE0EDBCF15F0E7501426000E0F
:1029E000152214C0E6FF15C0E6FF61EC42F0E55287
:1029F000E552E552E66E010EE76EFB0EDBCFE9FF16
:102A0000FC0EDBCFEAFFE750E926000EEA22E55292
:102A1000E750EF6E020EE76EFB0EDBCFE9FFFC0E18
:102A2000DBCFEAFFE750E926000EEA22EF6A010E4B
:102A3000F36E050EF3CFDBFF7BEF19F0F90EDBCF62
:102A4000E6FFFA0EDBCFE6FF77EC08F0E552E55241
:102A5000FD0EDBCFE9FFFE0EDBCFEAFFEF50E66EA7
:102A6000FB0EDBCFE9FFFC0EDBCFEAFFE552E750C0
:102A7000EF6E030EE76EFB0EDBCF14F0FC0EDBCF28
:102A800015F0E7501426000E152214C0E6FF15C0FD
:102A9000E6FF030EE76EFD0EDBCFE9FFFE0EDBCF98
:102AA000EAFFE750E926000EEA22EF50E66E020E3A
:102AB000E76EFD0EDBCFE9FFFE0EDBCFEAFFE7504E
:102AC000E926000EEA22EF50E66E33EC43F0E552C1
:102AD000E552E552E552E66E010EE76EFB0EDBCFE6
:102AE000E9FFFC0EDBCFEAFFE750E926000EEA2201
:102AF000E552E750EF6E030EE76EFD0EDBCFE9FF08
:102B0000FE0EDBCFEAFFE750E926000EEA22EF5087
:102B1000E66E020EE76EFB0EDBCFE9FFFC0EDBCFAD
:102B2000EAFFE750E926000EEA22E552E750EF6E91
:102B3000010EF36E050EF3CFDBFFDDD3FD0EDBCF11
:102B4000E9FFFE0EDBCFEAFFEF50E66EFB0EDBCFB8
:102B5000E9FFFC0EDBCFEAFFE552E750EF6EF90E1E
:102B6000DBCFE6FFFA0EDBCFE6FF020EE76EFD0ECF
:102B7000DBCFE9FFFE0EDBCFEAFFE750E926000ED0
:102B8000EA22EF50E66EB5EC08F0E552E552E55268
:102B9000E66E010EE76EFB0EDBCFE9FFFC0EDBCF2E
:102BA000EAFFE750E926000EEA22E552E750EF6E11
:102BB000020EE76EFB0EDBCFE9FFFC0EDBCFEAFF78
:102BC000E750E926000EEA22EF6A010EF36E050EC9
:102BD000F3CFDBFF90D3FD0EDBCFE9FFFE0EDBCFA3
:102BE000EAFFEF50E66EFB0EDBCFE9FFFC0EDBCF1A
:102BF000EAFFE552E750EF6E010EE76EFB0EDBCF0A
:102C0000E9FFFC0EDBCFEAFFE750E926000EEA22DF
:102C1000010EEF6E020EE76EFB0EDBCFE9FFFC0E3E
:102C2000DBCFEAFFE750E926000EEA22EF6A010E49
:102C3000F36E050EF3CFDBFF5ED3FD0EDBCFE9FFB6
:102C4000FE0EDBCFEAFFEF50E66EFB0EDBCFE9FFB7
:102C5000FC0EDBCFEAFFE552E750EF6E020EE76EA7
:102C6000FD0EDBCFE9FFFE0EDBCFEAFFE750E926E2
:102C7000000EEA22EF50E66ED950060FE96EDACF69
:102C8000EAFFE552E750EE6EED6A060EDBCF14F078
:102C9000070EDBCF15F014C015F0146A060E14C031
:102CA000DBFF070E15C0DBFF030EE76EFD0EDBCF6B
:102CB000E9FFFE0EDBCFEAFFE750E926000EEA222D
:102CC000EF50146E156AD950060FE96EDACFEAFF9D
:102CD0001450EE261550ED22040EE76EFD0EDBCFEC
:102CE000E9FFFE0EDBCFEAFFE750E926000EEA22FD
:102CF000EF50E66ED950080FE96EDACFEAFFE552E1
:102D0000E750EE6EED6A080EDBCF14F0090EDBCF54
:102D100015F014C015F0146A080E14C0DBFF090E7C
:102D200015C0DBFF050EE76EFD0EDBCFE9FFFE0EE3
:102D3000DBCFEAFFE750E926000EEA22EF50146EDF
:102D4000156AD950080FE96EDACFEAFF1450EE2663
:102D50001550ED22D950080FE96EDACFEAFFEE5098
:102D6000ED100BE0D950080FE96EDACFEAFF3A0E0A
:102D7000D880EE54000EED541BE2010EE76EFB0E00
:102D8000DBCFE9FFFC0EDBCFEAFFE750E926000EC0
:102D9000EA22EF6A020EE76EFB0EDBCFE9FFFC0EC4
:102DA000DBCFEAFFE750E926000EEA22EF6A50D0B7
:102DB000010EE76EFB0EDBCFE9FFFC0EDBCFEAFF77
:102DC000E750E926000EEA22010EEF6E020EE76ED2
:102DD000FB0EDBCFE9FFFC0EDBCFEAFFE750E92675
:102DE000000EEA22080EDBCFEFFFDF6ADFCF14F020
:102DF000080EDBCF15F0090EDBCF16F01550145C72
:102E0000000E165425E2060EDBCF14F0DB2A070E67
:102E1000DBCF15F001E3DB2A0A0EDB501424E96E48
:102E20000B0EDB501520EA6EEF50E66E030EDF242A
:102E3000E76EFB0EDBCFE9FFFC0EDBCFEAFFE750CE
:102E4000E926000EEA22E552E750EF6EDF2ACED7E0
:102E5000010EF36E050EF3CFDBFF4DD2FD0EDBCF7F
:102E6000E9FFFE0EDBCFEAFFEF50E66EFB0EDBCF95
:102E7000E9FFFC0EDBCFEAFFE552E750EF6E020EF2
:102E8000E76EFD0EDBCFE9FFFE0EDBCFEAFFE7507A
:102E9000E926000EEA22EF50E66ED950060FE96EE1
:102EA000DACFEAFFE552E750EE6EED6A060EDBCFB1
:102EB00014F0070EDBCF15F014C015F0146A060EDF
:102EC00014C0DBFF070E15C0DBFF030EE76EFD0E1F
:102ED000DBCFE9FFFE0EDBCFEAFFE750E926000E6D
:102EE000EA22EF50146E156AD950060FE96EDACF58
:102EF000EAFF1450EE261550ED22040EE76EFD0E8B
:102F0000DBCFE9FFFE0EDBCFEAFFE750E926000E3C
:102F1000EA22EF50E66ED950080FE96EDACFEAFFE9
:102F2000E552E750EE6EED6A080EDBCF14F0090EA5
:102F3000DBCF15F014C015F0146A080E14C0DBFFC7
:102F4000090E15C0DBFF050EE76EFD0EDBCFE9FFB6
:102F5000FE0EDBCFEAFFE750E926000EEA22EF5033
:102F6000146E156AD950080FE96EDACFEAFF1450D3
:102F7000EE261550ED22D950080FE96EDACFEAFFA0
:102F8000EE50ED100BE0D950080FE96EDACFEAFFF2
:102F90003A0ED880EE54000EED541BE2010EE76E9F
:102FA000FB0EDBCFE9FFFC0EDBCFEAFFE750E926A3
:102FB000000EEA22EF6A020EE76EFB0EDBCFE9FF9E
:102FC000FC0EDBCFEAFFE750E926000EEA22EF6AAB
:102FD0004ED0010EE76EFB0EDBCFE9FFFC0EDBCF20
:102FE000EAFFE750E926000EEA22010EEF6E020E1C
:102FF000E76EFB0EDBCFE9FFFC0EDBCFEAFFE7500D
:10300000E926000EEA22EF6ADF6ADFCF14F0080E2D
:10301000DBCF15F0090EDBCF16F01550145C000E57
:10302000165425E2060EDF24E76EFD0EDBCFE9FF26
:10303000FE0EDBCFEAFFE750E926000EEA22EF5052
:10304000E66E060EDBCF14F0DB2A070EDBCF15F0A1
:1030500001E3DB2A0A0EDB501424E96E0B0EDB5071
:103060001520EA6EE552E750EF6EDF2ACED7010E4B
:10307000F36E050EF3CFDBFF3ED199EC4BF0E76E1C
:103080000E0EE7CFDBFF6592656A39EC33F0FB0E7D
:10309000DBCFE9FFFC0EDBCFEAFFF20EEF6E010E95
:1030A000E76EFB0EDBCFE9FFFC0EDBCFEAFFE7505C
:1030B000E926000EEA22010EEF6E020EE76EFB0E0D
:1030C000DBCFE9FFFC0EDBCFEAFFE750E926000E7D
:1030D000EA22EF6A010EF36E050EF3CFDBFF0E0E50
:1030E000DB500209E66ED7EC45F0E552010EDB6AD3
:1030F000020EDB6A030EDB6A040EDB6AD950010F95
:10310000E96EDACFEAFFA00EEE5C860EEE58010EF5
:10311000EE58000EEE580BE2D950010FE96EDACFEF
:10312000EAFFEE2A000EEE22EE22EE22E7D7F29E12
:103130000EEF00F0E0D0010EDB6A020EDB6A030E38
:10314000DB6A040EDB6AD950010FE96EDACFEAFFC1
:10315000EFCF14F0EE2A000EEFCF15F0EE22EFCFF6
:1031600016F0EE22EFCF17F0EF22FB0EDB50142407
:10317000E96EFC0EDB501520EA6EEF68D950010FA6
:10318000E96EDACFEAFFEFCF14F0EE2A000EEFCFB0
:1031900015F0EE22EFCF16F0EE22EFCF17F0EF2270
:1031A000FB0EDB501424E96EFC0EDB501520EA6E9A
:1031B000010EEF6ED950010FE96EDACFEAFFEFCFC3
:1031C00014F0EE2A000EEFCF15F0EE22EFCF16F03E
:1031D000EE22EFCF17F0EF22FB0EDB501424E96E46
:1031E000FC0EDB501520EA6E170EEF6ED950010F62
:1031F000E96EDACFEAFFEFCF14F0EE2A000EEFCF40
:1032000015F0EE22EFCF16F0EE22EFCF17F0EF22FF
:10321000FB0EDB501424E96EFC0EDB501520EA6E29
:10322000EF6AD950010FE96EDACFEAFFEFCF14F061
:10323000EE2A000EEFCF15F0EE22EFCF16F0EE22C1
:10324000EFCF17F0EF22FB0EDB501424E96EFC0EDB
:10325000DB501520EA6E7D0EEF6EDF6A150EDF5C27
:1032600028E2DF50F76AA80FF66E9A0EF7220800E0
:10327000F550E66ED950010FE96EDACFEAFFEFCFD5
:1032800014F0EE2A000EEFCF15F0EE22EFCF16F07D
:10329000EE22EFCF17F0EF22FB0EDB501424E96E85
:1032A000FC0EDB501520EA6EE552E750EF6EDF2A88
:1032B000D5D7D950010FE96EDACFEAFFEFCF14F07E
:1032C000EE2A000EEFCF15F0EE22EFCF16F0EE2231
:1032D000EFCF17F0EF22FB0EDB501424E96EFC0E4B
:1032E000DB501520EA6EEF6A010EF36E050EF3CF88
:1032F000DBFF01D000D0050EDB5000D0146E0F0EA6
:10330000E15C02E2E16AE552E16E1450E552E7CF7A
:10331000D9FF1200D9CFE6FFE1CFD9FFE652DF6A2D
:10332000F90EDBCFE6FFFA0EDBCFE6FF8BEC08F001
:10333000E552E552200E0001E76ECC19E8AE02D04E
:10334000E73402D0E750CC5D03E36550020B09E09F
:10335000FD0EDBCFE9FFFE0EDBCFEAFFEF6A81D087
:103360001CD0CBEC49F0000908E1FB0EDBCFE9FFF4
:10337000FC0EDBCFEAFFEF6A08D0FB0EDBCFE9FFE4
:10338000FC0EDBCFEAFF010EEF6EFD0EDBCFE9FF97
:10339000FE0EDBCFEAFF010EEF6E0401E851E911EA
:1033A00002E1000E08D0E8C4E9FFE9C4EAFFEF50EB
:1033B000800B01E0010E000954E1F70EDBCFE6FFC0
:1033C000F80EDBCFE6FFF90EDBCFE6FFFA0EDBCF20
:1033D000E6FFA80EE66E040EE66E680EE66E040EBC
:1033E000E66E45EC11F0146E080EE15E1450DF6ECF
:1033F000DF0424E10401EA51EB1102E1000E08D0E0
:10340000EAC4E9FFEBC4EAFFEF50800B01E0010ED4
:10341000000914E1400EE66EA80EE66E040EE66E9C
:10342000010EE66EE66E08EC2BF0146E050EE15E02
:103430001450F3CFEAF4F4CFEBF4DF6A400EE66EFB
:10344000680EE66E040EE66EE66A010EE66E08ECA5
:103450002BF0146E050EE15E1450F3CFE8F4F4CFB8
:0C346000E9F4E552E552E7CFD9FF120075
:04346C00DACFE4FFD0
:10347000E2CFDAFFE9CFE4FFEACFE4FFF6CFE4FFE3
:10348000F7CFE4FFF5CFE4FFF3CFE4FFF4CFE4FFA1
:10349000FACFE4FF00EE00F0140EE80403E3EECFF1
:1034A000E4FFFBD700EE14F0050EE80403E3EECFD3
:1034B000E4FFFBD7E652FC0ED3140009D36E10ECE8
:1034C0002AF0F2A207D0F298F292010EE66E29ECF1
:1034D00046F0E552E55200EE18F0050EE80403E36D
:1034E000E5CFEDFFFBD700EE13F0140EE80403E385
:1034F000E5CFEDFFFBD7E5CFFAFFE5CFF4FFE5CF52
:10350000F3FFE5CFF5FFE5CFF7FFE5CFF6FFE5CF1A
:10351000EAFFE5CFE9FFE5CFDAFF1100D8CFE4FFFE
:10352000E0CFE4FFE46EDACFE4FFE2CFDAFFE9CFE9
:10353000E4FFEACFE4FFF6CFE4FFF7CFE4FFF5CFF7
:10354000E4FFF3CFE4FFF4CFE4FFFACFE4FF00EEB3
:1035500000F0140EE80403E3EECFE4FFFBD700EE27
:1035600014F0050EE80403E3EECFE4FFFBD7E652C8
:10357000FC0ED3140009D36E6EEC4BF0E55200EE56
:1035800018F0050EE80403E3E5CFEDFFFBD700EEEE
:1035900013F0140EE80403E3E5CFEDFFFBD7E5CF0E
:1035A000FAFFE5CFF4FFE5CFF3FFE5CFF5FFE5CF79
:1035B000F7FFE5CFF6FFE5CFEAFFE5CFE9FFE5CF7F
:1035C000DAFFE550E5CFE0FFE5CFD8FF1000D9CF17
:1035D000E6FFE1CFD9FF020EE126580EDE6E020EA5
:1035E000DD6ED08EF29EF29CC090F292F2889B8C9F
:1035F000DFCF14F0DF06010EDBCF15F001E2DB06B2
:103600001450151001E0F4D70F0148694969020E02
:10361000E15C02E2E16AE552E16EE552E7CFD9FFF3
:103620001200D9CFE6FFE1CFD9FFE652DF6A0F01E2
:103630004D9FD38EFC0ED3140009D36EF28EF28C04
:103640000E01160E076FE552E552E7CFD9FF1200C3
:10365000D9CFE6FFE1CFD9FF110EE126DF6ADE52B6
:10366000B80EDD6EF70EF36E020EF3CFDBFF350EF4
:10367000F36E030EF3CFDBFFFA0EF36E040EF3CFFF
:10368000DBFF630EF36E050EF3CFDBFFFE0EF36E72
:10369000060EF3CFDBFF810EF36E070EF3CFDBFFD9
:1036A000F10EF36E080EF3CFDBFFD950090FE66E73
:1036B000000EDA20E66ECCEC3AF0E552E552DF6A15
:1036C000080EDF5C2CE2D950010F156EDACF16F030
:1036D000DF500F011524E96E000E1620EA6EEFCFC1
:1036E00014F0D950090F176EDACF18F0DF500F0120
:1036F0001724E96E000E1820EA6EEF50145C0DE0FE
:10370000D950010FE66E000EDA20E66EE5EC3AF0D5
:10371000E552E552F29E00EF00F0DF2AD1D7110EFC
:10372000E15C02E2E16AE552E16EE552E7CFD9FFE2
:103730001200D9CFE6FFE1CFD9FF0E01010E176FBE
:1037400048EC4BF00E01186FFE0EDBCF19FEE55270
:10375000E7CFD9FF12000E01175102E1000E0ED083
:1037600018CEE6FF4CEC4BF0E552146E0E011951E9
:10377000D880145401E2176B175100D01200D9CF32
:10378000E6FFE1CFD9FFFE0EDB5005082DE1FB0E71
:10379000DBCFE9FFFC0EDBCFEAFFEF500F0B090890
:1037A00012E1FD0EDBCFE6FF0A0EE66ECDEC3EF039
:1037B000E552E552FB0EDBCFE9FFFC0EDBCFEAFF63
:1037C0000A0EEF6E11D0FD0EDBCFE6FF0B0EE66E9C
:1037D000CDEC3EF0E552E552FB0EDBCFE9FFFC0EEF
:1037E000DBCFEAFF090EEF6EE552E7CFD9FF1200FB
:1037F000D9CFE6FFE1CFD9FF020EE12655EC4AF022
:10380000F3CFDEFFF4CFDDFFA1EC4BF0010804E1C4
:103810000E01040E146F33D0DECF14F0DDCF15F09F
:10382000ED0E145C020E155807E3040E0E01145D34
:1038300003E3040E146F23D0DECF14F0DDCF15F0B8
:10384000D00E145C020E155807E3030E0E01145D32
:1038500003E3030E146F13D0DECF14F0DDCF15F0A9
:10386000C30E145C020E155807E3020E0E01145D20
:1038700003E3020E146F03D00E01010E146F1451F6
:10388000146E020EE15C03E200D0E16AE552E16EE3
:103890001450E552E7CFD9FF1200D9CFE6FFE1CFB0
:1038A000D9FF0E01160518E1166B010E1E6F48ECCC
:1038B0004BF00E011F6FFA0EDBCFE9FFFB0EDBCFE3
:1038C000EAFFEFCF20FEF60EDBCFE9FFF70EDBCFEE
:1038D000EAFF010EEF6E216BFD0EDB5007084EE193
:1038E000FA0EDBCFE9FFFB0EDBCFEAFFEF50170844
:1038F00045E0FA0EDBCFE9FFFB0EDBCFEAFF070E58
:10390000EF6EFC0EDBCFE6FF0C0EE66ECDEC3EF06C
:10391000E552E552F80EDBCFE9FFF90EDBCFEAFF07
:10392000EF500F0B0A0811E1F80EDBCFE9FFF90E9B
:10393000DBCFEAFF090EEF6EFC0EDBCFE6FF0B0ECE
:10394000E66ECDEC3EF0E552E5520E01010E1E6F23
:1039500048EC4BF00E011F6FFA0EDBCFE9FFFB0EB8
:10396000DBCFEAFFEFCF20FEF60EDBCFE9FFF70E4D
:10397000DBCFEAFF010EEF6E216BE2D2FD0EDB50D2
:1039800008084EE1FA0EDBCFE9FFFB0EDBCFEAFFC2
:10399000EF50170845E0FA0EDBCFE9FFFB0EDBCF57
:1039A000EAFF080EEF6EFC0EDBCFE6FF070EE66EB9
:1039B000CDEC3EF0E552E552F80EDBCFE9FFF90E13
:1039C000DBCFEAFFEF500F0B0A0811E1F80EDBCF57
:1039D000E9FFF90EDBCFEAFF090EEF6EFC0EDBCF3D
:1039E000E6FF0B0EE66ECDEC3EF0E552E5520E0121
:1039F000010E1E6F48EC4BF00E011F6FFA0EDBCF6D
:103A0000E9FFFB0EDBCFEAFFEFCF20FEF60EDBCFA8
:103A1000E9FFF70EDBCFEAFF010EEF6E216B90D2CC
:103A2000FA0EDBCFE9FFFB0EDBCFEAFFEF50070812
:103A30005BE1C6EC4CF0000957E1FA0EDBCFE9FF81
:103A4000FB0EDBCFEAFFEF5017084EE0FA0EDBCF9C
:103A5000E9FFFB0EDBCFEAFF050EEF6EFC0EDBCFBE
:103A6000E6FF080EE66ECDEC3EF0E552E552FC0EA8
:103A7000DBCFE6FF15CEE6FFCDEC3EF0E552E5529A
:103A8000F80EDBCFE9FFF90EDBCFEAFFEF500F0BAB
:103A90000A0811E1F80EDBCFE9FFF90EDBCFEAFFF0
:103AA000090EEF6EFC0EDBCFE6FF0B0EE66ECDECE3
:103AB0003EF0E552E5520E01010E1E6F48EC4BF050
:103AC0000E011F6FFA0EDBCFE9FFFB0EDBCFEAFF23
:103AD000EFCF20FEF60EDBCFE9FFF70EDBCFEAFFDC
:103AE000010EEF6E216B2CD2FA0EDBCFE9FFFB0E3D
:103AF000DBCFEAFFEF5008085BE1C9EC4CF00009AE
:103B000057E1FA0EDBCFE9FFFB0EDBCFEAFFEF5008
:103B100017084EE0FA0EDBCFE9FFFB0EDBCFEAFF22
:103B2000050EEF6EFC0EDBCFE6FF080EE66ECDEC69
:103B30003EF0E552E552FC0EDBCFE6FF15CEE6FF88
:103B4000CDEC3EF0E552E552F80EDBCFE9FFF90E81
:103B5000DBCFEAFFEF500F0B0A0811E1F80EDBCFC5
:103B6000E9FFF90EDBCFEAFF090EEF6EFC0EDBCFAB
:103B7000E6FF0B0EE66ECDEC3EF0E552E5520E018F
:103B8000010E1E6F48EC4BF00E011F6FFA0EDBCFDB
:103B9000E9FFFB0EDBCFEAFFEFCF20FEF60EDBCF17
:103BA000E9FFF70EDBCFEAFF010EEF6E216BC8D104
:103BB000FE0EDB50080827E10E011E5113E1010E35
:103BC0001E6FFA0EDBCFE9FFFB0EDBCFEAFFEFCF74
:103BD00020FE010E216FF60EDBCFE9FFF70EDBCFE3
:103BE000EAFFEF6A05DEE66EFA0EDBCFE9FFFB0EB9
:103BF000DBCFEAFFE552E750EF6E030EE66E99DD8C
:103C0000E5529ED19DD1FE0EDB5002080FE0A1ECE3
:103C10004BF0010801E0C1D0FA0EDBCFE9FFFB0E4B
:103C2000DBCFEAFFEF50060801E0B7D00E011E051A
:103C300001E09BD0FA0EDBCFE9FFFB0EDBCFEAFF02
:103C4000EF50170801E191D0FA0EDBCFE9FFFB0E30
:103C5000DBCFEAFFEF50050830E1A1EC4BF00009A3
:103C600009E1FA0EDBCFE9FFFB0EDBCFEAFF060E20
:103C7000EF6E22D0C9EC4CF0010809E1FA0EDBCF5F
:103C8000E9FFFB0EDBCFEAFF080EEF6E15D0C6ECA6
:103C90004CF0010809E1FA0EDBCFE9FFFB0EDBCFA8
:103CA000EAFF070EEF6E08D0FA0EDBCFE9FFFB0E3E
:103CB000DBCFEAFF050EEF6E53D0FA0EDBCFE9FF44
:103CC000FB0EDBCFEAFFEF50060823E1C9EC4CF016
:103CD000010809E1FA0EDBCFE9FFFB0EDBCFEAFFBB
:103CE000080EEF6E15D0C6EC4CF0010809E1FA0E93
:103CF000DBCFE9FFFB0EDBCFEAFF070EEF6E08D04C
:103D0000FA0EDBCFE9FFFB0EDBCFEAFF050EEF6E0D
:103D100027D0FA0EDBCFE9FFFB0EDBCFEAFFEF5037
:103D2000080816E1C6EC4CF0010809E1FA0EDBCFF9
:103D3000E9FFFB0EDBCFEAFF070EEF6E08D0FA0EAD
:103D4000DBCFE9FFFB0EDBCFEAFF050EEF6E08D0FD
:103D5000FA0EDBCFE9FFFB0EDBCFEAFF050EEF6EBD
:103D600048EC4BF00E011F6F17D0010E1E6F48EC90
:103D70004BF00E011F6FFA0EDBCFE9FFFB0EDBCF1E
:103D8000EAFFEFCF20FEF60EDBCFE9FFF70EDBCF29
:103D9000EAFF010EEF6E216BD3D00E011E0501E08C
:103DA000CFD0030EE66EC5DCE5521FCEE6FF4CEC2D
:103DB0004BF0E5521C0804E30E01210501E0C0D0E0
:103DC000FA0EDBCFE9FFFB0EDBCFEAFFEF5018085E
:103DD00023E0FA0EDBCFE9FFFB0EDBCFEAFFEF04B7
:103DE0001BE0FA0EDBCFE9FFFB0EDBCFEAFFEF5063
:103DF000020812E0FA0EDBCFE9FFFB0EDBCFEAFF91
:103E0000EF50030809E0FA0EDBCFE9FFFB0EDBCF32
:103E1000EAFFEF50040808E1FA0EDBCFE9FFFB0EE2
:103E2000DBCFEAFF20CEEFFFFA0EDBCFE9FFFB0E80
:103E3000DBCFEAFFEF500E01205D01E178D0FA0EF2
:103E4000DBCFE9FFFB0EDBCFEAFFEF5017086FE097
:103E5000FA0EDBCFE9FFFB0EDBCFEAFFEF500508E0
:103E600013E1FC0EDBCFE6FF080EE66ECDEC3EF074
:103E7000E552E552FC0EDBCFE6FF15CEE6FFCDECBA
:103E80003EF0E552E55238D0FA0EDBCFE9FFFB0EEB
:103E9000DBCFEAFFEF5006080AE1FC0EDBCFE6FFBE
:103EA000090EE66ECDEC3EF0E552E55225D0FA0E55
:103EB000DBCFE9FFFB0EDBCFEAFFEF5007080AE19B
:103EC000FC0EDBCFE6FF0C0EE66ECDEC3EF0E552CD
:103ED000E55212D0FA0EDBCFE9FFFB0EDBCFEAFF93
:103EE000EF50080809E1FC0EDBCFE6FF070EE66E97
:103EF000CDEC3EF0E552E552F80EDBCFE9FFF90ECE
:103F0000DBCFEAFFEF500F0B0A0811E1F80EDBCF11
:103F1000E9FFF90EDBCFEAFF090EEF6EFC0EDBCFF7
:103F2000E6FF0B0EE66ECDEC3EF0E552E552F60EE6
:103F3000DBCFE9FFF70EDBCFEAFFEF6A0E011E6B66
:103F4000E552E7CFD9FF1200D9CFE6FFE1CFD9FF85
:103F5000FC0EDBCFE9FFFD0EDBCFEAFFEF500F0BCE
:103F60000A0801E151D0F90EDB500B0809E1FA0E05
:103F7000DB50050804E0FA0EDB50070801E144D0ED
:103F80000E010C0501E140D0FE0EDB50030811E1EB
:103F9000FC0EDBCFE9FFFD0EDBCFEAFFEF88FB0E67
:103FA000DBCFE6FF050EE66ECDEC3EF0E552E552C6
:103FB0002BD0FE0EDB50040811E1FC0EDBCFE9FF35
:103FC000FD0EDBCFEAFFEF88FB0EDBCFE6FF060E30
:103FD000E66ECDEC3EF0E552E55216D0C5EC3BF076
:103FE000010808E1FC0EDBCFE9FFFD0EDBCFEAFFA5
:103FF000EF8A0AD00F0E146EFC0EDBCFE9FFFD0E28
:10400000DBCFEAFF1450EF16E552E7CFD9FF1200DD
:10401000D9CFE6FFE1CFD9FFE652DF6AFD0EDB0420
:1040200003E1010EDF6E0FD0FE0EDB0403E1020E92
:10403000DF6E09D0A1EC4BF0010803E1030EDF6E47
:1040400002D0040EDF6EDF500E010A5D0BE0DFCF01
:104050000AFEFC0EDBCFE6FF0ACEE6FFD9EC44F009
:10406000E552E552E552E552E7CFD9FF1200D9CF2C
:10407000E6FFE1CFD9FF99EC4BF0010841E19DEC5F
:104080004BF0010809E1FD0EDBCFE9FFFE0EDBCFAF
:10409000EAFF140EEF6E33D0A1EC4BF0010809E1FA
:1040A000FD0EDBCFE9FFFE0EDBCFEAFF150EEF6E54
:1040B00026D0FD0EDBCFE9FFFE0EDBCFEAFFEF508F
:1040C000110801E11CD055EC4AF0F3CF14F0F4CF05
:1040D00015F0A50E145C020E155809E2FD0EDBCF9B
:1040E000E9FFFE0EDBCFEAFF110EEF6E08D0FD0EEA
:1040F000DBCFE9FFFE0EDBCFEAFF100EEF6E22D022
:104100009DEC4BF0010809E1FD0EDBCFE9FFFE0E4F
:10411000DBCFEAFF120EEF6E15D0A1EC4BF00108D9
:1041200009E1FD0EDBCFE9FFFE0EDBCFEAFF130E48
:10413000EF6E08D0FD0EDBCFE9FFFE0EDBCFEAFF0E
:10414000160EEF6EE552E7CFD9FF1200D9CFE6FF8A
:10415000E1CFD9FFF70EDBCFE9FFF80EDBCFEAFFA7
:10416000EF50170802E128D127D10E010C0501E01C
:104170007ED0C5EC3BF0010809E1FC0EDBCFE9FF86
:10418000FD0EDBCFEAFF0F0EEF6E70D00DCEE6FF17
:104190004CEC4BF0E552146E156A153404E21450E1
:1041A000C808000E15545AE20E010C6BFC0EDBCF52
:1041B000E9FFFD0EDBCFEAFFEF6AFB0EDBCFE6FF88
:1041C000040EE66ECDEC3EF0E552E552F90EDBCF83
:1041D000E9FFFA0EDBCFEAFFEF500F0B0A0811E1FF
:1041E000F90EDBCFE9FFFA0EDBCFEAFF090EEF6E27
:1041F000FB0EDBCFE6FF0B0EE66ECDEC3EF0E5529C
:10420000E552F70EDBCFE9FFF80EDBCFEAFF050E34
:10421000EF6EFB0EDBCFE6FF080EE66ECDEC3EF058
:10422000E552E552FB0EDBCFE6FF150EE66ECDEC58
:104230003EF0E552E552FB0EDBCFE6FF0D0EE66EDB
:10424000CDEC3EF0E552E552FB0EDBCFE6FF15CE9E
:10425000E6FFCDEC3EF0E552E55208D0FC0EDBCF98
:10426000E9FFFD0EDBCFEAFF22CEEFFFA5D0FE0E69
:10427000DB0431E1FC0EDBCFE9FFFD0EDBCFEAFF13
:10428000EF500C0809E1FC0EDBCFE9FFFD0EDBCFA0
:10429000EAFF0D0EEF6E1AD0FC0EDBCFE9FFFD0E2C
:1042A000DBCFEAFFEF500D0809E1FC0EDBCFE9FFA1
:1042B000FD0EDBCFEAFF0E0EEF6E08D0FC0EDBCF5B
:1042C000E9FFFD0EDBCFEAFF0C0EEF6E48EC4BF082
:1042D0000E010D6F71D0FC0EDBCFE9FFFD0EDBCFC1
:1042E000EAFFEF500C0812E0FC0EDBCFE9FFFD0EF9
:1042F000DBCFEAFFEF500D0809E0FC0EDBCFE9FF52
:10430000FD0EDBCFEAFFEF500E0856E10DCEE6FFC3
:104310004CEC4BF0E5521E084FE2FB0EDBCFE6FF04
:104320000E0EE66ECDEC3EF0E552E552FC0EDBCF14
:10433000E9FFFD0EDBCFEAFFEF500C080AE1FB0EB0
:10434000DBCFE6FF010EE66ECDEC3EF0E552E55226
:1043500025D0FC0EDBCFE9FFFD0EDBCFEAFFEF50EF
:104360000D080AE1FB0EDBCFE6FF020EE66ECDEC98
:104370003EF0E552E55212D0FC0EDBCFE9FFFD0E18
:10438000DBCFEAFFEF500E0809E1FB0EDBCFE6FFC3
:10439000030EE66ECDEC3EF0E552E552FC0EDBCFAF
:1043A000E9FFFD0EDBCFEAFFEFCF22FE48EC4BF03A
:1043B0000E010D6F010E0C6FE552E7CFD9FF120011
:1043C000D9CFE6FFE1CFD9FF0E011A0503E11A0E9E
:1043D00004D003D0FE0EDB5000D0E552E7CFD9FF6A
:1043E0001200D9CFE6FFE1CFD9FF040EE1260A0E75
:1043F000DF6EDE52340EDD6E150EF36E020EF3CF5D
:10440000DBFF010EF36E030EF3CFDBFFD950010F7C
:10441000E66E000EDA20E66ED9CFE6FFDACFE6FFD1
:104420001B0EE66E0E0EE66E090EE66E0E0EE66EC4
:10443000D950020FE66E000EDA20E66E02EC45F06F
:10444000146E0A0EE15E145001081CE1FE0EDBCF73
:10445000E6FF020EDBCFE6FF030EDBCFE6FFE0EC6C
:104460004AF0E552E552E552010EDBCFE6FFDFCF21
:10447000E6FFE66A34EC46F0E552E552E5520E01FD
:104480001A6B1BD0FE0EDBCFE6FF020EDBCFE6FF82
:10449000030EDBCFE6FFE0EC4AF0E552E552E552D1
:1044A000340EE66E0A0EE66EE66A34EC46F0E5522D
:1044B000E552E5520E01010E1A6F31EC47F0F2920F
:1044C000F288E66A29EC46F0E55248EC4BF00E0122
:1044D0000F6F040EE15C02E2E16AE552E16EE55223
:1044E000E7CFD9FF1200D9CFE6FFE1CFD9FFFD0E0C
:1044F000DB98DB9ADB9CDB9E25EC46F0010865E14E
:104500000E0123512CE1FE0EDB50050811E1FD0EDA
:10451000DB500A080DE099EC4BF0010809E1FC0EB4
:10452000DBCFE6FF0F0EE66ECDEC3EF0E552E55236
:104530000E01010E236F48EC4BF00E01106F22ECC0
:1045400047F0020B0BE0FC0EDBCFE6FF020EE66E3F
:10455000E66E4AEC33F0E552E552E55236D02305DB
:1045600034E110CEE6FF4CEC4BF0E5520F082DE2A3
:10457000FE0EDB50050811E1FD0EDB500A080DE0D0
:1045800099EC4BF0010809E1FC0EDBCFE6FF0B0EC6
:10459000E66ECDEC3EF0E552E55231EC47F0F2929A
:1045A000F288E66A29EC46F0E5520E01236B22EC14
:1045B00047F0020B0AE0FC0EDBCFE6FFE66AE66A94
:1045C0004AEC33F0E552E552E552E552E7CFD9FF28
:1045D0001200D9CFE6FFE1CFD9FFE65248EC4BF00D
:1045E000DF6E48EC4BF0DF6EDFCFE6FF4CEC4BF0BC
:1045F000E552000901E1F8D7FE0EDBCFE6FF040E1D
:10460000E66EA1EC33F0E552E552DFCFE6FF4CEC6D
:104610004BF0E552146E050E145C01E2F6D7FE0E67
:10462000DBCFE6FF020EE66EA1EC33F0E552E55279
:10463000DFCFE6FF4CEC4BF0E552146E0A0E145C33
:1046400001E2F6D7FE0EDBCFE6FF010EE66EA1EC2F
:1046500033F0E552E552DFCFE6FF4CEC4BF0E5528C
:10466000146E0F0E145C01E2F6D7FE0EDBCFE6FFF0
:10467000E66AA1EC33F0E552E552E552E552E7CFA8
:10468000D9FF1200D9CFE6FFE1CFD9FF090EE1260D
:10469000ABEC1BF0DF6EA1EC4BF0E76E010EE7CF49
:1046A000DBFF0E0125050AE1FC0EDBCFE6FFA5ECE2
:1046B0004BF0E5520E01256F59EF27F048EC4BF017
:1046C0000E01245D01E1B5D3F1EC08F0E76E020EB6
:1046D000E7CFDBFF020EDB500AE10E011B0507E10D
:1046E0000C0EF36E020EF3CFDBFF0E011B6B48ECDA
:1046F0004BF00E01246FFC0EDBCFE6FFA5EC4BF078
:10470000E552010804E0020EDB5001E192D348ECCF
:104710004BF0E76E030EE7CFDBFF79EC47F0E76E77
:10472000040EE7CFDBFF010EF36E050EF3CFDBFFC8
:10473000060EDB6A030EDB50E76E070EE7CFDBFFEA
:10474000080EDB6A030EDBCFE6FF4CEC4BF0E552C4
:10475000146E0F0E145C5DE2050EDB045AE1FC0ED4
:10476000DBCFE6FFE66AA1EC33F0E552E552FC0E42
:10477000DBCFE6FFA5EC4BF0E552E76E050EE7CF89
:10478000DBFF79EC47F0146E040EDBCFE7FF14502B
:10479000E716040EE7CFDBFF0AEC08F0010EE66E29
:1047A0000E0EE66E0E0EE66E0E0EE66E020EE66E55
:1047B0000E0EE66E000EE66E0E0EE66E8AEC19F038
:1047C000146E080EE15E145048EC4BF0F36E070EC9
:1047D000DB50F35C17E1010EE66E0E0EE66E0E0E78
:1047E000E66E0E0EE66E020EE66E0E0EE66E000E23
:1047F000E66E0E0EE66E8AEC19F0146E080EE15E9F
:104800001450E2D748EC4BF0E76E070EE7CFDBFF22
:1048100099D7030EDBCFE6FF4CEC4BF0E552146E5C
:104820000F0E145C03E3050EDB0404E0020EDB5004
:1048300001E1FFD299EC4BF0010803E1020EDB50DD
:1048400004E0020EDB500B0850E10E01166BFC0E6B
:10485000DBCFE6FF0E0EE66ECDEC3EF0E552E55204
:10486000FC0EDBCFE6FF010EE66EA1EC33F0E55265
:10487000E55248EC4BF0E76E030EE7CFDBFF030E8B
:10488000DBCFE6FF4CEC4BF0E552146E1E0E145CD1
:1048900019E20AEC08F0010EE66E0E0EE66E0E0E40
:1048A000E66E0E0EE66E020EE66E0E0EE66E000E62
:1048B000E66E0E0EE66E8AEC19F0146E080EE15EDE
:1048C0001450DDD795EC4BF0FC0EDBCFE6FFE66A2B
:1048D000A1EC33F0E552E552FC0EDBCFE6FFA5EC90
:1048E0004BF0E5520E01256FA4D290EC4BF0FC0E7C
:1048F000DBCFE6FF040EE66EA1EC33F0E552E552A5
:104900000E01010E166FFD0EDBCFE9FFFE0EDBCFB1
:10491000EAFF050EEF6E0E01100E156FFC0EDBCFD9
:10492000E6FF080EE66ECDEC3EF0E552E552F80EDD
:10493000DBCFE9FFF90EDBCFEAFF090EEF6EFC0ECD
:10494000DBCFE6FF0B0EE66ECDEC3EF0E552E55216
:10495000FC0EDBCFE6FF15CEE6FFCDEC3EF0E552D8
:10496000E552FC0EDBCFE6FF0D0EE66ECDEC3EF021
:10497000E552E552040EDB50040804E0020EDB5061
:10498000070875E1030EDBCFE6FF4CEC4BF0E55278
:10499000146E640E145C38E2040EDB50040834E13B
:1049A00079EC47F0146E040EDBCFE7FF1450E716E6
:1049B000040EE7CFDBFF0AEC08F0010EE66E0E0EE8
:1049C000E66E0E0EE66E0E0EE66E020EE66E0E0E33
:1049D000E66E000EE66E0E0EE66E8AEC19F0146EB0
:1049E000080EE15E1450030EDBCFE6FF4CEC4BF0FB
:1049F000E5522D0808E2FC0EDBCFE6FFE66AA1ECEB
:104A000033F0E552E552BED7030EDBCFE6FF4CECA8
:104A10004BF0E552146E640E145C04E3040EDB509C
:104A2000040804E0020EDB50070820E1FA0EDBCF99
:104A3000E9FFFB0EDBCFEAFF0B0EEF6E010EE66E19
:104A4000C6EC45F0E552FC0EDBCFE6FFC2DDE552D9
:104A5000FC0EDBCFE6FF130EE66ECDEC3EF0E5522A
:104A6000E552010EF36E060EF3CFDBFF24D1040EE8
:104A7000DB50030805E0020EDB500A0801E07DD0A0
:104A8000FC0EDBCFE6FF150EE66ECDEC3EF0E552F8
:104A9000E552030EDBCFE6FF4CEC4BF0E552146E13
:104AA000640E145C38E2040EDB50030834E179EC48
:104AB00047F0146E040EDBCFE7FF1450E716040E28
:104AC000E7CFDBFF0AEC08F0010EE66E0E0EE66E95
:104AD0000E0EE66E0E0EE66E020EE66E0E0EE66E22
:104AE000000EE66E0E0EE66E8AEC19F0146E080EDD
:104AF000E15E1450030EDBCFE6FF4CEC4BF0E552C9
:104B00002D0808E2FC0EDBCFE6FFE66AA1EC33F0ED
:104B1000E552E552BED7030EDBCFE6FF4CEC4BF07F
:104B2000E552146E640E145C04E3040EDB500308BB
:104B300004E0020EDB500A081FE1FA0EDBCFE9FFAA
:104B4000FB0EDBCFEAFF190EEF6EE66AC6EC45F00E
:104B5000E552FC0EDBCFE6FF3CDDE552FC0EDBCF81
:104B6000E6FF140EE66ECDEC3EF0E552E552010E86
:104B7000F36E060EF3CFDBFF9ED0040EDB5005086C
:104B800005E0020EDB50090801E095D0FC0EDBCFFA
:104B9000E6FF150EE66ECDEC3EF0E552E552030E53
:104BA000DBCFE6FF4CEC4BF0E552146E640E145C68
:104BB00038E2040EDB50050834E179EC47F0146E5E
:104BC000040EDBCFE7FF1450E716040EE7CFDBFF40
:104BD0000AEC08F0010EE66E0E0EE66E0E0EE66EA4
:104BE0000E0EE66E020EE66E0E0EE66E000EE66E1F
:104BF0000E0EE66E8AEC19F0146E080EE15E14508B
:104C0000030EDBCFE6FF4CEC4BF0E5522D0808E23B
:104C1000FC0EDBCFE6FFE66AA1EC33F0E552E5528D
:104C2000BED7030EDBCFE6FF4CEC4BF0E552146E23
:104C3000640E145C04E3040EDB50050804E0020E6D
:104C4000DB50090838E1FD0EDBCFE9FFFE0EDBCFBC
:104C5000EAFF170EEF6EFC0EDBCFE6FFBADCE55283
:104C6000FC0EDBCFE6FF120EE66ECDEC3EF0E55219
:104C7000E552FA0EDBCFE9FFFB0EDBCFEAFF190EA0
:104C8000EF6EFC0EDBCFE6FF140EE66ECDEC3EF0D1
:104C9000E552E5520E01110E156FFC0EDBCFE6FF5B
:104CA00015CEE6FFCDEC3EF0E552E552010EF36E77
:104CB000060EF3CFDBFF060EDB5050E1E8EC45F0CB
:104CC000010812E1FA0EDBCFE9FFFB0EDBCFEAFFB2
:104CD0000B0EEF6EFC0EDBCFE6FF130EE66ECDEC97
:104CE0003EF0E552E55209D0FC0EDBCFE6FF150E93
:104CF000E66ECDEC3EF0E552E55248EC4BF0E76E47
:104D0000030EE7CFDBFF030EDBCFE6FF4CEC4BF0EF
:104D1000E552146E1E0E145C19E20AEC08F0010E46
:104D2000E66E0E0EE66E0E0EE66E0E0EE66E020ECF
:104D3000E66E0E0EE66E000EE66E0E0EE66E8AEC67
:104D400019F0146E080EE15E1450DDD7FC0EDBCFB7
:104D5000E6FFE66AA1EC33F0E552E55279EC47F064
:104D6000E76E040EE7CFDBFF070EE66E0E0EE66E73
:104D700037EC20F0E552E552040EDB50030808E062
:104D8000040EDB50040804E0040EDB50050849E182
:104D90000AEC08F0010EE66E0E0EE66E0E0EE66EE2
:104DA0000E0EE66E020EE66E0E0EE66E000EE66E5D
:104DB0000E0EE66E8AEC19F0146E080EE15E1450C9
:104DC000FA0EDBCFE9FFFB0EDBCFEAFFEF50E66E1A
:104DD000F8EC1BF0E66E11CEE6FF0BCEE6FFFC0E04
:104DE000DBCFE6FF07CEE6FFF80EDBCFE9FFF90EDB
:104DF000DBCFEAFFEF50E66EFD0EDBCFE9FFFE0EE4
:104E0000DBCFEAFFEF50E66E19EC37F0146E080EB8
:104E1000E15E145079EC47F0E76E040EE7CFDBFF5C
:104E2000ABD7FC0EDBCFE6FFA5EC4BF0E5520E0155
:104E3000256F010EDB5018E1FD0EDBCFE9FFFE0E02
:104E4000DBCFEAFFEF5006080FE0DF500DE1FAEC90
:104E50004AF0FC0ED3140309D36E65B665920300C5
:104E6000FC0ED3140009D36EFC0EDBCFE6FF04CE9C
:104E7000E6FFFD0EDBCFE9FFFE0EDBCFEAFFEF50D2
:104E8000E66E73EC22F0E552E552E552010EDB507E
:104E900010E1FD0EDBCFE9FFFE0EDBCFEAFFEF50A6
:104EA000060807E0DF5005E165B603D0658270ECC7
:104EB00008F0090EE15C02E2E16AE552E16EE552BA
:104EC000E7CFD9FF1200D9CFE6FFE1CFD9FFE652F5
:104ED000FE0EDB50050804E1ABEC1BF0010805E118
:104EE00048EC4BF00E010F6F61D00FCEE6FF4CEC9B
:104EF0004BF0E55202085AE2FD0EDB5057E1FE0E80
:104F0000DB50050853E1E6EC46F0DF6EDF504EE083
:104F100048EC4BF00E010F6FDF50155D46E0262B7D
:104F20002651030841E2FE0EDB50050839E1100E60
:104F3000DF5C1AE1FD0EDBCFE6FF100EE66ECDEC76
:104F40003EF0E552E55222EC47F0010B0CE0FD0E7D
:104F5000DBCFE6FF020EE66E010EE66E4AEC33F0A2
:104F6000E552E552E5521CD0110EDF5C19E1FD0E51
:104F7000DBCFE6FF110EE66ECDEC3EF0E552E552DA
:104F800022EC47F0010B0CE0FD0EDBCFE6FF040E38
:104F9000E66E010EE66E4AEC33F0E552E552E5525C
:104FA0000E01266BDFCF15FE01D0266BE552E552D0
:104FB000E7CFD9FF1200D9CFE6FFE1CFD9FF040E2A
:104FC000E1260E011B5162E0DF6A010EDB6A020E70
:104FD000DB6ADBCFE6FFD950010FE66E000EDA2068
:104FE000E66ED9CFE6FFDACFE6FF1AEC44F0146E96
:104FF000050EE15E1450010EDB0441E1030EDB6A95
:10500000010EF36E020EF3CFDBFF020EDB0437E17D
:105010000AEC08F0010EE66E0E0EE66ED950020F95
:10502000E66E000EDA20E66E020EE66E0E0EE66EFC
:10503000000EE66E0E0EE66E8AEC19F0146E080E87
:10504000E15E145005CEE6FFF8EC1BF0E66E11CEE3
:10505000E6FF0BCEE6FF020EDBCFE6FF07CEE6FF54
:1050600004CEE6FF03CEE6FFE0EC21F0E552E66E6B
:1050700019EC37F0146E080EE15E1450C6D7010E1D
:105080000E011B17E66AD7EC45F0E552040EE15C11
:1050900002E2E16AE552E16EE552E7CFD9FF120084
:1050A000D9CFE6FFE1CFD9FF070EE126DF6A010E77
:1050B000DB6A020EDB6A030EDB6A040EDB6A050E96
:1050C000DB6A060EDB6AE7EC1AF040EC4BF070ECA2
:1050D00008F011EC1BF073EC41F0E66A72EC4AF058
:1050E000E552F00EE66EB3EC43F0E5521EEC33F001
:1050F000BFEC3BF0C5EC4CF005EC4AF037EC47F068
:1051000028EC1BF06CEC37F00ECEE6FF7FEC4BF09A
:10511000E5520ECEE6FFF1EC21F0E55207EC08F087
:105120004ADF0AEC08F0010EE66E0E0EE66E0E0E79
:10513000E66E0E0EE66E020EE66E0E0EE66E000EC9
:10514000E66E0E0EE66E8AEC19F0146E080EE15E45
:1051500014500E01015101E0C8D00ECEE6FFB4ECB0
:105160004BF0E552040EE66E0E0EE66E050EE66E90
:105170000E0EE66E0ECEE6FF030EE66E0E0EE66E29
:1051800042EC23F0146E070EE15E1450070EE66E3B
:105190000E0EE66E37EC20F0E552E5520ECEE6FF3D
:1051A00002CEE6FF00CEE6FF08EC20F0E552E55225
:1051B000E55299EC4BF0010801E07CD00ECEE6FF01
:1051C00003CEE6FF80DEE552E552030EDBCFE6FFBD
:1051D000D950020FE66E000EDA20E66ED950010FAC
:1051E000E66E000EDA20E66E0E0EE66E0E0EE66E2F
:1051F000130EE66E0E0EE66EA1EC47F0146E090E6D
:10520000E15E1450060EE66E0E0EE66ECCEC4CF02F
:10521000E552E552040EE66E0E0EE66E0ECEE6FF89
:1052200013CEE6FFBFEC1BF0E552E552E552E55226
:10523000110EE66E0E0EE66E040EE66E0E0EE66EB5
:10524000030EE66E0E0EE66E0ECEE6FF06CEE6FF0F
:1052500013CEE6FF4DEC1CF0146E090EE15E145007
:1052600005CEE6FF03CEE6FF0ECEE6FF040EE66EA9
:105270000E0EE66E13CEE6FFA4EC1FF0146E060EC3
:10528000E15E145005CEE6FF030EE66E0E0EE66EEE
:10529000040EE66E0E0EE66E0ECEE6FF0B0EE66E0A
:1052A0000E0EE66E13CEE6FFA6EC20F0146E090E8D
:1052B000E15E145005CEE6FFF8EC1BF0E66E11CE71
:1052C000E6FF0BCEE6FF0ECEE6FF07CEE6FF04CEEE
:1052D000E6FF03CEE6FFE0EC21F0E552E66E19ECC6
:1052E00037F0146E080EE15E14501BD7070EE15C18
:1052F00002E2E16AE552E16EE552E7CFD9FF120022
:10530000D9CFE6FFE1CFD9FFE652A098636A626A7F
:105310000F01266B010EE66EE66AE66A270EE66E60
:105320000F0EE66E06EC4DF0146E050EE15E1450A5
:105330000F01160E396F9F0E376F7B0E366FDF6AC7
:10534000DF50146E156A080E145C000E155810E23A
:10535000DF50040DF3CFE9FFF4CFEAFF000EE9269A
:10536000040EEA22EE6AEE6AEE6AEE6ADF2AE8D7F7
:10537000658C0F01386B6598659C62A607D06296B4
:105380000001DF6BE46BE56BE66BF7D70001010E04
:10539000F66FF76FF86BF96BEC6BDF6A020EDF5C90
:1053A00026E2EA6ADF34FE0BEA36E96ED70EE9261A
:1053B000000EEA22EE6AED6AEA6ADF34FE0BEA3694
:1053C000E96ED30EE926000EEA22EE6AED6ADF509E
:1053D000EA6AF00FE96E000EEA22EF6ADF50EA6A2D
:1053E000F20FE96E000EEA22EF6ADF2AD7D700013A
:1053F000080ED76F040ED86F0F01160E266F04012A
:10540000200E026F040E036F400E016F840E006FBA
:105410000001CD6BCC6BE552E552E7CFD9FF12000E
:10542000D9CFE6FFE1CFD9FFE6520001CC0509E173
:1054300065BA07D0626A0F01368136890001020E13
:10544000CC6F6250040B07E00F013651040B03E0F0
:10545000629432EC30F065A202D0A1989DD06250E7
:10546000010B0AE00F013651010B06E049DFA0886D
:105470000001040ECC6F62906250100B07E00F0128
:105480003651100B03E01CEC30F0629862AC1AD07D
:105490000F0136AD0FD0010EE66EE66A000EE66E25
:1054A000E66A730EE66EE66A70EC49F0146E060E5C
:1054B000E15E1450629C0001F45101E0F407F451E4
:1054C00001E110DA6250200B06E00F013651200B8B
:1054D00002E002EC30F06250020B14E00F01365192
:1054E000020B10E0010EE66EE66A000EE66EE66A5A
:1054F000E6687F0EE66E70EC49F0146E060EE15E13
:105500001450636A040E0001E76ECC19E8AE02D0B5
:10551000E73402D0E750CC5D02E2A1983DD00F0104
:1055200036A739D0DF6A040EDF5C35E262A632D0DE
:1055300064CFEDF00001ED51780BE842E842E8421B
:10554000EE6F6296EDB508D0EE51EA6AF20FE96EA1
:10555000000EEA22EF7007D0EE51EA6AF00FE96E12
:10556000000EEA22EF70EE5103E14AEC30F010D069
:10557000000EE66EE66AED0EE66E000EE66E720E48
:10558000E66EE66A70EC49F0146E060EE15E1450A9
:10559000DF2AC9D700D0A198E552E552E7CFD9FF5D
:1055A0001200D9CFE6FFE1CFD9FF020EE126FD0EB2
:1055B000DBA407D0E66AFE0EDBCFE6FF24DAE55275
:1055C000E552FD0EDBA208D0010EE66EFE0EDBCF2B
:1055D000E6FF19DAE552E552FE0EDB50156A260F9A
:1055E000146E0F0E152214C0DEFF15C0DDFFDECFD6
:1055F000E9FFDDCFEAFFFD0EDBCFEFFF020EE15C3E
:1056000002E2E16AE552E16EE552E7CFD9FF12000E
:10561000D9CFE6FFE1CFD9FF020EE126FD0EDB5028
:105620000FE0FE0EEA6ADB34FE0BEA36E96ED70EB7
:10563000E926000EEA22EECFDEFFEDCFDDFF0ED031
:10564000FE0EEA6ADB34FE0BEA36E96ED30EE9267B
:10565000000EEA22EECFDEFFEDCFDDFFD9CFE9FF6E
:10566000DACFEAFFEE50ED1003E1F36AF46A49D0B5
:10567000DECFE9FFDDCFEAFF020EE926000EEA22C7
:10568000FB0EDBCFEEFFFC0EDBCFEDFFDECFE9FF45
:10569000DDCFEAFFEE52FA0EDBCFEFFF400E146EC5
:1056A000DECFE9FFDDCFEAFF1450EF16880E146E4F
:1056B000DECFE9FFDDCFEAFF1450EF12FD0EDB5025
:1056C0000CE0FE0EEA6ADB34FE0BEA36E96ED70E1A
:1056D000E926000EEA22EF740BD0FE0EEA6ADB34F4
:1056E000FE0BEA36E96ED30EE926000EEA22EF74CD
:1056F000DECF14F0DDCF15F014C0F3FF15C0F4FFBA
:1057000000D0020EE15C02E2E16AE552E16EE55290
:10571000E7CFD9FF1200D9CFE6FFE1CFD9FF020EC4
:10572000E126FE0EDB5020E1D1C0E9FFD2C0EAFF46
:10573000EE52400EEF6ED1C0E9FFD2C0EAFF020E7A
:10574000E926000EEA22200EEE6E040EED6ED1C0A8
:10575000E9FFD2C0EAFF8C0EEF6ED7C0E9FFD8C0D8
:10576000EAFF840EEF6E3DD0FD0EDB50E824166E8E
:10577000FE0EDB50040DF3501624040DF3CF14F08D
:10578000F4CF15F0000E1426040E152214C0DEFF0F
:1057900015C0DDFF840E146EDECFE9FFDDCFEAFF1A
:1057A0001450EF12FD0EDB50E824166EFE0EDB5097
:1057B000040DF3501624010F040DF3CF14F0F4CFB1
:1057C00015F0000E1426040E152214C0DEFF15C0BD
:1057D000DDFF840E146EDECFE9FFDDCFEAFF14504B
:1057E000EF12020EE15C02E2E16AE552E16EE5527F
:1057F000E7CFD9FF1200D9CFE6FFE1CFD9FF65A8E7
:105800004ED0FE0EEA6ADB34FE0BEA36E96ED70EA6
:10581000E926000EEA22EE50EFCFEAFFE96E400ED5
:10582000EE16EE6AEE6AEE6AFE0EEA6ADB34FE0BF4
:10583000EA36E96ED70EE926000EEA22EE50EFCFE7
:10584000EAFFE96EEE7CFE0EEA6ADB34FE0BEA3616
:10585000E96ED70EE926000EEA22EF74400E146EB0
:10586000FE0EEA6ADB34FE0BEA36E96ED70EE92655
:10587000000EEA22EE50EFCFEAFFE96E1450EF1669
:10588000FE0EEA6ADB34FE0BEA36E96ED70EE92635
:10589000000EEA22EE50EFCFEAFFE96EEF7CE55210
:1058A000E7CFD9FF1200656A0F01366B0001CC6BA0
:1058B00000D012000001CC5114E1656A0F01366B73
:1058C000160E396F9F0E376F7B0E366FD08EA28803
:1058D000A088F28E65B602D06586FCD70001010E65
:1058E000CC6F12000001F6514DE1010EF66FF75139
:1058F00049E1010EF76F020EDC5D0DE1D7C0E9FF53
:10590000D8C0EAFFEE52EF6AD7C0E9FFD8C0EAFF7D
:10591000C80EEF6E37D0DC0535E1EF6BCFC0E9FF85
:10592000D0C0EAFFEE52400EEF6ECFC0E9FFD0C00C
:10593000EAFF020EE926000EEA22200EEE6E040EA9
:10594000ED6ECFC0E9FFD0C0EAFF840EEF6E010E0E
:10595000EF6FD1C0E9FFD2C0EAFFEE52400EEF6E0A
:10596000D1C0E9FFD2C0EAFF020EE926000EEA220A
:10597000200EEE6E040EED6ED1C0E9FFD2C0EAFF3C
:10598000800EEF6E12000001F86BF96B020EDC5D09
:105990001AE1D1C0E9FFD2C0EAFFEE52400EEF6E2D
:1059A000D1C0E9FFD2C0EAFF020EE926000EEA22CA
:1059B000280EEE6E040EED6ED1C0E9FFD2C0EAFFF4
:1059C000C80EEF6E1FD0E0510401265D0001E151C9
:1059D0000401275904E226C4E0F027C4E1F0D1D83D
:1059E000D7C0E9FFD8C0EAFF020EE926000EEA227E
:1059F000280EEE6E040EED6ED7C0E9FFD8C0EAFFA8
:105A0000C80EEF6E1200D9CFE6FFE1CFD9FF020E2C
:105A1000E126000EDE6E040EDD6EFD0EDB50E82486
:105A2000166EFE0EDB50040DF3501624040DF3CF5A
:105A300014F0F4CF15F0D9CFE9FFDACFEAFF145014
:105A4000EE261550ED22DECFE9FFDDCFEAFFEF9E17
:105A5000FD0EDB500FE1FE0EEA6ADB34FE0BEA3688
:105A6000E96ED30EE926000EEA22DECFEEFFDDCF8F
:105A7000EDFF0ED0FE0EEA6ADB34FE0BEA36E96E6D
:105A8000D70EE926000EEA22DECFEEFFDDCFEDFFD6
:105A9000DECFE9FFDDCFEAFFEF9CDECFE9FFDDCF10
:105AA000EAFF040EE926000EEA22EF8C020EE15C0A
:105AB00002E2E16AE552E16EE552E7CFD9FF12005A
:105AC00065980001DFBF2BD0E4AF09D0020EDC6F78
:105AD000F95101E158DF0001F76BF66B1FD0D1C01F
:105AE000E9FFD2C0EAFFEE52400EEF6ED1C0E9FFEF
:105AF000D2C0EAFF020EE926000EEA22200EEE6E68
:105B0000040EED6ED1C0E9FFD2C0EAFF8C0EEF6E3D
:105B1000D7C0E9FFD8C0EAFF840EEF6E31D0040190
:105B200020AF0DD00001010EDC6FF85101E12BDF39
:105B30000001F76BF66BF55101E1D4DE21D00001D5
:105B4000020EDC6FD1C0E9FFD2C0EAFFEE52400E78
:105B5000EF6ED1C0E9FFD2C0EAFF020EE926000EC7
:105B6000EA22200EEE6E040EED6ED1C0E9FFD2C027
:105B7000EAFF840EEF6EF76BF66BF55101E1B2DED2
:105B80001200D9CFE6FFE1CFD9FFE652400EDF6E1B
:105B90000001E05D000EE1590BE2E0C0DFFFDB51E8
:105BA00003E1010EDB6F04D0DB0502E1020EDB6FC7
:105BB000DF50146E156A1450E05DE06F1550E15926
:105BC000E16FD7C0E9FFD8C0EAFFEE52DFCFEFFFA9
:105BD000280EE96F040EEA6FDFB119D0DF5016E02E
:105BE000DDC0F6FFDEC0F7FFDD2B000EDE23080070
:105BF000F550E66EE9C0E9FFEAC0EAFFE92B000EC6
:105C0000EA23E552E750EF6EDF06E8D717D0DF5002
:105C100015E0DDC0E9FFDEC0EAFFDD2B000EDE236C
:105C2000EF50E66EE9C0E9FFEAC0EAFFE92B000E9B
:105C3000EA23E552E750EF6EDF06E9D7E552E55279
:105C4000E7CFD9FF1200D9CFE6FFE1CFD9FF020E8F
:105C5000E126CFC0E9FFD0C0EAFFEE52EFCFDFFF71
:105C6000DFCF14F014500001E55D000EE65902E2AA
:105C7000E5C0DFFFDF50146E156A1450E55DE56F77
:105C80001550E659E66F010EDB6ADF50F36E010E28
:105C9000DBCFF4FFF350F45C16E2010EDB50EA6A4E
:105CA000280FE96E040EEA22EF50E66EE2C0E9FF2B
:105CB000E3C0EAFFE22B000EE323E552E750EF6E6C
:105CC000010EDB2AE2D7000ED880E555000EE6551E
:105CD00028E2D1C0E9FFD2C0EAFFEE52400EEF6EDB
:105CE000D1C0E9FFD2C0EAFF020EE926000EEA2287
:105CF000280EEE6E040EED6ECFC0E9FFD0C0EAFFB5
:105D0000EF50400B07E1D1C0E9FFD2C0EAFFC80E57
:105D1000EF6E06D0D1C0E9FFD2C0EAFF880EEF6E69
:105D200028D0D1C0E9FFD2C0EAFFEE52400EEF6E9C
:105D3000D1C0E9FFD2C0EAFF020EE926000EEA2236
:105D4000200EEE6E040EED6ED1C0E9FFD2C0EAFF68
:105D5000840EEF6EE751E81107E005D0E8C0FAFFC6
:105D60000001E751F96EFADF0001E49FF55101E10E
:105D7000B9DD020EE15C02E2E16AE552E16EE55254
:105D8000E7CFD9FF1200D9CFE6FFE1CFD9FFE65226
:105D90000001DF8F010EE66EE66AE66A270EE66E08
:105DA0000F0EE66E06EC4DF0146E050EE15E14501B
:105DB000200EE66EE66AE66A000EE66E040EE66EF9
:105DC00006EC4DF0146E050EE15E1450658CDF6A32
:105DD000020EDF5C10E2DF50EA6AF00FE96E000E9F
:105DE000EA22EF6ADF50EA6AF20FE96E000EEA2259
:105DF000EF6ADF2AEDD7010EE66EE66AE66ACE0E9E
:105E0000E66E000EE66E06EC4DF0146E050EE15ED9
:105E10001450659C0001080ED76F040ED86F000E59
:105E2000CF6F040ED06FCFC0D1F0D0C0D2F022C45B
:105E3000CDF0CD5103E1100ECC6F13D0010EE66E04
:105E4000E66ACD0EE66E000EE66E010EE66EE66ABE
:105E500070EC49F0146E060EE15E14500001200E45
:105E6000CC6FE552E552E7CFD9FF1200800E040156
:105E7000205D5EE10001C00EDF6F04012351030AC3
:105E800037E0010A0EE0030A03E00001DF6B50D0A7
:105E90000001560EDD6F980EDE6F120EE06FE16BA3
:105EA00047D0010E225D23E22251F66EF76AD890A8
:105EB000F636F736CA0EF626980EF7220900F5CF09
:105EC000DDF00A00F5CFDEF0020E0001F76ADD25F5
:105ED000F66EDE51F7220800F5CFE0F0030EF76A08
:105EE000DD25F66EDE51F7220800F5CFE1F020D077
:105EF000030E225D1AE22251F66EF76AD890F6364A
:105F0000F736CC0EF626980EF7220900F5CFDDF015
:105F10000A00F5CFDEF0DDC0F6FFDEC0F7FF0800B7
:105F2000F5500001E06FE16B02D00001DF6B00D0A3
:105F30001200D9CFE6FFE1CFD9FF020EE12604011E
:105F4000286B296B20511F0B020A13E0030A0EE095
:105F5000010A01E043D00001DF8F02D00401288153
:105F60000001EB0502E10401288338D00001DF8F36
:105F700035D00001DF8F040124BF10D024510F0B56
:105F8000E96EEA6AD890E936EA36D30EE926000EC1
:105F9000EA22EECFDEFFEDCFDDFF0FD024510F0B55
:105FA000E96EEA6AD890E936EA36D70EE926000E9D
:105FB000EA22EECFDEFFEDCFDDFFDECFE9FFDDCF62
:105FC000EAFFEF50800B09E0DECFE9FFDDCFEAFF0B
:105FD000EF50040B02E0010E286F00D00001DFAF8C
:105FE00007D0280EDD6F040EDE6FDF81020EE06F3A
:105FF000020EE15C02E2E16AE552E16EE552E7CFB2
:10600000D9FF12000F0126A115D0CFC0E9FFD0C0E3
:10601000EAFFEF5080080DE1D7C0E9FFD8C0EAFFE2
:10602000EF50840806E1CFC0E9FFD0C0EAFF8C0E34
:10603000EF6E2691629A12000F0136856298658292
:106040000001010EEC6F000EE66EE66AE66EE66A8F
:10605000750EE66EE66A70EC49F0146E060EE15EAF
:10606000145012000001EC6B000EE66EE66AE66E5C
:10607000E66A740EE66EE66A70EC49F0146E060E7F
:10608000E15E145065920F01369562A402D06294CD
:10609000FCD71200D9CFE6FFE1CFD9FFE6520001CD
:1060A0002D0EF46FFD0EED1553E17E0EED15E8405B
:1060B0007F0B040DF3CFCFF0F4CFD0F0000ECF273D
:1060C000040ED023CFC0D1F0D0C0D2F0D175CFC054
:1060D000E9FFD0C0EAFFEF503C0BE842E8420D0870
:1060E00035E1DF6A080EDF5C23E2CFC0E9FFD0C0F4
:1060F000EAFF020EE926000EEA22EE50EFCFEAFF99
:10610000E96EEF50E66EDF50EA6A200FE96E040E8A
:10611000EA22E552E750EF6ECFC0E9FFD0C0EAFFB8
:10612000020EE926000EEA22EE2AEF22DF2ADAD753
:10613000CFC0E9FFD0C0EAFF020EE926000EEA2236
:10614000200EEE6E040EED6E0DD801D03AD805D0BB
:10615000FD0EED15040801E159D8E552E552E7CFEF
:10616000D9FF12000001DB6BF56BF86BF96BEF6B7D
:10617000DC6BD7C0E9FFD8C0EAFFEF9ED775D7C068
:10618000E9FFD8C0EAFFEF9ED775D1C0E9FFD2C0C2
:10619000EAFFEF9EDF6BE06BE16BE46BE56BE66BB8
:1061A00092D8000EE66EE66AE66EE66A030EE66ECA
:1061B000E66A70EC49F0146E060EE15E145060EF72
:1061C0002DF0020E0001DC5D02E13DDD1ED0DC6B36
:1061D000EF511AE1D1C0E9FFD2C0EAFFEE52400E02
:1061E000EF6ED1C0E9FFD2C0EAFF020EE926000E31
:1061F000EA22200EEE6E040EED6ED1C0E9FFD2C091
:10620000EAFF8C0EEF6E01D0EF6B1200D9CFE6FFE4
:10621000E1CFD9FFE652D7C0E9FFD8C0EAFFEF507F
:10622000400B01E0010EDF6E0001D775080ECC5D5A
:106230000CE122C438FF0F01385104E00001100EB8
:10624000CC6F03D00001040ECC6FDC0528E1D7C071
:10625000E9FFD8C0EAFF020EE926000EEA22280E66
:10626000EE6E040EED6E8DDC020E0001DB5D07E1CB
:10627000D7C0E9FFD8C0EAFF840EEF6E0FD0DF5021
:1062800007E1D7C0E9FFD8C0EAFFC80EEF6E06D01D
:10629000D7C0E9FFD8C0EAFF880EEF6E0FD0E4AF99
:1062A0000CD0E751E81107E005D0E8C0FAFF000183
:1062B000E751F96EFADF0001E49FDC6BE552E5522D
:1062C000E7CFD9FF120004012051600BE842E842F9
:1062D000E842E842E842000901E058D021510C0AA6
:1062E00054E00B0A43E00C0A35E0010A26E00B0AF1
:1062F00022E0020A20E0030A1CE0080A10E0010A7A
:106300000CE00F0A08E0030A01E03FD00001DF8F34
:10631000080ECC6F3BD0AADD39D035DD37D0000177
:10632000CD0EDD6F000EDE6FDF81010EE06FDF8FBF
:106330002DD0FFDD2BD02BD829D024510001DD6FCB
:10634000DE6BCE0EDD27000EDE23DF81010EE06F57
:10635000DF8F1CD00001DF8F04012451EA6ACE0FC9
:10636000E96E000EEA2222C4EFFF10D0000EE66EA6
:10637000E66AE66EE66A020EE66EE66A70EC49F0E0
:10638000146E060EE15E145001D000D01200D9CF79
:10639000E6FFE1CFD9FF050EE1260401220510E159
:1063A00020511F0B00090CE10001DF8F030E0401D7
:1063B000215D04E10001010EEB6F02D00001EB6BE7
:1063C0000401225101E020D120511F0B020801E0FD
:1063D0001BD124510F0B000901E116D124510F0BE1
:1063E000010801E211D1200E0001CC5D01E00CD1C9
:1063F000DF8F040124BF1AD024510F0BE96EEA6A23
:10640000D890E936EA36D30EE926000EEA22EECF1E
:10641000DEFFEDCFDDFF24510F0BEA6AF20FE96ECC
:10642000000EEA22020EEFCFDBFF19D024510F0B32
:10643000E96EEA6AD890E936EA36D70EE926000E08
:10644000EA22EECFDEFFEDCFDDFF24510F0BEA6A2B
:10645000F00FE96E000EEA22020EEFCFDBFFD950FB
:10646000020FE96EDACFEAFFEF50010B03E1000EF5
:10647000DF9401D0DF8424BF10D024510F0BE96ECC
:10648000EA6AD890E936EA36D30EE926000EEA2207
:10649000DECFEEFFDDCFEDFF0FD024510F0BE96E05
:1064A000EA6AD890E936EA36D70EE926000EEA22E3
:1064B000DECFEEFFDDCFEDFF030E215D23E1DECF6A
:1064C000E9FFDDCFEAFFEF50800B13E024BF09D0D6
:1064D00024510F0BEA6AF20FE96E000EEA22EF82F6
:1064E00008D024510F0BEA6AF00FE96E000EEA2281
:1064F000EF82840E146EDECFE9FFDDCFEAFF145089
:10650000EF1282D0DF74DECFE9FFDDCFEAFFEF507C
:10651000800B1BE0DECFE9FFDDCFEAFFEF9EDECF91
:10652000E9FFDDCFEAFFEF8C020EE66EE66ADECF12
:10653000E6FFDDCFE6FF050EE66EE66A70EC49F099
:10654000146E060EE15E145005D0DECFE9FFDDCFFC
:10655000EAFFEF8CDF74D950020FE96EDACFEAFF61
:10656000EF50020B07E1DECFE9FFDDCFEAFFEF508E
:10657000800B2DE0040124BF09D024510F0BEA6ADF
:10658000F20FE96E000EEA22EF9208D024510F0BB1
:10659000EA6AF00FE96E000EEA22EF923B0E146EEB
:1065A000DECFE9FFDDCFEAFF1450EF16020EE66EF4
:1065B000E66ADECFE6FFDDCFE6FF050EE66EE66AB1
:1065C00070EC49F0146E060EE15E145008D03B0EDC
:1065D000146EDECFE9FFDDCFEAFF1450EF160401A1
:1065E00024510F0B156A260F146E0F0E1522030E81
:1065F00014C0DBFF040E15C0DBFF030EDBCFE9FF89
:10660000040EDBCFEAFFEF90050EE15C02E2E16AE7
:0C661000E552E16EE552E7CFD9FF120021
:04661C00D9CFE6FFED
:10662000E1CFD9FFFE0EDBCFE6FFE668BDEC44F01C
:10663000E552E552E552E7CFD9FF12008B849494DE
:10664000949C8B8C94928B8294908B8048EC4BF032
:106650000401EE6FEF6BF769F16BE66ADFDFE5527D
:10666000010EE66EE66EE66EC9D9E552E552E552D8
:106670001200D9CFE6FFE1CFD9FF8B8C8B808B82C4
:106680008B84FE0EDBCFE6FFC9DFE552E552E7CF94
:10669000D9FF1200D9CFE6FFE1CFD9FFE652FE0EB7
:1066A000DBCFF6F48B8C8B808B828B84FC0EDBCF64
:1066B000E6FFB4DFE5520401F6513EE0DF68FD0E6F
:1066C000DB50010B010801E18B94FD0EDB50020B46
:1066D000020801E18B92FD0EDB50040B040801E17E
:1066E0008B90FD0EDB50080B080801E18B9CFD0E22
:1066F000DB50100B100802E1000EDF90FD0EDB50A6
:10670000200B200802E1000EDF92FD0EDB50400B53
:10671000400802E1000EDF94FD0EDB50800B800884
:1067200002E1000EDF96FC0EDBCFE6FFDFCFE6FFD7
:10673000BDEC44F0E552E552E552E552E7CFD9FF12
:106740001200D9CFE6FFE1CFD9FF0401F65121E1D4
:106750008B808B828B84FE0EDB50010B010801E1E4
:106760008B94FE0EDB50020B020801E18B92FE0EB1
:10677000DB50040B040801E18B90FE0EDB5009E1B5
:106780008B8CFD0EDBCFE6FFE668BDEC44F0E552F6
:10679000E552E552E7CFD9FF1200D9CFE6FFE1CFAE
:1067A000D9FFE65248EC4BF0DF6EDF500401EE5D9E
:1067B00009E0DFCFEEF4EF2B140EEF5D01E3EF6B9A
:1067C000010EF16FEF5100D0E552E552E7CFD9FF4E
:1067D0001200D9CFE6FFE1CFD9FFFD0EDB0404E1C3
:1067E0008B8C0401F86B26D0FE0EDB50100807E1FD
:1067F0008B9CEFC4F9F40401010EF86F1BD0FE0E60
:10680000DB50200807E18B9CEFC4F9F404010A0E69
:10681000F86F10D0FE0EDB500DE10401F8510008B6
:1068200008E2EF51F95D03E0EFC4F9F4F8078B9C3F
:1068300001D08B8CE552E7CFD9FF1200D9CFE6FF0C
:10684000E1CFD9FF020EE126FE0EDB500F0BDF6E0B
:10685000FE0EDB50F00BE76E010EE7CFDBFFFD0E07
:10686000DB5010080CE0FD0EDB50110808E0FD0EB7
:10687000DB50140804E0FD0EDB50150815E10A0E8C
:10688000DF5C0AE10401EF5103E00A0EEF5D02E173
:106890008B9C01D08B8C07D0E66A010EDBCFE6FF24
:1068A00098DFE552E55207D0010EE66EDBCFE6FF3A
:1068B00090DFE552E552020EE15C02E2E16AE55248
:1068C000E16EE552E7CFD9FF1200D9CFE6FFE1CF65
:1068D000D9FFE652F7C4DFFFFE0EDB5003E10401EF
:1068E000F7697BD0010EF36EFE0EDBCFF4FFF350A1
:1068F000F45C37E3FE0EDB50040833E30401F76970
:10690000000EEF5D03E3EF51040806E20A0EEF5DAF
:1069100027E3EF510E0824E3010EF36EFE0EDBCFEA
:10692000F4FFF350F45C01E3F797020EF36EFE0EF2
:10693000DBCFF4FFF350F45C01E3F795030EF36E45
:10694000FE0EDBCFF4FFF350F45C01E3F793040E8B
:10695000F36EFE0EDBCFF4FFF350F45C01E3F7912E
:106960003CD0050EF36EFE0EDBCFF4FFF350F45C6B
:1069700024E3FE0EDB50080820E3FC0EDB041AE1E2
:106980000401F769FE0EDB50050802E1F79111D012
:10699000FE0EDB50060802E1F7930BD0FE0EDB5033
:1069A000070802E1F79705D0FE0EDB50080801E169
:1069B000F79502D00401F76910D0FE0EDB501708DE
:1069C0000AE1FC0EDB0404E10401FE0EF76F02D0C5
:1069D0000401F76902D00401F769F751DF5C09E0AF
:1069E000FD0EDBCFE6FFF7C4E6FFBDEC44F0E55259
:1069F000E552E552E552E7CFD9FF1200D9CFE6FFC5
:106A0000E1CFD9FF0401FA51EE5D01E114D0EEC4EB
:106A1000FAF4FE0EDB5002E18B9401D08B84FD0E64
:106A2000DB5002E18B9201D08B82FC0EDB5002E145
:106A30008B9001D08B80E552E7CFD9FF1200D9CFE0
:106A4000E6FFE1CFD9FFFE0EDB50050804E0FE0EA5
:106A5000DB50070803E1010E1AD019D0010EF36EC6
:106A6000FE0EDBCFF4FFF350F45C0FE3FE0EDB50C1
:106A700004080BE3FD0EDB50050804E0FD0EDB50BF
:106A8000070803E1010E03D002D0000E00D0E5524A
:106A9000E7CFD9FF1200D9CFE6FFE1CFD9FF030E30
