:020000040000FA
:0600000047EF2AF0120098
:0600080004EF08F01200F5
:060018000CEF08F01200DD
:0610000047EF2AF0120088
:021006001200D6
:0610080057EF24F0120076
:02100E00C080A0
:06101000120004001200B2
:0110160000D9
:0110170011C7
:06101800A8EF24F0120015
:02101E000B00C5
:1010200008550000780E0000010000000155000086
:101030006E0E00000700000017100000770E000081
:1010400001000000FE540000FA0000000300000050
:10105000F7540000670E000007000000E354000092
:101060003A0E000014000000CF540000260E0000CD
:1010700014000000CD540000750E000002000000B6
:1010800016100000FF00000001000000B95400002D
:10109000E600000014000000AA5400004E0E0000FC
:0410A0000F0000003D
:0C10A4006EEC28F00001F86BF96B1200F4
:1010B000D9CFE6FFE1CFD9FFFD0EDBCFE9FFFE0E72
:1010C000DBCFEAFF010EEF6E16EC29F00001F86F9E
:1010D000E552E7CFD9FF1200D9CFE6FFE1CFD9FF24
:1010E0000001F90509E1FD0EDBCFE9FFFE0EDBCFC4
:1010F000EAFF010EEF6E16D0F8C0E6FF1AEC29F0F9
:10110000E55232080FE2FD0EDBCFE9FFFE0EDBCF2A
:10111000EAFFEF0407E1FD0EDBCFE9FFFE0EDBCFB8
:10112000EAFFEF6AE552E7CFD9FF1200D9CFE6FF19
:10113000E1CFD9FFFE0EDB500CE00001010EF96F8C
:10114000FC0EDBCFE9FFFD0EDBCFEAFF010EEF6EF9
:1011500009D00001F96BFC0EDBCFE9FFFD0EDBCF00
:10116000EAFFEF6A010E00D0E552E7CFD9FF120087
:10117000D9CFE6FFE1CFD9FF0C0EE126DF6A010EE1
:10118000DB6A020EDB6A030EDB6A040EDB6A050E05
:10119000DB6A060EDB6A070EDB6A080EDB6A090EE5
:1011A000DB6A0A0EDB6A0B0EDB6A050EDB6AFD0EDC
:1011B000DBCFE9FFFE0EDBCFEAFFEF50FF0A02E1D3
:1011C0005EEF10F00D0A02E10DEF10F01C0A02E1D3
:1011D000FEEF0EF0010A02E1EDEF0DF0020A01E16F
:1011E00083D34F0A01E137D3030A01E1EBD2010AAD
:1011F00001E17DD2300A01E130D2170A01E1E0D1EC
:10120000010A01E15DD1030A01E1F9D0010A01E11E
:10121000B6D0070A53E0010A02E03DEF11F0F90EE3
:10122000DBCFE6FFFA0EDBCFE6FF42DFE552E55209
:10123000FD0EDBCFE9FFFE0EDBCFEAFFEF50E66EDF
:10124000FB0EDBCFE9FFFC0EDBCFEAFFE552E750F8
:10125000EF6E020EE76EFD0EDBCFE9FFFE0EDBCF79
:10126000EAFFE750E926000EEA22EF50E66E4DEC69
:1012700021F0E552E66E010EE76EFB0EDBCFE9FFD3
:10128000FC0EDBCFEAFFE750E926000EEA22E5522A
:10129000E750EF6E020EE76EFB0EDBCFE9FFFC0EB0
:1012A000DBCFEAFFE750E926000EEA22EF6A010EE3
:1012B000F36E050EF3CFDBFF3EEF11F0F90EDBCF3F
:1012C000E6FFFA0EDBCFE6FFF3DEE552E552FD0E58
:1012D000DBCFE9FFFE0EDBCFEAFFEF50E66EFB0E41
:1012E000DBCFE9FFFC0EDBCFEAFFE552E750EF6E04
:1012F000010EE76EFD0EDBCFE9FFFE0EDBCFEAFF4E
:10130000E750E926000EEA22EF50E66E020EE76E85
:10131000FD0EDBCF14F0FE0EDBCF15F0E7501426E8
:10132000000E152214C0E6FF15C0E6FFA9EC21F05F
:10133000E552E552E552E66E010EE76EFB0EDBCF9D
:10134000E9FFFC0EDBCFEAFFE750E926000EEA22B8
:10135000E552E750EF6E020EE76EFB0EDBCFE9FFC2
:10136000FC0EDBCFEAFFE750E926000EEA22EF6A27
:10137000010EF36E050EF3CFDBFF3EEF11F0F90E19
:10138000DBCFE6FFFA0EDBCFE6FF92DEE552E55259
:10139000FD0EDBCFE9FFFE0EDBCFEAFFEF50E66E7E
:1013A000FB0EDBCFE9FFFC0EDBCFEAFFE552E75097
:1013B000EF6E78EC21F0E66E010EE76EFB0EDBCFF0
:1013C000E9FFFC0EDBCFEAFFE750E926000EEA2238
:1013D000E552E750EF6E020EE76EFB0EDBCFE9FF42
:1013E000FC0EDBCFEAFFE750E926000EEA22EF6AA7
:1013F000010EF36E050EF3CFDBFF3EEF11F0F90E99
:10140000DBCFE6FFFA0EDBCFE6FF52DEE552E55218
:10141000FD0EDBCFE9FFFE0EDBCFEAFFEF50E66EFD
:10142000FB0EDBCFE9FFFC0EDBCFEAFFE552E75016
:10143000EF6E010EE76EFD0EDBCFE9FFFE0EDBCF98
:10144000EAFFE750E926000EEA22EF50E66E020EB0
:10145000E76EFD0EDBCF14F0FE0EDBCF15F0E7508C
:101460001426000E152214C0E6FF15C0E6FFE1ECBD
:1014700021F0E552E552E552E66E010EE76EFB0EF5
:10148000DBCFE9FFFC0EDBCFEAFFE750E926000ED9
:10149000EA22E552E750EF6E020EE76EFB0EDBCF5D
:1014A000E9FFFC0EDBCFEAFFE750E926000EEA2257
:1014B000EF6A010EF36E050EF3CFDBFF3EEF11F086
:1014C000F90EDBCFE6FFFA0EDBCFE6FFF1DDE552EA
:1014D000E552FD0EDBCFE9FFFE0EDBCFEAFFEF505A
:1014E000E66EFB0EDBCFE9FFFC0EDBCFEAFFE55239
:1014F000E750EF6E030EE76EFB0EDBCF14F0FC0E31
:10150000DBCF15F0E7501426000E152214C0E6FFBD
:1015100015C0E6FF030EE76EFD0EDBCFE9FFFE0E02
:10152000DBCFEAFFE750E926000EEA22EF50E66E35
:10153000020EE76EFD0EDBCFE9FFFE0EDBCFEAFF0A
:10154000E750E926000EEA22EF50E66E6CEC22F03E
:10155000E552E552E552E552E66E010EE76EFB0EEE
:10156000DBCFE9FFFC0EDBCFEAFFE750E926000EF8
:10157000EA22E552E750EF6E030EE76EFD0EDBCF79
:10158000E9FFFE0EDBCFEAFFE750E926000EEA2274
:10159000EF50E66E020EE76EFB0EDBCFE9FFFC0EAE
:1015A000DBCFEAFFE750E926000EEA22E552E750DA
:1015B000EF6E010EF36E050EF3CFDBFF3EEF11F081
:1015C000FD0EDBCFE9FFFE0EDBCFEAFFEF50E66E4C
:1015D000FB0EDBCFE9FFFC0EDBCFEAFFE552E75065
:1015E000EF6EF90EDBCFE6FFFA0EDBCFE6FF020E61
:1015F000E76EFD0EDBCFE9FFFE0EDBCFEAFFE75023
:10160000E926000EEA22EF50E66E90DDE552E55243
:10161000E552E66E010EE76EFB0EDBCFE9FFFC0E36
:10162000DBCFEAFFE750E926000EEA22E552E75059
:10163000EF6E020EE76EFB0EDBCFE9FFFC0EDBCF99
:10164000EAFFE750E926000EEA22EF6A010EF36E88
:10165000050EF3CFDBFF3EEF11F0FD0EDBCFE9FF10
:10166000FE0EDBCFEAFFEF50E66EFB0EDBCFE9FFAD
:10167000FC0EDBCFEAFFE552E750EF6E010EE76E9E
:10168000FB0EDBCFE9FFFC0EDBCFEAFFE750E926DC
:10169000000EEA22010EEF6E030EE76EFB0EDBCFAB
:1016A00014F0FC0EDBCF15F0E7501426000E1522C7
:1016B00014C0E6FF15C0E6FFD6EC26F0E552E55271
:1016C000E66E020EE76EFB0EDBCFE9FFFC0EDBCF12
:1016D000EAFFE750E926000EEA22E552E750EF6EF6
:1016E000010EF36E050EF3CFDBFF3EEF11F0FD0EA2
:1016F000DBCFE9FFFE0EDBCFEAFFEF50E66EFB0E1D
:10170000DBCFE9FFFC0EDBCFEAFFE552E750EF6EDF
:10171000030EE76EFB0EDBCF14F0FC0EDBCF15F0F3
:10172000E7501426000E152214C0E6FF15C0E6FF90
:10173000020EE76EFD0EDBCF16F0FE0EDBCF17F0CC
:10174000E7501626000E172216C0E6FF17C0E6FF68
:10175000C6EC1DF0E552E552E552E552E66E010E8B
:10176000E76EFB0EDBCFE9FFFC0EDBCFEAFFE750B5
:10177000E926000EEA22E552E750EF6E040EE76E0E
:10178000FD0EDBCFE9FFFE0EDBCFEAFFE750E926D7
:10179000000EEA22EF50E66E020EE76EFB0EDBCF84
:1017A000E9FFFC0EDBCFEAFFE750E926000EEA2254
:1017B000E552E750EF6E010EF36E050EF3CFDBFF3F
:1017C0003EEF11F0FD0EDBCFE9FFFE0EDBCFEAFFAF
:1017D000EF50E66EFB0EDBCFE9FFFC0EDBCFEAFF3E
:1017E000E552E750EF6E020EE76EFD0EDBCF14F010
:1017F000FE0EDBCF15F0E7501426000E152214C0A4
:10180000E6FF15C0E6FF65EC1EF0E552E552E66E18
:10181000010EE76EFB0EDBCFE9FFFC0EDBCFEAFF2C
:10182000E750E926000EEA22E552E750EF6E020E7D
:10183000E76EFB0EDBCFE9FFFC0EDBCFEAFFE750E4
:10184000E926000EEA22EF6A010EF36E050EF3CFD1
:10185000DBFF3EEF11F0FD0EDBCFE9FFFE0EDBCF2D
:10186000EAFFEF50E66EFB0EDBCFE9FFFC0EDBCFAD
:10187000EAFFE552E750EF6E020EE76EFD0EDBCF9A
:1018800014F0FE0EDBCF15F0E7501426000E1522E3
:1018900014C0E6FF15C0E6FF08EC1DF0E552E55266
:1018A000E66E010EE76EFB0EDBCFE9FFFC0EDBCF31
:1018B000EAFFE750E926000EEA22E552E750EF6E14
:1018C000020EE76EFB0EDBCFE9FFFC0EDBCFEAFF7B
:1018D000E750E926000EEA22EF6A010EF36E050ECC
:1018E000F3CFDBFF3EEF11F0020EE76EFD0EDBCF14
:1018F000E9FFFE0EDBCFEAFFE750E926000EEA2201
:10190000EF0440E1FD0EDBCFE9FFFE0EDBCFEAFF87
:10191000EF50E66EFB0EDBCFE9FFFC0EDBCFEAFFFC
:10192000E552E750EF6E010EE76EFB0EDBCFE9FFED
:10193000FC0EDBCFEAFFE750E926000EEA22010E9B
:10194000EF6E020EE76EFB0EDBCFE9FFFC0EDBCF86
:10195000EAFFE750E926000EEA22010EEF6EC5EC21
:1019600022F0E66E030EE76EFB0EDBCFE9FFFC0E06
:10197000DBCFEAFFE750E926000EEA22E552E75006
:10198000EF6E25D1020EE76EFD0EDBCFE9FFFE0EF6
:10199000DBCFEAFFE750E926000EEA22EF5002080B
:1019A0002EE1FD0EDBCFE9FFFE0EDBCFEAFFEF50AD
:1019B000E66EFB0EDBCFE9FFFC0EDBCFEAFFE55264
:1019C000E750EF6E010EE76EFB0EDBCFE9FFFC0E7A
:1019D000DBCFEAFFE750E926000EEA22010EEF6EA8
:1019E000020EE76EFB0EDBCFE9FFFC0EDBCFEAFF5A
:1019F000E750E926000EEA22EF6AFFD7E8D0020E90
:101A0000E76EFD0EDBCFE9FFFE0EDBCFEAFFE7500E
:101A1000E926000EEA22EF5003083EE1030EE76ECE
:101A2000FD0EDBCFE9FFFE0EDBCFEAFFE750E92634
:101A3000000EEA22EF50E66EACEC25F0E552FD0E0A
:101A4000DBCFE9FFFE0EDBCFEAFFEF50E66EFB0EC9
:101A5000DBCFE9FFFC0EDBCFEAFFE552E750EF6E8C
:101A6000010EE76EFB0EDBCFE9FFFC0EDBCFEAFFDA
:101A7000E750E926000EEA22010EEF6E020EE76E35
:101A8000FB0EDBCFE9FFFC0EDBCFEAFFE750E926D8
:101A9000000EEA22EF6A9BD0020EE76EFD0EDBCF4E
:101AA000E9FFFE0EDBCFEAFFE750E926000EEA224F
:101AB000EF50040861E1FD0EDBCFE9FFFE0EDBCF46
:101AC000EAFFEF50E66EFB0EDBCFE9FFFC0EDBCF4B
:101AD000EAFFE552E750EF6E010EE76EFB0EDBCF3B
:101AE000E9FFFC0EDBCFEAFFE750E926000EEA2211
:101AF000010EEF6E020EE76EFB0EDBCFE9FFFC0E70
:101B0000DBCFEAFFE750E926000EEA22020EEF6E75
:101B10005DEC27F0F3CF14F0F4CF15F015C014F0FE
:101B2000156AFF0E1416000E1516030EE76EFB0E57
:101B3000DBCFE9FFFC0EDBCFEAFFE750E926000E22
:101B4000EA2214C0EFFF5DEC27F0F3CF14F0F4CFDE
:101B500015F0FF0E1416000E1516040EE76EFB0EA0
:101B6000DBCFE9FFFC0EDBCFEAFFE750E926000EF2
:101B7000EA2214C0EFFF2BD0FD0EDBCFE9FFFE0EF3
:101B8000DBCFEAFFEF50E66EFB0EDBCFE9FFFC0E8A
:101B9000DBCFEAFFE552E750EF6E010EE76EFB0E7A
:101BA000DBCFE9FFFC0EDBCFEAFFE750E926000EB2
:101BB000EA22EF6A020EE76EFB0EDBCFE9FFFC0EB6
:101BC000DBCFEAFFE750E926000EEA22EF6A010EBA
:101BD000F36E050EF3CFDBFF51D3FD0EDBCFE9FF34
:101BE000FE0EDBCFEAFFEF50E66EFB0EDBCFE9FF28
:101BF000FC0EDBCFEAFFE552E750EF6E020EE76E18
:101C0000FD0EDBCFE9FFFE0EDBCFEAFFE750E92652
:101C1000000EEA22EF50E66ED950060FE96EDACFD9
:101C2000EAFFE552E750EE6EED6A060EDBCF14F0E8
:101C3000070EDBCF15F014C015F0146A060E14C0A1
:101C4000DBFF070E15C0DBFF030EE76EFD0EDBCFDB
:101C5000E9FFFE0EDBCFEAFFE750E926000EEA229D
:101C6000EF50146E156AD950060FE96EDACFEAFF0D
:101C70001450EE261550ED22040EE76EFD0EDBCF5C
:101C8000E9FFFE0EDBCFEAFFE750E926000EEA226D
:101C9000EF50E66ED950080FE96EDACFEAFFE55251
:101CA000E750EE6EED6A080EDBCF14F0090EDBCFC5
:101CB00015F014C015F0146A080E14C0DBFF090EED
:101CC00015C0DBFF050EE76EFD0EDBCFE9FFFE0E54
:101CD000DBCFEAFFE750E926000EEA22EF50146E50
:101CE000156AD950080FE96EDACFEAFF1450EE26D4
:101CF0001550ED22D950080FE96EDACFEAFFEE5009
:101D0000ED100BE0D950080FE96EDACFEAFF3A0E7A
:101D1000D880EE54000EED541BE2010EE76EFB0E70
:101D2000DBCFE9FFFC0EDBCFEAFFE750E926000E30
:101D3000EA22EF6A020EE76EFB0EDBCFE9FFFC0E34
:101D4000DBCFEAFFE750E926000EEA22EF6A50D027
:101D5000010EE76EFB0EDBCFE9FFFC0EDBCFEAFFE7
:101D6000E750E926000EEA22010EEF6E020EE76E42
:101D7000FB0EDBCFE9FFFC0EDBCFEAFFE750E926E5
:101D8000000EEA22080EDBCFEFFFDF6ADFCF14F090
:101D9000080EDBCF15F0090EDBCF16F01550145CE2
:101DA000000E165425E2060EDBCF14F0DB2A070ED8
:101DB000DBCF15F001E3DB2A0A0EDB501424E96EB9
:101DC0000B0EDB501520EA6EEF50E66E030EDF249B
:101DD000E76EFB0EDBCFE9FFFC0EDBCFEAFFE7503F
:101DE000E926000EEA22E552E750EF6EDF2ACED751
:101DF000010EF36E050EF3CFDBFF40D2FD0EDBCFFD
:101E0000E9FFFE0EDBCFEAFFEF50E66EFB0EDBCF05
:101E1000E9FFFC0EDBCFEAFFE552E750EF6E020E62
:101E2000E76EFD0EDBCFE9FFFE0EDBCFEAFFE750EA
:101E3000E926000EEA22EF50E66ED950060FE96E51
:101E4000DACFEAFFE552E750EE6EED6A060EDBCF21
:101E500014F0070EDBCF15F014C015F0146A060E4F
:101E600014C0DBFF070E15C0DBFF030EE76EFD0E8F
:101E7000DBCFE9FFFE0EDBCFEAFFE750E926000EDD
:101E8000EA22EF50146E156AD950060FE96EDACFC8
:101E9000EAFF1450EE261550ED22040EE76EFD0EFB
:101EA000DBCFE9FFFE0EDBCFEAFFE750E926000EAD
:101EB000EA22EF50E66ED950080FE96EDACFEAFF5A
:101EC000E552E750EE6EED6A080EDBCF14F0090E16
:101ED000DBCF15F014C015F0146A080E14C0DBFF38
:101EE000090E15C0DBFF050EE76EFD0EDBCFE9FF27
:101EF000FE0EDBCFEAFFE750E926000EEA22EF50A4
:101F0000146E156AD950080FE96EDACFEAFF145043
:101F1000EE261550ED22D950080FE96EDACFEAFF10
:101F2000EE50ED100BE0D950080FE96EDACFEAFF62
:101F30003A0ED880EE54000EED541BE2010EE76E0F
:101F4000FB0EDBCFE9FFFC0EDBCFEAFFE750E92613
:101F5000000EEA22EF6A020EE76EFB0EDBCFE9FF0E
:101F6000FC0EDBCFEAFFE750E926000EEA22EF6A1B
:101F70004ED0010EE76EFB0EDBCFE9FFFC0EDBCF90
:101F8000EAFFE750E926000EEA22010EEF6E020E8C
:101F9000E76EFB0EDBCFE9FFFC0EDBCFEAFFE7507D
:101FA000E926000EEA22EF6ADF6ADFCF14F0080E9E
:101FB000DBCF15F0090EDBCF16F01550145C000EC8
:101FC000165425E2060EDF24E76EFD0EDBCFE9FF97
:101FD000FE0EDBCFEAFFE750E926000EEA22EF50C3
:101FE000E66E060EDBCF14F0DB2A070EDBCF15F012
:101FF00001E3DB2A0A0EDB501424E96E0B0EDB50E2
:102000001520EA6EE552E750EF6EDF2ACED7010EBB
:10201000F36E050EF3CFDBFF31D1FB0EDBCFE9FF13
:10202000FC0EDBCFEAFFF20EEF6E010EE76EFB0E49
:10203000DBCFE9FFFC0EDBCFEAFFE750E926000E1D
:10204000EA22010EEF6E020EE76EFB0EDBCFE9FF18
:10205000FC0EDBCFEAFFE750E926000EEA22EF6A2A
:10206000010EF36E050EF3CFDBFFA8EC25F06592B1
:10207000656A010EDB6A020EDB6A030EDB6A040E80
:10208000DB6AD950010FE96EDACFEAFFA00EEE5CF1
:10209000860EEE58010EEE58000EEE580BE2D950A7
:1020A000010FE96EDACFEAFFEE2A000EEE22EE22F1
:1020B000EE22E7D7F29E0EEF00F0E0D0010EDB6AD1
:1020C000020EDB6A030EDB6A040EDB6AD950010FD5
:1020D000E96EDACFEAFFEFCF14F0EE2A000EEFCF71
:1020E00015F0EE22EFCF16F0EE22EFCF17F0EF2231
:1020F000FB0EDB501424E96EFC0EDB501520EA6E5B
:10210000EF68D950010FE96EDACFEAFFEFCF14F094
:10211000EE2A000EEFCF15F0EE22EFCF16F0EE22F2
:10212000EFCF17F0EF22FB0EDB501424E96EFC0E0C
:10213000DB501520EA6E010EEF6ED950010FE96EEB
:10214000DACFEAFFEFCF14F0EE2A000EEFCF15F052
:10215000EE22EFCF16F0EE22EFCF17F0EF22FB0EBC
:10216000DB501424E96EFC0EDB501520EA6E130ED2
:10217000EF6ED950010FE96EDACFEAFFEFCF14F01E
:10218000EE2A000EEFCF15F0EE22EFCF16F0EE2282
:10219000EFCF17F0EF22FB0EDB501424E96EFC0E9C
:1021A000DB501520EA6E010EEF6ED950010FE96E7B
:1021B000DACFEAFFEFCF14F0EE2A000EEFCF15F0E2
:1021C000EE22EFCF16F0EE22EFCF17F0EF22FB0E4C
:1021D000DB501424E96EFC0EDB501520EA6E020E73
:1021E000EF6EDF6A110EDF5C27E2DF50EA6AE60F6E
:1021F000E96E000EEA22EF50E66ED950010FE96E4B
:10220000DACFEAFFEFCF14F0EE2A000EEFCF15F091
:10221000EE22EFCF16F0EE22EFCF17F0EF22FB0EFB
:10222000DB501424E96EFC0EDB501520EA6EE552FB
:10223000E750EF6EDF2AD6D7D950010FE96EDACF1B
:10224000EAFFEFCF14F0EE2A000EEFCF15F0EE22EA
:10225000EFCF16F0EE22EFCF17F0EF22FB0EDB50A0
:102260001424E96EFC0EDB501520EA6EEF6A010EB5
:10227000F36E050EF3CFDBFF01D000D0050EDB506F
:1022800000D0146E0C0EE15C02E2E16AE552E16EF0
:102290001450E552E7CFD9FF1200D9CFE6FFE1CFC6
:1022A000D9FFE652DF6AF90EDBCFE6FFFA0EDBCF8D
:1022B000E6FF6CEC08F0E552E552200E0E01005DE1
:1022C00003E36550020B09E0FD0EDBCFE9FFFE0ED4
:1022D000DBCFEAFFEF6A7BD01CD07AEC28F0000954
:1022E00008E1FB0EDBCFE9FFFC0EDBCFEAFFEF6A74
:1022F00008D0FB0EDBCFE9FFFC0EDBCFEAFF010EBF
:10230000EF6EFD0EDBCFE9FFFE0EDBCFEAFF010E25
:10231000EF6E0001E051E11102E1000E08D0E0C0D3
:10232000E9FFE1C0EAFFEF50800B01E0010E000978
:102330004EE1F90EDBCFE6FFFA0EDBCFE6FFA00E93
:10234000E66E000EE66E600EE66E000EE66EB8EC0F
:1023500008F0146E060EE15E1450DF6EDF0424E117
:102360000001E251E31102E1000E08D0E2C0E9FFF2
:10237000E3C0EAFFEF50800B01E0010E000914E119
:10238000400EE66EA00EE66E000EE66E010EE66EE4
:10239000E66EA8EC19F0146E050EE15E1450F3CF52
:1023A000E2F0F4CFE3F0DF6A400EE66E600EE66E18
:1023B000000EE66EE66A010EE66EA8EC19F0146EE9
:1023C000050EE15E1450F3CFE0F0F4CFE1F0E552FA
:0823D000E552E7CFD9FF12002E
:0823D800D9CFE6FFE1CFD9FFE8
:1023E000E652636A626A0F01160E396F9F0E376FED
:1023F0007B0E366F658C659C386B000EE66EE66A68
:10240000E66A270EE66E0F0EE66E07EC2AF0146EF3
:10241000050EE15E1450DF6ADF50146E156A080E77
:10242000145C000E155810E2DF50040DF3CFE9FFE5
:10243000F4CFEAFF000EE926040EEA22EE6AEE6A05
:10244000EE6AEE6ADF2AE8D70F01160E266F62A643
:102450000CD0030EE66E620EE66E0F0EE66E21ECF9
:102460001AF0E552E552E552F2D70E01136B186BE4
:10247000196B1A6B6598080E0B6F040E0C6F016BCD
:10248000006BE552E552E7CFD9FF1200D9CFE6FF46
:10249000E1CFD9FFE6520E01000509E165BA07D088
:1024A000626A0F01368136890E01020E006F62509A
:1024B000040B10E00F013651040B0CE0020EE66E27
:1024C000620EE66E0F0EE66E21EC1AF0E552E55252
:1024D000E552F1D865A202D0A198A7D06250010BB5
:1024E0001CE00F013651010B18E076DF0E01040EDF
:1024F000006F0401200E026F040E036F080E016FBF
:10250000006B8C0E0013E66A620EE66E0F0EE66E2E
:1025100021EC1AF0E552E552E5526250100B10E042
:102520000F013651100B0CE0A9D8040EE66E620EB6
:10253000E66E0F0EE66E21EC1AF0E552E552E5521A
:102540006250400B1EE00F013651400B1AE0010EA5
:10255000E66EE66A000EE66EE66A020EE66EE66A71
:1025600023EC28F0146E060EE15E1450060EE66EA3
:10257000620EE66E0F0EE66E21EC1AF0E552E552A1
:10258000E5526250200B05E00F013651200B01E0AF
:1025900051D86250020B13E00F013651020B0FE0CD
:1025A000010EE66EE66A000EE66EE66AE668E6682A
:1025B00023EC28F0146E060EE15E1450636A040EDC
:1025C0000E01005D02E2A19830D00F0136A72CD099
:1025D000DF6A040EDF5C28E262A625D064CF20FE0D
:1025E000030EE66E620EE66E0F0EE66E21EC1AF03A
:1025F000E552E552E552780E0E01201502E17BD836
:1026000010D0000EE66EE66A200EE66E0E0EE66E46
:10261000010EE66EE66A23EC28F0146E060EE15E0B
:102620001450DF2AD6D700D0A198E552E552E7CF63
:10263000D9FF12000F0126A115D003CEE9FF04CE69
:10264000EAFFEF5080080DE10BCEE9FF0CCEEAFF68
:10265000EF50840806E103CEE9FF04CEEAFF8C0EBA
:10266000EF6E2691050EE66E620EE66E0F0EE66EBA
:1026700021EC1AF0E552E552E55212000F013685C1
:10268000040EE66E620EE66E0F0EE66E21EC1AF098
:10269000E552E552E5526582000EE66EE66AE66EA8
:1026A000E66A040EE66EE66A23EC28F0146E060E67
:1026B000E15E14501200000EE66EE66AE66EE66A0F
:1026C000030EE66EE66A23EC28F0146E060EE15E59
:1026D000145065920F01369562A40CD0020EE66E7E
:1026E000620EE66E0F0EE66E21EC1AF0E552E55230
:1026F000E552F2D71200D9CFE6FFE1CFD9FFE6527B
:10270000FD0E0E0120155AE17E0E2015E8407F0BCC
:10271000040DF3CF03FEF4CF04FE000E0327040ED6
:10272000042303CE05FE04CE06FE057503CEE9FFA5
:1027300004CEEAFFEF503C0BE842E8420D083CE1D2
:1027400003CEE9FF04CEEAFF020EE926000EEA22DC
:10275000EECF14F0EFCF15F0280E141802E1040E9E
:10276000151828E103CEE9FF04CEEAFF020EE926A0
:10277000000EEA22200EEE6E040EED6EDF6ADF50D0
:10278000146E156A080E145C000E155813E2DF5023
:10279000EA6A280FE96E040EEA22EF50E66EDF5077
:1027A000EA6A200FE96E040EEA22E552E750EF6E66
:1027B000DF2AE5D70DD801D02ED805D0FD0E201583
:1027C000040801E14ED8E552E552E7CFD9FF1200E7
:1027D0000BCEE9FF0CCEEAFFEF50800B05E00BCEED
:1027E000E9FF0CCEEAFFEF6A0E010F6B106B146B62
:1027F000156B136BB9D8000EE66EE66AE66EE66AF4
:10280000170EE66EE66A23EC28F0146E060EE15E03
:10281000145061EF16F0020E0E01105D02E1B1DB03
:102820001FD06FD80E0121511AE105CEE9FF06CE67
:10283000EAFFEE52080EEF6E05CEE9FF06CEEAFF84
:10284000020EE926000EEA22200EEE6E040EED6E58
:1028500005CEE9FF06CEEAFF8C0EEF6E01D0216BAC
:102860001200D9CFE6FFE1CFD9FFE6520BCEE9FF48
:102870000CCEEAFFEF50400B01E0010EDF6E0E01BF
:102880000B75080E005D0DE122C438FF0F013851B1
:10289000000804E20E01100E006F03D00E01040EBA
:1028A000006F100528E10BCEE9FF0CCEEAFF020E07
:1028B000E926000EEA22280EEE6E040EED6ED6DA40
:1028C000020E0E010F5D07E10BCEE9FF0CCEEAFF11
:1028D000840EEF6E0FD0DF5007E10BCEE9FF0CCE78
:1028E000EAFFC80EEF6E06D00BCEE9FF0CCEEAFF72
:1028F000880EEF6E01D005D8E552E552E7CFD9FF3B
:102900001200D9CFE6FFE1CFD9FF020EE1260E017A
:10291000106B0BCEE9FF0CCEEAFFEF6A040E0B1929
:10292000146E0CCE15F014C0DEFF15C0DDFFDECF37
:10293000E9FFDDCFEAFFEF6A18AF0CD01B511C1185
:1029400007E005D01CCEFAFF0E011B51F96EFADF2D
:102950000E01189F020EE15C02E2E16AE552E16EAF
:10296000E552E7CFD9FF120004012051600BE84285
:10297000E842E842E842E842000901E058D021512B
:102980000C0A54E00B0A43E00C0A35E0010A26E089
:102990000B0A22E0020A20E0030A1CE0080A10E009
:1029A000010A0CE00F0A08E0030A01E03FD00E0123
:1029B000138F080E006F3BD0C8D839D080DB37D0DA
:1029C0000E01010E116F0E0E126F1381010E146FA6
:1029D000138F2DD014D92BD02BD829D024510E01F0
:1029E000116F126B020E11270E0E12231381010EAE
:1029F000146F138F1CD00E01138F04012451EA6A47
:102A0000020FE96E0E0EEA2222C4EFFF10D0000E74
:102A1000E66EE66AE66EE66A160EE66EE66A23EC97
:102A200028F0146E060EE15E145001D000D01200A2
:102A3000D9CFE6FFE1CFD9FF040EE126040122053C
:102A400010E120511F0B00090CE10E01138F030E42
:102A50000401215D04E10E01010E1F6F02D00E0181
:102A60001F6B0401225167E120511F0B020863E133
:102A700024510F0B00095FE00E01138F040124BFE6
:102A800010D024510F0BE96EEA6AD890E936EA3685
:102A9000070EE9260E0EEA22EECFDEFFEDCFDDFFB8
:102AA0000FD024510F0BE96EEA6AD890E936EA3666
:102AB0000B0EE9260E0EEA22EECFDEFFEDCFDDFF94
:102AC000030E215D07E1DECFE9FFDDCFEAFF840ED3
:102AD000EF6E31D024510F0B156A260F146E0F0EB6
:102AE0001522020E14C0DBFF030E15C0DBFF020E21
:102AF000DBCFE9FF030EDBCFEAFFEE90ED5224AF10
:102B00000DD0DECFE9FFDDCFEAFFEF6ADF74DECF65
:102B1000E9FFDDCFEAFF400EEF6E0DD0DECFE9FF1B
:102B2000DDCFEAFF880EEF6EDF74DECFE9FFDDCF89
:102B3000EAFFC80EEF6E040EE15C02E2E16AE552C4
:102B4000E16EE552E7CFD9FF1200800E0401205D4F
:102B500055E10E01C00E136F04012351030A2EE04C
:102B6000010A0EE0030A03E00E01136B47D00E01C9
:102B7000560E116F530E126F120E146F156B3ED05E
:102B80002251F66EF76AD890F636F736CA0EF62658
:102B9000530EF7220900F5CF11FE0A00F5CF12FE01
:102BA000020E0E01F76A1125F66E1251F722090086
:102BB000F5CF14FE0A00F5CF15FE20D0030E225DDE
:102BC0001AE22251F66EF76AD890F636F736CC0E36
:102BD000F626530EF7220900F5CF11FE0A00F5CFB5
:102BE00012FE11CEF6FF12CEF7FF0800F5500E01CF
:102BF000146F156B02D00E01136B00D01200D9CFE9
:102C0000E6FFE1CFD9FF020EE1260401286B296B14
:102C100020511F0B020A13E0030A0EE0010A01E033
:102C20003CD00E01138F02D0040128810E011F0534
:102C300002E10401288331D00E01138F2ED00E0142
:102C4000138F040124BF10D024510F0BE96EEA6AE0
:102C5000D890E936EA36070EE9260E0EEA22EECFC4
:102C6000DEFFEDCFDDFF0FD024510F0BE96EEA6AD6
:102C7000D890E936EA360B0EE9260E0EEA22EECFA0
:102C8000DEFFEDCFDDFFDECFE9FFDDCFEAFFEF5066
:102C9000040B02E0010E286F00D00E0113AF07D025
:102CA000280E116F040E126F1381020E146F020EA4
:102CB000E15C02E2E16AE552E16EE552E7CFD9FF5D
:102CC000120065980E0113BF4AD018AF28D0020E2B
:102CD000106F0BCEE9FF0CCEEAFFEE52EF6A0BCE7F
:102CE000E9FF0CCEEAFFC80EEF6E05CEE9FF06CE77
:102CF000EAFFEE52080EEF6E05CEE9FF06CEEAFFC0
:102D0000020EE926000EEA22280EEE6E040EED6E8B
:102D100005CEE9FF06CEEAFFC80EEF6E1FD005CE46
:102D2000E9FF06CEEAFFEE52080EEF6E05CEE9FF90
:102D300006CEEAFF020EE926000EEA22200EEE6E13
:102D4000040EED6E05CEE9FF06CEEAFF8C0EEF6EA7
:102D50000BCEE9FF0CCEEAFF840EEF6E86D018BFD3
:102D600084D0040120AF59D00E0114510401265D16
:102D70000E0115510401275904E226C414FE27C48C
:102D800015FE74D80E01010E106F05CEE9FF06CEB8
:102D9000EAFFEE52080EEF6E05CEE9FF06CEEAFF1F
:102DA000020EE926000EEA22200EEE6E040EED6EF3
:102DB00005CEE9FF06CEEAFF800EEF6E216B03CE53
:102DC000E9FF04CEEAFFEE52080EEF6E03CEE9FFF4
:102DD00004CEEAFF020EE926000EEA22200EEE6E75
:102DE000040EED6E03CEE9FF04CEEAFF840EEF6E13
:102DF000010E216F0BCEE9FF0CCEEAFF020EE92691
:102E0000000EEA22280EEE6E040EED6E0BCEE9FFE8
:102E10000CCEEAFFC80EEF6E28D00E01020E106F26
:102E20000BCEE9FF0CCEEAFFEE52EF6A0BCEE9FFC4
:102E30000CCEEAFFC80EEF6E05CEE9FF06CEEAFF24
:102E4000EE52080EEF6E05CEE9FF06CEEAFF020E47
:102E5000E926000EEA22280EEE6E040EED6E05CE77
:102E6000E9FF06CEEAFFC80EEF6E1200D9CFE6FFEB
:102E7000E1CFD9FF020EE1260E01080E145D000E0F
:102E800015590EE214CEDEFF15CEDDFF0F5103E122
:102E9000010E0F6F04D00F0502E1020E0F6F03D079
:102EA000080EDE6EDD6A0BCEE9FF0CCEEAFFEF9274
:102EB0000BCEE9FF0CCEEAFFEF900BCEE9FF0CCE74
:102EC000EAFF010EDB50EF120BCEE9FF0CCEEAFF5A
:102ED000EE52DFCFEFFF000EDB50145F010EDB5030
:102EE000155B280E1D6F040E1E6F13B121D0D9CFB4
:102EF000E9FFDACFEAFFEE50ED1019E011CEF6FF50
:102F000012CEF7FF112B000E12230800F550E66ECB
:102F10001DCEE9FF1ECEEAFF1D2B000E1E23E5523B
:102F2000E750EF6EDF06010E01E2DB06E0D71FD0AF
:102F3000D9CFE9FFDACFEAFFEE50ED1018E011CE5D
:102F4000E9FF12CEEAFF112B000E1223EF50E66EBE
:102F50001DCEE9FF1ECEEAFF1D2B000E1E23E552FB
:102F6000E750EF6EDF06010E01E2DB06E1D7020E4D
:102F7000E15C02E2E16AE552E16EE552E7CFD9FF9A
:102F80001200D9CFE6FFE1CFD9FF020EE12603CE32
:102F9000E9FF04CEEAFFEE52EFCFDFFFDFCF14F000
:102FA00014500E01195D000E1A5903E219CEDFFF0D
:102FB00009D0DF50146E156A1450195D196F155041
:102FC0001A591A6F010EDB6ADF50F36E010EDBCF68
:102FD000F4FFF350F45C16E2010EDB50EA6A280FAE
:102FE000E96E040EEA22EF50E66E16CEE9FF17CE28
:102FF000EAFF162B000E1723E552E750EF6E010E85
:10300000DB2AE2D7000ED8801955000E1A5528E2A7
:1030100005CEE9FF06CEEAFFEE52080EEF6E05CEB2
:10302000E9FF06CEEAFF020EE926000EEA22280E8C
:10303000EE6E040EED6E03CEE9FF04CEEAFFEF5014
:10304000400B07E105CEE9FF06CEEAFFC80EEF6EA2
:1030500006D005CEE9FF06CEEAFF880EEF6E25D03A
:1030600005CEE9FF06CEEAFFEE52080EEF6E05CE62
:10307000E9FF06CEEAFF020EE926000EEA22200E44
:10308000EE6E040EED6E05CEE9FF06CEEAFF840E6D
:10309000EF6E1B511C1107E005D01CCEFAFF0E018C
:1030A0001B51F96EFADF0E01189F020EE15C02E27D
:1030B000E16AE552E16EE552E7CFD9FF12000E0159
:1030C000138F000EE66EE66AE66A270EE66E0F0EB6
:1030D000E66E07EC2AF0146E050EE15E1450010E48
:1030E000E66EE66AE66A020EE66E0E0EE66E07EC25
:1030F0002AF0146E050EE15E145022C401FE040194
:10310000225104E10E01100E006F11D00E01200EAD
:10311000006F000EE66EE66AE66EE66A150EE66E73
:10312000E66A23EC28F0146E060EE15E14501200DD
:10313000D9CFE6FFE1CFD9FF020EE126000EDE6E09
:10314000040EDD6EFD0EDB50E824166EFE0EDB5025
:10315000040DF3501624040DF350146E156A020E7C
:103160000F0B05E0D89015321432E806FBE1D89039
:1031700014361536D89014361536D9CFE9FFDACF84
:10318000EAFF1450EE261550ED22DECFE9FFDDCF29
:10319000EAFFEF9EFD0EDB500FE1FE0EEA6ADB3424
:1031A000FE0BEA36E96E070EE9260E0EEA22DECFA6
:1031B000EEFFDDCFEDFF0ED0FE0EEA6ADB34FE0B34
:1031C000EA36E96E0B0EE9260E0EEA22DECFEEFF9E
:1031D000DDCFEDFFDECFE9FFDDCFEAFFEF9CDECFF5
:1031E000E9FFDDCFEAFF040EE926000EEA22EF8CAC
:1031F000020EE15C02E2E16AE552E16EE552E7CFE0
:10320000D9FF1200D9CFE6FFE1CFD9FF020EE126A8
:10321000FE0EDB50156A260F146E0F0E152214C019
:10322000DEFF15C0DDFFDECFE9FFDDCFEAFFFD0EDB
:10323000DBCFEFFFDBA407D0E66AFE0EDBCFE6FFB5
:1032400077DFE552E552FD0EDBA208D0010EE66EF7
:10325000FE0EDBCFE6FF6CDFE552E552020EE15CCD
:1032600002E2E16AE552E16EE552E7CFD9FF1200D2
:10327000D9CFE6FFE1CFD9FF020EE126FE0EDB50EB
:1032800020E105CEE9FF06CEEAFFEE52080EEF6E12
:1032900005CEE9FF06CEEAFF020EE926000EEA227D
:1032A000200EEE6E040EED6E05CEE9FF06CEEAFFAF
:1032B0008C0EEF6E0BCEE9FF0CCEEAFF840EEF6EA4
:1032C0003DD0FD0EDB50E824166EFE0EDB50040DE3
:1032D000F3501624040DF3CF14F0F4CF15F0000EC4
:1032E0001426040E152214C0DEFF15C0DDFF840E67
:1032F000146EDECFE9FFDDCFEAFF1450EF12FD0EB2
:10330000DB50E824166EFE0EDB50040DF35016243D
:10331000010F040DF3CF14F0F4CF15F0000E1426B6
:10332000040E152214C0DEFF15C0DDFF840E146EDE
:10333000DECFE9FFDDCFEAFF1450EF12020EE15CB1
:1033400002E2E16AE552E16EE552E7CFD9FF1200F1
:10335000D9CFE6FFE1CFD9FF020EE126FD0EDB500B
:103360000FE0FE0EEA6ADB34FE0BEA36E96E0B0E66
:10337000E9260E0EEA22EECFDEFFEDCFDDFF0ED006
:10338000FE0EEA6ADB34FE0BEA36E96E070EE9262A
:103390000E0EEA22EECFDEFFEDCFDDFFDECFE9FF3E
:1033A000DDCFEAFF020EE926000EEA22FB0EDBCF9C
:1033B000EEFFFC0EDBCFEDFFDECFE9FFDDCFEAFF56
:1033C000EE52FA0EDBCFEFFF400E146EDECFE9FFB8
:1033D000DDCFEAFF1450EF16880E146EDECFE9FF42
:1033E000DDCFEAFF1450EF12FD0EDB500CE0FE0EB5
:1033F000EA6ADB34FE0BEA36E96E0B0EE9260E0EA6
:10340000EA22EF740BD0FE0EEA6ADB34FE0BEA36DA
:10341000E96E070EE9260E0EEA22EF74DECF14F0F5
:10342000DDCF15F014C0F3FF15C0F4FF020EE15C10
:1034300003E200D0E16AE552E16EE552E7CFD9FF41
:103440001200D9CFE6FFE1CFD9FF010EF36EFC0EDB
:10345000DB5004E0D890F336E806FCE1F350E81CBA
:10346000146EFD0EDBCFE9FFFE0EDBCFEAFF14503A
:10347000EF16E552E7CFD9FF120006D0656A0F01BB
:10348000366B0E01006B00D012000E01005114E1EA
:10349000656A0F01366B160E396F9F0E376F7B0E04
:1034A000366FD08EA288A088F28E65B602D065866F
:0A34B000FCD70E01010E006F1200A0
:0634BA00D9CFE6FFE1CFCF
:1034C000D9FF020EE126DE6ADD6A040EE66E2E0EDC
:1034D000E66E0E0EE66EE1EC21F0E552E552E552A5
:1034E00001085CE1FF0EE76EFC0EDBCF14F0FD0E71
:1034F000DBCF15F0E7501416156A14C034FEFC0E2D
:10350000DBCF14F0FD0EDBCF15F015C014F0156AFB
:1035100014500E01356F040EE66E320EE66E0E0E7E
:10352000E66EE1EC21F0E552E552E552010836E1A4
:10353000FE0EDBCF37FE0E01386B396B040EE66EE4
:10354000360EE66E0E0EE66EE1EC21F0E552E55227
:10355000E552010823E1FD0EE66E000EE66E020E56
:10356000E66E280EE66E6CEC22F0E552E552E5526E
:10357000E552010813E10001FE51DE6EDD6ADECF87
:1035800014F0DDCF15F014C015F0146A14C0DEFF7E
:1035900015C0DDFFFD51DE26000EDD22DECF14F06A
:1035A000DDCF15F014C0F3FF15C0F4FF020EE15C8F
:1035B00003E200D0E16AE552E16EE552E7CFD9FFC0
:1035C0001200D9CFE6FFE1CFD9FFE652DF6A040E41
:1035D000E66E2E0EE66E0E0EE66EE1EC21F0E55282
:1035E000E552E55201084EE1FF0EE76EFC0EDBCF1F
:1035F00014F0FD0EDBCF15F0E7501416156A14C059
:1036000034FEFC0EDBCF14F0FD0EDBCF15F015C041
:1036100014F0156A14500E01356F040EE66E320E6A
:10362000E66E0E0EE66EE1EC21F0E552E552E55253
:10363000010828E1FE0EDBCF37FEFF0EE76EFA0E23
:10364000DBCF14F0FB0EDBCF15F0E7501416156A34
:1036500014C038FEFA0EDBCF14F0FB0EDBCF15F0F2
:1036600015C014F0156A14500E01396F040EE66E81
:10367000360EE66E0E0EE66EE1EC21F0E552E552F6
:10368000E552DF6EDF5000D0E552E552E7CFD9FFBB
:10369000120094800E01266B276B286B010E2A6F97
:1036A000050E296F16EC29F00E012B6F1200D9CFF1
:1036B000E6FFE1CFD9FF0A0EE126010EDF6E010E13
:1036C000F36E010EF3CFDBFF020EDB6A030EDB6A43
:1036D000040EDB6A050EDB6A060EDB6A070EDB6A88
:1036E000080EDB6A090EDB6AF80EDB500DE1040EF2
:1036F000F36EFC0EF3CFDBFF070EF36EFE0EF3CF7F
:10370000DBFF0E01010E2A6FFE0EDB500E01285D5D
:1037100005E1FC0EDB500E01295D0BE00E012A05D0
:1037200008E1FE0EDBCF28FEFC0EDBCF29FE0E01EA
:103730002A6B0E012A5101E09FD0FB0EDB5001E005
:103740009BD00E01285104E10E01010E2A6F94D086
:10375000E20E0E01261902E1110E271919E02BCEF7
:10376000E6FF1AEC29F0E5520A0811E216EC29F0FE
:103770000E012B6F400EE66EE66A0D0EE66E9DDEC4
:10378000E552E552E552F3CF26FEF4CF27FE74D082
:10379000840EE66EE66A0F0EE66E8FDEE552E552A7
:1037A000E552DE52F3CFDEFFF4CFDDFFDD52D9501C
:1037B000010FE96EDACFEAFFEE50ED105DE1160E73
:1037C0000E01285D10E1FD0EDBCFE6FFE66A700E0C
:1037D000E66EE66A090EE66EF4DE146E050EE15E34
:1037E0001450DF6E33D0070E0E01285D2FE1040E5A
:1037F0000E01295D0FE1010EE66EE66A720EE66EBD
:10380000E66A090EE66EDDDE146E050EE15E14500A
:10381000DF6E1CD0000EE66EE66A720EE66EE66A99
:10382000090EE66ECEDE146E050EE15E14500E013A
:103830002951E66EE66A850EE66EE66A0B0EE66EC6
:10384000C0DE146E050EE15E1450DF6EDF040FE182
:103850000E012851E66EE66A840EE66EE66A0B0EED
:10386000E66EAFDE146E050EE15E1450DF6EDF040F
:1038700003E10E01010E2A6F82B009D0F90EDBCFF1
:10388000E9FFFA0EDBCFEAFF010EEF6E07D0F90E6B
:10389000DBCFE9FFFA0EDBCFEAFFEF6AF80EDB5071
:1038A00001E0ACD00E012A0501E0A8D0F80EDBCF74
:1038B0002DFE0E012C6B16EC29F0E76E050EE7CFFE
:1038C000DBFFD950040FE66E000EDA20E66ED95009
:1038D000030FE66E000EDA20E66E2DEC1FF0E552C7
:1038E000E552E552E552360E0E012C5D53E2040E10
:1038F000DB5050E1050EDBCFE6FF1AEC29F0E55274
:10390000146E730E145C08E30E012C2B16EC29F0D8
:10391000E76E050EE7CFDBFFD950040FE66E000E11
:10392000DA20E66ED950030FE66E000EDA20E66E5E
:103930002DEC1FF0E552E552E552E552E66AE66AE3
:10394000E66AE66AF80EDBCFE6FF030EDBCFE6FFA2
:10395000040EDBCFE6FFD2EC25F0146E070EE15E1D
:103960001450040EDBCFE6FFD950090FE66E000EAF
:10397000DA20E66E030EDBCFE6FF070EDBCFE6FFB5
:10398000080EDBCFE6FF86EC28F0146E060EE15E33
:103990001450A9D7898A898C898E040EDBCFE6FF63
:1039A000D950090FE66E000EDA20E66E030EDBCF6B
:1039B000E6FF070EDBCFE6FF080EDBCFE6FF86EC67
:1039C00028F0146E060EE15E1450D950040FE66E16
:1039D000000EDA20E66ED950030FE66E000EDA20F4
:1039E000E66E2DEC1FF0E552E552E552E552040E6D
:1039F000DB5003E0F29E00EF00F0CFD70A0EE15C4F
:103A000002E2E16AE552E16EE552E7CFD9FF12002A
:103A1000D9CFE6FFE1CFD9FF040EE126DE6ADD6AE9
:103A2000020EDB6A030EDB6AFD0EDBCFE9FFFE0E42
:103A3000DBCFEAFFEF50DE6EDD6ADECF14F0DDCFC4
:103A400015F014C015F0146A14C0DEFF15C0DDFFB8
:103A5000010EE76EFD0EDBCFE9FFFE0EDBCFEAFFC6
:103A6000E750E926000EEA22EF50DE26000EDD22A6
:103A7000020EE76EFD0EDBCFE9FFFE0EDBCFEAFFA5
:103A8000E750E926000EEA22020EEFCFDBFF030E1D
:103A9000E76EFD0EDBCFE9FFFE0EDBCFEAFFE7505E
:103AA000E926000EEA22030EEFCFDBFFDBCFE6FFB5
:103AB000020EDBCFE6FFDECFE6FFDDCFE6FF11D85B
:103AC000E552E552E552E552146E040EE15C03E264
:103AD00000D0E16AE552E16E1450E552E7CFD9FF1C
:103AE0001200D9CFE6FFE1CFD9FF020EE126146A1A
:103AF000040E156EFD0EDBCF08F0FE0EDBCF09F0D5
:103B000014C00DF015C00EF021EC2AF008C0DEFF45
:103B100009C0DDFFFD0EDBCF14F0FE0EDBCF15F08C
:103B2000146A156A1450151003E0000E23D00DD04E
:103B3000FC0EDB50550803E0000E1CD006D0FB0E37
:103B4000DB50AA0802E0000E15D0F66ADF50F76ECF
:103B5000F86AD890F736F836F736F836140EA66EAF
:103B6000F29E550EA76EAA0EA76EA682F28EA6949E
:103B7000010E00D0146E020EE15C02E2E16AE55231
:103B8000E16E1450E552E7CFD9FF1200D9CFE6FF1E
:103B9000E1CFD9FF030EE126DE6ADD6A020EDB6AA1
:103BA000FD0EDBCFE9FFFE0EDBCFEAFFEF50DE6E4E
:103BB000DD6ADECF14F0DDCF15F014C015F0146A05
:103BC00014C0DEFF15C0DDFF010EE76EFD0EDBCF7A
:103BD000E9FFFE0EDBCFEAFFE750E926000EEA22FE
:103BE000EF50DE26000EDD22020EE76EFD0EDBCF6B
:103BF000E9FFFE0EDBCFEAFFE750E926000EEA22DE
:103C0000020EEFCFDBFFFB0EDBCFE6FFFC0EDBCFC0
:103C1000E6FF020EDBCFE6FFDECFE6FFDDCFE6FFFD
:103C200011D8146E050EE15E1450146E030EE15CA3
:103C300003E200D0E16AE552E16E1450E552E7CFAD
:103C4000D9FF1200D9CFE6FFE1CFD9FFE652DF6AF4
:103C5000FD0EDBCF14F0FE0EDBCF15F0146A156AF3
:103C60001450151003E0000E2BD00BD0000E0009ED
:103C700003E0000E25D005D0FC0EDB5002E1000E63
:103C80001FD0FD0EDBCFF6FFFE0EDBCFF7FFF86A8D
:103C9000DF6AFC0EDB50DF5C11E20900DF50E76EEB
:103CA000FA0EDBCFE9FFFB0EDBCFEAFFE750E92698
:103CB000000EEA22F5CFEFFFDF2AEBD7010E00D08E
:103CC000E552E552E7CFD9FF1200D9CFE6FFE1CFA9
:103CD000D9FF030EE126DE6ADD6A020EDB6AFD0E05
:103CE000DBCFE9FFFE0EDBCFEAFFEF50DE6EDD6AD1
:103CF000DECF14F0DDCF15F014C015F0146A14C037
:103D0000DEFF15C0DDFF010EE76EFD0EDBCFE9FF24
:103D1000FE0EDBCFEAFFE750E926000EEA22EF5065
:103D2000DE26000EDD22020EE76EFD0EDBCFE9FF80
:103D3000FE0EDBCFEAFFE750E926000EEA22020E74
:103D4000EFCFDBFF030EE76EFD0EDBCF14F0FE0EB0
:103D5000DBCF15F0E7501426000E152214C0E6FF45
:103D600015C0E6FF020EDBCFE6FFDECFE6FFDDCFBC
:103D7000E6FF11D8166E050EE15E1650146E030EA6
:103D8000E15C03E200D0E16AE552E16E1450E552D5
:103D9000E7CFD9FF1200D9CFE6FFE1CFD9FFE65236
:103DA000DF6AFD0EDBCF14F0FE0EDBCF15F0146AD8
:103DB000156A1450151003E0000E4AD00BD0000E07
:103DC000000903E0000E44D005D0FC0EDB5002E1F8
:103DD000000E3ED0FC0EDB50DF5C37E2DF50E76EBA
:103DE000FD0EDBCFF6FFFE0EDBCFF7FFE750F6262A
:103DF000000EF722F86ADF50E76EFA0EDBCFE9FF1C
:103E0000FB0EDBCFEAFFE750E926000EEA22EF5077
:103E1000F56E0D00DF2ADF50E76EFA0EDBCFE9FF0B
:103E2000FB0EDBCFEAFFE750E926000EEA22EF5057
:103E3000F56E0C00DF2A240EA66EF29E550EA76EBC
:103E4000AA0EA76EA682F28EC5D7A694010E00D048
:0A3E5000E552E552E7CFD9FF12005A
:063E5A00D9CFE6FFE1CF25
:103E6000D9FFE652DF6A0E01010E6F6F020EE66E99
:103E70006E0EE66E0E0EE66EE1EC21F0E552E552B6
:103E8000E5520E01716FD9CFE6FFDACFE6FF010EE2
:103E9000E66E480EE66E6CEC22F0E552E552E55215
:103EA000E5520E01716F080EDF14080809E1FD0EDE
:103EB000DBCFE9FFFE0EDBCFEAFF010EEF6E07D08E
:103EC000FD0EDBCFE9FFFE0EDBCFEAFFEF6A040E4B
:103ED000DF14040809E1FB0EDBCFE9FFFC0EDBCFAA
:103EE000EAFF010EEF6E07D0FB0EDBCFE9FFFC0E01
:103EF000DBCFEAFFEF6AE552E552E7CFD9FF1200C8
:103F0000D9CFE6FFE1CFD9FFE652DF6A0E010A0EF4
:103F10006F6F020EE66E6E0EE66E0E0EE66EE1EC52
:103F200021F0E552E552E5520E01716FD9CFE6FF5F
:103F3000DACFE6FF010EE66E480EE66E6CEC22F07C
:103F4000E552E552E552E5520E01716F100EDF1495
:103F5000100809E1FD0EDBCFE9FFFE0EDBCFEAFF23
:103F6000010EEF6E07D0FD0EDBCFE9FFFE0EDBCFBB
:103F7000EAFFEF6AE552E552E7CFD9FF1200D9CF49
:103F8000E6FFE1CFD9FFE652DF6AFB0EDB0403E177
:103F90007F0EDF6E0DD0FC0EDB0403E16F0EDF6ED3
:103FA00007D0FD0EDB0403E16F0EDF6E01D0DF688A
:103FB000DF5000D0E552E552E7CFD9FF1200D9CF4C
:103FC000E6FFE1CFD9FFFE0EDB5006E17F0EF36E78
:103FD000FE0EF3CFDBFF09D0FE0EDB50FF0805E13C
:103FE0006F0EF36EFE0EF3CFDBFF0E01020E6F6F4E
:103FF000FE0EDBCF70FE030EE66E6E0EE66E0E0E4C
:10400000E66EE1EC21F0E552E552E5520E01716FEA
:10401000E552E7CFD9FF1200D9CFE6FFE1CFD9FFB4
:104020000A0EE126DF6ADE52480EDD6E020EF36EE6
:10403000F3CFDBFF0F0EF36E030EF3CFDBFF480E63
:10404000F36E040EF3CFDBFF0C0EF36E050EF3CF11
:10405000DBFF060EDB6A480EF36E070EF3CFDBFFC5
:10406000050EF36E080EF3CFDBFF010EF36E090EA3
:10407000F3CFDBFFDF6A090EDF5C1AE2030EE66EA8
:10408000D950010F166EDACF17F0DF500001162459
:10409000146E000E1720156E14C0E6FF15C0E6FF63
:1040A000E1EC21F0E552E552E552030EDF26E3D7BD
:1040B000FE0EDB50FF0802E1FE0EDB6A0E010B0E66
:1040C0006F6FFE0EDBCF70FE030EE66E6E0EE66EB9
:1040D0000E0EE66EE1EC21F0E552E552E5520E01DE
:1040E000716F040E6F6F480E706F030EE66E6E0EEA
:1040F000E66E0E0EE66EE1EC21F0E552E552E55279
:104100000E01716FFA0EDBCFE6FFFB0EDBCFE6FF91
:10411000FC0EDBCFE6FFFD0EDBCFE6FF9EDEE552B9
:10412000E552E552E55216EC29F00E01736F0A0EC6
:10413000E15C02E2E16AE552E16EE552E7CFD9FFC8
:104140001200D9CFE6FFE1CFD9FF020EE126DF6AE8
:10415000010EDB6A73CEE6FF1AEC29F0E552146E0D
:10416000050E145C52E316EC29F00E01736FF80E85
:10417000DB504BE174510AE1F60EDBCFE6FFF70EA0
:10418000DBCFE6FFBDDEE552E55211D0FB0EDBCF03
:10419000E6FFFC0EDBCFE6FFFD0EDBCFE6FFFE0EFB
:1041A000DBCFE6FF5ADEE552E552E552E5520E015D
:1041B000742B010E7417F90EDBCFE6FFFA0EDBCF7E
:1041C000E6FFFB0EDBCFE9FFFC0EDBCFEAFFEF5093
:1041D000E66EFD0EDBCFE9FFFE0EDBCFEAFFEF5010
:1041E000E66ECDDEE552E552E552E552E76E010E90
:1041F000E7CFDBFFDB500E01725D07E0010EDBCF86
:1042000072FE72CEE6FFDBDEE552020EE15C02E2F8
:0E421000E16AE552E16EE552E7CFD9FF1200F8
:02421E009368A3
:104220008A8A8A880E01786B1200D9CFE6FFE1CF27
:10423000D9FFE652DF6ADF6A030EDF5C02E2DF2AA3
:10424000FBD7E552E552E7CFD9FF1200D9CFE6FF01
:10425000E1CFD9FFE652DF6ADF6A080EDF5C18E2C1
:10426000FE0EDB50800B800802E18A8A01D08A9A18
:1042700023D9070EDF5C03E1EF0E93128A8AFE0E4C
:10428000DB50020DFE0EF3CFDBFFCFDFDF2AE5D7D9
:10429000E552E552E7CFD9FF1200D9CFE6FFE1CFD3
:1042A000D9FFE652DF6A0FD8FE0EDB50E824FE0B82
:1042B000E66E40D8E552DF6EDF5000D0E552E552A1
:1042C000E7CFD9FF12000E01780506E111D8ADDF66
:1042D000ACDFABDFAADFA9DF0E01010E786FCF0ED6
:1042E00093168A9AA2DF8A98A0DF010E00D01200EE
:1042F0009CDF8A889ADF8A8A0E01786B9368010EA8
:1043000000D01200D9CFE6FFE1CFD9FFE652010E6F
:10431000DF6E8BDF8A8889DF81BADF6A8A988A9AA2
:10432000CF0E931682DFDF5000D0E552E552E7CF83
:10433000D9FF1200D9CFE6FFE1CFD9FFFE0EDBCFC8
:10434000E6FF84DFE552DEDF00D0E552E7CFD9FF9C
:104350001200D9CFE6FFE1CFD9FF020EE126010E10
:10436000DF6EDB6ADB6AFC0EDB50F36E010EDBCF27
:10437000F4FFF350F45C17E2DF0415E1010EDB50AB
:10438000E76EFD0EDBCFE9FFFE0EDBCFEAFFE75065
:10439000E926000EEA22EF50E66ECCDFE552DF6E32
:1043A000010EDB2AE0D7DF50146E020EE15C03E25F
:1043B00000D0E16AE552E16E1450E552E7CFD9FF33
:1043C0001200D9CFE6FFE1CFD9FF020EE126DF6A66
:1043D000010EDB6A78DFFD0EDBCFE9FFFE0EDBCFDF
:1043E000EAFFEF50E824FE0BE66EA4DFE552DF6E35
:1043F000DF0423E1DE52010EDD6EFC0EDB50F36EB6
:10440000010EDBCFF4FFF350F45C17E2DF0415E19B
:10441000010EDB50E76EFD0EDBCFE9FFFE0EDBCFBA
:10442000EAFFE750E926000EEA22EF50E66E82DF4F
:10443000E552DF6E010EDB2AE0D75ADFDF50146E43
:10444000020EE15C03E200D0E16AE552E16E145035
:10445000E552E7CFD9FF1200D9CFE6FFE1CFD9FF70
:10446000020EE126DF6A010EDB6AEF0E9312DF6AAD
:10447000080EDF5C10E2D9DE8A88D7DE010EDB5041
:10448000020D010EF3CFDBFF81BADB80CEDE8A980E
:10449000CCDEDF2AEDD7CF0E9316010EDB50146E63
:1044A000020EE15C03E200D0E16AE552E16E1450D5
:1044B000E552E7CFD9FF1200B8DE8A88B6DEB5DE56
:1044C0008A9812008A8AF8DF8A9A15EF21F08A9A70
:1044D000F3DF8A9A15EF21F0D9CFE6FFE1CFD9FFBC
:1044E000020EE126DF6A010EDB6AEDDEFE0EDB5016
:1044F000E8240109E66E1EDFE552DF6EDF042AE1E3
:10450000010EDB6AFD0EDB50F36E010EDBCFF4FF14
:10451000F350F45C1FE2A0DFE66E010EDB50E76EA5
:10452000FB0EDBCFE9FFFC0EDBCFEAFFE750E9260D
:10453000000EEA22E552E750EF6EFD0EDB04F36E4B
:10454000010EDB50F35C02E1BDDF01D0C0DF010EE4
:10455000DB2AD8D7CDDEDF50146E020EE15C03E219
:1045600000D0E16AE552E16E1450E552E7CFD9FF81
:02457000120037
:0E457200938C9484948E9280928292840E0197
:10458000696B050E6D6F686B1200D9CFE6FFE1CF46
:10459000D9FFE652DF6A80B402D0000EDF8082AC21
:1045A000DF8282AEDF8481ACDF868050020B03E0C5
:1045B0000E016C5101E0DF8880A0DF8ADF5000D05F
:1045C000E552E552E7CFD9FF1200D9CFE6FFE1CFA0
:1045D000D9FF16EC29F00E016B6FFE0EDBCF6AFEE1
:1045E000010E696FE552E7CFD9FF1200D9CFE6FF80
:1045F000E1CFD9FFF60EDBCF6CFE0E01690548E175
:104600006BCEE6FF1AEC29F0E552146E0E016A51EA
:10461000D88014543CE2FD0EDBCFE9FFFE0EDBCF69
:10462000EAFFEF50160814E1FD0EDBCFE9FFFE0EA6
:10463000DBCFEAFF170EEF6EF70EDBCFE9FFF80EC8
:10464000DBCFEAFFEF6A050EE66EBFDFE5521FD053
:10465000FD0EDBCFE9FFFE0EDBCFEAFFEF501708C0
:104660000EE1050E6D6FFD0EDBCFE9FFFE0EDBCF19
:10467000EAFFEF6A050EE66EA8DFE55208D0696B27
:10468000FD0EDBCFE9FFFE0EDBCFEAFFEF6A0BD1B9
:10469000F70EDBCFE9FFF80EDBCFEAFFEF50010B9F
:1046A000010804E08050040B01E07BD0F70EDBCF63
:1046B000E9FFF80EDBCFEAFFEF50010B01081BE02A
:1046C000F90EDBCFE9FFFA0EDBCFEAFFEF6A16EC5B
:1046D00029F00E01676FF70EDBCFE9FFF80EDBCF95
:1046E000EAFF030EEF6E010EE66E6FDFE5520E017C
:1046F000010E686F55D067CEE6FF1AEC29F0E5523F
:10470000146E1E0E145C36E280B429D00E0168517E
:104710001FE1F90EDBCFE9FFFA0EDBCFEAFFEF2A4C
:10472000F90EDBCFE9FFFA0EDBCFEAFFEF5002080C
:1047300007E2F90EDBCFE9FFFA0EDBCFEAFFEF6A03
:10474000F70EDBCFE9FFF80EDBCFEAFF030EEF6ECB
:1047500016EC29F00E01676F010E686F0AD0F70E94
:10476000DBCFE9FFF80EDBCFEAFF010EEF6E0E01A3
:10477000686B16D0F70EDBCFE9FFF80EDBCFEAFF50
:10478000040EEF6EFD0EDBCFE9FFFE0EDBCFEAFF7E
:10479000160EEF6E0E01686BC80EE66E16DFE55260
:1047A00082D082BC0DD0FD0EDBCFE9FFFE0EDBCF49
:1047B000EAFF0D0EEF6E050EE66E07DFE55273D0D1
:1047C00082BE0DD0FD0EDBCFE9FFFE0EDBCFEAFF90
:1047D0000E0EEF6E050EE66EF8DEE55264D08050E8
:1047E000020B1BE08050010B18E06C5116E1040E27
:1047F0006D5D12E0040E6D6FFB0EDBCFE9FFFC0E6A
:10480000DBCFEAFF040EEF6EFD0EDBCFE9FFFE0EFD
:10481000DBCFEAFF070EEF6E46D081BC16D0020E4A
:104820006D5D12E0020E6D6FFB0EDBCFE9FFFC0E3B
:10483000DBCFEAFF020EEF6EFD0EDBCFE9FFFE0ECF
:10484000DBCFEAFF070EEF6E2ED08050020B02E0A6
:104850006C5113E06D5110E06D6BFB0EDBCFE9FF87
:10486000FC0EDBCFEAFFEF6AFD0EDBCFE9FFFE0EA9
:10487000DBCFEAFF070EEF6E16D080B014D06D05C7
:1048800012E0010E6D6FFB0EDBCFE9FFFC0EDBCFFC
:10489000EAFF010EEF6EFD0EDBCFE9FFFE0EDBCF70
:0E48A000EAFF070EEF6EE552E7CFD9FF1200D8
:0248AE00DACF5F
:1048B000E4FFE2CFDAFFE9CFE4FFEACFE4FFF6CF8F
:1048C000E4FFF7CFE4FFF5CFE4FFF3CFE4FFF4CF4D
:1048D000E4FFFACFE4FF00EE00F0140EE80403E377
:1048E000EECFE4FFFBD700EE14F0040EE80403E380
:1048F000EECFE4FFFBD7E652FC0ED3140009D36ED3
:1049000056EC29F046EC12F0E55200EE17F0040EDA
:10491000E80403E3E5CFEDFFFBD700EE13F0140E40
:10492000E80403E3E5CFEDFFFBD7E5CFFAFFE5CFE2
:10493000F4FFE5CFF3FFE5CFF5FFE5CFF7FFE5CFD8
:10494000F6FFE5CFEAFFE5CFE9FFE5CFDAFF11009B
:10495000D8CFE4FFE0CFE4FFE46EDACFE4FFE2CFAC
:10496000DAFFE652FC0ED3140009D36EE552E5CF10
:10497000DAFFE550E5CFE0FFE5CFD8FF1000D9CF53
:10498000E6FFE1CFD9FF020EE126580EDE6E020EE1
:10499000DD6E9B8CDFCF14F0DF06010EDBCF15F050
:1049A00001E2DB061450151001E0F4D70F0148694D
:1049B0000F0149693BEC27F0000902E10EEF00F01E
:1049C000020EE15C02E2E16AE552E16EE552E7CFF8
:1049D000D9FF1200D4DF0FEC21F014EC29F07EECAB
:1049E00028F09DEC25F0B9EC22F007EC08F052EC31
:1049F00008F049EC1BF0540EE66E0E0EE66EBBECB2
:104A000026F0E552E552550EE66E0E0EE66E510E9C
:104A1000E66E0E0EE66E54CEE6FF0CEC20F0146E41
:104A2000050EE15E145098EC27F0580EE66E0E0E5F
:104A3000E66EAFEC27F0E552E55255CEE6FF500E9C
:104A4000E66E0E0EE66E51CEE6FF58CEE6FF59CE6C
:104A5000E6FF86EC28F0146E060EE15E14505BCE85
:104A6000E6FF530EE66E0E0EE66E4F0EE66E0E0E6F
:104A7000E66E520EE66E0E0EE66E4E0EE66E0E0EF2
:104A8000E66EF6EC22F0146E090EE15E14505A0E3A
:104A9000E66E0E0EE66E560EE66E0E0EE66E570EC5
:104AA000E66E0E0EE66E4DEC11F0146E060EE15E33
:104AB000145050CEE6FF5C0EE66E0E0EE66E5ACE39
:104AC000E6FF52CEE6FF4FCEE6FF4ECEE6FF57ECB6
:104AD0001BF0146E070EE15E14505B0EE66E0E0EB8
:104AE000E66E5ACEE6FF56CEE6FF57CEE6FF550EEF
:104AF000E66E0E0EE66E510EE66E0E0EE66EA1EC42
:104B000020F0146E090EE15E14505CCEE6FF5ACE22
:104B1000E6FF4FCEE6FF53CEE6FF50CEE6FF51CE86
:104B2000E6FF55CEE6FFD2EC25F0146E070EE15EEF
:0A4B3000145009EC08F079D71200C8
:064B3A001F0E8916921601
:104B4000898A898C898E16EC29F00E013A6F120041
:104B5000898A898C898E1200D9CFE6FFE1CFD9FFEF
:104B6000FE0EDBCF3EFEE552E7CFD9FF12000E016D
:104B70003E5115E0010E3E15010802E1899A01D06F
:104B8000898A020E3E15020802E1899C01D0898CB7
:104B9000040E3E15040802E1899E01D0898E3E5123
:104BA00000D01200D9CFE6FFE1CFD9FFE0DF000946
:104BB00001E0DAD0898A898C898EF90EDB0409E15B
:104BC00016EC29F0010B010802E1899A01D0898ACB
:104BD000CBD0FB0EDB50010B01080CE1FB0EDB50D0
:104BE000020B020802E1899C04D0FE0EDB0401E105
:104BF000899ABAD0FB0EDB50040B040856E1F80E7C
:104C0000DB0402E1899C50D03ACEE6FF1AEC29F091
:104C1000E552140805E3FA0EDB500E013D5D04E099
:104C200016EC29F00E013A6F3ACEE6FF1AEC29F0A5
:104C3000E552FE0BE8420E013C6F050E3C5D2DE295
:104C4000FA0EDB500CE13C51EA6A3F0FE96E0E0EA2
:104C5000EA22EF50E8B0898CE8A0899C1ED0FA0EB9
:104C6000DB040CE13C51EA6A440FE96E0E0EEA22C5
:104C7000EF50E8B0898CE8A0899C0FD0FA0EDB5089
:104C800002080BE13C51EA6A490FE96E0E0EEA2276
:104C9000EF50E8B0898CE8A0899C8950400B04E073
:104CA000FE0EDB0401E1899A5FD0FE0EDB0425E1F4
:104CB000FD0EDB0406E1899A16EC29F00E013A6F2D
:104CC0001BD03ACEE6FF1AEC29F0E552146E0F0E17
:104CD000145C02E2899E10D03ACEE6FF1AEC29F06D
:104CE000E552146E140E145C06E316EC29F00E0166
:104CF0003A6F899E01D0899A37D0FC0EDB0403E01D
:104D0000FC0EDB5019E13ACEE6FF1AEC29F0E55231
:104D1000146E140E145C05E316EC29F00E013A6FC4
:104D20000AD03ACEE6FF1AEC29F0E552146E010ED5
:104D3000145C01E2899C18D03ACEE6FF1AEC29F007
:104D4000E552146E190E145C05E316EC29F00E0101
:104D50003A6F0AD03ACEE6FF1AEC29F0E552146E0B
:104D6000010E145C01E2899EFA0EDBCF3DFEE55296
:064D7000E7CFD9FF12009D
:0A4D7600D9CFE6FFE1CFD9FFFD0E13
:104D8000DBCFE6FFFE0EDBCFE6FF010EE66EE66A46
:104D9000FC0EE66E22EC1EF0146E050EE15E145061
:104DA000010E00D0E552E7CFD9FF1200D9CFE6FFC0
:104DB000E1CFD9FFE652DF6ADF50DF2AE76EFD0E52
:104DC000DBCFE9FFFE0EDBCFEAFFE750E926000E5E
:104DD000EA22FC0EEF6EDF50DF2AE76EFD0EDBCF1E
:104DE000E9FFFE0EDBCFEAFFE750E926000EEA22DC
:104DF000EF6ADF50DF2AE76EFD0EDBCFE9FFFE0E24
:104E0000DBCFEAFFE750E926000EEA22040EEF6E40
:104E1000DF50DF2AE76EFD0EDBCFE9FFFE0EDBCFB2
:104E2000EAFFE750E926000EEA22EF6ADF50DF2AA8
:104E3000E76EFD0EDBCFE9FFFE0EDBCFEAFFE750AA
:104E4000E926000EEA22010EEF6EDF50DF2AE76E40
:104E5000FD0EDBCFE9FFFE0EDBCFEAFFE750E926D0
:104E6000000EEA22020EEF6EDF5000D0E552E5524E
:104E7000E7CFD9FF1200D9CFE6FFE1CFD9FFE65245
:104E8000DF6AD9CFE6FFDACFE6FF010EE66EE6680D
:104E9000FB0EE66E22EC1EF0146E050EE15E145061
:104EA000AA0EDF5C03E0000E03D002D0010E00D09A
:0A4EB000E552E552E7CFD9FF1200EA
:064EBA00FAC0F3FFFBC08B
:104EC000F4FF00D01200D9CFE6FFE1CFD9FF020EE8
:104ED000E126DE6ADD6AC2A204D00001010EFC6F89
:104EE000FAD70001FC6BC450DE6EDD6ADECF14F031
:104EF000DDCF15F014C015F0146A14C0DEFF15C024
:104F0000DDFFC350DE26000EDD22DECF14F0DDCF44
:104F100015F014C0F3FF15C0F4FF020EE15C03E2CC
:104F200000D0E16AE552E16EE552E7CFD9FF120009
:104F3000690EC26E0F0149950001AA0EFA6F020EAA
:104F4000FB6FFC6BFB0EC16EC282C2A203D0010ECE
:104F5000FC6FFBD7FC6BBB0EC16EC2821200D9CFB7
:104F6000E6FFE1CFD9FF020EE126DE6ADD6AABDFA4
:104F7000F3CFDEFFF4CFDDFFDECF16F0DDCF17F08D
:104F8000070E086E096AFAC00DF0FBC00EF0E9ECDE
:104F900029F006501624146E07501720156E030EC4
:104FA000D89015321432E804FBE114C0FAF015C0B1
:104FB000FBF0FD0EDBCFE9FFFE0EDBCFEAFFFAC010
:104FC000EEFFFBC0EDFFC282020EE15C02E2E16A8D
:0C4FD000E552E16EE552E7CFD9FF120078
:044FDC000001010EC1
:104FE000FF6F12000001FF6B12001200120012008E
:104FF00012001E0EE66E010EE66E02EC19F0E5528E
:10500000E552400EE66E600EE66E000EE66EE66A53
:10501000010EE66EA8EC19F0146E050EE15E145058
:10502000F3CFE0F0F4CFE1F0120065840001080E48
:10503000E46F070EE56FE407000EE55BE451E51150
:10504000FAE165941200D9CFE6FFE1CFD9FFFD0E5A
:10505000DBCF08F0FE0EDBCF09F0010E081801E1EE
:10506000095033E0E868081802E1E86809182BE005
:10507000030E081801E1095024E0040E081801E1AC
:1050800009501DE0020E081801E1095016E0170E44
:10509000081801E109500FE0160E081801E1095047
:1050A00008E0150E081801E1095001E010D0A1DF59
:1050B0000FD09EDF0DD09BDF0BD097DF09D08EDFA6
:1050C00007D090DF05D092DF03D0000001D000D0E0
:1050D000010E00D0E552E7CFD9FF12000001E06BCE
:1050E000E16BE26BE36BECEC11F045EC1AF00001C4
:0C50F000FF6B12000001FF5100D0120005
:0450FC000F014D9FB4
:10510000D38EFC0ED3140009D36E1200D9CFE6FF64
:10511000E1CFD9FFFA0EDBCFE9FFFB0EDBCFEAFFD1
:10512000EF5001E138D0FD0EDBCF14F0FE0EDBCFE7
:1051300015F0790E145C020E155808E2FA0EDBCF5A
:10514000E9FFFB0EDBCFEAFFEF6A25D0FA0EDBCFDB
:10515000E9FFFB0EDBCFEAFFEF0401E11CD0FD0EFF
:10516000DBCF14F0FE0EDBCF15F0A80E145C020EA0
:10517000155809E2FA0EDBCFE9FFFB0EDBCFEAFFA1
:10518000010EEF6E08D0FA0EDBCFE9FFFB0EDBCF8E
:10519000EAFF020EEF6EF90EDB500EE10EEC29F085
:1051A000FC0ED3140309D36E65B6659203000300A9
:1051B000FC0ED3140009D36EFA0EDBCFE9FFFB0E11
:1051C000DBCFEAFFEFCF77FEF90EDB500DE0FA0EF2
:1051D000DBCFE9FFFB0EDBCFEAFF020EEF6E65B619
:1051E00003D0658252EC08F0E552E7CFD9FF1200F8
:1051F000D59CD59AD596F80ED5140309D56ED66AE6
:10520000D76AD58EF184F294F28A1200310E796E4B
:10521000A192A282A0827A6A7B6A1200A0927A6A24
:10522000E90E7B6EA082120006EF29F00E01755187
:1052300000D01200D9CFE6FFE1CFD9FFE652F6DF6A
:10524000DF6EFE0EDB50DF5C04E3FE0EDB50DF5E44
:105250000CD0FE0EDB50146E156AFF0ED88014566B
:10526000000E1556010E1424DF26DF5000D0E55243
:10527000E552E7CFD9FF1200F2940E01760503E163
:10528000752B766B01D0762BD59ED66AD76AD58ED4
:105290001200A1920E01760503E1752B766B01D009
:1052A000762BA0927A6A7B6AA0821200020EA11469
:0852B000020801E1EEDF12002B
:0852B8001E0EF66E100EF76EDB
:1052C000000EF86E0E010900F550626F0900F550EE
:1052D000636F03E1626701D03DD00900F5505D6F57
:1052E0000900F5505E6F0900F5505F6F0900090075
:1052F000F550E96E0900F550EA6E09000900090051
:10530000F550606F0900F550616F09000900F6CF94
:1053100064FEF7CF65FEF8CF66FE5DCEF6FF5ECE8B
:10532000F7FF5FCEF8FF0E01605302E1615307E023
:105330000900F550EE6E6007F8E26107F9D764CE18
:10534000F6FF65CEF7FF66CEF8FF0E016207000E8E
:06535000635BBFD71200F1
:0A5356001201000200000008F0162A
:10536000040000000102000109022000010100C048
:10537000320904000002FFFFFF00070501024000A0
:1053800001070581024000010403090416034700D8
:105390004E002000480065006100720069006E0048
:1053A0006700280341006300630065007300730019
:1053B0006F0072007900200049006E0074006500E3
:1053C00072006600610063006500685388538C5367
:0253D000A253E6
:0E53D20008C012F008500D02F4CF07F0F3CF20
:1053E00006F009500E02F4CF09F0F3CF08F00D02D9
:1053F000F3500726F4500822E86A092212500E02E0
:0E540000F3500726F4500822E86A0922000C37
:02540E00FE0E90
:10541000E3CFE9FFFF0EE3CFEAFFE9CFF3FFEACFE7
:10542000F4FFFB0EE35003E1FC0EE35009E0FB0E3A
:10543000E30602E2FC0EE306FD0EE350EE6EF1D74A
:02544000120058
:0E544200056A046A100EE76ED8900836093627
:10545000043605360D50045C0E50055805E30D501A
:0E546000045E0E50055A082AE72EF0D71200FF
:02546E00C00E6E
:10547000F36E00EE00F00E0E01D81200EA6002D0CA
:0E548000EE6AFCD7F350E9601200EE6AFCD72A
:02548E001DEE11
:1054900000F02DEE00F0F86A019C5CEC29F003ECC2
:0A54A00008F0EAEC24F0FBD712003C
:0654AA00000002000000FA
:0954B000000100000200000000F0
:0754B90053706F757365204D
:0D54C0004D6963726F70686F6E65000000CB
:0254CD000000DD
:0154CF0000DC
:1054D0000000050100003328020000280300002816
:0354E000000000C9
:0D54E30000FF0000000001010101000100B8
:0754F00001010001000100B1
:0754F70000000000000005A9
:0254FE000000AC
:0155000000AA
:07550100480000000000005B
:0155080000A2
:01FFF800AC5C
:01FFF900F710
:01FFFA001AEC
:01FFFB00FA0B
:01FFFC0063A1
:01FFFD00F80B
:01FFFE008181
:01FFFF00F110
:01FBFF00AA5B
:00000001FF
