:020000040000FA
:10B400000248854602488047024800470040002025
:10B4100041E7000019B400000348854600F0A0FA97
:10B4200000480047494F010000400020401E00BF77
:10B4300000BF00BF00BF00BF00BF00BF00BF00BF14
:10B4400000BF00BF00BFF1D170470000401E00BF29
:10B4500000BF00BF00BF00BF00BF00BF00BF00BFF4
:10B4600000BF00BF00BFF1D170470000401E00BF09
:10B4700000BF00BF00BF00BF00BF00BF00BF00BFD4
:10B4800000BF00BF00BFF1D1704770B50024254652
:10B49000002801DA01244042002901DA012549424D
:10B4A00000F0B4F9AC4200D04042002C00D0494238
:10B4B00070BD10B5431A934209D28318881803E06F
:10B4C000401E01785B1E1970521EF9D210BD034652
:10B4D0000B439B0703D009E008C9121F08C0042AC8
:10B4E000FAD203E00B78491C0370401C521EF9D2BB
:10B4F00010BDD2B201E00270401C491EFBD2704761
:10B500000022F6E710B513460A4604461946FFF72F
:10B51000F0FF204610BD30B504460020034600E091
:10B520005B1C934203D2E05CCD5C401BF8D030BD85
:10B53000001D0321401E037812021A43491EF9D54B
:10B5400010467047034603220870491C000A521E29
:10B55000FAD5184670470000F0B50746084658402F
:10B5600087B0C00F049048000E46590040084908B3
:10B57000BC1A884105D2384631461E4617460B464E
:10B58000024658004008104303D13846314607B000
:10B59000F0BD300D039040055900400D490D059058
:10B5A000401A029040286DDA18030121000B0905AA
:10B5B0000843019004980092002805D00199524256
:10B5C0000020884100920190029840210A1A0199B6
:10B5D000009800F031F905460C46684607C800F0AF
:10B5E0004CF9C0197141039A0E0D0023D71756402C
:10B5F0001A467A40164340D0049A002A29D0029A6B
:10B60000012A039A11DC1205C01A91410126360560
:10B61000001C7141D20F059ED20700930192029641
:10B620002A46234600F049F9B1E71605224A0F469B
:10B63000B218C01AB74101210905001C4F4100187A
:10B640007F41114618187941E20F10436D1964418A
:10B6500013E0E2076D0815436408C2071443039A18
:10B6600001261205C01A91413605001C7141CE0712
:10B67000400830434908C01851412A46234600F08B
:10B680000FF984E7049801224000C117121A002321
:10B690008B4104983146C417381AA141EFE730B402
:10B6A0000124E407634030BC56E730B40124E407CA
:10B6B000614030BC50E700000000E0FFF0B51FB46F
:10B6C00088B00B990998002448400999C00F490097
:10B6D00049080991C0070B990090490049080B914E
:10B6E00009990898A646084303D00B990A9808437D
:10B6F00003D1002001460DB0F0BD0998012440009F
:10B70000420D4800410D099824050003000B204319
:10B7100009900B980003000B20430B9050181A4916
:10B720004018002201901446104601E0032801DA77
:10B73000034600E003239C46C11A0AAE0AE05F00FC
:10B7400008ADED5B4F00F75B7D430027AA187C41F5
:10B750005B1E491C6145F2DD410004AB5A522104D5
:10B76000120C0A43240C401C0828DFDB01980290CD
:10B770000099704601910090059B049A07990698DC
:10B7800000F09BF8B7E700000DFCFFFF0EB5C217F5
:10B79000C10F5040CA0740180021054B0293019287
:10B7A00000910A460B4600F088F803B000BD000087
:10B7B000330400000EB505490291002100910A46AC
:10B7C0000B46019100F079F803B000BD330400008E
:10B7D0004A0009030123090B1B051943094B10B546
:10B7E000520D9A4201DA002010BD064B34339A42C2
:10B7F00003DC9A1A00F030F810BD03495118884054
:10B8000010BD0000FF030000CDFBFFFF30B50B466D
:10B81000014600202022012409E00D46D5409D422A
:10B8200005D31D469540491B2546954040191546B0
:10B83000521E002DF1DC30BD10B5202A04DB01467C
:10B84000203A9140002010BD914020239C1A0346CD
:10B85000E3401943904010BD10B5202A04DB084690
:10B86000203AD040002110BD0B46D340D0402024C8
:10B87000A21A91400843194610BD10B5202A06DBD4
:10B88000CB170846203A1041C1170B4306E00B4680
:10B890001341D0402024A21A91400843194610BDFC
:10B8A00010B5002B08DA0024401C614192185B415E
:10B8B0001A4301D14008400010BDF0B51FB482B05A
:10B8C00005460C0003D0084604F0A0FA02E004F09C
:10B8D0009DFA20300246009021462846FFF7ACFF33
:10B8E000049B059A04460F4618431143084303D1AD
:10B8F0002046394607B0F0BD1846104317D00098CF
:10B9000040210A1A18460599FFF7A6FF05460E467C
:10B91000009A05990498FFF78FFF084301D0012092
:10B9200000E00020C11705430E432C433743009924
:10B930000E986305401A7905E40A0A3000220C4388
:10B94000FD0A002802DA00200146D3E7010510199C
:10B9500069410C9C0D9D00196941FFF7A1FFC9E7E2
:10B96000064C0125064E05E02046E36807C82B4338
:10B9700098471034B442F7D3FFF752FDCC7801005A
:10B980001C79010070B58C180578401C6B075B0FA3
:10B9900001D10378401C2A1106D10278401C03E033
:10B9A0000678401C0E70491C5B1EF9D12B0705D48C
:10B9B0000023521E0DD40B70491CFAE70378401C7B
:10B9C000CB1A921C03E01D785B1C0D70491C521EA3
:10B9D000F9D5A142D8D3002070BD0000EFF3038059
:10B9E0003F210840800001214907405800470120BD
:10B9F0004007583000680047012040076430006865
:10BA000000470120400768300068004701204007D8
:10BA10006C30006800470120400784300068004710
:10BA2000FEE76846714604207146084202D0EFF3F3
:10BA300009800847EFF308800847FEE7FEE7FEE7C6
:10BA400001DF000000201C4948607F20C0051B4921
:10BA50004861002048600220194908600521090753
:10BA60000722120289184860052109078918886091
:10BA7000052109078918C860052109078918086187
:10BA80000521090789184861052109078918886176
:10BA9000052109078918C861052109078918086265
:10BAA0000521090789180863052109078918886392
:10BAB0000120014908607047000500400005005062
:10BAC0000007005010B506220421052002F064FB97
:10BAD000052001F0ADFC01F0EBFD03F095FD01F058
:10BAE0009FFF01F035FD10BDFEB505460C466E0703
:10BAF000760F00200190ECE0ED08032E01D0042E1B
:10BB000002D1E8B201902D0A6F077F0F330004F0D5
:10BB100094F908DE057C2C2D9975D4DE6F480078E9
:10BB200003280CD104F0D8FB16200BF009F862684A
:10BB30000092207FFF23A1680BF096F80AE0674887
:10BB40000078002806D100BF02206549086000BFC8
:10BB50000AF0EEFF01F0A2FD20680AF0B5FF04F044
:10BB600035FE01205D490870B1E000BF5B480078F8
:10BB700003280CD104F0B0FB07200AF0E1FF207F7E
:10BB80006268A1680090019B0BF06EF811E000BFA5
:10BB900002205349086000BF0AF0CAFF01985149CA
:10BBA0008969090A0902C2B211434E4A916100BF74
:10BBB00000BF01F06FFD2168881E0AF085FFA169B2
:10BBC000206840180D300090022100980AF084FF90
:10BBD00002200AF09FFF00BF04F0F8FD042E06D1FA
:10BBE00001200AF0D3FF01203F49087002E0002045
:10BBF0003D49087000203949087068E000200AF0CB
:10BC0000C5FF01203849087061E020690AF0D2FFC1
:10BC1000032F01D0042F0AD100BF3148006804214E
:10BC20008843082108432E49086000BF00BF2069EF
:10BC3000C0790A30C00096302168081820600BF0E7
:10BC400079F844E0E068811D264A516000BF012F69
:10BC50000AD100BF22480068082188430421084314
:10BC60001F49086000BF00BF0BF064F804F06CFBD4
:10BC7000A0771D480078002804D000BF1948403044
:10BC80008068607702201949152292018918820084
:10BC900089580846009109F051FD6061A07F002895
:10BCA00002D0A07F042807D1E068C079401DC00001
:10BCB000616908189130206009E00848007803287D
:10BCC00001D006F051FA03200449087000BF00BFFC
:10BCD0003E46002D00D00FE7FEBD0000BA11002047
:10BCE0000012004000150040BB1100200080004001
:10BCF00010B5024600200123802108E014461C42B2
:10BD000002D004460C4320465C06230E491000294D
:10BD1000F4D110BDFEB5044600260220029000209A
:10BD20000190277865781C203840102842D101F016
:10BD30000FFEC6B201F0B6FC019002202840022896
:10BD400014D11D480078401C1B490870042221466C
:10BD500008311A4801F096FA012820D101F044FB7D
:10BD60001749086001201749087018E002200542B1
:10BD700015D115480078401C13490870042221464B
:10BD80000831124801F07EFA012806D101F02CFB9F
:10BD90000F49086001200F490870002002900E48EA
:10BDA00000960078421000230199029801F05AFE93
:10BDB0000120FEBD0020FCE7011F00202C0E00200A
:10BDC000141F0020641E0020021F0020300E0020DF
:10BDD000181F0020651E0020380E0020054840680E
:10BDE0001321C90588430121C9064018014948604B
:10BDF0007047000000050050034840680121C90653
:10BE00008843014948607047000500500348406876
:10BE100001214906884301494860704700050050E8
:10BE2000034840680121890608430149486070477A
:10BE300000050050034840680121890688430149F4
:10BE40004860704700050050054840681321C90547
:10BE500088430321090608430149486070470000F0
:10BE600000050050054840681321C9058843012199
:10BE7000C90540180149486070470000000500509E
:10BE800030B504460D460021012B01D1C9B202E0B4
:10BE900008461030C1B2022C01D1C9B202E00846F6
:10BEA0000830C1B2002D01D1C9B201E0081DC1B2F4
:10BEB000042A01DB282030BD8818C1B20846FAE701
:10BEC00010B50D480078401C0B49087008460078F2
:10BED000082801DB00200870074800788007400F21
:10BEE0000549097889100843044908700978C8078A
:10BEF000C00F01F05DFC10BD690E0020380E00205F
:10BF000038B500244948007800287DD14848007899
:10BF1000012810D14748006801280CD14648FFF796
:10BF2000F9FE012804D12021434800F0D3FE02E0AD
:10BF3000414800F039FF4148006801F069FA0A28D9
:10BF400007D83F480078002857D03E48007800289E
:10BF500053D001F049FA394908603B48007800287D
:10BF60000CD101F09FFB0546002000903748007877
:10BF7000421000232946022001F074FD3448007865
:10BF800000280CD101F08EFB0546002000902F48C0
:10BF90000078421000232946184601F063FD284826
:10BFA000007800280CD101F07DFB054600200090B0
:10BFB00026480078421001232946022001F052FD54
:10BFC0002048007800280CD101F06CFB05460020C9
:10BFD00000901E480078421001232946002001F0FD
:10BFE00041FD00201849087019490870144908706B
:10BFF00014490870FFF764FF01240D4800780128F8
:10C0000001D0012C10D100E007E0002008490870A1
:10C010000121084602F062FA06E001F0E5F907495D
:10C02000086000200149087038BD0000400E002063
:10C03000001F0020001400409C1E00203C0E002029
:10C04000661E0020671E0020641E0020380E00209F
:10C05000651E0020002005E000230146421CD0B2EE
:10C060002B4A53540428F7DB002005E00023014647
:10C07000421CD0B2274A53540428F7DB002005E0C5
:10C0800000230146421CD0B2234A53540428F7DB54
:10C09000002005E000230146421CD0B21F4A535441
:10C0A0000428F7DB002005E000230146421CD0B243
:10C0B0001B4A53540428F7DB002005E00023014607
:10C0C000421CD0B2174A53540428F7DB002005E085
:10C0D00000230146421CD0B2134A53540428F7DB14
:10C0E000002005E000230146421CD0B20F4A535401
:10C0F0000428F7DB002005E000230146421CD0B2F3
:10C100000B4A53540428F7DB00210A4A1180704778
:10C11000441D0020641D0020841D0020A41D00205B
:10C12000C41D0020E41D0020041E0020241E002049
:10C13000441E0020640E0020F0B58FB004460D466A
:10C14000A8200E90002600200D902E7868780E9082
:10C150003046C12E7AD028DC122878D012DC042890
:10C1600053D008DC00283FD0012871D002285ED0CF
:10C1700003286ED155E006286CD010286BD011280A
:10C18000F7D1F1E06B2867D008DC222874D0322880
:10C1900030D0332871D03428EBD126E082286DD0FE
:10C1A00083286CD0A228E4D121E0F62868D012DCE4
:10C1B000DD2873D008DCC32871D0D22818D0D3284A
:10C1C00017D0D428D5D111E0F12869D0F32868D050
:10C1D000F528CED1F8E1F738030003F02EFE07F87A
:10C1E000F7F6F5F4F3F23A0067E200BF00BF00BFD4
:10C1F00000BF00BF26700DAAE11C284603F07EF99F
:10C20000607008A8007DA07057E226706A78521E00
:10C21000D1B2A878EA1C03F0F3FC60700020A07093
:10C220004BE22670012060700020A07045E226706D
:10C23000012060700020A070A8783D2148430C9038
:10C2400003200D906878401E68704CE0CCE091E0CF
:10C250004FE01CE277E081E09AE10C98C004000E08
:10C260006946887302AA04A903A803F0DDF8687878
:10C27000202806DA687805E0AAE04EE085E092E042
:10C2800087E1202007460C98C006C00E01902021AF
:10C290000198081AB84205D9384606E0ECE1C7E132
:10C2A00078E134E120210198081AC7B208A8007D7E
:10C2B000291804AA019813183A461846FFF7F9F806
:10C2C0000C99C904080E04AA202103F023FC08A835
:10C2D000007DC019C1B20D910C98C0190C906878FE
:10C2E000C01B687000BF68780028B6DC00200FB063
:10C2F000F0BD267001206070E878A070A878002852
:10C3000005D12879EE4908700020EE490870A97817
:10C310003D22E01C03F056F8CFE108F02FFF07465E
:10C3200026703B46621D211DE01C02F069FF607013
:10C3300020794001B84201DD384601E02079400112
:10C34000801CA070B9E126700DAAE11C284603F0FC
:10C350006BF8607008A8007DA070AEE12670012027
:10C3600060700020A070A8E126700120607000209D
:10C37000A070A2E126700DAAE11C284603F0BEF8C9
:10C38000607008A8007DA07097E126700E98401E8E
:10C39000C1B20DABE21CA81C03F0ACF9607008A898
:10C3A000007DA07089E126700E98401EC1B20DABD1
:10C3B000E21CA81C03F0ACFA607008A8007DA07015
:10C3C0007BE18EE019E1C2E074E018E031E053E077
:10C3D0002670E978A8780DABE21C02F099FF607036
:10C3E00008A8007DA07068E12670012060700E989A
:10C3F000A070A91CE01C0E9AFFF75BF85DE100211C
:10C400000D9108A8017D481CC2B20D92665401210D
:10C4100008A8027D501CC3B20D93A154002108A8A6
:10C42000027D501CC3B20D93A154A81C03F082FCE2
:10C4300043E100210D9108A8017D481CC2B20D9274
:10C440006654012108A8027D501CC3B20D93A1546B
:10C45000002108A8027D501CC3B20D93A154EB78B3
:10C46000AA7808A8017D204600F002FE0D9008A8D9
:10C47000007DC01EA07020E100210D9108A8017D63
:10C48000481CC2B20D926654012108A8027D501CBE
:10C49000C3B20D93A154002108A8027D501CC3B261
:10C4A0000D93A1540E99491ECAB2A878E91C01F057
:10C4B00093F902E100210D9108A8017D481CC2B248
:10C4C0000D926654012108A8027D501CC3B20D9341
:10C4D000A154002108A8027D501CC3B20D93A154A1
:10C4E000EBE000210D9108A8017D481CC2B20D921D
:10C4F0006654012108A8027D501CC3B20D93A154BB
:10C500007F210D9108A8007DC01EA070D5E00021FC
:10C510000D9108A8017D481CC2B20D9266540121FC
:10C5200008A8027D501CC3B20D93A154002108A895
:10C53000027D501CC3B20D93A15408A8017D204672
:10C5400001F01EFA0D9008A8007DA070B5E0002152
:10C550000D9108A8017D481CC2B20D9266540121BC
:10C5600008A8027D501CC3B20D93A154002108A855
:10C57000027D501CC3B20D93A15408A8017D204632
:10C5800000F052FD0D9008A8007DC01EA07094E040
:10C5900000BF00BF00210D9108A8017D481CC2B258
:10C5A0000D926654012108A8027D501CC3B20D9360
:10C5B000A154002108A8027D501CC3B20D93A154C0
:10C5C00003200AF07BFA78E000210D9108A8017D94
:10C5D000481CC2B20D926654002108A8027D501C6E
:10C5E000C3B20D93A15408A8027D501CC3B20D9391
:10C5F000A15402200AF062FA5FE000210D9108A820
:10C60000017D481CC2B20D926654012108A8027D2A
:10C61000501CC3B20D93A154002108A8027D501CE8
:10C62000C3B20D93A15401200AF048FA00205EE63F
:10C6300000210D9108A8017D481CC2B20D926654DC
:10C64000012108A8027D501CC3B20D93A154022100
:10C6500008A8027D501CC3B20D93A15408A8027D06
:10C66000501CC3B20D93A154082108A8027D501C90
:10C67000C3B20D93A15420E02670A8780DAAE11C46
:10C6800000F0BEFA607008A8007DA07015E00021DF
:10C690000D9108A8017D481CC2B20D92665400217C
:10C6A00008A8027D501CC3B20D93A15408A8027DB6
:10C6B000501CC3B20D93A15400BF00BF012016E669
:10C6C000120E0020130E0020F0B58BB000240025C0
:10C6D000002600200A900990DC48007801286FD1DC
:10C6E0000020DA49087000F0ADFAD9480068012846
:10C6F00067D1D84800F058FB0128F9D1D5484078D7
:10C70000022108400446D4480078A042F0D100F04D
:10C710006BFED24908607320D1490860D148007887
:10C72000CD4909784910D04A5054002C09D1CF483E
:10C730000088401CCD49088000F056FECC490860B6
:10C7400008E0CC480088401CCA49088000F04CFE34
:10C75000C9490860BF488578002D03D10126012012
:10C760000A9034E0012D03D1002600200A902EE02B
:10C77000022D1FD1B7484078FC2108400990BF48DE
:10C780000078002812D0BE490978099888420DD156
:10C79000099800280AD02022AE49BA4800F0AEF924
:10C7A0000020B649087000260A9010E001260120FA
:10C7B0000A900CE0032D05D1012601200A9006E025
:10C7C00008E1E6E0042D02D1002601200A90A148EC
:10C7D000C778012E7ED1A948007800287AD09D49DB
:10C7E000002000F085FCA8490988401A80B2089012
:10C7F0009849012000F07CFCA4490988401A80B2C5
:10C8000007909449022000F073FCA1490988401A5E
:10C8100080B206908F49032000F06AFC9D49098888
:10C82000401A80B205909C480078401C9A490870D4
:10C83000204600F009FB04900020984A01900397DD
:10C840000092029022460121049B089802F09CFA73
:10C8500093480078012813DD204600F0F5FA049093
:10C8600090489149914A03970092019102908C4817
:10C870000078401EC1B22246049B079802F084FA59
:10C8800087480078042813DD204600F0DDFA049084
:10C8900087488849884A039700920191029080480E
:10C8A0000078001FC1B22246049B069802F06CFA81
:10C8B0007B480078072815DD204600F0C5FA049073
:10C8C0007E487F497F4A0397009201910290744805
:10C8D000007800E007E0C01FC1B22246049B059823
:10C8E00002F052FA00BF0A98012846D16348007846
:10C8F000002842D05749042000F0FAFB7249098809
:10C90000401A72490988401880B208903B46704826
:10C9100002782146089800F0D3FC6E4908706C48F4
:10C920000078002816D108460078012812D1554811
:10C930000078E0210840E0281ED152488078022883
:10C940001AD100204D49087063480078401C6249A4
:10C95000087011E05E4800785E49097888420BD182
:10C960005C480078002807DD0020444908705A48D8
:10C970000078401C5849087000BF012E02D00A9868
:10C98000012805D100F08EFE544908705448077004
:10C9900000BF34490978C807C00F00F009FF3748C5
:10C9A0000078002804D10121084601F097FD03E03A
:10C9B0000121002001F092FD4A480078012809D1A8
:10C9C000494A4A494A4800F0E1F84A49096840188A
:10C9D0004849086029480078002835D01F48006879
:10C9E00000F016FD1E49096888422DD34248406870
:10C9F000002829D100F0F8FC184908601E201849C9
:10CA0000086000F04FFE07460020009015480078AF
:10CA10004210012339461048007801F023F81148EC
:10CA20000078401C0F49087008460078082801D19A
:10CA3000002008700B490978C807C00F00F0B8FE45
:10CA40000121002001F04AFD0BB0F0BD001F0020C5
:10CA5000001400409C1E0020071F0020701E0020B4
:10CA6000741E0020380E0020791E0020201F002098
:10CA70001C1F00202C1F0020281F0020410E00201A
:10CA8000081F0020441D0020580E00205A0E0020D0
:10CA90005C0E00205E0E0020091F0020041C0020F8
:10CAA000051F0020641C0020441C0020241C0020C2
:10CAB000C41C0020A41C0020841C0020241D002075
:10CAC000041D0020E41C0020600E0020620E0020E7
:10CAD000061F00200A1F00200B1F0020660E0020EA
:10CAE000670E0020381F0020AC720100F8720100B0
:10CAF000F8730100341F00200011004010B503E05E
:10CB00000B780370491C401C1346541EE2B2002BE4
:10CB1000F6DC10BD08B5292000901A480078030003
:10CB200003F08BF905040C10141C1F00694601204A
:10CB300001F03EFF4E2001F039FE16E0292001F001
:10CB400035FE12E0042001F031FE0EE069460120BE
:10CB500001F07CF8292001F00BF906E002F018F84A
:10CB600003E000200849087000BF00BF05480178B5
:10CB70000078401C034A1070042902DD0020114691
:10CB8000087008BDFD1B0020FC1B0020F7B50B46FC
:10CB9000144600250020002117E0009E725C0FE083
:10CBA000EF2D00DD0EE02E466F1CFDB29E5D8F0066
:10CBB000E759BF5CBE4201D0461CF0B2561CF2B22F
:10CBC000202AEDDB00BF4E1CF1B20929E5DBFEBDDA
:10CBD000024908700021024A11607047381F002086
:10CBE000341F002010B5034A03490448FFF7CEFF65
:10CBF00010BD0000D4720100F8720100027401003F
:10CC000070B504460E46154600202870042C02D04C
:10CC1000052C13D10EE0FFF7E5FF094A5178127891
:10CC200009021143401881B205480170090A417098
:10CC3000012070BD0120FFF7CBFF00BF0020F8E707
:10CC4000F411002000B500F063F90649486200F0D5
:10CC500049F90449C8610846006B40084000086370
:10CC600000BD00000015004000B500F0D5F90649F0
:10CC7000886200F0BBF9044908620846006B102185
:10CC800088430149086300BD0015004000B500F06D
:10CC90003FF90649486200F025F90449C861084691
:10CCA000006B012108430149086300BD00150040E5
:10CCB00000B500F0B1F90649886200F097F904491F
:10CCC00008620846006B102108430149086300BD53
:10CCD00000150040F0B50246002400230020104D4E
:10CCE0002D78042D1ADA00BF0D4D2D786D072B0E0F
:10CCF00000BF0AE02546661CF4B2565D1D465F1C67
:10CD0000FBB2084F7E55451CE8B2202801DA884264
:10CD1000F0DB034D2D786D1C014E3570F0BD000029
:10CD2000720E002028120020002001490870704770
:10CD3000720E0020F0B502460B46002000240021B0
:10CD40000F4D2D78002D1ADD0D4D2D786D1E0C4EDA
:10CD5000357000BF35462D786D072C0E00BF0AE0F8
:10CD60002546661CF4B2074E765D0546471CF8B2B0
:10CD700056554D1CE9B2202901DA9942F0DBF0BD8D
:10CD8000720E002028120020014800787047000031
:10CD9000720E002010B501E00170401C1346541EB5
:10CDA000E2B2002BF8DC10BDFEB5044600260220DE
:10CDB000029000200190277865781C2038400828D0
:10CDC00032D100F0C5FDC6B200F06CFC019002202B
:10CDD000284002280CD115480078401C13490870DF
:10CDE00000F002FB1249086001201249087010E0AF
:10CDF000022005420DD110480078401C0E490870F1
:10CE000000F0F2FA0D4908600020029001200C4960
:10CE100008700C480096007842100123019902988E
:10CE200000F020FE0120FEBD0020FCE7031F0020D3
:10CE30000C1F0020661E0020041F0020101F002071
:10CE4000671E0020380E00200146022901D1024849
:10CE500070470248FCE700002C0E0020300E002036
:10CE6000F7B581B016460024002500200090002769
:10CE700000220121019B0298FFF702F8054600BF3E
:10CE80000EE060191649095C0098814206DB2746CE
:10CE90000120307060191249085C0090601CC4B217
:10CEA000042CEEDB00221146019B0298FEF7E8FFFE
:10CEB000054600240EE060190949095C009881428A
:10CEC00006DB27460020307060190549085C009099
:10CED000601CC4B2042CEEDB384604B0F0BD000088
:10CEE000A812002010B509494878FEF701FF040296
:10CEF00006498878FEF7FCFE204304020349C878FF
:10CF0000FEF7F6FE20430402204610BD280E002046
:10CF100000B502490878FEF7EBFE00BD280E0020A0
:10CF20000146022902D10348007870470248007880
:10CF3000FBE70000FC1E0020FD1E00200146022928
:10CF400002D103480078704702480078FBE70000F0
:10CF5000FE1E0020FF1E002002460F480078012818
:10CF600012D1E0231340184603462033D8B20028DC
:10CF700002D103462033D8B2022902D1074B1870E0
:10CF800001E0074B18707047022902D1034800786E
:10CF9000F9E703480078F6E7420E0020FC1E002067
:10CFA000FD1E002070B504460D48007801280ED102
:10CFB00000F01AFA8000FC2108400546022C02D13C
:10CFC0000848057001E008480570284670BD022C2D
:10CFD00002D104480078F9E703480078F6E700003A
:10CFE000420E0020FE1E0020FF1E002010B5094941
:10CFF0004878FEF77DFE040206498878FEF778FE41
:10D00000204304020349C878FEF772FE204304025D
:10D01000204610BD6A0E002000B502490878FEF7D0
:10D0200067FE00BD6A0E002010B502460D48047868
:10D0300008464B1CD9B214540B48047808464B1CC4
:10D04000D9B214547F20084B187008480478084659
:10D050004B1CD9B21454AA2408464B1CD9B2145400
:10D06000084610BD1F0E00201D0E00201E0E0020C1
:10D0700070B50446012A31D119480068194D2D6850
:10D08000A84203D916480068164D2860022B0DDB14
:10D09000144800880004060E08464D1CE9B22654C8
:10D0A0001048067808464D1CE9B22654042B0DDBC7
:10D0B0000D4800880004060E08464D1CE9B22654AF
:10D0C0000948067808464D1CE9B22654052B05DBB5
:10D0D0000648067808464D1CE9B22654084670BD3D
:10D0E000F41B0020F81B0020EC1B0020E81B002094
:10D0F0007FB504460D466000001D285C01026000FB
:10D10000401D285C0818C004060C3046FEF752FB90
:10D110000191009008480CC80098FEF7CFFA0391DF
:10D120000290FEF755FB86B20448864200DD0646B3
:10D13000304604B070BD0000500E00208890000002
:10D1400010B509494878FEF7D3FD040206498878EE
:10D15000FEF7CEFD204304020349C878FEF7C8FD60
:10D1600020430402204610BD681E002000B502497D
:10D170000878FEF7BDFD00BD681E00200448006869
:10D18000401C034908600020024908607047000005
:10D19000A811002000E1004010B50D4840681021A2
:10D1A00008420AD000200B4908610B480088401C47
:10D1B00009490880012009490860002005494860A4
:10D1C00007480068002802D005480068804710BD65
:10D1D0000013004000110040B8110020B4110020DD
:10D1E000BC11002001200549086100BF0448006906
:10D1F0000028FBD000200249086170470010004061
:10D20000001100400020074948600120064948609D
:10D2100000BF044800680028FBD0002001490860D6
:10D220007047000000110040001000400F484068A7
:10D23000012808D10E480088022108430C490880C3
:10D2400000210A4841600948806801280DD1094839
:10D250000088401C074908800548008804210843CD
:10D2600003490880002101488160704740810040E7
:10D27000F0110020EE110020014908607047000005
:10D28000BC11002030B5034607E01C785B1C0D780C
:10D29000491CAC4201D0002030BD1046541E62B281
:10D2A0000028F2DC0120F7E70146044800788842B4
:10D2B00001D1012070470020FCE700004A0E002049
:10D2C000FFB583B00746164600256022FF213F4880
:10D2D000FFF760FD002E00D1012600F04DFF002079
:10D2E0003B490863FFF7E4FC00203949C86206980F
:10D2F000886001200290002420200190334800190A
:10D30000486000F041FF0120324988604EE0324819
:10D31000C06801284AD12D49019808182C49486055
:10D3200001202C49886000202B49C8602B480068E8
:10D33000C0B2029025490819049901F049FF01285B
:10D340002BD10298012828D12048005D244908707B
:10D350001E48005D40110090009802280EDB0098E6
:10D3600004280BDC1948005D4011801E4100401864
:10D370001649095D8907890F4018C5B20120A840E8
:10D38000184909880843174908801049081929468F
:10D3900001F098F9681CC5B200BF202C03D100240D
:10D3A0002020019002E020240020019001F074FC74
:10D3B000B84201D2B542AADB00F0B2F909480088B0
:10D3C00002F048FDC0B207B0F0BD00009C1E002076
:10D3D0000015004000100040001100400014004003
:10D3E000680E0020640E002010B500240A200121E0
:10D3F0008140054A116000BF044804680A2000F01B
:10D4000089F8204610BD000080E100E0140E0020E5
:10D4100070B50446FFF7E8FF0546A54201D32D1B72
:10D4200004E00020C043001B401C4519284670BD85
:10D4300070B5044600251C48406801218902084354
:10D440001949486006E028466D1C0A2802DB00F0F6
:10D4500093F806E015484068012189020840884297
:10D46000F1D100BF0020124948600420086101206A
:10D470001049C8607D20C00060430D4940310860FC
:10D4800001200D490860002009498860012000043E
:10D490000A4948600A2000F03DF80948046001206C
:10D4A0000449086070BD0000000500400004004011
:10D4B00000A5004000A0004000A2004000A30040E2
:10D4C000180E0020C206D20E01219140014A1160BF
:10D4D0007047000080E200E0C206D20E01219140B8
:10D4E000014A11607047000080E200E0C206D20EDF
:10D4F00001219140014A11607047000080E100E085
:10D50000C206D20E01219140014A1160704700000D
:10D5100080E100E0C206D20E01219140014A116073
:10D520007047000000E100E0C206D20E01219140E8
:10D53000014A11607047000000E100E0C206D20E0F
:10D5400001219140014A11607047000000E100E0B4
:10D55000074840680121890708430549486000BF22
:10D5600004484068012189070842F9D0704700004B
:10D570000005004000040040032001490870704786
:10D58000110E002070B501F0CDFB00202449C860C9
:10D59000486024480068012805D001F0E7FB01201D
:10D5A0002149886070BD214805781C202C46044024
:10D5B000102C07D0082C05D001F0D8FB01201A4907
:10D5C0008860EFE71A480078002813D119480078DE
:10D5D000012803D017480078022817D11348806823
:10D5E00015490968884211D001F0C0FB01200E499D
:10D5F0008860D7E70F480078002807D1082C05D0AD
:10D6000001F0B4FB012008498860CBE7012001212B
:10D6100081400A4A116000BF0949087000BFC1E794
:10D620000011004000140040001000409C1E00202B
:10D63000410E0020420E0020681E002080E100E024
:10D64000001F002000200749087000BF06484068FE
:10D65000012149078843491008430349486000BF36
:10D6600070470000700E002000050050012007499F
:10D67000087000BF06484068012109078843490037
:10D6800008430349486000BF70470000700E002047
:10D690000005005010B5FEF7D7FB10BD10B5FEF722
:10D6A0009DFB10BD0148007870470000700E0020FF
:10D6B00010B5194840680121C90708431649486058
:10D6C00000BF16484068C00FC0070121C907884243
:10D6D000F7D10D2005210907072212028918C86514
:10D6E0000521090789180866052109078918486670
:10D6F0000521090789188866052109078918C86660
:10D70000052109078918086705210907891848674D
:10D7100000F022F810BD00000005004000040040A9
:10D7200010B5FEF773FB10BD01480078704700008C
:10D73000710E002010B5FEF773FB10BD10B5FEF79B
:10D7400079FB10BD10B5FEF77FFB01200149087081
:10D7500010BD0000710E002010B5FEF73FFBFEF774
:10D7600055FBFEF767FB02200149087010BD000061
:10D77000710E002000B50C480078022809D10B4832
:10D780000078002802D1FFF771FF0BE0FFF75AFF86
:10D7900008E005480078002802D1FFF753FF01E0B8
:10D7A000FFF764FF00BD00006F0E0020700E002028
:10D7B00000B50246002A02D1FFF744FF01E0FFF75F
:10D7C00055FF00BD10B5FEF74DFB00200149087064
:10D7D00010BD0000710E002070B504460D461646BF
:10D7E000012C15D12878002804D0012806D0022861
:10D7F0000CD107E000202049087008E001201E49F4
:10D80000087004E002201C49087000E070BD31E09F
:10D81000022C08D12878002802D1FEF715FB29E058
:10D82000FEF720FB26E0032C0FD12878002802D138
:10D83000FEF7ECFA1EE000BF1048406801214906DF
:10D8400008430E49486000BF14E0042C08D1287832
:10D85000002802D1FEF7EEFA0CE0FEF7E1FA09E04B
:10D86000052C07D12878002802D1FEF7C5FA01E07F
:10D87000FEF7B4FA00BFC9E76F0E002000050050A4
:10D88000FFB50446002500260021039102910020E7
:10D8900001900090002703AA0221FFF7E1FA054654
:10D8A00002AA00210846FFF7DBFA064600232A46B3
:10D8B0006846017B0220FEF7E3FA07460E48C05D8A
:10D8C0000190002332466846017A1846FEF7D8FADE
:10D8D00007460948C05D009000990198884205DD1F
:10D8E0006846007B2070284604B0F0BD6846007A88
:10D8F00020703046F8E70000A812002070B50446FA
:10D900000D4600262A4621460120FFF7A9FA0646C1
:10D91000304670BDF3B505460024002600272B468F
:10D92000002211460198FEF7ABFA0646344607E09E
:10D930000648005DB84201DD0448075D601CC4B2C2
:10D94000304608308442F3DB3846FCBDA812002084
:10D950007F200949C96901290DD1084988687F21BB
:10D96000064A91600021044AD161642802D26421F0
:10D97000081A00E0002070470011004040150040E8
:10D98000F8B504460D46002600200090002700BF91
:10D9900007E02248825D2846691CCDB22254701CE3
:10D9A000C6B2282EF5DB30460830C6B269460220E2
:10D9B000FFF7A4FF0746684602782846691CCDB2E7
:10D9C00022542846691CCDB2275469460020FFF72F
:10D9D00095FF0746684602782946681CC5B262541E
:10D9E0002846691CCDB227546846FFF749FF074611
:10D9F000684602782946681CC5B262542846691CEC
:10DA0000CDB2275400222946681CC5B2625428466C
:10DA1000691CCDB222543046F8BD0000A812002087
:10DA200000200D4949680122D20711430A4A51607A
:10DA300000BF0A494968C90FC9070122D2079142AC
:10DA4000F7D1002004E00021054A1154411CC8B25E
:10DA50002828F8DB70470000000500400004004063
:10DA6000A8120020FFB50746099D0024002638466D
:10DA700001A90EC9FEF704FA04467F2D02D1282021
:10DA800004B0F0BD282C01DB0020F9E7002D07D001
:10DA90000948005D4619F005000E0749085508E0E1
:10DAA0000548005D0101081A46193005000E0249BB
:10DAB00008550120E4E70000A812002070B50024FA
:10DAC00001250026FFF73EFEFFF754FE01205349D3
:10DAD00048608860FFF788FC064600BF5048C06871
:10DAE000002804D13046FFF793FC0A28F6D34C48AF
:10DAF000C068012863D1012406E04A48005DFF2880
:10DB000000D00025601CC4B2202C01D2012DF4D01D
:10DB1000012D08D143480078FF2804D041480078FF
:10DB2000FE2800D00025012D44D13F480078002870
:10DB300007D13C4800783D49087001203A490870F7
:10DB40003DE039480078012815D139480068401C6B
:10DB500037490860334800783449097888422ED024
:10DB600001203349086002202F4908702D480078B1
:10DB70002E49087023E02C48007802281FD129483C
:10DB800000782A490978884205D129480068401C54
:10DB90002749086013E02348007824490870244886
:10DBA00000682449086001202149086000202249BA
:10DBB000086004E020480068401C1F4908600020FD
:10DBC0001749C8600846C069012804D10020C8610F
:10DBD000012012498861FFF7A3FD18480078401C16
:10DBE000164908700846007815490978884202DB12
:10DBF000002012490870134810490978405C124906
:10DC0000886001200549086100BF054800690028B7
:10DC1000FBD000200249086170BD000000100040E8
:10DC200000110040981B0020E81B0020E71B00208B
:10DC3000EC1B0020F41B0020F01B0020E61B002042
:10DC4000E01B0020E11B00200015004070B50546D8
:10DC50000E4600240120FFF749FC364840680221A7
:10DC600008433449486000BF3348406802210840F7
:10DC70000228F9D100203149C86001200861FFF76E
:10DC800047F92E494862FFF72DF92C49C861002059
:10DC9000C86201200863002048612948886129483A
:10DCA00005700078052802DD05202649087000244B
:10DCB00004E0305D24490855601CC4B22148007856
:10DCC0008442F6DB0020214908701F480978405C37
:10DCD0001A498860022048630846406B8007800F1D
:10DCE000022804D11A48C8631A4888630BE0134815
:10DCF000406B8007800F012805D1FF200F49C863C2
:10DD0000FF200830886314480C4948607F200B4985
:10DD1000403188600020114908701149086011499C
:10DD200008601149087011490870032000F0BEFF17
:10DD300070BD0000000500400004004000150040D8
:10DD400000200301E01B0020E11B0020E61B002057
:10DD5000FFFF000021100100981B0020E71B00209E
:10DD6000EC1B0020F41B0020E81B0020FC1B002003
:10DD700070B5044601202149086100BF20480069B0
:10DD80000028FBD000201E4908611E488460FFF770
:10DD9000D9FCFFF7EFFC0120184948608860FFF7C5
:10DDA00023FB054600BF2846FFF732FB0528FAD3C0
:10DDB00000201349C860FFF7B3FC01200F49086138
:10DDC00000BF0F4800690028FBD000200C49086103
:10DDD0000D480078401C0C490870084600780B4933
:10DDE0000978884202DB0020074908700848064984
:10DDF0000978405C0349886070BD00000010004055
:10DE00000011004000150040E61B0020E01B002030
:10DE1000E11B002010B5FFF795FCFFF7ABFC0120DC
:10DE20001C4948608860FFF7DFFA044600BF2046BF
:10DE3000FFF7EEFA0528FAD300201749C860FFF76C
:10DE40006FFC01201349086100BF134800690028D6
:10DE5000FBD000201049086110480078401C0F4991
:10DE60000870084600780E490978884202DB0020D5
:10DE70000A4908700B4809490978405C0A498860DA
:10DE8000FFF7B2FA044600BF2046FFF7C1FA0528A3
:10DE9000FAD310BD0010004000110040E61B002026
:10DEA000E01B0020E11B00200015004010B51248C7
:10DEB0000078030001F0C1FF05040506090C0F00FE
:10DEC00000BF00BF00F0CAFC09E000F00FFE06E052
:10DED000FFF7A0FF03E000200749087000BF00BF64
:10DEE00005480078401C044908700846007804285A
:10DEF00001DD0020087010BDFC1B002010B50A4891
:10DF00000078002802D100F0F1FD01E0FFF782FF68
:10DF100005480078401C0449087008460078C0078E
:10DF2000C00F087010BD0000FC1B002010B50024BD
:10DF3000FFF7B4FBFFF71EFC01202C494860886006
:10DF4000FFF752FA044600BF2948C068002804D1F0
:10DF50002046FFF75DFA0A28F6D300202449C8605E
:10DF600024480068012830D12348FDF7D3FE01285A
:10DF70002BD11F48C069012827D12048806820493B
:10DF8000087008460078222802DC7F201B49886040
:10DF90001B4800787F2818D01A480078184909785B
:10DFA000884203DD16480078164908701648007844
:10DFB00013490978884203DA114800781249087039
:10DFC00012480068401C1149086000200849C861D7
:10DFD000012006498861086100BF054800690028E2
:10DFE000FBD000200249086110BD00000010004075
:10DFF0000011004000140040981B00204015004014
:10E000001D0E00201E0E00201F0E0020001C0020F0
:10E0100010B5FFF743FBFFF7ADFB01201749486040
:10E020008860FFF7E1F9044600BF2046FFF7F0F9EA
:10E030000528FAD300201249C86001200F49086161
:10E0400000BF0F4800690028FBD000200C49086180
:10E050000C480078401C0B490870084600780A49B3
:10E060000978884202DB0020064908700748054904
:10E070000978405C0649886010BD0000001000402F
:10E0800000110040E61B0020E01B0020E11B0020E7
:10E090000015004010B50024FFF754FBFFF76AFBA2
:10E0A00001202C4948608860FFF79EF9044600BFB4
:10E0B0002948C068002804D12046FFF7A9F90A289A
:10E0C000F6D300202449C86024480068012830D1D4
:10E0D0002348FDF71FFE01282BD11F48C0690128E6
:10E0E00027D12048806820490870084600782228F7
:10E0F00002DC7F201B4988601B4800787F2818D0ED
:10E100001A48007818490978884203DD16480078D3
:10E11000164908701648007813490978884203DACE
:10E12000114800781249087012480068401C1149D3
:10E13000086000200849C86101200649886108611B
:10E1400000BF054800690028FBD000200249086193
:10E1500010BD0000001000400011004000140040FD
:10E16000981B0020401500401D0E00201E0E0020B0
:10E170001F0E0020001C002010B50021022007F017
:10E18000DBF9FFF7E9FA10BD10B5FFF7DBFA002164
:10E19000012007F0D1F910BD30B50C4B5C680825A3
:10E1A0002C435C600A4B5C682407FCD5094B9A60E1
:10E1B000D86019619805586201201860054900204F
:10E1C000403148610449886030BD000000050040CE
:10E1D000000400400035004000310040F8B50C4616
:10E1E00005460026094F0AE00020F8610420FDF7EB
:10E1F0003DF907F09DFA287005486D1C86602046A1
:10E20000641EE4B20028EFD1F8BD000000350040E4
:10E2100000310040F8B514460D46064600270AE0D6
:10E2200030780A49761CC8610420FDF71FF907F011
:10E230007FFA28706D1C2046641E00280448E4B252
:10E240008760EDD101488069F8BD000000350040CD
:10E2500000310040F8B50C4605460027084E08E09E
:10E2600028786D1CF0610420FDF700F9B0690548BD
:10E2700087602046641EE4B20028F1D1F8BD00009A
:10E280000035004000310040024800698007C00F9F
:10E29000704700000005005002480069C007C00F29
:10E2A0007047000000050050F0B50526A1B01D46DE
:10E2B00014460746002805D00A46014610A8FDF777
:10E2C000F8F803E0402110A8FDF71AF94C4800695E
:10E2D00081070ED5002F0CD0C00705D0402269461B
:10E2E00010A8FFF797FF0AE0402110A8FFF7B2FF40
:10E2F0007FE0C00726D040216846FFF76FFF002669
:10E3000005F074FA4027002802D04022694615E043
:10E31000002C04D06088002801D0022618E028884C
:10E320006946002801D001264BE00E780A46022EED
:10E330000BD0012E45D0052E04D04022A81CFDF79D
:10E34000B8F82F80304621B0F0BD6088002804D096
:10E3500080B2402825D2024624E00020A073E0735A
:10E360001379D5781A022A4322803B2A02D93B3AF4
:10E3700062803B228B784D781B071B0D1D43A581C6
:10E380008B7825460E351B099B0708D001231843BF
:10E3900028702046491D1030FDF78BF80DE0022350
:10E3A000F5E7402221881546081A00191030694601
:10E3B000FDF77FF86088401B60806088002818D1D6
:10E3C000C0E70022002816D02B791C1AE41CBB1AC7
:10E3D000A34200D21C468918AA1C80182246FDF7C9
:10E3E00068F82888001980B228802979C91C8842D9
:10E3F000A8D00026A6E7CC78E41C0122E7E70000BD
:10E400000005005001490870704700004A0E0020C6
:10E4100070B50446002524480078002841D1FDF756
:10E4200019FEA07821490870E07821490870207908
:10E430002049087008460078002801D002200870A2
:10E4400060791D49087001201749087000201B4998
:10E4500008701B490870FEF7C7FF1A49086073204F
:10E4600019490860FFF760F9022816D011480078B2
:10E4700040101649085C164908700978C807C00F93
:10E48000FFF796F913480078002802D0FEF71CF930
:10E4900003E00121002000F021F801200E4908705E
:10E4A0000125284670BD0000410E0020051F0020F8
:10E4B000061F0020071F0020081F0020091F002042
:10E4C0000A1F0020701E0020741E0020791E0020EC
:10E4D000380E0020001F0020400E002070B50446BA
:10E4E0000D4600201E49C86048601E490870FFF7AD
:10E4F00043FE1D48007840101C49085C1C49886098
:10E5000000200863012C01D1FEF7C0FB012D0DD1C5
:10E51000184800781749497808431649897808430C
:10E520001449C978084301D0FEF7C2FB0020104906
:10E53000C8622022FF211048FEF72CFC00F016FCD8
:10E540000D480B494860FFF71FFE01200B4988600A
:10E5500000BF012181400A4A116000BF70BD000068
:10E5600000110040001F0020380E0020340E002053
:10E57000001500406A0E00209C1E00200010004084
:10E5800000E100E0F8B505460020009000242E4888
:10E590000078002855D100BF05E0A01C285C2B495D
:10E5A0000855601CC4B2042CF7D36878001FC6B2AB
:10E5B0000020274988700846C670202E16DA0024ED
:10E5C00006E0A01D295C224A201D1154601CC4B223
:10E5D000B442F6DB012000901B49087000201D4961
:10E5E00008702022FF211C48FEF7D4FB1B48076857
:10E5F000FEF7FAFE19490860FFF796F802281CD0CA
:10E6000017480078002802D000F0A6FC15E0002F83
:10E6100007D03846FEF7FCFE962802D21148007853
:10E6200000E00020104908700978C807C00FFFF704
:10E63000BFF800210120FFF751FF01200B490870AE
:10E6400000BF0098F8BD0000420E0020681E0020A8
:10E650007C1E00207B1E0020081200206C1E002063
:10E66000001F0020781E0020380E0020400E0020E1
:10E670003EB5104A07CA6B4607C30F4800784010E2
:10E680000E49085C0090FEF743FC0446FEF72AFCA6
:10E69000044301940A48FEF7EFFD07490978C807CB
:10E6A000C00FFFF785F86946002006F045FFFFF729
:10E6B00049F83EBD0C740100380E0020340E0020D5
:10E6C00085D50000F0B505460C460126002723003D
:10E6D00001F0B3FB0906080A0C0E101214161800FC
:10E6E0000E4F11E00E4F0FE00E4F0DE00E4F0BE0FE
:10E6F0000E4F09E00E4F07E00E4F05E00E4F03E00E
:10E700000E4F01E0002600BF00BF012E04D12022E1
:10E7100029463846FEF7F2F93046F0BD441D002088
:10E72000641D0020841D0020A41D0020C41D0020A5
:10E73000E41D0020041E0020241E0020441E002092
:10E740000D48406A032108430B4948620B480C49B5
:10E75000086001200849486100200A49086001203A
:10E760008107086000BF00BF00BF00BF00BF0548B1
:10E7700000680028FBD07047000500400024F4002A
:10E78000D8110020000100400548006805490968CB
:10E7900040180349086000200349086070470000E2
:10E7A000140E0020180E002040A1004010B50446B1
:10E7B00001202649086100BF254800690028FBD0D8
:10E7C0000020234908612348846023482149486088
:10E7D000FEF7F8FFFEF7CEFF01201C49086000BFDE
:10E7E0001B4800680028FBD0002019490860FEF78C
:10E7F000A1FF0920FCF71AFE00201549C86001207E
:10E800001249886000BF1248C0680028FBD0002071
:10E810000F49C86001200D4988600920FCF706FEF9
:10E82000FEF78CFF00BF0A48C0680028FBD000201C
:10E830000749C86001200549086100BF0448006914
:10E840000028FBD000200249086110BD00100040E4
:10E850000011004000150040581B002010B5012495
:10E8600048480078122801D1002404E04648007886
:10E87000012800DD002445480068FEF7C9FD052891
:10E8800001D8002C7CD1FEF7AFFD40490860012083
:10E890003F49086100BF3F4800690028FBD00020C5
:10E8A0003C4908613C483D494860FEF78BFFFEF754
:10E8B00061FF01203649086000BF36480068002823
:10E8C000FBD0002033490860FEF734FF0920FCF735
:10E8D000ADFD00202F49C86001202D49886000BF90
:10E8E0002C48C0680028FBD000202A49C8600120BD
:10E8F000274988600920FCF799FDFEF71FFF00BF3C
:10E900002448C0680028FBD000202249C8600120AC
:10E910001F49086100BF1F4800690028FBD0002084
:10E920001C4908611E480078401C1D4908700846B3
:10E93000007815490978884202DB002018490870E0
:10E94000184817490978405C14498860012C17D190
:10E9500015480068401C14490860084600681349BF
:10E9600088420DD90020104908600B480078FF2824
:10E9700003D1FE200849087002E0FF200649087014
:10E9800010BD00001C0E0020E01B0020DC1B00203E
:10E990000010004000110040581B002000150040EE
:10E9A000E61B0020E11B0020D81B00200F270000E1
:10E9B00070B505460E4600240120FEF797FD3B4842
:10E9C0004068022108433949486000BF3848406820
:10E9D000022108400228F9D136480078002802D1E7
:10E9E0003549C86002E0FA203349C8600120324945
:10E9F0000861FF20486231488862FF20C043C86137
:10EA00002F4808620020C862012008630020486186
:10EA10002C4888612C4805700078052802DD052007
:10EA200029490870002404E0305D28490855601C1D
:10EA3000C4B2254800788442F6DB002024490870DF
:10EA400022480978405C1C498860022048630846D7
:10EA5000406B8007800F022804D11E48C8631E48FF
:10EA600088630BE01448406B8007800F012805D1B4
:10EA7000FF201149C863FF20083088630020174930
:10EA80000860FEF7B1FC16490860002404E0FF208E
:10EA900014490855601CC4B2202CF8D30020124938
:10EAA0000870032000F002F970BD0000000500406E
:10EAB00000040040200E002000150040C8C7C6C555
:10EAC000C2C2C20000200301E01B0020E11B0020A5
:10EAD000E61B0020FFFF000021100100D81B0020D2
:10EAE000DC1B0020581B0020FC1B002010B500245C
:10EAF000204821494860FEF765FEFEF73BFE0320F3
:10EB00001D494031086001201C490860FEF712FED3
:10EB100000F0C0F8FEF768FC044600BF2046FEF790
:10EB200077FC0528FAD30020134940310860012002
:10EB30001249086100BF124800690028FBD000207C
:10EB40000F490861FEF7FAFD0E480078401C0D4998
:10EB50000870084600780C490978884202DB0020DA
:10EB600008490870094807490978405C02498860EB
:10EB700010BD0000581B0020001500400010004090
:10EB800000110040E61B0020E01B0020E11B0020DC
:10EB900010B5FEF717FEFEF7EDFD012005490860F0
:10EBA000086100BF044800690028FBD0002002492A
:10EBB000086110BD001000400011004010B5002495
:10EBC000FEF76CFDFEF7D6FD032019490860012011
:10EBD00018490860FEF708FC044600BF2046FEF70F
:10EBE00017FC0528FAD300201149086001201149BB
:10EBF000086100BF104800690028FBD000200E49C2
:10EC000008610E480078401C0C49087008460078DE
:10EC10000B490978884202DB00200849087009483E
:10EC200006490978405C02494039886010BD0000FF
:10EC3000401500400010004000110040E61B00207D
:10EC4000E01B0020E11B002010B5114802781C20B9
:10EC5000104010281AD10E4843780220184004466C
:10EC60002046FEF721FB01280FD12046FEF758F978
:10EC7000E0211140884208D12046FEF75FF9FC21CF
:10EC80001940884201D1012010BD00BF0020FBE7E0
:10EC90009C1E0020704700000120024908600248C5
:10ECA0000068704740900040409500407D22D200AF
:10ECB00042431146164A526801235B021A43144B21
:10ECC0005A6000BF134A526801235B021A409A42FD
:10ECD000F8D10122104BDA600422104B1A610F4A5E
:10ECE0004032116001220C4B1A6000BF0C4A1268BE
:10ECF000002AFBD000220A4B1A600122064B5A6000
:10ED0000034A52685B159A43014B5A6070470000F2
:10ED100000050040000400400090004000950040C5
:10ED2000409100400D4840680121490208430B49C9
:10ED3000486000BF0A4840680121490208408842F3
:10ED4000F8D101200749C860002007494860042025
:10ED50000861012003490860704700000005004079
:10ED6000000400400090004000950040012004494C
:10ED70004860044840684915884302494860704724
:10ED80000090004000050040F8B504460D461E46C0
:10ED9000069F042231463648FDF7B0FE0120354972
:10EDA000086100BF344800690028FBD000203249C8
:10EDB000086132490998886008464760FEF7D6F92D
:10EDC0002E494862FEF7BCF92C49C8610020C86290
:10EDD000FEF7F8FC00BFFFF75FFFE11FFC39884238
:10EDE000F9D301202349086000BF234800680028A8
:10EDF000FBD000202049086000BFFFF74DFF2146EF
:10EE000009398842F9D3FEF795FC0920FCF71EFB6F
:10EE100001201849886000BF1748C0680028FBD04F
:10EE200000201549C860012D0DDD14490798486080
:10EE300001201049886000BF0F48C0680028FBD03F
:10EE400000200D49C860022D0DDD0C49089848606E
:10EE500001200849886000BF0748C0680028FBD02F
:10EE600000200549C860FEF769FCFFF785F9F8BD89
:10EE7000681E0020001000400011004000150040F6
:10EE8000F0B587B004460F46FFF776F92C482D49B8
:10EE90004860FEF76BF92B494862FEF751F92949A2
:10EEA000C8610020C862FEF78DFC27490020085E7B
:10EEB000FCF76CFC039102902046FCF77BFC0546B6
:10EEC00022480CC82846FCF7F9FB01910090039BEF
:10EED000029AFCF7E4FB05910490FCF779FC84B2FC
:10EEE00000BFFFF7D9FEE11FFC398842F9D30120AA
:10EEF0001749086000BF174800680028FBD00020B1
:10EF00001449086000BFFFF7C7FE2146093988424F
:10EF1000F9D3FEF70FFC0920FCF798FA01200C4901
:10EF2000886000BF0B48C0680028FBD0002009495A
:10EF3000C860FEF703FCFFF71FF907B0F0BD000043
:10EF40007C1E0020001500404C0E0020500E0020BA
:10EF5000001000400011004038B54F4800780128EB
:10EF600058D100204C490870FDF77EFE4B480068E0
:10EF700001283ED14A48FCF7CDFE012839D1494845
:10EF80000078022822D1FFF75FFE012808D1202255
:10EF900043494548FDF7B2FD03204249087028E087
:10EFA00000F08CF8012824D140480078401C3F49EB
:10EFB00008700846007803281BDAFEF715FA3C496A
:10EFC00008603C4800783C49087012E035480078F9
:10EFD00001280ED100F072F801280AD1022031492F
:10EFE0000870FEF701FA3249086032480078324969
:10EFF00008702C480078002803D02A48007803289D
:10F0000004D101210846FFF769FA03E0002101203D
:10F01000FFF764FA2348007800283CD021480078A4
:10F02000032838D022480068FEF7F2F9962832D338
:10F03000FEF7DAF91E490860FEF734FB04460020AB
:10F0400000901C4800784210002321460220FEF761
:10F0500009FDFEF727FB04460020009015480078C4
:10F060004210002321461846FEF7FCFC11480078A8
:10F07000401C1049087008460078082801D100207B
:10F0800008700C490978C807C00FFEF791FB0021F2
:10F090000120FFF723FA38BD001F002000140040B4
:10F0A0009C1E0020420E0020081200207B1E002023
:10F0B0006C1E0020380E0020781E002070B51C4801
:10F0C00000781C210840102830D104221949184822
:10F0D0000830FEF7D7F8012827D11548007900023B
:10F0E000134949794018C004050C114840780221A1
:10F0F000084004460E4908782146FDF72DFF0646D4
:10F100002046FFF77FF93046082108430A49087076
:10F110002046FDF747FF0121084307494870214673
:10F120002846FFF7ADFE012070BD00BF0020FBE7C1
:10F130009C1E0020681E00207C1E002010B50024AC
:10F140001C484078022108400446002C17D11A4878
:10F150000088002813D018480088042806DD002005
:10F1600015490880FEF740F9144908601448006802
:10F17000FEF74EF9C82802D900200F490880022C5A
:10F1800017D110480088002813D00E4800880428A2
:10F1900006DD00200B490880FEF726F90A490860C1
:10F1A0000A480068FEF734F9C82802D9002005494A
:10F1B000088010BD9C1E0020201F0020241F00205E
:10F1C0001C1F00202C1F0020301F0020281F0020A3
:10F1D000024610781C23184008280ED15078C0072A
:10F1E000C00F1378DB07DB0F984206D0507802235C
:10F1F0001840884201D1012070470020FCE7000040
:10F20000FEB506460F4614461D46002002903248C1
:10F210000078307031480078387031480078002824
:10F220001DD1019016E0202D01DD202000E02846B0
:10F2300001466B462246019800F06AF80198401C8E
:10F24000C0B2019068460078281AC5B268460078B6
:10F25000241800BF002DE6DC0120029039E021488F
:10F2600000782070641C204800782070641C1F48BF
:10F2700000782070641C1E4800782070641C1D48B3
:10F2800000782070641C1C4800782070641C1B48A7
:10F2900000782070641C1A4800782070641C19489B
:10F2A00000782070641C184800782070641C164890
:10F2B000008800122070641CFF202070641C2070E5
:10F2C000641C2070641C2070641C1048007820703E
:10F2D000641C0298FEBD0000091F00200A1F0020C8
:10F2E000410E0020001F0020031F0020041F0020EB
:10F2F0002C1F0020201F00200B1F0020380E002094
:10F30000660E0020670E0020640E0020680E0020AC
:10F31000FCB505460C4617461E460020019000909D
:10F3200030701E48007800282DD1002C2BDD202CB9
:10F3300029DC012001902B0000F07FFD0906090C5B
:10F340000F1215181B1E2100154800901AE01548D1
:10F35000009017E01448009014E01448009011E069
:10F36000134800900EE0134800900BE01248009004
:10F3700008E01248009005E01148009002E00020EB
:10F38000019000BF00BF0198012805D12022384616
:10F390000099FDF7B3FB34700198FCBD410E0020CD
:10F3A000441D0020641D0020841D0020A41D002099
:10F3B000C41D0020E41D0020041E0020241E002087
:10F3C000441E0020F7B58AB00746164605F0D6FE63
:10F3D00001463D220B9850430D1821E0E904080E28
:10F3E00001AB02AA2021FFF793FF202E01D9202094
:10F3F00000E03046C4B2E806C00E2021081AA04240
:10F4000002D2E806C00E0C1AE806C00E02AA811845
:10F4100022463846FCF74DF83F192D19361B00BF20
:10F42000002EDBD10DB0F0BDF7B507461546BE780E
:10F43000092E29DC20202870330000F0FEFC0A068B
:10F44000080A0C0E10121416181A114C14E0114C64
:10F4500012E0114C10E0114C0EE0114C0CE0114C7C
:10F460000AE0114C08E0114C06E0114C04E0114C8C
:10F4700002E000202870FEBD00BF2A7821460198D6
:10F48000FDF73CFB0120F6E70020287000BFF2E703
:10F49000041C0020241C0020441C0020641C0020AC
:10F4A000841C0020A41C0020C41C0020E41C00209C
:10F4B000041D0020241D002010B500F0E1FB0128F0
:10F4C00000D110BD0B480078002802D0FDF7FCF8F1
:10F4D0000CE009480078002806D007480078032887
:10F4E00002D0FFF739FD01E0FCF70AFDFFF726FE29
:10F4F00000BFE6E7410E0020420E0020F8B50546A9
:10F500000E46144600272878A22854D006DC12287C
:10F5100058D0322861D0342866D106E0D22813D0E2
:10F52000D32818D0D4285FD136E0002032490870A3
:10F53000FEF7FAF8022803D001210846FEF7CEFFB5
:10F5400001270020207053E02846FFF71BF80746EC
:10F55000002020704CE02948007803280ED128486C
:10F560000078307020222749701CFDF7C7FA21204F
:10F57000207000202149087001270CE01F48007806
:10F58000002802D10127207005E00027012020700B
:10F590001B48007830702BE0002018490870FEF7F7
:10F5A000C3F8022803D001210846FEF797FF012780
:10F5B000002020701CE0012720213046FDF7BAFB17
:10F5C000207015E06A78521ED1B2A878EA1C00F0CB
:10F5D000A1FA0746002020700AE02846FEF718FF2F
:10F5E00007460020207003E000270020207000BFA5
:10F5F00000BF3846F8BD0000410E0020420E00203A
:10F600007B1E00200812002010B500202149087040
:10F610002149087021490870214908702149087062
:10F620002149087021490870214908702149087052
:10F630002149087021490870214908702149087042
:10F640002149087021490870214908702149087032
:10F650002149087021490870214908701F49087024
:10F66000FDF7C2FE1F490860FDF7BEFE1E49086097
:10F67000FDF7BAFE1D490860FDF7B6FE1B4908609C
:10F68000FDF7E0FFFDF750FBFDF7AEFE18490860FF
:10F6900010BD0000380E0020410E0020420E002058
:10F6A0007B1E0020FC1E0020FD1E0020FE1E0020F0
:10F6B000FF1E0020001F0020011F0020021F00204D
:10F6C000031F0020041F0020051F0020061F00202C
:10F6D000071F0020081F0020091F00200A1F00200C
:10F6E0000B1F0020141F0020181F00200C1F0020DB
:10F6F0003C0E0020FEB504461D46002001902078F7
:10F70000030000F09AFB16DE11D65D18D7951D0C8C
:10F71000DED887DE6B792251DEDED9A3C5DE01207B
:10F72000019000202870D0E0FDF7FEFA0120019042
:10F7300000202870C9E00120019000202870C4E05A
:10F740000120019000202870BFE060780002A178BD
:10F75000401800B25E490880E07800022179401824
:10F7600000B25C49088060790002A179401800B2BB
:10F7700059490880E0790002217A401800B25749BF
:10F780000880607A0002A17A401800B254490880CB
:10F79000E07A0002217B401800B252490880012023
:10F7A00001900020287090E060780002A178401855
:10F7B00000B24D490880012001900020287084E0AB
:10F7C00060784A490870A0784870E078887020799D
:10F7D000C870012001900020287076E060784449CC
:10F7E0000870A0784870E07888702079C87001208F
:10F7F00001900020287068E060783E490870A07889
:10F800004870E07888702079C8700120019000204D
:10F8100028705AE0607938490870A0794870E0791A
:10F820008870207AC87001200190002028704CE078
:10F83000607832490870A0784870E0788870207944
:10F84000C87001200190002028703EE0E07800029E
:10F850002179401803D12A492A4A03C213E0E278E9
:10F8600012022379D11862781202A378D018FBF71C
:10F870000CFE0090FBF78AFF06460022204BFBF7A8
:10F880001DFF204A03C201200190002028701CE0C7
:10F89000E0780002217940181B4908806079000255
:10F8A000A179401819490880012001900020287092
:10F8B0000BE000BF00BF00BF0120019000202870B6
:10F8C00003E000200190287000BF00BF0198FEBD3A
:10F8D000580E00205A0E00205C0E00205E0E002004
:10F8E000600E0020620E00204C0E0020280E00202A
:10F8F0002C0E0020300E0020340E00206A0E002056
:10F900000000F03F500E0020460E0020480E002060
:10F91000FFB581B0074614460025002000903878D6
:10F92000092804D00C280CD011287DD115E0012025
:10F9300000900A2020700420607002210498017059
:10F94000CBE0012000906748007840106649085CD1
:10F950002070012104980170BFE07878A5287DDA35
:10F96000002504E000222846691CCDB22254787894
:10F97000A842F7DC00255D48027829466D1C6254D8
:10F980005B48027829466D1C6254002229466D1C92
:10F99000625429466D1C62545648027829466D1CF3
:10F9A00062545548027829466D1C625478780C28B8
:10F9B0002CDD082551480068FDF72AFD0646504910
:10F9C00009888E4202D34E480088461C3004020E3D
:10F9D0002846691CCDB222542846691CCDB2265453
:10F9E00048480068FDF714FD0646454800888642F1
:10F9F00002D343480088461C3004020E2846691C86
:10FA0000CDB222542946681CC5B2665478781628AF
:10FA100030DD12253C480068FDF7FAFC06463B48FD
:10FA20000088864204D300E051E038480088461C34
:10FA30003004020E2846691CCDB222542846691CA7
:10FA4000CDB2265432480068FDF7E2FC06462F4846
:10FA50000088864204D32D48008800E031E0461C2F
:10FA60003004020E2846691CCDB222542946681C77
:10FA7000C5B26654787822281DDB1E25022101209C
:10FA8000FDF748FF2A466D1CA05400210120FDF718
:10FA900041FF2A466D1CA05402210020FDF73AFFC9
:10FAA0002A466D1CA05400210846FDF733FF294665
:10FAB0006A1CD5B2605401200090797804980170D6
:10FAC00004E00020009000210498017005E000206F
:10FAD000009000210498017000BF00BF009805B09D
:10FAE000F0BD0000380E0020340E0020011F002061
:10FAF000021F0020031F0020041F00200C1F0020F5
:10FB0000460E0020101F0020141F0020480E002069
:10FB1000181F0020F8B505460C46174600260020A1
:10FB200000902C48007800284AD1002C48DD202C79
:10FB300046DC01262B0000F080F90A0625282B2E32
:10FB40003134373A3D402448009000202349087062
:10FB5000487023490870487022490870487022494B
:10FB60000870487021490870487021490870487031
:10FB70002049087048702049087048701F49087073
:10FB800048701CE01548009019E01548009016E0F8
:10FB90001448009013E01448009010E013480090BF
:10FBA0000DE0134800900AE01248009007E0124868
:10FBB000009004E01148009001E0002600BF00BF63
:10FBC000012E04D1224639460098FCF797FF3046B3
:10FBD000F8BD0000410E0020041C0020241C002061
:10FBE000441C0020641C0020841C0020A41C002055
:10FBF000C41C0020E41C0020041D0020241D002043
:10FC0000F0B505460E461746202E24DC2B0000F0EA
:10FC100014F90906080A0C0E1012141618000F4CDD
:10FC200011E00F4C0FE00F4C0DE00F4C0BE00F4CB0
:10FC300009E00F4C07E00F4C05E00F4C03E00F4CC0
:10FC400001E00020F0BD00BF324639462046FCF7F7
:10FC500055FF0120F6E70020F4E70000441D0020D6
:10FC6000641D0020841D0020A41D0020C41D002050
:10FC7000E41D0020041E0020241E0020441E00203D
:10FC800010B501242748007815282BD010DC042853
:10FC90001FD006DC002837D0012812D003283DD120
:10FCA00014E012280ED0132816D0142836D116E0EE
:10FCB0001638030000F0C1F80719321F221C25076F
:10FCC000320000BF00BFFEF7C9FD27E0FEF7A2F833
:10FCD00024E0FDF7F3FE21E0FEF708FF1EE0FEF74B
:10FCE0000DF91BE0FEF7E2F818E0FEF7D3F915E096
:10FCF000FEF71CF912E0FEF78BF90FE0FEF75EFF4E
:10FD00000CE0FCF707FF09E07F200749087000209E
:10FD10000649087006490860002400BF00BF20465D
:10FD200010BD00001C0E00201E0E00201F0E002023
:10FD3000001C002010B5044600202E4908702078D1
:10FD400015281DD010DC04282AD006DC002841D05C
:10FD5000012812D0032848D121E0122812D01328FC
:10FD60000CD0142841D10AE01638030000F065F8E1
:10FD7000071E3D19091F2E0F3D0000BF00BF00BF29
:10FD800000BF00BF6078A11CFEF712FE2DE001202D
:10FD9000184908706078A11CFEF70AFE25E000BF34
:10FDA00000BF6078A11CFDF751FF1EE000BF607826
:10FDB000A11CFDF74BFF20780F4908707F200F49E9
:10FDC00008700F4908700F4908700EE020780A4942
:10FDD00008700AE0FFF718FC7F200949087000202E
:10FDE000084908700849086000BF00BF2078024930
:10FDF000087010BD200E00201C0E00201D0E0020DB
:10FE00001E0E00201F0E0020001C00202021020CCE
:10FE100001D010211046020A01D00839104602090B
:10FE200001D0091F1046820801D0891E10464208E1
:10FE300001D0881E7047081A704730B47446641E9B
:10FE40002578641CAB4200D21D46635D5B00E3185D
:10FE500030BC184701460B4A48080B4B1840091A9A
:10FE6000084610408B081340C11808094018074B7A
:10FE700018400146000A4118080C41188806800EF7
:10FE80007047000033333333555555550F0F0F0F5F
:10FE900002E008C8121F08C1002AFAD17047704753
:10FEA000002001E001C1121F002AFBD170470000B1
:10FEB00070B505461120400101222C18082915D0E3
:10FEC00009DC28461F4BC030002930D0012937D02B
:10FED000032921D113E00A2911D012291DD0142998
:10FEE0001AD1E0890221884310431BE0E089802178
:10FEF0000843E081284606F072FF802109E012489D
:10FF00004255284601F0AEFC284606F068FF012164
:10FF10000903284601F0E6FC70BDE0890107FBD526
:10FF200008218843E081284606F059FF70BD03612F
:10FF3000284606F023FAE08920218843E08170BD3D
:10FF4000436170BD000001001702000010B50446B7
:10FF50000E20FDF7B7FA0E2001218140104A1160F2
:10FF600000BF00200F4908600F48446000200F497F
:10FF7000086001200E49086003E000BF30BF00BFE9
:10FF800000BF084800680028F7D00E2001218140FA
:10FF9000034A8032116000BFFDF794FA10BD0000E3
:10FFA00000E100E0A811002000E5004000E1004071
:10FFB00000E0004070B50B4C15460E46002B00D0FB
:10FFC000094C01460948A047084829461038A0476F
:10FFD00006481038FFF7BAFF044930461031A047F1
:10FFE00070BD0000251E0100371E01009C1300207B
:10FFF00010B504460448FFF7A9FF03492046203105
:020000040001F9
:1000000001F010FF10BD00008C130020084840686C
:100010000121890308430649486000BF054840683C
:10002000012189030842F9D0032003494860704741
:10003000000500400004004000E3004070B51E4988
:1000400004464879002808D00D46903D012805D087
:10005000022812D003281AD0002070BD2070022080
:10006000487194221549601CFBF723FA1349942226
:1000700094312846FBF71DFA07E0207003204871F1
:1000800094222946601CFBF714FA952070BD20705D
:1000900000204871012003F0F3FA0849082234399E
:1000A000601CFBF706FA2046942205490930FBF74D
:1000B00000FA9D2070BD0000F8100020AC0E00205A
:1000C000D40F002002484079002800D0012070475A
:1000D000F8100020064A80008018002902D0416BE9
:1000E000491C4163C0308168491C81607047000031
:1000F000780E002010B501F091FE05F01BF807F016
:1001000059F80B490B48FBF7FBF90B490B48FBF778
:10011000F7F9FBF7D7FC62B605F06AFCFFF776FF4C
:1001200003F02AFB04F04CFB06F01CFB10BD0000A2
:1001300080190000581B0020E1030000581B00201C
:1001400010B501460A220248FBF7B3F910BD0000C2
:10015000D012002070B50D462449C0B04018164694
:1001600000240300FFF769FE0705092E32363A3EE8
:1001700026006946284600DF13E01D490878491C1F
:1001800009220B78491C1843521EFAD1002100287D
:100190000BD00A221649A81CFBF78BF969462846A2
:1001A00002DF68464478A41C04E00D226846027011
:1001B00041700224224669463046FBF77AF9E0B2E4
:1001C00040B070BD6946284603DFEAE76946284625
:1001D00004DFE6E76946284605DFE2E76946284688
:1001E00006DFDEE76946284607DFDAE7DF03FFFFC1
:1001F000D0120020F0B50721C9014318DA7F40244E
:10020000D507921CD6B2DE775F7FED0F002F1BD093
:100210009A7F002A18D0BA1A00D55242052A09DB63
:1002200042195218577F0122521B10184018407F64
:10023000874201D97408640070084000A04202D1CE
:100240000120401BD877F0BD0224F5E7112110B53D
:1002500049014218D189042399430723DB01D18145
:10026000C418237EFB2B00D3FB23E3750123194322
:10027000D181990201F036FB10BD000010B5B62106
:1002800004460B5CFF3441341C2100226156002BD4
:1002900005D0104808562077801C0CD011E00D487E
:1002A000C01C0856207702280BD12277608B0128CA
:1002B00007D9400804E02277608BFF2801D840006E
:1002C000608302F00BF9618B491E0840401C2083BB
:1002D00010BD0000B07801000E48C06A0821084235
:1002E00017D10C484030C06A0B49486209486C304D
:1002F0004068886207486C308068C86205486C3086
:10030000C068086303486C300069C90508430249A6
:100310004863704780000010001700400D218901DC
:100320004218918B927F891D103251431522520140
:1003300080180F31808B09090818704707220121A6
:10034000D2018018C17470470B49098804221142F8
:1003500001D002200FE00949096800290AD00849A4
:100360000968012904D10021054A1160002002E03A
:10037000042000E005207047F0110020B411002097
:1003800000140040F3B591B00446002604F09EF935
:100390002546FF3541351090A86A00286FD0FD2012
:1003A0000890002712980597001D0A9028462030D3
:1003B000FF34049769340994039053E000200790B8
:1003C000A0790007000F012806D0E0798006800E92
:1003D000062801D3801F07900B201099C001081830
:1003E0000190808C400704D5079808990A30814213
:1003F0003DD3099801F0ACFEA0790007000F072853
:1004000028D2012805D10399497C022926D0032945
:1004100024D00199898C49071CD561792279090278
:100420001143079B49422246C9B20E32DBB2009308
:1004300001920291E17923468A0921490833095C36
:100440000A9803F09BFA0A9007990898401A0A380C
:10045000761C08907F1C2146039801E0214604A8E1
:1004600001F0DDFEAC6A002C01D0192EA6DBF8B23B
:1004700003F006F9A86A002802D0049C0EE01DE0F3
:1004800003A807C8C26081600AE02046FBF750F865
:1004900005462146099801F0C2FE2C46002CF4D1F5
:1004A000002E0BD00898FD21081AC2B2F3B2022127
:1004B000129802F013FA042013B0F0BD0020FBE7FD
:1004C000A4750100F3B58BB0044604F0FFF8059065
:1004D00000202646C0360490F06800287ED05520C3
:1004E000C000201809902046A03008900720C001C5
:1004F00020180790E01DFF300D22FA309201039082
:100500001121A018012500274901029060180690CA
:10051000F068014629422BD0FF220132A91A049526
:1005200095426BD00CDC202D23D004DC022D64D04E
:10053000102D1BD1CBE0402D1BD0802D16D1A8E073
:100540000F2000020A1A81425FD007DCFF3901390F
:1005500074D0FF39FF39023908D18AE00320000343
:10056000101A74D003218903401A76D00020049019
:10057000CCE0089A0599127E1031022A02D0C006FA
:1005800007D419E006980122C08952021043069A46
:10059000D081FF310998B9310190009102980B2167
:1005A000038B0598C9014018808C00224006C10FBA
:1005B0000C9802F0A1FF1CE0FF31B93109980091BD
:1005C00001900B210598C9014018808C002340063A
:1005D000C10F02220C9802F08FFF00E093E00F2081
:1005E0000599C00108180178491E0170089900207A
:1005F0000876F06860218843F06079E00298099AF3
:10060000018B0C9802F0EAFF72E00398C07D01288C
:100610000298837902D0022B03D008E0028B1A21C2
:1006200008E00520C0012018C07E302809D00298BB
:100630000021028B0C9803F040F859E038E006E006
:100640000BE00298018B0C9803F04EF850E00298F2
:10065000018B0C9802F04AF94AE00398808A0090D6
:100660000398438A427C0298018B0C9803F048F966
:100670003EE00798C07D0090C1007031079801915D
:10068000827D0298D300018B70330C9802F0C4FF76
:100690002EE00398837D0698807B000601D5112209
:1006A00000E000220298018B0C9803F0F7F81FE09D
:1006B000132040012018C289818901920091438949
:1006C00002890298018B0C9803F0FEF810E007985D
:1006D000427D0298018B0C9802F0DEFF0F200599F5
:1006E000C00108180178491E017008990020087699
:1006F000049800280AD0022805D0F068A843F060CA
:10070000012002F0BDFF04980DB0F0BD7F1C6D000C
:10071000122F00DAFCE6F6E7F8B504460D2080015A
:1007200025462018C035408B2969884201D0002019
:10073000F8BD0120000428610720C0012718B87CFB
:10074000002600281DD05920C00021185520C000C7
:1007500020220E462018FAF7ACFE152040011B217E
:1007600020184901808B611808800520C0012018DD
:10077000C16A806A03C520213046FAF7C1FE01260E
:1007800016E0204605F0FAFD112040012518E88901
:1007900020218843E8814021204600F05DFB0028AD
:1007A00006D0387D002803D0E88910210843E8816D
:1007B0003046F8BD10B58478944204D0112206F07A
:1007C0005DF9012010BD002010BD0000002002498D
:1007D0000860024908807047B4110020F011002021
:1007E000112149014018C18904229143C1817047F8
:1007F000F8B50446112040012018C089C105072022
:10080000C0012718002901DA797D0EE00520254670
:10081000C001C0352618A969706B814209D9787C5E
:10082000002801D0082100E03E21204600F039F9DF
:10083000F8BD092080012218D06B002804D0316B4C
:10084000884207D9401AD0633068002806D0316B3F
:10085000884201D82221E8E7401A30600D2080014B
:1008600020180090807902280CD10B2080012018DC
:10087000836A2968C06A6A68591A904102D2204680
:1008800000F048FCA869316B4018A8610098408BC3
:10089000401C82B2009842831B2040012118C87876
:1008A000BB7BC018C0B2C870252801D32538C870DA
:1008B000686982420DD1012000046861F87C00283B
:1008C00003D0204603F060FE03E08021204600F0C4
:1008D000C3FA0020F876F8BDF3B504460B2080017A
:1008E0002518172081B000214001298322180221F8
:1008F000009211712046FFF711FD0D218901611849
:10090000498BDB260A182146C0310A610522D20133
:10091000A2189646126B0B68424349689B18002048
:1009200041412A8B2248F6434243D017371292198D
:1009300078419E18009A414153882F691288BC461D
:100940000027FF3327678733FF32A36687322046AD
:10095000E266603001224277674600238762838522
:10096000203083730298002813D0002200920028C0
:1009700003DA7046026B02981018821900234B416B
:10098000204605F075FE821B2823D218094E084C1C
:1009900005E00092F1E72B8B5B1C2B839219A2429E
:1009A000F9D8DC230022C0185141E960A860FEBDDF
:1009B000E20400001EFBFFFFF8B505460E460446A4
:1009C000C03501216869090488420DD120212046E3
:1009D00000F0E6FB002808D0112040012018C18952
:1009E000012292021143C181F8BD2046FFF796FC17
:1009F0000D2189016118498B0D22081807216861B2
:100A0000C90100206118C8742320000120180A4978
:100A10000746FAF74EFD0948052231462018FAF735
:100A200048FD09218901A88A6118488001223946B8
:100A3000204600F045FEF8BD727501003D02000041
:100A400070B504460720C0012618B07DF17D40181E
:100A5000C5000B2080012018FF3540887735A8425B
:100A60001ED22021204600F09BFB002818D15520E3
:100A7000C00021185920C00020222018FAF719FDC3
:100A8000172040012018458000212046FFF724FF51
:100A9000232000012118204600F04EFE0020307572
:100AA00070BD10B504460720C00120184175102103
:100AB000204600F017FF204605F06EFC0421B82008
:100AC0000155204602F020FEE11DFF31FA3120469B
:100AD00001F0AEFC4120C0002118204601F0A8FC26
:100AE000FF210020FD3108510D2189016118888303
:100AF00010BD0000FFB587B00E4604460321A030AC
:100B0000159A874B0176002A01D0912100E09621A9
:100B100020461C30E06120622425295534302065B0
:100B200060650C386064A0644C200155204680301C
:100B300000607C25406029557A49036161607A49EB
:100B40002160027579480D2292010188A218009255
:100B50001183491C00250904090C018001D10121E0
:100B600001805D20C00070212018FAF7C9FC0098B0
:100B70006F49857100988574009801820B2080016F
:100B800020186C490390016303F0E0FC0146204605
:100B9000C03001908160204603F0F6FC01F09EFC1D
:100BA0000721C9016718C0B20C214843000A1B2164
:100BB000401D4901B87361180491C87000984583BD
:100BC0007D740120019900040861BD740199486198
:100BD0002046FF30FD74F530056045601498787547
:100BE0001B20B875F875204601F0DDF8E01DFD7397
:100BF000FF303D74FA30056045604120C000201888
:100C000005604560FF20FD300551009885834A4806
:100C100021184A4800888880049920468D7000F089
:100C2000DDF90521C901621809980292D082029A61
:100C30000A9810832A213046FAF762FCB61D3078F4
:100C4000314600090001401D307070780E31800976
:100C500080012230707001988068FAF773FC01F00F
:100C60003DFC05903046032205A91230FAF721FC1D
:100C7000039802210171717500220A99099802F006
:100C8000D5FF15214901611848833076020A727632
:100C90002B4A5043029A106311988883B076000A59
:100CA000F0761098C8833077000A7077049911980D
:100CB000088024491098029A48435063D920800044
:100CC0002118304605221E30FAF7F3FB2036F07863
:100CD000B97B4009C9064001C90E0843E021084319
:100CE000F070039813994180039812990180552060
:100CF000C0002118204600F0E5F80198C560FD7697
:100D00007F203877FD77BD777D77009885771D2028
:100D1000400120180570457085700BB0F0BD0000D3
:100D2000D1100100B55A01005F5701005011002099
:100D3000B80B000080C3C901A2020000C474010006
:100D4000E204000010270000F3B504460B208001E8
:100D50002718788889B0FF30873004903888DB22E4
:100D6000FF30873003902046C030009022C8D24325
:100D700010128E1845412046FFF7CEFC00280ED0F9
:100D80000099DB2221C9D2431112861878884D417F
:100D9000FF30873004903888FF308730039005207B
:100DA000009AC00127181368B96AF86A5268594056
:100DB0005040014316D10023039A04993F6B2364EA
:100DC000E26320463030A16301224277A765838524
:100DD0005E200355009332462B46204605F086FAE6
:100DE0000BB0F0BD0A980028FAD0012000903246DE
:100DF0002B46204605F09AFCF2E7000070B5044649
:100E0000112040012018C089010601D51A2070BDAB
:100E1000400604D58021204600F064FD17E0202123
:100E2000204600F0BDF9002801D0232070BD23200A
:100E300000012018152207490546FAF73AFB01225E
:100E40002946204600F03CFC204605F0B1FF00207A
:100E500070BD00007F75010070B50D460146FF3181
:100E60000446C131C86B002808D0427A037A1202C6
:100E70001A432A4202D00022CA6311E0E11DFF3169
:100E80002A46FA31204601F00FFA002808D1412005
:100E9000C00021182A46204601F006FA002810D08A
:100EA000417A027A09021143C9070AD06921C900AF
:100EB00061180A68521E0A60521C02D10A79521E39
:100EC0000A7170BD072210B5D2018018827DC07DE5
