:10B0000034100A10410000009F68CC52492C1DE00A
:10B0100024B2C429EFB0FE85E2F199EF2CDE550988
:10B02000FCA2AE7832A9D8D13DDC042EC42E86ED28
:10B030003F634F527BE05341F970312A648CC1B5B4
:10B0400058E6703A9FF5F6CC827E9A76CD6001ADD7
:10B050009BDF491C628995134A604A3307B4D1A922
:10B06000A10246FBFCDA04248AB5165B3B2785C4A3
:10B07000A12A4BEC42D924CDD9D517A5D58F46238B
:10B08000CF156EBDA0FC4962FF70CDC43F27A376EB
:10B090009D7E17DC82042D958E402E6D240FB5CE3B
:10B0A000B66870EC129AB2670A71FBE88C61A95518
:10B0B00028ECAF2F4789FFA114611E1A000595C225
:10B0C00053F3FB007DBD7F35603AAD99B86EDF0F5D
:10B0D000A83EB9E74B9B2D0BB26279221BB9FA8AC5
:10B0E000B737BDCE3F3639FED2D5CA16659B60B99B
:10B0F000ECB5084398213828F97D8560CFE948A44C
:10B100006256D150BEEDA6310100FFFF03010100E0
:10B110000000000000B4000024CE00000000000089
:10B12000930B0DA00B4C0DEF7B9C372A80217118DF
:10B130000C09161E37105DAE86A885B6ABCC03E5AC
:10B1400006B249462442D269F94FCFC7FC8CB132CE
:10B15000DEECFD8DE38A3FBA6134FBCEA5C4CDDCC5
:10B16000F29A742884E12D25547E7383A657F84003
:00000001FF
