:020000040000FA
:06000000E6EF2AF01200F9
:0600080004EF08F01200F5
:060018000CEF08F01200DD
:06100000E6EF2AF01200E9
:021006001200D6
:0610080098EF1EF012003B
:02100E000400DC
:08101000C08012000400120070
:06101800E5EF1EF01200DE
:02101E000500CB
:1010200051560000A8000000480000005056000083
:10103000EB04000001000000335600002E0E0000FB
:101040001D00000030560000E8040000030000000E
:0C105000E85500006000000048000000AF
:04105C00D9CFE6FF03
:10106000E1CFD9FF020EE126080E00016C5D1DE202
:101070006B51E96EEA6AD890E936EA366D0EE926D8
:10108000000EEA22EECFDEFFEDCFDDFF6B2B6B51C2
:10109000070801E26B6B6C2BDECF0BF0DDCF0CF0A1
:1010A0000BC0F3FF0CC0F4FF03D0F36AF46A00D066
:1010B000020EE15C02E2E16AE552E16EE552E7CF41
:1010C000D9FF1200D9CFE6FFE1CFD9FF020EE1260A
:1010D00000016C511DE06A51E96EEA6AD890E93668
:1010E000EA366D0EE926000EEA22EECFDEFFEDCFE6
:1010F000DDFF6A2B6A51070801E26A6B6C07DECFDD
:101100000BF0DDCF0CF00BC0F3FF0CC0F4FF03D0ED
:10111000F36AF46A00D0020EE15C02E2E16AE55291
:10112000E16EE552E7CFD9FF1200D9CFE6FFE1CF5C
:10113000D9FF020EE126080E00017F5D1DE27E51FF
:10114000E96EEA6AD890E936EA36800EE926000EA2
:10115000EA22EECFDEFFEDCFDDFF7E2B7E510708CA
:1011600001E27E6B7F2BDECF0BF0DDCF0CF00BC0EE
:10117000F3FF0CC0F4FF03D0F36AF46A00D0020E50
:10118000E15C02E2E16AE552E16EE552E7CFD9FFA8
:101190001200D9CFE6FFE1CFD9FF020EE126000110
:1011A0007F511DE07D51E96EEA6AD890E936EA3652
:1011B000800EE926000EEA22EECFDEFFEDCFDDFF46
:1011C0007D2B7D51070801E27D6B7F07DECF0BF0A1
:1011D000DDCF0CF00BC0F3FF0CC0F4FF03D0F36ABB
:1011E000F46A00D0020EE15C02E2E16AE552E16ECF
:1011F000E552E7CFD9FF1200D9CFE6FFE1CFD9FF03
:10120000FD0EDBCFE9FFFE0EDBCFEAFFEF50020A57
:1012100005E0030A01E004D0010E24D0010E22D023
:10122000FB0EDBCFE9FFFC0EDBCFEAFFDC0EEF6E3F
:10123000010EE76EFB0EDBCFE9FFFC0EDBCFEAFF12
:10124000E750E926000EEA22EF6A020EE76EFB0E77
:10125000DBCFE9FFFC0EDBCFEAFFE750E926000E0B
:10126000EA22EF6AE552E7CFD9FF1200D9CFE6FFB5
:10127000E1CFD9FF080EE126DE6ADD6A020EDB6AE5
:10128000030EDB6A040EDB6A050EDB6AFD0EDBCFA4
:10129000E9FFFE0EDBCFEAFFEF50EE0A01E1ACD131
:1012A000010A01E19ED0020A01E0AFD2020EE76E10
:1012B000FD0EDBCFE9FFFE0EDBCFEAFFE750E926AC
:1012C000000EEA22EF50020825E1FB0EDBCFE9FF1A
:1012D000FC0EDBCFEAFFED0EEF6E010EE76EFB0EAC
:1012E000DBCFE9FFFC0EDBCFEAFFE750E926000E7B
:1012F000EA22010EEF6E020EE76EFB0EDBCFE9FF76
:10130000FC0EDBCFEAFFE750E926000EEA22EF6A87
:10131000FFD766D0020EE76EFD0EDBCFE9FFFE0EB3
:10132000DBCFEAFFE750E926000EEA22EF50030880
:1013300035E1FB0EDBCFE9FFFC0EDBCFEAFFED0E64
:10134000EF6E010EE76EFB0EDBCFE9FFFC0EDBCF8D
:10135000EAFFE750E926000EEA22010EEF6E020EC8
:10136000E76EFB0EDBCFE9FFFC0EDBCFEAFFE750B9
:10137000E926000EEA22EF6A030EE76EFD0EDBCFD0
:10138000E9FFFE0EDBCFEAFFE750E926000EEA2276
:10139000EF50E66EC3EC21F0E55222D0FB0EDBCF1E
:1013A000E9FFFC0EDBCFEAFFED0EEF6E010EE76EFC
:1013B000FB0EDBCFE9FFFC0EDBCFEAFFE750E926AF
:1013C000000EEA22EF6A020EE76EFB0EDBCFE9FFAA
:1013D000FC0EDBCFEAFFE750E926000EEA22EF6AB7
:1013E00014D2FD0EDBCFE9FFFE0EDBCFEAFFEF509C
:1013F000E66EFB0EDBCFE9FFFC0EDBCFEAFFE5522A
:10140000E750EF6E020EE76EFD0EDBCFE9FFFE0E3A
:10141000DBCFEAFFE750E926000EEA22EF50E66E46
:10142000D950020FE96EDACFEAFFE552E750EE6ECF
:10143000ED6A020EDBCF0BF0030EDBCF0CF00BC01E
:101440000CF00B6A020E0BC0DBFF030E0CC0DBFFBF
:10145000E76EFD0EDBCFE9FFFE0EDBCFEAFFE750C4
:10146000E926000EEA22EF500B6E0C6AD950020FEB
:10147000E96EDACFEAFF0B50EE260C50ED22040E97
:10148000E76EFD0EDBCFE9FFFE0EDBCFEAFFE75094
:10149000E926000EEA22EF50E66ED950040FE96EFD
:1014A000DACFEAFFE552E750EE6EED6A040EDBCFCD
:1014B0000BF0050EDBCF0CF00BC00CF00B6A040E2A
:1014C0000BC0DBFF050E0CC0DBFFE76EFD0EDBCFB4
:1014D000E9FFFE0EDBCFEAFFE750E926000EEA2225
:1014E000EF500B6E0C6AD950040FE96EDACFEAFFA9
:1014F0000B50EE260C50ED22D950040FE96EDACFD6
:10150000EAFFEE50ED100BE0D950040FE96EDACF90
:10151000EAFF3A0ED880EE54000EED541BE2010EA5
:10152000E76EFB0EDBCFE9FFFC0EDBCFEAFFE750F7
:10153000E926000EEA22EF6A020EE76EFB0EDBCF11
:10154000E9FFFC0EDBCFEAFFE750E926000EEA22B6
:10155000EF6A51D0010EE76EFB0EDBCFE9FFFC0E08
:10156000DBCFEAFFE750E926000EEA22010EEF6E1C
:10157000020EE76EFB0EDBCFE9FFFC0EDBCFEAFFCE
:10158000E750E926000EEA22040EDBCFEFFF060E3D
:10159000DB6ADBCF0BF0040EDBCF0CF0050EDBCFEC
:1015A0000DF00C500B5C000E0D5425E2020EDBCF4B
:1015B0000BF0DB2A030EDBCF0CF001E3DB2ADE505D
:1015C0000B24E96EDD500C20EA6EEF50E66E060E3D
:1015D000DB50030FE76EFB0EDBCFE9FFFC0EDBCF2A
:1015E000EAFFE750E926000EEA22E552E750EF6EE7
:1015F000060EDB2ACED709D1FD0EDBCFE9FFFE0EAA
:10160000DBCFEAFFEF50E66EFB0EDBCFE9FFFC0E0F
:10161000DBCFEAFFE552E750EF6E020EE76EFD0EFC
:10162000DBCFE9FFFE0EDBCFEAFFE750E926000E35
:10163000EA22EF50E66ED950020FE96EDACFEAFFE8
:10164000E552E750EE6EED6A020EDBCF0BF0030EB3
:10165000DBCF0CF00BC00CF00B6A020E0BC0DBFFF3
:10166000030E0CC0DBFFE76EFD0EDBCFE9FFFE0EC5
:10167000DBCFEAFFE750E926000EEA22EF500B6EBF
:101680000C6AD950020FE96EDACFEAFF0B50EE2652
:101690000C50ED22040EE76EFD0EDBCFE9FFFE0ECF
:1016A000DBCFEAFFE750E926000EEA22EF50E66EB4
:1016B000D950040FE96EDACFEAFFE552E750EE6E3B
:1016C000ED6A040EDBCF0BF0050EDBCF0CF00BC088
:1016D0000CF00B6A040E0BC0DBFF050E0CC0DBFF29
:1016E000E76EFD0EDBCFE9FFFE0EDBCFEAFFE75032
:1016F000E926000EEA22EF500B6E0C6AD950040F57
:10170000E96EDACFEAFF0B50EE260C50ED22D950ED
:10171000040FE96EDACFEAFFEE50ED100BE0D9507E
:10172000040FE96EDACFEAFF3A0ED880EE54000ECD
:10173000ED541BE2010EE76EFB0EDBCFE9FFFC0E62
:10174000DBCFEAFFE750E926000EEA22EF6A020E3D
:10175000E76EFB0EDBCFE9FFFC0EDBCFEAFFE750C5
:10176000E926000EEA22EF6A4FD0010EE76EFB0E6B
:10177000DBCFE9FFFC0EDBCFEAFFE750E926000EE6
:10178000EA22010EEF6E020EE76EFB0EDBCFE9FFE1
:10179000FC0EDBCFEAFFE750E926000EEA22EF6AF3
:1017A000070EDB6ADBCF0BF0040EDBCF0CF0050E6F
:1017B000DBCF0DF00C500B5C000E0D5425E2070E34
:1017C000DB50060FE76EFD0EDBCFE9FFFE0EDBCF31
:1017D000EAFFE750E926000EEA22EF50E66E020E1D
:1017E000DBCF0BF0DB2A030EDBCF0CF001E3DB2AAF
:1017F000DE500B24E96EDD500C20EA6EE552E75016
:10180000EF6E070EDB2ACED700D0010E0B6E080E4E
:10181000E15C03E200D0E16AE552E16E0B50E55273
:10182000E7CFD9FF1200D9CFE6FFE1CFD9FF040EF1
:10183000E126FD0EDBCFE9FFFE0EDBCFEAFFEF5026
:10184000FF0A01E1BED3010A01E187D30B0A01E1DE
:101850002FD3010A01E1E9D2060A01E1AAD21F0A47
:1018600001E193D2030A01E190D2010A01E18DD294
:10187000330A01E176D2080A01E16BD2140A01E1D0
:10188000D4D1630A01E196D1020A01E158D1010ADB
:1018900001E1F8D0300A01E1B9D0E00A69E0440A78
:1018A0005FE0200A01E0F8D3FB0EDBCFE9FFFC0E7E
:1018B000DBCFEAFF140EEF6E010EE76EFB0EDBCFFF
:1018C000E9FFFC0EDBCFEAFFE750E926000EEA2233
:1018D000010EEF6E030EE76EFB0EDBCF0BF0FC0E7E
:1018E000DBCF0CF0E7500B26000E0C220BC0E6FFFE
:1018F0000CC0E6FF010EE76EFD0EDBCFE9FFFE0E2A
:10190000DBCFEAFFE750E926000EEA22EF50E66E51
:10191000020EE76EFD0EDBCF0DF0FE0EDBCF0EF0FC
:10192000E7500D26000E0E220DC0E6FF0EC0E6FFAA
:1019300089EC1FF00F6E050EE15E0F50E66E020E91
:10194000E76EFB0EDBCFE9FFFC0EDBCFEAFFE750D3
:10195000E926000EEA22E552E750EF6E010E9ED313
:10196000FA0EDB5003E00001010E696F000E96D302
:101970000E0EE66EE66A950EE66E000EE66EA80E98
:10198000E66E040EE66E53EC2AF00B6E060EE15E78
:101990000B50AC0EE66E040EE66E0A0EE66E010EFD
:1019A000E66EFC0EE66E9CEC25F00B6E050EE15E1D
:1019B0000B507DC07EF000017F6B0001A56B000124
:1019C000696BFB0EDBCFE9FFFC0EDBCFEAFF700E8D
:1019D000EF6E010EE76EFB0EDBCFE9FFFC0EDBCFF7
:1019E000EAFFE750E926000EEA22010EEF6E020E32
:1019F000E76EFB0EDBCFE9FFFC0EDBCFEAFFE75023
:101A0000E926000EEA22EF6A000E48D3FB0EDBCF78
:101A1000E9FFFC0EDBCFEAFF900EEF6E010EE76EE2
:101A2000FB0EDBCFE9FFFC0EDBCFEAFFE750E92638
:101A3000000EEA22010EEF6E030EE76EFB0EDBCF07
:101A40000BF0FC0EDBCF0CF0E7500B26000E0C2247
:101A50000BC0E6FF0CC0E6FF4DEC29F0E552E55265
:101A6000E66E020EE76EFB0EDBCFE9FFFC0EDBCF6E
:101A7000EAFFE750E926000EEA22E552E750EF6E52
:101A8000010E0CD3FB0EDBCFE9FFFC0EDBCFEAFF30
:101A9000A00EEF6E030EE76EFB0EDBCF0BF0FC0E1D
:101AA000DBCF0CF0E7500B26000E0C220BC0E6FF3C
:101AB0000CC0E6FF020EE76EFD0EDBCF0DF0FE0E52
:101AC000DBCF0EF0E7500D26000E0E220DC0E6FF14
:101AD0000EC0E6FF40EC25F0E552E552E552E55236
:101AE000E66E010EE76EFB0EDBCFE9FFFC0EDBCFEF
:101AF000EAFFE750E926000EEA22E552E750EF6ED2
:101B0000040EE76EFD0EDBCFE9FFFE0EDBCFEAFF32
:101B1000E750E926000EEA22EF50E66E020EE76E6D
:101B2000FB0EDBCFE9FFFC0EDBCFEAFFE750E92637
:101B3000000EEA22E552E750EF6E010EAFD2FB0E27
:101B4000DBCFE9FFFC0EDBCFEAFFA10EEF6E020E4A
:101B5000E76EFD0EDBCF0BF0FE0EDBCF0CF0E75097
:101B60000B26000E0C220BC0E6FF0CC0E6FFDFECDC
:101B700025F0E552E552E66E010EE76EFB0EDBCF77
:101B8000E9FFFC0EDBCFEAFFE750E926000EEA2270
:101B9000E552E750EF6E020EE76EFB0EDBCFE9FF7A
:101BA000FC0EDBCFEAFFE750E926000EEA22EF6ADF
:101BB000010E74D2FB0EDBCFE9FFFC0EDBCFEAFF98
:101BC000A30EEF6E020EE76EFD0EDBCF0BF0FE0EE6
:101BD000DBCF0CF0E7500B26000E0C220BC0E6FF0B
:101BE0000CC0E6FF84EC24F0E552E552E66E010EEF
:101BF000E76EFB0EDBCFE9FFFC0EDBCFEAFFE75021
:101C0000E926000EEA22E552E750EF6E020EE76E7B
:101C1000FB0EDBCFE9FFFC0EDBCFEAFFE750E92646
:101C2000000EEA22EF6A010E39D2FB0EDBCFE9FF8C
:101C3000FC0EDBCFEAFFC00EEF6E010EE76EFD0E6D
:101C4000DBCFE9FFFE0EDBCFEAFFE750E926000E0F
:101C5000EA22EF503D081BE2010EE76EFD0EDBCFDE
:101C6000E9FFFE0EDBCFEAFFE750E926000EEA228D
:101C7000EF6A020EE76EFD0EDBCFE9FFFE0EDBCF53
:101C8000EAFFE750E926000EEA22EF6A60D0010E73
:101C9000E76EFD0EDBCFE9FFFE0EDBCFEAFFE7507C
:101CA000E926000EEA22EF50E66EE66A020EE76EC3
:101CB000FD0EDBCF0BF0FE0EDBCF0CF0E7500B265A
:101CC000000E0C220BC0E6FF0CC0E6FF030EE76E11
:101CD000FB0EDBCF0DF0FC0EDBCF0EF0E7500D2638
:101CE000000E0E220DC0E6FF0EC0E6FF53EC2AF0F8
:101CF0000F6E060EE15E0F50010EE76EFB0EDBCF9E
:101D0000E9FFFC0EDBCFEAFFE750E926000EEA22EE
:101D1000010EEF6E010EE76EFD0EDBCFE9FFFE0E4A
:101D2000DBCFEAFFE750E926000EEA22EF50E66E2D
:101D3000020EE76EFB0EDBCFE9FFFC0EDBCFEAFF06
:101D4000E750E926000EEA22E552E750EF6E010E59
:101D5000A5D1FA0EDB5003E00001010E696F000E01
:101D60009DD1FB0EDBCFE6FFFC0EDBCFE6FFFD0EC9
:101D7000DBCFE6FFFE0EDBCFE6FFFCEC08F0E55222
:101D8000E552E552E552010E89D1FB0EDBCFE6FFAD
:101D9000FC0EDBCFE6FFFD0EDBCFE6FFFE0EDBCF5A
:101DA000E6FF36EC09F0E552E552E552E552010E48
:101DB00075D1FB0EDBCFE9FFFC0EDBCFEAFFF20EA5
:101DC000EF6E010EE76EFB0EDBCFE9FFFC0EDBCF03
:101DD000EAFFE750E926000EEA22010EEF6E020E3E
:101DE000E76EFB0EDBCFE9FFFC0EDBCFEAFFE7502F
:101DF000E926000EEA22EF6A6592656AC2EC29F0D4
:101E0000E76E010EE7CFDBFF010EDBCFE6FFD8EC7C
:101E100029F0E5520B6E020E0B5C01E2F5D7F29E43
:101E2000F29C0EEF00F0010E39D180848B929492D7
:101E3000C2EC29F0E76E020EE7CFDBFF020EDBCF2C
:101E4000E6FFD8EC29F0E5520B6E020E0B5C01E2C6
:101E5000F5D78B829482FB0EDBCFE9FFFC0EDBCF44
:101E6000EAFFF40EEF6E010EE76EFB0EDBCFE9FF2B
:101E7000FC0EDBCFEAFFE750E926000EEA22010E56
:101E8000EF6E020EE76EFB0EDBCFE9FFFC0EDBCF41
:101E9000EAFFE750E926000EEA22EF6A0001A56B8F
:101EA0007DC07EF000017F6B0001696B010EF6D0F2
:101EB000809494928B927DC07EF000017F6B000134
:101EC000A56B0001696BC2EC29F0E76E030EE7CF4A
:101ED000DBFF030EDBCFE6FFD8EC29F0E5520B6EFB
:101EE000020E0B5C01E2F5D7E5D88B829482C2EC3E
:101EF00029F0E76E030EE7CFDBFF030EDBCFE6FF33
:101F0000D8EC29F0E5520B6E020E0B5C01E2F5D71E
:101F1000FB0EDBCFE9FFFC0EDBCFEAFFF50EEF6E29
:101F2000010EE76EFB0EDBCFE9FFFC0EDBCFEAFF15
:101F3000E750E926000EEA22010EEF6E020EE76E70
:101F4000FB0EDBCFE9FFFC0EDBCFEAFFE750E92613
:101F5000000EEA22EF6A000EA1D0FB0EDBCFE9FFF4
:101F6000FC0EDBCFEAFFFE0EEF6E010EE76EFB0EFE
:101F7000DBCFE9FFFC0EDBCFEAFFE750E926000EDE
:101F8000EA22010EEF6E020EE76EFB0EDBCFE9FFD9
:101F9000FC0EDBCFEAFFE750E926000EEA22010E35
:101FA000EF6E030EE76EFB0EDBCFE9FFFC0EDBCF1F
:101FB000EAFFE750E926000EEA2235CEEFFF010ED8
:101FC0006DD0FB0EDBCFE9FFFC0EDBCFEAFFEF6845
:101FD000010EE76EFB0EDBCFE9FFFC0EDBCFEAFF65
:101FE000E750E926000EEA22010EEF6E020EE76EC0
:101FF000FB0EDBCFE9FFFC0EDBCFEAFFE750E92663
:10200000000EEA220A0EEF6E030EE76EFB0EDBCF28
:10201000E9FFFC0EDBCFEAFFE750E926000EEA22DB
:10202000020EEF6E040EE76EFB0EDBCFE9FFFC0E37
:10203000DBCFEAFFE750E926000EEA22130EEF6E2F
:10204000080EE66EE66A600EE66E000EE66E050E9F
:10205000E76EFB0EDBCF0BF0FC0EDBCF0CF0E75096
:102060000B26000E0C220BC0E6FF0CC0E6FF53EC63
:102070002AF00D6E060EE15E0D500D0EE76EFB0EA2
:10208000DBCFE9FFFC0EDBCFEAFFE750E926000ECD
:10209000EA22EF6A010E02D0000E00D00B6E040E91
:1020A000E15C02E2E16AE552E16E0B50E552E7CFF6
:1020B000D9FF1200D9CFE6FFE1CFD9FF0E0EE126FE
:1020C000010EDF6EDE52020EDD6EFC0EF36E020EAE
:1020D000F3CFDBFF0A0EF36E030EF3CFDBFF040E2C
:1020E000DB6A050EDB6A060EDB6A070EDB6A080E8A
:1020F000DB6A090EDB6A0A0EDB6A0B0EDB6A0C0E6A
:10210000DB6A0D0EDB6AD950040FE66E000EDA2092
:10211000E66E0A0EE66E010EE66EFC0EE66E9CECB6
:1021200025F00B6E050EE15E0B500E0EE66ED9CF5C
:10213000E6FFDACFE6FF46DAE552E552E5520E0E4B
:10214000E15C02E2E16AE552E16EE552E7CFD9FFD8
:102150001200D9CFE6FFE1CFD9FF00016951010A92
:1021600001E1BBD0010A01E0D4D0A55101E098D033
:10217000FD0EDBCFE9FFFE0EDBCFEAFFEF5001E102
:102180008ED0FD0EDBCFE9FFFE0EDBCFEAFFEF5076
:10219000040835E1060E0D6E020EE76EFD0EDBCF74
:1021A000E9FFFE0EDBCFEAFFE750E926000EEA2248
:1021B000EF500DC0E7FFE75204E0E8427F0BE7066F
:1021C000FCE10C6E060E0B6E020EE76EFD0EDBCF11
:1021D000E9FFFE0EDBCFEAFFE750E926000EEA2218
:1021E000EF503F0B020F0BC0E7FFE75204E0E8425D
:1021F0007F0BE706FCE10C240001A56F3DD0FD0E2E
:10220000DBCFE9FFFE0EDBCFEAFFEF50020834E13F
:10221000060E0D6E030EE76EFD0EDBCFE9FFFE0E20
:10222000DBCFEAFFE750E926000EEA22EF500DC0AF
:10223000E7FFE75204E0E8427F0BE706FCE10C6EA3
:10224000060E0B6E030EE76EFD0EDBCFE9FFFE0EF2
:10225000DBCFEAFFE750E926000EEA22EF503F0B02
:10226000040F0BC0E7FFE75204E0E8427F0BE706EC
:10227000FCE10C240001A56F95EC08F000017E51F3
:10228000E96EEA6AD890E936EA36800EE926000E51
:10229000EA22FD0EEECFDBFFFE0EEDCFDBFF1CD002
:1022A000A551000818E2050EA55D15E295EC08F0B1
:1022B00000017E51E96EEA6AD890E936EA36800E6E
:1022C000E926000EEA22FD0EEECFDBFFFE0EEDCF7B
:1022D000DBFFA50701D0A56B1CD0FD0EDBCFE9FF0E
:1022E000FE0EDBCFEAFFEF5013E095EC08F00001A3
:1022F0007E51E96EEA6AD890E936EA36800EE92620
:10230000000EEA22FD0EEECFDBFFFE0EEDCFDBFF6F
:1023100000D0E552E7CFD9FF1200D9CFE6FFE1CFD9
:10232000D9FF00016C51010802E3000EF0D0A65164
:1023300002E0010EECD0695101E0CFD0FD0EDBCF01
:10234000E9FFFE0EDBCFEAFFEF0401E086D0060EC8
:102350000D6E030EE76EFD0EDBCFE9FFFE0EDBCF49
:10236000EAFFE750E926000EEA22EF500DC0E7FF32
:10237000E75204E0E8427F0BE706FCE10C6E060E34
:102380000B6E030EE76EFD0EDBCFE9FFFE0EDBCF1B
:10239000EAFFE750E926000EEA22EF503F0B030F59
:1023A0000BC0E7FFE75204E0E8427F0BE706FCE1E1
:1023B0000C24010F0001A66F020EE76EFD0EDBCFAD
:1023C000E9FFFE0EDBCFEAFFE750E926000EEA2226
:1023D000EF50FD083FE1E66A6E0EE66E040EE66E13
:1023E000040EE76EFD0EDBCF0BF0FE0EDBCF0CF024
:1023F000E7500B26000E0C220BC0E6FF0CC0E6FFD8
:1024000013EC0CF00D6E050EE15E0D50000922E09C
:102410000401040E686F0E0E696F060E70256A6F58
:10242000010E6B6FE76EFD0EDBCFE9FFFE0EDBCF1B
:10243000EAFFE750E926000EEA22EFCF6CF4FD0E2A
:102440006D6F62EC08F00001A607A6510008F9E3E1
:10245000000E5DD0010E5BD040D0FD0EDBCFE9FF5A
:10246000FE0EDBCFEAFFEF50020837E1060E0D6EDD
:10247000030EE76EFD0EDBCFE9FFFE0EDBCFEAFFBA
:10248000E750E926000EEA22EF500DC0E7FFE752C1
:1024900004E0E8427F0BE706FCE10C6E060E0B6ED3
:1024A000030EE76EFD0EDBCFE9FFFE0EDBCFEAFF8A
:1024B000E750E926000EEA22EF503F0B040F0BC055
:1024C000E7FFE75204E0E8427F0BE706FCE10C245B
:1024D000010F0001A66F010E1AD0010EE66E680E04
:1024E000E66E040EE66EFD0EDBCFE6FFFE0EDBCFE2
:1024F000E6FF13EC0CF00B6E050EE15E0B500009CD
:1025000004E062EC08F0000E02D0010E00D0E552AB
:10251000E7CFD9FF120043EC28F000017E51E96EAD
:10252000EA6AD890E936EA36800EE926000EEA22F9
:10253000EECFE6FFEFCFE6FF7CEC28F0E552E55268
:102540001200200E0E01E76E0019E8AE02D0E7344B
:1025500002D0E750005D02E2000E02D0010E00D072
:1025600012004FEC28F0000902E1000E02D0010E2B
:1025700000D0120000016A6B010E6B6F6C6F7D6BF7
:102580007E6B7F6BA36BA46BFC0E89167E51E96E8C
:10259000EA6AD890E936EA36800EE926000EEA2289
:1025A000EECFE6FFEFCFE6FF7CEC28F0E552E552F8
:1025B000120000016C51010802E2000E01D0010E70
:1025C00000D01200D9CFE6FFE1CFD9FF020EE126FD
:1025D000D950FD0FE96EFF0EDA20EA6EEE50ED10D5
:1025E00002E1000E2FD0FC0EDB5004E0FC0EDB50AD
:1025F000400802E2000E26D000016A51E96EEA6A44
:10260000D890E936EA366D0EE926000EEA22EECFC2
:10261000DEFFEDCFDDFFFC0EDBCFE6FFE66AFD0E51
:10262000DBCFE6FFFE0EDBCFE6FFDECFE6FFDDCF42
:10263000E6FF53EC2AF00B6E060EE15E0B50000134
:102640006C5100D00B6E020EE15C02E2E16AE552D1
:10265000E16E0B50E552E7CFD9FF1200D9CFE6FF6C
:10266000E1CFD9FF020EE126D950FD0FE96EFF0E32
:10267000DA20EA6EEE50ED1002E1000E31D0FC0ED1
:10268000DB5004E0FC0EDB50400802E2000E28D0D4
:102690002EEC08F000016A51E96EEA6AD890E9363A
:1026A000EA366D0EE926000EEA22EECFDEFFEDCF10
:1026B000DDFFFC0EDBCFE6FFE66AFD0EDBCFE6FFBB
:1026C000FE0EDBCFE6FFDECFE6FFDDCFE6FF53EC0D
:1026D0002AF00B6E060EE15E0B5000016C5100D02B
:1026E0000B6E020EE15C02E2E16AE552E16E0B5014
:1026F000E552E7CFD9FF1200FC0E89160001A36B4B
:1027000012000001FA51FB1102E1000E08D0FAC0DC
:10271000E9FFFBC0EAFFEF50800B01E0010E00096A
:102720001DE1070E00016C5D19E0400EE66E2EEC17
:1027300008F0F3CF0BF0F4CF0CF00BC0E6FF0CC0A9
:10274000E6FFE66A010EE66E92EC16F00D6E050EDF
:10275000E15E0D50F3CFFAF0F4CFFBF00001A3518E
:1027600001E094D0A4A12CD00401A8511FE0400E98
:10277000E66EE66AA80EE66E040EE66E00016A5189
:10278000E96EEA6AD890E936EA366D0EE926000E5F
:10279000EA22EECFE6FFEFCFE6FF53EC2AF00B6E16
:1027A000060EE15E0B500401A86B0AD000016C51CB
:1027B000010802E262EC08F00001A65101E0A60760
:1027C0000001A4A311D07E51E96EEA6AD890E936DF
:1027D000EA36800EE926000EEA22EECFE6FFEFCFC2
:1027E000E6FFB7DCE552E5520001A46B6A51E96EE1
:1027F000EA6AD890E936EA366D0EE926000EEA223A
:10280000EECFE6FFEFCFE6FF88DDE552E5520009A7
:1028100004E00001020EA36F03D00001010EA36FBC
:102820000401685127E0080E0001D88094557F5DAF
:1028300021E0A5511FE1400EE66EE66A680EE66EE5
:10284000040EE66E7E51E96EEA6AD890E936EA3601
:10285000800EE926000EEA22EECFE6FFEFCFE6FF7C
:1028600053EC2AF00B6E060EE15E0B5095EC08F06F
:102870000401686B080E0001D88094557F5D02E06A
:10288000000E01D0010E010801E1A36BA351040A5F
:102890006FE0070A50E0010A1FE0030A01E06FD071
:1028A0007E51E96EEA6AD890E936EA36800EE9266A
:1028B000000EEA22EECFE6FFEFCFE6FF7CEC28F039
:1028C000E552E5520001020EA46FA4518912030ED5
:1028D000A36F040EA76F53D039EC29F000092AE04A
:1028E00000017E51E96EEA6AD890E936EA36800E38
:1028F000E926000EEA22EECFE6FFEFCFE6FF6A51AF
:10290000E96EEA6AD890E936EA366D0EE926000EDD
:10291000EA22EECFE6FFEFCFE6FFEAEC28F0E55241
:10292000E552E552E5520001040EA36F030EA46FB9
:10293000A451891224D039EC29F0000902E1FC0EDF
:10294000891600016C51010812E2FC0E891639EC5F
:1029500029F000090CE00001A70709E139EC29F092
:10296000000905E00001A35102E0A36BA46B07D0AE
:1029700039EC29F0000902E1FC0E891600D00001B3
:102980009451000816E29051911102E1000E08D016
:1029900090C0E9FF91C0EAFFEF50800B01E0010E0B
:1029A000000906E192C090F093C091F09407E7D738
:1029B00000D07F5100082DE2020E945D2AE2400E05
:1029C000E66EC9EC08F0F3CF0DF0F4CF0EF00DC0B9
:1029D000E6FF0EC0E6FF010EE66EE66E92EC16F024
:1029E0000F6E050EE15E0F50F3CF0BF0F4CF0CF03D
:1029F00000019451E96EEA6AD890E936EA36900E01
:102A0000E926000EEA220BC0EEFF0CC0EDFF942B6E
:042A1000D0D7120009
:0C2A1400D9CFE6FFE1CFD9FFE652A09831
:102A2000636A626A0F01266B010EE66EE66AE66A69
:102A3000270EE66E0F0EE66E7EEC2AF00B6E050E8C
:102A4000E15E0B500F01160E396F9F0E376F7B0E34
:102A5000366FDF6ADF500B6E0C6A080E0B5C000EDF
:102A60000C5810E2DF50040DF3CFE9FFF4CFEAFF7A
:102A7000000EE926040EEA22EE6AEE6AEE6AEE6ABB
:102A8000DF2AE8D7658C0F01386B6598659C62A6D4
:102A900007D062960E01136B186B196B1A6BF7D780
:102AA0000E01010E2A6F2B6F2C6B2D6B206BDF6AD2
:102AB000020EDF5C26E2EA6ADF34FE0BEA36E96EDC
:102AC0000B0EE9260E0EEA22EE6AED6AEA6ADF34A0
:102AD000FE0BEA36E96E070EE9260E0EEA22EE6AD2
:102AE000ED6ADF50EA6A240FE96E0E0EEA22EF6A01
:102AF000DF50EA6A260FE96E0E0EEA22EF6ADF2A3D
:102B0000D7D70E01080E0B6F040E0C6F0F01160EB7
:102B1000266F0401200E026F040E036F400E016F3A
:102B2000840E006F0E01016B006BE552E552E7CF9A
:102B3000D9FF1200D9CFE6FFE1CFD9FFE6520E014F
:102B4000000509E165BA07D0626A0F01368136894E
:102B50000E01020E006F6250040B07E00F013651A8
:102B6000040B03E06294BCEC1BF065A202D0A198B8
:102B70009DD06250010B0AE00F013651010B06E0B7
:102B800049DFA0880E01040E006F62906250100BA6
:102B900007E00F013651100B03E0A6EC1BF0629822
:102BA00062AC1AD00F0136AD0FD0010EE66EE66AA8
:102BB000000EE66EE66A730EE66EE66AF4EC27F047
:102BC0000B6E060EE15E0B50629C0E01285101E077
:102BD0002807285101E110DA6250200B06E00F01AE
:102BE0003651200B02E08CEC1BF06250020B14E01B
:102BF0000F013651020B10E0010EE66EE66A000E80
:102C0000E66EE66AE6687F0EE66EF4EC27F00B6E81
:102C1000060EE15E0B50636A040E0E01E76E0019AA
:102C2000E8AE02D0E73402D0E750005D02E2A1989E
:102C30003DD00F0136A739D0DF6A040EDF5C35E2E4
:102C400062A632D064CF21FE0E012151780BE842FA
:102C5000E842E842226F629621B508D02251EA6A22
:102C6000260FE96E0E0EEA22EF7007D02251EA6AB3
:102C7000240FE96E0E0EEA22EF70225103E1D4EC2C
:102C80001BF010D0000EE66EE66A210EE66E0E0E08
:102C9000E66E720EE66EE66AF4EC27F00B6E060E38
:102CA000E15E0B50DF2AC9D700D0A198E552E5526A
:102CB000E7CFD9FF1200D9CFE6FFE1CFD9FF020E4F
:102CC000E126FD0EDBA407D0E66AFE0EDBCFE6FFB1
:102CD00024DAE552E552FD0EDBA208D0010EE66EC5
:102CE000FE0EDBCFE6FF19DAE552E552FE0EDB50B1
:102CF0000C6A260F0B6E0F0E0C220BC0DEFF0CC0F1
:102D0000DDFFDECFE9FFDDCFEAFFFD0EDBCFEFFF1A
:102D1000020EE15C02E2E16AE552E16EE552E7CFC4
:102D2000D9FF1200D9CFE6FFE1CFD9FF020EE1268D
:102D3000FD0EDB500FE0FE0EEA6ADB34FE0BEA36D6
:102D4000E96E0B0EE9260E0EEA22EECFDEFFEDCF86
:102D5000DDFF0ED0FE0EEA6ADB34FE0BEA36E96ECA
:102D6000070EE9260E0EEA22EECFDEFFEDCFDDFFE5
:102D7000D9CFE9FFDACFEAFFEE50ED1003E1F36AB5
:102D8000F46A49D0DECFE9FFDDCFEAFF020EE92683
:102D9000000EEA22FB0EDBCFEEFFFC0EDBCFEDFFD9
:102DA000DECFE9FFDDCFEAFFEE52FA0EDBCFEFFF19
:102DB000400E0B6EDECFE9FFDDCFEAFF0B50EF16C2
:102DC000880E0B6EDECFE9FFDDCFEAFF0B50EF126E
:102DD000FD0EDB500CE0FE0EEA6ADB34FE0BEA3639
:102DE000E96E0B0EE9260E0EEA22EF740BD0FE0EF2
:102DF000EA6ADB34FE0BEA36E96E070EE9260E0EB0
:102E0000EA22EF74DECF0BF0DDCF0CF00BC0F3FF46
:102E10000CC0F4FF00D0020EE15C02E2E16AE55270
:102E2000E16EE552E7CFD9FF1200D9CFE6FFE1CF3F
:102E3000D9FF020EE126FE0EDB5020E105CEE9FFB0
:102E400006CEEAFFEE52400EEF6E05CEE9FF06CE4B
:102E5000EAFF020EE926000EEA22200EEE6E040EB4
:102E6000ED6E05CEE9FF06CEEAFF8C0EEF6E0BCEBF
:102E7000E9FF0CCEEAFF840EEF6E3DD0FD0EDB5075
:102E8000E8240D6EFE0EDB50040DF3500D24040DEE
:102E9000F3CF0BF0F4CF0CF0000E0B26040E0C2237
:102EA0000BC0DEFF0CC0DDFF840E0B6EDECFE9FF32
:102EB000DDCFEAFF0B50EF12FD0EDB50E8240D6E64
:102EC000FE0EDB50040DF3500D24010F040DF3CF63
:102ED0000BF0F4CF0CF0000E0B26040E0C220BC0EE
:102EE000DEFF0CC0DDFF840E0B6EDECFE9FFDDCF11
:102EF000EAFF0B50EF12020EE15C02E2E16AE552DA
:102F0000E16EE552E7CFD9FF1200D9CFE6FFE1CF5E
:102F1000D9FF65A84ED0FE0EEA6ADB34FE0BEA3616
:102F2000E96E0B0EE9260E0EEA22EE50EFCFEAFF15
:102F3000E96E400EEE16EE6AEE6AEE6AFE0EEA6A80
:102F4000DB34FE0BEA36E96E0B0EE9260E0EEA22A2
:102F5000EE50EFCFEAFFE96EEE7CFE0EEA6ADB345C
:102F6000FE0BEA36E96E0B0EE9260E0EEA22EF742E
:102F7000400E0B6EFE0EEA6ADB34FE0BEA36E96E9B
:102F80000B0EE9260E0EEA22EE50EFCFEAFFE96EB5
:102F90000B50EF16FE0EEA6ADB34FE0BEA36E96EE2
:102FA0000B0EE9260E0EEA22EE50EFCFEAFFE96E95
:102FB000EF7CE552E7CFD9FF1200656A0F01366B4F
:102FC0000E01006B00D012000E01005114E1656A81
:102FD0000F01366B160E396F9F0E376F7B0E366FF3
:102FE000D08EA288A088F28E65B602D06586FCD706
:102FF0000E01010E006F12000E012A514DE1010E6B
:103000002A6F2B5149E1010E2B6F020E105D0DE16D
:103010000BCEE9FF0CCEEAFFEE52EF6A0BCEE9FFD2
:103020000CCEEAFFC80EEF6E37D0100535E1236BEA
:1030300003CEE9FF04CEEAFFEE52400EEF6E03CE60
:10304000E9FF04CEEAFF020EE926000EEA22200E76
:10305000EE6E040EED6E03CEE9FF04CEEAFF840EA1
:10306000EF6E010E236F05CEE9FF06CEEAFFEE52AA
:10307000400EEF6E05CEE9FF06CEEAFF020EE9260E
:10308000000EEA22200EEE6E040EED6E05CEE9FF74
:1030900006CEEAFF800EEF6E12000E012C6B2D6B38
:1030A000020E105D1AE105CEE9FF06CEEAFFEE52F0
:1030B000400EEF6E05CEE9FF06CEEAFF020EE926CE
:1030C000000EEA22280EEE6E040EED6E05CEE9FF2C
:1030D00006CEEAFFC80EEF6E1FD014510401265D24
:1030E0000E0115510401275904E226C414FE27C419
:1030F00015FED1D80BCEE9FF0CCEEAFF020EE92671
:10310000000EEA22280EEE6E040EED6E0BCEE9FFE5
:103110000CCEEAFFC80EEF6E1200D9CFE6FFE1CF6A
:10312000D9FF020EE126000EDE6E040EDD6EFD0EEE
:10313000DB50E8240D6EFE0EDB50040DF3500D2421
:10314000040DF3CF0BF0F4CF0CF0D9CFE9FFDACFB9
:10315000EAFF0B50EE260C50ED22DECFE9FFDDCF6B
:10316000EAFFEF9EFD0EDB500FE1FE0EEA6ADB3454
:10317000FE0BEA36E96E070EE9260E0EEA22DECFD6
:10318000EEFFDDCFEDFF0ED0FE0EEA6ADB34FE0B64
:10319000EA36E96E0B0EE9260E0EEA22DECFEEFFCE
:1031A000DDCFEDFFDECFE9FFDDCFEAFFEF9CDECF25
:1031B000E9FFDDCFEAFF040EE926000EEA22EF8CDC
:1031C000020EE15C02E2E16AE552E16EE552E7CF10
:1031D000D9FF120065980E0113BF2BD018AF09D08C
:1031E000020E106F2D5101E158DF0E012B6B2A6B7F
:1031F0001FD005CEE9FF06CEEAFFEE52400EEF6E7D
:1032000005CEE9FF06CEEAFF020EE926000EEA220D
:10321000200EEE6E040EED6E05CEE9FF06CEEAFF3F
:103220008C0EEF6E0BCEE9FF0CCEEAFF840EEF6E34
:1032300031D0040120AF0DD00E01010E106F2C51C2
:1032400001E12BDF0E012B6B2A6B295101E1D4DE4A
:1032500021D00E01020E106F05CEE9FF06CEEAFF67
:10326000EE52400EEF6E05CEE9FF06CEEAFF020EEB
:10327000E926000EEA22200EEE6E040EED6E05CE5B
:10328000E9FF06CEEAFF840EEF6E2B6B2A6B295105
:1032900001E1B2DE1200D9CFE6FFE1CFD9FFE6525D
:1032A000400EDF6E0E01145D000E15590BE214CEB8
:1032B000DFFF0F5103E1010E0F6F04D00F0502E194
:1032C000020E0F6FDF500B6E0C6A0B50145D146F03
:1032D0000C501559156F0BCEE9FF0CCEEAFFEE52DC
:1032E000DFCFEFFF280E1D6F040E1E6F13B119D034
:1032F000DF5016E011CEF6FF12CEF7FF112B000EB5
:1033000012230800F550E66E1DCEE9FF1ECEEAFF3F
:103310001D2B000E1E23E552E750EF6EDF06E8D7A7
:1033200017D0DF5015E011CEE9FF12CEEAFF112BC6
:10333000000E1223EF50E66E1DCEE9FF1ECEEAFF0F
:103340001D2B000E1E23E552E750EF6EDF06E9D776
:10335000E552E552E7CFD9FF1200D9CFE6FFE1CF22
:10336000D9FF020EE12603CEE9FF04CEEAFFEE52BA
:10337000EFCFDFFFDFCF0BF00B500E01195D000E1A
:103380001A5902E219CEDFFFDF500B6E0C6A0B50A8
:10339000195D196F0C501A591A6F010EDB6ADF5054
:1033A000F36E010EDBCFF4FFF350F45C16E2010E76
:1033B000DB50EA6A280FE96E040EEA22EF50E66E4F
:1033C00016CEE9FF17CEEAFF162B000E1723E552A3
:1033D000E750EF6E010EDB2AE2D7000ED8801955B8
:1033E000000E1A5528E205CEE9FF06CEEAFFEE529E
:1033F000400EEF6E05CEE9FF06CEEAFF020EE9268B
:10340000000EEA22280EEE6E040EED6E03CEE9FFEA
:1034100004CEEAFFEF50400B07E105CEE9FF06CEF0
:10342000EAFFC80EEF6E06D005CEE9FF06CEEAFF32
:10343000880EEF6E28D005CEE9FF06CEEAFFEE52E9
:10344000400EEF6E05CEE9FF06CEEAFF020EE9263A
:10345000000EEA22200EEE6E040EED6E05CEE9FFA0
:1034600006CEEAFF840EEF6E1B511C1107E005D05B
:103470001CCEFAFF0E011B51F96EFADF0E01189FE8
:10348000295101E1B9DD020EE15C02E2E16AE55297
:10349000E16EE552E7CFD9FF1200D9CFE6FFE1CFC9
:1034A000D9FFE6520E01138F010EE66EE66AE66A58
:1034B000270EE66E0F0EE66E7EEC2AF00B6E050E02
:1034C000E15E0B50200EE66EE66AE66A000EE66EDE
:1034D000040EE66E7EEC2AF00B6E050EE15E0B50DC
:1034E000658CDF6A020EDF5C10E2DF50EA6A240FAF
:1034F000E96E0E0EEA22EF6ADF50EA6A260FE96EE5
:103500000E0EEA22EF6ADF2AEDD7010EE66EE66ABA
:10351000E66A020EE66E0E0EE66E7EEC2AF00B6E8A
:10352000050EE15E0B50659C0E01080E0B6F040E3C
:103530000C6F000E036F040E046F03CE05FE04CE65
:1035400006FE22C401FE015103E1100E006F13D0EC
:10355000010EE66EE66A010EE66E0E0EE66E010ED6
:10356000E66EE66AF4EC27F00B6E060EE15E0B5099
:103570000E01200E006FE552E552E7CFD9FF120091
:10358000800E0401205D5EE10E01C00E136F040188
:103590002351030A37E0010A0EE0030A03E00E019B
:1035A000136B50D00E01300E116F550E126F120EAC
:1035B000146F156B47D0010E225D23E22251F66E87
:1035C000F76AD890F636F736A40EF626550EF7228F
:1035D0000900F5CF11FE0A00F5CF12FE020E0E0112
:1035E000F76A1125F66E1251F7220800F5CF14FE86
:1035F000030EF76A1125F66E1251F7220800F5CF77
:1036000015FE20D0030E225D1AE22251F66EF76AF3
:10361000D890F636F736A60EF626550EF722090094
:10362000F5CF11FE0A00F5CF12FE11CEF6FF12CE35
:10363000F7FF0800F5500E01146F156B02D00E0154
:10364000136B00D01200D9CFE6FFE1CFD9FF020EF5
:10365000E1260401286B296B20511F0B020A13E09D
:10366000030A0EE0010A01E043D00E01138F02D0DD
:10367000040128810E011F0502E10401288338D0CE
:103680000E01138F35D00E01138F040124BF10D00B
:1036900024510F0BE96EEA6AD890E936EA36070E34
:1036A000E9260E0EEA22EECFDEFFEDCFDDFF0FD0D2
:1036B00024510F0BE96EEA6AD890E936EA360B0E10
:1036C000E9260E0EEA22EECFDEFFEDCFDDFFDECFE4
:1036D000E9FFDDCFEAFFEF50800B09E0DECFE9FF25
:1036E000DDCFEAFFEF50040B02E0010E286F00D09F
:1036F0000E0113AF07D0280E116F040E126F138145
:10370000020E146F020EE15C02E2E16AE552E16E24
:10371000E552E7CFD9FF12000F0126A115D003CE45
:10372000E9FF04CEEAFFEF5080080DE10BCEE9FF80
:103730000CCEEAFFEF50840806E103CEE9FF04CE89
:10374000EAFF8C0EEF6E2691629A12000F01368509
:10375000629865820E01010E206F000EE66EE66A29
:10376000E66EE66A750EE66EE66AF4EC27F00B6E1E
:10377000060EE15E0B5012000E01206B000EE66E8D
:10378000E66AE66EE66A740EE66EE66AF4EC27F028
:103790000B6E060EE15E0B5065920F01369562A42A
:1037A00002D06294FCD71200D9CFE6FFE1CFD9FF57
:1037B000E6520E012D0E286FFD0E211553E17E0EEF
:1037C0002115E8407F0B040DF3CF03FEF4CF04FE78
:1037D000000E0327040E042303CE05FE04CE06FECE
:1037E000057503CEE9FF04CEEAFFEF503C0BE8423B
:1037F000E8420D0835E1DF6A080EDF5C23E203CE04
:10380000E9FF04CEEAFF020EE926000EEA22EE509E
:10381000EFCFEAFFE96EEF50E66EDF50EA6A200F65
:10382000E96E040EEA22E552E750EF6E03CEE9FF9F
:1038300004CEEAFF020EE926000EEA22EE2AEF226B
:10384000DF2ADAD703CEE9FF04CEEAFF020EE9262B
:10385000000EEA22200EEE6E040EED6E0DD801D0A1
:103860003AD805D0FD0E2115040801E159D8E552DA
:10387000E552E7CFD9FF12000E010F6B296B2C6BBD
:103880002D6B236B106B0BCEE9FF0CCEEAFFEF9E86
:103890000B750BCEE9FF0CCEEAFFEF9E0B7505CE44
:1038A000E9FF06CEEAFFEF9E136B146B156B186BE6
:1038B000196B1A6B92D8000EE66EE66AE66EE66A3F
:1038C000030EE66EE66AF4EC27F00B6E060EE15E80
:1038D0000B50EAEF18F0020E0E01105D02E13DDD23
:1038E0001ED0106B23511AE105CEE9FF06CEEAFF88
:1038F000EE52400EEF6E05CEE9FF06CEEAFF020E55
:10390000E926000EEA22200EEE6E040EED6E05CEC4
:10391000E9FF06CEEAFF8C0EEF6E01D0236B12009A
:10392000D9CFE6FFE1CFD9FFE6520BCEE9FF0CCEAF
:10393000EAFFEF50400B01E0010EDF6E0E010B7548
:10394000080E005D0CE122C438FF0F01385104E07D
:103950000E01100E006F03D00E01040E006F100553
:1039600028E10BCEE9FF0CCEEAFF020EE926000E9D
:10397000EA22280EEE6E040EED6E8DDC020E0E01B4
:103980000F5D07E10BCEE9FF0CCEEAFF840EEF6E70
:103990000FD0DF5007E10BCEE9FF0CCEEAFFC80ED7
:1039A000EF6E06D00BCEE9FF0CCEEAFF880EEF6E6D
:1039B0000FD018AF0CD01B511C1107E005D01CCE46
:1039C000FAFF0E011B51F96EFADF0E01189F106B02
:1039D000E552E552E7CFD9FF120004012051600BF8
:1039E000E842E842E842E842E842000901E058D0F3
:1039F00021510C0A54E00B0A43E00C0A35E0010A9D
:103A000026E00B0A22E0020A20E0030A1CE0080A72
:103A100010E0010A0CE00F0A08E0030A01E03FD0C1
:103A20000E01138F080E006F3BD0AADD39D035DDB3
:103A300037D00E01010E116F0E0E126F1381010EA1
:103A4000146F138F2DD0FFDD2BD02BD829D024510C
:103A50000E01116F126B020E11270E0E122313812D
:103A6000010E146F138F1CD00E01138F040124510B
:103A7000EA6A020FE96E0E0EEA2222C4EFFF10D0AE
:103A8000000EE66EE66AE66EE66A020EE66EE66A2C
:103A9000F4EC27F00B6E060EE15E0B5001D000D067
:103AA0001200D9CFE6FFE1CFD9FF050EE1260401D0
:103AB000220510E120511F0B00090CE10E01138FAC
:103AC000030E0401215D04E10E01010E1F6F02D0FF
:103AD0000E011F6B0401225101E020D120511F0B68
:103AE000020801E01BD124510F0B000901E116D19E
:103AF00024510F0B010801E211D1200E0E01005DCF
:103B000001E00CD1138F040124BF1AD024510F0BF4
:103B1000E96EEA6AD890E936EA36070EE9260E0E13
:103B2000EA22EECFDEFFEDCFDDFF24510F0BEA6A74
:103B3000260FE96E0E0EEA22020EEFCFDBFF19D040
:103B400024510F0BE96EEA6AD890E936EA360B0E7B
:103B5000E9260E0EEA22EECFDEFFEDCFDDFF245187
:103B60000F0BEA6A240FE96E0E0EEA22020EEFCF67
:103B7000DBFFD950020FE96EDACFEAFFEF50010BFD
:103B800003E1000EDF9401D0DF8424BF10D0245164
:103B90000F0BE96EEA6AD890E936EA36070EE92695
:103BA0000E0EEA22DECFEEFFDDCFEDFF0FD0245167
:103BB0000F0BE96EEA6AD890E936EA360B0EE92671
:103BC0000E0EEA22DECFEEFFDDCFEDFF030E215D0C
:103BD00023E1DECFE9FFDDCFEAFFEF50800B13E0FA
:103BE00024BF09D024510F0BEA6A260FE96E0E0E8E
:103BF000EA22EF8208D024510F0BEA6A240FE96E03
:103C00000E0EEA22EF82840E0B6EDECFE9FFDDCFCF
:103C1000EAFF0B50EF1282D0DF74DECFE9FFDDCF79
:103C2000EAFFEF50800B1BE0DECFE9FFDDCFEAFFBC
:103C3000EF9EDECFE9FFDDCFEAFFEF8C020EE66EEE
:103C4000E66ADECFE6FFDDCFE6FF050EE66EE66A4A
:103C5000F4EC27F00B6E060EE15E0B5005D0DECFC4
:103C6000E9FFDDCFEAFFEF8CDF74D950020FE96E78
:103C7000DACFEAFFEF50020B07E1DECFE9FFDDCF3D
:103C8000EAFFEF50800B2DE0040124BF09D024513E
:103C90000F0BEA6A260FE96E0E0EEA22EF9208D0A9
:103CA00024510F0BEA6A240FE96E0E0EEA22EF92FE
:103CB0003B0E0B6EDECFE9FFDDCFEAFF0B50EF16B8
:103CC000020EE66EE66ADECFE6FFDDCFE6FF050E0A
:103CD000E66EE66AF4EC27F00B6E060EE15E0B5022
:103CE00008D03B0E0B6EDECFE9FFDDCFEAFF0B50B5
:103CF000EF16040124510F0B0C6A260F0B6E0F0EEA
:103D00000C22030E0BC0DBFF040E0CC0DBFF030E06
:103D1000DBCFE9FF040EDBCFEAFFEF90050EE15C9D
:103D200002E2E16AE552E16EE552E7CFD9FF120007
:103D3000DACFE4FFE2CFDAFFE9CFE4FFEACFE4FF36
:103D4000F6CFE4FFF7CFE4FFF5CFE4FFF3CFE4FFD6
:103D5000F4CFE4FFFACFE4FF00EE00F00B0EE8042E
:103D600003E3EECFE4FFFBD700EE0BF0050EE80413
:103D700003E3EECFE4FFFBD7E6529AEC15F0FAEC42
:103D800029F0E55200EE0FF0050EE80403E3E5CF5D
:103D9000EDFFFBD700EE0AF00B0EE80403E3E5CFDE
:103DA000EDFFFBD7E5CFFAFFE5CFF4FFE5CFF3FF5B
:103DB000E5CFF5FFE5CFF7FFE5CFF6FFE5CFEAFF6B
:103DC000E5CFE9FFE5CFDAFF1100D8CFE4FFE0CF80
:103DD000E4FFE46EDACFE4FFE2CFDAFFE9CFE4FFFD
:103DE000EACFE4FFF6CFE4FFF7CFE4FFF5CFE4FF3F
:103DF000F3CFE4FFF4CFE4FFFACFE4FF00EE00F0EE
:103E00000B0EE80403E3EECFE4FFFBD700EE0BF06C
:103E1000050EE80403E3EECFE4FFFBD7E65247ECE0
:103E200029F0E55200EE0FF0050EE80403E3E5CFBC
:103E3000EDFFFBD700EE0AF00B0EE80403E3E5CF3D
:103E4000EDFFFBD7E5CFFAFFE5CFF4FFE5CFF3FFBA
:103E5000E5CFF5FFE5CFF7FFE5CFF6FFE5CFEAFFCA
:103E6000E5CFE9FFE5CFDAFFE550E5CFE0FFE5CFAD
:103E7000D8FF1000D9CFE6FFE1CFD9FF020EE1262F
:103E8000580EDE6E020EDD6E9B8CDFCF0BF0DF0670
:103E9000010EDBCF0CF001E2DB060B500C1001E051
:103EA000F4D70F0148694969020EE15C02E2E16A58
:103EB000E552E16EE552E7CFD9FF1200928092827F
:103EC0008050010B0B6E8050020B01E0010EE824C4
:103ED0000B24E81C030B0E01356F929480941200A2
:103EE000D9CFE6FFE1CFD9FFE652C2EC29F0DF6E71
:103EF000DFCFE6FFD8EC29F0E5520B6E140E0B5C19
:103F000001E2F6D78B829482E552E552E7CFD9FFE2
:103F10001200D9CFE6FFE1CFD9FF020EE126DF6A1A
:103F2000FD0EDBCFE9FFFE0EDBCFEAFF010EEFCF88
:103F3000DBFFDB0432E1FD0EDBCFE9FFFE0EDBCF62
:103F4000EAFFEFCF2EFE010EE76EFD0EDBCFE9FF9D
:103F5000FE0EDBCFEAFFE750E926000EEA22EFCFA4
:103F60002FFE020EE76EFD0EDBCFE9FFFE0EDBCF6C
:103F7000EAFFE750E926000EEA22EFCF30FE080EF6
:103F80000E012F5D08E1080E305D05E1E66A40ECA8
:103F900024F0E55202D06CEC24F0010EDB50030853
:103FA00001E087D0010EE76EFD0EDBCFE9FFFE0ECC
:103FB000DBCFEAFFE750E926000EEA22EF50080ABD
:103FC0004DE0090A4BE0030A49E0010A47E0090A0B
:103FD00045E00D0A43E0030A07E0010A05E0030A91
:103FE00003E00F0A01E057D0020EE76EFD0EDBCFB3
:103FF000E9FFFE0EDBCFEAFFE750E926000EEA22DA
:10400000EF5002080EE1010EE76EFD0EDBCFE9FF77
:10401000FE0EDBCFEAFFE750E926000EEA22EFCFE3
:1040200031FE020EE76EFD0EDBCFE9FFFE0EDBCFA9
:10403000EAFFE750E926000EEA22EF500EE1010EFA
:10404000E76EFD0EDBCFE9FFFE0EDBCFEAFFE750A8
:10405000E926000EEA22EFCF32FE1DD0010EE76EF8
:10406000FD0EDBCFE9FFFE0EDBCFEAFFE750E926CE
:10407000000EEA22EFCF31FE010EE76EFD0EDBCF20
:10408000E9FFFE0EDBCFEAFFE750E926000EEA2249
:10409000EFCF32FE00D0080E0E01315D08E1080EB0
:1040A000325D05E1E66A40EC24F0E55202D06CECAA
:1040B00024F0DF500B6E020EE15C03E200D0E16AF7
:1040C000E552E16E0B50E552E7CFD9FF1200D9CF90
:1040D000E6FFE1CFD9FF0E012E5113E02E0510E1CE
:1040E000FD0EDBCFE9FFFE0EDBCFEAFF2FCEEFFFA9
:1040F000FB0EDBCFE9FFFC0EDBCFEAFF30CEEFFF9C
:1041000010D0FD0EDBCFE9FFFE0EDBCFEAFF31CE94
:10411000EFFFFB0EDBCFE9FFFC0EDBCFEAFF32CE79
:10412000EFFFE552E7CFD9FF1200F29E550EA76EC2
:10413000AA0EA76E0E01FF91090EC86F070EFB6F46
:10414000080EFC6F550EA76EAA0EA76EFF81120017
:10415000D9CFE6FFE1CFD9FF030EE12636CFDFFF4F
:104160000F01040E366F62986582A198A088040042
:10417000D39E0300A150100B05E1D050080B02E1C3
:104180000300F8D76592DF500F013613D50EF36E9A
:10419000010EF3CFDBFF020EF36E020EF3CFDBFF57
:1041A000010EDBCF0BF0DB06020EDBCF0CF001E2E1
:1041B000DB060B500C1002E00400F2D70E01342B8A
:1041C000030EE15C02E2E16AE552E16EE552E7CFFF
:1041D000D9FF12000E013351030A28E0010A0FE053
:1041E000030A05E0010A01E029D0335127D0D9ECB8
:1041F00012F0000902E0030E21D0010E1FD04ACEBA
:10420000E6FFD8EC29F0E5520B6E030E0B5C02E2E0
:10421000020E14D08B829482B1EC12F0010802E1FC
:10422000020E0CD0BAEC12F0000E08D0C2EC29F04D
:104230000E014A6F8B929492020E00D01200D9CFD9
:10424000E6FFE1CFD9FF020EE126FC0EDF6E010E84
:10425000DB6A020EE66ED9CFE6FFDACFE6FF2EEC80
:1042600013F0E552E552E552020EE15C02E2E16A2A
:10427000E552E16EE552E7CFD9FF1200D9CFE6FF54
:10428000E1CFD9FF020EE126DF6A010EDB6AF29E62
:104290008B929492EFDD49DF010EE66E59EC28F027
:1042A000E5528BEC12F0F28EB2EC29F007DEB4ECA2
:1042B00021F092909292FC0E89168A808A8410DEF8
:1042C00007EC08F08A908A940AEC08F0A1EC12F04E
:1042D000000901E1F9D781EC13F00E013351030A13
:1042E00031E0010A2BE0030A25E0010A01E031D0A8
:1042F000B1EC12F0010805E10E01010E336F9FDFF2
:1043000018D0D950010FE66E000EDA20E66ED9CF34
:10431000E6FFDACFE6FFDBDEE552E552E552E55295
:10432000010EDBCFE6FFDFCFE6FFBDEC22F0E5526A
:10433000E5520FD04FDF0E01336F0BD04BDF0E0174
:10434000336F07D0CEEC21F003DF44DF0E01336F73
:1043500000D0BAD7020EE15C02E2E16AE552E16EFA
:08436000E552E7CFD9FF12007E
:084368008A928A908A968A94D9
:1043700093929390939693940001A969C2EC29F0CB
:104380000001A86F1200D9CFE6FFE1CFD9FFFE0EE2
:10439000DBCFACF0E552E7CFD9FF12008A928A90CA
:1043A0008A968A941200D9CFE6FFE1CFD9FFFE0E9C
:1043B000DB500A0A47E00D0A3AE0010A2DE0030A41
:1043C00020E0010A1CE0070A0FE0010A0AE00B0ADC
:1043D00008E0080A03E08A908A923FD08A908A9285
:1043E0003CD08A908A9239D0FD0EDB50EA6AB30F36
:1043F000E96E000EEA22EF0401E18A802ED08A8065
:104400002CD0FD0EDB50EA6AAD0FE96E000EEA22F9
:10441000EF0401E18A8021D0FD0EDB50EA6AAD0F86
:10442000E96E000EEA22EF0401E18A8216D0FD0E49
:10443000DB50EA6AAD0FE96E000EEA22EF0401E1FB
:104440008A800BD0FD0EDB50EA6AAD0FE96E000EDC
:10445000EA22EF0401E18A8200D0E552E7CFD9FFDA
:104460001200D9CFE6FFE1CFD9FFFE0EDB500A0ADA
:1044700047E00D0A3AE0010A2DE0030A20E0010AB4
:104480001CE0070A0FE0010A0AE00B0A08E0080A2C
:1044900003E08A948A963FD08A948A963CD08A9484
:1044A0008A9639D0FD0EDB50EA6AB30FE96E000E32
:1044B000EA22EF0401E18A842ED08A842CD0FD0EFA
:1044C000DB50EA6AAD0FE96E000EEA22EF0401E16B
:1044D0008A8421D0FD0EDB50EA6AAD0FE96E000E32
:1044E000EA22EF0401E18A8616D0FD0EDB50EA6A6B
:1044F000AD0FE96E000EEA22EF0401E18A840BD0D1
:10450000FD0EDB50EA6AAD0FE96E000EEA22EF0401
:1045100001E18A8600D0E552E7CFD9FF1200D9CF5A
:10452000E6FFE1CFD9FFFE0EDB5020E0FE0EDB50B0
:10453000010B010802E18A8201D08A92FE0EDB5053
:10454000020B020802E18A8001D08A90FE0EDB5045
:10455000040B040802E18A8601D08A96FE0EDB5025
:10456000080B080802E18A8401D08A94FE0EDB5011
:1045700000D0E552E7CFD9FF1200D9CFE6FFE1CF57
:10458000D9FFACC0E6FFCBDFE552000944E1EBC048
:10459000E6FF45D8E55202083EE1A8C0E6FFD8ECA8
:1045A00029F0E552050837E2C2EC29F00001A86FB6
:1045B000FE0EDB50A95D0BE0AB51EA6AAD0FE96E70
:1045C000000EEA22EF5003E1FE0EDBCFA9F0FD0E54
:1045D000DB50AA5D0BE0AB51EA6AAD0FE96E000E4D
:1045E000EA22EF5003E1FD0EDBCFAAF0D7DEABC02D
:1045F000E6FFA9C0E6FFD7DEE552E552ABC0E6FF15
:10460000AAC0E6FF2EDFE552E5520001AB2B060EF5
:10461000AB5D01E3AB6BE552E7CFD9FF1200D9CF19
:10462000E6FFE1CFD9FF020EF36EFE0EDBCFF4FF03
:10463000F350F45C05E2FE0EDBCFE6FF08D8E5524E
:10464000FE0EDB5000D0E552E7CFD9FF1200D9CFE4
:10465000E6FFE1CFD9FF030EE126020EDB6AF36E1F
:10466000FE0EDBCFF4FFF350F45C01E3FFD0FE0E4F
:10467000EA6ADB34FE0BEA36E96EEC0EE926000E40
:10468000EA22EECFDEFFEDCFDDFFDECFE9FFDDCFAB
:10469000EAFF020EE926000EEA22EF50FE0817E1BB
:1046A000DECFE9FFDDCFEAFF020EE926000EEA22A7
:1046B000EF6AC2EC29F0E66EDECFE9FFDDCFEAFF5C
:1046C000030EE926000EEA22E552E750EF6EDECF38
:1046D000E9FFDDCFEAFF020EE926000EEA22EFCF66
:1046E0000BF0DECFE9FFDDCFEAFFEF500B5C23E3F9
:1046F000DECFE9FFDDCFEAFF180EE926000EEA2241
:10470000EFCF0BF0020E0B5C01E3B0D0DECFE9FF80
:10471000DDCFEAFF180EE926000EEA22EF34EA6A3E
:10472000FE0BEA36E96EEC0EE926000EEA22EECF29
:10473000DEFFEDCFDDFFDECFE9FFDDCFEAFF030EC9
:10474000E926000EEA22EF50E66ED8EC29F0E55299
:104750000B6EDECFE9FFDDCFEAFF040EE926000E87
:10476000EA22E9CF0CF0EACF0DF0DECFE9FFDDCF92
:10477000EAFF020EE926000EEA22EF500F010C2498
:10478000E96E000E0D20EA6EEF500B5C30E3C2ECD8
:1047900029F0E66EDECFE9FFDDCFEAFF030EE92662
:1047A000000EEA22E552E750EF6EDECFE9FFDDCFE3
:1047B000EAFF020EE926000EEA22EF50EF2A0B6E06
:1047C000DECFE9FFDDCFEAFFEF500B5C10E3DECF79
:1047D000E9FFDDCFEAFFEE52EF0409E1DECFE9FFAA
:1047E000DDCFEAFF020EE926000EEA22EF6ADECFF5
:1047F000E9FFDDCFEAFF0E0EE926000EEA22E9CF3F
:104800000BF0EACF0CF0DECFE9FFDDCFEAFF020EBE
:10481000E926000EEA22EF500F010B24E96E000E8C
:104820000C20EA6E020EEFCFDBFFDB501FE0020E22
:10483000DB50040A16E0070A0FE0010A08E0030A49
:1048400001E014D08A908A948A928A960FD08A8046
:104850008A848A928A960AD08A828A868A908A94E0
:1048600005D08A808A828A848A8600D0030EE15C21
:1048700002E2E16AE552E16EE552E7CFD9FF1200AC
:10488000D9CFE6FFE1CFD9FF020EF36EFE0EDBCFEC
:10489000F4FFF350F45C01E31BD0FE0EEA6ADB3454
:1048A000FE0BEA36E96EEC0EE926000EEA22EE5027
:1048B000EFCFEAFFE96E020EE926000EEA22EF5082
:1048C000FE0802E0000E01D0010EFE0EDBCFEBF081
:1048D000E552E7CFD9FF1200ECC0E9FFEDC0EAFFD7
:1048E000020EE926000EEA22FE0EEF6EEEC0E9FF90
:1048F000EFC0EAFF020EE926000EEA22FE0EEF6E7E
:084900000001020EEB6F120032
:08490800D9CFE6FFE1CFD9FF92
:10491000040EE126DE6ADD6A020EDB6A030EDB6A44
:10492000FD0EDBCFE9FFFE0EDBCFEAFFEF50DE6EC0
:10493000DD6ADECF0BF0DDCF0CF00BC00CF00B6AA4
:104940000BC0DEFF0CC0DDFF010EE76EFD0EDBCFFE
:10495000E9FFFE0EDBCFEAFFE750E926000EEA2270
:10496000EF50DE26000EDD22020EE76EFD0EDBCFDD
:10497000E9FFFE0EDBCFEAFFE750E926000EEA2250
:10498000020EEFCFDBFF030EE76EFD0EDBCFE9FF7C
:10499000FE0EDBCFEAFFE750E926000EEA22030E07
:1049A000EFCFDBFFDBCFE6FF020EDBCFE6FFDECF94
:1049B000E6FFDDCFE6FF11D8E552E552E552E552BC
:1049C0000B6E040EE15C03E200D0E16AE552E16E99
:1049D0000B50E552E7CFD9FF1200D9CFE6FFE1CF68
:1049E000D9FF020EE126FD0EDBCF0BF0FE0EDBCF72
:1049F0000CF00CC00BF00C6AD8900B32D8900B3234
:104A00000BC0DEFF0CC0DDFFFD0EDBCF0BF0FE0E9A
:104A1000DBCF0CF00B6A0C6A0B500C1003E0000E9D
:104A200023D00DD0FC0EDB50550803E0000E1CD047
:104A300006D0FB0EDB50AA0802E0000E15D0F66A85
:104A4000DF50F76EF86AD890F736F836F736F83652
:104A5000140EA66EF29E550EA76EAA0EA76EA68223
:104A6000F28EA694010E00D00B6E020EE15C02E203
:104A7000E16AE552E16E0B50E552E7CFD9FF120033
:104A8000D9CFE6FFE1CFD9FF030EE126DE6ADD6A6A
:104A9000020EDB6AFD0EDBCFE9FFFE0EDBCFEAFF85
:104AA000EF50DE6EDD6ADECF0BF0DDCF0CF00BC019
:104AB0000CF00B6A0BC0DEFF0CC0DDFF010EE76ED1
:104AC000FD0EDBCFE9FFFE0EDBCFEAFFE750E92664
:104AD000000EEA22EF50DE26000EDD22020EE76E07
:104AE000FD0EDBCFE9FFFE0EDBCFEAFFE750E92644
:104AF000000EEA22020EEFCFDBFFFB0EDBCFE6FF5C
:104B0000FC0EDBCFE6FF020EDBCFE6FFDECFE6FFDB
:104B1000DDCFE6FF11D80B6E050EE15E0B500B6E7C
:104B2000030EE15C03E200D0E16AE552E16E0B5056
:104B3000E552E7CFD9FF1200D9CFE6FFE1CFD9FF89
:104B4000E652DF6AFD0EDBCF0BF0FE0EDBCF0CF082
:104B50000B6A0C6A0B500C1003E0000E2BD00BD02C
:104B6000000E000903E0000E25D005D0FC0EDB503E
:104B700002E1000E1FD0FD0EDBCFF6FFFE0EDBCFF5
:104B8000F7FFF86ADF6AFC0EDB50DF5C11E2090018
:104B9000DF50E76EFA0EDBCFE9FFFB0EDBCFEAFF5B
:104BA000E750E926000EEA22F5CFEFFFDF2AEBD728
:104BB000010E00D0E552E552E7CFD9FF1200D9CF60
:104BC000E6FFE1CFD9FF030EE126DE6ADD6A020EC1
:104BD000DB6AFD0EDBCFE9FFFE0EDBCFEAFFEF5015
:104BE000DE6EDD6ADECF0BF0DDCF0CF00BC00CF01B
:104BF0000B6A0BC0DEFF0CC0DDFF010EE76EFD0E81
:104C0000DBCFE9FFFE0EDBCFEAFFE750E926000E1F
:104C1000EA22EF50DE26000EDD22020EE76EFD0EC8
:104C2000DBCFE9FFFE0EDBCFEAFFE750E926000EFF
:104C3000EA22020EEFCFDBFF030EE76EFD0EDBCFA5
:104C40000BF0FE0EDBCF0CF0E7500B26000E0C2213
:104C50000BC0E6FF0CC0E6FF020EDBCFE6FFDECFA7
:104C6000E6FFDDCFE6FF11D80D6E050EE15E0D50BB
:104C70000B6E030EE15C03E200D0E16AE552E16EE7
:104C80000B50E552E7CFD9FF1200D9CFE6FFE1CFB5
:104C9000D9FFE652DF6AFD0EDBCF0BF0FE0EDBCF55
:104CA0000CF00B6A0C6A0B500C1003E0000E4AD09B
:104CB0000BD0FC0EDBA003D0000E44D005D0FC0EC0
:104CC000DB5002E1000E3ED0FC0EDB50DF5C37E231
:104CD000DF50E76EFD0EDBCFF6FFFE0EDBCFF7FFFA
:104CE000E750F626000EF722F86ADF50E76EFA0E5C
:104CF000DBCFE9FFFB0EDBCFEAFFE750E926000E32
:104D0000EA22EF50F56E0D00DF2ADF50E76EFA0E53
:104D1000DBCFE9FFFB0EDBCFEAFFE750E926000E11
:104D2000EA22EF50F56E0C00DF2A240EA66EF29EEA
:104D3000550EA76EAA0EA76EA682F28EC5D7A694B0
:0E4D4000010E00D0E552E552E7CFD9FF120078
:024D4E0004015E
:104D5000010EE86F120065920401E86B1200040175
:104D6000E92B000EEA231200120012001200160EA8
:104D7000E66E010EE66E5BEC16F0E552E552400E73
:104D8000E66E000EE66E050EE66EE66A010EE66E53
:104D900092EC16F00B6E050EE15E0B50F3CFFAF0BD
:104DA000F4CFFBF0400EE66EE66AE66A000EE66EB1
:104DB000050EE66E7EEC2AF00B6E050EE15E0B50E2
:104DC000400EE66EE66AE66A400EE66E050EE66E98
:104DD0007EEC2AF00B6E050EE15E0B50400EE66E87
:104DE000E66AE66A800EE66E050EE66E7EEC2AF056
:104DF0000B6E050EE15E0B50400EE66EE66AE66A4B
:104E0000C00EE66E050EE66E7EEC2AF00B6E050E09
:104E1000E15E0B50400EE66EE66AE66A000EE66E54
:104E2000030EE66E7EEC2AF00B6E050EE15E0B5073
:104E3000400EE66EE66AE66A400EE66E030EE66E29
:104E40007EEC2AF00B6E050EE15E0B50400EE66E16
:104E5000E66AE66A800EE66E030EE66E7EEC2AF0E7
:104E60000B6E050EE15E0B50400EE66EE66AE66ADA
:104E7000C00EE66E030EE66E7EEC2AF00B6E050E9B
:104E8000E15E0B50400EE66EE66AE66A000EE66EE4
:104E9000020EE66E7EEC2AF00B6E050EE15E0B5004
:104EA000400EE66EE66AE66A400EE66E020EE66EBA
:104EB0007EEC2AF00B6E050EE15E0B50400EE66EA6
:104EC000E66AE66A800EE66E020EE66E7EEC2AF078
:104ED0000B6E050EE15E0B50400EE66EE66AE66A6A
:104EE000C00EE66E020EE66E7EEC2AF00B6E050E2C
:104EF000E15E0B50400EE66EE66AE66A000EE66E74
:104F0000010EE66E7EEC2AF00B6E050EE15E0B5094
:104F1000400EE66EE66AE66A400EE66E010EE66E4A
:104F20007EEC2AF00B6E050EE15E0B50400EE66E35
:104F3000E66AE66A800EE66E010EE66E7EEC2AF008
:104F40000B6E050EE15E0B50400EE66EE66AE66AF9
:104F5000C00EE66E010EE66E7EEC2AF00B6E050EBC
:104F6000E15E0B50400EE66EE66AE66A680EE66E9B
:104F7000040EE66E7EEC2AF00B6E050EE15E0B5021
:104F8000400EE66EE66AE66AA80EE66E040EE66E6F
:104F90007EEC2AF00B6E050EE15E0B50BAEF12F0BC
:104FA0000E011F0520E10E0120051DE1A098D3DEB2
:104FB00065920E01206B0001100EFE6F0E0EFF6F4A
:104FC000FE07000EFF5BFE51FF11FAE16584080E3B
:104FD000FE6F070EFF6FFE07000EFF5BFE51FF1115
:104FE000FAE16594A0881200D9CFE6FFE1CFD9FF9E
:104FF000FD0EDBCF06F0FE0EDBCF07F0050E061828
:1050000001E1075039E0E868061802E17F0E071851
:1050100031E0030E061801E107502AE0020E0618DF
:1050200001E1075023E0010E061801E107501CE0E2
:10503000740E061801E1075015E0750E061801E11F
:1050400007500EE0730E061801E1075007E0720EDC
:10505000061801E1075001E010D00FD080DE0DD01E
:1050600076DE0BD078DE09D082DE07D07FDE05D079
:105070007CDE03D079DE01D000D0010E00D0E552F5
:10508000E7CFD9FF12000001FA6BFB6BFC6BFD6BE5
:105090000AEC15F0E4EC17F00401E86B12000401CF
:1050A000E85100D01200E9C4F3FFEAC4F4FF00D0D5
:0250B0001200EC
:0E50B200D9CFE6FFE1CFD9FF010EF36EFE0E5F
:1050C000F3CFDBFF010E000913E0400E736E050EF7
:1050D000726E728A929A9388938A866A380E886E64
:1050E000686A696A6A6A6B6A666A3F0E676EF28C02
:1050F000E552E7CFD9FF1200D9CFE6FFE1CFD9FFC4
:10510000E6527550DF6E8890400E736E050E726E1B
:10511000728AFD0EDBCF0BF0FE0EDBCF0CF00CC065
:105120000BF00C6A0B50686EFF0EE76EFD0EDBCFC6
:105130000BF0FE0EDBCF0CF0E7500B160C6A0B5099
:10514000696E3F0E676E100E886E8880A59EA49EC5
:10515000A38EF28C010EF36EF46A00D0E552E55294
:10516000E7CFD9FF1200D9CFE6FFE1CFD9FFE65252
:105170007550DF6E8890400E736E050E726E728AE7
:10518000FD0EDBCF0BF0FE0EDBCF0CF00CC00BF0F6
:105190000C6A0B506A6EFF0EE76EFD0EDBCF0BF054
:1051A000FE0EDBCF0CF0E7500B160C6A0B506B6E4B
:1051B0003F0E676E240E886E8880A59EA49EA38EE7
:1051C000F28C010EF36EF46A00D0E552E552E7CF9F
:1051D000D9FF1200D9CFE6FFE1CFD9FFE6527550D3
:1051E000DF6E8890400E736E050E726E728AFB0E33
:1051F000DBCF0BF0FC0EDBCF0CF00CC00BF00C6A1D
:105200000B50686EFF0EE76EFB0EDBCF0BF0FC0E53
:10521000DBCF0CF0E7500B160C6A0B50696EFD0EDD
:10522000DBCF0BF0FE0EDBCF0CF00CC00BF00C6AEA
:105230000B506A6EFF0EE76EFD0EDBCF0BF0FE0E1D
:10524000DBCF0CF0E7500B160C6A0B506B6E3F0E69
:10525000676E380E886E8880A59EA49EA38EF28C01
:10526000010EF36EF46A00D0E552E552E7CFD9FFA4
:1052700012008850010B08E08850010B03E03F0E3C
:10528000675C02E0000E01D0010E00D01200A4AE57
:0A52900003D07CEC13F0A49E120082
:06529A00D9CFE6FFE1CFD1
:1052A000D9FFE652DF6ADF50DF2AE76EFD0EDBCF63
:1052B000E9FFFE0EDBCFEAFFE750E926000EEA2207
:1052C000FC0EEF6EDF50DF2AE76EFD0EDBCFE9FF4D
:1052D000FE0EDBCFEAFFE750E926000EEA22EF6A76
:1052E000DF50DF2AE76EFD0EDBCFE9FFFE0EDBCFDE
:1052F000EAFFE750E926000EEA22040EEF6EDF50C7
:10530000DF2AE76EFD0EDBCFE9FFFE0EDBCFEAFF03
:10531000E750E926000EEA22EF6ADF50DF2AE76E47
:10532000FD0EDBCFE9FFFE0EDBCFEAFFE750E926FB
:10533000000EEA22010EEF6EDF50DF2AE76EFD0E4F
:10534000DBCFE9FFFE0EDBCFEAFFE750E926000ED8
:10535000EA22020EEF6EDF5000D0E552E552E7CFB1
:04536000D9FF12005F
:0C536400690ED76EC20ED66ED58ED59C99
:10537000D59AD598D596F80ED5140409D56EF28A2B
:10538000F28412000401EB5100D01200D9CFE6FFE5
:10539000E1CFD9FFE652DF6AD59EF294D76A2F0E8D
:1053A000D66ED58EF284E552E552E7CFD9FF1200D2
:1053B000D9CFE6FFE1CFD9FFE652E4DFDF6EFE0E84
:1053C000DB50DF5C04E3FE0EDB50DF5E0CD0FE0E34
:1053D000DB500B6E0C6AFF0ED8800B56000E0C567D
:1053E000010E0B24DF26DF5000D0E552E552E7CF57
:1053F000D9FF1200F2A407D0690ED76EC20ED66E86
:085400000401EB2BF2941200F1
:085408001E0EF66E100EF76E89
:10541000000EF86E00010900F550F56F0900F55017
:10542000F66F03E1F56701D03DD00900F550F06F4C
:105430000900F550F16F0900F550F26F09000900FD
:10544000F550E96E0900F550EA6E090009000900FF
:10545000F550F36F0900F550F46F09000900F6CF1D
:10546000F7F0F7CFF8F0F8CFF9F0F0C0F6FFF1C0A1
:10547000F7FFF2C0F8FF0001F35302E1F45307E035
:105480000900F550EE6EF307F8E2F407F9D7F7C01C
:10549000F6FFF8C0F7FFF9C0F8FF0001F507000EAE
:0654A000F65BBFD712000D
:0A54A600D9CFE6FFDACFE6FFFA0ED9
:1054B000E3CFD9FFFB0EE3CFDAFFFC0EE3CFE9FF2A
:1054C000FD0EE3CFEAFFE9CFF3FFEACFF4FFF80EDA
:1054D000E35003E1F90EE35008E0F80EE30602E2C0
:1054E000F90EE306DECFEEFFF2D7FF0EE3CFDAFFD1
:1054F000E552FF0EE3CFD9FFE5521200FE0EE3CFD7
:10550000E9FFFF0EE3CFEAFFE9CFF3FFEACFF4FFB5
:10551000FB0EE35003E1FC0EE35009E0FB0EE30653
:1055200002E2FC0EE306FD0EE350EE6EF1D7120030
:105530001201000200000040F01603000001010209
:10554000000109022000010100803209040000026C
:10555000FFFFFF000705010240000107058102402F
:105560000001040309041603480049004D005300DC
:1055700041002000200020002000200028034E00D1
:105580006F00610068006C0069006E006B00200015
:1055900057006900720065006C00650073007300BD
:0C55A000200020004255625566557C55E5
:0455AC00C00EF36ECC
:1055B00000EE00F00E0E01D81200EA6002D0EE6A92
:0C55C000FCD7F350E9601200EE6AFCD743
:0455CC001DEE00F0E0
:1055D0002DEE00F0F86A0A9C04EC2AF003EC08F0C7
:0855E0003EEC21F0FBD71200A4
:0855E8004169726C696E6B32BF
:1055F0000000000101000540058005C005000340D2
:10560000038003C003000000000240028002C002C9
:10561000000140018001C00100000000000102FC07
:105620000A0000000000000000000000000000046C
:0356300000000077
:0D5633000000000000000000403938370082
:10564000000000000000000000000000000000005A
:015650000059
:0F56510000FFFF00000100010001000100000048
:1056600000000400FE0028280500000000000000E3
:1056700003020100000000000000010201FE000121
:1056800019000000000000000002010000000000FE
:095690000000000202B900D20082
:10F8000001001F0005004350442D310A00324148D9
:10F8100034444350442D310A0032313338312D43C2
:03F8200050443120
:01FFF800A860
:01FFF900F710
:01FFFA0015F1
:01FFFB00FA0B
:01FFFC0063A1
:01FFFD00F80B
:01FFFE008181
:01FFFF00F110
:01FBFF00AA5B
:00000001FF
