:020000040000FA
:10B0000034100A1041000000582F88DB7B7CCA688E
:10B0100012A81079B87921148578329215776E6864
:10B02000EE817EB59AEB0BA9FAE483FF7B03574FC1
:10B030006FFFDCEE132904EE51449ACE6ABC058DF5
:10B040007664F27B117CDA4F82358877D78B3B337D
:10B05000C23C69BC42875612737ADC1DCBC86A9722
:10B0600026209EE0E230C3FA0B400683616DE83F84
:10B0700099ECD755531A61BF58DA5856A916186B70
:10B0800027B6E878DCD372D95357A326B1360676B3
:10B09000CE97C8516D046CEEA87CD404EE72F8D43F
:10B0A0001B3BA092CA0B66384BFE3E442AF3F426A3
:10B0B00044B515445443A330E809E8C80BE7E26AF5
:10B0C00038C6E83B09B5D3C5D7791D1B70BEF1C2A0
:10B0D0007632A73B6F18F78E5EA37B54739341586B
:10B0E000F0FD2DC214B1798133A5D4A6A4DD8B8FD8
:10B0F000AFCAF5D296A1A0E024250158B88F5CAE66
:10B10000ACBD53A11E7C199A0100FFFF0301010091
:10B110000000000000B400008CCF00000000000020
:10B12000DFEC2866D856F132B3AB16F7D817AB561A
:10B130002FF3FBB9EFEA06A1D8B4DCF29C0D079718
:10B14000C1E8AF6141A5A55EE6103723C5B3AB9654
:10B15000FACBA1B2840CF57229C6634482924FC423
:10B160007100A7985DB79F9779109AD21EDD718DF7
:00000001FF
