:020000040000FA
:10B400000248854602488047024800470040002025
:10B41000F5E7000019B400000348854600F080FA03
:10B42000004800474152010000400020401E00BF7C
:10B4300000BF00BF00BF00BF00BF00BF00BF00BF14
:10B4400000BF00BF00BFF1D170470000401E00BF29
:10B4500000BF00BF00BF00BF00BF00BF00BF00BFF4
:10B4600000BF00BF00BFF1D1704700000048004797
:10B4700001B4000030B50B46014600202022012413
:10B4800009E00D46D5409D4205D31D469540491B18
:10B490002546954040191546521E002DF1DC30BD61
:10B4A00010B5431A934209D28318881803E0401E4E
:10B4B00001785B1E1970521EF9D210BD03460B4372
:10B4C0009B0703D009E008C9121F08C0042AFAD25A
:10B4D00003E00B780370401C491C521EF9D210BDCA
:10B4E000D2B201E00270401C491EFBD2704700221C
:10B4F000F6E710B513460A4604461946FFF7F0FF73
:10B50000204610BD30B504460020034600E05B1C19
:10B51000934203D2E05CCD5C401BF8D030BD0321E8
:10B52000001D401E037812021A43491EF9D5104629
:10B530007047034603220870000A491C521EFAD5C0
:10B5400018467047F0B507460846584087B0C00F08
:10B55000049048000E46590040084908BC1A88412A
:10B5600005D2384631461E4617460B46024658005D
:10B57000400810434CD0300D039040055900400D59
:10B58000490D0590401A0290402872DA18030121F3
:10B59000000B09050843019004980092002805D08B
:10B5A0000199524200208841009201900298402166
:10B5B0000A1A0199009800F01FF905460C466B46DF
:10B5C00007CB00F03AF9C0197141039A0E0D002320
:10B5D000D71756401A467A40164344D0049A002A98
:10B5E0002DD0029A012A039A15DC1205C01A914146
:10B5F00001263605001C7141D20F059ED20700932B
:10B60000019202962A46234600F037F907B0F0BDB2
:10B6100038463146FAE71605224A0F46B218C01AD4
:10B62000B74101210905001C4F4100187F41114617
:10B6300018187941E20F10436D19644113E0E207D5
:10B640006D0815436408C2071443039A01261205C6
:10B65000C01A91413605001C7141CE0740083043A5
:10B660004908C01851412A46234600F0F9F8CDE7B1
:10B67000FFE7049801224000C117121A00238B41F2
:10B6800004983146C417381AA141EEE730B40124BA
:10B69000E407634030BC55E730B40124E40761405F
:10B6A00030BC4FE70000E0FFF0B51FB488B00B9945
:10B6B0000998002448400999C00F49004908099198
:10B6C000C0070B990090490049080B910999089807
:10B6D000A64608431CD00B990A98084318D009982D
:10B6E00001244000420D4800410D09982405000343
:10B6F000000B204309900B980003000B20430B9094
:10B7000050181C494018002201901446104605E0CC
:10B71000002001460DB0F0BD032801DA034600E029
:10B7200003239C46C11A0AAE0AE05F0008ADED5B38
:10B730004F00F75B7D430027AA187C41491C5B1E24
:10B740006145F2DD410004AB5A522104120C0A4358
:10B75000240C401C0828DFDB0198029000997046F9
:10B7600001910090059B049A0799069800F085F8CE
:10B77000D0E700000DFCFFFF0EB5C217C10F50400F
:10B78000CA0740180021054B0293019200910A4616
:10B790000B4600F072F803B000BD00003304000057
:10B7A0000EB505490291002100910A460B46019110
:10B7B00000F063F803B000BD330400004A00090341
:10B7C0000123090B1B051943094B10B5520D9A4271
:10B7D00001DA002010BD064B34339A4203DC9A1A7A
:10B7E00000F01AF810BD03495118884010BD000040
:10B7F000FF030000CDFBFFFF10B5202A04DB01464C
:10B80000203A9140002010BD914020239C1A03460D
:10B81000E3401943904010BD10B5202A04DB0846D0
:10B82000203AD040002110BD0B46D340D040202408
:10B83000A21A91400843194610BD10B5202A06DB14
:10B84000CB170846203A1041C1170B4306E00B46C0
:10B850001341D0402024A21A91400843194610BD3C
:10B8600010B5002B08DA0024401C614192185B419E
:10B870001A4301D14008400010BDF0B51FB482B09A
:10B8800005460C0003D0084604F07EF902E004F0FF
:10B890007BF920300246009021462846FFF7ACFF96
:10B8A000049B059A04460F4618431143084314D0DD
:10B8B000184610431BD0009840210A1A18460599D3
:10B8C000FFF7AAFF05460E46009A05990498FFF770
:10B8D00093FF084305D0012004E02046394607B015
:10B8E000F0BD0020C11705430E432C433743009998
:10B8F0000E986305401A7905E40A00220C43FD0AFC
:10B900000A3002D500200146E9E701051019694116
:10B910000C9C0D9D00196941FFF7A2FFDFE70000B5
:10B92000064C0125064E05E0E36807CC2B430C3C92
:10B9300098471034B442F7D3FFF772FDF481010049
:10B940004482010070B58C180578401C6B075B0FB2
:10B9500001D10378401C2A1106D10278401C03E073
:10B9600006780E70401C491C5B1EF9D12B0705D4CC
:10B970000023521E0DD40B70491CFAE70378401CBB
:10B98000CB1A921C03E01D780D70491C5B1C521EE3
:10B99000F9D5A142D8D3002070BD0000EFF3038099
:10B9A0003F2108408000012149074058004700B569
:10B9B00001F01AFC0CF09CF800B501F041FC0028E5
:10B9C00001D00CF095F800BD012040075830006808
:10B9D000004701204007643000680047012040070D
:10B9E000683000680047012040076C30006800475D
:10B9F00001204007843000680047FEE76846714632
:10BA000004207146084202D0EFF309800847EFF3A3
:10BA100008800847FEE7FEE7FEE701DF0C4A00204A
:10BA200050607F230B49DB054B6148600A480221C7
:10BA3000016041608160C160016141618161C161FA
:10BA4000016281630121016301621160704700009E
:10BA500000050040000500500007005010B5062208
:10BA60000421052002F006FB052001F039FD01F05C
:10BA700007FF03F0E1FC02F0DFF801F087FD10BDE5
:10BA8000F8B5164F01263E61154C21690029FCD0FE
:10BA900000252561134988601348486001F0DEFEE7
:10BAA00001F070FF3E6020680028FCD0256009206E
:10BAB000FFF7BCFCE560BE60E0680028FCD0E560F4
:10BAC000BE600920FFF7B2FCE0680028FCD0E5600A
:10BAD0003E6120690028FCD02561F8BD00100040BF
:10BAE0000011004000150040101F0020F8B5334839
:10BAF00001270078324D122802D02878012800D979
:10BB00000027686A01F0DAFC052801D8002F52D11D
:10BB100001F0C4FC68622B48012606612A4C2069AA
:10BB20000028FCD00020206129492848486001F005
:10BB300095FE01F027FF2348066020680028FCD00E
:10BB4000002020600920FFF771FC0020E0601D4903
:10BB50008E60E268002AFCD00026E66019490120C8
:10BB600088600920FFF762FCE0680028FCD0E660EE
:10BB700014490120086120690028FCD026616878FA
:10BB8000401CC0B268702978884200D36E7011489A
:10BB90006978415C0E488160002F0CD0286A0E49FC
:10BBA000401C2862884206D908482E620178FF2985
:10BBB00002D0FF210170F8BDFE21FBE72C0E002012
:10BBC000C81E00200010004000110040101F00207F
:10BBD00000150040901F00200F270000F8B5012439
:10BBE0003A4B02221A603A4B5D6815435D60394A50
:10BBF00053689B07FCD5384A1379384A002B4CD040
:10BC0000FA23D360354A00231361FF255562344D72
:10BC10009562FF25ED43D561324D1562D362146301
:10BC20005361314B9361314A2828107001D9282083
:10BC300010702E482E4F03781E465B1E002B15DD1C
:10BC400001254A1E781EF407ED07EC4203D0547814
:10BC50004470401C521C54785B1007D09578447097
:10BC6000D4788570801C921C5B1EF7D11F4C761E09
:10BC700001D4885DB8550025657018483978816011
:10BC800002214163416B8907890F022907D0416B6B
:10BC90008907890F012906D00AE00423B1E7154975
:10BCA000C163154903E0FF21C163FF2108318163AE
:10BCB000256201F0F3FB6062AA2220210F48FFF702
:10BCC0000FFC2571032002F05BFFF8BD80E100E06E
:10BCD00000050040000400402C0E0020001500402C
:10BCE000C8C7C6C5C2C2C20000200301C81E0020CA
:10BCF000901F0020FFFF000021100100101F0020F6
:10BD0000F8B50C4605460027B0E12E07360F2D0981
:10BD1000032E03D0042E01D00A2E01D1EFB22D0A3A
:10BD2000330003F048FF0C8007E85353FEDAFD2987
:10BD3000FC9AFB8020680BF053FBCE4E3078032832
:10BD40000AD0CD4902200860CD48CC498160082145
:10BD50004160FF20093020E004F0F2F816200BF0DB
:10BD60006BFB207FFF236268A1680BF0E9FBF0E723
:10BD700001F074FD012078E120680BF031FBBD4E2D
:10BD80003078032816D0BC4902200860BC48BB4963
:10BD900081608121C9004160BA48BB4948610020E7
:10BDA000B060BA49088030780328E1D120688C302F
:10BDB0002060DDE704F0C4F8B5480BF03DFB207FC0
:10BDC000FF236268A1680BF0BBFBE5E72068801EDB
:10BDD0000BF006FBA7480078032825D0A6490220CF
:10BDE0000860A748A549816008214160A64881698B
:10BDF000090A090239438161FF20A34909304861DA
:10BE000001F020FDA169206840180D300BF0DAFA2E
:10BE1000984B002098609D490880042E10D00A2E6F
:10BE20000ED05870187021E104F08AF807200BF04A
:10BE300003FB207F3B466268A1680BF081FBDBE7D8
:10BE40008D4A8F49FC3A40310A60924A4A608C4AD6
:10BE50004021516001215970E4E72068801E0BF0F9
:10BE6000BFFA844E307803282AD083490220086024
:10BE700083488249816081490939416082488169EA
:10BE8000090A0902394381617F497E48486101F00E
:10BE9000D9FCA169206840180D300BF093FA0020FE
:10BEA000B0607A4908807B4A7549F03240310A60B7
:10BEB000784A4A60724A4021516001217170D4E091
:10BEC00004F03EF86D480A380BF0B6FA207F3B4686
:10BED0006268A1680BF034FBD6E76E496848EC3124
:10BEE000403001606B4941606549402048606149CC
:10BEF00001204870BAE020696349801D48602069CC
:10BF00002168C079C000E630081820605A480168EE
:10BF10000422914308221143016003E05DE004E044
:10BF20009CE031E00BF062FBA0E0266970790090A4
:10BF3000B07970712069C079B07121690020C87131
:10BF40005548711DC160554901614F4841604A48DB
:10BF50000168042291430822114301600BF046FB63
:10BF60002169B079C8712169707988710098707100
:10BF70002069C1790029216801D020312160C07970
:10BF8000C000E630081826E0E0683F49801D4860A0
:10BF900039480168082291430422114301600BF0E3
:10BFA00025FB03F0FDFFA07732484078002803D03E
:10BFB00035484030806860773948006C09F030FDC2
:10BFC0006061A17F002901D004294FD1E168C979BE
:10BFD000C900B9314018206048E02F482F49C1609E
:10BFE000E268521D02612848416023480168082226
:10BFF00091430422114301600BF0F8FA03F0D0FFE3
:10C00000A0771C484078002803D01F484030806843
:10C0100060772348006C09F003FD6061A07F002871
:10C0200001D0042822D1E0688179C1714179817100
:10C03000E1686269C879C000B93010182060C97918
:10C04000002913D020302060A07F00280ED1154891
:10C05000006800280AD10A20A07707E0054E307852
:10C06000032801D005F0C0FF03203070002D00D060
:10C070004BE6F8BDF011002000120040110C00004A
:10C0800000F50140050103000015004024120020C6
:10C09000160400001410004000F50040A01E00200F
:10C0A0000885004000F40040F0B504460078022600
:10C0B000C0066578400F83B0042802D0002003B08A
:10C0C000F0BD01F02DFDC7B201F0D4FB0190A8072F
:10C0D0001E4D0834002817DA2846C17A0422491C6C
:10C0E000C1721B48012103782578401C641CAB42B7
:10C0F0001FD1491C9142F6DD012401F0CFF9014620
:10C1000012488163047014E0287B0422401C2873C9
:10C110001048012103782678401C641CB34207D1E3
:10C12000491C9142F6DD012401F0B8F9E8636C7016
:10C1300000260948009740780023420830460199BC
:10C1400001F090FD012003B0F0BD0000B81F0020F9
:10C15000920E0020960E0020700E002030B50D4982
:10C160004A6813040C4A13D40C4B5C680D14AC439E
:10C170005C604C686404FCD45C680125ED032C43CE
:10C180005C604B681B04FCD50221116004495161BD
:10C19000906030BD0004004000F500400005004004
:10C1A000701E00200AC94361016102760749002020
:10C1B000086048600649002A04D04860012005490B
:10C1C00008607047012048600020F8E700F1004057
:10C1D00000F5004000F2004000B50748416809043E
:10C1E00009D506494A68C3139A434A60416809045D
:10C1F000FCD403F0B5FD00BD000400400005004084
:10C2000010B40024002B00D11024022800D00834E0
:10C21000002900D0241D042A02D310BC2820704716
:10C22000A01810BCC0B27047F8B5424C0026A078E8
:10C23000002804D001F032F92063A670F8BD3E4D0D
:10C24000A87A01280BD13D480068012807D13C4855
:10C25000FFF72AFF012814D0394800F04DFE206B6B
:10C2600001F02CF90A2805D8A878002859D0E978D7
:10C27000002952D001F012F920632878002805D057
:10C280000EE020212E4800F0EBFDE8E701F0F2FA85
:10C290000096617800234A080146022001F0E2FC82
:10C2A0006878002809D101F0E5FA0096617800234A
:10C2B0004A080146184601F0D5FCA878002809D1A3
:10C2C00001F0D8FA0096617801234A08014602205D
:10C2D00001F0C8FCE878002809D101F0CBFA0096FB
:10C2E000617801234A080146002001F0BBFC2E7052
:10C2F0006E70AE70EE70607A401CC0B2607208283A
:10C3000000D36672617A8807400F8908084360701D
:10C31000C007C00F01F056FB06E0A87A012803D041
:10C32000F8BDA87A0128FBD10121AE72084602F0BF
:10C3300045F9F8BD700E0020B81F00200014004021
:10C340008C22002018490020087048708870C8703E
:10C350001649087048708870C87015490870487090
:10C360008870C8701349087048708870C870124986
:10C37000087048708870C8701049087048708870DC
:10C38000C8700F49087048708870C8700D490870EF
:10C3900048708870C8700C49087048708870C87000
:10C3A0000A498883704700004C2100206C2100203E
:10C3B0008C210020AC210020CC210020EC21002089
:10C3C0000C2200202C2200204C220020700E002085
:10C3D000F0B58BB004460027684607700D784A78A0
:10C3E00001200E46C12D7DD02ADC222D7BD014DC0D
:10C3F000042D52D008DC002D59D0012D74D0022D0F
:10C400005AD0032D71D153E0062D6FD0102D4FD08F
:10C41000112D4DD0122D68D135E0702D67D008DC7C
:10C42000322D30D0332D7DD0342D2CD06B2D5CD1DE
:10C43000BFE1822D77D0832D76D0A22D55D122E079
:10C44000F52D72D012DCDD2D70D008DCC32D6ED03E
:10C45000D22D18D0D32D16D0D42D46D113E0DE2DF9
:10C4600066D0F12D65D0F32D3FD174E12946F63920
:10C4700008293AD20B007B441B79DB189F4459EF03
:10C48000EEF0ECEBEAE925706A46E11C304602F07A
:10C490006DFF60706846007889E125707078F21C45
:10C4A000401EC1B2B07803F0B3F96070A7701CE20F
:10C4B00025706070A77018E225706070A770B4785E
:10C4C0003D2044430320694608707078401E0006F2
:10C4D000000E70703BD06709684687710AAA02A9EE
:10C4E00001A805E0ADE0A4E034E0EDE17FE072E119
:10C4F00002F0B2FE7578202D00D32025E106C90E8A
:10C500002020401AA84200D805466A4610782A46DC
:10C51000331802A840181946FEF7C2FFF8B202AA63
:10C52000202107E04CE06CE077E068E1ACE18DE1D0
:10C53000A9E03EE103F008F96A4610786419401951
:10C5400010707078401B0006000E7070C3D1002080
:10C550000BB0F0BD25706070F078A070B578002D3C
:10C5600003D1E34809798170C770E71C3D2607F0C5
:10C5700065F900280ED03A203D214D434519E804C5
:10C58000000E01AB02AA202102F0ECFD202E03D9FF
:10C59000202002E0F720EFE73046C4B2E906C90EDA
:10C5A0002020401AA04200D2044602A809182246C0
:10C5B0003846FEF775FF3F192D19361BDFD194E180
:10C5C00007F03CF9002810D03A2625703346621D4A
:10C5D000211DE01C02F044FD607020794001B04252
:10C5E00000D80646B61CA6707FE1F726EDE7257059
:10C5F0006A46E11C304602F02FFE60706846007803
:10C60000D5E0521ED1B225706B46E21CB01C02F080
:10C6100049FF607068460078C9E0521ED1B22570AB
:10C620006B46E21CB01C02F0FBFF607068460078AD
:10C63000BDE02570F178B0786B46E21C02F092FD07
:10C640003DE125706070A270B11CE01CFEF728FF70
:10C650004BE175E0E7E094E062E001E02FE048E0C4
:10C6600025706A461178491CC9B21170605410785F
:10C67000401CC0B2107027541078401C1070B01CC1
:10C6800003F0E8F931E1257069460978491CCAB21E
:10C6900069460A70A0540878401CC0B20870B1788E
:10C6A000202904D0275469460878401CEAE0A01CE1
:10C6B00000F0C4FF6946097808186946E2E0257071
:10C6C00069460978491CCAB269460A70A0540878BC
:10C6D000401CC0B2087027540878401CC0B20870D3
:10C6E0000146F378B278204600F000FD69460870F4
:10C6F0005CE0257069460978521E491CCBB2694638
:10C700000B70E0540878D2B2401CC0B208702754B5
:10C710000878401C0870B078F11C01F07FF9E4E063
:10C72000257069460978491CCAB269460A70A05446
:10C730000878401CC0B2087027540878401CA1E05B
:10C74000257069460978491CCAB2A05469467F2001
:10C750000870C01E2BE025706A461178491CC9B2CA
:10C76000117060541078401CC0B2107027541078BB
:10C77000401CC1B21170204601F0E8F96A46107001
:10C7800015E025706A461178491CC9B211706054D1
:10C790001078401CC0B2107027541078401CC1B2F1
:10C7A0001170204600F08CFC6A461070C01EA0700C
:10C7B0009BE0257069460978491CCAB269460A702F
:10C7C000A0540878401CC0B2087027540878401C58
:10C7D0000870032025E0257069460978491CCAB213
:10C7E00069460A70A0540878401CC0B208702754EB
:10C7F0000878401C087072B6FEF738FE75E02570A8
:10C8000068460078401CC1B26846017067540078E1
:10C81000401CC1B26846017067540178491C017020
:10C82000022033492EE0257069460978491CCAB2B6
:10C8300069460A70A0540978491CCAB269460A7050
:10C840002B49A754087000200BB0F0BD2570694635
:10C850000978491CCAB269460A70A05408780222B5
:10C86000401CC0B2087022540878401CC0B2087046
:10C8700022540878401CC0B2087013212154694624
:10C880000878401C087030E02570887869460F7081
:10C89000042802D0052811D10DE000F0B7FA154A9E
:10C8A0000346517810780902014358181070000AA5
:10C8B0005070012003E0012000F0A0FA0020607019
:10C8C00068460078A07010E0257068460078401C2B
:10C8D000C1B26846017067540078401CC1B2684616
:10C8E000017067540178491C017001200BB0F0BD44
:10C8F000200E002044120020F0B5D3480027807A93
:10C900008FB03E4601287DD1CF4900208872CF48A4
:10C9100000220378012180200B4200D00243490607
:10C92000090E4008F8D1CA4C626200F05FFBE0617A
:10C93000206B400840002063C6480068012849D1A8
:10C94000C54800F0D9FA012844D1C348BE4D447807
:10C9500002200440687CA0423CD100F09FFD2946A3
:10C9600088627320C862497CBC484908BC4A407848
:10C97000B54D5054002C12D0A88B401CA88300F059
:10C980008DFDA864B4498878002824D0012821D0DE
:10C9900002280BD003281ED004287DD0BCE0688B71
:10C9A000401C688300F07AFD2864EBE74878AB4DC3
:10C9B0008008EA788000002A0DD0A34A927C904239
:10C9C00009D1002807D02022A349A64800F06CF91D
:10C9D0000020E870CDE0A1480127C078CD783E4620
:10C9E00000287DD09C49002000F0AAFB9B49098AC1
:10C9F000401A80B206909849012000F0A1FB9749A7
:10CA0000498A00E0EFE0401A80B208909249022083
:10CA100000F096FB9149898A401A80B20B908E49AA
:10CA2000032000F08DFB8D49C98A401A80B209901D
:10CA30008548C17C491CC174022C72D08A4B0020ED
:10CA40008A4901900091029022460395012106989F
:10CA500002F0EEF87C48C07B012811D9022C62D08C
:10CA60008149844A8C468249834B401E029103953A
:10CA700000930192C1B263462246089802F0D8F8AA
:10CA80007148C07B042813D9022C4ED076497C4AC9
:10CA90008C467A497B4B00E03CE0001F01920291FA
:10CAA0000093C1B20395634622460B9802F0C0F88A
:10CAB0006548C07B072811D9022C38D06A49734ACF
:10CAC0008C467149724BC01F029100930192C1B212
:10CAD000039563462246099802F0AAF85F4800E0F1
:10CAE00042E0C07800283BD05B49042000F028FBDE
:10CAF0005A492B460A8B498B801A4018524980B2FA
:10CB00000A7C214600F0DAFB4F4908750A7C002AAE
:10CB10000FD011E000270126CD78002EDED11FE0D6
:10CB2000FFE75C4B8BE75B499BE75A49AFE7594905
:10CB3000C5E74549012805D04349824210D1002864
:10CB400008D10DE0474802785209072A08D18078B9
:10CB5000022805D1414A0020D070487D401C48750C
:10CB6000002F01D1002E04D000F084FE3B498871D3
:10CB7000CD713A4C6078C007C00F00F023FFE07819
:10CB8000002808D00121002001F018FD2E48807DEA
:10CB9000012803D027E001210846F5E73E4805902B
:10CBA0003E4800213E4C84460B460A460598805C70
:10CBB000202810D29500EF290DD866466759765C7B
:10CBC000491C3F5CC9B2BE4201D05B1CDBB2401CB9
:10CBD000C0B22028EFD3521CD2B2092AE6D31A4899
:10CBE000016D591801651D4CE07800282AD0164DBA
:10CBF000A86A00F063FCE96A884223D329484068A8
:10CC000000281FD100F04AFCA8621E20E86200F054
:10CC100031FE002601460096607801234208687CB8
:10CC200001F020F86078401CC0B26070082800D184
:10CC300066706078C007C00F00F0C4FE01210020BC
:10CC400001F0BCFC0FB0F0BDB81F00208E0E00201C
:10CC500000150040001400408C220020700E0020BF
:10CC6000CF1F00204C210020960E00200C20002019
:10CC70006C2000204C2000202C200020CC20002004
:10CC8000AC2000208C2000202C2100200C21002032
:10CC9000EC200020920E00201C7D01001C7C010075
:10CCA000D07B010000110040002A11D0401E491E17
:10CCB000D30703D04B784370401C491C520807D05F
:10CCC0004B7843708B788370801C891C521EF7D17F
:10CCD00070470000F0B583B0292069460870414CC8
:10CCE0004149627948790126404F0025052A70D2D2
:10CCF00013007B441B79DB189F4402181E285E003A
:10CD00000E460028694609D00120FEF767FF7079BA
:10CD1000002807D04E20FEF7B3FE5BE0012001F0B3
:10CD200049FEF4E74E2001F093FD53E0002801D0C6
:10CD3000292004E0292006E0002803D00420FEF783
:10CD40009FFE47E0042001F083FD43E06946012097
:10CD500001F022F8264929200E6139690029FCD00A
:10CD600022490D612349886000F0E0FD00F00AFED1
:10CD70001F4F7E60BE6000F091FB019000F09EFBB3
:10CD8000052801D20198F9E71848C56000F0AAFD0E
:10CD90003E61164801690029FCD005616078401C9D
:10CDA000C0B260702178884200D365701248617803
:10CDB000415C104881600DE000F01EFE00F0E2FDD5
:10CDC0000B480660066138690028FCD03D6101E02F
:10CDD000FFE725716079411C6171042800D96571F4
:10CDE00003B0F0BDC81E00202C0E00200011004032
:10CDF0000010004000150040901F00200249887577
:10CE00000020086570470000B81F0020F0B51148E9
:10CE1000002286461048114C84461046134671463F
:10CE2000C95C202910D29D00EF2A0DD866466759AB
:10CE3000B65C521C7F5CD2B2BE4201D0401CC0B274
:10CE4000491CC9B22029EFD35B1CDBB2092BE6D306
:10CE5000F0BD0000267D01001C7C0100F87B010074
:10CE6000F0B40D4B00241D782246042D12D26B071E
:10CE70001B0E0A4E09E0075DF754641C5B1C521C34
:10CE8000D2B2E4B2DBB2202A01D28A42F3D3024802
:10CE90006D1C0570F0BC7047B30E002078120020A6
:10CEA0000149002008707047B30E002070B40D4D8A
:10CEB000044600202B780246002B11D05B1E2B70FD
:10CEC0005B071B0E084D09E0EE5C26545B1C401C02
:10CED000521CD2B2DBB2C0B2202A01D28A42F3D3B2
:10CEE00070BC7047B30E0020781200200148007813
:10CEF00070470000B30E0020F0B501784478C806F2
:10CF00000225400F83B0022802D0002003B0F0BDFC
:10CF100000F006FEC6B200F0ADFC0190A007104C78
:10CF20000127002807DA607B401C607300F0B6FA26
:10CF30002063A77007E0A07B401CA07300F0AEFA4E
:10CF400060630025E7700748009640780123420897
:10CF50002846019900F086FE012003B0F0BD0000D4
:10CF6000B81F0020700E0020F7B5174600252A468E
:10CF70000121009B0198FFF743F91B4E01213970F5
:10CF8000345C30184178A14201D301250C468178E8
:10CF9000A14201D302250C46C078A04201D303254B
:10CFA000044600221146009B0198FFF729F9325CE4
:10CFB0000021A24202D33970345C00253018427837
:10CFC000A24202D33970447801258278A24202D36A
:10CFD000397084780225C078A04201D303253970C6
:10CFE000284603B0F0BD0000F812002070B4144CC5
:10CFF00000226378012180200B4200D002434906C1
:10D00000090E4008F8D11502A378002101228020E2
:10D01000134200D001435206120E4008F8D12943B2
:10D020000D02E378002101228020134200D0014349
:10D030005206120E4008F8D1294370BC080270470E
:10D040008E0E002010B407480122037800208021B2
:10D05000134200D008435206120E4908F8D110BC02
:10D06000704700008E0E002070B4144C00226378CC
:10D07000012180200B4200D002434906090E4008DE
:10D08000F8D11502A378002101228020134200D09C
:10D0900001435206120E4008F8D129430D02E378ED
:10D0A000002101228020134200D001435206120EBB
:10D0B0004008F8D1294370BC08027047A40E002034
:10D0C000094AD3784354491CC9B2537843547F2347
:10D0D000491C5370C9B292784254491CC9B2AA2261
:10D0E0004254491CC8B270472C0E002030B404468C
:10D0F000012A1FD1114A556B106BA84200D828464F
:10D100005063022B06D3050A6554491CC9B260540A
:10D11000491CC9B2042B07D3158D280A6054491C39
:10D12000C8B22554401CC1B2052B03D3D07860543B
:10D13000491CC9B230BC084670470000C81E002018
:10D1400010B5400040180179407909020818C00460
:10D15000000CFEF725FB064B9A6BDB6BFEF7A4FA7F
:10D16000FEF72CFB034980B2884200D9084610BD67
:10D17000700E00208890000070B4144C0022637878
:10D18000012180200B4200D002434906090E4008CD
:10D19000F8D11502A378002101228020134200D08B
:10D1A00001435206120E4008F8D129430D02E378DC
:10D1B000002101228020134200D001435206120EAA
:10D1C0004008F8D1294370BC08027047D81F0020DE
:10D1D00003480168491C016002490020086070474B
:10D1E000E811002000E100400A4840680A4AC306EE
:10D1F00000200A49002B05DA10614B885B1C4B802C
:10D2000001238B6050601060C868002800D0004780
:10D21000704700000013004000110040F011002092
:10D22000054800214160054B01225A600268002A2E
:10D23000FCD0016070470000001100400010004069
:10D2400010B50D494B6800220C48012B04D183888E
:10D250000224234383804A608B68012B01D0002085
:10D2600010BD43885B1C4380838804242343838050
:10D270008A60012010BD0000408100402012002083
:10D280000149C86070470000F011002002490246C1
:10D2900008690A6170470000F0110020064805493E
:10D2A00001600449F0394160034940204039486039
:10D2B000704700000411004040F50140FFB51646DC
:10D2C000074600246148FF2283B0302142708270FB
:10D2D000801C491EFAD1002E00D101260021022017
:10D2E00008F09EFA00F034FB5948002101635948C8
:10D2F000012203788020134200D001435206120E0F
:10D300004008F8D152488162FFF7AEFE50490862EA
:10D31000086B102108434E4908630020C862069834
:10D320008860202000904C480025486000F0FEFAFC
:10D330000021012008F074FA48490120886062E069
:10D34000474AD06801285ED1434900980B184048ED
:10D350004360424B012098600023D360414A126829
:10D36000D2B296464A19049901928C461178CB069E
:10D370005B0F022B42D152780092CB070240DB0FA9
:10D380009A423BD0009A02231A40624536D1724637
:10D39000012A33D1344A11724A09921E022A05D851
:10D3A00053008907D218890F5118CCB22E49A040DA
:10D3B0008A8B104388830199092C1DD22000784460
:10D3C0000079001887440406080A0C0E1012140095
:10D3D00026480EE026480CE026480AE0264808E0E9
:10D3E000264806E0264804E0264802E0264800E0F9
:10D3F00026482022FFF758FC641CE4B2202D22D0DE
:10D4000020250020009001F0B1FBB84201D2B442C7
:10D4100096D300F067FA14481E4B808B1C494208D3
:10D420001A40801A024680080A4008401018010974
:10D430000818194907B00840010A0818010C081813
:10D440008006800EF0BD00252020DBE78B22002027
:10D4500000150040A40E00208C2200200010004087
:10D460000011004000140040700E00204C210020EC
:10D470006C2100208C210020AC210020CC21002038
:10D48000EC2100200C2200202C2200204C22002025
:10D4900033333333555555550F0F0F0F01210448C2
:10D4A000890201600348044A006811607047000067
:10D4B00080E100E0240E002000E100E00121054AA7
:10D4C00089021160044A054B126819600249096813
:10D4D000081A704780E100E0240E002000E100E01F
:10D4E000F8B50446164841680515294341601549B9
:10D4F000486840050BD4012206E01046521C0A2859
:10D5000002DB00F051F802E048684005F5D50E490D
:10D5100000224A60042008610C4B0120D8607D265F
:10D52000F6000B4F66433E600A4E30608A600A4A3E
:10D530000104516009490D6009494C601860F8BD4B
:10D54000000500400004004000A5004000A000408D
:10D5500040A5004000A2004000A3004000E100E020
:10D56000240E0020C106C90E012088400149086030
:10D570007047000080E100E0C106C90E012088402C
:10D58000014908607047000000E100E0044841687C
:10D59000820511434160034841684900FCD570474A
:10D5A0000005004000040040014903204870704716
:10D5B000200E002070B501F011FB18480021C16059
:10D5C000416017480068174D012401281CD1164AF4
:10D5D0001C2110780840102801D0082814D11349C4
:10D5E000CB78002B03D0097900290BD010E0087903
:10D5F000012801D002280BD10D49906809688842A2
:10D6000002D105E0082803D001F004FBAC6070BD36
:10D610000849022008600848847270BD001100406B
:10D6200000140040001000408C220020700E0020EA
:10D63000D81F002080E100E0B81F002010B504468C
:10D640000E202070202060700E48017AA170418A5F
:10D65000E170090A2171018B6171090AA171818A46
:10D66000E171090A2172C08A6072000AA07204F096
:10D67000CDFEE072010A2173010C6173000EA073EC
:10D680000F2010BDC81E0020F8B5594C0025E06BD6
:10D69000401CE063A179574805293DD20A007A442D
:10D6A00012799218974438023E3E970052484168DA
:10D6B000022739434160514841688907FCD500F091
:10D6C0002BF900F00FF900F0C9F8607A00F07AF950
:10D6D0004B480126066145614A49816147634A49D1
:10D6E000C1634A498163216C0A0E42620902C16129
:10D6F0000162C562066346494160E1798160C560A7
:10D70000444903200860A07A002806D042480660F9
:10D7100004F07CFE6064A771F8BD00F093F83E4809
:10D720004660F5E7A289616C00268F18A17A00296E
:10D7300001D1FF37F5370269012A32D004F066FEC5
:10D74000C01B00281ADDA08B401CA083208A401C2F
:10D750002082A189606C4018606401212D48A1716C
:10D7600005602E4A022010602B4A116122494A6846
:10D7700082434A60214841688907FCD4E089218AB4
:10D78000228B41189142C7D3217A491C21726082B1
:10D79000608BA082A08BE082E58125826583A583D2
:10D7A000F8BD0561002900D101261D480068012847
:10D7B0000BD0608B401C6083208A401C208204F0C8
:10D7C00025FE6064002EC8D1D8E7E089401CE081C6
:10D7D0000320A071F3E7104A0121116101690029BA
:10D7E000FCD005612572E5812582A571F8BD000098
:10D7F000C81E002000110040000500400004004049
:10D80000001500403F200301FFFF00002110010030
:10D81000501F0020001200400010004080E100E096
:10D820000014004005490020487005484168012265
:10D83000520791435210114341607047B00E0020CF
:10D8400000050050044841681322D2059143032289
:10D8500012061143416070470005005004484168BA
:10D860001322D20591430122D206891841607047E4
:10D87000000500500148407870470000B00E0020BD
:10D8800013484168C20511434160124841680029AC
:10D89000FCDA11490D20C861086248628862C862DA
:10D8A000086348630D4841681322D2059143012261
:10D8B000D2068918416041689210914341604168E5
:10D8C0005200914341600649022088707047000071
:10D8D00000050040000400404007005000050050D3
:10D8E000B00E002003484168012252069143416076
:10D8F0007047000000050050014880787047000024
:10D90000B00E002003484168012292061143416095
:10D91000704700000005005003484168012292064C
:10D92000914341607047000000050050064841687F
:10D930001322D20591430322120611434160034989
:10D94000012088707047000000050050B00E0020D4
:10D950000A4841681322D20591430122D206891850
:10D960004160416892109143416041685200914387
:10D970004160034902208870704700000005005094
:10D98000B00E002070B40D4B01251E78290700242D
:10D990000B484A00022E02D0002E03D007E05E782A
:10D9A000002E04D05C70436893430B4303E05D702A
:10D9B00043688B431343436070BC7047B00E002034
:10D9C0000005005010B401225207094C09495310B8
:10D9D000002807D0012060704868984310434860D1
:10D9E00010BC704700206070486890431843F6E709
:10D9F000B00E002000050050064841681322D205F1
:10DA000091430122D20589184160034900208870A2
:10DA10007047000000050050B00E002030B4002414
:10DA20000125012812D013232B4ADB0502281ED022
:10DA300003282CD0042837D005283BD027490628B6
:10DA400047D0072800D10C7030BC704709782448B3
:10DA5000002906D0012907D00229F5D1017030BC78
:10DA60007047047030BC7047057030BC7047087850
:10DA70000028506806D001219843C905401850601D
:10DA800030BC70470321984309060843F7E709783B
:10DA900001204006002902D15168814301E051680C
:10DAA0000143516030BC704709780120800600298D
:10DAB000F5D1F1E709780120C0060029516804D0AA
:10DAC00099430818506030BC70478143516030BCA6
:10DAD00070470D7030BC704700050050310E0020BB
:10DAE000B00E002030B50D460024034622462146E4
:10DAF0002846FEF785FB0146083188420BD20749CC
:10DB0000081808210278A24200D91446401C491E78
:10DB10000906090EF6D1204630BD0000F81200209B
:10DB200008497F20CA69012A09D1074A90687F23E2
:10DB300093600022CA61642802D26421081A7047E7
:10DB4000002070470011004040150040F0B586B03D
:10DB5000044600206A4610743548002214238D18AC
:10DB6000EFB24678E65586786D1C801C921C5B1ED1
:10DB7000EDB21B0666551B0EF1D128313020CDB217
:10DB80000590022104AA0120FFF7EEF9014668463C
:10DB9000007C60556D1CE8B22154401CC5B20021C8
:10DBA00004AA0120FFF7E0F901466846007C6055B1
:10DBB0006D1CE8B22154401CC6B2002568460570B1
:10DBC00005716A4602212846FFF7CEF9002103902D
:10DBD00001AA0846FFF7C8F90290684601780023B9
:10DBE0000220039AFEF70CFB124900230F5C6846E3
:10DBF00001791846029AFEF703FB0E49085C87423A
:10DC0000684603D901780174039802E00179017430
:10DC100002986946097CA155761CF1B26054491CF2
:10DC2000C8B22554401CC0B22554059806B0F0BDBA
:10DC3000F7120020F812002010B507484168C2050D
:10DC400011434160054841680029FCDA2821044855
:10DC5000FDF74DFC10BD0000000500400004004031
:10DC6000F812002010B5029CFEF7CAFA7F2C03D0F0
:10DC7000282803D3002010BD282010BD0649002C01
:10DC80000A5C02D01219520802E013019A1A120912
:10DC90000A54012010BD0000F8120020F8B501243C
:10DCA000FFF744FEFFF76EFE3548012646608660AA
:10DCB000FFF7F4FB334F0546F868002804D12846E7
:10DCC000FFF7FCFB0A28F7D3F86800222E4D012845
:10DCD00015D12E490B5CFF2B00D00024401CC0B294
:10DCE000202802D2012CF5D006E0012C04D10878BE
:10DCF000FF280AD0FE2808D0E86A401CE8621446D3
:10DD0000FA60F869012822D024E0E97800290AD0D5
:10DD100001290BD00229F2D1A978884211D1A86A31
:10DD2000401CA862EBE7A870EE70E8E7A96A491CFE
:10DD3000A962A9788842E2D00221AE62E970A87097
:10DD4000DDE7A870A86AAE62EA622863D7E7FC61E3
:10DD50000B488661FFF7C6FD6878401CC0B268704A
:10DD60002978884200D36C7009486978405C094979
:10DD700088600348066138690028FCD03C61F8BD22
:10DD80000010004000110040C81E0020501F00205D
:10DD9000901F002000150040F3B50D4601243849BE
:10DDA00081B00220086037494A6802434A60364819
:10DDB00041688907FCD5354E0027F7603461FFF7CD
:10DDC00041F97062FFF712F9F061F762346377612D
:10DDD0002F48B0612F4901980870282801D92820C0
:10DDE00008702C482C4F02781646521E002A16DD69
:10DDF00001236C1E781EF107DB07D94203D061783E
:10DE00004170401C641C6178521008D0A3784170A6
:10DE1000E1788370801C521EA41C002AF6D11D4993
:10DE2000761E01D4A85DB85500224A7017483B7889
:10DE3000836002234363436B9B079B0F022B05D038
:10DE4000436B9B079B0F012B04D008E0134BC3636C
:10DE5000134B03E0FF23C363FF2308338363114B9A
:10DE60004360114B7F2098608A708A620A63CA708F
:10DE70000A71FFF713FA032000F082FE03B0F0BD31
:10DE800080E100E000050040000400400015004073
:10DE900000200301C81E0020901F0020FFFF00008B
:10DEA00021100100501F002040150040F8B5FFF779
:10DEB0003DFDFFF767FD164E01257560B560FFF764
:10DEC000EDFA04462046FFF7F9FA0528FAD3114C7B
:10DED0000027E760FFF706FD356120690028FCD0C8
:10DEE00027610D484178491CC9B2417002789142BE
:10DEF00000D3477009494078085C09498860FFF7FA
:10DF0000CDFA04462046FFF7D9FA0528FAD3F8BD22
:10DF10000010004000110040C81E0020901F00208B
:10DF200000150040F8B5FFF799FCFFF72BFD2048DE
:10DF3000012646608660FFF7B1FA1E4D0446E86888
:10DF4000002804D12046FFF7B9FA0A28F7D30027A2
:10DF5000EF6019480068012821D1E86901281ED125
:10DF600016488068C4B21648FEF79EF8012816D1FC
:10DF70001448222C447002D810497F228A607F2CDA
:10DF80000DD08178A14200D98470C178A14201D31B
:10DF90007F2900D1C4700C49886B401C8863EF61F5
:10DFA00003488661066128690028FCD02F61F8BD0E
:10DFB00000100040001100400014004040150040D7
:10DFC000501F00202C0E0020C81E0020F8B5FFF7BF
:10DFD000ADFCFFF7D7FC2048012646608660FFF7BE
:10DFE0005DFA1E4D0446E868002804D12046FFF77C
:10DFF00065FA0A28F7D30027EF601948006801285E
:10E0000021D1E86901281ED116488068C4B216489B
:10E01000FEF74AF8012816D11448222C447002D881
:10E0200010497F228A607F2C0DD08178A14200D9CF
:10E030008470C178A14201D37F2900D1C4700C49FA
:10E04000886B401C8863EF6103488661066128691C
:10E050000028FCD02F61F8BD0010004000110040E6
:10E060000014004040150040501F00202C0E0020DE
:10E07000C81E002030B40C4B5C6808252C435C6043
:10E080000A4B5C682407FCD5094B9A60D86019617B
:10E090009805586201201860064900204861064929
:10E0A000886030BC7047000000050040000400405C
:10E0B00000350040403500400031004030B40F4A88
:10E0C00000249460002916D00D4BDC6162B6491E15
:10E0D00009D09568002DFCD094609D690570DC61C5
:10E0E000401C491EF5D191680029FCD094609969C3
:10E0F000017030BC704762B630BC704700310040E0
:10E1000000350040F0B4114F0024BC60002A1AD042
:10E110000F4D0378EB6162B6401C521E0BD006789F
:10E12000401CBB68002BFCD0BC60AB69EE610B707F
:10E13000491C521EF3D1B8680028FCD0BC60A86905
:10E140000870F0BC704762B6F0BC70470031004008
:10E150000035004030B4104C0025A560002917D0D0
:10E160000E4A0378D36162B6401C491E09D0A368E9
:10E17000002BFCD0A56093690378D361401C491E35
:10E18000F5D1A0680028FCD0A560906930BC70472C
:10E1900062B630BC704700000031004000350040DE
:10E1A000024800698007C00F70470000000500505A
:10E1B00002480069C007C00F70470000000500500A
:10E1C000FFB5ABB000206946087202201590002010
:10E1D000139005F033FB2E99083118912E99FF31D9
:10E1E00001311791002803D018984024019028E0AD
:10E1F0002D9800280BD04488002C08D00088139458
:10E20000011B2D9808181030019002200BE048895E
:10E21000002811D01899411801912E99897A0C1A69
:10E22000E41C0120139469460872402C02DD40244E
:10E23000139406E0002C04D102A8012401900020D0
:10E240001590002019902B9800280DD08588002D5E
:10E250000AD001201990402D00D340252B98C18869
:10E2600008300818149004E000202B901BA84025CB
:10E27000149072B6AC4201DA204600E0284600262F
:10E28000AD491A960090771E086904E0870708696F
:10E29000BF0F8007800F8742F8D1B8072AD5199899
:10E2A000002827D0F80705D0009A01991498FFF7A5
:10E2B00029FF08E029461498FFF74CFF1A980095AB
:10E2C000002800D1402400991498401814902B98ED
:10E2D00000280AD081880098081A2B9988802B98EA
:10E2E000C188009808182B99C8800098361800201B
:10E2F00016900BE0F80716D000990198FFF7DEFEA4
:10E3000000982C99361800201690086000991A98E9
:10E3100040181A90AE422FD12B9800281CD080882C
:10E32000002807D01DE062B6052016902C99002029
:10E33000086023E02B9800682B9000280CD085887B
:10E340001A994020401A854200DB05462B98C18867
:10E3500008300818149004E01BA814901A98402163
:10E360000D1A0198A41B801900260190AC4201DA15
:10E37000204600E028460090A6428EDBAD1B169892
:10E380000026052878D0F80720D01598002806D058
:10E3900001281CD0022873D003287DD1A6E068464E
:10E3A000007A012809D002280BD02E993F24087248
:10E3B0002E9809300190032007E01898032401905B
:10E3C00002E003A8042401900120159064E068464F
:10E3D000007A012802D002283CD10FE02E980B30A1
:10E3E00001902E98847A3C2C04D93C241799032060
:10E3F000488131E01799032048812BE02D980021B6
:10E4000081732D986A46C173D07B927B00021043C2
:10E410002D9A10802D9A50806A46507B127B000204
:10E42000104302052D98120D82816A46527B2D9869
:10E4300092060E30920F0BD00122114301702D98DD
:10E44000103001902D9804883B2C03D93B2403E025
:10E450000222F2E7002C03D00220139415901BE057
:10E460000320159003A801906846007A012805D082
:10E4700004213F20441A0FE033E001E00321F8E7D4
:10E480006846007A01280BD0022816D000242546C1
:10E490000320159003A80190AC421DDA20461CE031
:10E4A000179813994089032805D04022541A41181F
:10E4B00017984181ECE73C22F8E72D982D99408888
:10E4C00009888842139901D13B2200E04022541A66
:10E4D000401A2D994880DBE728460090002800D09C
:10E4E000DBE6F80725D01698052822D005F0A6F916
:10E4F000002803D01799402048811AE06846007A26
:10E50000022807D001280BD0022812D0012810D0F1
:10E510001690EFE72D98408800280AD1022007E0E6
:10E52000179841892E98807AC01C814201D1012020
:10E53000169016982FB0F0BD0005005070B51C4D18
:10E540000246E9780020002930D1FDF7FBFE194C86
:10E550009078E073D078207410796074002801D02E
:10E56000022060745079A0740126EE700020E074DF
:10E570002075FEF793FFA0627320E062FFF7BCF9FD
:10E58000022811D0607C0C494008085C687030405B
:10E59000FFF718FAA07A002802D0FEF7ADF903E0E1
:10E5A0000121002000F00AF8AE70012070BD0000CB
:10E5B000700E0020B81F0020CF1F0020F3B50746C3
:10E5C000314881B00026C6604660304831468672C8
:10E5D000022007F025F9FFF7BBF92D482D494078B7
:10E5E0002D4C4008085CA06026630125002F12D046
:10E5F0002A480021037801228020134200D00143E1
:10E600005206120E4008F8D16162FEF7EFFCE0619D
:10E61000206B28432063029800281AD0204A1078E3
:10E6200051789378D27801431343194311D00022D3
:10E6300001238021184200D00A435B061B0E4908C3
:10E64000F8D1A262FEF710FD2062206B1021084372
:10E650002063E6621348FF22102142708270801C02
:10E66000491EFAD100F0D6FA0F486060FFF75EF954
:10E670000021012007F0D4F80C4885600C490220E5
:10E68000086003B0F0BD000000110040B81F00207A
:10E69000700E00209A0E0020001500408E0E002003
:10E6A000A40E00208B2200208C22002000100040AD
:10E6B00000E100E0F8B52E4D00262979002954D15B
:10E6C0002C4982780A70C2784A7002798A7042793D
:10E6D000CA7041780023091FCAB22749274C8B70A2
:10E6E000CA70202A1ED2002A11D0401DC91CD6078C
:10E6F00003D046784E70401C491C520807D046781B
:10E700004E7086788E70801C891C521EF7D10126AF
:10E710002E711B48FF226371102142708270801C91
:10E72000491EFAD1676AFEF7B9FE6062FFF7E4F8A6
:10E73000022818D0A07A002802D000F077FB12E05F
:10E74000002F06D03846FEF7B9FE962801D2207970
:10E7500000E000206870C007C00FFFF733F9002108
:10E760000120FFF72BFF0120A8703046F8BD000004
:10E77000700E0020D81F00206C220020B81F00203F
:10E780005712002030B5164983B0086F496F154DF8
:10E7900002910190687814494008085C0090134881
:10E7A00000240278012180200A4200D00443490657
:10E7B000090E4008F8D1FEF719FC04430C480194F7
:10E7C000FEF75EFD6878C007C00FFFF7FBF86946EB
:10E7D000002007F025F8FFF7A9F803B030BD0000CE
:10E7E000C47C0100700E00209A0E00208E0E0020C6
:10E7F000B5D500000B48416A0322114341620B4A20
:10E800000949116001214161094800220260820525
:10E81000116000BF00BF00BF00BF01680029FCD02D
:10E8200070470000000500400024F4001C12002086
:10E8300000010040044842680168891801600349EA
:10E840000020086070470000240E002040A1004016
:10E85000F8B5194F01263E61184C21690029FCD0FA
:10E86000002525611649886016484860FFF7C4F8FE
:10E87000FFF788F83E60FFF745F82560206800281C
:10E88000FCD025600920FCF7D1FDE560BE60E068A2
:10E890000028FCD0E560BE600920FCF7C7FDFFF74B
:10E8A0003BF8E0680028FCD0E5603E612069002864
:10E8B000FCD02561F8BD00000010004000110040B0
:10E8C00000150040101F0020F8B5324801260078DE
:10E8D000314F122802D03878012800D900260620AE
:10E8E00000F04EF92D49012008612D4C20690028C7
:10E8F000FCD0002525612C492A484860FFF77CF8A8
:10E90000FFF740F8254901200860FEF7FBFF25606E
:10E9100020680028FCD025600920FCF787FDE56011
:10E920001E4901208860E268002AFCD0E5601B498E
:10E93000012088600920FCF779FDFEF7EDFFE06813
:10E940000028FCD0E56015490120086120690028F5
:10E95000FCD025617878401CC0B278703978884244
:10E9600000D37D7011487978415C0F488160002E9A
:10E970000CD0386A0E49401C3862884206D90948D2
:10E980003D620178FF2902D0FF210170F8BDFE2110
:10E99000FBE700002C0E0020C81E002000100040E5
:10E9A00000110040101F002000150040901F0020A3
:10E9B0000F270000F8B501243D4B02221A603D4BA1
:10E9C0005D6815435D603C4A53689B07FCD53B4A34
:10E9D000002315793A4A002D51D0FA25D560384ADE
:10E9E0001461FF255562374D9562FF25ED43D561D2
:10E9F000354D15620023D36214635361334B936129
:10EA0000334A2828107001D9282010703048314F1F
:10EA100003781E465B1E002B15DD01254A1E781E5D
:10EA2000F407ED07EC4203D054784470401C521CAC
:10EA300054785B1007D095784470D4788570801C2A
:10EA4000921C5B1EF7D1224C761E01D4885DB8550E
:10EA5000002565703878502801D950203870C1B22F
:10EA60001748816002214163416B8907890F0229A0
:10EA700007D0416B8907890F012906D00AE0D360CE
:10EA8000ADE71549C163154903E0FF21C163FF21CB
:10EA9000083181632562FEF701FD6062AA22202110
:10EAA0000F48FCF71DFD2571032000F069F8F8BD43
:10EAB00080E100E000050040000400402C0E002032
:10EAC00000150040C8C7C6C5C2C2C200002003016D
:10EAD000C81E0020901F0020FFFF00002110010031
:10EAE000101F0020F8B51A4D18486860FEF784FF23
:10EAF000FEF748FF174E03203060174C01272760B0
:10EB0000FEF700FF00F030F8FEF7C8FC0090FEF7BB
:10EB1000D5FC052801D20098F9E700223260276170
:10EB20000E4801690029FCD014460261FEF7F4FE8C
:10EB30000B484178491CC9B241700278914200D318
:10EB4000447008494078085CA860F8BD101F002098
:10EB5000001500404015004000100040001100402A
:10EB6000C81E0020901F00207047000002490120AD
:10EB7000086002480068704740900040409500409F
:10EB800070B47D21C9000F4B484359685C1521437F
:10EB900059600D494A689205FCD50C4A0125D5609B
:10EBA0000B4E042131610B49086015600A48016869
:10EBB0000029FCD00021016055605868A0435860CE
:10EBC00070BC704700050040000400400090004009
:10EBD0000095004040950040409100400948416840
:10EBE000421511434160084841688905FCD5074931
:10EBF0000120C860064A00235360042313610860A3
:10EC000070470000000500400004004000900040F4
:10EC100000950040044901204860044841684215BD
:10EC200091434160704700000090004000050040A3
:10EC3000F8B50E460746042219463048099CFEF7EF
:10EC400033F82F49012008612E4801690029FCD0C2
:10EC50002C48002101612C4DAC6006986860274863
:10EC6000012203788020134200D001435206120E85
:10EC70004008F8D16962FEF77FFAE8610020E86297
:10EC8000FEF7BAFEFC1FFC3CFFF770FFA042FBD36F
:10EC90001B4801210160FEF735FE1A4C2068002850
:10ECA000FCD000202060093FFFF760FFB842FBD393
:10ECB0000920FCF7CBFB124A01219160E068002893
:10ECC000FCD00023E360012E06D9079868609160AC
:10ECD000E0680028FCD0E360022E06D9089868603E
:10ECE0009160E0680028FCD0E360FEF715FE00218B
:10ECF000022006F095FDFEF72BFEF8BDD81F002080
:10ED0000001000400011004000150040F3B581B034
:10ED10000021022006F084FDFEF71AFE3C4C3B4821
:10ED200060603C480021037801228020134200D01B
:10ED300001435206120E4008F8D16162FEF71CFA38
:10ED4000E0610020E062FEF757FE334F0E20385E90
:10ED5000FCF712FD05460E460198FCF721FDFB6B02
:10ED6000BA6BFCF7A1FC2A463346FCF78FFCFCF794
:10ED700025FD87B2FD1FFC3DFFF7F8FEA842FBD33F
:10ED8000264901200860FEF7BDFD254D28680028B2
:10ED9000FCD000262E60093FFFF7E8FEB842FBD307
:10EDA0000920FCF753FB1D4801278760E86800280D
:10EDB000FCD0EE600021022006F032FDFEF7C8FD17
:10EDC000FEF7DAF917494840E0611348164A01781E
:10EDD000525CA260491CC9B201700C2900D10670B6
:10EDE0000E490F6028680028FCD02E608F60E8680C
:10EDF0000028FCD0EE60FEF78FFD0021022006F017
:10EE00000FFDFEF7A5FD03B0F0BD00006C22002051
:10EE100000150040D81F0020700E00200010004098
:10EE200000110040FFFFFF00C47B0100F8B5544D06
:10EE30000027A87A534C012868D15348AF72037851
:10EE4000002001228021134200D008435206120EF6
:10EE50004908F8D14D4EB062FEF706F93062306BCA
:10EE60001021884330634A480068012845D1494849
:10EE7000FDF71AF9012840D120790226022802D094
:10EE8000012836D039E043480278D106490F0429D9
:10EE90001FD14178637908463040834219D1022856
:10EEA00013D0EB7952095201934212D102280ED0AD
:10EEB000687A8908890088420BD120223549364872
:10EEC000FDF7F2FE032020714AE0AB79EAE7287AE9
:10EED000EFE700F063F801280FD16879401CC0B259
:10EEE0006871032809D2FEF7D9FA68626078287140
:10EEF00003E000F053F8012830D0207900282FD00B
:10EF000003282DD000210120FFF758FB207900288D
:10EF100035D0032833D0686AFEF7D0FA96282ED36E
:10EF2000FEF7BCFA6862FEF7A5FC01460097607820
:10EF3000002342080220FEF795FEFEF79BFC009797
:10EF4000617800234A0801461846FEF78BFE607878
:10EF5000401CC0B26070082807D007E02671C2E7E5
:10EF600001210846FFF72AFBD0E767706078C007E9
:10EF7000C00FFEF727FD00210120FFF71FFBF8BDA2
:10EF8000B81F0020700E0020A40E002000150040C5
:10EF9000001400408C22002058120020F8B52A4AA4
:10EFA0001678F006400F04284CD12848284904243C
:10EFB000012305780F78401C491CBD4242D15B1CDF
:10EFC000A342F6DD1079517900024018C004000C0C
:10EFD000009054781F4A02201179012704401E4DE9
:10EFE000012914D0022C1FD0E87954710822104353
:10EFF0001A4E0129307019D0022C21D0687A21468E
:10F00000384370700098FFF781FE0120F8BD700949
:10F01000400120300006000E00D12020022C01D03B
:10F02000E871E2E7A871E0E7A879DEE7FEF736FAD3
:10F030008006000E022C01D06872E0E72872DEE73D
:10F04000287ADCE70020F8BD8C22002094220020E2
:10F05000D81F0020700E0020B81F00206C22002056
:10F06000F8B51446344A1F460346D57C1D70137DFF
:10F07000324E0B70F178002000291ED0917A217059
:10F08000517B6170917BA170117FE170917E217144
:10F09000517D61717178A171B179E171F17921725C
:10F0A000317F6172B18B090AA172FF21E172217374
:10F0B0006173A173317AE173F8BD00200090002FD5
:10F0C00037D0202F01D9202500E03D46F2780021DD
:10F0D0002046002A24D16A1E1F2A21D8009A092A14
:10F0E0001ED213007B441B79DB189F440406080AD8
:10F0F0000C0E1012140012490EE012490CE01249D5
:10F100000AE0124908E0124906E0124904E01249F7
:10F1100002E0124900E012492022FDF7C5FD294610
:10F1200000986418401CC0B20090781AC7B2002F33
:10F13000C7D10120F8BD0000B81F0020700E0020CC
:10F140004C2100206C2100208C210020AC210020CB
:10F15000CC210020EC2100200C2200202C220020B9
:10F160004C22002070B50D461E460024174934700D
:10F17000C9781346002925D1691E1F2922D80124E8
:10F18000092821D201007944097949188F440406DD
:10F19000080A0C0E101214000D490EE00D490CE087
:10F1A0000D490AE00D4908E00D4906E00D4904E06B
:10F1B0000D4902E00D4900E00D4920221846FDF7F7
:10F1C00073FD3570204670BD0024FBE7700E0020F3
:10F1D0004C2100206C2100208C210020AC2100203B
:10F1E000CC210020EC2100200C2200202C22002029
:10F1F0004C220020F0B589B015460C46074604F0B5
:10F200001DFB002810D03A203D214C430619002D4B
:10F210001FD0F004000E08AB6A462021FFF7A2FFC2
:10F22000202D03D9202002E0F720EDE72846C4B2C4
:10F23000F106C90E2020401AA04200D204466846BA
:10F24000091822463846FCF72BF93F1936192D1BB1
:10F25000DFD109B0F0BD000010B50C468178002365
:10F26000092926D8202010700A2922D208007844C3
:10F270000079001887440406080A0C0E10121416B0
:10F280000D4910E00D490EE00D490CE00D490AE072
:10F290000D4908E00D4906E00D4904E00D4902E082
:10F2A0000D4900E00D4912782046FDF7FDFC0120D4
:10F2B00010BD1370002010BD0C2000202C20002059
:10F2C0004C2000206C2000208C200020AC2000204E
:10F2D000CC200020EC2000200C2100202C2100203C
:10F2E00070B500F0D1FA012829D01D48C178002955
:10F2F00002D0FDF701FB09E00079002804D00328C3
:10F3000002D0FFF793FD01E0FCF78EFF15480221C4
:10F31000407800250840144C002811D002280ED156
:10F32000A08B00280BD0042803D9A583FEF7B6F8DC
:10F33000E064A06CFEF7C2F8C82800D9A58370BDB0
:10F34000608B0028FBD0042803D96583FEF7A6F85C
:10F350006064206CFEF7B2F8C828F0D9658370BDF0
:10F36000700E00208C220020B81F0020F8B50B463C
:10F37000002601782D4F15463446A2293FD006DCE1
:10F38000122943D032294BD0342906D108E0D229A2
:10F390000DD0D3290ED0D42925D014703046F8BD15
:10F3A000FC70FEF7A9FA022822D1012625E0FFF71A
:10F3B00081F933E01E4839794079032905D00029C5
:10F3C0000ED0012111701870E8E718702022194939
:10F3D000581CFDF769FC212028703C710126DDE7EF
:10F3E00001261470DAE73C71FEF786FA0228DCD0B9
:10F3F00001210846FFF7E2F8D7E72C70CEE7012697
:10F4000020211846FDF752FD2870C7E74178837820
:10F41000491EC21CC9B2184600F096F90646ECE730
:10F42000FFF78CF806462C70B8E70000700E00203D
:10F43000B81F00205812002070B5174D00206870CA
:10F44000E870164C28716071A071E07120726072D2
:10F45000A072E07220736073A073E0732074607414
:10F46000A074E07420756075FEF718F8A063FEF7CD
:10F4700015F8E063FEF712F82063FEF70FF820633B
:10F48000FEF7D0F9FDF70CFDFEF708F828630449F4
:10F490000120086170BD0000700E0020B81F002020
:10F4A0000010004070B5002102781C460D46162A57
:10F4B00072D213007B441B79DB189F449F0D0A3DD9
:10F4C0000A0A6E0A0A9F0A619F495512349F9F0AD1
:10F4D0007A910121257092E0FDF7E2FC012125706F
:10F4E0008DE04178827809028A1846490A82C278FA
:10F4F00003791202D2184A82427983791202D21811
:10F500008A82C279037A1202D218CA82427A837A34
:10F510001202D2180A83C27A007B120210184883A2
:10F52000012125706BE0417880780902081835497F
:10F53000C8810121257062E0334942780A708278DF
:10F540004A70C2788A700079C8700121257056E02F
:10F550002E4942780A7082784A70C2788A7000799F
:10F56000C870012125704AE0294942780A708278E2
:10F570004A70C2788A700079C870012125703EE017
:10F58000244942790A7082794A70C2798A70007A75
:10F59000C8700121257032E030E01F4942780A70BE
:10F5A00082784A70C2788A700079C870012125700B
:10F5B00025E0C1780279090289180BD04278807859
:10F5C00012021018FBF756FFFCF7EAF80D4AD16358
:10F5D00090637EE70B4A11490020D163906378E77E
:10F5E000C178027909028A1806494A8142798079EC
:10F5F0001202101888810121257000E0257008464C
:10F6000070BD0000700E00208E0E0020920E0020B3
:10F61000960E00209A0E0020A40E00200000F03F5D
:10F62000F8B51E46054614462B7800200A21042210
:10F630000227092B06D001210C2B08D00021112B09
:10F640007AD10CE02170627001203770F8BD3B4A1E
:10F65000012052783A4B52089A5C22706CE06A782A
:10F66000A52A69D2002A0FD00020D20701D021702C
:10F6700001206A78520807D0C3B2E154431CDBB2C0
:10F68000801CE154521EF7D12E4FF87A2070387B3F
:10F690006070A170E170787B2071B87B60716878D0
:10F6A0000C2815D9386BFDF709FF24494989884290
:10F6B00000D3481C010A21726072786BFDF7FEFED0
:10F6C0001E494989884200D3481C010AA172E07290
:10F6D0006878162815D9B86BFDF7F0FE17498989A7
:10F6E000884200D3481C010AA174E074F86BFDF74E
:10F6F000E5FE12498989884200D3481C010A217518
:10F7000060756878222815D302210120FEF7EAF9F6
:10F71000A07700210120FEF7E5F9E07720270221FC
:10F720000020FEF7DFF9E055002121270846FEF70B
:10F73000D9F9E055697801203170F8BD700E0020CC
:10F740009A0E0020B81F002030B51546254A002427
:10F75000D278002A42D14A1E1F2A3FD801240A2803
:10F760003ED202007A441279921897440422242649
:10F77000282A2C2E30321D4A0023137053701C4A45
:10F780001948137053701B4A137053701A4A137040
:10F7900053701A4A13705370194A13705370194AF0
:10F7A00013705370184A13705370184A13705370C3
:10F7B00010E00E480EE00E480CE00E480AE00E483D
:10F7C00008E00E4806E00E4804E00E4802E00E484D
:10F7D00000E00E480A462946FDF766FA204630BD8D
:10F7E0000024FBE7700E00200C2000202C200020BD
:10F7F0004C2000206C2000208C200020AC20002019
:10F80000CC200020EC2000200C2100202C21002006
:10F8100000B51346202922D8092820D202007A44B4
:10F820001279921897440406080A0C0E101214005C
:10F830000C480EE00C480CE00C480AE00C4808E0CC
:10F840000C4806E00C4804E00C4802E00C4800E0DC
:10F850000C480A461946FDF727FA012000BD002092
:10F8600000BD00004C2100206C2100208C210020D4
:10F87000AC210020CC210020EC2100200C22002013
:10F880002C2200204C220020F8B56B4A012710786A
:10F89000114649790026694D162862D012DC1228DB
:10F8A0001ED008DC002873D0012819D003281FD0EF
:10F8B000042855D11FE0132820D0142821D0152862
:10F8C0004ED12CE05E4C1838092849D202007A4407
:10F8D0001279921897444B7348A20404ADADA50069
:10F8E000002902D0FCF702F9A3E0FEF7EDFFA0E04B
:10F8F000FEF7DCFA9DE0FEF7D1F99AE0FFF7F2F8A7
:10F9000097E02879002807D0FEF7D0FA2879401C24
:10F91000C007C00F28718CE0FFF7E4F8F6E72879FC
:10F92000052815D202007A441279921897440202EF
:10F93000020A0D00002902D0FCF7D8F809E0FEF712
:10F94000C3FF06E0FFF7CEF803E0FEF7AFFA00E0F2
:10F950002E712879401CC0B22871042869D92E71F3
:10F9600067E0FEF733FB64E0FEF7DCFA61E0FDF7E9
:10F9700075FFFEF707F83349012048608860FDF7FE
:10F980008DFD0090FDF79AFD052802D20098F9E759
:10F990004AE0E6602B490120086120690028FCD07C
:10F9A00026616878401CC0B268702978884200D30C
:10F9B0006E7025486978415C2448816039E0FDF724
:10F9C0004DFFFDF7DFFF2248032101601D490120A3
:10F9D0000860FDF763FD0090FDF770FD052801D27A
:10F9E0000098F9E71A480660164901200861206965
:10F9F0000028FCD026616878401CC0B26870297865
:10FA0000884200D36E7010486978425C502A01D950
:10FA1000502242540D48D1B281600AE0FDF75AF9F4
:10FA200007E0FDF731FE04E07F209070D6700027DC
:10FA3000AE633846F8BD00002C0E0020C81E002022
:10FA40000011004000100040901F002000150040F1
:10FA500040150040F8B5484D002604462E71007848
:10FA600029467F274979162847D012DC12281ED054
:10FA700008DC00284BD0012819D0032838D00428EE
:10FA800076D135E0132812D0142810D015286FD164
:10FA90000DE00122183809286AD203007B441B7943
:10FAA000DB189F4425042A65190F65653C006078C2
:10FAB000002903D0A11CFCF791F859E0A11CFEF726
:10FAC00079FF55E0002903D02C490878491C08E04B
:10FAD0002B490878491C08E02A716078002903D076
:10FAE000A11CFCF77BF843E0A11CFEF763FF3FE09D
:10FAF0006078A11CFEF750F93AE06078A11CFEF78F
:10FB00004BF9207828706F70AF70EF7030E0FFF71E
:10FB100093FCAF701B48EE708663867128E019482D
:10FB20008271677823793946A7781B063F023943EB
:10FB3000E778621C3F043943194323790902090A13
:10FB40001B0619430164517912790902114381811D
:10FB5000227AE379110219430183617AC171A17A92
:10FB60004172E17A8172C68106824683868306727B
:10FB700020782870F8BD00002C0E0020430E0020D5
:10FB8000320E0020C81E00202021020C01D01021BE
:10FB90001046020A01D010460839020901D0104669
:10FBA000091F820801D01046891E420801D0881E14
:10FBB0007047081A704730B47446641E2578641C78
:10FBC000AB4200D21D46635D5B00E31830BC1847B2
:10FBD00002E008C8121F08C1002AFAD17047704716
:10FBE000002001E001C1121F002AFBD17047000074
:10FBF00070B5C41DF9340546082941D00ADC2846F1
:10FC00002D4A80300B00FFF7D6FF07252E24302425
:10FC1000243024000A2928D00C293BD0122941D0B5
:10FC2000142916D1E08D0C218843E0851320400172
:10FC3000152128184901407969184875284601F0AE
:10FC4000A9FF284607F003FD01214902284601F0DB
:10FC500047FD70BD0265284607F048F8E08D402159
:10FC60008843E08570BD426570BD0120E07528467F
:10FC700001F0CAFC284607F0EAFC0121C902E5E7C9
:10FC8000E08DFF2101310843E085284607F0DFFCC5
:10FC90004021DBE7207C0228E6D18103284601F0E1
:10FCA0001FFD05E0E08DC106DED510218843E0850B
:10FCB000284607F0CCFC70BD0000010070B50123A0
:10FCC0000B4A990311600B4C21600B4D00242C60F2
:10FCD0000A4E70600A4804600A48036000E030BFC2
:10FCE00028680028FBD0034880300160116070BD97
:10FCF00080E200E000E100E0E811002000E50040C3
:10FD000000E1004000E0004070B50B4C15460E4687
:10FD1000002B00D0094C01460948A0470848294655
:10FD20001038A04706481038FFF7C8FF044930468E
:10FD30001031A04770BD0000A51C0100B71C0100D8
:10FD40004C16002010B504460448FFF7B7FF0349DE
:10FD50002046203101F0A6FF10BD00003C16002017
:10FD6000064841680214114341600548416849044E
:10FD7000FCD504490320486070470000000500409E
:10FD80000004004000E3004070B51E490446487975
:10FD9000002808D00D46903D012805D0022812D039
:10FDA00003281AD0002070BD2070022048719422D0
:10FDB0001549601CFBF774FB1349942294312846C3
:10FDC000FBF76EFB07E02070032048719422294660
:10FDD000601CFBF765FB952070BD2070002048710A
:10FDE000012003F06FFC084908223439601CFBF73E
:10FDF00057FB2046942205490930FBF751FB9D2013
:10FE000070BD000038110020EC0E002014100020FE
:10FE100002484079002800D00120704738110020A6
:10FE2000064A80008018002902D0416B491C4163BA
:10FE30008030816C491C816470470000B80E00203E
:10FE400010B501F00BFF05F0D5FA07F0B5FD0B4931
:10FE50000B48FBF74CFB0B490B48FBF748FBFBF748
:10FE6000FDFD62B605F09CFFFFF77AFF03F09CFCF6
:10FE700004F058FE07F042F910BD0000DC14000049
:10FE8000C81E002024040000C81E002010B5014632
:10FE90000A220248FBF704FB10BD000020130020DB
:10FEA00070B50D462449C0B0401816460024030022
:10FEB000FFF781FE0705092E32363A3E26006946D5
:10FEC000284600DF13E01D4909220878491C0B78F9
:10FED000491C1843521EFAD1002100280BD00A22D7
:10FEE0001649A81CFBF7DCFA6946284602DF68467B
:10FEF0004478A41C04E00D2268460270417002247C
:10FF0000224669463046FBF7CBFAE0B240B070BDFE
:10FF10006946284603DFEAE76946284604DFE6E744
:10FF20006946284605DFE2E76946284606DFDEE740
:10FF30006946284607DFDAE7DF03FFFF20130020CA
:10FF40000948C06A00070ED407484030C26A074912
:10FF50004A62026B8A62426BCA62826B0A63C06B3E
:10FF6000CA05104348637047800000100017004026
:10FF7000092105228901D20141188218898F12783E
:10FF8000891D1032FF305143C1300F31808A090979
:10FF9000081870471522012152018018817470479A
:10FFA0000A480088400701D5022070470848806849
:10FFB000002809D007480168012901D004207047B2
:10FFC0000021016008467047052070472412002078
:10FFD000F011002000140040F3B5002693B0344621
:10FFE00004F04EFD139D0746FF350135A86E00282D
:10FFF0007BD0FD200A900020119004900590149869
:020000040001F9
:10000000001D0B901398FF30693007901398FF3054
:10001000613003905BE00890002009900898807997
:100020000007000F012807D00898C0798006800ECD
:10003000062801D3801F09900B20C00138180090BA
:10004000808C400704D509980A990A30814243D32D
:10005000079801F0BEFF089880790007000F072875
:100060002ED2012809D10399497D002905D004A881
:10007000089902F006F8641C29E00099898C490768
:100080001ED508994A790B79110219434942CAB21F
:100090000899099B0E310191DBB2089900930292F5
:1000A000C979089B8A0940490833095C0B9803F019
:1000B0003BFD0B9009990A98401A0A38761C0A9061
:1000C00011980899401C1190039801F0DAFFA86E6E
:1000D000002801D0192E9EDB1198C0B203F0F2FA6D
:1000E000A86E002802D004990AE05BE003AB07CBBE
:1000F000C260816006E00D68079801F0C2FF2946E2
:100100000029F8D1002E0BD00A98FD21081AC2B29E
:10011000F3B20221149802F0C3FB042015B0F0BD25
:10012000002C3FD00F2C06DD0B20C0013818808C2E
:10013000000700D50F242007020EE3B20B2114980C
:1001400002F0AEFB14980026001D0A900B20C0019F
:100150003F181BE0079801F03CFF0546B88C0007EC
:100160000FD568792A79000210434042C0B200904E
:10017000E8792B4682090833991D0A9803F0EDFCB3
:100180000A902946039801F07CFF761CA642E1D133
:10019000E0B203F097FAB88C000703D5002C01D029
:1001A0000820BBE70020B9E7CC7E0100F3B591B091
:1001B000044604F065FC0A900020264680360C9028
:1001C000F06C002875D02046FF30C130039013201A
:1001D000400120180F902046A0300E900920800189
:1001E00020180590F01D1521F9304901089060187C
:1001F00001250027FF3401340D90F06C28422BD0EC
:10020000FF220132A91A0C95954277D00CDC202DE3
:1002100023D004DC012D70D0102D1BD11DE0402D0A
:100220006DD0802D16D16BE01F2000020A1A81428A
:1002300077D007DCFF39491E74D003204002814289
:1002400008D164E003204003101A6CD00321C903D5
:10025000884269D000200C90DDE00E9A0A99127E47
:100260000831022A02D080030CD423E00B220A9822
:10027000D2018018808D1B2804D0E08D01229202CB
:100280001043E085FF207130405CFF31C1310091A7
:100290000290039A05980192038F0B210A98C901D5
:1002A0004018808C00228006C10F129803F01EF9BE
:1002B0001FE0ADE0FF207130405CFF31C1310091A3
:1002C00002900B210A98039AC90101924018808C70
:1002D00000238006C10F0222129803F007F93F2085
:1002E0000A9940010818C17B491EC1730E9900206C
:1002F0000876F06C30218843F0647EE05EE050E0E8
:100300000598039A018F129803F07EF975E0E07D5D
:1003100001280AD007280F98C37B0CD0022B12D0DB
:1003200015E01EE02DE022E056E00F981A21C37B75
:100330000598028F03E00598028F0898C17D1298F6
:1003400003F0DDF959E00898C07D302803D0059806
:100350000021028FF3E70598018F129803F0E6F968
:100360004BE00598018F129802F0A2FA45E0A08AAE
:1003700000900598638A018F627C129803F0F2FA6C
:100380003BE00D98007E0090C10070310D98019106
:10039000C27D0598D300018F7033129803F05EF987
:1003A0002BE0E08DA37DC00501D5112200E00022E5
:1003B0000598018F129803F0A5FA1EE0089841896C
:1003C0000089009008980191C38882880598018F60
:1003D000129803F0ADFA10E00D98027D0598018F98
:1003E000129803F07BF93F200A9940010818C17B5D
:1003F000491EC1730E99002008760C9800280AD077
:10040000012805D0F06CA843F064012003F05AF9EC
:100410000C9813B0F0BD6D007F1C122F00DAECE6D3
:10042000F6E7F8B5044609208001251820468030FB
:10043000698F026D914201D00020F8BD01210904AD
:100440000165152040012718787C002600281BD064
:100450002146FF31E131084620381D220F4606466D
:10046000FBF71EF8B08AE887FF20FF21C130C531B5
:1004700000590959C0221051803461641D21384649
:10048000FBF735F8012614E0204606F02FFCE51DA9
:10049000F935E88D40218843E885204600F072FB5D
:1004A000002806D0F87C002803D0E88D20210843DE
:1004B000E8853046F8BD10B58478944204D0112206
:1004C00006F060FF012010BD002010BDF8B5044605
:1004D000FF3001300090C08D8105152040012718A4
:1004E000002901DA397D0DE026468036F51DF93503
:1004F000B06DE96C884209D9387C002801D0082108
:1005000000E03E21204600F045F9F8BDA86900282A
:1005100004D0A96C884207D9401AA861E86900286C
:1005200006D0A96C884201D82221EBE7401AE86185
:10053000132040012018C07B022837D1FF20D5307E
:10054000005BA96C401D4143326C736C891800201C
:10055000584101225202812312599B001B59511A02
:10056000834102D2204600F051FC0120400281214B
:10057000C022005989001259C42309591B59801AF5
:10058000994113D201214903204601F0A9F82046E0
:1005900041218030C900036C0959406C0022591870
:1005A0005041E21DFF32FA3211605060B06DA96C0B
:1005B0004018B065092080012018418F491C8AB27B
:1005C00042870520C001211888787B7BC018C0B203
:1005D0008870252801D325388870706D82420DD12E
:1005E000012000047065B87C002803D0204604F088
:1005F000A5F903E08021204600F0C4FA0020F87637
:1006000000980221C08D88430099C885F8BD024634
:100610008030416FFF320020093248605068002866
:1006200001D0416000E0116051607047F3B50446AD
:100630002546FF3581B00020C1352886FF200221E4
:10064000FD3001552046FFF793FC0146092080014B
:100650002018408FE82642182046803002652A463E
:10066000403A9446926C036C4A43406C9B180021BC
:100670004841298E244AF6435143CA173712891933
:100680007A415E1850416F8F63462A8F9B6EFF3709
:100690009E46A8370023A766FF322367A83221466B
:1006A000E266603101224A7773468B6200238B85B4
:1006B00020318B730299002913D000220092002967
:1006C00003DA61468A6C0299511800238A19434162
:1006D000204606F083FC821B2823D2180B4F0A4EBB
:1006E00005E00092F1E72B8E5B1C2B86D219B242FB
:1006F000F9D8E9230022C0185141FF22E1321051FC
:10070000FF3481346166FEBDE20400001EFBFFFF82
:10071000F8B505460E46044680350121686D09048A
:1007200088420CD14021204600F0A0FB002807D0D1
:10073000FF340134E08D0121C9020843E085F8BD92
:100740002046FFF715FC092189016118498F0D2208
:100750000818152168654901002061188874204631
:10076000FF3031300A490746FAF79AFE2046FF303B
:10077000052231463E30FAF793FEFF214331686D82
:10078000085301223946204600F074FEF8BD0000EF
:100790009A7E0100F8B504461520400126183175EF
:1007A00001214904204600F09BFF204606F0ACFAE8
:1007B0000421B820254601558035686F00270028A0
:1007C00011D02146FF31B53188420CD0817A89079A
:1007D000890F022901D0012905D102F0B7FFB07EAF
:1007E000401CB076012700262146F83120466E676E
:1007F00001F0D6FDC519E11DF931204601F0D0FD0B
:100800004519012D07DB0121204600F069FF6D1E0F
:10081000E8B202F0C1FF092080012018868702F0AB
:100820004FF8F8BDFFB587B00E4604460321A0304F
:10083000149B864D0176002B01D0912100E096217A
:1008400020461C30E061206224221155343020659E
:1008500060650C386064A0644C20015520468030EF
:100860000190006040607C2211550561784860600D
:100870007848206001987849092203759201088818
:10088000A21802921087401C80B20F22002512028B
:100890000880904201D101200880E01DFF30FA302D
:1008A00078210746FAF723FE132040012018C5736C
:1008B000457502986949C1866949B96004F020F814
:1008C000014601988164204604F038F801F0B8FD33
:1008D000152149016718C0B20C214843000A0521BF
:1008E000401DC9017873611804918870029845878A
:1008F0003D7401200199000408657D7401994865E3
:100900002046BD74EC3005604560F82038751B202A
:100910007875B875F8753876204601F067F9BD73BB
:100920002046FD73F830056045600830056045607D
:1009300001984C49456702988587FF20BF30098898
:100940000153049920464D7000F0D4F92046FF3041
:10095000813009990390418003980A9941862A21A0
:100960003046FAF7C4FDB079314600090001401D58
:10097000B071F0791431800980012230F071019852
:10098000B61D806CFAF7D5FD01F05AFD0590304692
:10099000032205A91230FAF783FD2046FF30C1304B
:1009A000022100900177717500220A99099803F0DD
:1009B000B9FA0099052248823076010A71762A49EF
:1009C000484303998864009811998182B176080A96
:1009D000F07600981099C1823177080A70770299F1
:1009E0001198C8872149109848430399C864204842
:1009F000211830461E30FAF753FD2036F078797B07
:100A00004009C9064001C90E0843E0210843F070BF
:100A10000098139941830098129901832046009908
:100A200000F0E6F80198FF34C5647F20FD76387742
:100A3000E134E577A577657704990D7000984577DF
:100A4000009885770098C5770BB0F0BDCD0D0100FB
:100A5000655E01003F5A010090110020B80B0000B4
:100A600080C3C901EC7D0100E204000010270000F2
:100A700083020000F3B50746FF370446C137788B81
:100A800083B0FF30A8300190388BC421FF30A830EC
:100A90000090C020E82200590D59D2431112861847
:100AA0004D412046FFF7BDFC002810D0C020C421D6
:100AB000E82200590D59D24311128618788B4D4106
:100AC000FF30A8300190388BFF30A83000902046CE
:100AD000FF308130016CC022C423406C12591B5975
:100AE0005140584001430BD00498002806D0012003
:100AF000009032462B46204606F0E4FA05B0F0BDE1
:100B0000FF272046C9370199383000233F59009A02
:100B10000EC00122427247610383837600933246FE
:100B20002B46204606F098F8E8E7000070B504462A
:100B3000FF300130C08DC10501D51A2070BD0006FF
:100B400004D54021204600F0CBFD17E0402120468F
:100B500000F08CF9002801D0232070BD2046FF3022
:100B60003130152206490546FAF79AFC012229463A
:100B7000204600F07FFC204606F04CFD002070BDB2
:100B8000A77E010070B505468030446F0E46002CEC
:100B90000BD0617A227A09021143314205D000213B
:100BA0004167284601F07DFC0FE029463246F831C6
:100BB000284601F09FFA040007D1E91D3246F931B9
:100BC000284601F097FA040010D0607A217A0002DA
:100BD0000843C0070AD02720000128180168491ED1
:100BE0000160491C02D10179491E0171204670BD86
:100BF000152252018218D07D127E904200D81046F4
:100C00004A7EC0000B7E1202FF301A4357308242E8
:100C100002D20876000A4876C87E8B7E02021A430A
:100C2000487E0B7E00021843824202D28876000A78
:100C3000C8767047F8B50D468979C41D8907890FB4
:100C4000F934012918D0022916D01522064652017E
:100C5000E4368718032904D1294600F019F9002841
:100C600009D0E08D2946C00702D1304601F0FFF9D6
:100C7000787E401E7876F8BDE17D042909D00529EB
:100C800007D0092189014018008F294602F000FD94
:100C9000F8BD3D21FFF77EFDF8BD0000F8B5044624
:100CA000FF30C130079F069E104D4186694325469F
:100CB000FF358135A966828647870687C3860C483B
:100CC0002946434360312046EB66FFF791FF002140
:100CD0002046FFF7ABFC29463439204600F01CFCC7
:100CE0001521012049016118C874F8BDE204000013
:100CF00010270000C21D0021F932202311749375C2
:100D0000D175FF30D185813041708161C1617047FB
:100D1000FEB50446152040012518E87D884205D11E
:100D200001214902204600F0DBFCFEBDE61DF9363C
:100D3000F08D4307F9D401239B029843F085F929EC
:100D400001D2F82900D3F821C8007030904200D0B9
:100D500082B21D4889C80090029701936846C180FD
:100D600002812975F08D6F4600070FD52046FF30B0
:100D700008227630B91CFAF793FB297DA87D8142C1
:100D800000D30146204600F029FFFEBD1B2120466E
:100D900000F024FF204602F09FFF2046FF3009228A
:100DA000791C7530FAF77CFB2146FF31012269314D
:100DB000204600F05FFBF08D0C210843F0852046B3
:100DC00006F028FCFEBD0000907E010070B50D46C7
:100DD0000446402100F04AF8002816D12146FF3190
:100DE000C13108461D222030FAF75AFB2946204619
:100DF000FFF71CFC2146FF313131204600F08CFB0F
:100E00001521002049016118C87470BD70B5C51D59
:100E10000646F935E88D000602D5A87DC00622D524
:100E20004021304600F022F800281CD1E88DC00691
:100E300019D43046FF30313004460A21FAF757FB07
:100E40003046FF30032208493B30FAF729FBE88D92
:100E500010210843E885304606F0DCFB01222146DC
:100E6000304600F007FB70BD287E0100FF222F32C4
:100E7000125A0A420AD1D42109580122120491427D
:100E800004D1FF3081304078002800D00120704725
:100E9000F3B58DB004460E9EE51D30460830F93599
:100EA0000790E97D0491307AB61D042904D0052904
:100EB0000BD006290CD014E0052812D0022810D03F
:100EC0000D280ED0112807D10BE00628F6D108E036
