:020000040000FA
:1010000000480047091000000348854600F042F8F8
:1010100000480047B91000008007002003460B433A
:101020009B0703D009E008C9121F08C0042AFAD29E
:1010300003E00B78491C0370401C521EF9D2704724
:10104000D2B201E00270401C491EFBD27047002260
:10105000F6E710B513460A4604461946FFF7F0FFB7
:10106000204610BD30B504460020034600E05B1C5E
:10107000934203D2E05CCD5C401BF8D030BD001D34
:101080000321401E037812021A43491EF9D5104667
:1010900070470000064C0125064E05E02046E36837
:1010A00007C82B4398471034B442F7D3FFF7B0FF7B
:1010B000DC120000EC12000072B6104840680121FA
:1010C000890708430D49486000BF0D484068012169
:1010D00089070842F9D0C81300F0C8F8002807D0E3
:1010E0008120000200F0C2F8002801D000F00AF8C8
:1010F0001F20800200F00CF800F010F800050040FE
:101100000004004003B40148019001BDCD08002057
:1011100003B40148019001BD1D08002003B401483B
:10112000019001BD01080020F0B58DB007460D46C5
:10113000144600F087F8FF2210212046FFF780FFB9
:101140002807000F0C902D092D0100261AE0B9196F
:1011500010226846FFF762FF20460FC8079304ABD2
:1011600007C3684600F046F8002008E08100615897
:10117000830008AAD25851408200A150401C042884
:10118000F4DB1036AE42E2D30C9800281ED00020CB
:101190000090019002900390B91968460C9AFFF7ED
:1011A0003DFF20460FC8079304AB07C3684600F015
:1011B00021F8002008E081006158830008AAD25875
:1011C00051408200A150401C0428F4DB00F026F8B6
:1011D0000DB0F0BD02E008C8121F08C1002AFAD104
:1011E00070477047002001E001C1121F002AFBD1A7
:1011F00070470000064948600121064A116000BF9F
:10120000054909680029FBD00021034A1160704795
:1012100000E5004000E0004000E100400748406871
:101220000121890388430549486000BF044840689C
:10123000012189030842F9D17047000000050040F0
:10124000000400400748406801218903084305491C
:10125000486000BF04484068012189030842F9D072
:10126000704700000005004000040040F0B585B064
:1012700005462C4620469430FFF701FF01218904E2
:1012800088420DD220469430FFF7F9FE06462046EC
:101290009830FFF7F4FE301801218904884202D902
:1012A000002005B0F0BD20469830FFF7E8FE064666
:1012B00020469430FFF7E3FE07466A463146FFF7C3
:1012C00033FF10222146A0316846FFF7CBFE0028ED
:1012D00001D10120E5E70020E3E70000EC12000067
:1012E0000008002000010000D4110000BFF34F8F60
:1012F00003480449C860BFF34F8F00BFFEE70000FA
:101300000400FA0500ED00E00221124A516000BF1E
:10131000114909680029FBD010490968491C06D009
:101320000E490968814202D90A49086101E0094968
:10133000886000BF084909680029FBD00549496851
:1013400002229143034A516000BF03490968002902
:10135000FBD0704700E5014000E4014000100010A0
:1013600070B503461446002000220125104E75601A
:1013700000BF104D2D68002DFBD00EE0C51C4D5D4B
:101380002A06851C4D5D2D042A43451C4D5D2D020A
:101390002A430D5C2A4304C3001DA042EED300255E
:1013A000034E756000BF034D2D68002DFBD070BD4E
:1013B00000E5014000E40140002305E01846FFF786
:1013C000A3FF012080021B18074800699842F5D846
:1013D00005480269C1680020FFF7C2FF0B20000327
:0C13E000FFF792FFFFF782FF88810000FA
:107FF000000000000000000000000000AAAAAAAAD9
:1080000034000210FFFFFFFFFFFFFFFFFFFFFFFF36
:10801000FFFFFFFFFFFFFFFFFFFFFFFFFFFFFFFF70
:10802000FFFFFFFFFFFFFFFFFFFFFFFFFFFFFFFF60
:10803000FFFFFFFFFFFFFFFFFFFFFFFFFFFFFFFF50
:10804000FFFFFFFFFFFFFFFFFFFFFFFFFFFFFFFF40
:10805000FFFFFFFFFFFFFFFFFFFFFFFFFFFFFFFF30
:10806000FFFFFFFFFFFFFFFFFFFFFFFFFFFFFFFF20
:10807000FFFFFFFFFFFFFFFFFFFFFFFFFFFFFFFF10
:10808000FFFFFFFFFFFFFFFF0100FFFF00010100F7
:108090000000000000100000EC03000000000000E1
:1080A000FA9B80A96EE8373E2520C0276B5E92AD13
:1080B000791AED849B4C9A4EB4F3F516B8BC9BD854
:1080C000673DC3EA36CEC0E4D7C04DE9C80BE23005
:1080D000791AED849B4C9A4EB4F3F516B8BC9BD834
:1080E000673DC3EA36CEC0E4D7C04DE9C80BE230E5
:1081000034000210FFFFFFFFFFFFFFFFFFFFFFFF35
:10811000FFFFFFFFFFFFFFFFFFFFFFFFFFFFFFFF6F
:10812000FFFFFFFFFFFFFFFFFFFFFFFFFFFFFFFF5F
:10813000FFFFFFFFFFFFFFFFFFFFFFFFFFFFFFFF4F
:10814000FFFFFFFFFFFFFFFFFFFFFFFFFFFFFFFF3F
:10815000FFFFFFFFFFFFFFFFFFFFFFFFFFFFFFFF2F
:10816000FFFFFFFFFFFFFFFFFFFFFFFFFFFFFFFF1F
:10817000FFFFFFFFFFFFFFFFFFFFFFFFFFFFFFFF0F
:10818000FFFFFFFFFFFFFFFF0100FFFF00010100F6
:1081900000000000008200004420000000000000F9
:1081A00012D51662E38F629189D1474F4BEFB486A7
:1081B00022B945E6A109B2E0871DAFAF6F95A1E9ED
:1081C000E993B1D4E45F856E1EAD87C0C1F655C991
:1081D0005AD7F6EC03A9085AD112FA82656244B163
:1081E000E93DA1F9F94ED7E67949FDC413AACC9F20
:1082000014020020510100005D0100005F01000028
:10821000000000000000000000000000000000005E
:10822000000000000000000000000000017C0000D1
:108230000000000000000000630100006501000074
:1082400015010000290100001501000015010000C2
:1082500015010000000000001501000015010000DC
:10826000330100003D01000047010000150100003E
:1082700015010000150100001501000015010000A6
:1082800015010000150100001501000000000000AC
:108290001501000015010000150100001501000086
:1082A00015010000150100000000000000000000A2
:1082B00000000000000000000000000000000000BE
:1082C0000348854600F08AF800480047710A00001C
:1082D00014020020401E00BF00BF00BF00BF00BF4F
:1082E00000BF00BF00BF00BF00BF00BF00BFF1D193
:1082F00070470000401E00BF00BF00BF00BF00BFAE
:1083000000BF00BF00BF00BF00BF00BF00BFF1D172
:1083100070470000EFF303803F21084010388000D1
:1083200001214907405800470120400704300068F8
:108330000047012040072030006800470120400727
:1083400024300068004701204007283000680047BB
:10835000064880470648804706480047FEE7FEE794
:10836000FEE7FEE7FEE7FEE701DF00008907000009
:1083700021090000C100000003460B439B0703D006
:1083800009E008C9121F08C0042AFAD203E00B78DA
:10839000491C0370401C521EF9D27047D2B201E052
:1083A0000270401C491EFBD270470022F6E710B550
:1083B00013460A4604461946FFF7F0FF204610BD53
:1083C00030B504460020034600E05B1C934203D214
:1083D000E05CCD5C401BF8D030BD0000064C0125B0
:1083E000064E05E02046E36807C82B439847103443
:1083F000B442F7D3FFF768FFCC1F00001C20000039
:10840000F0B58DB014460D46074600F0D1FBFF22B3
:1084100010212046FFF7C2FF28072E09000F360162
:1084200000250C90002E20D9791910226846FFF7FC
:10843000A3FF20460FC80490079306920591684653
:1084400000F096FB2068089910354840206060686D
:10845000099948406060A0680A994840A060E068B7
:108460000B994840E060B542DED30C98002820D03C
:1084700000200290009001900390791968460C9AB0
:10848000FFF77AFF20460FC804AD0FC5684600F01D
:108490006FFB20680899484020606068099948404F
:1084A0006060A0680A994840A060E0680B99484065
:1084B000E06000F06FFB0DB0F0BD0000FA4888B03E
:1084C0004168820511434160F84841684900FCD584
:1084D00001F0E8F800F0ACFF01F06AF8694601A885
:1084E00000F0D0FF012811D0694601A801F0C2F8C0
:1084F0000128EFD10125019801F0D2F80028E9D038
:108500008105019907D5091D072405E00225019879
:1085100000F0CEFFF2E70024012D0ED1C2B2022AF4
:108520000BD0019840214030FFF73FFF0199002018
:108530000B4640330A46194623E0C0B2801E0B2882
:108540007ED203007B441B79DB189F4405791DB55F
:1085500079FDFC4CFBFAF900019840214030FFF70F
:1085600024FF019918220819403082700C4601201E
:108570004034012D03D00A4603232146F3E00A4686
:10858000214601F0D1F8A5E70F25ED020126FD21D6
:10859000B602C74C002788020346A8421FD3421BDD
:1085A000B2421CD30B221203981AB04217D30220F6
:1085B0006060C0480268002AFCD02D2292029342DB
:1085C00005D2BD4A1268521C01D0236100E0A360AD
:1085D0000268002AFCD067600268002AFCD0491EAD
:1085E0002D29D8DA63E00B78CA7818464B78120642
:1085F0001B0218438B780C791B0418431043224646
:108600004C79CB79240222438C791B062404224323
:108610001A438518A84213D20F27FF020124A44E43
:10862000A4020A7810464A78120210438A7812048B
:108630001043CA78120610430346B84222D300E022
:10864000C8E0C21BA2421DD30B221203981AA042FB
:1086500018D302207060974A10680028FCD02D20A3
:108660008002834205D294480068401C01D03361E7
:1086700000E0B36010680028FCD000207060106833
:108680000028FCD00A7810464A78120210438A78F3
:1086900012041043CA781206104300190870020A27
:1086A0004A70020C8A70020ECA70A842B9D3019AAD
:1086B00000231146012056E00A7810464A7812023B
:1086C00010438A78C97812041043090608436946A2
:1086D000098804297ED382077CD1091F8BB26946A1
:1086E0000B8001990C460834002B3FD00F26F60270
:1086F000B0423BD30125821BAD02AA4236D30B27E1
:108700003F03C21BAA4231D3C218B2422ED3961BDA
:10871000AE422BD3D21BAA4228D30021644A0125A2
:108720005560644A1568002DFCD0994214D2651832
:10873000EE783706AE786D7836043E432D0204E0BD
:1087400009E1EAE06DE05EE016E03543665C091D94
:108750002E4340C09942EAD3554900204860106832
:108760000028FCD0A3E700F0D9FEB3E600230A46B8
:10877000184600F0D3FEADE60B78CA7818464B7861
:1087800012061B0218438B7809791B041843104307
:108790006A4611808A0771D1FB296FD803231B0316
:1087A0000925C21AED02AA4268D31F26B6020D2778
:1087B000821BBF02BA4261D34218D31AAB425DD3C7
:1087C000921BBA425AD3019A00231219002913D9D5
:1087D00010C800E052E0D4545B1CDBB2250AD5542B
:1087E0005B1C250CDBB2D5545B1CDBB2240ED454CD
:1087F0005B1CDBB28B42EBD368460088019AC3B2A4
:1088000011460120AFE7019A00231146012000F034
:1088100085FEBFF34F8F2A492848C860BFF34F8FAA
:10882000FEE7284E1F273546FF3511356868BF0221
:10883000B84203D02D21890288421FD1304600F072
:10884000C5F9002803D100F011FB002816D00B2435
:1088500068682403B84201D10F24E402204600F0E6
:10886000B5F900280FD0E01DF930FF36427B013604
:10887000037BB18910021843814204D2019A00237C
:10888000114618466FE70A4A0220506009490868F5
:108890000028FCD02D239B029C4215D2064800687C
:1088A000401C11D0146110E000050040000400409D
:1088B00000E5014000E40140001000100400FA054A
:1088C00000ED00E0000A0020946008680028FCD059
:1088D0000020506008680028FCD0FF25713500207A
:1088E000274A264B012656600A68002AFCD01A182F
:1088F000D67837069678527836043E4312023243D1
:108900001E5C001D164340C4A842F0D31C4A002040
:10891000506008680028FCD0C9E61A4A106A01991C
:108920000304091908701B0E4B7003021B0E8B7099
:10893000000EC870516A01980A0400190171120EE4
:1089400042710A02120E8271090EC171019A082346
:108950001146012007E748780A78000210436A466A
:108960001288022A8AD9921E92B26B461A80034B51
:10897000891C1818FFF700FD99E60000000A002086
:1089800000E50140400000100248416A0322114303
:10899000416270470005004030B40C4B5C6808250C
:1089A0002C435C600A4B5C682407FCD5094B9A6039
:1089B000D8601961980558620120186006490020A6
:1089C00048610649886030BC7047000000050040DF
:1089D00000040040003500404035004000310040B8
:1089E000F8B50546481EC4B200290FD0084F00262E
:1089F000FE610420FFF76EFCB869287005486D1C05
:108A000086602046641EE4B20028F1D1F8BD000063
:108A10000035004000310040F8B50746501E0D4DAE
:108A20000E46C4B2002A10D00B4900208860387866
:108A30007F1CE8610420FFF74DFCA86930702046D8
:108A4000641E761CE4B20028EED103490020886041
:108A5000A869F8BD0035004000310040F8B5054672
:108A6000481EC4B200290FD0084E002728786D1C7C
:108A7000F0610420FFF72EFCB069054887602046AE
:108A8000641EE4B20028F1D1F8BD000000350040BA
:108A9000003100401E4B00229B79002B36D1F0B4F0
:108AA0001C4F02233B708B1C7970DBB200291ED057
:108AB000401E7A1CCC0706D04478521C1470401C0F
:108AC0000478E318DBB200254C080DD046785670C8
:108AD0009B19801C0678921CAD19641E2406DBB21B
:108AE0001670EDB2240EF1D15819C3B20A46B81867
:108AF00083700748C91CC17001218171064B3A7807
:108B0000DA61017105488160F0BC70477047000070
:108B1000DC090020180C0020002500400020004047
:108B200001200949486100200849086001208107A7
:108B3000086000BF00BF00BF00BF00BF034800685F
:108B40000028FBD0704700000005004000010040F5
:108B500002E008C8121F08C1002AFAD17047704706
:108B6000002001E001C1121F002AFBD17047000064
:108B70000549486005490120086005480168002949
:108B8000FCD000210160704700E5004000E000409B
:108B900000E10040044841680214914341600348E9
:108BA00041684904FCD470470005004000040040BF
:108BB0000448416802141143416003484168490474
:108BC000FCD57047000500400004004070B5054624
:108BD000002400E0641C084A2946084800F0D0FD43
:108BE000012802D0002804D001E0842CF2DB002010
:108BF00070BD012070BD0000AC1B00009804002077
:108C0000014630B5FF3111310A1D1378044618466C
:108C1000537885B01B0218439378D2781B0418430D
:108C2000120610430122920490421BD20823CD1851
:108C30002B7819466B781B021943AB781B04194338
:108C4000EB781B061943431893420BD86A46FFF78B
:108C5000D7FB2146FF31102221316846FFF7B0FBD8
:108C6000002802D0002005B030BD012005B030BD85
:108C700072B600F02FFC384D28680F27401C0024E6
:108C8000FF02002808D0364934488860354800691A
:108C90004007C00F57D133E0032109032D26324B83
:108CA000B6020220586031480268002AFCD0B14266
:108CB00004D22A68521C01D0196100E09960026850
:108CC000002AFCD05C600268002AFCD001229202DB
:108CD0008918B942E5D30121596001680029FCD007
:108CE0002E60FF21090269605C6001680029FCD0E8
:108CF000BFF34F8F1F491E48C860BFF34F8FFEE779
:108D000000F0B4F80B252D03002809D13846FFF7F1
:108D10005DFF002817D02846FFF758FF002812D023
:108D20003846FFF76DFF00280DD02846FFF768FF93
:108D3000002808D0012040070F4A0168914204D161
:108D40000460FFF7BBFBFFF7B9FBB12000024069ED
:108D5000012108438047FEE70010001004000200D4
:108D6000000700500005005000E5014000E401400C
:108D70000400FA0500ED00E0AA55AA55F3B581B04C
:108D8000029D012400270646002D12D011222946FB
:108D90003046009700F0DCFC01467943671A29460B
:108DA0004843009C351A0E46F0D1002C01DA029897
:108DB0002418A0B203B0F0BDFFB50D4683B0018802
:108DC000801C03900020109E02900F98344644436C
:108DD000002902D0132941D11EE000212B60002C74
:108DE0000CDD0598801EE20701D0801C0180621016
:108DF00004D04180001D0180521EFAD1A9800F9835
:108E000000282BDD1198002802DBA988814203D1BC
:108E100013200121029122E00027002E17DD28688F
:108E2000811C2960038805980D9A01880C98008898
:108E30000194584308180E994042484380B200906C
:108E40000C99059800F014FD7F1CB742E7DBA88859
:108E5000401C80B2A8800F998842D3DB0020039980
:108E6000891E0880029807B0F0BD000070B57F250C
:108E7000ED02002400E0641C194A2946194800F05C
:108E80007FFC012802D0002826D102E0842CF2DBEE
:108E900022E0FF350135082029180A7810464A7863
:108EA000120210438A78C978120410430906084355
:108EB0000D490A6A90420FD10C202A181378496A8A
:108EC000184653781B0218439378D2781B04184332
:108ED00012061043884201D0002070BD012070BDF1
:108EE000BC1D00009804002040000010FFB5051DC7
:108EF0008FB00646A520C0002F181898842148433B
:108F0000890069180A916321C900069369180B91B9
:108F10002C462121FF344901C018093408956918ED
:108F2000029209940C910D903068002805D16F4988
:108F30002846FFF73AFA012030601898032807D333
:108F4000FF2101311098FFF730FA002013B0F0BD77
:108F5000189E3A88BF1CFF21F601002309028001F8
:108F60000797B446002A06D0732A27D09C2A7DD0C2
:108F7000A02A7CD1A3E000280DDD029AB3189B1E25
:108F800022461E889B1E37020E40360A3E4316803C
:108F9000921C401EF5D1002061466052091948809C
:108FA000292149016C1820820698012100880904B2
:108FB000FFF7E4FE60827320012390E0069B411ED0
:108FC00008D44A009E5AA25A964203D396420BD125
:108FD000491EF6D5002807DDA41E41100020608040
:108FE000241D2080491EFAD1292040012818008A1A
:108FF000152860D2292040012C18218A06204143DF
:109000003B480027091808884A88830008A8C358E5
:1090100089889C469200835889004058618AFF43A2
:10902000059702910090189A0699324801914226BC
:1090300003922918049662460798FFF7BDFE0028A0
:1090400002D09C2001234AE0208A0621401C80B2E5
:1090500020824843264940184088032825D103230D
:109060001B020120EC182083422101E01DE035E0C5
:10907000189A4A431646521E002A16DD0021012E78
:109080001BDDB04301D06183012182420DDD00244C
:109090004E007619F6187483491C4E007619F6189E
:1090A000491C801C74838242F2DC2920400128186C
:1090B000008A15289ED3A020C4E70020E5E7109A77
:1090C00000280BDD6444A41E2588A41E2E020D403A
:1090D0002D0A35431580921C401EF5D100200799BA
:1090E000891E0880184613B0F0BD00003C05000042
:1090F000281B000034050000F1B5009C8021206E83
:10910000002542001219401C1E2711841C2820D95A
:1091100020210B1A002B16DD0022D907C90F03D01E
:1091200042001219158401228B420CDD861876004C
:1091300036193584521C861876003619521C891C43
:1091400035848B42F2DC009800F068F8002001467C
:1091500003E0391A002917DD00213B1ADA07D20F84
:1091600003D0410009190D84012193420CDD4618FA
:10917000760036193584491C461876003619491C84
:10918000921C35849342F2DC616E0A0E0B02190CBC
:10919000090A090211431B021A0A120C12040A439B
:1091A0001902090E09061143E165009800F036F82E
:1091B0000021880000190368491C1A0E1D022B0C9F
:1091C0001B0A1B0213432D022A0A120C12041A4313
:1091D0002B021B0E1B06134303600829E9DBF8BDB5
:1091E0000D4930B40A463CCA3CC08C694B690A69D7
:1091F0001038C969846143610261C1610021016263
:1092000041628162C162016341638163C1634166FE
:10921000016630BC70470000081A0000F1B5CCB000
:109220004C980CAB203000218A00D6181218146814
:10923000491C220E2402250C2D0A2D02154324025E
:10924000220A120C24021204240E2A432406144378
:1092500034601029E8DB1024A1000CA80B18184674
:109260004038426807251146E94112261546F54166
:109270006940856BD208514011262A46F2411326D7
:109280002F46F7417A40AD0A6A400568406A69187E
:1092900080180818641C1860402CDDDB4C980026F0
:1092A000026841680B9184680594C068049001903D
:1092B0004C984C9B006909905B6908939E464C9BB7
:1092C0009B6907939C464C9BDB690393009306279D
:1092D0000346FB410B270546FD416B401927054618
:1092E000FD416B4002937746034665463B4085430C
:1092F0006B400A932B4DB3005D190CAFDB1906933D
:10930000009F029B2D68FF180A9B5B19FD18069BA6
:1093100002271B68ED181346FB4102950D271546E1
:10932000FD416B4016271546FD416B400D466540DB
:109330000F46154027407D405B196546F44686463A
:10934000019800950194029D0C4611464019EA18B7
:10935000761C402EBBDB4C9B1B689B184C9A136001
:109360000B9A52184C994A6005990A194C998A60CF
:10937000019A04998A184C99CA60099909184C985D
:1093800001610898714641184C98416107986146FF
:1093900041184C9881610099039841184C98C1611B
:1093A0004DB0F0BD281A0000F7B5009C8E46616EE6
:1093B000100108186066276E20209446C51B604681
:1093C000654500D90546002D0BDD734600202E466D
:1093D0003A181988520012199B1C401C1184761EE1
:1093E000F6D169007046081801906046461B7A194C
:1093F000202A1AD10098FFF711FF202E02D2321E28
:1094000001DC0BE020220198002113464F00058863
:109410003F19801C491C3D845B1EF7D10198510007
:109420000818B61A0190202AE4D0226603B0F0BDD5
:1094300070B5114C207800281CD110480069C00775
:1094400018D00F4D608840212818FFF7C9FA6088AE
:10945000403060802878012801D000206080E878C2
:109460006188C01C884201D801202070FF20F5309F
:10947000FEF740FF70BD0000140200200005005000
:109480001802002030B4084A044613780020012B4B
:1094900007D1012000231370044D2560EC780C8067
:1094A000538030BC704700001402002018020020D6
:1094B0000178012902D18178FE2903D004490020D6
:1094C000087070474078FF30FF300230704700006E
:1094D0001402002010B5FF24413421460A48FEF74B
:1094E00064FF21460948FEF760FF09490020087023
:1094F0004880062204210520FFF74EFA0649054858
:109500000860486010BD00001802002058030020C9
:10951000140200200400020000070050F8B554783F
:109520000C7192784A7104220A700E224A701B1D37
:10953000DDB201228D70CA70012822D012208871FC
:109540000C46ED1C2DD0174F174E184800698107A7
:10955000FBD5C00717D07088402239182046FFF786
:109560005BFA7088403070803878012801D0002084
:109570007080F8787188C01C884208D8012030704B
:1095800005E00020DBE740212046FFF767FAFF20D7
:10959000F530FEF7AFFE402D03D9403D4034002D9D
:1095A000D3D1F8BD1802002014020020000500509D
:1095B000F0B42A4A906800272949012832D1294865
:1095C00080699760C0B24B79002B2BD10B780C4689
:1095D000254D6478002B02D0012B0AD001E002282F
:1095E00003D08E78B34210D30DE0287001230B70A6
:1095F00017E0C31CDBB28B706870022520180D7059
:109600004870A82B0ED90F700CE0E8545B1CDBB23D
:109610000B70B34204D1844204D10120487101E0AF
:1096200020184870D06901280DD1887901280AD105
:109630000879CB78984208D20C4B1C5C094BDC6152
:10964000401C0871D761F0BC70470028FBD08F71B7
:10965000D76107490120C860F0BC70470021004075
:10966000DC09002000250040700B0020180C0020B1
:109670000020004010B4084A044653790020012B12
:1096800008D1002353711370044B2360927801209A
:10969000D21E0A8010BC7047DC090020720B00202B
:1096A0008078704710B5A8211548FEF77EFEA821E6
:1096B0001448FEF77AFE144800220270427082704D
:1096C000C2700271427182711048416804231943CB
:1096D00041600F4841684907FCD50E480821C16028
:1096E000072141610C49416203600C48C2620C4889
:1096F0008260012101600B488260C26110BD0000E0
:10970000700B0020180C0020DC0900200005004030
:10971000000400400025004000F0FF034025004009
:10972000002000400021004010B50B461178197050
:109730005870002807D09078022803D1402118469D
:10974000FFF7A8F910BD03211846FFF7A3F910BDD4
:1097500070B4054600200346521E0ED401265C005C
:109760002B46D340DB07DB0F23438B4203D35B1A2B
:10977000344694402043521EF1D570BC704700001F
:10978000F8B5044608880E46000B012100030903C2
:10979000401A68D102201346324600900832211D3B
:1097A0002046FFF7A3FB2060002801D00120F8BD70
:1097B0002546FF3509352846FFF712FD04223146BC
:1097C0002846FFF7F1FD308831460205FF31120DC2
:1097D00009312846FFF7E8FD2846FFF78DFC234BAB
:1097E000626802CBAE46204608304A4020CB211D9D
:1097F00019264C6808316C4014430A686A402243B9
:10980000761EF6D1C83010C819684C40144302C8FF
:109810005A685140214304C89C6862400A4302C808
:10982000DC686140114310C81A69844654400C43F7
:1098300072460168136855685940214343680326FE
:10984000083008326B400468176819437C4043684D
:1098500021435568761EF3D160467246C069D269CD
:1098600050400843A3D00020C043F8BDE4090020C5
:10987000F0B5444655465E4670B4089C099D6D009F
:10988000023DA84600259A46A34600240388564672
:109890004F5B7E439B19002674415E46575B7E43B7
:1098A0009B19002674411B0C27043B43AD1C4788C1
:1098B000DB19002456464F5B7E439B1964415E468C
:1098C000575B7E439B1900267441038002301B0CBA
:1098D00027043B43AD1C4788DB19002456464F5BE9
:1098E0007E439B1964415E46575B7E439B1900266D
:1098F0007441038002301B0C27043B43AD1C478896
:10990000DB19002456464F5B7E439B1964415E463B
:10991000575B7E439B1900267441038002301B0C69
:1099200027043B43AD1C4788DB19002456464F5B98
:109930007E439B1964415E46575B7E439B1900261C
:109940007441038002301B0C27043B43AD1C478845
:10995000DB19002456464F5B7E439B1964415E46EB
:10996000575B7E439B1900267441038002301B0C19
:1099700027043B43AD1C4788DB19002456464F5B48
:109980007E439B1964415E46575B7E439B190026CC
:109990007441038002301B0C27043B43AD1C4788F5
:1099A000DB19002456464F5B7E439B1964415E469B
:1099B000575B7E439B1900267441038002301B0CC9
:1099C00027043B43AD1C4788DB19002456464F5BF8
:1099D0007E439B1964415E46575B7E439B1900267C
:1099E0007441038002301B0C27043B43AD1C4788A5
:1099F000DB19002456464F5B7E439B1964415E464B
:109A0000575B7E439B1900267441038002301B0C78
:109A100027043B43AD1C4788DB19002456464F5BA7
:109A20007E439B1964415E46575B7E439B1900262B
:109A30007441038002301B0C27043B43AD1C478854
:109A4000DB19002456464F5B7E439B1964415E46FA
:109A5000575B7E439B1900267441038002301B0C28
:109A600027043B43AD1C4788DB19002456464F5B57
:109A70007E439B1964415E46575B7E439B190026DB
:109A80007441038002301B0C27043B43AD1C478804
:109A9000DB19002456464F5B7E439B1964415E46AA
:109AA000575B7E439B1900267441038002301B0CD8
:109AB00027043B43AD1C4788DB19002456464F5B07
:109AC0007E439B1964415E46575B7E439B1900268B
:109AD0007441038002301B0C27043B43AD1C4788B4
:109AE000DB19002456464F5B7E439B1964415E465A
:109AF000575B7E439B1900267441038002301B0C88
:109B000027043B43AD1C4788DB19002456464F5BB6
:109B10007E439B1964415E46575B7E439B1900263A
:109B20007441038002301B0C27043B43AD1C478863
:109B3000DB19002456464F5B7E439B1964415E4609
:109B4000575B7E439B1900267441038002301B0C37
:109B500027043B43AD1C4788DB19002456464F5B66
:109B60007E439B1964415E46575B7E439B190026EA
:109B70007441038002301B0C27043B43AD1C478813
:109B8000DB19002456464F5B7E439B1964415E46B9
:109B9000575B7E439B1900267441038002301B0CE7
:109BA00027043B43AD1C4788DB19002456464F5B16
:109BB0007E439B1964415E46575B7E439B1900269A
:109BC0007441038002301B0C27043B43AD1C4788C3
:109BD000DB19002456464F5B7E439B1964415E4669
:109BE000575B7E439B1900267441038002301B0C97
:109BF00027043B434746AF4200D01FE7038070BCB9
:109C0000A046AA46B346F0BD67E6096A85AE67BBC3
:109C100072F36E3C3AF54FA57F520E518C68059B4E
:109C2000ABD9831F19CDE05B982F8A4291443771DD
:109C3000CFFBC0B5A5DBB5E95BC25639F111F159CF
:109C4000A4823F92D55E1CAB98AA07D8015B831211
:109C5000BE853124C37D0C55745DBE72FEB1DE80BD
:109C6000A706DC9B74F19BC1C1699BE48647BEEFEC
:109C7000C69DC10FCCA10C246F2CE92DAA84744A77
:109C8000DCA9B05CDA88F97652513E986DC631A8ED
:109C9000C82703B0C77F59BFF30BE0C64791A7D5CC
:109CA0005163CA0667292914850AB72738211B2E54
:109CB000FC6D2C4D130D385354730A65BB0A6A763C
:109CC0002EC9C281852C7292A1E8BFA24B661AA848
:109CD000708B4BC2A3516CC719E892D1240699D658
:109CE00085350EF470A06A1016C1A419086C371ED1
:109CF0004C774827B5BCB034B30C1C394AAAD84EAF
:109D00004FCA9C5BF36F2E68EE828F746F63A578E9
:109D10001478C8840802C78CFAFFBE90EB6C50A47C
:109D2000F7A3F9BEF27871C600000100050001003A
:109D3000000000000200010001000100020002001A
:109D40000200010001000100020002000200010007
:109D500001000100020002000200010001000100F8
:109D600002000200020001000100010002000200E6
:109D700002000100010001000200020002000100D7
:109D800001000100020002000200010001000400C5
:109D900003000500010004000000000001000200B3
:109DA000010003000000000000000000811884F1A1
:109DB00067DC6FA509BAC1ADA9BDB1A42963970736
:109DC0001A0920529F03B1D713332E0C6ECAD6C581
:109DD000C5738B19598D33C351F3066678D5472067
:109DE000E3685ACD53C03EB08D3217C413E774E711
:109DF000D5EF1677EAD6B680E543CC05D065C7A87F
:109E00009E9EB5602180C20C55B0A3C0998A2231B4
:109E1000125E2D11C003AD81A8E66BF878862E275F
:109E20007F3ABA2410060522EB40BBA37F6E6CEC90
:109E3000DE54C1077DCADF434852C1BAF73805A0D6
:109E400070DEF172C8AF44D732F026B4AE95F0B6EA
:109E5000509D38F64199F8C315FACCA6AA4A646118
:109E6000B6C2E9B28FAE259FA3F3C296F09F2D54E0
:109E70000C2E7F807D2CBD3A5367AADAFC4CAE9B3A
:109E80003D66B04652C4B38F28BD761CB5E42BE7BF
:109E900033FDD1F9DF5F16499AE67A96A93C87220D
:109EA0001538FEFB97EAE60BD6551BC000000000F4
:109EB00000000000D880219D158FEE9630ED766D64
:109EC000061D07CD3C5854AC134400F839E4183251
:109ED000F8C27F1A343B86E36706D2DBE4A6FD9422
:109EE0006A9E2AB0F35BB3D9F1CCE885B8200A9614
:109EF00026EF2CCA55A24D949C5B614ABEDBEB90C9
:109F0000939FB7EC7D6BF8C0A72CDDAE8DC8E35CEA
:109F10004E00DA78454F0AEE4B3F971BAE9D6336F5
:109F2000D8BECCF6AF194EA6AE3086E72A071C770E
:109F3000E71957DF39DDC9C714064E4BFFF6755DCB
:109F40004146C1B5799060544B88A7C067957C881D
:109F5000C7A5A8A95C43C15A0F718931E22EFCA99B
:109F6000E254D817EFAD56BDA62EE8C4015A54BE30
:109F700065E984223B01F5A56DBCA826B8BC2C4739
:109F80001E8B30CBCE0F69F977F890C639FA2826A8
:109F9000176CD31345069CAB63EDEF80A038574C8C
:109FA0000C86D2B9F3003C505945A8BAA5EF275BFF
:109FB00058298B7D0000000000000000B779371E93
:109FC000D11591A606E6F6C9FD7F189081B8711DDE
:109FD0004EC8AB5F4495C0C8AD4658C662F44ED873
:109FE00067358D06FB8470F4237D7265BCB0B9FEC5
:109FF000A53F6DB2FDD5D7641315D5FAB0C818A327
:10A000007443C6896C40D69808C3241AA635EFC895
:10A010008B96B01587C7CAC67556913686E0FCB5D3
:10A020004642A998D5B513B4C36F2FDFBC9DEE602F
:10A03000F15010593AE85F4ABE24E14A69680E813E
:10A04000AAA73B8696B78D96A981EE1E5778A52EB6
:10A05000CE3FD7E1990E260FED20A38E2BFFAE1039
:10A06000241B119BCC3A3395A90390B4B6635039A5
:10A07000DD4ADF1FF35CD95D06DAADB71C866050A0
:10A080009934C29D0C966A11FE5B898AD7B8037415
:10A09000E46CD7FCA60FF786AFFD751494CFE501ED
:10A0A000E36DD537810F904D15B7CFAD9B821FC89B
:10A0B000A8F63F8F899771D5BF2360E100000000AB
:10A0C0000000000080CD04A466DB741C5E2F459167
:10A0D000022C6FEB9152EBDFA3E5BBD5010B27DF21
:10A0E00058E106FE92BA42D724558A01B975478EC7
:10A0F000E469B8B21EFC5531D190751FCED2107AEA
:10A10000F61311CDE8BC561DADC17A3E68961B60B2
:10A110008DCDF8E933AD9A3A17EE57E705EBA1EF8D
:10A12000890BAF6E615E0D40BE7C40336E296E8040
:10A130007331065F8ADAA56039EDF68FE34553A0E7
:10A140008A2F0249AE26AE0041A5D21E1AE4F17F45
:10A15000C743DF8F46A1864DBB78885D0A3CB3C3F9
:10A16000B1240DDD0038C5B0B98B9B9081D2303E53
:10A17000A30D157903CCEA0AA8D73E5076F4A2784D
:10A18000DF4A5DA3A451F4E7BA21EBD2CC3C0D9C8D
:10A190009170C6A503CC64D2EF207BA29FD1F8DAE0
:10A1A00023EC4BFB5078F4CE4F76553C4184C2D221
:10A1B000716A4A6ABFA53FDD981BDC15C2C8E6F785
:10A1C00085A18E3A00000000000000001C20000065
:10A1D00014020020040000005009000020200000AC
:10A1E000DC09002024000000500900001C200000B1
:10A1F000080000200C020000600900002020000080
:10A2000018020020C407000060090000442000007C
:10A21000000A0020C00200006009000000000000E9
:10A2200000000000000000000001FFFFFFFFFFFF33
:10A23000003031300D0609608648016503040201D3
:04A2400005000420F1
:00000001FF
