:020000040000FA
:10B0000034100A1001000400134948785DF499A532
:10B0100084115C4C5205969846B768D5434FE74279
:10B02000B0435356616BD024DC284A87FE82589F78
:10B0300073240E1776FCD4688A7F4FE7E063D5A8A7
:10B040002296B496E096F9EA5E6505BD481EDDA13C
:10B050009C2EF81EC3A261D8E4C6B13FC4E916DA3B
:10B06000438BD4BE16C5181E6FE1EA40C079EE6B63
:10B07000D4EA5E2201F7FCE84B0B5C4815093E0C54
:10B0800026C39E69F90AAAD319ED5BE78B705BA111
:10B09000A0ED13EEC618D93C0E0B6648CB79EC7FB9
:10B0A0007B3B19D26C4C46CEADB1D3E3B6B8803100
:10B0B00009E3F02744EA31C679B8714842E95622DB
:10B0C000944073AE730A1B286E77F444FBDC376D33
:10B0D000107B2F0D1DDC8453211F0F2F1D6169F57F
:10B0E0005D3C378D9BCE3361F2CE2E3415E58088E2
:10B0F000897FED843FA7E0DEDCA3EB5F94BA071AFB
:10B1000033E80CF33430ABA3020003000201060065
:10B110000000000000B400002CC50000000000008A
:10B1200093CBEE4221E02FB54D8DBBF7643A4257E9
:10B13000A8BDD45918A0F6CCFEE97969F5300F46C0
:10B14000D8E214D420B5EB46A3ACB9659E4A555558
:10B1500024B7519CDF23EEA62EE372C17FBF2008E7
:10B160002078186AC19891EC6DB18609CD83384575
:020000040000FA
:10B400000248854602488047024800470040002025
:10B4100019E7000019B400000348854600F0A0FABF
:10B42000004800472D4E010000400020401E00BF94
:10B4300000BF00BF00BF00BF00BF00BF00BF00BF14
:10B4400000BF00BF00BFF1D170470000401E00BF29
:10B4500000BF00BF00BF00BF00BF00BF00BF00BFF4
:10B4600000BF00BF00BFF1D170470000401E00BF09
:10B4700000BF00BF00BF00BF00BF00BF00BF00BFD4
:10B4800000BF00BF00BFF1D1704770B50024254652
:10B49000002801DA01244042002901DA012549424D
:10B4A00000F0B4F9AC4200D04042002C00D0494238
:10B4B00070BD10B5431A934209D28318881803E06F
:10B4C000401E01785B1E1970521EF9D210BD034652
:10B4D0000B439B0703D009E008C9121F08C0042AC8
:10B4E000FAD203E00B78491C0370401C521EF9D2BB
:10B4F00010BDD2B201E00270401C491EFBD2704761
:10B500000022F6E710B513460A4604461946FFF72F
:10B51000F0FF204610BD30B504460020034600E091
:10B520005B1C934203D2E05CCD5C401BF8D030BD85
:10B53000001D0321401E037812021A43491EF9D54B
:10B5400010467047034603220870491C000A521E29
:10B55000FAD5184670470000F0B50746084658402F
:10B5600087B0C00F049048000E46590040084908B3
:10B57000BC1A884105D2384631461E4617460B464E
:10B58000024658004008104303D13846314607B000
:10B59000F0BD300D039040055900400D490D059058
:10B5A000401A029040286DDA18030121000B0905AA
:10B5B0000843019004980092002805D00199524256
:10B5C0000020884100920190029840210A1A0199B6
:10B5D000009800F031F905460C46684607C800F0AF
:10B5E0004CF9C0197141039A0E0D0023D71756402C
:10B5F0001A467A40164340D0049A002A29D0029A6B
:10B60000012A039A11DC1205C01A91410126360560
:10B61000001C7141D20F059ED20700930192029641
:10B620002A46234600F049F9B1E71605224A0F469B
:10B63000B218C01AB74101210905001C4F4100187A
:10B640007F41114618187941E20F10436D1964418A
:10B6500013E0E2076D0815436408C2071443039A18
:10B6600001261205C01A91413605001C7141CE0712
:10B67000400830434908C01851412A46234600F08B
:10B680000FF984E7049801224000C117121A002321
:10B690008B4104983146C417381AA141EFE730B402
:10B6A0000124E407634030BC56E730B40124E407CA
:10B6B000614030BC50E700000000E0FFF0B51FB46F
:10B6C00088B00B990998002448400999C00F490097
:10B6D00049080991C0070B990090490049080B914E
:10B6E00009990898A646084303D00B990A9808437D
:10B6F00003D1002001460DB0F0BD0998012440009F
:10B70000420D4800410D099824050003000B204319
:10B7100009900B980003000B20430B9050181A4916
:10B720004018002201901446104601E0032801DA77
:10B73000034600E003239C46C11A0AAE0AE05F00FC
:10B7400008ADED5B4F00F75B7D430027AA187C41F5
:10B750005B1E491C6145F2DD410004AB5A522104D5
:10B76000120C0A43240C401C0828DFDB01980290CD
:10B770000099704601910090059B049A07990698DC
:10B7800000F09BF8B7E700000DFCFFFF0EB5C217F5
:10B79000C10F5040CA0740180021054B0293019287
:10B7A00000910A460B4600F088F803B000BD000087
:10B7B000330400000EB505490291002100910A46AC
:10B7C0000B46019100F079F803B000BD330400008E
:10B7D0004A0009030123090B1B051943094B10B546
:10B7E000520D9A4201DA002010BD064B34339A42C2
:10B7F00003DC9A1A00F030F810BD03495118884054
:10B8000010BD0000FF030000CDFBFFFF30B50B466D
:10B81000014600202022012409E00D46D5409D422A
:10B8200005D31D469540491B2546954040191546B0
:10B83000521E002DF1DC30BD10B5202A04DB01467C
:10B84000203A9140002010BD914020239C1A0346CD
:10B85000E3401943904010BD10B5202A04DB084690
:10B86000203AD040002110BD0B46D340D0402024C8
:10B87000A21A91400843194610BD10B5202A06DBD4
:10B88000CB170846203A1041C1170B4306E00B4680
:10B890001341D0402024A21A91400843194610BDFC
:10B8A00010B5002B08DA0024401C614192185B415E
:10B8B0001A4301D14008400010BDF0B51FB482B05A
:10B8C00005460C0003D0084604F08CFA02E004F0B0
:10B8D00089FA20300246009021462846FFF7ACFF47
:10B8E000049B059A04460F4618431143084303D1AD
:10B8F0002046394607B0F0BD1846104317D00098CF
:10B9000040210A1A18460599FFF7A6FF05460E467C
:10B91000009A05990498FFF78FFF084301D0012092
:10B9200000E00020C11705430E432C433743009924
:10B930000E986305401A7905E40A0A3000220C4388
:10B94000FD0A002802DA00200146D3E7010510199C
:10B9500069410C9C0D9D00196941FFF7A1FFC9E7E2
:10B96000064C0125064E05E02046E36807C82B4338
:10B9700098471034B442F7D3FFF752FDCC7701005B
:10B980001C78010070B58C180578401C6B075B0FA4
:10B9900001D10378401C2A1106D10278401C03E033
:10B9A0000678401C0E70491C5B1EF9D12B0705D48C
:10B9B0000023521E0DD40B70491CFAE70378401C7B
:10B9C000CB1A921C03E01D785B1C0D70491C521EA3
:10B9D000F9D5A142D8D3002070BD0000EFF3038059
:10B9E0003F210840800001214907405800470120BD
:10B9F0004007583000680047012040076430006865
:10BA000000470120400768300068004701204007D8
:10BA10006C30006800470120400784300068004710
:10BA2000FEE76846714604207146084202D0EFF3F3
:10BA300009800847EFF308800847FEE7FEE7FEE7C6
:10BA400001DF000000201C4948607F20C0051B4921
:10BA50004861002048600220194908600521090753
:10BA60000722120289184860052109078918886091
:10BA7000052109078918C860052109078918086187
:10BA80000521090789184861052109078918886176
:10BA9000052109078918C861052109078918086265
:10BAA0000521090789180863052109078918886392
:10BAB0000120014908607047000500400005005062
:10BAC0000007005010B506220421052002F05AFBA1
:10BAD000052001F0B3FC01F0EDFD03F081FD01F064
:10BAE00095FF01F03BFD10BDFEB505460C466E0707
:10BAF000760F002700200190E8E0ED08032E01D129
:10BB0000EFB22D0A6807400F0290330004F081F96C
:10BB100008DC05732A676893D2DC6E480078032836
:10BB20000CD104F0C9FB16200AF07CFF6268009279
:10BB3000207FFF23A1680BF009F80AE06548007830
:10BB4000002806D100BF02206349086000BF0AF048
:10BB500061FF20680AF02AFF04F01AFE01205D4907
:10BB60000870B1E05B48007803280CD104F0A4FB16
:10BB700007200AF057FF207F6268A1683B460090CB
:10BB80000AF0E4FF11E000BF02205349086000BF43
:10BB90000AF040FF00BF51488069000A0002F9B274
:10BBA00008434E49886100BF00BF4D4920680860C6
:10BBB0002168881E0AF0FAFEA169206840180D303D
:10BBC0000090022100980AF0F9FE02200AF014FF0A
:10BBD00000BF04F0DDFD00203E49087074E000BFA6
:10BBE000042E01D1012100E0002108460AF040FFA7
:10BBF0000120019068E020690AF04EFF02980328B6
:10BC00000AD100BF34480068042188430821084352
:10BC10003149086000BF00BF2069C0790A30C00008
:10BC2000963021680818206006F0B2FB2D4A03C246
:10BC30000AF0F2FF48E0E068811D284A516000BF29
:10BC4000029801280AD100BF2348006808218843D0
:10BC5000042108432049086000BF00BF06F098FB9C
:10BC6000204A03C20AF0D8FF04F05AFBA0770198DB
:10BC7000002804D000BF1948403080686077022057
:10BC800019491522920189188200895808460091A5
:10BC900009F0C6FC6061A07F002802D0A07F0428C4
:10BCA00007D1E068C079401DC00061690818913073
:10BCB000206009E007480078032801D006F0E6F983
:10BCC00003200449087000BF00BF029E002D00D071
:10BCD00013E7FEBD80130020001200400015004055
:10BCE000A0130020981300200080004010B50246E9
:10BCF00000200123802108E014461C4202D00446A3
:10BD00000C4320465C06230E49100029F4D110BDD7
:10BD1000FEB50446002602200290002001902778FC
:10BD200065781C203840102842D101F007FEC6B2C9
:10BD300001F0BAFC019002202840022814D11D48CD
:10BD40000078401C1B4908700422214608311A481B
:10BD500001F09EFA012820D101F04CFB1749086040
:10BD600001201749087018E00220054215D1154836
:10BD70000078401C134908700422214608311248FB
:10BD800001F086FA012806D101F034FB0F49086062
:10BD900001200F490870002002900E48009600789C
:10BDA000421000230199029801F052FE0120FEBDCD
:10BDB0000020FCE7E1200020FC0F0020F420002000
:10BDC00044200020E220002000100020F820002065
:10BDD0004520002008100020054840681321C905AF
:10BDE00088430121C9064018014948607047000096
:10BDF00000050050034840680121C90688430149F5
:10BE0000486070470005005003484068012149061A
:10BE10008843014948607047000500500348406866
:10BE20000121890608430149486070470005005018
:10BE300003484068012189068843014948607047EA
:10BE400000050050064840681321C90588430321B6
:10BE500009060843024948600120024908707047FA
:10BE60000005005041100020064840681321C90514
:10BE700088430121C9054018024948600020024951
:10BE800008707047000500504110002030B504468E
:10BE90000D460021012B01D1C9B202E00846103045
:10BEA000C1B2022C01D1C9B202E008460830C1B2C9
:10BEB000002D01D1C9B201E0081DC1B2042A01DB85
:10BEC000282030BD8818C1B20846FAE710B50D48E1
:10BED0000078401C0B49087008460078082801DBF0
:10BEE00000200870074800788007400F054909784E
:10BEF00089100843044908700978C807C00F01F089
:10BF000053FC10BD391000200810002038B5002463
:10BF10004948007800287DD148480078012810D190
:10BF20004748006801280CD14648FFF7F1FE012878
:10BF300004D12021434800F0D3FE02E0414800F044
:10BF400039FF4148006801F069FA0A2807D83F48DC
:10BF50000078002857D03E480078002853D001F0E0
:10BF600049FA394908603B48007800280CD101F0B3
:10BF70009BFB0546002000903748007842100023C4
:10BF80002946022001F064FD3448007800280CD1D5
:10BF900001F08AFB0546002000902F4800784210EF
:10BFA00000232946184601F053FD28480078002850
:10BFB0000CD101F079FB054600200090264800785E
:10BFC000421001232946022001F042FD204800785A
:10BFD00000280CD101F068FB0546002000901E48A7
:10BFE0000078421001232946002001F031FD002095
:10BFF00018490870194908701449087014490870E4
:10C00000FFF764FF01240D480078012801D0012CBE
:10C0100010D100E007E0002008490870012108461F
:10C0200002F048FA06E001F0E5F90749086000204F
:10C030000149087038BD000010100020E0200020E9
:10C04000001400407C2000200C100020462000201E
:10C050004720002044200020081000204520002018
:10C06000002005E000230146421CD0B22B4A535465
:10C070000428F7DB002005E000230146421CD0B273
:10C08000274A53540428F7DB002005E0002301462B
:10C09000421CD0B2234A53540428F7DB002005E0A9
:10C0A00000230146421CD0B21F4A53540428F7DB38
:10C0B000002005E000230146421CD0B21B4A535425
:10C0C0000428F7DB002005E000230146421CD0B223
:10C0D000174A53540428F7DB002005E000230146EB
:10C0E000421CD0B2134A53540428F7DB002005E069
:10C0F00000230146421CD0B20F4A53540428F7DBF8
:10C10000002005E000230146421CD0B20B4A5354E4
:10C110000428F7DB00210A4A11807047241F002001
:10C12000441F0020641F0020841F0020A41F002043
:10C13000C41F0020E41F0020042000202420002031
:10C1400034100020F0B58FB004460D46A8200E90A4
:10C15000002600200D902E7868780E903046C12E73
:10C160007AD028DC122878D012DC042853D008DCDE
:10C1700000283FD0012871D002285ED003286ED15C
:10C1800055E006286CD010286BD01128F7D1F1E0CB
:10C190006B2867D008DC222874D0322830D03328AE
:10C1A00071D03428EBD126E082286DD083286CD062
:10C1B000A228E4D121E0F62868D012DCDD2873D073
:10C1C00008DCC32871D0D22818D0D32817D0D4289F
:10C1D000D5D111E0F12869D0F32868D0F528CED167
:10C1E000F8E1F738030003F014FE07F8F7F6F5F46A
:10C1F000F3F23A0067E200BF00BF00BF00BF00BF1C
:10C2000026700DAAE11C284603F064F9607008A8A6
:10C21000007DA07057E226706A78521ED1B2A878CD
:10C22000EA1C03F0D9FC60700020A0704BE226707D
:10C23000012060700020A07045E22670012060702F
:10C240000020A070A8783D2148430C9003200D9059
:10C250006878401E68704CE0CCE091E04FE01CE252
:10C2600077E081E09AE10C98C004000E694688737B
:10C2700002AA04A903A803F0C3F86878202806DA04
:10C28000687805E0AAE04EE085E092E087E12020B2
:10C2900007460C98C006C00E019020210198081A8C
:10C2A000B84205D9384606E0ECE1C7E178E134E16F
:10C2B00020210198081AC7B208A8007D291804AAED
:10C2C000019813183A461846FFF7F3F80C99C90479
:10C2D000080E04AA202103F009FC08A8007DC0195B
:10C2E000C1B20D910C98C0190C906878C01B687091
:10C2F00000BF68780028B6DC00200FB0F0BD2670C3
:10C3000001206070E878A070A878002805D128790D
:10C31000EE4908700020EE490870A9783D22E01C23
:10C3200003F03CF8CFE108F09BFE074626703B4641
:10C33000621D211DE01C02F04FFF6070207940015A
:10C34000B84201DD384601E020794001801CA07030
:10C35000B9E126700DAAE11C284603F051F860707F
:10C3600008A8007DA070AEE126700120607000205A
:10C37000A070A8E12670012060700020A070A2E1EA
:10C3800026700DAAE11C284603F0A4F8607008A8E6
:10C39000007DA07097E126700E98401EC1B20DABD3
:10C3A000E21CA81C03F092F9607008A8007DA07040
:10C3B00089E126700E98401EC1B20DABE21CA81C8C
:10C3C00003F092FA607008A8007DA0707BE18EE017
:10C3D00019E1C2E074E018E031E053E02670E9783A
:10C3E000A8780DABE21C02F07FFF607008A8007D0A
:10C3F000A07068E12670012060700E98A070A91CE2
:10C40000E01C0E9AFFF755F85DE100210D9108A898
:10C41000017D481CC2B20D926654012108A8027D1C
:10C42000501CC3B20D93A154002108A8027D501CDA
:10C43000C3B20D93A154A81C03F068FC43E1002192
:10C440000D9108A8017D481CC2B20D9266540121CD
:10C4500008A8027D501CC3B20D93A154002108A866
:10C46000027D501CC3B20D93A154EB78AA7808A8A2
:10C47000017D204600F002FE0D9008A8007DC01E40
:10C48000A07020E100210D9108A8017D481CC2B2D6
:10C490000D926654012108A8027D501CC3B20D9371
:10C4A000A154002108A8027D501CC3B20D93A154D1
:10C4B0000E99491ECAB2A878E91C01F083F902E17D
:10C4C00000210D9108A8017D481CC2B20D9266544E
:10C4D000012108A8027D501CC3B20D93A154002174
:10C4E00008A8027D501CC3B20D93A154EBE00021BB
:10C4F0000D9108A8017D481CC2B20D92665401211D
:10C5000008A8027D501CC3B20D93A1547F210D9148
:10C5100008A8007DC01EA070D5E000210D9108A8DC
:10C52000017D481CC2B20D926654012108A8027D0B
:10C53000501CC3B20D93A154002108A8027D501CC9
:10C54000C3B20D93A15408A8017D204601F00EFA54
:10C550000D9008A8007DA070B5E000210D9108A8FD
:10C56000017D481CC2B20D926654012108A8027DCB
:10C57000501CC3B20D93A154002108A8027D501C89
:10C58000C3B20D93A15408A8017D204600F052FDCE
:10C590000D9008A8007DC01EA07094E000BF00BFF1
:10C5A00000210D9108A8017D481CC2B20D9266546D
:10C5B000012108A8027D501CC3B20D93A154002193
:10C5C00008A8027D501CC3B20D93A15403200AF0A9
:10C5D000E7F978E000210D9108A8017D481CC2B25E
:10C5E0000D926654002108A8027D501CC3B20D9321
:10C5F000A15408A8027D501CC3B20D93A15402207F
:10C600000AF0CEF95FE000210D9108A8017D481CD9
:10C61000C2B20D926654012108A8027D501CC3B21B
:10C620000D93A154002108A8027D501CC3B20D93A4
:10C63000A15401200AF0B4F900205EE600210D911A
:10C6400008A8017D481CC2B20D926654012108A8B9
:10C65000027D501CC3B20D93A154022108A8027D93
:10C66000501CC3B20D93A15408A8027D501CC3B244
:10C670000D93A154042108A8027D501CC3B20D9350
:10C68000A15420E02670A8780DAAE11C00F0BEFAA3
:10C69000607008A8007DA07015E000210D9108A829
:10C6A000017D481CC2B20D926654002108A8027D8B
:10C6B000501CC3B20D93A15408A8027D501CC3B2F4
:10C6C0000D93A15400BF00BF012016E6E20F002029
:10C6D000E30F0020F0B58BB00024002500260020D9
:10C6E0000A900990DC48007801286FD10020DA49CF
:10C6F000087000F0ADFAD9480068012867D1D84821
:10C7000000F058FB0128F9D1D548407802210840B3
:10C710000446D4480078A042F0D100F06BFED24924
:10C7200008607320D1490860D1480078CD49097864
:10C730004910D04A5054002C09D1CF480088401CE1
:10C74000CD49088000F056FECC49086008E0CC488E
:10C750000088401CCA49088000F04CFEC9490860A6
:10C76000BF488578002D03D1012601200A9034E0CE
:10C77000012D03D1002600200A902EE0022D1FD1AA
:10C78000B7484078FC2108400990BF48007800284D
:10C7900012D0BE490978099888420DD1099800281D
:10C7A0000AD02022AE49BA4800F0AEF90020B649BE
:10C7B000087000260A9010E0012601200A900CE083
:10C7C000032D05D1012601200A9006E008E1E6E0EC
:10C7D000042D02D1002601200A90A148C778012E1D
:10C7E0007ED1A948007800287AD09D49002000F029
:10C7F00085FCA8490988401A80B208909849012010
:10C8000000F07CFCA4490988401A80B20790944942
:10C81000022000F073FCA1490988401A80B20690FA
:10C820008F49032000F06AFC9D490988401A80B2B4
:10C8300005909C480078401C9A490870204600F0FA
:10C8400009FB04900020984A0190039700920290FF
:10C8500022460121049B089802F082FA934800784E
:10C86000012813DD204600F0F5FA04909048914924
:10C87000914A03970092019102908C480078401EE3
:10C88000C1B22246049B079802F06AFA87480078F2
:10C89000042813DD204600F0DDFA0490874888491B
:10C8A000884A039700920191029080480078001F07
:10C8B000C1B22246049B069802F052FA7B480078E7
:10C8C000072815DD204600F0C5FA04907E487F4910
:10C8D0007F4A03970092019102907448007800E02B
:10C8E00007E0C01FC1B22246049B059802F038FA47
:10C8F00000BF0A98012846D163480078002842D03A
:10C900005749042000F0FAFB72490988401A72491D
:10C910000988401880B208903B467048027821464A
:10C92000089800F0D3FC6E4908706C480078002825
:10C9300016D108460078012812D155480078E02128
:10C940000840E0281ED15248807802281AD10020E1
:10C950004D49087063480078401C6249087011E036
:10C960005E4800785E49097888420BD15C480078BF
:10C97000002807DD0020444908705A480078401C10
:10C980005849087000BF012E02D00A98012805D12D
:10C9900000F08AFE544908705448077000BF3449BB
:10C9A0000978C807C00F00F0FFFE3748007800285C
:10C9B00004D10121084601F07DFD03E001210020A2
:10C9C00001F078FD4A480078012809D1494A4A49CE
:10C9D0004A4800F0E1F84A490968401848490860A7
:10C9E00029480078002835D01F48006800F016FD5F
:10C9F0001E49096888422DD342484068002829D141
:10CA000000F0F8FC184908601E201849086000F082
:10CA10004BFE074600200090154800784210012385
:10CA200039461048007801F013F811480078401C8E
:10CA30000F49087008460078082801D100200870C6
:10CA40000B490978C807C00F00F0AEFE0121002095
:10CA500001F030FD0BB0F0BDE020002000140040DC
:10CA60007C200020E72000205020002054200020BF
:10CA7000081000205920002000210020FC20002068
:10CA80000C2100200821002011100020E8200020A7
:10CA9000241F0020281000202A1000202C10002025
:10CAA0002E100020E9200020E41D0020E5200020B9
:10CAB000441E0020241E0020041E0020A41E00206E
:10CAC000841E0020641E0020041F0020E41E00209D
:10CAD000C41E00203010002032100020E62000206C
:10CAE000EA200020EB200020361000203710002024
:10CAF00018210020A8710100F4710100F4720100F6
:10CB0000142100200011004010B503E00B780370E1
:10CB1000491C401C1346541EE2B2002BF6DC10BD2B
:10CB200008B5292000901A480078030003F071F935
:10CB300005040C10141C1F006946012001F024FF9D
:10CB40004E2001F01FFE16E0292001F01BFE12E02E
:10CB5000042001F017FE0EE06946012001F06CF898
:10CB6000292001F0FBF806E001F0FEFF03E00020C1
:10CB70000849087000BF00BF054801780078401CD4
:10CB8000034A1070042902DD00201146087008BD18
:10CB9000DD1D0020DC1D0020F7B50B4614460025E6
:10CBA0000020002117E0009E725C0FE0EF2D00DDF9
:10CBB0000EE02E466F1CFDB29E5D8F00E759BF5CF4
:10CBC000BE4201D0461CF0B2561CF2B2202AEDDB68
:10CBD00000BF4E1CF1B20929E5DBFEBD0249087019
:10CBE0000021024A11607047182100201421002002
:10CBF00010B5034A03490448FFF7CEFF10BD0000FB
:10CC0000D0710100F4710100FE72010070B504469C
:10CC10000E46154600202870042C02D0052C13D196
:10CC20000EE0FFF7E5FF094A517812780902114337
:10CC3000401881B205480170090A4170012070BD99
:10CC40000120FFF7CBFF00BF0020F8E7D41300203E
:10CC500000B500F063F90649486200F049F904495B
:10CC6000C8610846006B40084000086300BD000032
:10CC70000015004000B500F0D5F90649886200F0C3
:10CC8000BBF9044908620846006B1021884301493A
:10CC9000086300BD0015004000B500F03FF90649EB
:10CCA000486200F025F90449C8610846006B01217B
:10CCB00008430149086300BD0015004000B500F0BD
:10CCC000B1F90649886200F097F9044908620846FC
:10CCD000006B102108430149086300BD00150040A6
:10CCE000F0B50246002400230020104D2D78042DBD
:10CCF0001ADA00BF0D4D2D786D072B0E00BF0AE02C
:10CD00002546661CF4B2565D1D465F1CFBB2084FFB
:10CD10007E55451CE8B2202801DA8842F0DB034D3D
:10CD20002D786D1C014E3570F0BD000042100020C2
:10CD300008140020002001490870704742100020AC
:10CD4000F0B502460B460020002400210F4D2D783F
:10CD5000002D1ADD0D4D2D786D1E0C4E357000BF67
:10CD600035462D786D072C0E00BF0AE02546661C5F
:10CD7000F4B2074E765D0546471CF8B256554D1C79
:10CD8000E9B2202901DA9942F0DBF0BD421000201F
:10CD9000081400200148007870470000421000206D
:10CDA00010B501E00170401C1346541EE2B2002B86
:10CDB000F8DC10BDFEB504460026022002900020DB
:10CDC0000190277865781C203840082832D100F07F
:10CDD000B5FDC6B200F068FC019002202840022890
:10CDE0000CD115480078401C1349087000F002FB74
:10CDF0001249086001201249087010E00220054223
:10CE00000DD110480078401C0E49087000F0F2FA6D
:10CE10000D4908600020029001200C4908700C4860
:10CE200000960078421001230199029800F010FE4C
:10CE30000120FEBD0020FCE7E3200020EC200020C4
:10CE400046200020E4200020F02000204720002081
:10CE5000081000200146022901D10248704702480B
:10CE6000FCE70000FC0F002000100020F7B581B0A7
:10CE700016460024002500200090002700220121F2
:10CE8000019B0298FFF702F8054600BF0EE060190B
:10CE90001649095C0098814206DB27460120307064
:10CEA00060191249085C0090601CC4B2042CEEDBCF
:10CEB00000221146019B0298FEF7E8FF0546002478
:10CEC0000EE060190949095C0098814206DB27469B
:10CED0000020307060190549085C0090601CC4B2E5
:10CEE000042CEEDB384604B0F0BD000088140020AE
:10CEF00010B509494878FEF7F9FE0402064988781A
:10CF0000FEF7F4FE204304020349C878FEF7EEFE64
:10CF100020430402204610BDF80F002000B502494E
:10CF20000878FEF7E3FE00BDF80F00200146022955
:10CF300002D103480078704702480078FBE7000000
:10CF4000DC200020DD2000200146022902D1034818
:10CF50000078704702480078FBE70000DE200020E0
:10CF6000DF20002002460F480078012812D1E0237C
:10CF70001340184603462033D8B2002802D1034696
:10CF80002033D8B2022902D1074B187001E0074BB9
:10CF900018707047022902D103480078F9E7034866
:10CFA0000078F6E712100020DC200020DD200020B1
:10CFB00070B504460D48007801280ED100F01AFA29
:10CFC0008000FC2108400546022C02D1084805706B
:10CFD00001E008480570284670BD022C02D10448C3
:10CFE0000078F9E703480078F6E700001210002007
:10CFF000DE200020DF20002010B509494878FEF728
:10D0000075FE040206498878FEF770FE204304028C
:10D010000349C878FEF76AFE20430402204610BD8B
:10D020003A10002000B502490878FEF75FFE00BD07
:10D030003A10002010B502460D48047808464B1CF3
:10D04000D9B214540B48047808464B1CD9B2145476
:10D050007F20084B18700848047808464B1CD9B24A
:10D060001454AA2408464B1CD9B21454084610BDC7
:10D07000EF0F0020ED0F0020EE0F002070B50446EA
:10D08000012A31D119480068194D2D68A84203D9E9
:10D0900016480068164D2860022B0DDB14480088E6
:10D0A0000004060E08464D1CE9B2265410480678C6
:10D0B00008464D1CE9B22654042B0DDB0D480088B0
:10D0C0000004060E08464D1CE9B2265409480678AD
:10D0D00008464D1CE9B22654052B05DB06480678A8
:10D0E00008464D1CE9B22654084670BDD41D0020E8
:10D0F000D81D0020CC1D0020C81D00207FB504468F
:10D100000D466000001D285C01026000401D285C87
:10D110000818C004060C3046FEF74CFB0191009045
:10D1200008480CC80098FEF7C9FA03910290FEF770
:10D130004FFB86B20448864200DD0646304604B006
:10D1400070BD0000201000208890000010B5094933
:10D150004878FEF7CBFD040206498878FEF7C6FD45
:10D16000204304020349C878FEF7C0FD20430402AF
:10D17000204610BD4820002000B502490878FEF77F
:10D18000B5FD00BD4820002004480068401C03494C
:10D1900008600020024908607047000078130020F2
:10D1A00000E1004010B50D484068102108420AD047
:10D1B00000200B4908610B480088401C0949088081
:10D1C00001200949086000200549486007480068B7
:10D1D000002802D005480068804710BD00130040B9
:10D1E00000110040881300208413002090130020B9
:10D1F00001200549086100BF044800690028FBD0F0
:10D2000000200249086170470010004000110040F2
:10D2100000200749486001200649486000BF0448D3
:10D2200000680028FBD0002001490860704700001A
:10D2300000110040001000400F484068012808D14C
:10D240000E480088022108430C49088000210A4842
:10D2500041600948806801280DD109480088401CB8
:10D2600007490880054800880421084303490880CD
:10D27000002101488160704740810040D0130020A8
:10D28000CE13002001490860704700009013002071
:10D2900030B5034607E01C785B1C0D78491CAC4296
:10D2A00001D0002030BD1046541E62B20028F2DCCE
:10D2B0000120F7E7014604480078884201D10120A7
:10D2C00070470020FCE700001A100020FFB583B073
:10D2D0000746164600256022FF213F48FFF760FD04
:10D2E000002E00D1012600F03DFF00203B490863DD
:10D2F000FFF7E4FC00203949C862069888600120E5
:10D30000029000242020019033480019486000F06A
:10D3100031FF0120324988604EE03248C068012860
:10D320004AD12D49019808182C49486001202C4900
:10D33000886000202B49C8602B480068C0B202906A
:10D3400025490819049901F02FFF01282BD10298D3
:10D35000012828D12048005D244908701E48005D3E
:10D3600040110090009802280EDB009804280BDC86
:10D370001948005D4011801E410040181649095DA2
:10D380008907890F4018C5B20120A84018490988AB
:10D3900008431749088010490819294601F07EF909
:10D3A000681CC5B200BF202C03D1002420200190AE
:10D3B00002E020240020019001F05AFCB84201D282
:10D3C000B542AADB00F0AEF90948008802F02EFD54
:10D3D000C0B207B0F0BD00007C2000200015004066
:10D3E00000100040001100400014004038100020E0
:10D3F0003410002010B500240A2001218140054A84
:10D40000116000BF044804680A2000F089F8204633
:10D4100010BD000080E100E0E40F002070B504467C
:10D42000FFF7E8FF0546A54201D32D1B04E00020CD
:10D43000C043001B401C4519284670BD70B504460A
:10D4400000251C48406801218902084319494860A9
:10D4500006E028466D1C0A2802DB00F093F806E07F
:10D46000154840680121890208408842F1D100BF77
:10D470000020124948600420086101201049C8605A
:10D480007D20C00060430D494031086001200D49F6
:10D490000860002009498860012000040A494860AA
:10D4A0000A2000F03DF809480460012004490860A2
:10D4B00070BD0000000500400004004000A50040D1
:10D4C00000A0004000A2004000A30040E80F0020A0
:10D4D000C206D20E01219140014A1160704700003E
:10D4E00080E200E0C206D20E01219140014A1160A3
:10D4F0007047000080E200E0C206D20E0121914098
:10D50000014A11607047000080E100E0C206D20EBF
:10D5100001219140014A11607047000080E100E064
:10D52000C206D20E01219140014A116070470000ED
:10D5300000E100E0C206D20E01219140014A1160D3
:10D540007047000000E100E0C206D20E01219140C8
:10D55000014A11607047000000E100E007484068A0
:10D560000121890708430549486000BF0448406815
:10D57000012189070842F9D07047000000050040EA
:10D58000000400400320014908707047E10F0020AB
:10D5900070B501F0B3FB00202449C86048602448FE
:10D5A0000068012805D001F0CDFB012021498860E9
:10D5B00070BD214805781C202C460440102C07D053
:10D5C000082C05D001F0BEFB01201A498860EFE766
:10D5D0001A480078002813D119480078012803D090
:10D5E00017480078022817D1134880681549096840
:10D5F000884211D001F0A6FB01200E498860D7E7D0
:10D600000F480078002807D1082C05D001F09AFBBC
:10D61000012008498860CBE70120012181400A4AA6
:10D62000116000BF0949087000BFC1E70011004048
:10D6300000140040001000407C2000201110002049
:10D64000121000204820002080E100E0E0200020AF
:10D6500000200749087000BF0648406801214907BB
:10D660008843491008430349486000BF70470000E1
:10D67000401000200005005001200749087000BF3D
:10D6800006484068012109078843490008430349C7
:10D69000486000BF704700004010002000050050A7
:10D6A00010B5FEF799FB10BD0148007870470000E7
:10D6B0004010002010B5194840680121C9070843EF
:10D6C0001649486000BF16484068C00FC0070121D6
:10D6D000C9078842F7D10D20052109070722120248
:10D6E0008918C865052109078918086605210907F1
:10D6F00089184866052109078918886605210907E0
:10D700008918C866052109078918086705210907CE
:10D710008918486700F01CF810BD000000050040A3
:10D720000004004010B5FEF76FFB10BD0148007803
:10D73000704700004110002010B5FEF76FFB10BDD0
:10D7400010B5FEF775FB10BD10B5FEF77BFB10BDE5
:10D7500010B5FEF741FBFEF757FBFEF769FB022011
:10D760000149087010BD00004110002000B50C48B0
:10D770000078022809D10B480078002802D1FFF771
:10D780007BFF0BE0FFF764FF08E005480078002806
:10D7900002D1FFF75DFF01E0FFF76EFF00BD000063
:10D7A0003F1000204010002000B50246002A02D1A0
:10D7B000FFF74EFF01E0FFF75FFF00BD10B5FEF77A
:10D7C00053FB10BD70B504460D461646012C15D10D
:10D7D0002878002804D0012806D002280CD107E0C0
:10D7E00000202049087008E001201E49087004E06C
:10D7F00002201C49087000E070BD31E0022C08D105
:10D800002878002802D1FEF71DFB29E0FEF72CFB4B
:10D8100026E0032C0FD12878002802D1FEF7F4FA75
:10D820001EE000BF104840680121490608430E4928
:10D83000486000BF14E0042C08D12878002802D1E9
:10D84000FEF7F6FA0CE0FEF7E9FA09E0052C07D13D
:10D850002878002802D1FEF7CDFA01E0FEF7BCFAE5
:10D8600000BFC9E73F10002000050050FFB5044687
:10D8700000250026002103910291002001900090D4
:10D88000002703AA0221FFF7F1FA054602AA0021A8
:10D890000846FFF7EBFA064600232A466846017B56
:10D8A0000220FEF7F3FA07460E48C05D0190002300
:10D8B00032466846017A1846FEF7E8FA07460948F4
:10D8C000C05D009000990198884205DD6846007BA4
:10D8D0002070284604B0F0BD6846007A20703046BB
:10D8E000F8E700008814002070B504460D460026B5
:10D8F0002A4621460120FFF7B9FA0646304670BD98
:10D90000F3B505460024002600272B4600221146C9
:10D910000198FEF7BBFA0646344607E00648005D6C
:10D92000B84201DD0448075D601CC4B230460830CF
:10D930008442F3DB3846FCBD881400207F2009496F
:10D94000C96901290DD1084988687F21064A91607B
:10D950000021044AD161642802D26421081A00E03F
:10D96000002070470011004040150040F8B5044603
:10D970000D46002600200090002700BF07E0224847
:10D98000825D2846691CCDB22254701CC6B2282E76
:10D99000F5DB30460830C6B269460220FFF7A4FF27
:10D9A0000746684602782846691CCDB222542846AC
:10D9B000691CCDB2275469460020FFF795FF074642
:10D9C000684602782946681CC5B262542846691C1C
:10D9D000CDB227546846FFF749FF074668460278EC
:10D9E0002946681CC5B262542846691CCDB227542A
:10D9F00000222946681CC5B262542846691CCDB273
:10DA000022543046F8BD00008814002000200D4943
:10DA100049680122D20711430A4A516000BF0A49EE
:10DA20004968C90FC9070122D2079142F7D10020E6
:10DA300004E00021054A1154411CC8B22828F8DB33
:10DA400070470000000500400004004088140020DA
:10DA5000FFB50746099D00240026384601A90EC9D6
:10DA6000FEF714FA04467F2D02D1282004B0F0BD41
:10DA7000282C01DB0020F9E7002D07D00948005DC4
:10DA80004619F005000E0749085508E00548005DF5
:10DA90000101081A46193005000E024908550120F7
:10DAA000E4E700008814002070B50024012500265A
:10DAB000FFF74AFEFFF75AFE01205349486088608D
:10DAC000FFF798FC064600BF5048C068002804D104
:10DAD0003046FFF7A3FC0A28F6D34C48C06801285B
:10DAE00063D1012406E04A48005DFF2800D00025EC
:10DAF000601CC4B2202C01D2012DF4D0012D08D11C
:10DB000043480078FF2804D041480078FE2800D020
:10DB10000025012D44D13F480078002807D13C481A
:10DB200000783D49087001203A4908703DE03948C5
:10DB30000078012815D139480068401C3749086031
:10DB4000334800783449097888422ED0012033497F
:10DB5000086002202F4908702D4800782E4908706F
:10DB600023E02C48007802281FD1294800782A4950
:10DB70000978884205D129480068401C2749086077
:10DB800013E0234800782449087024480068244999
:10DB9000086001202149086000202249086004E053
:10DBA00020480068401C1F49086000201749C860D1
:10DBB0000846C069012804D10020C861012012492B
:10DBC0008861FFF7AFFD18480078401C16490870BF
:10DBD0000846007815490978884202DB002012497E
:10DBE0000870134810490978405C12498860012088
:10DBF0000549086100BF054800690028FBD00020E6
:10DC00000249086170BD0000001000400011004092
:10DC1000781D0020C81D0020C71D0020CC1D00203D
:10DC2000D41D0020D01D0020C61D0020C01D0020D6
:10DC3000C11D00200015004070B505460E460024A9
:10DC40000120FFF759FC3648406802210843344957
:10DC5000486000BF33484068022108400228F9D1DB
:10DC600000203149C86001200861FFF757F92E49AB
:10DC70004862FFF73DF92C49C8610020C8620120C5
:10DC800008630020486129488861294805700078A8
:10DC9000052802DD052026490870002404E0305DD7
:10DCA00024490855601CC4B2214800788442F6DB40
:10DCB0000020214908701F480978405C1A49886093
:10DCC000022048630846406B8007800F022804D179
:10DCD0001A48C8631A4888630BE01348406B8007F2
:10DCE000800F012805D1FF200F49C863FF200830AD
:10DCF000886314480C4948607F200B494031886094
:10DD00000020114908701149086011490860114943
:10DD1000087011490870032000F0B4FF70BD0000C6
:10DD200000050040000400400015004000200301F1
:10DD3000C01D0020C11D0020C61D0020FFFF0000E7
:10DD400021100100781D0020C71D0020CC1D0020DF
:10DD5000D41D0020C81D0020DC1D002070B5044625
:10DD600001202149086100BF204800690028FBD03C
:10DD700000201E4908611E488460FFF7E5FCFFF79C
:10DD8000F5FC0120184948608860FFF733FB054621
:10DD900000BF2846FFF742FB0528FAD300201349AD
:10DDA000C860FFF7BFFC01200F49086100BF0F48A2
:10DDB00000690028FBD000200C4908610D4800785C
:10DDC000401C0C490870084600780B4909788842C5
:10DDD00002DB002007490870084806490978405CC2
:10DDE0000349886070BD0000001000400011004031
:10DDF00000150040C61D0020C01D0020C11D0020D0
:10DE000010B5FFF7A1FCFFF7B1FC01201C494860E9
:10DE10008860FFF7EFFA044600BF2046FFF7FEFADE
:10DE20000528FAD300201749C860FFF77BFC0120C2
:10DE30001349086100BF134800690028FBD0002087
:10DE40001049086110480078401C0F4908700846C6
:10DE500000780E490978884202DB00200A490870E0
:10DE60000B4809490978405C0A498860FFF7C2FA03
:10DE7000044600BF2046FFF7D1FA0528FAD310BDAB
:10DE80000010004000110040C61D0020C01D0020F1
:10DE9000C11D00200015004010B512480078030095
:10DEA00001F0B7FF05040506090C0F0000BF00BF15
:10DEB00000F0C0FC09E000F005FE06E0FFF7A0FF5F
:10DEC00003E000200749087000BF00BF0548007844
:10DED000401C0449087008460078042801DD002031
:10DEE000087010BDDC1D002010B50A48007800281D
:10DEF00002D100F0E7FD01E0FFF782FF054800785E
:10DF0000401C0449087008460078C007C00F08701C
:10DF100010BD0000DC1D002010B50024FFF7C0FB81
:10DF2000FFF724FC01202C4948608860FFF762FA63
:10DF3000044600BF2948C068002804D12046FFF7E6
:10DF40006DFA0A28F6D300202449C86024480068E6
:10DF5000012830D12348FDF7DBFE01282BD11F48D3
:10DF6000C069012827D120488068204908700846E8
:10DF70000078222802DC7F201B4988601B4800783B
:10DF80007F2818D01A48007818490978884203DD9C
:10DF90001648007816490870164800781349097821
:10DFA000884203DA11480078124908701248006864
:10DFB000401C1149086000200849C8610120064939
:10DFC0008861086100BF054800690028FBD0002077
:10DFD0000249086110BD000000100040001100401F
:10DFE00000140040781D002040150040ED0F002077
:10DFF000EE0F0020EF0F0020E01D002010B5FFF70E
:10E000004FFBFFF7B3FB0120174948608860FFF71B
:10E01000F1F9044600BF2046FFF700FA0528FAD3BD
:10E0200000201249C86001200F49086100BF0F4855
:10E0300000690028FBD000200C4908610C480078DA
:10E04000401C0B490870084600780A490978884244
:10E0500002DB002006490870074805490978405C42
:10E060000649886010BD000000100040001100400B
:10E07000C61D0020C01D0020C11D0020001500404D
:10E0800010B50024FFF760FBFFF770FB01202C495F
:10E0900048608860FFF7AEF9044600BF2948C068B1
:10E0A000002804D12046FFF7B9F90A28F6D300204A
:10E0B0002449C86024480068012830D12348FDF76E
:10E0C00027FE01282BD11F48C069012827D12048ED
:10E0D00080682049087008460078222802DC7F20EA
:10E0E0001B4988601B4800787F2818D01A480078A0
:10E0F00018490978884203DD1648007816490870E7
:10E100001648007813490978884203DA11480078E4
:10E110001249087012480068401C1149086000202C
:10E120000849C861012006498861086100BF0548A7
:10E1300000690028FBD000200249086110BD0000E2
:10E14000001000400011004000140040781D002025
:10E1500040150040ED0F0020EE0F0020EF0F0020D3
:10E16000E01D002010B50021022007F057F9FFF74D
:10E17000EFFA10BD10B5FFF7E7FA0021012007F014
:10E180004DF910BD70B504460D4616460D48406861
:10E19000082108430B49486000BF0B48406808212C
:10E1A0000842FAD009488660C460056180050749C5
:10E1B000486201200860002004494031486107F0AE
:10E1C00003FB70BD00050040000400400035004026
:10E1D00070B504460D460BE0002008F0CDFF04208A
:10E1E000FDF744F907F016FA2070641C07F0ECFA0A
:10E1F0002846691ECDB20028EEDC70BD70B504461D
:10E200000D4616460CE007F0DFFA2078641C08F093
:10E21000B3FF0420FDF72AF907F0FCF928706D1C04
:10E220003046711ECEB20028EDDC07F0CDFA07F0C3
:10E23000F1F970BD70B504460D460AE02078641C03
:10E2400008F09AFF0420FDF711F907F0E3F907F051
:10E25000BBFA2846691ECDB20028EFDC70BD000075
:10E26000024800698007C00F704700000005005099
:10E2700002480069C007C00F704700000005005049
:10E28000F0B50526A1B01D4614460746002805D066
:10E290000A46014610A8FDF70CF903E0402110A83A
:10E2A000FDF72EF94C48006981070ED5002F0CD0E0
:10E2B000C00705D04022694610A8FFF79FFF0AE07B
:10E2C000402110A8FFF7B6FF7FE0C00726D040210D
:10E2D0006846FFF77DFF002605F012FA4027002868
:10E2E00002D04022694615E0002C04D06088002846
:10E2F00001D0022618E028886946002801D00126AE
:10E300004BE00E780A46022E0BD0012E45D0052E8A
:10E3100004D04022A81CFDF7CCF82F80304621B055
:10E32000F0BD6088002804D080B2402825D2024683
:10E3300024E00020A073E0731379D5781A022A43F1
:10E3400022803B2A02D93B3A62803B228B784D786F
:10E350001B071B0D1D43A5818B7825460E351B0918
:10E360009B0708D00123184328702046491D103010
:10E37000FDF79FF80DE00223F5E7402221881546BE
:10E38000081A001910306946FDF793F86088401BA1
:10E3900060806088002818D1C0E70022002816D0CD
:10E3A0002B791C1AE41CBB1AA34200D21C46891804
:10E3B000AA1C80182246FDF77CF82888001980B234
:10E3C00028802979C91C8842A8D00026A6E7CC78E5
:10E3D000E41C0122E7E70000000500500149087035
:10E3E000704700001A10002070B50446002524482C
:10E3F0000078002841D1FDF733FEA078214908704C
:10E40000E078214908702079204908700846007892
:10E41000002801D00220087060791D490870012091
:10E420001749087000201B4908701B490870FEF747
:10E43000E1FF1A490860732019490860FFF776F96F
:10E44000022816D01148007840101649085C164979
:10E4500008700978C807C00FFFF7A6F913480078BD
:10E46000002802D0FEF736F903E00121002000F079
:10E4700021F801200E4908700125284670BD0000D2
:10E4800011100020E5200020E6200020E7200020D9
:10E49000E8200020E9200020EA2000205020002071
:10E4A000542000205920002008100020E0200020E7
:10E4B0001010002070B504460D4600201E49C860AB
:10E4C00048601E490870FFF74DFE1D480078401057
:10E4D0001C49085C1C49886000200863012C01D19C
:10E4E000FEF7DAFB012D0DD118480078174949785D
:10E4F00008431649897808431449C978084301D06C
:10E50000FEF7DCFB00201049C8622022FF211048E2
:10E51000FEF746FC00F016FC0D480B494860FFF77B
:10E5200029FE01200B49886000BF012181400A4A71
:10E53000116000BF70BD000000110040E02000200D
:10E540000810002004100020001500403A100020A0
:10E550007C2000200010004000E100E0F8B50546F6
:10E560000020009000242E480078002855D100BFDC
:10E5700005E0A01C285C2B490855601CC4B2042C83
:10E58000F7D36878001FC6B2002027498870084674
:10E59000C670202E16DA002406E0A01D295C224A4F
:10E5A000201D1154601CC4B2B442F6DB012000905F
:10E5B0001B49087000201D4908702022FF211C48BB
:10E5C000FEF7EEFB1B480768FEF714FF19490860C9
:10E5D000FFF7ACF802281CD017480078002802D0BA
:10E5E00000F0A6FC15E0002F07D03846FEF716FF16
:10E5F000962802D21148007800E0002010490870E7
:10E600000978C807C00FFFF7CFF800210120FFF7F6
:10E6100051FF01200B49087000BF0098F8BD0000B1
:10E6200012100020482000205C2000205B200020E9
:10E63000E81300204C200020E0200020582000207B
:10E6400008100020101000203EB5104A07CA6B4683
:10E6500007C30F48007840100E49085C0090FEF791
:10E660005DFC0446FEF744FC044301940A48FEF7AF
:10E6700009FE07490978C807C00FFFF795F86946F2
:10E68000002006F0CBFEFFF75FF83EBD08730100E7
:10E69000081000200410002091D50000F0B50546B8
:10E6A0000C4601260027230001F0B3FB0906080AE7
:10E6B0000C0E1012141618000E4F11E00E4F0FE042
:10E6C0000E4F0DE00E4F0BE00E4F09E00E4F07E02E
:10E6D0000E4F05E00E4F03E00E4F01E0002600BF95
:10E6E00000BF012E04D1202229463846FEF70CFA3D
:10E6F0003046F0BD241F0020441F0020641F00206E
:10E70000841F0020A41F0020C41F0020E41F00203D
:10E7100004200020242000200D48406A03210843E3
:10E720000B4948620B480C490860012008494861C0
:10E7300000200A49086001208107086000BF00BF6F
:10E7400000BF00BF00BF054800680028FBD070472D
:10E75000000500400024F400BC130020000100402C
:10E760000548006805490968401803490860002009
:10E770000349086070470000E40F0020E80F002004
:10E7800040A1004010B5044601202649086100BFA1
:10E79000254800690028FBD0002023490861234850
:10E7A0008460234821494860FFF708F8FEF7DEFF40
:10E7B00001201C49086000BF1B4800680028FBD0EE
:10E7C000002019490860FEF7B7FF0920FCF72EFE6C
:10E7D00000201549C86001201249886000BF124816
:10E7E000C0680028FBD000200F49C86001200D49F7
:10E7F00088600920FCF71AFEFEF7A2FF00BF0A4856
:10E80000C0680028FBD000200749C86001200549E6
:10E81000086100BF044800690028FBD000200249BD
:10E82000086110BD001000400011004000150040BC
:10E83000381D002010B5012448480078122801D165
:10E84000002404E046480078012800DD0024454803
:10E850000068FEF7E3FD052801D8002C7CD1FEF707
:10E86000C9FD4049086001203F49086100BF3F4899
:10E8700000690028FBD000203C4908613C483D4924
:10E880004860FEF79BFFFEF771FF012036490860E4
:10E8900000BF364800680028FBD0002033490860DC
:10E8A000FEF74AFF0920FCF7C1FD00202F49C86090
:10E8B00001202D49886000BF2C48C0680028FBD08B
:10E8C00000202A49C8600120274988600920FCF7F8
:10E8D000ADFDFEF735FF00BF2448C0680028FBD01F
:10E8E00000202249C86001201F49086100BF1F485D
:10E8F00000690028FBD000201C4908611E480078F0
:10E90000401C1D490870084600781549097888425E
:10E9100002DB002018490870184817490978405C44
:10E9200014498860012C17D115480068401C14490F
:10E93000086008460068134988420DD90020104934
:10E9400008600B480078FF2803D1FE2008490870B2
:10E9500002E0FF200649087010BD0000EC0F002007
:10E96000C01D0020BC1D0020001000400011004010
:10E97000381D002000150040C61D0020C11D0020CC
:10E98000B81D00200F27000070B505460E46002474
:10E990000120FEF7B1FD3B48406802210843394998
:10E9A000486000BF38484068022108400228F9D179
:10E9B00036480078002802D13549C86002E0FA20C4
:10E9C0003349C860012032490861FF20486231485C
:10E9D0008862FF20C043C8612F4808620020C862D7
:10E9E00001200863002048612C4888612C4805708C
:10E9F0000078052802DD052029490870002404E07C
:10EA0000305D28490855601CC4B22548007884420E
:10EA1000F6DB00202449087022480978405C1C4934
:10EA20008860022048630846406B8007800F0228F8
:10EA300004D11E48C8631E4888630BE01448406B2D
:10EA40008007800F012805D1FF201149C863FF20EE
:10EA500008308863002017490860FEF7CBFC164990
:10EA60000860002404E0FF2014490855601CC4B26B
:10EA7000202CF8D3002012490870032000F002F97E
:10EA800070BD00000005004000040040F00F0020B1
:10EA900000150040C8C7C6C5C2C2C200002003019D
:10EAA000C01D0020C11D0020C61D0020FFFF00006A
:10EAB00021100100B81D0020BC1D0020381D0020C1
:10EAC000DC1D002010B50024204821494860FEF7D5
:10EAD00075FEFEF74BFE03201D4940310860012002
:10EAE0001C490860FEF728FE00F0C0F8FEF782FC23
:10EAF000044600BF2046FEF791FC0528FAD300200B
:10EB000013494031086001201249086100BF1248D2
:10EB100000690028FBD000200F490861FEF710FEB5
:10EB20000E480078401C0D490870084600780C49D2
:10EB30000978884202DB0020084908700948074923
:10EB40000978405C0249886010BD0000381D002033
:10EB5000001500400010004000110040C61D0020BC
:10EB6000C01D0020C11D002010B5FEF727FEFEF7D6
:10EB7000FDFD012005490860086100BF04480069E7
:10EB80000028FBD000200249086110BD00100040A1
:10EB90000011004010B50024FEF782FDFEF7E6FDEF
:10EBA000032019490860012018490860FEF722FC7B
:10EBB000044600BF2046FEF731FC0528FAD30020AA
:10EBC0001149086001201149086100BF104800691F
:10EBD0000028FBD000200E4908610E480078401C38
:10EBE0000C490870084600780B490978884202DB16
:10EBF000002008490870094806490978405C024924
:10EC00004039886010BD00004015004000100040F1
:10EC100000110040C61D0020C01D0020C11D0020A5
:10EC200010B5114802781C20104010281AD10E4847
:10EC300043780220184004462046FEF73BFB01289B
:10EC40000FD12046FEF772F9E0211140884208D129
:10EC50002046FEF779F9FC211940884201D10120B4
:10EC600010BD00BF0020FBE77C20002070470000A3
:10EC70000120024908600248006870474090004047
:10EC8000409500407D22D20042431146164A526808
:10EC900001235B021A43144B5A6000BF134A5268A7
:10ECA00001235B021A409A42F8D10122104BDA602C
:10ECB0000422104B1A610F4A4032116001220C4BA2
:10ECC0001A6000BF0C4A1268002AFBD000220A4BCF
:10ECD0001A600122064B5A60034A52685B159A4338
:10ECE000014B5A60704700000005004000040040DE
:10ECF0000090004000950040409100400D48406861
:10ED00000121490208430B49486000BF0A48406896
:10ED10000121490208408842F8D101200749C86012
:10ED20000020074948600420086101200349086069
:10ED300070470000000500400004004000900040C3
:10ED40000095004001200449486004484068491586
:10ED50008843024948607047009000400005004029
:10ED6000F8B504460D461E46069F04223146364835
:10ED7000FDF7CAFE01203549086100BF344800692B
:10ED80000028FBD000203249086132490998886088
:10ED900008464760FEF7F0F92E494862FEF7D6F9BB
:10EDA0002C49C8610020C862FEF708FD00BFFFF7CC
:10EDB0005FFFE11FFC398842F9D301202349086035
:10EDC00000BF234800680028FBD0002020490860CD
:10EDD00000BFFFF74DFF214609398842F9D3FEF7FE
:10EDE000ABFC0920FCF732FB01201849886000BF0A
:10EDF0001748C0680028FBD000201549C860012DC5
:10EE00000DDD14490798486001201049886000BF53
:10EE10000F48C0680028FBD000200D49C860022DB3
:10EE20000DDD0C490898486001200849886000BF42
:10EE30000748C0680028FBD000200549C860FEF7DD
:10EE40007FFCFFF78FF9F8BD48200020001000403C
:10EE50000011004000150040F0B587B004460F4691
:10EE6000FFF780F92C482D494860FEF785F92B49BA
:10EE70004862FEF76BF92949C8610020C862FEF7B5
:10EE80009DFC27490020085EFCF780FC039102905E
:10EE90002046FCF78FFC054622480CC82846FCF7A4
:10EEA0000DFC01910090039B029AFCF7F8FB059181
:10EEB0000490FCF78DFC84B200BFFFF7D9FEE11F80
:10EEC000FC398842F9D301201749086000BF174870
:10EED00000680028FBD000201449086000BFFFF73D
:10EEE000C7FE214609398842F9D3FEF725FC0920DF
:10EEF000FCF7ACFA01200C49886000BF0B48C068E1
:10EF00000028FBD000200949C860FEF719FCFFF774
:10EF100029F907B0F0BD00005C200020001500407A
:10EF20001C100020201000200010004000110040A4
:10EF300038B54F480078012858D100204C49087056
:10EF4000FDF798FE4B48006801283ED14A48FCF77F
:10EF5000DFFE012839D149480078022822D1FFF785
:10EF60005FFE012808D1202243494548FDF7CCFD2A
:10EF700003204249087028E000F08CF8012824D1D1
:10EF800040480078401C3F49087008460078032834
:10EF90001BDAFEF72FFA3C4908603C4800783C49F0
:10EFA000087012E03548007801280ED100F072F8A0
:10EFB00001280AD1022031490870FEF71BFA3249B4
:10EFC000086032480078324908702C4800780028E0
:10EFD00003D02A480078032804D101210846FFF70E
:10EFE00069FA03E000210120FFF764FA2348007862
:10EFF00000283CD021480078032838D022480068F7
:10F00000FEF70CFA962832D3FEF7F4F91E49086091
:10F01000FEF74AFB0446002000901C48007842108E
:10F02000002321460220FEF713FDFEF73DFB0446B8
:10F030000020009015480078421000232146184611
:10F04000FEF706FD11480078401C1049087008467C
:10F050000078082801D1002008700C490978C807F9
:10F06000C00FFEF7A1FB00210120FFF723FA38BDF6
:10F07000E0200020001400407C200020121000201E
:10F08000E81300205B2000204C2000200810002006
:10F090005820002070B51C4800781C21084010281A
:10F0A00030D10422194918480830FEF7F1F8012838
:10F0B00027D1154800790002134949794018C00446
:10F0C000050C114840780221084004460E49087892
:10F0D0002146FDF747FF06462046FFF77FF93046F9
:10F0E000082108430A4908702046FDF761FF012105
:10F0F00008430749487021462846FFF7ADFE012026
:10F1000070BD00BF0020FBE77C20002048200020CD
:10F110005C20002010B500241C48407802210840E3
:10F120000446002C17D11A480088002813D018482C
:10F130000088042806DD002015490880FEF75AF9EA
:10F140001449086014480068FEF768F9C82802D915
:10F1500000200F490880022C17D110480088002891
:10F1600013D00E480088042806DD00200B490880D3
:10F17000FEF740F90A4908600A480068FEF74EF9B0
:10F18000C82802D900200549088010BD7C20002035
:10F190000021002004210020FC2000200C21002060
:10F1A0001021002008210020024610781C2318405E
:10F1B00008280ED15078C007C00F1378DB07DB0F8B
:10F1C000984206D0507802231840884201D101208D
:10F1D00070470020FCE70000FEB506460F461446C7
:10F1E0001D46002002903248007830703148007887
:10F1F00038703148007800281DD1019016E0202D8C
:10F2000001DD202000E0284601466B462246019899
:10F2100000F06AF80198401CC0B20190684600787E
:10F22000281AC5B268460078241800BF002DE6DC15
:10F230000120029039E0214800782070641C2048A9
:10F2400000782070641C1F4800782070641C1E48E1
:10F2500000782070641C1D4800782070641C1C48D5
:10F2600000782070641C1B4800782070641C1A48C9
:10F2700000782070641C194800782070641C1848BD
:10F2800000782070641C1648008800122070641CEE
:10F29000FF202070641C2070641C2070641C20708F
:10F2A000641C104800782070641C0298FEBD0000A9
:10F2B000E9200020EA20002011100020E02000209A
:10F2C000E3200020E42000200C2100200021002069
:10F2D000EB200020081000203610002037100020FE
:10F2E0003410002038100020FCB505460C461746A7
:10F2F0001E4600200190009030701E4800780028C3
:10F300002DD1002C2BDD202C29DC012001902B009D
:10F3100000F07FFD0906090C0F1215181B1E2100B5
:10F32000154800901AE01548009017E01448009026
:10F3300014E01448009011E0134800900EE01348C8
:10F3400000900BE01248009008E01248009005E0A1
:10F350001148009002E00020019000BF00BF01981A
:10F36000012805D1202238460099FDF7CDFB3470E5
:10F370000198FCBD11100020241F0020441F002014
:10F38000641F0020841F0020A41F0020C41F002031
:10F39000E41F00200420002024200020F7B58AB0BC
:10F3A0000746164605F05CFE01463D220B98504389
:10F3B0000D1821E0E904080E01AB02AA2021FFF795
:10F3C00093FF202E01D9202000E03046C4B2E80689
:10F3D000C00E2021081AA04202D2E806C00E0C1A64
:10F3E000E806C00E02AA811822463846FCF761F8EA
:10F3F0003F192D19361B00BF002EDBD10DB0F0BD1B
:10F40000F7B507461546BE78092E29DC202028705E
:10F41000330000F0FEFC0A06080A0C0E1012141647
:10F42000181A114C14E0114C12E0114C10E0114C60
:10F430000EE0114C0CE0114C0AE0114C08E0114CAC
:10F4400006E0114C04E0114C02E000202870FEBDE3
:10F4500000BF2A7821460198FDF756FB0120F6E708
:10F460000020287000BFF2E7E41D0020041E0020E9
:10F47000241E0020441E0020641E0020841E002044
:10F48000A41E0020C41E0020E41E0020041F002033
:10F4900010B500F0E1FB012800D110BD0B48007849
:10F4A000002802D0FDF716F90CE009480078002882
:10F4B00006D007480078032802D0FFF739FD01E0A5
:10F4C000FCF724FDFFF726FE00BFE6E71110002041
:10F4D00012100020F8B505460E461446002728787D
:10F4E000A22854D006DC122858D0322861D0342803
:10F4F00066D106E0D22813D0D32818D0D4285FD103
:10F5000036E0002032490870FEF710F9022803D0D7
:10F5100001210846FEF7CEFF01270020207053E0AE
:10F520002846FFF71BF80746002020704CE02948CA
:10F53000007803280ED1284800783070202227490F
:10F54000701CFDF7E1FA212020700020214908708D
:10F5500001270CE01F480078002802D10127207005
:10F5600005E00027012020701B48007830702BE058
:10F57000002018490870FEF7D9F8022803D00121AD
:10F580000846FEF797FF0127002020701CE00127A6
:10F5900020213046FDF7D4FB207015E06A78521E1A
:10F5A000D1B2A878EA1C00F0A1FA0746002020702A
:10F5B0000AE02846FEF718FF07460020207003E007
:10F5C00000270020207000BF00BF3846F8BD0000B3
:10F5D00011100020121000205B200020E8130020F2
:10F5E00010B5002021490870214908702149087090
:10F5F0002149087021490870214908702149087083
:10F600002149087021490870214908702149087072
:10F610002149087021490870214908702149087062
:10F620002149087021490870214908702149087052
:10F63000214908701F490870FDF7DCFE1F4908606A
:10F64000FDF7D8FE1E490860FDF7D4FE1D4908608D
:10F65000FDF7D0FE1B490860FDF7FAFFFDF76AFBD6
:10F66000FDF7C8FE1849086010BD00000810002012
:10F6700011100020121000205B200020DC20002050
:10F68000DD200020DE200020DF200020E020002000
:10F69000E1200020E2200020E3200020E4200020E0
:10F6A000E5200020E6200020E7200020E8200020C0
:10F6B000E9200020EA200020EB200020F420002098
:10F6C000F8200020EC2000200C100020FEB504469D
:10F6D0001D46002001902078030000F09AFB16DE02
:10F6E00011D65D18D7951D0CDED887DE6B792251B7
:10F6F000DEDED9A3C5DE0120019000202870D0E015
:10F70000FDF718FB0120019000202870C9E00120BE
:10F71000019000202870C4E0012001900020287092
:10F72000BFE060780002A178401800B25E4908800E
:10F73000E07800022179401800B25C4908806079C5
:10F740000002A179401800B259490880E07900020E
:10F75000217A401800B257490880607A0002A17AE5
:10F76000401800B254490880E07A0002217B40181A
:10F7700000B252490880012001900020287090E0DA
:10F7800060780002A178401800B24D49088001203D
:10F7900001900020287084E060784A490870A078C1
:10F7A0004870E07888702079C870012001900020AE
:10F7B000287076E0607844490870A0784870E07856
:10F7C00088702079C870012001900020287068E0BE
:10F7D00060783E490870A0784870E0788870207999
:10F7E000C87001200190002028705AE060793849E3
:10F7F0000870A0794870E0798870207AC87001207C
:10F800000190002028704CE0607832490870A078A0
:10F810004870E07888702079C8700120019000203D
:10F8200028703EE0E07800022179401803D12A498F
:10F830002A4A03C213E0E27812022379D1186278CF
:10F840001202A378D018FBF720FE0090FBF79EFF72
:10F8500006460022204BFBF731FF204A03C201205D
:10F860000190002028701CE0E07800022179401807
:10F870001B49088060790002A17940181949088065
:10F8800001200190002028700BE000BF00BF00BFE6
:10F89000012001900020287003E0002001902870D2
:10F8A00000BF00BF0198FEBD281000202A100020D4
:10F8B0002C1000202E1000203010002032100020CC
:10F8C0001C100020F80F0020FC0F0020001000206A
:10F8D000041000203A1000200000F03F201000200B
:10F8E0001610002018100020FFB581B007461446FE
:10F8F0000025002000903878092804D00C280CD06E
:10F9000011287DD115E0012000900A2020700420EC
:10F910006070022104980170CBE0012000906748DC
:10F92000007840106649085C20700121049801703D
:10F93000BFE07878A5287DDA002504E0002228467B
:10F94000691CCDB222547878A842F7DC00255D48C6
:10F95000027829466D1C62545B48027829466D1C6A
:10F960006254002229466D1C625429466D1C625463
:10F970005648027829466D1C62545548027829463B
:10F980006D1C625478780C282CDD082551480068DD
:10F99000FDF744FD0646504909888E4202D34E4881
:10F9A0000088461C3004020E2846691CCDB2225441
:10F9B0002846691CCDB2265448480068FDF72EFD44
:10F9C000064645480088864202D343480088461CC4
:10F9D0003004020E2846691CCDB222542946681C08
:10F9E000C5B266547878162830DD12253C48006888
:10F9F000FDF714FD06463B480088864204D300E02C
:10FA000051E038480088461C3004020E2846691C24
:10FA1000CDB222542846691CCDB226543248006823
:10FA2000FDF7FCFC06462F480088864204D32D488B
:10FA3000008800E031E0461C3004020E2846691CB4
:10FA4000CDB222542946681CC5B266547878222863
:10FA50001DDB1E2502210120FDF752FF2A466D1CE9
:10FA6000A05400210120FDF74BFF2A466D1CA05435
:10FA700002210020FDF744FF2A466D1CA0540021FE
:10FA80000846FDF73DFF29466A1CD5B260540120A7
:10FA9000009079780498017004E000200090002123
:10FAA0000498017005E00020009000210498017086
:10FAB00000BF00BF009805B0F0BD00000810002096
:10FAC00004100020E1200020E2200020E32000209C
:10FAD000E4200020EC20002016100020F020002060
:10FAE000F420002018100020F8200020F8B505466A
:10FAF0000C4617460026002000902C48007800286D
:10FB00004AD1002C48DD202C46DC01262B0000F0D9
:10FB100080F90A0625282B2E3134373A3D402448F7
:10FB200000900020234908704870234908704870ED
:10FB300022490870487022490870487021490870AD
:10FB40004870214908704870204908704870204961
:10FB5000087048701F49087048701CE015480090F4
:10FB600019E01548009016E01448009013E014487E
:10FB7000009010E0134800900DE0134800900AE058
:10FB80001248009007E01248009004E011480090ED
:10FB900001E0002600BF00BF012E04D122463946F5
:10FBA0000098FCF7B1FF3046F8BD000011100020AE
:10FBB000E41D0020041E0020241E0020441E0020FE
:10FBC000641E0020841E0020A41E0020C41E0020ED
:10FBD000E41E0020041F0020F0B505460E4617461F
:10FBE000202E24DC2B0000F014F90906080A0C0E64
:10FBF0001012141618000F4C11E00F4C0FE00F4CB0
:10FC00000DE00F4C0BE00F4C09E00F4C07E00F4CE0
:10FC100005E00F4C03E00F4C01E00020F0BD00BFF9
:10FC2000324639462046FCF76FFF0120F6E70020F8
:10FC3000F4E70000241F0020441F0020641F002060
:10FC4000841F0020A41F0020C41F0020E41F0020E8
:10FC5000042000202420002010B50124274800782B
:10FC600015282BD010DC04281FD006DC002837D044
:10FC7000012812D003283DD114E012280ED01328F9
:10FC800016D0142836D116E01638030000F0C1F85B
:10FC90000719321F221C2507320000BF00BFFEF7E4
:10FCA000C9FD27E0FEF7ACF824E0FDF7FDFE21E0FA
:10FCB000FEF708FF1EE0FEF717F91BE0FEF7ECF871
:10FCC00018E0FEF7DDF915E0FEF726F912E0FEF781
:10FCD00095F90FE0FEF75EFF0CE0FCF721FF09E06D
:10FCE0007F2007490870002006490870064908600F
:10FCF000002400BF00BF204610BD0000EC0F002014
:10FD0000EE0F0020EF0F0020E01D002010B504468C
:10FD100000202E490870207815281DD010DC0428FA
:10FD20002AD006DC002841D0012812D0032848D16F
:10FD300021E0122812D013280CD0142841D10AE057
:10FD40001638030000F065F8071E3D19091F2E0F35
:10FD50003D0000BF00BF00BF00BF00BF6078A11C16
:10FD6000FEF712FE2DE00120184908706078A11CF2
:10FD7000FEF70AFE25E000BF00BF6078A11CFDF77A
:10FD80005BFF1EE000BF6078A11CFDF755FF2078E7
:10FD90000F4908707F200F4908700F4908700F49FC
:10FDA00008700EE020780A4908700AE0FFF718FC96
:10FDB0007F20094908700020084908700849086038
:10FDC00000BF00BF20780249087010BDF00F00206E
:10FDD000EC0F0020ED0F0020EE0F0020EF0F0020B1
:10FDE000E01D00202021020C01D010211046020A43
:10FDF00001D008391046020901D0091F10468208B7
:10FE000001D0891E1046420801D0881E7047081A8A
:10FE1000704730B47446641E2578641CAB4200D22F
:10FE20001D46635D5B00E31830BC184701460B4A72
:10FE300048080B4B1840091A084610408B0813401D
:10FE4000C11808094018074B18400146000A41181C
:10FE5000080C41188806800E704700003333333396
:10FE6000555555550F0F0F0F02E008C8121F08C156
:10FE7000002AFAD170477047002001E001C1121F2B
:10FE8000002AFBD17047000070B50446FF34012200
:10FE900081340546082915D009DC2846204BC0309E
:10FEA000002931D0012938D0032922D113E00A29B1
:10FEB00011D012291ED014291BD1E08902218843B8
:10FEC00010431CE0E08980210843E081284606F0C9
:10FED000FCFE80210AE0FF2078304255284601F0E0
:10FEE00069FC284606F0F1FE01210903284601F0CD
:10FEF000A1FC70BDE0890107FBD508218843E081A2
:10FF0000284606F0E2FE70BD0361284606F086F939
:10FF1000E08920218843E08170BD436170BD00000D
:10FF20000000010010B504460E20FDF7D1FA0E20A6
:10FF300001218140104A116000BF00200F49086074
:10FF40000F48446000200F49086001200E490860F6
:10FF500003E000BF30BF00BF00BF084800680028B2
:10FF6000F7D00E2001218140034A8032116000BF8A
:10FF7000FDF7AEFA10BD000000E100E078130020AC
:10FF800000E5004000E1004000E0004070B50B4C8F
:10FF900015460E46002B00D0094C01460948A047E3
:10FFA000084829461038A04706481038FFF7BAFF1E
:10FFB000044930461031A04770BD0000511D0100BA
:10FFC000631D01007C15002010B504460448FFF7AE
:10FFD000A9FF03492046203101F0BAFE10BD000000
:10FFE0006C15002008484068012189030843064930
:10FFF000486000BF05484068012189030842F9D0E4
:020000040001F9
:100000000320034948607047000500400004004099
:1000100000E3004070B51E4904464879002808D026
:100020000D46903D012805D0022812D003281AD091
:10003000002070BD20700220487194221549601C78
:10004000FBF737FA1349942294312846FBF731FA2B
:1000500007E020700320487194222946601CFBF7BA
:1000600028FA952070BD207000204871012003F00F
:1000700093FA084908223439601CFBF71AFA204623
:10008000942205490930FBF714FA9D2070BD000049
:10009000C81200207C100020A411002002484079E2
:1000A000002800D001207047C8120020064A8000B6
:1000B0008018002902D0416B491C4163C03081681F
:1000C000491C8160704700004810002010B501F005
:1000D0003BFE04F0A1FF06F0E7FF0B490B48FBF7DE
:1000E0000FFA0B490B48FBF70BFAFBF7EBFC62B678
:1000F00005F0F0FBFFF776FF03F0C8FA04F0DCFA36
:1001000006F0A2FA10BD000070140000381D002097
:10011000E1030000381D002010B501460A22024804
:10012000FBF7C7F910BD0000B014002070B50D46F4
:100130002449C0B04018164600240300FFF769FEAA
:100140000705092E32363A3E26006946284600DF6A
:1001500013E01D490878491C09220B78491C1843F3
:10016000521EFAD1002100280BD00A221649A81CE1
:10017000FBF79FF96946284602DF68464478A41CCD
:1001800004E00D226846027041700224224669464E
:100190003046FBF78EF9E0B240B070BD69462846A4
:1001A00003DFEAE76946284604DFE6E769462846B2
:1001B00005DFE2E76946284606DFDEE769462846AE
:1001C00007DFDAE7DF03FFFFB0140020F0B51721E7
:1001D00049014218537FDC07E40F9B1CDDB206196E
:1001E00055777618B67E4023002E1DD0977E002FBF
:1001F00012D0D17E00290FD0791A00D549420529A5
:1002000008DB012717213F1B490138184018807E61
:10021000864201D96B085B0068084000984202D111
:100220000120001B5077F0BD0223F5E70146FF31A6
:1002300010B581310A46C9890423994317235B010C
:10024000D181C418637D5A2B00D35A23237501230F
:100250001943D181990201F0EDFA10BD10B5B62114
:1002600004460B5CFF3441341C2100226156002BF4
:1002700005D0104808562077801C0CD011E00D489E
:10028000C01C0856207702280BD12277608B0128EA
:1002900007D9400804E02277608BFF2801D840008E
:1002A000608302F0ADF8618B491E0840401C20833A
:1002B00010BD0000B07701000E48C06A0821084256
:1002C00017D10C484030C06A0B49486209486C306D
:1002D0004068886207486C308068C86205486C30A6
:1002E000C068086303486C300069C90508430249C7
:1002F0004863704780000010001700401521490135
:100300004118888B897F801D08314843C01DC00873
:1003100070471722012152018018017470470000B4
:100320000B4909880422114201D002200FE009493B
:10033000096800290AD008490968012904D1002167
:10034000054A1160002002E0042000E0052070470B
:10035000D01300208413002000140040F3B591B0A6
:100360000446002604F02EF92546FF35413510904D
:10037000A86A00286FD0FD200890002712980597E2
:10038000001D0A9028462030FF34049769340994F0
:10039000039053E000200790A0790007000F012888
:1003A00006D0E0798006800E062801D3801F0790D2
:1003B0000B201099C00108180190808C400704D5CB
:1003C000079808990A3081423DD3099801F053FEFD
:1003D000A0790007000F072828D2012805D103992A
:1003E000497C022926D0032924D00199898C490708
:1003F0001CD56179227909021143079B49422246A3
:10040000C9B20E32DBB2009301920291E179234628
:100410008A0921490833095C0A9803F039FA0A90DD
:1004200007990898401A0A38761C08907F1C2146C4
:10043000039801E0214604A801F083FEAC6A002C79
:1004400001D0192EA6DBF8B203F0A6F8A86A00289E
:1004500002D0049C0EE01DE003A807C8C2608160C2
:100460000AE02046FBF764F805462146099801F0AA
:1004700068FE2C46002CF4D1002E0BD00898FD21EC
:10048000081AC2B2F3B20221129802F0B1F90420A4
:1004900013B0F0BD0020FBE7A4740100F3B58BB0EE
:1004A000044604F08FF8059000202646C0360490DC
:1004B000F06800287ED04120C00020180990204616
:1004C000A0300890172040012018079030461521D1
:1004D000A0304901039060180290012500273046A2
:1004E000C0300690F068014629422BD0FF2201322D
:1004F000A91A049595426BD00CDC202D23D004DC86
:10050000022D64D0102D1BD1CAE0402D1BD0802DB0
:1005100016D1A7E00F2000020A1A81425FD007DC43
:10052000FF39013973D0FF39FF39023908D189E029
:1005300003200003101A73D003218903401A75D0D9
:1005400000200490CBE0089A0599127E1031022A0F
:1005500002D0C00607D419E006980122C0895202D1
:100560001043069AD081FF310998B931019000916A
:1005700002980B21038B0598C9014018808C00223A
:100580004006C10F0C9802F043FF1CE0FF31B93167
:100590000998009101900B200599C0010818808CE2
:1005A00000234006C10F02220C9802F031FF0F20F9
:1005B000C00100E090E0059909180878401E087015
:1005C000089900200876F06860218843F06078E0A0
:1005D0000298099A018B0C9802F08CFF71E0039845
:1005E000C07D01280298837902D0022B03D007E056
:1005F000028B1A2107E0FF20FC30005D302809D073
:1006000002980021028B0C9802F0E3FF59E038E0D9
:1006100006E00BE00298018B0C9802F0F1FF50E02D
:100620000298018B0C9802F0EBF84AE00398808A5C
:1006300000900398438A427C0298018B0C9803F047
:10064000E9F83EE00798007D0090C10070310798FE
:100650000191C27C0298D300018B70330C9802F098
:1006600067FF2EE00398837D0698807B000601D506
:10067000112200E000220298018B0C9803F098F8F8
:100680001FE02046FF30C130C2898189019200916C
:10069000438902890298018B0C9803F09FF810E0BF
:1006A0000798827C0298018B0C9802F081FF0F2042
:1006B0000599C00109180878401E087008990020A3
:1006C0000876049800280AD0022805D0F068A843CC
:1006D000F060012002F060FF04980DB0F0BD7F1CB7
:1006E0006D00122F00DAFDE6F6E7F8B50446152096
:1006F000400125462018C035408B2969884201D029
:100700000020F8BD012000042861172040012618B0
:10071000F07B0027002817D04520C0002118412079
:10072000C00020220F462018FAF7C3FEFF34FF3422
:100730000234207F3077A068E16803C52021384665
:10074000FAF7DEFE012716E0204605F067FD254694
:10075000FF358135E88920218843E8814021204602
:1007600000F046FB002806D0707C002803D0E88902
:1007700010210843E8813846F8BD10B584789442CA
:1007800004D0112206F0ECF8012010BD002010BDAD
:100790000020024908600249088070478413002045
:1007A000D0130020FF308130C18904229143C181E0
:1007B0007047F8B50446FF308130C089C105172065
:1007C00040012618002901DAB17C0EE0E71D25461C
:1007D000FF37C035FA37A8697969884209D9B07BF3
:1007E000002801D0082100E03E21204600F03BF91E
:1007F000F8BD2046FF30C130C169002904D03A69F4
:10080000914207D9891AC161016A002906D03A6963
:10081000914201D82221E8E7891A0162152040019E
:1008200020180090807902280CD10920800120181E
:1008300083682968C0686A68591A904102D22046C4
:1008400000F030FCA86939694018A8610098408B15
:10085000401C82B2009842830B2080012118087846
:10086000F37AC018C0B20870252801D32538087063
:10087000686982420DD1012000046861307C002843
:1008800003D0204603F0FCFD03E08021204600F069
:10089000AFFA00203076F8BDFEB5044611204001C5
:1008A0000D462018002102900183092080012218A2
:1008B0000221009211712046FFF720FD024615200B
:1008C00040012018418B20468918C030016106681C
:1008D0004168FF3041300190036900205343F21812
:1008E00041410298CD27038B2348FF434343D81748
:1008F0003E12DB197041D618009A019F538841417E
:100900003F6B1288BC460027FF3327677933FF32DD
:10091000A36679322046E26660300122427767465C
:1009200000238762838520308373002D12D000223C
:100930000092002D02DA0198006945190023AA19D6
:100940004B41204605F006FE821B2823D2180B4D92
:10095000094C07E00092F1E7029B029E1B8B5B1C97
:1009600033835219A242F7D8CE228218019800236D
:1009700059418262C162FEBDE20400001EFBFFFF1E
:10098000F8B505460E460446C035012168690904DC
:1009900088420CD12021204600F0CAFB002807D055
:1009A000FF348134E089012189020843E081F8BDE8
:1009B0002046FFF7A3FC152149016118498B0D2240
:1009C0000818172168614901002061180874204641
:1009D000FF3091300A490746FAF76BFD2046FF3099
:1009E000052231469E30FAF764FDFF21A88AA33123
:1009F000085301223946204600F014FEF8BD0000DD
:100A00007274010070B50446172040012618F07C6E
:100A1000317D4018C500112040012018FF35408865
:100A20007735A8421ED22021204600F081FB002805
:100A300018D14120C00021184520C00020222018D4
:100A4000FAF737FD09208001201845800021204653
:100A5000FFF722FF2146FF319131204600F01AFEB8
:100A60000020707470BD10B5044617204001201896
:100A700081741021204600F0DDFE204605F0DCFBED
:100A80000421B8200155204602F0CAFD2146FF315D
:100A90006131204601F05EFC2146FF31693120467C
:100AA00001F058FCFF2100205D310851152149015A
:100AB0006118888310BD0000FFB50F46044685B05D
:100AC0000321A030017620461C30E061206296218F
:100AD0002420015520465030206560650C38606444
:100AE000A0644C2001552046803000607C2340608B
:100AF000774A195502610025057576486060764889
:100B000020607648152252010188A21800921183B4
:100B1000491C0904090C018001D1012101804920EF
:100B2000C00070212018FAF7EBFC00986C49857121
:100B3000009885740098018209218901694861182B
:100B4000086103F07FFC01462046C03001908160BF
:100B5000204603F095FC01F053FC1721490166186B
:100B6000C0B20C214843000A0B21401D8901F072DC
:100B70006118087000984583B5730120019900043D
:100B80000861F573019948612046FF30357455308E
:100B9000056045601298B0741B20F07430752046D3
:100BA00001F096F820463573FF30757361300560AB
:100BB0004560083005604560FF205D3005510098B4
:100BC0004A4985834848098801530098C5772046DB
:100BD00000F0D2F92046FF30E1300799C182089930
:100BE00001832A213846FAF78BFCBF1D3878394635
:100BF00000090001401D387078780E3180098001AD
:100C00002230787001988068FAF79CFC01F0F8FBBC
:100C100003903846032203A91230FAF74AFC112048
:100C20004001201802210290017179750022089973
:100C3000079802F083FF0146E01DFF30FA30418340
:100C400039760A0A7A762A4A514301610F998183DB
:100C5000B976090AF9760E99C1833977090A797745
:100C60000F9931770E99D200514341611E480522F8
:100C7000BB30211838461E30FAF71BFC2037F878B5
:100C8000F17A4009C9064001C90E0843E021084332
:100C9000F8700298119941800298109901804120C2
:100CA000C0002118204600F0D9F80198C5603576BB
:100CB0007F2070767577F576B57600988577032076
:100CC000B5770002F5772018057009B0F0BD000077
:100CD00061100100995901004356010020130020C2
:100CE000B80B000080C3C90106020000C4730100F4
:100CF000E2040000F3B5044611204001271878886B
:100D000089B0FF30793004903888CD22FF307930B7
:100D100003902046C030009022C8D24310128E1893
:100D200045412046FFF7E1FC00280ED00099CD2276
:100D300021C9D2431112861878884D41FF3079308D
:100D400004903888FF3079300390E71DFF37009B0F
:100D5000FA370CCBF968B86859405040084316D1AF
