:020000040000FA
:06000000A4EF2AF012003B
:0600080004EF08F01200F5
:060018000CEF08F01200DD
:06100000A4EF2AF012002B
:021006001200D6
:061008000FEF1EF01200C4
:02100E000400DC
:08101000C08012000400120070
:061018005CEF1EF0120067
:02101E000500CB
:10102000B95500006804000048000000B8550000F1
:10103000E2000000010000009B550000C20000001B
:101040001D00000098550000DF00000003000000B4
:0C10500064550000600000003400000047
:04105C00D9CFE6FF03
:10106000E1CFD9FF020EE126080E0001E76E6C19F0
:10107000E8AE02D0E73402D0E7506C5D1DE26B5160
:10108000E96EEA6AD890E936EA366D0EE926000E76
:10109000EA22EECFDEFFEDCFDDFF6B2B6B510708B1
:1010A00001E26B6B6C2BDECF0BF0DDCF0CF00BC0D5
:1010B000F3FF0CC0F4FF03D0F36AF46A00D0020E11
:1010C000E15C02E2E16AE552E16EE552E7CFD9FF69
:1010D0001200D9CFE6FFE1CFD9FF020EE126000EC4
:1010E0000001E76E6C19E8AE02D06C3503D0E75012
:1010F000D8806C551DE26A51E96EEA6AD890E936EB
:10110000EA366D0EE926000EEA22EECFDEFFEDCFC5
:10111000DDFF6A2B6A51070801E26A6B6C07DECFBC
:101120000BF0DDCF0CF00BC0F3FF0CC0F4FF03D0CD
:10113000F36AF46A00D0020EE15C02E2E16AE55271
:10114000E16EE552E7CFD9FF1200000E0001E76E15
:101150006C19E8AE02D06C3503D0E750D8806C55DE
:101160000FE26A51E96EEA6AD890E936EA366D0E06
:10117000E926000EEA22EECF0BF0EFCF0CF002D002
:101180000B6A0C6A0BC0F3FF0CC0F4FF00D0120016
:1011900000016C5100D01200070E00016C5D02E0EE
:1011A000000E01D0010E00D01200D9CFE6FFE1CF32
:1011B000D9FF020EE126080E0001E76E7F19E8AEA6
:1011C00002D0E73402D0E7507F5D1DE27E51E96E28
:1011D000EA6AD890E936EA36800EE926000EEA225D
:1011E000EECFDEFFEDCFDDFF7E2B7E51070801E263
:1011F0007E6B7F2BDECF0BF0DDCF0CF00BC0F3FF4F
:101200000CC0F4FF03D0F36AF46A00D0020EE15C74
:1012100002E2E16AE552E16EE552E7CFD9FF120042
:10122000D9CFE6FFE1CFD9FF020EE126000E000183
:10123000E76E7F19E8AE02D07F3503D0E750D88043
:101240007F551DE27D51E96EEA6AD890E936EA36AB
:10125000800EE926000EEA22EECFDEFFEDCFDDFFA5
:101260007D2B7D51070801E27D6B7F07DECF0BF000
:10127000DDCF0CF00BC0F3FF0CC0F4FF03D0F36A1A
:10128000F46A00D0020EE15C02E2E16AE552E16E2E
:10129000E552E7CFD9FF120000017E51E96EEA6AFC
:1012A000D890E936EA36800EE926000EEA22EECF23
:1012B0000BF0EFCF0CF00BC0F3FF0CC0F4FF00D02D
:1012C000120000017F5100D01200070E00017F5D67
:1012D00002E0000E01D0010E00D01200D9CFE6FFCF
:1012E000E1CFD9FFFD0EDBCFE9FFFE0EDBCFEAFF3A
:1012F000EF50020A05E0030A01E004D0010E24D0F9
:10130000010E22D0FB0EDBCFE9FFFC0EDBCFEAFFA4
:10131000DC0EEF6E010EE76EFB0EDBCFE9FFFC0E7D
:10132000DBCFEAFFE750E926000EEA22EF6A020E61
:10133000E76EFB0EDBCFE9FFFC0EDBCFEAFFE750E9
:10134000E926000EEA22EF6AE552E7CFD9FF120044
:10135000D9CFE6FFE1CFD9FF080EE126DE6ADD6ACC
:10136000020EDB6A030EDB6A040EDB6A050EDB6A23
:10137000FD0EDBCFE9FFFE0EDBCFEAFFEF50EE0AFA
:1013800001E1ACD1010A01E19ED0020A01E0AFD235
:10139000020EE76EFD0EDBCFE9FFFE0EDBCFEAFFAC
:1013A000E750E926000EEA22EF50020825E1FB0E85
:1013B000DBCFE9FFFC0EDBCFEAFFED0EEF6E010E97
:1013C000E76EFB0EDBCFE9FFFC0EDBCFEAFFE75059
:1013D000E926000EEA22010EEF6E020EE76EFB0E0A
:1013E000DBCFE9FFFC0EDBCFEAFFE750E926000E7A
:1013F000EA22EF6AFFD766D0020EE76EFD0EDBCF62
:10140000E9FFFE0EDBCFEAFFE750E926000EEA22F5
:10141000EF50030835E1FB0EDBCFE9FFFC0EDBCF1D
:10142000EAFFED0EEF6E010EE76EFB0EDBCFE9FF7C
:10143000FC0EDBCFEAFFE750E926000EEA22010EA0
:10144000EF6E020EE76EFB0EDBCFE9FFFC0EDBCF8B
:10145000EAFFE750E926000EEA22EF6A030EE76E84
:10146000FD0EDBCFE9FFFE0EDBCFEAFFE750E926FA
:10147000000EEA22EF50E66E8AEC21F0E55222D00F
:10148000FB0EDBCFE9FFFC0EDBCFEAFFED0EEF6ECC
:10149000010EE76EFB0EDBCFE9FFFC0EDBCFEAFFB0
:1014A000E750E926000EEA22EF6A020EE76EFB0E15
:1014B000DBCFE9FFFC0EDBCFEAFFE750E926000EA9
:1014C000EA22EF6A14D2FD0EDBCFE9FFFE0EDBCF7E
:1014D000EAFFEF50E66EFB0EDBCFE9FFFC0EDBCF41
:1014E000EAFFE552E750EF6E020EE76EFD0EDBCF2E
:1014F000E9FFFE0EDBCFEAFFE750E926000EEA2205
:10150000EF50E66ED950020FE96EDACFEAFFE552EE
:10151000E750EE6EED6A020EDBCF0BF0030EDBCF71
:101520000CF00BC00CF00B6A020E0BC0DBFF030EBD
:101530000CC0DBFFE76EFD0EDBCFE9FFFE0EDBCF5D
:10154000EAFFE750E926000EEA22EF500B6E0C6A24
:10155000D950020FE96EDACFEAFF0B50EE260C509D
:10156000ED22040EE76EFD0EDBCFE9FFFE0EDBCFB2
:10157000EAFFE750E926000EEA22EF50E66ED95066
:10158000040FE96EDACFEAFFE552E750EE6EED6A3E
:10159000040EDBCF0BF0050EDBCF0CF00BC00CF014
:1015A0000B6A040E0BC0DBFF050E0CC0DBFFE76E01
:1015B000FD0EDBCFE9FFFE0EDBCFEAFFE750E926A9
:1015C000000EEA22EF500B6E0C6AD950040FE96E40
:1015D000DACFEAFF0B50EE260C50ED22D950040F63
:1015E000E96EDACFEAFFEE50ED100BE0D950040FB0
:1015F000E96EDACFEAFF3A0ED880EE54000EED54D1
:101600001BE2010EE76EFB0EDBCFE9FFFC0EDBCF2A
:10161000EAFFE750E926000EEA22EF6A020EE76EC3
:10162000FB0EDBCFE9FFFC0EDBCFEAFFE750E9263C
:10163000000EEA22EF6A51D0010EE76EFB0EDBCFFF
:10164000E9FFFC0EDBCFEAFFE750E926000EEA22B5
:10165000010EEF6E020EE76EFB0EDBCFE9FFFC0E14
:10166000DBCFEAFFE750E926000EEA22040EDBCFCB
:10167000EFFF060EDB6ADBCF0BF0040EDBCF0CF0C6
:10168000050EDBCF0DF00C500B5C000E0D5425E267
:10169000020EDBCF0BF0DB2A030EDBCF0CF001E3F5
:1016A000DB2ADE500B24E96EDD500C20EA6EEF5091
:1016B000E66E060EDB50030FE76EFB0EDBCFE9FF95
:1016C000FC0EDBCFEAFFE750E926000EEA22E552E6
:1016D000E750EF6E060EDB2ACED709D1FD0EDBCF29
:1016E000E9FFFE0EDBCFEAFFEF50E66EFB0EDBCF2D
:1016F000E9FFFC0EDBCFEAFFE552E750EF6E020E8A
:10170000E76EFD0EDBCFE9FFFE0EDBCFEAFFE75011
:10171000E926000EEA22EF50E66ED950020FE96E7C
:10172000DACFEAFFE552E750EE6EED6A020EDBCF4C
:101730000BF0030EDBCF0CF00BC00CF00B6A020EAB
:101740000BC0DBFF030E0CC0DBFFE76EFD0EDBCF33
:10175000E9FFFE0EDBCFEAFFE750E926000EEA22A2
:10176000EF500B6E0C6AD950020FE96EDACFEAFF28
:101770000B50EE260C50ED22040EE76EFD0EDBCF73
:10178000E9FFFE0EDBCFEAFFE750E926000EEA2272
:10179000EF50E66ED950040FE96EDACFEAFFE5525A
:1017A000E750EE6EED6A040EDBCF0BF0050EDBCFDB
:1017B0000CF00BC00CF00B6A040E0BC0DBFF050E27
:1017C0000CC0DBFFE76EFD0EDBCFE9FFFE0EDBCFCB
:1017D000EAFFE750E926000EEA22EF500B6E0C6A92
:1017E000D950040FE96EDACFEAFF0B50EE260C5009
:1017F000ED22D950040FE96EDACFEAFFEE50ED107A
:101800000BE0D950040FE96EDACFEAFF3A0ED88028
:10181000EE54000EED541BE2010EE76EFB0EDBCF23
:10182000E9FFFC0EDBCFEAFFE750E926000EEA22D3
:10183000EF6A020EE76EFB0EDBCFE9FFFC0EDBCF9B
:10184000EAFFE750E926000EEA22EF6A4FD0010EC8
:10185000E76EFB0EDBCFE9FFFC0EDBCFEAFFE750C4
:10186000E926000EEA22010EEF6E020EE76EFB0E75
:10187000DBCFE9FFFC0EDBCFEAFFE750E926000EE5
:10188000EA22EF6A070EDB6ADBCF0BF0040EDBCF38
:101890000CF0050EDBCF0DF00C500B5C000E0D5460
:1018A00025E2070EDB50060FE76EFD0EDBCFE9FFEA
:1018B000FE0EDBCFEAFFE750E926000EEA22EF50EA
:1018C000E66E020EDBCF0BF0DB2A030EDBCF0CF053
:1018D00001E3DB2ADE500B24E96EDD500C20EA6EBA
:1018E000E552E750EF6E070EDB2ACED700D0010E8F
:1018F0000B6E080EE15C03E200D0E16AE552E16E96
:101900000B50E552E7CFD9FF1200D9CFE6FFE1CF68
:10191000D9FF030EE126FD0EDBCFE9FFFE0EDBCF84
:10192000EAFFEF50FF0A01E16AD3010A01E133D374
:101930000B0A01E1DAD2010A01E194D2060A01E1BF
:1019400059D21F0A01E142D2030A01E13FD2010A42
:1019500001E13CD2330A01E125D2080A01E11AD2A1
:10196000140A01E183D1630A01E145D1020A01E1D0
:1019700007D1010A01E1A7D0300A69E0A40A5FE0BB
:10198000200A01E0A7D3FB0EDBCFE9FFFC0EDBCF83
:10199000EAFF140EEF6E010EE76EFB0EDBCFE9FFE0
:1019A000FC0EDBCFEAFFE750E926000EEA22010E2B
:1019B000EF6E030EE76EFB0EDBCF0BF0FC0EDBCF02
:1019C0000CF0E7500B26000E0C220BC0E6FF0CC0FB
:1019D000E6FF010EE76EFD0EDBCFE9FFFE0EDBCF6B
:1019E000EAFFE750E926000EEA22EF50E66E020E0B
:1019F000E76EFD0EDBCF0DF0FE0EDBCF0EF0E750F5
:101A00000D26000E0E220DC0E6FF0EC0E6FF00EC14
:101A10001FF00F6E050EE15E0F50E66E020EE76ED0
:101A2000FB0EDBCFE9FFFC0EDBCFEAFFE750E92638
:101A3000000EEA22E552E750EF6E010E4DD3FA0E8A
:101A4000DB5003E00001010E696F000E45D3FB0E71
:101A5000DBCFE9FFFC0EDBCFEAFF900EEF6E010E4D
:101A6000E76EFB0EDBCFE9FFFC0EDBCFEAFFE750B2
:101A7000E926000EEA22010EEF6E030EE76EFB0E62
:101A8000DBCF0BF0FC0EDBCF0CF0E7500B26000E8B
:101A90000C220BC0E6FF0CC0E6FF0BEC29F0E55270
:101AA000E552E66E020EE76EFB0EDBCFE9FFFC0EA1
:101AB000DBCFEAFFE750E926000EEA22E552E750C5
:101AC000EF6E010E09D3FB0EDBCFE9FFFC0EDBCF7F
:101AD000EAFFA00EEF6E030EE76EFB0EDBCF0BF0FE
:101AE000FC0EDBCF0CF0E7500B26000E0C220BC0D7
:101AF000E6FF0CC0E6FF020EE76EFD0EDBCF0DF039
:101B0000FE0EDBCF0EF0E7500D26000E0E220DC0AC
:101B1000E6FF0EC0E6FF07EC25F0E552E552E55280
:101B2000E552E66E010EE76EFB0EDBCFE9FFFC0E21
:101B3000DBCFEAFFE750E926000EEA22E552E75044
:101B4000EF6E040EE76EFD0EDBCFE9FFFE0EDBCF7E
:101B5000EAFFE750E926000EEA22EF50E66E020E99
:101B6000E76EFB0EDBCFE9FFFC0EDBCFEAFFE750B1
:101B7000E926000EEA22E552E750EF6E010EACD2E4
:101B8000FB0EDBCFE9FFFC0EDBCFEAFFA10EEF6E11
:101B9000020EE76EFD0EDBCF0BF0FE0EDBCF0CF07E
:101BA000E7500B26000E0C220BC0E6FF0CC0E6FF30
:101BB000A6EC25F0E552E552E66E010EE76EFB0E4F
:101BC000DBCFE9FFFC0EDBCFEAFFE750E926000E92
:101BD000EA22E552E750EF6E020EE76EFB0EDBCF16
:101BE000E9FFFC0EDBCFEAFFE750E926000EEA2210
:101BF000EF6A010E71D2FB0EDBCFE9FFFC0EDBCFEB
:101C0000EAFFA30EEF6E020EE76EFD0EDBCF0BF0C8
:101C1000FE0EDBCF0CF0E7500B26000E0C220BC0A3
:101C2000E6FF0CC0E6FF4BEC24F0E552E552E66E11
:101C3000010EE76EFB0EDBCFE9FFFC0EDBCFEAFF08
:101C4000E750E926000EEA22E552E750EF6E020E59
:101C5000E76EFB0EDBCFE9FFFC0EDBCFEAFFE750C0
:101C6000E926000EEA22EF6A010E36D2FB0EDBCF28
:101C7000E9FFFC0EDBCFEAFFC00EEF6E010EE76E50
:101C8000FD0EDBCFE9FFFE0EDBCFEAFFE750E926D2
:101C9000000EEA22EF503D081BE2010EE76EFD0E3A
:101CA000DBCFE9FFFE0EDBCFEAFFE750E926000EAF
:101CB000EA22EF6A020EE76EFD0EDBCFE9FFFE0EB1
:101CC000DBCFEAFFE750E926000EEA22EF6A60D098
:101CD000010EE76EFD0EDBCFE9FFFE0EDBCFEAFF64
:101CE000E750E926000EEA22EF50E66EE66A020EA1
:101CF000E76EFD0EDBCF0BF0FE0EDBCF0CF0E750F6
:101D00000B26000E0C220BC0E6FF0CC0E6FF030EF4
:101D1000E76EFB0EDBCF0DF0FC0EDBCF0EF0E750D5
:101D20000D26000E0E220DC0E6FF0EC0E6FF11ECE0
:101D30002AF00F6E060EE15E0F50010EE76EFB0EED
:101D4000DBCFE9FFFC0EDBCFEAFFE750E926000E10
:101D5000EA22010EEF6E010EE76EFD0EDBCFE9FF0A
:101D6000FE0EDBCFEAFFE750E926000EEA22EF5035
:101D7000E66E020EE76EFB0EDBCFE9FFFC0EDBCF5B
:101D8000EAFFE750E926000EEA22E552E750EF6E3F
:101D9000010EA2D1FA0EDB5003E00001010E696FC3
:101DA000000E9AD1FB0EDBCFE6FFFC0EDBCFE6FF89
:101DB000FD0EDBCFE6FFFE0EDBCFE6FF6EEC09F09B
:101DC000E552E552E552E552010E86D1FB0EDBCF1E
:101DD000E6FFFC0EDBCFE6FFFD0EDBCFE6FFFE0EDF
:101DE000DBCFE6FFA8EC09F0E552E552E552E552FB
:101DF000010E72D1FB0EDBCFE9FFFC0EDBCFEAFF59
:101E0000F20EEF6E010EE76EFB0EDBCFE9FFFC0E6C
:101E1000DBCFEAFFE750E926000EEA22010EEF6E63
:101E2000020EE76EFB0EDBCFE9FFFC0EDBCFEAFF15
:101E3000E750E926000EEA22EF6A6592656A80ECB7
:101E400029F0DF6EDFCFE6FF96EC29F0E5520B6E4E
:101E5000020E0B5C01E2F6D7F29EF29C0EEF00F050
:101E6000010E3AD180848B92949280EC29F0E76E37
:101E7000010EE7CFDBFF010EDBCFE6FF96EC29F08A
:101E8000E5520B6E020E0B5C01E2F5D78B82948259
:101E9000FB0EDBCFE9FFFC0EDBCFEAFFF40EEF6EAB
:101EA000010EE76EFB0EDBCFE9FFFC0EDBCFEAFF96
:101EB000E750E926000EEA22010EEF6E020EE76EF1
:101EC000FB0EDBCFE9FFFC0EDBCFEAFFE750E92694
:101ED000000EEA22EF6A0001926B7DC07EF00001E5
:101EE0007F6B0001696B010EF7D0809494928B9206
:101EF0007DC07EF000017F6B0001926B0001696B79
:101F000080EC29F0E76E020EE7CFDBFF020EDBCF9D
:101F1000E6FF96EC29F0E5520B6E020E0B5C01E237
:101F2000F5D7B5EC20F08B82948280EC29F0E76E37
:101F3000020EE7CFDBFF020EDBCFE6FF96EC29F0C7
:101F4000E5520B6E020E0B5C01E2F5D7FB0EDBCF08
:101F5000E9FFFC0EDBCFEAFFF50EEF6E010EE76E38
:101F6000FB0EDBCFE9FFFC0EDBCFEAFFE750E926F3
:101F7000000EEA22010EEF6E020EE76EFB0EDBCFC3
:101F8000E9FFFC0EDBCFEAFFE750E926000EEA226C
:101F9000EF6A000EA1D0FB0EDBCFE9FFFC0EDBCF1A
:101FA000EAFFFE0EEF6E010EE76EFB0EDBCFE9FFE0
:101FB000FC0EDBCFEAFFE750E926000EEA22010E15
:101FC000EF6E020EE76EFB0EDBCFE9FFFC0EDBCF00
:101FD000EAFFE750E926000EEA22010EEF6E030E3B
:101FE000E76EFB0EDBCFE9FFFC0EDBCFEAFFE7502D
:101FF000E926000EEA22C9C0EFFF010E6DD0FB0EEC
:10200000DBCFE9FFFC0EDBCFEAFFEF68010EE76EE6
:10201000FB0EDBCFE9FFFC0EDBCFEAFFE750E92642
:10202000000EEA22010EEF6E020EE76EFB0EDBCF12
:10203000E9FFFC0EDBCFEAFFE750E926000EEA22BB
:102040000A0EEF6E030EE76EFB0EDBCFE9FFFC0E10
:10205000DBCFEAFFE750E926000EEA22020EEF6E20
:10206000040EE76EFB0EDBCFE9FFFC0EDBCFEAFFD1
:10207000E750E926000EEA22090EEF6E080EE66E22
:10208000E66A600EE66E000EE66E050EE76EFB0E6B
:10209000DBCF0BF0FC0EDBCF0CF0E7500B26000E75
:1020A0000C220BC0E6FF0CC0E6FF11EC2AF00D6E0F
:1020B000060EE15E0D500D0EE76EFB0EDBCFE9FF65
:1020C000FC0EDBCFEAFFE750E926000EEA22EF6ABA
:1020D000010E02D0000E00D00B6E030EE15C02E296
:1020E000E16AE552E16E0B50E552E7CFD9FF1200ED
:1020F000D9CFE6FFE1CFD9FF00016951010A01E123
:10210000AAD0010A01E0BAD0925101E08FD0FD0EB1
:10211000DBCFE9FFFE0EDBCFEAFFEF5001E185D018
:10212000FD0EDBCFE9FFFE0EDBCFEAFFEF50040828
:1021300035E1060E0D6E020EE76EFD0EDBCFE9FFF8
:10214000FE0EDBCFEAFFE750E926000EEA22EF5051
:102150000DC0E7FFE75204E0E8427F0BE706FCE131
:102160000C6E060E0B6E020EE76EFD0EDBCFE9FF66
:10217000FE0EDBCFEAFFE750E926000EEA22EF5021
:102180003F0B020F0BC0E7FFE75204E0E8427F0B72
:10219000E706FCE10C240001926F3DD0FD0EDBCF81
:1021A000E9FFFE0EDBCFEAFFEF50020834E1060E36
:1021B0000D6E030EE76EFD0EDBCFE9FFFE0EDBCFEB
:1021C000EAFFE750E926000EEA22EF500DC0E7FFD4
:1021D000E75204E0E8427F0BE706FCE10C6E060ED6
:1021E0000B6E030EE76EFD0EDBCFE9FFFE0EDBCFBD
:1021F000EAFFE750E926000EEA22EF503F0B040FFA
:102200000BC0E7FFE75204E0E8427F0BE706FCE182
:102210000C240001926FD5EC08F04CEC09F0FD0E97
:10222000F3CFDBFFFE0EF4CFDBFF14D0925100089A
:1022300010E2050E925D0DE2D5EC08F04CEC09F0D1
:10224000FD0EF3CFDBFFFE0EF4CFDBFF00019207A4
:1022500001D0926B13D0FD0EDBCFE9FFFE0EDBCF7A
:10226000EAFFEF500AE0D5EC08F04CEC09F0FD0E67
:10227000F3CFDBFFFE0EF4CFDBFF00D0E552E7CF5C
:10228000D9FF1200D9CFE6FFE1CFD9FFC8EC08F0A3
:102290000B6E010EE76E0B18E8AE02D00B3403D0C4
:1022A000E750D8800B5402E3000EECD000019351AC
:1022B00002E0010EE7D0695101E0CAD0FD0EDBCF8C
:1022C000E9FFFE0EDBCFEAFFEF0401E081D0020E52
:1022D000E76EFD0EDBCFE9FFFE0EDBCFEAFFE75036
:1022E000E926000EEA22EF50FD083AE1E66AB60E52
:1022F000E66E040EE66E040EE76EFD0EDBCF0BF00D
:10230000FE0EDBCF0CF0E7500B26000E0C220BC0AC
:10231000E6FF0CC0E6FF85EC0CF00D6E050EE15EED
:102320000D5000091DE00401040EB06F0E0EB16FD8
:10233000060EB825B26F010EB36FE76EFD0EDBCF50
:10234000E9FFFE0EDBCFEAFFE750E926000EEA22A6
:10235000EFCFB4F4FD0EB56F69EC08F0000E92D02B
:10236000060E0D6E030EE76EFD0EDBCFE9FFFE0ECF
:10237000DBCFEAFFE750E926000EEA22EF500DC05E
:10238000E7FFE75204E0E8427F0BE706FCE10C6E52
:10239000060E0B6E030EE76EFD0EDBCFE9FFFE0EA1
:1023A000DBCFEAFFE750E926000EEA22EF503F0BB1
:1023B000030F0BC0E7FFE75204E0E8427F0BE7069C
:1023C000FCE10C24010F0001936F010E5BD040D0A3
:1023D000FD0EDBCFE9FFFE0EDBCFEAFFEF50020878
:1023E00037E1060E0D6E030EE76EFD0EDBCFE9FF43
:1023F000FE0EDBCFEAFFE750E926000EEA22EF509F
:102400000DC0E7FFE75204E0E8427F0BE706FCE17E
:102410000C6E060E0B6E030EE76EFD0EDBCFE9FFB2
:10242000FE0EDBCFEAFFE750E926000EEA22EF506E
:102430003F0B040F0BC0E7FFE75204E0E8427F0BBD
:10244000E706FCE10C24010F0001936F010E1AD086
:10245000010EE66EB00EE66E040EE66EFD0EDBCFEC
:10246000E6FFFE0EDBCFE6FF85EC0CF00B6E050EF3
:10247000E15E0B50000904E069EC08F0000E02D0A8
:10248000010E00D0E552E7CFD9FF1200FCEC27F097
:102490004CEC09F0F3CF0BF0F4CF0CF00BC0E6FFDF
:1024A0000CC0E6FF35EC28F0E552E5521200200E94
:1024B0000001E76E9419E8AE02D0E73402D0E7508D
:1024C000945D02E2000E02D0010E00D0120008EC72
:1024D00028F0000902E1000E02D0010E00D0120027
:1024E00000016A6B010E6B6F6C6F7D6B7E6B7F6B97
:1024F000906B916BFC0E89164CEC09F0F3CF0BF04E
:10250000F4CF0CF00BC0E6FF0CC0E6FF35EC28F072
:10251000E552E5521200C8EC08F00B6E010EE76EB2
:102520000B18E8AE02D00B3403D0E750D8800B5420
:1025300002E2000E01D0010E00D01200D9CFE6FF5A
:10254000E1CFD9FF020EE126D950FD0FE96EFF0E53
:10255000DA20EA6EEE50ED1002E1000E26D0FC0EFD
:10256000DB5004E0FC0EDB50400802E2000E1DD000
:10257000A5EC08F0F3CFDEFFF4CFDDFFFC0EDBCFE0
:10258000E6FFE66AFD0EDBCFE6FFFE0EDBCFE6FFE1
:10259000DECFE6FFDDCFE6FF11EC2AF00B6E060E74
:1025A000E15E0B50C8EC08F000D00B6E020EE15C4F
:1025B00002E2E16AE552E16E0B50E552E7CFD9FF46
:1025C0001200D9CFE6FFE1CFD9FF020EE126D950A4
:1025D000FD0FE96EFF0EDA20EA6EEE50ED1002E11B
:1025E000000E28D0FC0EDB5004E0FC0EDB5040084F
:1025F00002E2000E1FD02EEC08F0A5EC08F0F3CF9D
:10260000DEFFF4CFDDFFFC0EDBCFE6FFE66AFD0E5A
:10261000DBCFE6FFFE0EDBCFE6FFDECFE6FFDDCF52
:10262000E6FF11EC2AF00B6E060EE15E0B50C8ECD3
:1026300008F000D00B6E020EE15C02E2E16AE552A6
:10264000E16E0B50E552E7CFD9FF1200FC0E891660
:102650000001906B1200D9CFE6FFE1CFD9FFE6521F
:102660000401FA51FB1102E1000E08D0FAC4E9FF9F
:10267000FBC4EAFFEF50800B01E0010E00091DE1F1
:10268000CCEC08F0000919E1400EE66E2EEC08F0E3
:10269000F3CF0BF0F4CF0CF00BC0E6FF0CC0E6FF5D
:1026A000E66A010EE66E09EC16F00D6E050EE15EAF
:1026B0000D50F3CFFAF4F4CFFBF400019051040A6B
:1026C00001E1DCD0070A01E1ADD0010A01E184D0CB
:1026D000030A6CE0010A01E0D8D091A114D0C8EC43
:1026E00008F00B6E010EE76E0B18E8AE02D00B344B
:1026F00003D0E750D8800B5402E269EC08F00001E7
:10270000935101E0930791A30DD04CEC09F0F3CF66
:102710000BF0F4CF0CF00BC0E6FF0CC0E6FFE8DCDA
:10272000E552E5520001916BA5EC08F0F3CF0BF0F8
:10273000F4CF0CF00BC0E6FF0CC0E6FFA3DDE552C2
:10274000E552000904E00001020E906F03D0000181
:10275000010E906F0401B05122E065EC09F0000910
:102760001EE1000192511BE1400EE66EE66AB00EDA
:10277000E66E040EE66E4CEC09F0F3CF0BF0F4CFEE
:102780000CF00BC0E6FF0CC0E6FF11EC2AF00D6E5A
:10279000060EE15E0D50D5EC08F00401B06B65EC5F
:1027A00009F0010802E10001906B6FD04CEC09F0D8
:1027B000F3CF0BF0F4CF0CF00BC0E6FF0CC0E6FF3C
:1027C00035EC28F0E552E5520001030E906F020E41
:1027D000916F9151891259D0F2EC28F0000921E053
:1027E0004CEC09F0F3CF0BF0F4CF0CF00BC0E6FF8C
:1027F0000CC0E6FFA5EC08F0F3CF0DF0F4CF0EF01F
:102800000DC0E6FF0EC0E6FFA3EC28F0E552E5524E
:10281000E552E5520001040E906F030E916F915145
:10282000891233D0F2EC28F0000902E1FC0E89167F
:10283000C8EC08F00B6E010EE76E0B18E8AE02D084
:102840000B3403D0E750D8800B5417E2FC0E8916E6
:10285000F2EC28F0000911E0DF6ADF50DF2A0B6E8E
:102860000A0E0B5C01E2F9D7F2EC28F0000905E052
:102870000001905102E0906B916B07D0F2EC28F0D0
:10288000000902E1FC0E891600D061EC09F00B6E24
:10289000000EE76E0B18E8AE02D00B3403D0E75001
:1028A000D8800B5429E20401FC51FD1102E1000E15
:1028B00008D0FCC4E9FFFDC4EAFFEF50800B01E043
:1028C000010E000919E1400EE66E10EC09F0F3CF9D
:1028D0000BF0F4CF0CF00BC0E6FF0CC0E6FF010ECE
:1028E000E66EE66E09EC16F00D6E050EE15E0D501B
:1028F000F3CFFCF4F4CFFDF4E552E552E7CFD9FF76
:022900001200C3
:0E290200D9CFE6FFE1CFD9FFE652A098636A75
:10291000626A0F01266B010EE66EE66AE66A270E12
:10292000E66E0F0EE66E3CEC2AF00B6E050EE15ED5
:102930000B500F01160E396F9F0E376F7B0E366FDF
:10294000DF6ADF500B6E0C6A080E0B5C000E0C5831
:1029500010E2DF50040DF3CFE9FFF4CFEAFF000EE1
:10296000E926040EEA22EE6AEE6AEE6AEE6ADF2AD1
:10297000E8D7658C0F01386B6598659C62A607D017
:1029800062960001A76BAC6BAD6BAE6BF7D7000125
:10299000010EBE6FBF6FC06BC16BB46BDF6A020EFE
:1029A000DF5C26E2EA6ADF34FE0BEA36E96E9F0E50
:1029B000E926000EEA22EE6AED6AEA6ADF34FE0BCF
:1029C000EA36E96E9B0EE926000EEA22EE6AED6A0F
:1029D000DF50EA6AB80FE96E000EEA22EF6ADF50B4
:1029E000EA6ABA0FE96E000EEA22EF6ADF2AD7D749
:1029F0000001080E9F6F040EA06F0F01160E266FC8
:102A00000401200E026F040E036F400E016F840E4E
:102A1000006F0001956B946BE552E552E7CFD9FF4B
:102A20001200D9CFE6FFE1CFD9FFE65200019405AD
:102A300009E165BA07D0626A0F0136813689000163
:102A4000020E946F6250040B07E00F013651040B25
:102A500003E0629433EC1BF065A202D0A1989DD0F4
:102A60006250010B0AE00F013651010B06E049DF0D
:102A7000A0880001040E946F62906250100B07E072
:102A80000F013651100B03E01DEC1BF0629862AC95
:102A90001AD00F0136AD0FD0010EE66EE66A000EB9
:102AA000E66EE66A730EE66EE66AADEC27F00B6E34
:102AB000060EE15E0B50629C0001BC5101E0BC07B8
:102AC000BC5101E110DA6250200B06E00F013651D3
:102AD000200B02E003EC1BF06250020B14E00F012C
:102AE0003651020B10E0010EE66EE66A000EE66E4D
:102AF000E66AE6687F0EE66EADEC27F00B6E060E1A
:102B0000E15E0B50636A040E0001E76E9419E8AEB3
:102B100002D0E73402D0E750945D02E2A1983DD0A4
:102B20000F0136A739D0DF6A040EDF5C35E262A6FA
:102B300032D064CFB5F00001B551780BE842E842DD
:102B4000E842B66F6296B5B508D0B651EA6ABA0FD8
:102B5000E96E000EEA22EF7007D0B651EA6AB80FAC
:102B6000E96E000EEA22EF70B65103E14BEC1BF068
:102B700010D0000EE66EE66AB50EE66E000EE66E4A
:102B8000720EE66EE66AADEC27F00B6E060EE15EA5
:102B90000B50DF2AC9D700D0A198E552E552E7CF04
:102BA000D9FF1200D9CFE6FFE1CFD9FF020EE1260F
:102BB000FD0EDBA407D0E66AFE0EDBCFE6FF24DACB
:102BC000E552E552FD0EDBA208D0010EE66EFE0EC8
:102BD000DBCFE6FF19DAE552E552FE0EDB500C6A58
:102BE000260F0B6E0F0E0C220BC0DEFF0CC0DDFF9C
:102BF000DECFE9FFDDCFEAFFFD0EDBCFEFFF020EF8
:102C0000E15C02E2E16AE552E16EE552E7CFD9FF0D
:102C10001200D9CFE6FFE1CFD9FF020EE126FD0E6B
:102C2000DB500FE0FE0EEA6ADB34FE0BEA36E96E9B
:102C30009F0EE926000EEA22EECFDEFFEDCFDDFF8C
:102C40000ED0FE0EEA6ADB34FE0BEA36E96E9B0E0E
:102C5000E926000EEA22EECFDEFFEDCFDDFFD9CF71
:102C6000E9FFDACFEAFFEE50ED1003E1F36AF46A10
:102C700049D0DECFE9FFDDCFEAFF020EE926000EE4
:102C8000EA22FB0EDBCFEEFFFC0EDBCFEDFFDECF4B
:102C9000E9FFDDCFEAFFEE52FA0EDBCFEFFF400E89
:102CA0000B6EDECFE9FFDDCFEAFF0B50EF16880E8B
:102CB0000B6EDECFE9FFDDCFEAFF0B50EF12FD0E0A
:102CC000DB500CE0FE0EEA6ADB34FE0BEA36E96EFE
:102CD0009F0EE926000EEA22EF740BD0FE0EEA6A80
:102CE000DB34FE0BEA36E96E9B0EE926000EEA2283
:102CF000EF74DECF0BF0DDCF0CF00BC0F3FF0CC098
:102D0000F4FF00D0020EE15C02E2E16AE552E16EFE
:102D1000E552E7CFD9FF1200D9CFE6FFE1CFD9FFC7
:102D2000020EE126FE0EDB5020E199C0E9FF9AC0B9
:102D3000EAFFEE52400EEF6E99C0E9FF9AC0EAFF3B
:102D4000020EE926000EEA22200EEE6E040EED6E53
:102D500099C0E9FF9AC0EAFF8C0EEF6E9FC0E9FFB1
:102D6000A0C0EAFF840EEF6E3DD0FD0EDB50E824DC
:102D70000D6EFE0EDB50040DF3500D24040DF3CF49
:102D80000BF0F4CF0CF0000E0B26040E0C220BC03F
:102D9000DEFF0CC0DDFF840E0B6EDECFE9FFDDCF62
:102DA000EAFF0B50EF12FD0EDB50E8240D6EFE0E15
:102DB000DB50040DF3500D24010F040DF3CF0BF085
:102DC000F4CF0CF0000E0B26040E0C220BC0DEFF1D
:102DD0000CC0DDFF840E0B6EDECFE9FFDDCFEAFF16
:102DE0000B50EF12020EE15C02E2E16AE552E16E85
:102DF000E552E7CFD9FF1200D9CFE6FFE1CFD9FFE7
:102E000065A84ED0FE0EEA6ADB34FE0BEA36E96EA8
:102E10009F0EE926000EEA22EE50EFCFEAFFE96EA0
:102E2000400EEE16EE6AEE6AEE6AFE0EEA6ADB34D9
:102E3000FE0BEA36E96E9F0EE926000EEA22EE50FE
:102E4000EFCFEAFFE96EEE7CFE0EEA6ADB34FE0BA2
:102E5000EA36E96E9F0EE926000EEA22EF74400E74
:102E60000B6EFE0EEA6ADB34FE0BEA36E96E9F0E4D
:102E7000E926000EEA22EE50EFCFEAFFE96E0B5092
:102E8000EF16FE0EEA6ADB34FE0BEA36E96E9F0EA1
:102E9000E926000EEA22EE50EFCFEAFFE96EEF7C62
:102EA000E552E7CFD9FF1200656A0F01366B0001CA
:102EB000946B00D012000001945114E1656A0F0177
:102EC000366B160E396F9F0E376F7B0E366FD08EB6
:102ED000A288A088F28E65B602D06586FCD7000174
:102EE000010E946F12000001BE514DE1010EBE6F44
:102EF000BF5149E1010EBF6F020EA45D0DE19FC0FD
:102F0000E9FFA0C0EAFFEE52EF6A9FC0E9FFA0C050
:102F1000EAFFC80EEF6E37D0A40535E1B76B97C056
:102F2000E9FF98C0EAFFEE52400EEF6E97C0E9FF4E
:102F300098C0EAFF020EE926000EEA22200EEE6E8D
:102F4000040EED6E97C0E9FF98C0EAFF840EEF6EA5
:102F5000010EB76F99C0E9FF9AC0EAFFEE52400E2A
:102F6000EF6E99C0E9FF9AC0EAFF020EE926000E53
:102F7000EA22200EEE6E040EED6E99C0E9FF9AC0B3
:102F8000EAFF800EEF6E12000001C06BC16B020EF3
:102F9000A45D1AE199C0E9FF9AC0EAFFEE52400E23
:102FA000EF6E99C0E9FF9AC0EAFF020EE926000E13
:102FB000EA22280EEE6E040EED6E99C0E9FF9AC06B
:102FC000EAFFC80EEF6E1FD0A8510401265D000174
:102FD000A9510401275904E226C4A8F027C4A9F086
:102FE000D1D89FC0E9FFA0C0EAFF020EE926000E7B
:102FF000EA22280EEE6E040EED6E9FC0E9FFA0C01F
:10300000EAFFC80EEF6E1200D9CFE6FFE1CFD9FF7D
:10301000020EE126000EDE6E040EDD6EFD0EDB50AC
:10302000E8240D6EFE0EDB50040DF3500D24040D4C
:10303000F3CF0BF0F4CF0CF0D9CFE9FFDACFEAFFF2
:103040000B50EE260C50ED22DECFE9FFDDCFEAFF7C
:10305000EF9EFD0EDB500FE1FE0EEA6ADB34FE0B45
:10306000EA36E96E9B0EE926000EEA22DECFEEFF7D
:10307000DDCFEDFF0ED0FE0EEA6ADB34FE0BEA3642
:10308000E96E9F0EE926000EEA22DECFEEFFDDCFCD
:10309000EDFFDECFE9FFDDCFEAFFEF9CDECFE9FFFA
:1030A000DDCFEAFF040EE926000EEA22EF8C020EC5
:1030B000E15C02E2E16AE552E16EE552E7CFD9FF59
:1030C000120065980001A7BF2BD0ACAF09D0020E4B
:1030D000A46FC15101E158DF0001BF6BBE6B1FD06F
:1030E00099C0E9FF9AC0EAFFEE52400EEF6E99C018
:1030F000E9FF9AC0EAFF020EE926000EEA22200E3E
:10310000EE6E040EED6E99C0E9FF9AC0EAFF8C0ED8
:10311000EF6E9FC0E9FFA0C0EAFF840EEF6E31D0D2
:10312000040120AF0DD00001010EA46FC05101E1D8
:103130002BDF0001BF6BBE6BBD5101E1D4DE21D09E
:103140000001020EA46F99C0E9FF9AC0EAFFEE5297
:10315000400EEF6E99C0E9FF9AC0EAFF020EE92621
:10316000000EEA22200EEE6E040EED6E99C0E9FF0D
:103170009AC0EAFF840EEF6EBF6BBE6BBD5101E1DA
:10318000B2DE1200D9CFE6FFE1CFD9FFE652400E02
:10319000DF6E0001A85D000EA9590BE2A8C0DFFF99
:1031A000A35103E1010EA36F04D0A30502E1020EB7
:1031B000A36FDF500B6E0C6A0B50A85DA86F0C500C
:1031C000A959A96F9FC0E9FFA0C0EAFFEE52DFCF67
:1031D000EFFF280EB16F040EB26FA7B119D0DF5008
:1031E00016E0A5C0F6FFA6C0F7FFA52B000EA6238C
:1031F0000800F550E66EB1C0E9FFB2C0EAFFB12B9E
:10320000000EB223E552E750EF6EDF06E8D717D085
:10321000DF5015E0A5C0E9FFA6C0EAFFA52B000E10
:10322000A623EF50E66EB1C0E9FFB2C0EAFFB12BB2
:10323000000EB223E552E750EF6EDF06E9D7E55204
:10324000E552E7CFD9FF1200D9CFE6FFE1CFD9FF92
:10325000020EE12697C0E9FF98C0EAFFEE52EFCFD9
:10326000DFFFDFCF0BF00B500001AD5D000EAE595C
:1032700002E2ADC0DFFFDF500B6E0C6A0B50AD5D9C
:10328000AD6F0C50AE59AE6F010EDB6ADF50F36EBE
:10329000010EDBCFF4FFF350F45C16E2010EDB50BD
:1032A000EA6A280FE96E040EEA22EF50E66EAAC021
:1032B000E9FFABC0EAFFAA2B000EAB23E552E750B3
:1032C000EF6E010EDB2AE2D7000ED880AD55000E5E
:1032D000AE5528E299C0E9FF9AC0EAFFEE52400ECF
:1032E000EF6E99C0E9FF9AC0EAFF020EE926000ED0
:1032F000EA22280EEE6E040EED6E97C0E9FF98C02C
:10330000EAFFEF50400B07E199C0E9FF9AC0EAFFDE
:10331000C80EEF6E06D099C0E9FF9AC0EAFF880E8A
:10332000EF6E28D099C0E9FF9AC0EAFFEE52400E36
:10333000EF6E99C0E9FF9AC0EAFF020EE926000E7F
:10334000EA22200EEE6E040EED6E99C0E9FF9AC0DF
:10335000EAFF840EEF6EAF51B01107E005D0B0C0A8
:10336000FAFF0001AF51F96EFADF0001AC9FBD51C9
:1033700001E1B9DD020EE15C02E2E16AE552E16ED3
:10338000E552E7CFD9FF1200D9CFE6FFE1CFD9FF51
:10339000E6520001A78F010EE66EE66AE66A270E86
:1033A000E66E0F0EE66E3CEC2AF00B6E050EE15E4B
:1033B0000B50200EE66EE66AE66A000EE66E040E1C
:1033C000E66E3CEC2AF00B6E050EE15E0B50658C50
:1033D000DF6A020EDF5C10E2DF50EA6AB80FE96EC6
:1033E000000EEA22EF6ADF50EA6ABA0FE96E000EB9
:1033F000EA22EF6ADF2AEDD7010EE66EE66AE66A98
:10340000960EE66E000EE66E3CEC2AF00B6E050E94
:10341000E15E0B50659C0001080E9F6F040EA06FCB
:10342000000E976F040E986F97C099F098C09AF0AD
:1034300022C495F0955103E1100E946F13D0010E44
:10344000E66EE66A950EE66E000EE66E010EE66E1C
:10345000E66AADEC27F00B6E060EE15E0B50000144
:10346000200E946FE552E552E7CFD9FF1200800E8F
:103470000401205D5EE10001C00EA76F040123512D
:10348000030A37E0010A0EE0030A03E00001A76B1C
:1034900050D00001AC0EA56F540EA66F120EA86F8F
:1034A000A96B47D0010E225D23E22251F66EF76A26
:1034B000D890F636F736200EF626550EF72209007C
:1034C000F5CFA5F00A00F5CFA6F0020E0001F76ACD
:1034D000A525F66EA651F7220800F5CFA8F0030E39
:1034E000F76AA525F66EA651F7220800F5CFA9F0D8
:1034F00020D0030E225D1AE22251F66EF76AD890B0
:10350000F636F736220EF626550EF7220900F5CFCD
:10351000A5F00A00F5CFA6F0A5C0F6FFA6C0F7FFFC
:103520000800F5500001A86FA96B02D00001A76B3D
:1035300000D01200D9CFE6FFE1CFD9FF020EE1267D
:103540000401286B296B20511F0B020A13E0030AA8
:103550000EE0010A01E043D00001A78F02D0040170
:1035600028810001B30502E10401288338D000015D
:10357000A78F35D00001A78F040124BF10D024519C
:103580000F0BE96EEA6AD890E936EA369B0EE92617
:10359000000EEA22EECFDEFFEDCFDDFF0FD024518B
:1035A0000F0BE96EEA6AD890E936EA369F0EE926F3
:1035B000000EEA22EECFDEFFEDCFDDFFDECFE9FF2A
:1035C000DDCFEAFFEF50800B09E0DECFE9FFDDCF72
:1035D000EAFFEF50040B02E0010E286F00D000015B
:1035E000A7AF07D0280EA56F040EA66FA781020E05
:1035F000A86F020EE15C02E2E16AE552E16EE5527B
:10360000E7CFD9FF12000F0126A115D097C0E9FF1F
:1036100098C0EAFFEF5080080DE19FC0E9FFA0C00D
:10362000EAFFEF50840806E197C0E9FF98C0EAFF7F
:103630008C0EEF6E2691629A12000F013685629809
:1036400065820001010EB46F000EE66EE66AE66E5A
:10365000E66A750EE66EE66AADEC27F00B6E060EB6
:10366000E15E0B5012000001B46B000EE66EE66ADC
:10367000E66EE66A740EE66EE66AADEC27F00B6E57
:10368000060EE15E0B5065920F01369562A402D0E2
:103690006294FCD71200D9CFE6FFE1CFD9FFE65202
:1036A00000012D0EBC6FFD0EB51553E17E0EB51554
:1036B000E8407F0B040DF3CF97F0F4CF98F0000EA5
:1036C0009727040E982397C099F098C09AF099759F
:1036D00097C0E9FF98C0EAFFEF503C0BE842E84290
:1036E0000D0835E1DF6A080EDF5C23E297C0E9FFD1
:1036F00098C0EAFF020EE926000EEA22EE50EFCF54
:10370000EAFFE96EEF50E66EDF50EA6A200FE96EDD
:10371000040EEA22E552E750EF6E97C0E9FF98C029
:10372000EAFF020EE926000EEA22EE2AEF22DF2A45
:10373000DAD797C0E9FF98C0EAFF020EE926000E2B
:10374000EA22200EEE6E040EED6E0DD801D03AD8AE
:1037500005D0FD0EB515040801E159D8E552E55232
:10376000E7CFD9FF12000001A36BBD6BC06BC16B2B
:10377000B76BA46B9FC0E9FFA0C0EAFFEF9E9F75E7
:103780009FC0E9FFA0C0EAFFEF9E9F7599C0E9FFC7
:103790009AC0EAFFEF9EA76BA86BA96BAC6BAD6BF1
:1037A000AE6B92D8000EE66EE66AE66EE66A030E2F
:1037B000E66EE66AADEC27F00B6E060EE15E0B508E
:1037C00061EF18F0020E0001A45D02E13DDD1ED0A4
:1037D000A46BB7511AE199C0E9FF9AC0EAFFEE5213
:1037E000400EEF6E99C0E9FF9AC0EAFF020EE9268B
:1037F000000EEA22200EEE6E040EED6E99C0E9FF77
:103800009AC0EAFF8C0EEF6E01D0B76B1200D9CFD1
:10381000E6FFE1CFD9FFE6529FC0E9FFA0C0EAFF73
:10382000EF50400B01E0010EDF6E00019F75080EA6
:10383000945D0CE122C438FF0F01385104E000010F
:10384000100E946F03D00001040E946FA40528E1BC
:103850009FC0E9FFA0C0EAFF020EE926000EEA229F
:10386000280EEE6E040EED6E8DDC020E0001A35DDF
:1038700007E19FC0E9FFA0C0EAFF840EEF6E0FD002
:10388000DF5007E19FC0E9FFA0C0EAFFC80EEF6E5E
:1038900006D09FC0E9FFA0C0EAFF880EEF6E0FD0F0
:1038A000ACAF0CD0AF51B01107E005D0B0C0FAFFFB
:1038B0000001AF51F96EFADF0001AC9FA46BE55235
:1038C000E552E7CFD9FF120004012051600BE84216
:1038D000E842E842E842E842000901E058D02151BC
:1038E0000C0A54E00B0A43E00C0A35E0010A26E01A
:1038F0000B0A22E0020A20E0030A1CE0080A10E09A
:10390000010A0CE00F0A08E0030A01E03FD00001C1
:10391000A78F080E946F3BD0AADD39D035DD37D0A4
:103920000001950EA56F000EA66FA781010EA86F6E
:10393000A78F2DD0FFDD2BD02BD829D0245100010B
:10394000A56FA66B960EA527000EA623A781010ED4
:10395000A86FA78F1CD00001A78F04012451EA6A29
:10396000960FE96E000EEA2222C4EFFF10D0000E7F
:10397000E66EE66AE66EE66A020EE66EE66AADECB2
:1039800027F00B6E060EE15E0B5001D000D0120046
:10399000D9CFE6FFE1CFD9FF050EE12604012205CC
:1039A00010E120511F0B00090CE10001A78F030E4D
:1039B0000401215D04E10001010EB36F02D000019A
:1039C000B36B0401225101E020D120511F0B0208EA
:1039D00001E01BD124510F0B000901E116D1245144
:1039E0000F0B010801E211D1200E0001945D01E0EE
:1039F0000CD1A78F040124BF1AD024510F0BE96EFC
:103A0000EA6AD890E936EA369B0EE926000EEA22E9
:103A1000EECFDEFFEDCFDDFF24510F0BEA6ABA0FC8
:103A2000E96E000EEA22020EEFCFDBFF19D024511F
:103A30000F0BE96EEA6AD890E936EA369F0EE9265E
:103A4000000EEA22EECFDEFFEDCFDDFF24510F0B9B
:103A5000EA6AB80FE96E000EEA22020EEFCFDBFF32
:103A6000D950020FE96EDACFEAFFEF50010B03E104
:103A7000000EDF9401D0DF8424BF10D024510F0B3F
:103A8000E96EEA6AD890E936EA369B0EE926000E1E
:103A9000EA22DECFEEFFDDCFEDFF0FD024510F0B7A
:103AA000E96EEA6AD890E936EA369F0EE926000EFA
:103AB000EA22DECFEEFFDDCFEDFF030E215D23E135
:103AC000DECFE9FFDDCFEAFFEF50800B13E024BF2C
:103AD00009D024510F0BEA6ABA0FE96E000EEA22F0
:103AE000EF8208D024510F0BEA6AB80FE96E000E7E
:103AF000EA22EF82840E0B6EDECFE9FFDDCFEAFF14
:103B00000B50EF1282D0DF74DECFE9FFDDCFEAFF8A
:103B1000EF50800B1BE0DECFE9FFDDCFEAFFEF9E29
:103B2000DECFE9FFDDCFEAFFEF8C020EE66EE66A3C
:103B3000DECFE6FFDDCFE6FF050EE66EE66AADEC12
:103B400027F00B6E060EE15E0B5005D0DECFE9FFCD
:103B5000DDCFEAFFEF8CDF74D950020FE96EDACFC8
:103B6000EAFFEF50020B07E1DECFE9FFDDCFEAFF0E
:103B7000EF50800B2DE0040124BF09D024510F0B1E
:103B8000EA6ABA0FE96E000EEA22EF9208D02451D9
:103B90000F0BEA6AB80FE96E000EEA22EF923B0EB5
:103BA0000B6EDECFE9FFDDCFEAFF0B50EF16020E02
:103BB000E66EE66ADECFE6FFDDCFE6FF050EE66ED7
:103BC000E66AADEC27F00B6E060EE15E0B5008D0F6
:103BD0003B0E0B6EDECFE9FFDDCFEAFF0B50EF1699
:103BE000040124510F0B0C6A260F0B6E0F0E0C22D2
:103BF000030E0BC0DBFF040E0CC0DBFF030EDBCF9C
:103C0000E9FF040EDBCFEAFFEF90050EE15C02E274
:0E3C1000E16AE552E16EE552E7CFD9FF1200FE
:023C1E00DACFFB
:103C2000E4FFE2CFDAFFE9CFE4FFEACFE4FFF6CF2B
:103C3000E4FFF7CFE4FFF5CFE4FFF3CFE4FFF4CFE9
:103C4000E4FFFACFE4FF00EE00F00B0EE80403E31C
:103C5000EECFE4FFFBD700EE0BF0050EE80403E324
:103C6000EECFE4FFFBD7E65211EC15F0B8EC29F0EB
:103C7000E55200EE0FF0050EE80403E3E5CFEDFF9B
:103C8000FBD700EE0AF00B0EE80403E3E5CFEDFFEF
:103C9000FBD7E5CFFAFFE5CFF4FFE5CFF3FFE5CFA4
:103CA000F5FFE5CFF7FFE5CFF6FFE5CFEAFFE5CF7C
:103CB000E9FFE5CFDAFF1100D8CFE4FFE0CFE4FF62
:103CC000E46EDACFE4FFE2CFDAFFE9CFE4FFEACF38
:103CD000E4FFF6CFE4FFF7CFE4FFF5CFE4FFF3CF47
:103CE000E4FFF4CFE4FFFACFE4FF00EE00F00B0EA8
:103CF000E80403E3EECFE4FFFBD700EE0BF0050E84
:103D0000E80403E3EECFE4FFFBD7E65205EC29F02D
:103D1000E55200EE0FF0050EE80403E3E5CFEDFFFA
:103D2000FBD700EE0AF00B0EE80403E3E5CFEDFF4E
:103D3000FBD7E5CFFAFFE5CFF4FFE5CFF3FFE5CF03
:103D4000F5FFE5CFF7FFE5CFF6FFE5CFEAFFE5CFDB
:103D5000E9FFE5CFDAFFE550E5CFE0FFE5CFD8FF9B
:103D60001000D9CFE6FFE1CFD9FF020EE126580EB1
:103D7000DE6E020EDD6E9B8CDFCF0BF0DF06010ED8
:103D8000DBCF0CF001E2DB060B500C1001E0F4D7A6
:103D90000F0148694969020EE15C02E2E16AE552FD
:103DA000E16EE552E7CFD9FF1200928092828050F7
:103DB000010B0B6E8050020B01E0010EE8240B2476
:103DC000E81C030B0001C96F929480941200D9CFB4
:103DD000E6FFE1CFD9FFE65280EC29F0DF6EDFCFBE
:103DE000E6FF96EC29F0E5520B6E140E0B5C01E237
:103DF000F6D78B829482E552E552E7CFD9FF1200C5
:103E0000D9CFE6FFE1CFD9FF020EE126DF6AFD0E32
:103E1000DBCFE9FFFE0EDBCFEAFF010EEFCFDBFFCA
:103E2000DB0432E1FD0EDBCFE9FFFE0EDBCFEAFF64
:103E3000EFCFC2F0010EE76EFD0EDBCFE9FFFE0E05
:103E4000DBCFEAFFE750E926000EEA22EFCFC3F00E
:103E5000020EE76EFD0EDBCFE9FFFE0EDBCFEAFFC1
:103E6000E750E926000EEA22EFCFC4F0080E000169
:103E7000C35D08E1080EC45D05E1E66A07EC24F0C5
:103E8000E55202D033EC24F0010EDB50030801E0D0
:103E900087D0010EE76EFD0EDBCFE9FFFE0EDBCF14
:103EA000EAFFE750E926000EEA22EF50080A4DE04B
:103EB000090A4BE0030A49E0010A47E0090A45E024
:103EC0000D0A43E0030A07E0010A05E0030A03E0E4
:103ED0000F0A01E057D0020EE76EFD0EDBCFE9FFBF
:103EE000FE0EDBCFEAFFE750E926000EEA22EF5094
:103EF00002080EE1010EE76EFD0EDBCFE9FFFE0EBC
:103F0000DBCFEAFFE750E926000EEA22EFCFC5F04B
:103F1000020EE76EFD0EDBCFE9FFFE0EDBCFEAFF00
:103F2000E750E926000EEA22EF500EE1010EE76E9F
:103F3000FD0EDBCFE9FFFE0EDBCFEAFFE750E926FF
:103F4000000EEA22EFCFC6F01DD0010EE76EFD0E87
:103F5000DBCFE9FFFE0EDBCFEAFFE750E926000EDC
:103F6000EA22EFCFC5F0010EE76EFD0EDBCFE9FFD1
:103F7000FE0EDBCFEAFFE750E926000EEA22EFCF84
:103F8000C6F000D0080E0001C55D08E1080EC65D50
:103F900005E1E66A07EC24F0E55202D033EC24F0A8
:103FA000DF500B6E020EE15C03E200D0E16AE552E5
:103FB000E16E0B50E552E7CFD9FF1200D9CFE6FFF3
:103FC000E1CFD9FF0001C25113E0C20510E1FD0E9F
:103FD000DBCFE9FFFE0EDBCFEAFFC3C0EFFFFB0E36
:103FE000DBCFE9FFFC0EDBCFEAFFC4C0EFFF10D050
:103FF000FD0EDBCFE9FFFE0EDBCFEAFFC5C0EFFF12
:10400000FB0EDBCFE9FFFC0EDBCFEAFFC6C0EFFF04
:10401000E552E7CFD9FF1200F29E550EA76EAA0E09
:10402000A76E0E01FF91090EC86F070EFB6F080EF9
:10403000FC6F550EA76EAA0EA76EFF811200D9CF96
:10404000E6FFE1CFD9FF030EE12636CFDFFF0F01F8
:10405000040E366F62986582A198A0880400D39EF2
:104060000300A150100B05E1D050080B02E1030042
:10407000F8D76592DF500F013613D50EF36E010E9F
:10408000F3CFDBFF020EF36E020EF3CFDBFF010E68
:10409000DBCF0BF0DB06020EDBCF0CF001E2DB0620
:1040A0000B500C1002E00400F2D70001C82B030EE5
:1040B000E15C02E2E16AE552E16EE552E7CFD9FF49
:1040C00012000001C751030A28E0010A0FE0030AA9
:1040D00005E0010A01E029D0C75127D08BEC12F08E
:1040E000000902E0030E21D0010E1FD0DEC0E6FF62
:1040F00096EC29F0E5520B6E030E0B5C02E2020E09
:1041000014D08B82948267EC12F0010802E1020E57
:104110000CD070EC12F0000E08D080EC29F00001F9
:10412000DE6F8B929492020E00D01200D9CFE6FF80
:10413000E1CFD9FF020EE126FC0EDF6E010EDB6A35
:10414000020EE66ED9CFE6FFDACFE6FFE1EC12F021
:10415000E552E552E552020EE15C02E2E16AE55207
:10416000E16EE552E7CFD9FF1200D9CFE6FFE1CFEC
:10417000D9FF0E0EE126010EDF6EDE52020EDD6E5D
:10418000FC0EF36E020EF3CFDBFF0A0EF36E030E8E
:10419000F3CFDBFF040EDB6A050EDB6A060EDB6A7B
:1041A000070EDB6A080EDB6A090EDB6A0A0EDB6AA1
:1041B0000B0EDB6A0C0EDB6A0D0EDB6AD950040FA6
:1041C000E66E000EDA20E66E0A0EE66E010EE66E70
:1041D000FC0EE66E63EC25F00B6E050EE15E0B50F7
:1041E0000E0EE66ED9CFE6FFDACFE6FF9EEC12F0B8
:1041F000E552E552E5520E0EE15C02E2E16AE5525B
:10420000E16EE552E7CFD9FF1200D9CFE6FFE1CF4B
:10421000D9FF020EE126DF6A010EDB6AF29E8B9265
:1042200094929FDDF9DE010EE66E12EC28F0E55265
:1042300046EC12F0F28E70EC29F0B7DD7BEC21F049
:1042400092909292FC0E89168A808A84C0DD07ECD7
:1042500008F08A908A940AEC08F057EC12F00009F2
:1042600001E1F9D72BEC13F00001C751030A31E04B
:10427000010A2BE0030A25E0010A01E031D067ECD6
:1042800012F0010805E10001010EC76F4FDF18D0E1
:10429000D950010FE66E000EDA20E66ED9CFE6FFA8
:1042A000DACFE6FF8BDEE552E552E552E552010E2C
:1042B000DBCFE6FFDFCFE6FF84EC22F0E552E552EC
:1042C0000FD0FFDE0001C76F0BD0FBDE0001C76F10
:1042D00007D095EC21F0B3DEF4DE0001C76F00D00B
:1042E000BAD7020EE15C02E2E16AE552E16EE55204
:0642F000E7CFD9FF120028
:0A42F6008A928A908A968A94939225
:104300009390939693940401696980EC29F00401D9
:10431000686F1200D9CFE6FFE1CFD9FFFE0EDBCFE9
:104320006CF4E552E7CFD9FF12008A928A908A9600
:104330008A941200D9CFE6FFE1CFD9FFFE0EDB5001
:104340000A0A47E00D0A3AE0010A2DE0030A20E0DC
:10435000010A1CE0070A0FE0010A0AE00B0A08E064
:10436000080A03E08A908A923FD08A908A923CD0D1
:104370008A908A9239D0FD0EDB50EA6A730FE96E9B
:10438000040EEA22EF0401E18A802ED08A802CD02C
:10439000FD0EDB50EA6A6D0FE96E040EEA22EF04AF
:1043A00001E18A8021D0FD0EDB50EA6A6D0FE96ED3
:1043B000040EEA22EF0401E18A8216D0FD0EDB50E2
:1043C000EA6A6D0FE96E040EEA22EF0401E18A80C9
:1043D0000BD0FD0EDB50EA6A6D0FE96E040EEA2287
:1043E000EF0401E18A8200D0E552E7CFD9FF120045
:1043F000D9CFE6FFE1CFD9FFFE0EDB500A0A47E036
:104400000D0A3AE0010A2DE0030A20E0010A1CE04F
:10441000070A0FE0010A0AE00B0A08E0080A03E0B5
:104420008A948A963FD08A948A963CD08A948A96B7
:1044300039D0FD0EDB50EA6A730FE96E040EEA22F2
:10444000EF0401E18A842ED08A842CD0FD0EDB504B
:10445000EA6A6D0FE96E040EEA22EF0401E18A8434
:1044600021D0FD0EDB50EA6A6D0FE96E040EEA22E0
:10447000EF0401E18A8616D0FD0EDB50EA6A6D0F6B
:10448000E96E040EEA22EF0401E18A840BD0FD0EEE
:10449000DB50EA6A6D0FE96E040EEA22EF0401E1D7
:1044A0008A8600D0E552E7CFD9FF1200D9CFE6FFC8
:1044B000E1CFD9FFFE0EDB5020E0FE0EDB50010BFA
:1044C000010802E18A8201D08A92FE0EDB50020BC3
:1044D000020802E18A8001D08A90FE0EDB50040BB4
:1044E000040802E18A8601D08A96FE0EDB50080B92
:1044F000080802E18A8401D08A94FE0EDB5000D0C5
:10450000E552E7CFD9FF1200D9CFE6FFE1CFD9FFBF
:104510006CC4E6FFCBDFE552000944E1ABC4E6FF23
:1045200045D8E55202083EE168C4E6FF96EC29F062
:10453000E552050837E280EC29F00401686FFE0EB1
:10454000DB50695D0BE06B51EA6A6D0FE96E040E9A
:10455000EA22EF5003E1FE0EDBCF69F4FD0EDB50E3
:104560006A5D0BE06B51EA6A6D0FE96E040EEA2298
:10457000EF5003E1FD0EDBCF6AF4D7DE6BC4E6FF3C
:1045800069C4E6FFD7DEE552E5526BC4E6FF6AC4B4
:10459000E6FF2EDFE552E55204016B2B060E6B5D44
:1045A00001E36B6BE552E7CFD9FF1200D9CFE6FFED
:1045B000E1CFD9FF020EF36EFE0EDBCFF4FFF35016
:1045C000F45C05E2FE0EDBCFE6FF08D8E552FE0EF6
:1045D000DB5000D0E552E7CFD9FF1200D9CFE6FF7C
:1045E000E1CFD9FF030EE126020EDB6AF36EFE0E69
:1045F000DBCFF4FFF350F45C01E3FFD0FE0EEA6A78
:10460000DB34FE0BEA36E96EAC0EE926040EEA2234
:10461000EECFDEFFEDCFDDFFDECFE9FFDDCFEAFF3E
:10462000020EE926000EEA22EF50FE0817E1DECF67
:10463000E9FFDDCFEAFF020EE926000EEA22EF6A6B
:1046400080EC29F0E66EDECFE9FFDDCFEAFF030E56
:10465000E926000EEA22E552E750EF6EDECFE9FFD1
:10466000DDCFEAFF020EE926000EEA22EFCF0BF0C3
:10467000DECFE9FFDDCFEAFFEF500B5C23E3DECFB7
:10468000E9FFDDCFEAFF180EE926000EEA22EFCFA0
:104690000BF0020E0B5C01E3B0D0DECFE9FFDDCF03
:1046A000EAFF180EE926000EEA22EF34EA6AFE0B52
:1046B000EA36E96EAC0EE926040EEA22EECFDEFF02
:1046C000EDCFDDFFDECFE9FFDDCFEAFF030EE92608
:1046D000000EEA22EF50E66E96EC29F0E5520B6EE2
:1046E000DECFE9FFDDCFEAFF040EE926000EEA2265
:1046F000E9CF0CF0EACF0DF0DECFE9FFDDCFEAFF26
:10470000020EE926000EEA22EF500F010C24E96E9A
:10471000000E0D20EA6EEF500B5C30E380EC29F0C8
:10472000E66EDECFE9FFDDCFEAFF030EE926000EDD
:10473000EA22E552E750EF6EDECFE9FFDDCFEAFF78
:10474000020EE926000EEA22EF50EF2A0B6EDECFB2
:10475000E9FFDDCFEAFFEF500B5C10E3DECFE9FFAE
:10476000DDCFEAFFEE52EF0409E1DECFE9FFDDCF56
:10477000EAFF020EE926000EEA22EF6ADECFE9FF29
:10478000DDCFEAFF0E0EE926000EEA22E9CF0BF09C
:10479000EACF0CF0DECFE9FFDDCFEAFF020EE9261B
:1047A000000EEA22EF500F010B24E96E000E0C20E0
:1047B000EA6E020EEFCFDBFFDB501FE0020EDB5094
:1047C000040A16E0070A0FE0010A08E0030A01E004
:1047D00014D08A908A948A928A960FD08A808A848A
:1047E0008A928A960AD08A828A868A908A9405D08A
:1047F0008A808A828A848A8600D0030EE15C02E283
:10480000E16AE552E16EE552E7CFD9FF1200D9CF58
:10481000E6FFE1CFD9FF020EF36EFE0EDBCFF4FF11
:10482000F350F45C01E31BD0FE0EEA6ADB34FE0BAE
:10483000EA36E96EAC0EE926040EEA22EE50EFCF1E
:10484000EAFFE96E020EE926000EEA22EF50FE08AA
:1048500002E0000E01D0010EFE0EDBCFABF4E552FC
:10486000E7CFD9FF1200ACC4E9FFADC4EAFF020EE6
:10487000E926000EEA22FE0EEF6EAEC4E9FFAFC4D9
:10488000EAFF020EE926000EEA22FE0EEF6E040198
:06489000020EAB6F1200E6
:0A489600D9CFE6FFE1CFD9FF040EF1
:1048A000E126DE6ADD6A020EDB6A030EDB6AFD0EBC
:1048B000DBCFE9FFFE0EDBCFEAFFEF50DE6EDD6AF5
:1048C000DECF0BF0DDCF0CF00BC00CF00B6A0BC091
:1048D000DEFF0CC0DDFF010EE76EFD0EDBCFE9FF52
:1048E000FE0EDBCFEAFFE750E926000EEA22EF508A
:1048F000DE26000EDD22020EE76EFD0EDBCFE9FFA5
:10490000FE0EDBCFEAFFE750E926000EEA22020E98
:10491000EFCFDBFF030EE76EFD0EDBCFE9FFFE0EF0
:10492000DBCFEAFFE750E926000EEA22030EEFCFC5
:10493000DBFFDBCFE6FF020EDBCFE6FFDECFE6FFDD
:10494000DDCFE6FF11D8E552E552E552E5520B6E98
:10495000040EE15C03E200D0E16AE552E16E0B5027
:10496000E552E7CFD9FF1200D9CFE6FFE1CFD9FF5B
:10497000020EE126FD0EDBCF0BF0FE0EDBCF0CF0BE
:104980000CC00BF00C6AD8900B32D8900B320BC0D5
:10499000DEFF0CC0DDFFFD0EDBCF0BF0FE0EDBCF2C
:1049A0000CF00B6A0C6A0B500C1003E0000E23D0C5
:1049B0000DD0FC0EDB50550803E0000E1CD006D0D5
:1049C000FB0EDB50AA0802E0000E15D0F66ADF509D
:1049D000F76EF86AD890F736F836F736F836140ED0
:1049E000A66EF29E550EA76EAA0EA76EA682F28E36
:1049F000A694010E00D00B6E020EE15C02E2E16AA9
:104A0000E552E16E0B50E552E7CFD9FF1200D9CF46
:104A1000E6FFE1CFD9FF030EE126DE6ADD6A020E72
:104A2000DB6AFD0EDBCFE9FFFE0EDBCFEAFFEF50C6
:104A3000DE6EDD6ADECF0BF0DDCF0CF00BC00CF0CC
:104A40000B6A0BC0DEFF0CC0DDFF010EE76EFD0E32
:104A5000DBCFE9FFFE0EDBCFEAFFE750E926000ED1
:104A6000EA22EF50DE26000EDD22020EE76EFD0E7A
:104A7000DBCFE9FFFE0EDBCFEAFFE750E926000EB1
:104A8000EA22020EEFCFDBFFFB0EDBCFE6FFFC0ED0
:104A9000DBCFE6FF020EDBCFE6FFDECFE6FFDDCFAA
:104AA000E6FF11D80B6E050EE15E0B500B6E030E88
:104AB000E15C03E200D0E16AE552E16E0B50E552A1
:104AC000E7CFD9FF1200D9CFE6FFE1CFD9FFE652F9
:104AD000DF6AFD0EDBCF0BF0FE0EDBCF0CF00B6AB6
:104AE0000C6A0B500C1003E0000E2BD00BD0000E04
:104AF000000903E0000E25D005D0FC0EDB5002E1DA
:104B0000000E1FD0FD0EDBCFF6FFFE0EDBCFF7FF52
:104B1000F86ADF6AFC0EDB50DF5C11E20900DF504F
:104B2000E76EFA0EDBCFE9FFFB0EDBCFEAFFE750C3
:104B3000E926000EEA22F5CFEFFFDF2AEBD7010EC0
:104B400000D0E552E552E7CFD9FF1200D9CFE6FFFA
:104B5000E1CFD9FF030EE126DE6ADD6A020EDB6AD1
:104B6000FD0EDBCFE9FFFE0EDBCFEAFFEF50DE6E7E
:104B7000DD6ADECF0BF0DDCF0CF00BC00CF00B6A62
:104B80000BC0DEFF0CC0DDFF010EE76EFD0EDBCFBC
:104B9000E9FFFE0EDBCFEAFFE750E926000EEA222E
:104BA000EF50DE26000EDD22020EE76EFD0EDBCF9B
:104BB000E9FFFE0EDBCFEAFFE750E926000EEA220E
:104BC000020EEFCFDBFF030EE76EFD0EDBCF0BF027
:104BD000FE0EDBCF0CF0E7500B26000E0C220BC0B4
:104BE000E6FF0CC0E6FF020EDBCFE6FFDECFE6FFFE
:104BF000DDCFE6FF11D80D6E050EE15E0D500B6E98
:104C0000030EE15C03E200D0E16AE552E16E0B5075
:104C1000E552E7CFD9FF1200D9CFE6FFE1CFD9FFA8
:104C2000E652DF6AFD0EDBCF0BF0FE0EDBCF0CF0A1
:104C30000B6A0C6A0B500C1003E0000E4AD00BD02C
:104C4000FC0EDBA003D0000E44D005D0FC0EDB50E0
:104C500002E1000E3ED0FC0EDB50DF5C37E2DF509D
:104C6000E76EFD0EDBCFF6FFFE0EDBCFF7FFE75062
:104C7000F626000EF722F86ADF50E76EFA0EDBCF59
:104C8000E9FFFB0EDBCFEAFFE750E926000EEA2240
:104C9000EF50F56E0D00DF2ADF50E76EFA0EDBCF26
:104CA000E9FFFB0EDBCFEAFFE750E926000EEA2220
:104CB000EF50F56E0C00DF2A240EA66EF29E550E04
:104CC000A76EAA0EA76EA682F28EC5D7A694010E75
:0C4CD00000D0E552E552E7CFD9FF1200FA
:044CDC000001010EC4
:104CE000DF6F120065920001DF6B12000001E02B04
:104CF000000EE1231200120012001200160EE66EE2
:104D0000010EE66ED2EC15F0E552E552400EE66E6D
:104D1000000EE66E050EE66EE66A010EE66E09EC22
:104D200016F00B6E050EE15E0B50F3CFFAF4F4CFE4
:104D3000FBF4400EE66EE66AE66A000EE66E050ECD
:104D4000E66E3CEC2AF00B6E050EE15E0B50400E59
:104D5000E66EE66AE66A400EE66E050EE66E3CEC2E
:104D60002AF00B6E050EE15E0B50400EE66EE66A11
:104D7000E66A800EE66E050EE66E3CEC2AF00B6EDF
:104D8000050EE15E0B50400EE66EE66AE66AC00E66
:104D9000E66E050EE66E3CEC2AF00B6E050EE15E4B
:104DA0000B50400EE66EE66AE66A000EE66E030EF3
:104DB000E66E3CEC2AF00B6E050EE15E0B50400EE9
:104DC000E66EE66AE66A400EE66E030EE66E3CECC0
:104DD0002AF00B6E050EE15E0B50400EE66EE66AA1
:104DE000E66A800EE66E030EE66E3CEC2AF00B6E71
:104DF000050EE15E0B50400EE66EE66AE66AC00EF6
:104E0000E66E030EE66E3CEC2AF00B6E050EE15EDC
:104E10000B50400EE66EE66AE66A000EE66E020E83
:104E2000E66E3CEC2AF00B6E050EE15E0B50400E78
:104E3000E66EE66AE66A400EE66E020EE66E3CEC50
:104E40002AF00B6E050EE15E0B50400EE66EE66A30
:104E5000E66A800EE66E020EE66E3CEC2AF00B6E01
:104E6000050EE15E0B50400EE66EE66AE66AC00E85
:104E7000E66E020EE66E3CEC2AF00B6E050EE15E6D
:104E80000B50400EE66EE66AE66A000EE66E010E14
:104E9000E66E3CEC2AF00B6E050EE15E0B50400E08
:104EA000E66EE66AE66A400EE66E010EE66E3CECE1
:104EB0002AF00B6E050EE15E0B50400EE66EE66AC0
:104EC000E66A800EE66E010EE66E3CEC2AF00B6E92
:104ED000050EE15E0B50400EE66EE66AE66AC00E15
:104EE000E66E010EE66E3CEC2AF00B6E050EE15EFE
:104EF0000B50400EE66EE66AE66AB00EE66E040EF1
:104F0000E66E3CEC2AF00B6E050EE15E0B5070EF86
:104F100012F00001B30520E10001B4051DE1A098E5
:104F2000E1DE65920001B46B0401100EFE6F0E0EFF
:104F3000FF6FFE07000EFF5BFE51FF11FAE1658473
:104F4000080EFE6F070EFF6FFE07000EFF5BFE519F
:104F5000FF11FAE16594A0881200D9CFE6FFE1CFF6
:104F6000D9FFFD0EDBCF06F0FE0EDBCF07F0050EFE
:104F7000061801E1075039E0E868061802E17F0EE3
:104F8000071831E0030E061801E107502AE0020E6F
:104F9000061801E1075023E0010E061801E1075051
:104FA0001CE0740E061801E1075015E0750E061896
:104FB00001E107500EE0730E061801E1075007E00B
:104FC000720E061801E1075001E010D00FD08EDEFE
:104FD0000DD084DE0BD086DE09D090DE07D08DDECA
:104FE00005D08ADE03D087DE01D000D0010E00D0CC
:104FF000E552E7CFD9FF12000401FA6BFB6BFC6BA3
:10500000FD6B81EC14F05BEC17F00001DF6B12001C
:105010000001DF5100D01200E0C0F3FFE1C0F4FF57
:0450200000D01200AA
:0C502400D9CFE6FFE1CFD9FF010EF36EFB
:10503000FE0EF3CFDBFF010E000913E0400E736E8E
:10504000050E726E728A929A9388938A866A380ED7
:10505000886E686A696A6A6A6B6A666A3F0E676E1A
:10506000F28CE552E7CFD9FF1200D9CFE6FFE1CFAE
:10507000D9FFE6527550DF6E8890400E736E050EB4
:10508000726E728AFD0EDBCF0BF0FE0EDBCF0CF0E2
:105090000CC00BF00C6A0B50686EFF0EE76EFD0E35
:1050A000DBCF0BF0FE0EDBCF0CF0E7500B160C6ADB
:1050B0000B50696E3F0E676E100E886E8880A59E3D
:1050C000A49EA38EF28C010EF36EF46A00D0E5521A
:1050D000E552E7CFD9FF1200D9CFE6FFE1CFD9FFE4
:1050E000E6527550DF6E8890400E736E050E726E3C
:1050F000728AFD0EDBCF0BF0FE0EDBCF0CF00CC086
:105100000BF00C6A0B506A6EFF0EE76EFD0EDBCFE4
:105110000BF0FE0EDBCF0CF0E7500B160C6A0B50B9
:105120006B6E3F0E676E240E886E8880A59EA49ECF
:10513000A38EF28C010EF36EF46A00D0E552E552B4
:10514000E7CFD9FF1200D9CFE6FFE1CFD9FFE65272
:105150007550DF6E8890400E736E050E726E728A07
:10516000FB0EDBCF0BF0FC0EDBCF0CF00CC00BF01A
:105170000C6A0B50686EFF0EE76EFB0EDBCF0BF078
:10518000FC0EDBCF0CF0E7500B160C6A0B50696E6F
:10519000FD0EDBCF0BF0FE0EDBCF0CF00CC00BF0E6
:1051A0000C6A0B506A6EFF0EE76EFD0EDBCF0BF044
:1051B000FE0EDBCF0CF0E7500B160C6A0B506B6E3B
:1051C0003F0E676E380E886E8880A59EA49EA38EC3
:1051D000F28C010EF36EF46A00D0E552E552E7CF8F
:1051E000D9FF12008850010B0DE08850010B03E03D
:1051F0003F0E675C07E08850010B02E0675002E059
:10520000000E01D0010E00D01200A4AE03D026EC97
:0652100013F0A49E120041
:0A521600D9CFE6FFE1CFD9FFE65241
:10522000DF6ADF50DF2AE76EFD0EDBCFE9FFFE0EFF
:10523000DBCFEAFFE750E926000EEA22FC0EEF6E14
:10524000DF50DF2AE76EFD0EDBCFE9FFFE0EDBCF7E
:10525000EAFFE750E926000EEA22EF6ADF50DF2A74
:10526000E76EFD0EDBCFE9FFFE0EDBCFEAFFE75076
:10527000E926000EEA22040EEF6EDF50DF2AE76E09
:10528000FD0EDBCFE9FFFE0EDBCFEAFFE750E9269C
:10529000000EEA22EF6ADF50DF2AE76EFD0EDBCF59
:1052A000E9FFFE0EDBCFEAFFE750E926000EEA2217
:1052B000010EEF6EDF50DF2AE76EFD0EDBCFE9FF58
:1052C000FE0EDBCFEAFFE750E926000EEA22020ECF
:1052D000EF6EDF5000D0E552E552E7CFD9FF120064
:1052E000690ED76EC20ED66ED58ED59CD59AD5983E
:1052F000D596F80ED5140409D56EF28AF284120000
:105300000001E25100D01200D9CFE6FFE1CFD9FF72
:10531000E652DF6AD59EF294D76A2F0ED66ED58EEE
:10532000F284E552E552E7CFD9FF1200D9CFE6FF6C
:10533000E1CFD9FFE652E4DFDF6EFE0EDB50DF5C2B
:1053400004E3FE0EDB50DF5E0CD0FE0EDB500B6E76
:105350000C6AFF0ED8800B56000E0C56010E0B2463
:10536000DF26DF5000D0E552E552E7CFD9FF12002B
:10537000F2A407D0690ED76EC20ED66E0001E22BE2
:04538000F294120091
:0C5384001E0EF66E100EF76E000EF86E96
:1053900004010900F550F56F0900F550F66F03E1BF
:1053A000F56701D03DD00900F550F06F0900F550C8
:1053B000F16F0900F550F26F09000900F550E96E30
:1053C0000900F550EA6E090009000900F550F36F75
:1053D0000900F550F46F09000900F6CFF7F4F7CF94
:1053E000F8F4F8CFF9F4F0C4F6FFF1C4F7FFF2C413
:1053F000F8FF0401F35302E1F45307E00900F5500C
:10540000EE6EF307F8E2F407F9D7F7C4F6FFF8C435
:10541000F7FFF9C4F8FF0401F507000EF65BBFD7EC
:02542000120078
:0E542200D9CFE6FFDACFE6FFFA0EE3CFD9FFCF
:10543000FB0EE3CFDAFFFC0EE3CFE9FFFD0EE3CF77
:10544000EAFFE9CFF3FFEACFF4FFF80EE35003E100
:10545000F90EE35008E0F80EE30602E2F90EE30667
:10546000DECFEEFFF2D7FF0EE3CFDAFFE552FF0EFD
:10547000E3CFD9FFE5521200FE0EE3CFE9FFFF0EA6
:10548000E3CFEAFFE9CFF3FFEACFF4FFFB0EE350EF
:1054900003E1FC0EE35009E0FB0EE30602E2FC0E22
:0C54A000E306FD0EE350EE6EF1D71200A3
:0454AC0012010002E7
:1054B00000000040F0160300000101020001090293
:1054C000200001010080320904000002FFFFFF00FC
:1054D00007050102400001070581024000010403A5
:1054E0000904160347004E002000480065006100D3
:1054F000720069006E0067002803410063006300CA
:105500006500730073006F0072007900200049008D
:105510006E00740065007200660061006300650043
:08552000BE54DE54E254F854BD
:08552800C00EF36E00EE00F06E
:105530000E0E01D81200EA6002D0EE6AFCD7F350DA
:08554000E9601200EE6AFCD7DD
:085548001DEE00F02DEE00F055
:10555000F86A0A9CC2EC29F003EC08F005EC21F093
:04556000FBD7120063
:0C5564004169726C696E6B32000000013E
:1055700001000540058005C005000340038003C00D
:1055800003000000000240028002C002000140014E
:085590008001C00100000000D1
:0355980000000010
:05559B0000000000000B
:1055A0000000004039383700000000000000000013
:0855B0000000000000000000F3
:0155B80000F2
:0755B90000FFFF00000100EC
:1055C000010001000100000000000400FE00282886
:1055D00005000000000000000302010000000000C0
:1055E0000000010201FE000119000000000000009F
:1055F0000002010000000000000000020279049295
:0156000004A5
:01FFF800A860
:01FFF900F710
:01FFFA0015F1
:01FFFB00FA0B
:01FFFC0063A1
:01FFFD00F80B
:01FFFE008181
:01FFFF00F110
:01FBFF00AA5B
:00000001FF
