:020000040000FA
:10B400000248854602488047024800470040002025
:10B4100029E1000019B400000348854600F08CFAC9
:10B4200000480047ED47010000400020401E00BFDB
:10B4300000BF00BF00BF00BF00BF00BF00BF00BF14
:10B4400000BF00BF00BFF1D170470000401E00BF29
:10B4500000BF00BF00BF00BF00BF00BF00BF00BFF4
:10B4600000BF00BF00BFF1D170470000401E00BF09
:10B4700000BF00BF00BF00BF00BF00BF00BF00BFD4
:10B4800000BF00BF00BFF1D1704730B50B46014689
:10B4900000202022012409E00D46D5409D4205D31D
:10B4A0001D469540491B2546954040191546521E9C
:10B4B000002DF1DC30BD10B5431A934209D2831838
:10B4C000881803E0401E01785B1E1970521EF9D2E5
:10B4D00010BD03460B439B0703D009E008C9121FA8
:10B4E00008C0042AFAD203E00B78491C0370401C00
:10B4F000521EF9D210BDD2B201E00270401C491EAA
:10B50000FBD270470022F6E710B513460A46044600
:10B510001946FFF7F0FF204610BD30B50446002065
:10B52000034600E05B1C934203D2E05CCD5C401B11
:10B53000F8D030BD001D0321401E037812021A43CB
:10B54000491EF9D510467047034603220870491C6E
:10B55000000A521EFAD5184670470000F0B507469B
:10B560000846584087B0C00F049048000E46590066
:10B5700040084908BC1A884105D2384631461E4663
:10B5800017460B46024658004008104303D1384680
:10B59000314607B0F0BD300D039040055900400D15
:10B5A000490D0590401A029040286DDA18030121D8
:10B5B000000B09050843019004980092002805D06B
:10B5C0000199524200208841009201900298402146
:10B5D0000A1A0199009800F01BF905460C466846C6
:10B5E00007C800F036F9C0197141039A0E0D002307
:10B5F000D71756401A467A40164340D0049A002A7C
:10B6000029D0029A012A039A11DC1205C01A91412D
:10B6100001263605001C7141D20F059ED20700930A
:10B62000019202962A46234600F033F9B1E7160547
:10B63000224A0F46B218C01AB74101210905001C61
:10B640004F4100187F41114618187941E20F10430D
:10B650006D19644113E0E2076D0815436408C207E1
:10B660001443039A01261205C01A91413605001CA5
:10B670007141CE07400830434908C01851412A465D
:10B68000234600F0F9F884E7049801224000C1172E
:10B69000121A00238B4104983146C417381AA1416D
:10B6A000EFE730B40124E407634030BC56E730B420
:10B6B0000124E407614030BC50E700000000E0FFD7
:10B6C000F0B51FB488B00B99099800244840099937
:10B6D000C00F490049080991C0070B990090490023
:10B6E00049080B9109990898A646084303D00B997D
:10B6F0000A98084303D1002001460DB0F0BD099817
:10B7000001244000420D4800410D09982405000322
:10B71000000B204309900B980003000B20430B9073
:10B7200050181A494018002201901446104601E0B2
:10B73000032801DA034600E003239C46C11A0AAE3F
:10B740000AE05F0008ADED5B4F00F75B7D4300272B
:10B75000AA187C415B1E491C6145F2DD410004AB27
:10B760005A522104120C0A43240C401C0828DFDB27
:10B77000019802900099704601910090059B049AEF
:10B780000799069800F085F8B7E700000DFCFFFF69
:10B790000EB5C217C10F5040CA0740180021054B13
:10B7A0000293019200910A460B4600F072F803B032
:10B7B00000BD0000330400000EB5054902910021D0
:10B7C00000910A460B46019100F063F803B000BDFA
:10B7D000330400004A0009030123090B1B05194328
:10B7E000094B10B5520D9A4201DA002010BD064BEC
:10B7F00034339A4203DC9A1A00F01AF810BD034958
:10B800005118884010BD0000FF030000CDFBFFFF72
:10B8100010B5202A04DB0146203A9140002010BDDB
:10B82000914020239C1A0346E3401943904010BDE9
:10B8300010B5202A04DB0846203AD040002110BD74
:10B840000B46D340D0402024A21A91400843194609
:10B8500010BD10B5202A06DBCB170846203A104150
:10B86000C1170B4306E00B461341D0402024A21A17
:10B8700091400843194610BD10B5002B08DA00248A
:10B88000401C614192185B411A4301D140084000BD
:10B8900010BDF0B51FB482B005460C0003D00846B9
:10B8A00003F004FE02E003F001FE203002460090A7
:10B8B00021462846FFF7ACFF049B059A04460F4635
:10B8C00018431143084303D12046394607B0F0BD61
:10B8D0001846104317D0009840210A1A18460599B7
:10B8E000FFF7A6FF05460E46009A05990498FFF754
:10B8F0008FFF084301D0012000E00020C11705435D
:10B900000E432C43374300990E986305401A79057E
:10B91000E40A0A3000220C43FD0A002802DA002063
:10B920000146D3E70105101969410C9C0D9D0019D2
:10B930006941FFF7A1FFC9E7064C0125064E05E066
:10B940002046E36807C82B4398471034B442F7D326
:10B95000FFF766FD74700100C470010070B58C18AB
:10B960000578401C6B075B0F01D10378401C2A113E
:10B9700006D10278401C03E00678401C0E70491C7A
:10B980005B1EF9D12B0705D40023521E0DD40B707A
:10B99000491CFAE70378401CCB1A921C03E01D787F
:10B9A0005B1C0D70491C521EF9D5A142D8D3002052
:10B9B00070BD0000EFF303803F21084080000121AB
:10B9C00049074058004701204007583000680047A9
:10B9D00001204007643000680047012040076830BC
:10B9E00000680047012040076C30006800470120D4
:10B9F0004007843000680047FEE76846714604202F
:10BA00007146084202D0EFF309800847EFF308803F
:10BA10000847FEE7FEE7FEE701DF00000C4A0020D2
:10BA200050607F230B49DB054B6148600A480221C7
:10BA3000016041608160C160016141618161C161FA
:10BA4000016281630121016301621160704700009E
:10BA500000050040000500500007005010B5062208
:10BA60000421052002F0C4F8052001F0EDFB01F0EF
:10BA7000C7FC03F0B5F901F09DFE01F03BFC10BDE1
:10BA8000F8B5194F01263E61184C21690029FCD0F8
:10BA9000002525611649886016484860012002F09B
:10BAA00015FD01F09BFC01F02DFD3E602068002893
:10BAB000FCD0002002F00AFD25600920FFF7B6FC4B
:10BAC000E560BE60E0680028FCD0E560BE6009204B
:10BAD000FFF7ACFCE0680028FCD0E5603E6120691F
:10BAE0000028FCD02561F8BD001000400011004086
:10BAF000001500400C1C0020F8B5364801270078DE
:10BB0000354D122802D02878012800D90027E8688E
:10BB100001F088FB052801D8002F57D101F072FBF6
:10BB2000E8602E48012606612D4C20690028FCD0D3
:10BB3000002020612C492B484860012002F0C6FCFF
:10BB400001F04CFC01F0DEFC24480660206800286F
:10BB5000FCD00020206002F0B9FC0920FFF766FC51
:10BB60000020E0601D498E60E268002AFCD00026BB
:10BB7000E6601A49012088600920FFF757FCE06859
:10BB80000028FCD0E66015490120086120690028E2
:10BB9000FCD026616878401CC0B268702978884261
:10BBA00000D36E7011486978415C0F488160012FA5
:10BBB0000CD1A8680E49401CA860884206D90948E3
:10BBC000AE600178FF2902D0FF210170F8BDFE218F
:10BBD000FBE700001C0E0020E81B002000100040C6
:10BBE000001100400C1C0020001500408C1C00209F
:10BBF0000F270000F8B53B4B02221A603A4B5C68F5
:10BC000014435C60394A53689B07FCD5384A137962
:10BC1000384A002B4DD0FA23D360364A00231361F3
:10BC2000FF245462344C9462FF24E443D461334CC7
:10BC30001462D362012414635361314B9361314A1E
:10BC40002828107001D9282010702E482E4F037814
:10BC50001E465B1E002B15DD01254A1E781EF407CB
:10BC6000ED07641903D0521C1478401C04705478FA
:10BC70005B1007D0921C15784470801C54780570B6
:10BC80005B1EF7D11F4C761E01D4885DB855002588
:10BC9000657018483978816002214163416B8907DA
:10BCA000890F022907D0416B8907890F012906D026
:10BCB0000AE00423B0E71549C163154903E0FF21F9
:10BCC000C163FF2108318163A56001F09BFAE06048
:10BCD000AA2220210F48FFF70EFC2571032002F055
:10BCE0001DFCF8BD80E100E00005004000040040BC
:10BCF0001C0E002000150040C8C7C6C5C2C2C20045
:10BD000000200301E81B00208C1C0020FFFF000026
:10BD1000211001000C1C0020F8B54607760F0C46D8
:10BD200005460027E2E0ED08032E0CD0042E0AD0D1
:10BD30006807400F0090330003F0CFFB08D7357F32
:10BD40000A0A9971CFD7EFB22D0A6807400F009009
:10BD500068480078032848D06748022101600AF04B
:10BD600035FB66488169090A09023943816101F09E
:10BD700029FB20680121801E0AF002FBA1692068CE
:10BD800040180D3002210AF0FBFA02200AF012FBE3
:10BD900004F08CF8042E34D05648002141705549E7
:10BDA00000200870A1E0534E3078032802D000280C
:10BDB0000CD010E003F0B6FD16200AF00FFB207F38
:10BDC000FF236268A1680AF081FB04E04A4902206F
:10BDD00008600AF0FBFA01F001FB012120680AF07B
:10BDE000CFFA04F063F801207EE003F09BFD07200A
:10BDF0000AF0F4FA207F3B466268A1680AF066FB0D
:10BE0000B5E73D493E48FC3901603E4941603C4947
:10BE1000402040394860374901204870BFE7394920
:10BE20003748EC310160374941603549402040399D
:10BE3000486030490120487057E020692F49801D33
:10BE400048600098032801D0042806D12A480168D8
:10BE50000422914308221143016020692168C079BE
:10BE6000C000E630081820600AF08AFB3DE0E06878
:10BE70002249801D48600098012806D11E480168AB
:10BE8000082291430422114301600AF079FB03F078
:10BE900077FDA07717484078002803D01748403036
:10BEA000806860771848066805F0A0FE0102090A5C
:10BEB000B14202D2FF2109064018000E0006801987
:10BEC0006061A17F002901D004290ED1E168C97900
:10BED000C900B9314018206007E0064E30780328C9
:10BEE00001D005F001FD03203070009E002D00D030
:10BEF00019E7F8BDE01100200012004000150040D5
:10BF000040F501401410004048850040F0B504465B
:10BF100000780226C0066578400F83B0042802D05E
:10BF2000002003B0F0BD01F0B9FBC7B201F062FA26
:10BF30000190A80708341E4D002817DA2846C17A58
:10BF40000122491CC1721B48052103782578401C39
:10BF5000641CAB421FD1521C8A42F6DB012401F063
:10BF600051F9014612488163047014E0287B0122D4
:10BF7000401C28731048052103782678401C641C57
:10BF8000B34207D1521C8A42F6DB012401F03AF990
:10BF9000E8636C7000260948009700780023420887
:10BFA0003046019901F01CFC012003B0F0BD0000F7
:10BFB000B41C0020820E0020860E0020600E00209F
:10BFC00010B40024002B00D11024022800D0083423
:10BFD000002900D0241D042A02D310BC2820704759
:10BFE000A01810BCC0B27047F8B5424C002660786B
:10BFF000002804D001F006F920636670F8BD3E4DBC
:10C00000A87A01280BD13D480068012807D13C4897
:10C01000FFF77CFF012814D0394800F019FE206B8F
:10C0200001F000F90A2805D8A878002859D0E97845
:10C03000002952D001F0E6F820632878002805D0C6
:10C040000EE020212E4800F0B7FDE8E701F0D2F91C
:10C050000096217800234A080146022001F0C0FB27
:10C060006878002809D101F0C5F9009621780023ED
:10C070004A080146184601F0B3FBA878002809D108
:10C0800001F0B8F90096217801234A080146022000
:10C0900001F0A6FBE878002809D101F0ABF9009681
:10C0A000217801234A080146002001F099FB2E70F7
:10C0B0006E70AE70EE70207A401CC0B220720828FC
:10C0C00000D32672217A8807400F89080843207020
:10C0D000C007C00F01F036FA06E0A87A012803D0A5
:10C0E000F8BDA87A0128FBD10121AE72084601F003
:10C0F000FBFEF8BD600E0020B41C002000140040C0
:10C10000881F00200021214A08465054491CC9B20A
:10C110000429FAD31E4A00215054491CC9B20429EB
:10C12000FAD31C4A00215054491CC9B20429FAD33D
:10C13000194A00215054491CC9B20429FAD3174A9C
:10C1400000215054491CC9B20429FAD3144A0021D1
:10C150005054491CC9B20429FAD3124A0021505440
:10C16000491CC9B20429FAD30F4A00215054491C72
:10C17000C9B20429FAD30D4A00215054491CC9B24E
:10C180000429FAD30A49888370470000481E00201A
:10C19000681E0020881E0020A81E0020C81E002047
:10C1A000E81E0020081F0020281F0020481F002034
:10C1B000600E0020F0B593B0044600276846077073
:10C1C0000D784A7801200E46C12D7DD028DC122D35
:10C1D00049D012DC042D50D008DC002D57D0012DA1
:10C1E00073D0022D58D0032D70D151E0062D6ED0A2
:10C1F000102D4DD0112D69D14AE06B2D68D008DC8F
:10C20000222D66D0322D2ED0332D7DD0342D5DD110
:10C2100029E0822D79D0832D78D0A22D56D122E02D
:10C22000F62D55D012DCDD2D71D008DCC32D6FD07A
:10C23000D22D18D0D32D16D0D42D47D113E0F12D07
:10C2400046D0F32D71D0F52D40D193E12946F73931
:10C2500007293BD20B007B441B79DB189F44FCFB76
:10C26000E5FAF9F8F70025706A46E11C304602F05D
:10C270004DFD60706846007868E125707078F21CAA
:10C28000401EC1B2B07802F097FF6070A770E5E180
:10C2900025706070A770E1E125706070A770B578B7
:10C2A0003D2045430320694608707078401E000613
:10C2B000000E707036D06F098F710AAA02A901A80A
:10C2C00002F092FC747805E0A7E02FE0B5E17AE097
:10C2D0003EE19AE0202C00D32024E806C00E202165
:10C2E000091AA14200D80C466946097802AA10181A
:10C2F00071182246FFF7DFF8F8B202AA202102F0F7
:10C30000EDFE6946087804E046E066E071E074E11D
:10C3100055E10019087070782D19001B0006000EF9
:10C320007070C8D1002013B0F0BDE3E025706070DC
:10C33000F078A070B578002D03D1CA4809798170D2
:10C34000C770E61C3D2706F025FE00280ED03A20D7
:10C350003D214D434519E804000E12AB0AAA2021E5
:10C3600002F0C2FB202F03D9202002E0F720EFE7E4
:10C370003846C4B2E906C90E2020401AA04200D2B5
:10C3800004460AA8091822463046FFF794F83619E1
:10C390002D193F1BDFD161E106F0FCFD002810D014
:10C3A0003A2625703346621D211DE01C02F010FB69
:10C3B000607020794001B04200D80646B61CA670D5
:10C3C0004CE1F726EDE725706A46E11C304602F0A5
:10C3D0000BFC607068460078B8E0521ED1B2257040
:10C3E0006B46E21CB01C02F02BFD607068460078C2
:10C3F000ACE0521ED1B225706B46E21CB01C02F0BC
:10C40000DDFD607068460078A0E02570F178B078B6
:10C410006B46E21C02F068FB0AE125706070A270B6
:10C42000B11CE01CFFF747F818E125706946097850
:10C43000491CCAB269460A70A0540878401CC0B2B0
:10C44000087027540878401C0870B01C05E047E0CD
:10C45000A2E065E034E003E01CE002F0BDFFFDE097
:10C46000257069460978491CCAB269460A70A05409
:10C470000878401CC0B2087027540878401CC0B22D
:10C4800008700146F378B278204600F0E3FC694674
:10C4900008702DE025706B461978521E491CC9B2F0
:10C4A000197060541878D2B2401CC0B2187027546A
:10C4B0001878F11C401C1870B07801F06FF8CDE0CE
:10C4C000257069460978491CCAB269460A70A054A9
:10C4D0000878401CC0B2087027540878401C8AE0D5
:10C4E00025706A461178491CC9B260547F201070CB
:10C4F000C01E2BE025706A461178491CC9B2117024
:10C5000060541078401CC0B2107027541078401C42
:10C51000C1B21170204601F0D7F86A46107015E0DC
:10C5200025706A461178491CC9B2117060541078A0
:10C53000401CC0B2107027541078401CC1B211705A
:10C54000204600F071FC6A461070C01EA07085E0A5
:10C55000257069460978491CCAB269460A70A05418
:10C560000878401CC0B2087027540878401C087036
:10C5700003200FE0257069460878401CC0B208709F
:10C5800027540878401CC0B2087027540878401C13
:10C590000870022033492EE0257069460978491C4D
:10C5A000CAB269460A70A0540978491CCAB26946E1
:10C5B0000A702C49A7540870002013B0F0BD2570F4
:10C5C00069460978491CCAB269460A70A0540878BD
:10C5D0000222401CC0B2087022540878401CC0B22D
:10C5E000087022540878401CC0B208700E212154F3
:10C5F00069460878401C087030E0257088786946E4
:10C600000F70042802D0052811D10DE000F0AAFA1D
:10C61000014615484278037812021A4389180170BE
:10C62000090A4170012003E0012000F093FA002084
:10C63000607068460078A07010E025706846007849
:10C64000401CC1B26846017067540078401CC1B2FA
:10C650006846017067540178491C0170012013B0CD
:10C66000F0BD0000100E002028120020F0B5D748C1
:10C670000027807A8FB03E4601286ED1D349002032
:10C680008872D34800230178012280200C4614428E
:10C6900000D003435206120E4008F7D1CD4C63621E
:10C6A00000F050FBE061206B400840002063CA4866
:10C6B0000068012850D1C94800F0CAFA01284BD1BE
:10C6C000C648C24D447802200440687CA04243D151
:10C6D00000F098FD294688627320C862497CC048F2
:10C6E0004908C04A0078B94D5054002C12D0A88B8C
:10C6F000401CA88300F086FDA864B849887800280B
:10C700002CD0012828D002280BD0032826D00428BA
:10C710007ED0C2E0688B401C688300F073FD286403
:10C72000EBE74878AE4B80089A788000002A15D055
:10C73000A64A927C904211D100280FD0AA48A7495E
:10C740001F220C7804701446521E491C401CD2B2A1
:10C75000002CF6D100209870CCE005E1A04801271C
:10C760008078CD783E4600287ED09C49002000F09D
:10C770009BFB9B49098A401A80B206909749012089
:10C7800000F092FB9649498A401A80B2089093497A
:10C79000022000F089FB9249898A401A80B20990F0
:10C7A0008E49032000F080FB8D49C98A401A80B26F
:10C7B0000A908648C17C491CC174022C72D08B4BF4
:10C7C00000208B490190009102902246039501219F
:10C7D000069801F0FBFE7D48C07B012811D9022C90
:10C7E00062D08249844A8C468249844B401E029121
:10C7F000039500930192C1B263462246089801F066
:10C80000E5FE7248C07B042813D9022C4ED000E00C
:10C8100041E076497B4A8C4679497B4B001F029167
:10C8200000930192C1B2039563462246099801F034
:10C83000CDFE6648C07B072811D9022C38D06B4941
:10C84000744B8C467149724AC01F00930291019249
:10C85000C1B20395634622460A9801F0B7FE6048CC
:10C86000807800283DD000E03FE05C49042000F0E3
:10C870001BFB5B492B460A8B498B801A4018534996
:10C8800080B20A7C214600F0C3FB504908750A7C3F
:10C89000002A0FD011E000270126CD78012EDED02E
:10C8A0001FE0FFE75C4B8BE75B499BE75A49B1E729
:10C8B0005949C5E74549012805D04449824210D16C
:10C8C000002808D10DE0484802785209072A08D10B
:10C8D0008078022805D1424A00209070487D401C93
:10C8E0004875012F01D0012E04D100F083FD3C4991
:10C8F00048718D713A4C2078C007C00F00F022FEBD
:10C90000A078002808D00121002001F0EDFA2F487E
:10C91000807D012803D027E001210846F5E73F4844
:10C9200005903F4800213F4C84460B460A46059837
:10C93000805C202810D29500EF290DD866466759F3
:10C94000765C491C3F5CC9B2BE4201D05B1CDBB2C5
:10C95000401CC0B22028EFD3521CD2B2092AE6D321
:10C960001A48016D591801651D4DA87800282AD074
:10C97000164CA06A00F056FCE16A884223D32A488C
:10C98000406800281FD100F03DFCA0621E20E0623C
:10C9900000F030FD00260146009628780123420869
:10C9A000607C00F01DFF2878401CC0B22870082869
:10C9B00000D12E702878C007C00F00F0C3FD012100
:10C9C000002001F091FA0FB0F0BD0000B41C00206F
:10C9D0007E0E00200015004000140040881F00203B
:10C9E000600E0020CB1C0020481E0020860E002078
:10C9F000081D0020681D0020481D0020281D002063
:10CA0000C81D0020A81D0020881D0020281E002011
:10CA1000081E0020E81D0020820E00209C6B0100F3
:10CA20009C6A0100506A010000110040F0B583B01B
:10CA3000292069460870414C4149627948790127AB
:10CA4000404E0025052A70D213007B441B79DB1869
:10CA50009F4402181E285E000E460028694609D031
:10CA60000120FFF7C7F87079002807D04E20FFF7A4
:10CA700007F85BE0012001F055FCF4E74E2001F0DF
:10CA800081FB53E0002801D0292004E0292006E0A2
:10CA9000002803D00420FEF7F3FF47E0042001F054
:10CAA00071FB43E06946012000F034FF264929204C
:10CAB0000F6131690029FCD022490D61234988604A
:10CAC00000F0F4FC00F01EFD1F4E7760B76000F030
:10CAD00099FB019000F0A6FB052801D20198F9E727
:10CAE0001848C56000F0BEFC37611648016900298E
:10CAF000FCD005616078401CC0B26070217888422B
:10CB000000D3657012486178415C104881600DE087
:10CB100000F032FD00F0F6FC0B4807600761306959
:10CB20000028FCD0356101E0FFE725716079411CE8
:10CB30006171042800D9657103B0F0BDE81B0020C5
:10CB40001C0E0020001100400010004000150040A5
:10CB50008C1C002002498875002008657047000081
:10CB6000B41C0020F0B51148002286461048114C34
:10CB70008446104613467146C95C202910D29D0098
:10CB8000EF2A0DD866466759B65C521C7F5CD2B25C
:10CB9000BE4201D0401CC0B2491CC9B22029EFD30B
:10CBA0005B1CDBB2092BE6D3F0BD0000A66B0100D5
:10CBB0009C6A0100786A0100F0B40D4B00241D78D6
:10CBC0002246042D12D26B071B0E0A4E09E0075DA8
:10CBD000F754641C5B1C521CD2B2E4B2DBB2202AB4
:10CBE00001D28A42F3D302486D1C0570F0BC704735
:10CBF000A30E00205C12002001490020087070473D
:10CC0000A30E002070B40D4D044600202B78024680
:10CC1000002B11D05B1E2B705B071B0E084D09E02B
:10CC2000EE5C26545B1C401C521CD2B2DBB2C0B27C
:10CC3000202A01D28A42F3D370BC7047A30E002091
:10CC40005C1200200148007870470000A30E00200D
:10CC5000F0B501784478C8060225400F83B0022859
:10CC600002D0002003B0F0BD00F018FDC6B200F005
:10CC7000C1FB0190A007104C0127002807DA607B58
:10CC8000401C607300F0BEFA2063A77007E0A07B31
:10CC9000401CA07300F0B6FA60630025E7700748F7
:10CCA00000960078012342082846019900F098FD7B
:10CCB000012003B0F0BD0000B41C0020600E002075
:10CCC000F7B5174600252A460121009B0198FFF77A
:10CCD00077F91B4E01213970345C30184178A1423C
:10CCE00001D301250C468178A14201D302250C46CF
:10CCF000C078A04201D30325044600221146009BC0
:10CD00000198FFF75DF9325C0021A24202D339702D
:10CD1000345C002530184278A24202D3397044783E
:10CD200001258278A24202D3397084780225C07826
:10CD3000A04201D303253970284603B0F0BD00009E
:10CD4000DC12002070B4164C002263780121802090
:10CD50001D460D4200D002434906090E4008F7D196
:10CD60001502A3780021012280201E46164200D021
:10CD700001435206120E4008F7D129430D02E37811
:10CD80000021012280201C46144200D0014352069B
:10CD9000120E4008F7D1294370BC0802704700000A
:10CDA0007E0E002010B40748012203780020802165
:10CDB0001C46144200D008435206120E4908F7D10F
:10CDC00010BC70477E0E002070B4164C00226378B1
:10CDD000012180201D460D4200D002434906090E64
:10CDE0004008F7D11502A3780021012280201E46B9
:10CDF000164200D001435206120E4008F7D12943D3
:10CE00000D02E3780021012280201C46144200D04C
:10CE100001435206120E4008F7D1294370BC0802A4
:10CE200070470000940E0020094AD3784354491CEF
:10CE3000C9B2537843547F23491C5370C9B29278C6
:10CE40004254491CC9B2AA224254491CC8B2704774
:10CE50001C0E002030B40446012A1FD11148C569B8
:10CE60008269954200D2C261022B07D3828B150AD8
:10CE70006554491CC9B26254491CC9B2042B07D37A
:10CE8000028A150A6554491CC9B26254491CC9B2C8
:10CE9000052B03D3C0786054491CC9B230BC084686
:10CEA00070470000E81B002010B5400040180179D1
:10CEB000407909020818C004000CFEF77DFC064BFF
:10CEC0009A6BDB6BFEF7FCFBFEF784FC034980B238
:10CED000884200D9084610BD600E002088900000EE
:10CEE00070B4164C00226378012180201D460D424B
:10CEF00000D002434906090E4008F7D11502A37875
:10CF00000021012280201E46164200D00143520615
:10CF1000120E4008F7D129430D02E37800210122C7
:10CF200080201C46144200D001435206120E4008D5
:10CF3000F7D1294370BC080270470000D41C0020C0
:10CF400003480168491C01600249002008607047DD
:10CF5000D811002000E10040094840680022C106C5
:10CF6000084B0948002905DA1A614188491C4180AB
:10CF7000012181605A60C068002800D000477047D6
:10CF80000013004000110040E0110020054800217E
:10CF90004160054B01225A600268002AFCD0016002
:10CFA00070470000001100400010004010B50B4910
:10CFB0004B6800220A48012B04D1838802242343B2
:10CFC00083804A608B68012B07D143885B1C4380B8
:10CFD00083880424234383808A6010BD40810040FD
:10CFE000101200200149C86070470000E0110020C5
:10CFF0000648054901600449F03941600349402071
:10D0000040394860704700000411004040F501407D
:10D01000FFB51546064600276749FF2283B05F200B
:10D0200003460A70401E491CC0B2002BF8D1002DE7
:10D0300000D101250021022007F0E0FE00F048FAAF
:10D040005E49002008635E480021037801228020A9
:10D050001C46144200D001435206120E4008F7D17C
:10D0600056488162FFF7B0FE54490862086B1021F0
:10D070000843524908630020C8620698886020204F
:10D0800000904D480024486000F010FA0021012073
:10D0900007F0B4FE4B480121816001F035FAB0423F
:10D0A00070D2AF426ED2484BD8680128F5D14249C0
:10D0B00000980A1841484260424A012090600022CC
:10D0C000DA60424A1268D2B296460A19049901926D
:10D0D0008C461178CB065B0F022B49D15278009217
:10D0E000CB070240DB0F9A4242D0009A02231A403B
:10D0F00062453DD17246012A3AD1354AD1714A0979
:10D10000921E022A05D853008907D218890F511898
:10D11000CFB22F49B8408A8B104388830199092FD9
:10D1200024D23B007B441B79DB189F440406080A89
:10D130000C0E1012140027480EE027480CE0274878
:10D140000AE0274808E0274806E0274804E0274887
:10D1500002E0274800E027481F220B78037013469F
:10D16000521E491C401CD2B2002BF6D17F1CFFB2CC
:10D17000202C03D02024002000908EE700242020C3
:10D18000FAE7FFE700F06EF911481C4B808B1A4953
:10D1900042081A40801A024680080A4008401018C7
:10D1A00001090818164907B00840010A0818010CBF
:10D1B00008188006800EF0BD881F00200015004072
:10D1C000940E0020001000400011004000140040A8
:10D1D000600E0020481E0020681E0020881E0020CF
:10D1E000A81E0020C81E0020E81E0020081F0020E6
:10D1F000281F0020481F0020333333335555555521
:10D200000F0F0F0F01210448890201600348044AEF
:10D21000006811607047000080E100E0140E0020FB
:10D2200000E100E00121054A89021160044A054B32
:10D230001268196002490968081A704780E100E025
:10D24000140E002000E100E0F8B5044616484168DD
:10D250000515294341601549486840050BD4012252
:10D2600006E01046521C0A2802DB00F051F802E0EA
:10D2700048684005F5D50E4900224A60042008613F
:10D280000C4B0120D8607D26F6000B4F66433E60B4
:10D290000A4E30608A600A4A0104516009490D60F3
:10D2A00009494C601860F8BD0005004000040040CA
:10D2B00000A5004000A0004040A5004000A20040A2
:10D2C00000A3004000E100E0140E0020C106C90EDA
:10D2D00001208840014908607047000080E100E0BB
:10D2E000C106C90E0120884001490860704700004E
:10D2F00000E100E0044841688205114341600348B1
:10D3000041684900FCD5704700050040000400401A
:10D310000149032048707047100E002070B501F0DD
:10D320002BF918490020C860486017480068174D5D
:10D33000012401281CD1164A1C211078084010280D
:10D3400001D0082814D113498B78002B03D0C97859
:10D3500000290BD010E0C878012801D002280BD199
:10D360000D4990680968884202D105E0082803D079
:10D3700001F01EF9AC6070BD084902200860084841
:10D38000847270BD00110040001400400010004085
:10D39000881F0020600E0020D41C002080E100E0E7
:10D3A000B41C00200549002048700548416801224E
:10D3B000520791435210114341607047A00E002064
:10D3C00000050050044841681322D205914303220E
:10D3D000120611434160704700050050044841683F
:10D3E0001322D20591430122D20689184160704769
:10D3F000000500500148407870470000A00E002052
:10D4000013484168C2051143416012484168002930
:10D41000FCDA11490D20C861086248628862C8625E
:10D42000086348630D4841681322D20591430122E5
:10D43000D206891841604168921091434160416869
:10D4400052009143416006490220887070470000F5
:10D450000005004000040040400700500005005057
:10D46000A00E00200348416801225206914341600A
:10D4700070470000000500500148807870470000A8
:10D48000A00E00200348416801229206114341602A
:10D4900070470000000500500348416801229206D1
:10D4A0009143416070470000000500500648416804
:10D4B0001322D2059143032212061143416003490E
:10D4C000012088707047000000050050A00E002069
:10D4D0000A4841681322D20591430122D2068918D5
:10D4E000416041689210914341604168520091430C
:10D4F0004160034902208870704700000005005019
:10D50000A00E002070B40D4B01251E7829070024C1
:10D510000B484A00022E02D0002E03D007E05E78AE
:10D52000002E04D05C70436893430B4303E05D70AE
:10D5300043688B431343436070BC7047A00E0020C8
:10D540000005005010B401225207094C094953103C
:10D55000002807D001206070486898431043486055
:10D5600010BC704700206070486890431843F6E78D
:10D57000A00E002000050050064841681322D20585
:10D5800091430122D2058918416003490020887027
:10D590007047000000050050A00E002030B40024A9
:10D5A0000125012812D013232B4ADB0502281ED0A7
:10D5B00003282CD0042837D005283BD0274906283B
:10D5C00047D0072800D10C7030BC70470978244838
:10D5D000002906D0012907D00229F5D1017030BCFD
:10D5E0007047047030BC7047057030BC70470878D5
:10D5F0000028506806D001219843C90540185060A2
:10D6000030BC70470321984309060843F7E70978BF
:10D6100001204006002902D15168814301E0516890
:10D620000143516030BC7047097801208006002911
:10D63000F5D1F1E709780120C0060029516804D02E
:10D6400099430818506030BC70478143516030BC2A
:10D6500070470D7030BC704700050050210E00204F
:10D66000A00E002030B50D46002403462246214678
:10D670002846FEF7A5FCC11D88420BD806490818AC
:10D6800008210278A24200D91446401C491E09060E
:10D69000090EF6D1204630BDDC12002008497F205B
:10D6A000CA69012A09D1074A90687F239360002242
:10D6B000CA61642802D26421081A704700207047AA
:10D6C0000011004040150040F0B586B0044600202F
:10D6D0006A4610743548002214238D18EFB246783C
:10D6E000801C6D1C921CE6555B1E0678EDB21B0675
:10D6F00066551B0EF1D128313020CDB205900221A4
:10D7000004AA0120FFF7DCFA01466846007C605558
:10D710006D1CE8B22154401CC5B2002104AA0120AE
:10D72000FFF7CEFA01466846007C60556D1CE8B2F2
:10D730002154401CC6B200256846057005716A4632
:10D7400002212846FFF7BCFA0021039001AA0846EF
:10D75000FFF7B6FA02906846017800230220039A88
:10D76000FEF72EFC124900230F5C6846017918462B
:10D77000029AFEF725FC0E49085C8742684603D9E9
:10D7800001780174039802E00179017402986946F6
:10D79000097CA155761CF1B26054491CC8B22554CD
:10D7A000401CC0B22554059806B0F0BDDB12002025
:10D7B000DC12002010B507484168C20511434160E2
:10D7C000054841680029FCDA28210448FDF79AFE43
:10D7D00010BD00000005004000040040DC120020E5
:10D7E00010B5029CFEF7ECFB7F2C03D0282803D356
:10D7F000002010BD282010BD0649002C0A5C02D074
:10D800001219520802E013019A1A12090A5401204F
:10D8100010BD0000DC120020F8B50124FFF746FE21
:10D82000FFF770FE3548012646608660FFF7EAFC88
:10D83000334F0546F868002804D12846FFF7F2FC6C
:10D840000A28F7D3F86800222E4D012815D12E4959
:10D850000B5CFF2B00D00024401CC0B2202802D259
:10D86000012CF5D006E0012C04D10878FF280AD05D
:10D87000FE2808D06869401C68611446FA60F8699F
:10D88000012822D024E0E97800290AD001290BD010
:10D890000229F2D1A978884211D12869401C286157
:10D8A000EBE7A870EE70E8E72969491C2961A978BF
:10D8B0008842E2D002212E61E970A870DDE7A870ED
:10D8C00028692E616A61A861D7E7FC610B4886610F
:10D8D000FFF7C8FD6878401CC0B26870297888429C
:10D8E00000D36C7009486978405C09498860034836
:10D8F000066138690028FCD03C61F8BD001000408A
:10D9000000110040E81B00204C1C00208C1C002053
:10D9100000150040F3B50D46384981B0022008607B
:10D9200037494A6802434A60364841688907FCD54E
:10D93000354C0026E66001272761FFF733FA606265
:10D94000FFF700FAE061E662276366612F48A06195
:10D950002F4801990170282901D9282101702C48EC
:10D960002C4F02781646521E002A15DD01236C1E2C
:10D97000781EF107DB07C91803D0641C2178401C0E
:10D9800001706178521007D0A41C23784170801C6C
:10D9900061780370521EF7D11D4A761E01D4A85D2E
:10D9A000B8550021517018483B78836002234363C7
:10D9B000436B9B079B0F022B05D0436B9B079B0F71
:10D9C000012B04D008E0144BC363144B03E0FF2386
:10D9D000C363FF2308338363114B4360114B7F20E4
:10D9E0009860917011619161D1701171FFF700FB26
:10D9F000032000F093FD03B0F0BD000080E100E0E3
:10DA00000005004000040040001500400020030114
:10DA1000E81B00208C1C0020FFFF000021100100EB
:10DA20004C1C002040150040F8B5FFF73FFDFFF704
:10DA300069FD164E01257560B560FFF7E3FB0446EE
:10DA40002046FFF7EFFB0528FAD3114C0027E760CB
:10DA5000FFF708FD356120690028FCD027610D48DB
:10DA60004178491CC9B241700278914200D3477095
:10DA700009494078085C09498860FFF7C3FB044600
:10DA80002046FFF7CFFB0528FAD3F8BD0010004071
:10DA900000110040E81B00208C1C002000150040F5
:10DAA000F8B5FFF79BFCFFF72DFD204801264660E7
:10DAB0008660FFF7A7FB1E4D0446E868002804D1E6
:10DAC0002046FFF7AFFB0A28F7D30027EF6019487D
:10DAD0000068012821D1E86901281ED11648806814
:10DAE000C4B21648FEF712FA012816D11448222CA7
:10DAF000447002D810497F228A607F2C0DD0817833
:10DB0000A14200D98470C178A14201D37F2900D1FC
:10DB1000C4700C49086A401C0862EF6103488661C2
:10DB2000066128690028FCD02F61F8BD0010004074
:10DB30000011004000140040401500404C1C002023
:10DB40001C0E0020E81B0020F8B5FFF7AFFCFFF724
:10DB5000D9FC2048012646608660FFF753FB1E4D26
:10DB60000446E868002804D12046FFF75BFB0A283A
:10DB7000F7D30027EF6019480068012821D1E86930
:10DB800001281ED116488068C4B21648FEF7BEF9B7
:10DB9000012816D11448222C447002D810497F2243
:10DBA0008A607F2C0DD08178A14200D98470C17821
:10DBB000A14201D37F2900D1C4700C49086A401CDE
:10DBC0000862EF6103488661066128690028FCD07D
:10DBD0002F61F8BD0010004000110040001400400B
:10DBE000401500404C1C00201C0E0020E81B0020AB
:10DBF00030B40C4B5C6808252C435C600A4B5C68B5
:10DC00002407FCD5094B9A60D860196198055862C1
:10DC1000012018600649002048610649886030BC30
:10DC2000704700000005004000040040003500403F
:10DC30004035004000310040F8B50546481EC4B2EA
:10DC400000290FD0084F0026FE610420FDF70EFCCE
:10DC5000B869287005486D1C86602046641EE4B2D1
:10DC60000028F1D1F8BD000000350040003100402F
:10DC7000F8B50746501E0D4D0E46C4B2002A10D00E
:10DC80000B490020886038787F1CE8610420FDF78C
:10DC9000EDFBA86930702046641E761CE4B20028B3
:10DCA000EED1034900208860A869F8BD0035004026
:10DCB00000310040F8B50546481EC4B200290FD017
:10DCC000084E002728786D1CF0610420FDF7CEFB7C
:10DCD000B069054887602046641EE4B20028F1D18F
:10DCE000F8BD0000003500400031004002480069E6
:10DCF0008007C00F7047000000050050024800690F
:10DD0000C007C00F7047000000050050F0B50526A1
:10DD1000A1B01D4614460746002805D00A46014614
:10DD200010A8FDF7C8FB03E0402110A8FDF7EAFBAF
:10DD30004C48006981070ED5002F0CD0C00705D0D4
:10DD40004022694610A8FFF793FF0AE0402110A87F
:10DD5000FFF7B0FF7FE0C00726D040216846FFF7FD
:10DD60006BFF002605F016F94027002802D040225C
:10DD7000694615E0002C04D06088002801D00226F6
:10DD800018E028886946002801D001264BE00E786B
:10DD90000A46022E0BD0012E45D0052E04D040227B
:10DDA000A81CFDF788FB2F80304621B0F0BD6088AD
:10DDB000002804D080B2402825D2024624E000206A
:10DDC000A073E0731379D5781A022A4322803B2A84
:10DDD00002D93B3A62803B228B784D781B071B0DA2
:10DDE0001D43A5818B7825460E351B099B0708D05E
:10DDF0000123184328702046491D1030FDF75BFBB6
:10DE00000DE00223F5E7402221881546081A001983
:10DE100010306946FDF74FFB6088401B60806088CA
:10DE2000002818D1C0E70022002816D02B791C1A30
:10DE3000E41CBB1AA34200D21C468918AA1C8018F5
:10DE40002246FDF738FB2888001980B228802979FE
:10DE5000C91C8842A8D00026A6E7CC78E41C012281
:10DE6000E7E700000005005070B51C4D0346A97897
:10DE70000020002930D1FEF745F9194C9878E0735D
:10DE8000D878207418796074002801D0022060745A
:10DE90005879A0740126AE700020E0742075FFF759
:10DEA000B1F9A0627320E062FFF7E6FA022811D010
:10DEB000607C0C494008085C28703040FFF742FB4A
:10DEC000A07A002802D0FEF7D1FB03E00121002058
:10DED00000F00AF86E70012070BD0000600E002096
:10DEE000B41C0020CB1C0020F3B50746334881B09A
:10DEF0000025C5604560324829468572022006F03B
:10DF00007DFFFFF7E5FA2F482F4900782F4C400896
:10DF1000085CA06025630126002F13D02C48002147
:10DF20000378012280201F46174200D00143520689
:10DF3000120E4008F7D16162FEF704FFE061206B2A
:10DF400030432063029800281BD0224908784A7881
:10DF50008B78C97802430B431A4312D00022012365
:10DF6000802107461F4200D00A435B061B0E49086A
:10DF7000F7D1A262FEF728FF2062206B1021084330
:10DF80002063E5621448FF221F210B460270491EE0
:10DF9000401CC9B2002BF8D100F00AFB0E486060AB
:10DFA000FFF784FA0021012006F028FF0B48866065
:10DFB0000B490220086003B0F0BD000000110040D2
:10DFC000B41C0020600E00208A0E002000150040C6
:10DFD0007E0E0020940E0020881F002000100040BC
:10DFE00000E100E0F8B52F4D0026E978002956D170
:10DFF0002D4982780A70C2784A7002798A70427913
:10E00000CA7041780023091FCAB22849284C8B7076
:10E01000CA70202A20D2002A11D0401DC91CD60760
:10E0200003D0401C0678491C0E70520807D0467871
:10E030004E70801C891C06780E70521EF7D1012686
:10E04000EE701C48FF2263711F210B460270491EAF
:10E05000401CC9B2002BF8D1676AFFF7D3F86062A1
:10E06000FFF70AFA022818D0A07A002802D000F0A0
:10E070008DFB12E0002F06D03846FFF7D3F8962824
:10E0800001D2207900E000202870C007C00FFFF700
:10E0900059FA00210120FFF727FF01206870304660
:10E0A000F8BD0000600E0020D41C0020681F002076
:10E0B000B41C00203C12002030B5164983B0486ED5
:10E0C000896E154D02910190287814494008085C2A
:10E0D00000901348002402780121802013460B424F
:10E0E00000D004434906090E4008F7D1FEF72AFE86
:10E0F00004430C480194FEF775FF2878C007C00F51
:10E10000FFF720FA6946002006F078FEFFF7CEF907
:10E1100003B030BD506B0100600E00208A0E00205D
:10E120007E0E00201DD300000B48416A03221143DC
:10E1300041620B4A094911600121416109480022ED
:10E1400002608205116000BF00BF00BF00BF016810
:10E150000029FCD070470000000500400024F400B6
:10E160000812002000010040044842680168891834
:10E17000016003490020086070470000140E002071
:10E1800040A10040F8B51C4F01263E611B4C21699F
:10E190000029FCD00025256119498860194848608C
:10E1A000012000F093F9FFF7E7F9FFF7ABF93E60C4
:10E1B000FFF768F9256020680028FCD0002000F0F7
:10E1C00085F925600920FDF731F9E560BE60E0685A
:10E1D0000028FCD0E560BE600920FDF727F9FFF7B5
:10E1E0005BF9E0680028FCD0E5603E61206900280A
:10E1F000FCD02561F8BD0000001000400011004077
:10E20000001500400C1C0020F8B53E48012700789E
:10E210003D4D122802D02878012800D90027E8684F
:10E22000FFF700F8052801D8002F68D1FEF7EAFFB4
:10E23000E860012000F04AF9012000F055F9334967
:10E2400001200861324C20690028FCD0002626619C
:10E25000304600F049F930492E484860FFF78CF904
:10E26000FFF750F9294901200860FFF70BF92660F4
:10E2700020680028FCD026600920FDF7D7F8E6606A
:10E28000224901208860E268002AFCD0E6601F492C
:10E29000012088600920FDF7C9F8FFF7FDF8E06864
:10E2A0000028FCD0E660012000F01EF9174901208B
:10E2B000086120690028FCD02661002000F014F9D4
:10E2C000002000F003F96878401CC0B2687029781B
:10E2D000884200D36E7011486978415C0E488160B5
:10E2E000012F0CD1A8680E49401CA860884206D9AD
:10E2F0000848AE600178FF2902D0FF210170F8BD07
:10E30000FE21FBE71C0E0020E81B0020001000404F
:10E31000001100400C1C0020001500408C1C002047
:10E320000F270000F8B53B4B02221A603A4B5C689D
:10E3300014435C60394B5A689207FCD5384A002375
:10E340001479384A002C4CD0FA24D460354A012480
:10E350001461FF255562344D9562FF25ED43D5616B
:10E36000324D15620023D36214635361304B9361C5
:10E37000304A2828107001D9282010702D482E4FBF
:10E380000678731E002B15DD01254A1E781EF40742
:10E39000ED07641903D0521C1478401C04705478A3
:10E3A0005B1007D0921C15784470801C547805705F
:10E3B0005B1EF7D11F4C761E01D4885DB855002531
:10E3C000657018483978816002214163416B890783
:10E3D000890F022907D0416B8907890F012906D0CF
:10E3E0000AE0D360B2E71549C163154903E0FF2194
:10E3F000C163FF2108318163A560FEF703FFE06080
:10E40000AA2220210F48FDF776F82571032000F09D
:10E4100085F8F8BD80E100E0000500400004004000
:10E420001C0E002000150040C8C7C6C5C2C2C200ED
:10E4300000200301E81B00208C1C0020FFFF0000CF
:10E44000211001000C1C0020F8B51A4D1848686016
:10E45000FFF792F8FFF756F8174E03203060174C7D
:10E4600001272760FFF70EF800F04CF8FEF7CAFE10
:10E470000090FEF7D7FE052801D20098F9E70022A8
:10E48000326027610E4801690029FCD01446026100
:10E49000FFF702F80B484178491CC9B24170027875
:10E4A000914200D3447008494078085CA860F8BDE8
:10E4B0000C1C0020001500404015004000100040DA
:10E4C00000110040E81B00208C1C0020012205499F
:10E4D00012030028486802D01043486070479043F8
:10E4E000FBE7000000050050FF220549013200282B
:10E4F000486802D01043486070479043FBE7000033
:10E5000000050050704700000249012008600248E1
:10E5100000687047409000404095004070B47D21F5
:10E52000C9000F4B484359685C15214359600D4998
:10E530004A689205FCD50C4A0125D5600B4E042192
:10E5400031610B49086015600A4801680029FCD058
:10E550000021016055605868A043586070BC704746
:10E56000000500400004004000900040009500407D
:10E5700040950040409100400948416842151143D0
:10E580004160084841688905FCD507490120C860F9
:10E59000064A00235360042313610860704700009B
:10E5A000000500400004004000900040009500403D
:10E5B0000449012048600448416842159143416084
:10E5C000704700000090004000050040F8B50E467E
:10E5D0000746354C069A099903201D782570054693
:10E5E000401E5B1C641CC0B2002DF6D12F4B0120D5
:10E5F00018612F480369002BFCD02D4800230361CC
:10E600002C4DA9606A6028480021037801228020EF
:10E610001C46144200D001435206120E4008F7D1A6
:10E620006962FEF75DFCE8610020E862FEF7A4FF86
:10E63000FC1FFC3CFFF768FFA042FBD31B490120F5
:10E640000860FEF71FFF1A4C20680028FCD000204D
:10E650002060093FFFF758FFB842FBD30920FCF7C1
:10E66000F5FE124A01219160E0680028FCD00023E9
:10E67000E360012E06D9079868609160E068002881
:10E68000FCD0E360022E06D9089868609160E068CB
:10E690000028FCD0E360FEF7FFFE0021022006F018
:10E6A000ADFBFEF715FFF8BDD41C002000100040A4
:10E6B0000011004000150040F3B581B00021022098
:10E6C00006F09CFBFEF704FF2B4C2A4860602B48A9
:10E6D00000210378012280201D46154200D001430D
:10E6E0005206120E4008F7D16162FEF7F9FBE061B5
:10E6F0000026E662FEF740FF214F0E20385EFDF750
:10E7000047F804460D460198FDF756F8FB6BBA6BC7
:10E71000FCF7D6FF22462B46FCF7C3FFFDF75AF85D
:10E7200085B2EC1FFC3CFFF7EFFEA042FBD315487F
:10E7300001270760FEF7A6FE134C20680028FCD0D6
:10E740002660093DFFF7E0FEA842FBD30920FCF755
:10E750007DFE0C488760E0680028FCD0E660FEF78C
:10E760009BFE0021022006F049FBFEF7B1FE03B03C
:10E77000F0BD0000681F002000150040D41C0020E0
:10E78000600E00200010004000110040F8B5584D08
:10E790000027A87A574C012870D15748AF720378E8
:10E7A0000020012280211E46164200D00843520656
:10E7B000120E4908F7D1514EB062FEF705FB3062E8
:10E7C000306B1021884330634D48006801284CD1DC
:10E7D0004C48FDF79BFB012847D1E0780226022830
:10E7E00002D001283DD040E046480278D106490FCA
:10E7F000042926D14178237908463040834220D12C
:10E8000002281AD0EB7952095201934219D10228F9
:10E8100015D0687A89088900884212D13A49394866
:10E820001F2203780B701346521E401C491CD2B2A3
:10E83000002BF6D10320E0704AE0AB79E3E7287AB9
:10E84000E8E700F063F801280FD16879401CC0B2F6
:10E850006871032809D2FEF7D5FC68622078287118
:10E8600003E000F053F8012830D0E07800282FD0E2
:10E8700003282DD000210120FFF736FBE078002887
:10E8800035D0032833D0686AFEF7CCFC96282ED307
:10E89000FEF7B8FC6862FEF7ADFD014600972078F0
:10E8A000002342080220FEF79BFFFEF7A3FD00971E
:10E8B000217800234A0801461846FEF791FF207888
:10E8C000401CC0B22070082807D007E0E670C2E7FD
:10E8D00001210846FFF708FBD0E727702078C00722
:10E8E000C00FFEF72FFE00210120FFF7FDFAF8BD53
:10E8F000B41C0020600E0020940E00200015004083
:10E9000000140040881F00203C120020F8B52A4B5C
:10E910001E78F006400F04284CD1284828490124CD
:10E92000052205780F78401C491CBD4242D1641C69
:10E930009442F6DB1879597900024018C004000CA3
:10E940000090204A5C780220D178012704401E4DB7
:10E95000012914D0022C1FD0E87914710822104329
:10E960001A4E0129307019D0022C21D0687A214624
:10E97000384370700098FFF79FFE0120F8BD7009C2
:10E98000400120300006000E00D12020022C01D0D2
:10E99000E871E2E7A871E0E7A879DEE7FEF732FC6C
:10E9A0008006000E022C01D06872E0E72872DEE7D4
:10E9B000287ADCE70020F8BD881F0020901F002087
:10E9C000D41C0020600E0020B41C0020681F002012
:10E9D000F8B51D46394B0446DE7C26701C7D0C7054
:10E9E000374900208C78002C1ED09C7A14705C7BF8
:10E9F00054709C7B94701C7FD4709C7E14715B7DE2
:10EA000053710B7893714B79D3718B7913720B7FA0
:10EA100053728B8B1B0A9372FF23D372137353733E
:10EA20009373C979D173F8BD00208646002D42D07A
:10EA3000A446202D01D9202600E02E466F46002056
:10EA40003870604600282CD1701E1F2829D87046C7
:10EA5000092826D203007B441B79DB189F44040657
:10EA6000080A0C0E1012140016480EE016480CE0AE
:10EA700016480AE0164808E0164806E0164804E082
:10EA8000164802E0164800E0164814461F21037895
:10EA900023700B46491E401C641CC9B2002BF6D1E2
:10EAA0003E707046401CC0B286463878291ACDB2F6
:10EAB0001218002DBDD10120F8BD0000B41C0020AB
:10EAC000600E0020481E0020681E0020881E0020C6
:10EAD000A81E0020C81E0020E81E0020081F0020DD
:10EAE000281F0020481F002070B4044600201D4647
:10EAF00018701A4B9B78002B2BD14B1E1F2B28D83C
:10EB00000120092C27D223007B441B79DB189F446A
:10EB10000406080A0C0E10121400114C0EE0114CE1
:10EB20000CE0114C0AE0114C08E0114C06E0114CCD
:10EB300004E0114C02E0114C00E0114C1F23267838
:10EB400016701E465B1E641C521CDBB2002EF6D1F2
:10EB5000297070BC704770BC00207047600E0020A8
:10EB6000481E0020681E0020881E0020A81E0020CD
:10EB7000C81E0020E81E0020081F0020281F0020BB
:10EB8000481F0020F0B589B015460C46074604F032
:10EB900001FA002810D03A203D214C430619002DDF
:10EBA0001FD0F004000E08AB6A462021FFF79CFF3F
:10EBB000202D03D9202002E0F720EDE72846C4B23B
:10EBC000F106C90E2020401AA04200D20446684631
:10EBD000091822463846FCF76EFC3F1936192D1BE2
:10EBE000DFD109B0F0BD000010B4807800240928FE
:10EBF0002DD8202313700A2829D203007B441B79C7
:10EC0000DB189F440406080A0C0E10121416124852
:10EC100010E012480EE012480CE012480AE01248D8
:10EC200008E0124806E0124804E0124802E01248E8
:10EC300000E012481F2203780B701346521E401C3E
:10EC4000491CD2B2002BF6D110BC012070471470C1
:10EC500010BC002070470000081D0020281D002067
:10EC6000481D0020681D0020881D0020A81D0020D0
:10EC7000C81D0020E81D0020081E0020281E0020BE
:10EC800070B500F0DBFA012829D01D4881780029F1
:10EC900002D0FDF7EBFC09E0C078002804D003287F
:10ECA00002D0FFF773FD01E0FDF79EF91548022140
:10ECB000407800250840144C002811D002280ED1BD
:10ECC000A08B00280BD0042803D9A583FEF79AFA5D
:10ECD000E064A06CFEF7A6FAC82800D9A58370BD31
:10ECE000608B0028FBD0042803D96583FEF78AFADD
:10ECF0006064206CFEF796FAC828F0D9658370BD71
:10ED0000600E0020881F0020B41C002070B514463F
:10ED10000A46002601782F4B3546A22942D006DC50
:10ED2000122946D032294ED0342939D106E0D229D1
:10ED30000AD0D3290BD0D42932D127E09D70FEF719
:10ED40009BFB022827D11FE0FFF74CF939E022484E
:10ED5000D9784079032905D0002915D001212170E7
:10ED6000107034E01070521C1C491F200E78167071
:10ED70000646401E491C521CC0B2002EF6D121206E
:10ED80002070DD70012622E0012609E0DD70FEF72B
:10ED900073FB0228F8D001210846FFF7A5F8F3E736
:10EDA000257014E0012620211046FDF72BFF20706E
:10EDB0000DE041788378491EC21CC9B2184600F0A4
:10EDC0008DF90646ECE7FFF74FF80646257030460A
:10EDD00070BD0000600E0020B41C00203C1200201A
:10EDE00070B5154D00202870A870144CE870607143
:10EDF000A071E07120726072A072E0722073607383
:10EE0000A073E07320746074A074E0746075207562
:10EE1000FEF7F8F9A063FEF7F5F9E063FEF7F2F903
:10EE20002063FEF7EFF92063FEF7BCFAFDF7E4FE7E
:10EE3000FEF7E8F9286370BD600E0020B41C0020C6
:10EE400070B5002102781C460D46162A72D21300B6
:10EE50007B441B79DB189F449F0D0A3D0A0A6E0A0A
:10EE60000A9F0A619F495512349F9F0A7A91012196
:10EE7000257092E0FDF7C0FE012125708DE04178FC
:10EE8000827809028A1846490A82C27803791202F6
:10EE9000D2184A82427983791202D2188A82C279C0
:10EEA000037A1202D218CA82427A837A1202D218E4
:10EEB0000A83C27A007B1202101848830121257050
:10EEC0006BE041788078090208183549C881012132
:10EED000257062E0334942780A7082784A70C278BD
:10EEE0008A700079C8700121257056E02E49427859
:10EEF0000A7082784A70C2788A700079C8700121DD
:10EF000025704AE0294942780A7082784A70C278AE
:10EF10008A700079C870012125703EE02449427949
:10EF20000A7082794A70C2798A70007AC8700121A9
:10EF3000257032E030E01F4942780A7082784A70CA
:10EF4000C2788A700079C8700121257025E0C178E7
:10EF50000279090289180BD04278807812021018C1
:10EF6000FCF793FAFCF728FC0D4AD16390637EE727
:10EF70000B4A11490020D163906378E7C178027988
:10EF800009028A1806494A814279807912021018CA
:10EF900088810121257000E02570084670BD0000C1
:10EFA000600E00207E0E0020820E0020860E0020C3
:10EFB0008A0E0020940E00200000F03FF8B50546B0
:10EFC0001E46144600202B780A2204270146092BEE
:10EFD00006D001220C2B08D00022112B74D10DE099
:10EFE00001212270677002206BE03948012100780E
:10EFF000384B4008185C2070327066E06B78A52BA7
:10F0000062D2002B05D92254401C6978C0B28142DB
:10F01000F9D8314FF87A2070387B6070A270E270B6
:10F02000787B2071B87B607168780C2815D9386BB3
:10F03000FEF7F8F826494989884200D3481C010A9E
:10F0400021726072786BFEF7EDF821494989884298
:10F0500000D3481C010AA172E0726878162815D9FD
:10F06000B86BFEF7DFF81A498989884200D3481C3B
:10F07000010AA174E074F86BFEF7D4F81449898989
:10F08000884200D3481C010A2175607568782228DF
:10F0900015D302210120FEF7E5FAA0770021012017
:10F0A000FEF7E0FAE077202702210020FEF7DAFAE7
:10F0B000E055002121270846FEF7D4FAE05568788C
:10F0C0000121307001E0FFE732700846F8BD000012
:10F0D000600E00208A0E0020B41C002070B42B4B60
:10F0E00004469B780020002B4BD14D1E1F2D48D885
:10F0F00001200A2C47D223007B441B79DB189F4454
:10F1000004222426282A2C2E3032224E002333704B
:10F110007370214E1E4C33707370204E33707370B9
:10F120001F4E337073701F4E337073701E4E3370EA
:10F1300073701E4E337073701D4E337073701D4E9E
:10F140003370737010E0134C0EE0134C0CE0134C52
:10F150000AE0134C08E0134C06E0134C04E0134C97
:10F1600002E0134C00E0134C0B46E9B2002B08D030
:10F17000137823700B46491E521C641CC9B2002B25
:10F18000F6D170BC704770BC00207047600E002044
:10F19000081D0020281D0020481D0020681D00209B
:10F1A000881D0020A81D0020C81D0020E81D00208B
:10F1B000081E0020281E002020292BD8092829D22B
:10F1C00003007B441B79DB189F440406080A0C0EDD
:10F1D0001012140010480EE010480CE010480AE02D
:10F1E000104808E0104806E0104804E0104802E02B
:10F1F000104800E010484B1EDBB2002908D01178FF
:10F20000017019465B1E521C401CDBB20029F6D16E
:10F210000120704700207047481E0020681E002013
:10F22000881E0020A81E0020C81E0020E81E002006
:10F23000081F0020281F0020481F0020F8B55F4845
:10F24000012400781E285AD203007B441B79DB1866
:10F250009F44AA0EB2181BB2B2B2B2B2B2B2B2B2EC
:10F26000B2B2B2B20E1E212F56B25C8259A70E0E58
:10F2700052484079002802D0FCF73EFC9CE0FEF7A3
:10F28000C3FF99E0FEF7D0FB96E0FEF7C5FA93E0E6
:10F29000FFF7DAF890E04A4D2879002806D0FEF70B
:10F2A000C3FB2879401CC007C00F27E0FFF7CCF84C
:10F2B000F7E7434D2879052817D203007B441B79D3
:10F2C000DB189F440202020C0F003C4840790028E2
:10F2D00002D0FCF711FC0AE0FEF796FF07E0FFF70B
:10F2E000B3F804E0FEF7A0FB01E0002028712879C4
:10F2F000401CC0B2287104285ED9002028715BE050
:10F30000FEF722FC58E0FEF7CBFB55E0FEF766F86F
:10F31000FEF7F8F82B4E01257560B560FDF772FF1A
:10F3200007463846FDF77EFF0528FAD32649002216
:10F33000CA60356108690028FCD00A61204841781C
:10F34000491CC9B241700378994228D21F494078BC
:10F35000085C1F4988602FE0FEF740F8FEF7D2F8FE
:10F360001C4D03202860174F01263E60FDF74AFF21
:10F370000090FDF757FF052801D20098F9E7002219
:10F380002A603E61104801690029FCD002610C48E6
:10F390004178491CC9B2417003789942D6D3427072
:10F3A000D4E7FDF743FB07E004487F21817000218B
:10F3B000C17003480C4601622046F8BD1C0E0020B7
:10F3C000E81B002000100040001100408C1C0020B1
:10F3D000001500404015004010B504462F4900209C
:10F3E000087120781E2855D203007B441B79DB1856
:10F3F0009F44470E50363650505050505050505049
:10F40000505050500E0E0E0E3B50360E3B50271BE8
:10F41000224840790028607803D0A11CFCF7EAFB61
:10F4200038E0A11CFEF77EFF34E01C48407900283C
:10F4300003D01B490878491C0BE01A490878491C7D
:10F440000BE016480121017140790028607803D053
:10F45000A11CFCF7CFFB1DE0A11CFEF763FF19E028
:10F460006078A11CFEF756FA14E06078A11CFEF744
:10F4700051FA0A48217801707F2141708170C17072
:10F4800008E0FFF7ADFC05487F2181700021C170C5
:10F490000548016201492078087010BD1C0E00204B
:10F4A000330E0020220E0020E81B00202021020C39
:10F4B00001D010211046020A01D008391046020975
:10F4C00001D0091F1046820801D0891E104642084B
:10F4D00001D0881E7047081A704730B47446641E05
:10F4E0002578641CAB4200D21D46635D5B00E318C7
:10F4F00030BC184702E008C8121F08C1002AFAD120
:10F5000070477047002001E001C1121F002AFBD1A3
:10F510007047000070B505461120400101222C18EB
:10F5200008291BD009DC2846224BC030002936D0E0
:10F5300001293DD0032927D119E00A2917D0122922
:10F5400023D0142920D1E089062188431043E0818B
:10F55000284607F03AF80121490212E0E0898021AB
:10F560000843E081284607F030F8402109E01248BE
:10F570004255284601F016FD284607F026F80121DD
:10F58000C902284601F04EFD70BDE0890107FBD598
:10F5900008218843E081284607F017F870BD036111
:10F5A000284606F051FBE08920218843E08170BDA8
:10F5B000436170BD000001001702000070B5012317
:10F5C0000B4A990311600B4C21600B4D00242C60F9
:10F5D0000A4E70600A4804600A48036000E030BFC9
:10F5E00028680028FBD0034880300160116070BD9E
:10F5F00080E200E000E100E0D811002000E50040DA
:10F6000000E1004000E0004070B50B4C15460E468E
:10F61000002B00D0094C01460948A047084829465C
:10F620001038A04706481038FFF7C8FF0449304695
:10F630001031A04770BD0000A1150100B3150100F5
:10F64000CC13002010B504460448FFF7B7FF034968
:10F650002046203101F0A4FF10BD0000BC130020A3
:10F660000648416802141143416005484168490455
:10F67000FCD50449032048607047000000050040A5
:10F680000004004000E3004070B51E49044648797C
:10F69000002808D00D46903D012805D0022812D040
:10F6A00003281AD0002070BD2070022048719422D7
:10F6B0001549601CFBF7FFFE13499422943128463C
:10F6C000FBF7F9FE07E020700320487194222946D9
:10F6D000601CFBF7F0FE952070BD20700020487183
:10F6E000012003F0A3FB084908223439601CFBF712
:10F6F000E2FE2046942205490930FBF7DCFE9D20FE
:10F7000070BD000028110020DC0E00200410002035
:10F7100002484079002800D00120704728110020BD
:10F72000064A80008018002902D0416B491C4163C1
:10F73000C0308168491C816070470000A80E00201D
:10F7400010B501F009FF05F041F907F0EDF80B499C
:10F750000B48FBF7D7FE0B490B48FBF7D3FEFCF732
:10F760007DF962B605F098FDFFF77AFF03F0DAFB4A
:10F7700004F06EFC06F072FC10BD0000A819000039
:10F78000E81B002000040000E81B002010B5014623
:10F790000A220248FBF78FFE10BD00000413002070
:10F7A00070B50D462449C0B0401816460024030029
:10F7B000FFF793FE0705092E32363A3E26006946CA
:10F7C000284600DF13E01D490878491C09220B7800
:10F7D000491C1843521EFAD1002100280BD00A22DE
:10F7E0001649A81CFBF767FE6946284602DF6846F3
:10F7F0004478A41C04E00D22684602704170022483
:10F80000224669463046FBF756FEE0B240B070BD76
:10F810006946284603DFEAE76946284604DFE6E74B
:10F820006946284605DFE2E76946284606DFDEE747
:10F830006946284607DFDAE7DF03FFFF04130020ED
:10F84000F0B5172149014318DA7F4024D507921CEF
:10F85000D6B2DE775F7FED0F002F1BD09A7F002A94
:10F8600018D0BA1A00D55242052A09DB421952189B
:10F87000577F0122521B10184018407F874201D940
:10F880007408640070084000A04202D10120401BAF
:10F89000D877F0BD0224F5E7112110B549014218CF
:10F8A000D189042399431D235B01D181C418E379D5
:10F8B000FB2B00D3FB23A37101231943D1815902F0
:10F8C00001F0B0FB10BD000010B5B62104460B5C82
:10F8D000FF3441341C2100226156002B05D0104812
:10F8E00008562077801C0CD011E00D48C01C08562B
:10F8F000207702280BD12277608B012807D9400896
:10F9000004E02277608BFF2801D84000608302F07A
:10F9100087F9618B491E0840401C208310BD000000
:10F92000587001000948C06A00070ED407484030EB
:10F93000C26A07494A62026B8A62426BCA62826B80
:10F940000A63C06BCA05104348637047800000100B
:10F95000001700401B21490142189189127C891D22
:10F96000103251430B22920180180F31808A09090D
:10F97000081870471D2201215201801881707047BC
:10F980000A480088400701D502207047084880686F
:10F99000002809D007480168012901D004207047D8
:10F9A00000210160084670470520704714120020AE
:10F9B000E011002000140040F3B5002693B0344657
:10F9C00004F0C4FA139D0746FF354135A86A0028A4
:10F9D0007BD0FD2008900020119004900590149891
:10F9E000001D0B901398FF30693007901398FF307B
:10F9F000613003905BE0099000200A9009988079BB
:10FA00000007000F012807D00998C0798006800EF2
:10FA1000062801D3801F0A900B20C00138180090DF
:10FA2000007F400704D50A9808990A30814243D3E1
:10FA3000079801F04EFF099880790007000F07280A
:10FA40002ED2012809D10399497D002905D004A8A7
:10FA5000099901F096FF641C29E00099097F490784
:10FA60001ED509994A790B79110219434942CAB244
:10FA700009990A9B0E310191DBB209990093029218
:10FA8000C979099B8A0942490833095C0B9803F03C
:10FA900071FB0B900A990898401A0A38761C089056
:10FAA00011980999401C1190039801F06AFFA86A07
:10FAB000002801D0192E9EDB1198C0B203F0B6F9D0
:10FAC000A86A002802D0049D0EE05FE003A807C8E2
:10FAD000C26081600AE02846FBF72CFD01902946B0
:10FAE000079801F04EFF019D002DF4D1002E0BD0A0
:10FAF0000898FD21081AC2B2F3B20221149802F04C
:10FB0000A1FA042015B0F0BD002C3FD00F2C06DD6B
:10FB10000B20C0013818007F000700D50F242007F4
:10FB2000020EE3B20B21149802F08CFA149800260E
:10FB3000001D0A900B20C0013F181BE0079801F040
:10FB4000C8FE0546387F00070FD568792A7900027C
:10FB500010434042C0B20090E8792B468209083336
:10FB6000991D0A9803F020FB0A902946039801F09A
:10FB700008FF761CA642E1D1E0B203F057F9387FC6
:10FB8000000703D5002C01D00820BBE70020B9E70F
:10FB90004C6D0100F3B58DB0044604F0D7F9079021
:10FBA00000202646C0360690F06800287ED00B2044
:10FBB000800120180B900D20800120180A9020460B
:10FBC000A03009901B204001201803901D20400107
:10FBD00005212018C90108906118E01D01250027A2
:10FBE000FF30FA3004910590F068014629422AD08E
:10FBF000FF220132A91A0695954271D00CDC202D06
:10FC000022D004DC022D63D0102D1AD11CE0402D2F
:10FC100067D0802D15D15CE01F221202881A914214
:10FC200071D007DCFF3901396ED003204002081A79
:10FC300007D157E003214903401A6ED08900401ACA
:10FC40006CD000200690D9E0099A0799127E0831FD
:10FC5000022A01D0800316D5FF207130425CFF31AB
:10FC60000B98B931019000910398029203890B21FE
:10FC70000798C9014018007F00228006C10F0E9826
:10FC800002F0EAFF20E0FF207130425CFF31B93121
:10FC90000B980292009101900B210798C90140181E
:10FCA000007F00238006C10F022200E0A3E00E982F
:10FCB00002F0D2FF3F20079940010918C879401E81
:10FCC000C871099900200876F06830218843F060F7
:10FCD00086E003980B9A01890E9803F049F87FE0BB
:10FCE0005EE04CE00598C07D012806D007280A9800
:10FCF000C37E0AD0022B12D015E00A981A21C37EC7
:10FD00000398028905E018E029E003980289049825
:10FD1000C17D0E9803F0A7F862E014E04FE004986C
:10FD2000C07D302803D0039800210289F1E70398B1
:10FD300001890E9803F0AEF852E0039801890E98FD
:10FD400002F088F94CE00598808A00900598438A73
:10FD5000427C039801890E9803F0A6F940E00898C8
:10FD600080790090C1007031089801914279039820
:10FD7000D300018970330E9803F024F830E0059821
:10FD8000837D112040012018807B000601D51122BF
:10FD900000E00022039801890E9803F053F91FE058
:10FDA0000499049849890089009004980191C388B6
:10FDB0008288039801890E9803F05AF910E0089898
:10FDC0000279039801890E9803F03CF83F200799C7
:10FDD00040010918C879401EC871099900200876A9
:10FDE000069800280AD0022805D0F068A843F060E1
:10FDF000012003F01BF806980FB0F0BD7F1C6D00CA
:10FE0000122F00DAF0E6F6E7F8B504461B204001B1
:10FE1000201800902546C03540892969884201D0C4
:10FE20000020F8BD0120000428611D204001271892
:10FE300078780026002815D01720400121180B20C3
:10FE4000800120181D220E460446FBF734FB009863
:10FE5000A18AC18103CC03C51D213046FBF752FBAB
:10FE6000012616E0204605F0EFFE1120400125187E
:10FE7000E88920218843E8814021204600F07CFB6E
:10FE8000002806D0F878002803D0E889102108431C
:10FE9000E8813046F8BD10B58478944204D0112230
:10FEA00006F048FA012010BD002010BD02490020D4
:10FEB0008860024908807047E01100201412002079
:10FEC000112149014018C18904229143C181704721
:10FED000F8B50446112040012018C089C1051D2035
:10FEE00040012718002901DA39790EE00B20254658
:10FEF0008001C0352618A969F068814209D938788F
:10FF0000002801D0082100E03E21204600F055F9EC
:10FF1000F8BD0520C00120188169002904D0B2680D
:10FF2000914207D9891A8161C169002906D0B26856
:10FF3000914201D82221E8E7891AC1610D20800190
:10FF40002018C07E02282BD1B08AB168401D4143E1
:10FF50002A686B6889180020584103221202A218EF
:10FF6000009213685268591A824102D2204600F06A
:10FF700065FC00982968036840686A68591A9041CE
:10FF80000ED201214903204601F04CF800992B685C
:10FF900089686868002259185041009A11605060C1
:10FFA000A869B16807234018A8611B2040012118E7
:10FFB0004889DB01401C82B24A81E318887C5B7F60
:10FFC000C018C0B28874252801D3253888746869A0
:10FFD00082420DD1012000046861B878002803D066
:10FFE000204603F011FF03E08021204600F0C4FA10
:10FFF0000020B872F8BD0000F3B504461720400198
:020000040001F9
:10000000251883B000212982022028772046FFF797
:10001000A1FC1B214901611849890A182146C031F8
:100020000A610B220B6892014968A7180197BA6808
:10003000DF2742439A18002041412B8A2348FF437F
:100040004343D8173E12DB197041D618019F414136
:10005000BF6A6B8B2A8BBC460027FF3327678B3325
:10006000FF32A3668B322046E2666030012242777F
:1000700067460023876283852030837304980028B5
:1000800013D000220092002803DA019882680498B5
:100090001018821900234B41204605F04FFF821BA8
:1000A0002823D2180A4E094C05E00092F1E72B8A6A
:1000B0005B1C2B829219A242F9D8E0228218019887
:1000C000002359410262416205B0F0BDE204000024
:1000D0001EFBFFFFF8B505460E460446C03501215C
:1000E0006869090488420DD12021204600F0DAFB1E
:1000F000002808D0112040012018C1890122920255
:100100001143C181F8BD2046FFF724FC1B214901A2
:10011000611849890D2208181D21686149010020D4
:10012000611888702320000120180A490746FBF750
:10013000C2F90948052231462018FBF7BCF909210C
:100140008901A88A6118488001223946204600F0BA
:100150005BFEF8BD1A6D01003D020000F8B50446D3
:100160001D20400126187079B179884200D90146D6
:100170000B208001CD002718FF35788B5735A8421A
:100180001AD22021204600F08DFB002814D1172020
:100190004001394620181D220746FBF78CF97D8364
:1001A00000212046FFF728FF2320000121182046C8
:1001B00000F066FE0020F070F8BD10B504461D206A
:1001C00040012018017101214904204600F02AFF56
:1001D000204605F047FD0421B8200155204602F0D5
:1001E00069FEE11DFF31FA31204601F0CFFC4120CC
:1001F000C0002118204601F0C9FCFF210020FD317C
:1002000008511B2149016118888110BDFFB589B0D3
:100210000E4604460321A030179B8B4D0176002B20
:1002200001D0912100E0962120461C30E06120623F
:10023000242211553430206560650C386064A06458
:100240004C2001552046803000607C2240601155D2
:1002500005617E4961607E4921607E491B220375EC
:1002600052010888A21800921081401C80B20F220F
:10027000002512020880904201D10120088003204D
:100280000002201868210746FBF73CF90D20800189
:100290002018C576009870490571009841806F4814
:1002A000B86003F093FD01462046C03003908160A2
:1002B000204603F0A9FD01F0B3FCC1B20720C00144
:1002C000201801900C204143090A0198491D4177EB
:1002D000009881740098012145811D20400120185B
:1002E000059005700398090401610598457003980D
:1002F0004161059885702046FF30F5300560456006
:1003000005981699017105981B2141710598817115
:10031000204601F0E5F8019885770198C577E01D42
:10032000FF30FA30056045604120C00020180560AC
:100330004560FF20FD30055100988581484821180F
:1003400048480088888300984574204600F0E0F90A
:100350000521C90161180B984880152149016118D0
:100360000C9848822A213046FBF7CCF8B61D30782D
:10037000314600090001401D307070780E3180094F
:1003800080012230707003988068FBF7DDF801F07F
:1003900047FC06903046032206A91230FBF78BF883
:1003A0000B218901022067183877707500220C999B
:1003B0000B9803F075F878823076010A71762A4935
:1003C00005224843B8601398B882B076000AF076E8
:1003D0001298F8823077000A707700991398C881D4
:1003E000224912984843F8601D48D1302118304600
:1003F0001E30FBF760F82036F0784109019849017A
:10040000407FC006C00E0143E0200143F170159803
:100410007883149838833946204600F0E6F803982C
:100420007F21C560059885720598C172172040012B
:100430002018C57785774577009805747D77BD7757
:10044000FD770DB0F0BD0000F90701005D5301001C
:10045000F94F010080110020B80B000080C3C901D2
:10046000A20200006C6C0100E204000010270000F2
:10047000F3B504460B2080012718788B87B0FF3036
:100480008B300490388BDF22FF308B300590204674
:10049000C030009022C8D24310128E184541204629
:1004A000FFF7B2FC00280ED00099DF2221C9D24309
:1004B00011128618788B4D41FF308B300490388BA9
:1004C000FF308B300590009A39681368786852685D
:1004D00059405040014316D10023059A0499BF6842
:1004E0002364E26320463030A16301224277A7658E
:1004F00083855E200355009332462B46204605F047
:100500005BFB09B0F0BD08980028FAD001200090EC
:1005100032462B46204605F085FDF2E770B50446CD
:10052000112040012018C089010601D51A2070BD94
:10053000400604D54021204600F074FD17E020213C
:10054000204600F0AFF9002801D0232070BD232001
:1005500000012018152207490546FAF7ACFF0122D1
:100560002946204600F050FC204606F015F80020F1
:1005700070BD0000276D010070B50546FF30C13029
:10058000C46B0E46002C0BD0617A227A090211430B
:10059000314205D00021C163284601F06CFB11E017
:1005A000E91DFF313246FA31284601F02FFA0400E6
:1005B00008D14120C00029183246284601F026FA09
:1005C000040010D0607A217A00020843C0070AD0E4
:1005D000D720800028180168491E0160491C02D1FB
:1005E0000179491E0171204670BD1D2252018018FB
:1005F00042798079824200D910464A7EC0000B7E43
:10060000FF30120257301A43824202D20876000AA3
:100610004876C87E8B7E02021A43487E0B7E00021B
:100620001843824202D28876000AC87670470000DA
:10063000F8B5044688790E4681071D204001890FD0
:100640002518012915D0022913D02046FF30ED309E
:1006500003290746314606D1204600F037F9002825
:1006600014D03146384601F082F9287A401E2872AB
:100670000CE00F48005D042815D0052813D01B207E
:10068000400120180089314602F0B8FB287A002882
:1006900008D1112040012018C089002802D020462E
:1006A00000F0B2FCF8BD3D212046FFF786FDEDE7E6
:1006B00017020000F8B50D460446172149016118DC
:1006C000079F0698104E4D8275430B26B601A6195A
:1006D000B5628A824F8308830C48CB82434320460D
:1006E000F362FFF782FF00212046FFF785FC93208D
:1006F00080002118204600F0C3FB1D210120490184
:100700006118C870F8BD0000E20400001027000066
:10071000C21DFF320021FA32117420239375D17566
:10072000112252018218D1810522D2018018417014
:100730008161C16170470000FEB504461D20400183
:1007400025186879884229D0112040012618F0899F
:100750008446800722D4FC2901D2FB2900D3FB2147
:10076000C8007030904200D082B2214F683789CFE4
:100770000090029701936846C1800281604629710A
:1007800040070CD51B4800A9082202312018FAF7AF
:1007900092FE28796979884200D26871FEBD2046B0
:1007A000E43007460621FAF7ADFEFF20ED30075191
:1007B00039460020FAF7C8FE1B206871204602F077
:1007C000AFFD9D2000A98000092201312018FAF711
:1007D00072FE4D20C00021180122204600F014FBBB
:1007E000F08906210843F081204605F0D5FEFEBDC4
:1007F000A86C01007502000070B50D46044620216A
:1008000000F050F8002817D10B2080012118172084
:1008100040011D222018FAF74EFE29462046FFF718
:10082000EBFB232000012118204600F029FB1D21AD
:10083000002049016118C87070BD000070B5044601
:10084000112040012618B07B400603D51348005DF7
:10085000C00622D52021204600F024F800281CD113
:10086000B07B000719D42320000125180A2128464F
:10087000FAF748FE09480322243009492018FAF7FC
:100880001AFEF08908210843F081204605F084FE15
:1008900001222946204600F0B7FA70BD160200007A
:1008A000A86C0100112252018218D2890A420BD190
:1008B000D421095801221204914205D10521C90110
:1008C00040184078002800D001207047F0B5044659
:1008D0008FB0881D0590E61D801CFF36FA36049007
:1008E0000F46F07D097A042804D005280BD006288D
:1008F0000CD014E0052912D0022910D00D290ED0F9
:10090000112907D10BE00629F6D108E00B2906D002
:10091000022904D03D212046FFF74FFC67E2052263
:10092000D201A2180A9208911B225201A2180D921C
:100930001D2202975201A218079223222346120178
:10094000C033A21809930B9211230D225B0192016F
:10095000891EE518A2180A370C920B00FEF7BDFDA0
:1009600014F6F5315B93F4F5F3F5A40BF2F1F0F521
:10097000EFEEEDBFBFF5059840780628CED104987C
:1009800041787174C178827809021143718241798A
:10099000027908021043B082307C002802D002287D
:1009A00004D00BE0204605F0D3FC07E00121C90389
:1009B000204600F037FB204605F007FE012030748A
:1009C00015E2059949780D29A8D10328A2D10499E7
:1009D00008220D46481C0146D32080000935201806
:1009E000FAF769FDF948042229462018FAF763FD51
:1009F0000420F075CB2080002218C320800021182D
:100A0000D120800001230D462018FEF7FDFD284669
:100A100000F0FFFEEBE1059949780129D0D10428C7
:100A2000D4D10D980179D5208000D176201800F01E
:100A3000D1FED7208000201800F0CCFE0C98C07E9C
:100A400002280BD1032109980902631807689968E5
:100A50004068791800225041196058600A210B98AB
:100A6000FAF750FDD9480322EC38D9492018FAF793
:100A700022FD04202883012220460B9900F0C4F9AE
:100A80000520F075B3E105994978012998D1052829
:100A90009CD1204600F086FA0121C902204600F0D0
:100AA000C1FA0020F075A7E005994978012987D19E
:100AB000D17E02298AD1062888D10120D0760D98CE
:100AC0000079032802D10D9902200871C0490D2236
:100AD00021310B98FAF7EFFC01220B997DE0EE89AA
:100AE00001277F02BE43EE8105984078092891D105
:100AF00008A8092201300499FAF7DDFC0799684635
:100B0000408C0979884200D30846079A50710498AE
:100B1000007814281BD002208643EE816846C08CE2
:100B2000FB2800D3FB200799887101200643EE8142
:100B3000204605F04AFD3946F8E057E051E037E13C
:100B400090E069E006E15BE0FAE052E146E1A04BAB
:100B500004AFDB1E34330DCB0DC76846C182C9001C
:100B6000703101830799C08CC87170070ED4B0072B
:100B700008D42046E43006460621FAF7C3FCFF20DD
:100B8000ED300651204602F0CBFB07E0FF2101319A
:100B90002046FFF7F1FC204605F017FD9D2004A933
:100BA0008000092201312018FAF785FCE889092123
:100BB00089014307874A6118002B09DB830704D4A6
:100BC0008A6204210843E88103E00020886200E093
:100BD0008A624D200122C0002118204600F014F93D
:100BE00005E11321B9700120787027E0E889010739
:100BF000F6D508218843E881204605F0E6FCF6E0BA
:100C0000049840214078B075E8890843E88120467F
:100C100005F0DBFC402189E0049840214078B07564
:100C2000E8892D220843E8810925BD70B17D381D72
:100C30001140F9700721FAF765FC7D7038780321BF
:100C40000843387064480299FAF77EFC0299002044
:100C50000872487201222046029900F0D5F800205F
:100C60000FB0F0BDA12080000599261800270822AA
:100C7000C91C3046FAF71FFCA87B800605D40998EA
:100C8000416901200004814200D02327F079B17925
:100C9000030270790B43317902020A43F078B1788C
:100CA00000020843844670783178000208436146A8
:100CB00002F0AEFA002800D01E27E889400505D4CE
:100CC0000998416901200004814200D0232703F0E4
:100CD0003DF9002F2FD1F178B278090211430A9A19
:100CE000528891421AD37178327809021143152241
:100CF0005201A218528A914210D8717933790A02AE
:100D00000B2189011A4361188B8A9A4206D1F27924
:100D1000B3791202C98A1A438A420CD00B21C90145
:100D20004018808BC00505D5FF210131204600F019
:100D300079F95CE01A273946204600F0EBF856E0D6
:100D400004984178142903D1B17DDF221140B17597
:100D5000417825E0049F03280FD004280DD00628F1
:100D60000BD0E889810610D500212046FEF7D2FB82
:100D700040212046FFF700FC39E003212046FEF722
:100D8000C9FB0720F07579781DE009994A690121AE
:100D900009048A4201D0012102E0810704D514210F
:100DA0002046FEF7B7FB22E0000720D51221F7E727
:100DB000049D20466978FEF7ADFB6878032816D1BC
:100DC0000720F075A9780A98C17510E02603000085
:100DD000AB6C010099F80000D151010004984178F2
:100DE00007980171E889FF2101310843E88101205A
:100DF00036E70899F9700721B970022078703978C0
:100E00000320014339701DE7F8B517468A7A0D248F
:100E100096071B22B60F52018E7285186B7CA401B7
:100E20000419002B04D0012B09D0022B0DD01EE099
:100E3000E27E012A10D1F24392070DD017E04A7AE0
:100E40000B7A12021A43520704E04A7A0B7A120212
:100E50001A431207002A0ADAFF30FF30023000F08E
:100E6000B6FDE07E022807D102F0AAFE04E041228E
:100E7000D200801800F0ABFDA889C019A881F8BD88
:100E800070B50D4606460C460D2215492846FAF760
:100E900012FB172040013018017F6173018AA17392
:100EA000090AE173418A2174090A6174818AA17473
:100EB000090AE174C08A2075000A6075D020805B41
:100EC000A075000AE075012229463046FFF79CFF15
