:020000040000FA
:1078000034100A1001000400BD819BD67A60B46870
:1078100004D7F0639A2186FCBA6A9BB5D1E7B9E533
:10782000AC1FCEB3D90BCB7579AD897CD2D1A68BE9
:1078300011917685ACF5FA6F73CC33F3CEA11C2091
:107840002BAA4A61D4A370F0BFD98353863AFDC4F2
:1078500041AE9AA0894D7792489C38BB0DD8349997
:107860007D32EEB84F7FB4DAB402EA6AB93C0F76E3
:1078700008EAD6E27E0C1DF58AC06D83E92732192D
:1078800093AE4403C8D1D2FD93558214DD0BD3B51A
:10789000E5A47230EE7F076A75D342D4CFF99DC15B
:1078A00042145A9B8D872C926774D49FAB5B4FDA3E
:1078B000DD677B7857786EB36F25643EC201944EC6
:1078C00022CFBFF1400D877F252A0AC8046AA88607
:1078D0007637E0FD712CDB62C5C831B3E509E8837A
:1078E0008C16D4AADE40AE492B4DE072C6232F324F
:1078F000B3AF324061362921313A7260844CD106EF
:1079000050A77DF7EB8E0B58020003000301050022
:1079100000000000007C0000301F0000000000009C
:1079200020DCAF0343A9BCA6C6E499B8D6A2601078
:10793000291EDCF1AB79BF993C141B54B1FA1D949C
:1079400012271AB93CD2CAFBB505A55B91AEEA8CE9
:1079500040A8F3696BAA5B4B6CE9DAEF8951DD8EC5
:10796000ACC289564FEDEA7B10E7760E7CD9D5770D
:00000001FF
